S01900006F70656E626C745F73746D3332663230372E7372656300
S3150800000000000220DD070008C1070008C307000832
S31508000010C5070008C7070008C90700080000000050
S31508000020000000000000000000000000CB070008E8
S31508000030CD07000800000000CF070008D107000818
S315080000402D0800082D0800082D0800082D080008AE
S315080000502D0800082D0800082D0800082D0800089E
S315080000602D0800082D0800082D0800082D0800088E
S315080000702D0800082D0800082D0800082D0800087E
S315080000802D0800082D0800082D0800082D0800086E
S315080000902D0800082D0800082D0800082D0800085E
S315080000A02D0800082D0800082D0800082D0800084E
S315080000B02D0800082D0800082D0800082D0800083E
S315080000C02D0800082D0800082D0800082D0800082E
S315080000D02D0800082D0800082D0800082D0800081E
S315080000E02D0800082D0800082D0800082D0800080E
S315080000F02D0800082D0800082D0800082D080008FE
S315080001002D0800082D0800082D0800082D080008ED
S315080001102D0800082D0800082D0800082D080008DD
S315080001202D0800082D0800082D0800082D080008CD
S315080001302D0800082D0800082D0800082D080008BD
S315080001402D0800082D0800082D0800082D080008AD
S315080001502D0800082D0800082D0800082D0800089D
S315080001602D0800082D0800082D0800082D0800088D
S315080001702D0800082D0800082D08000800000000BA
S309080001802D08000830
S3150800018410B5054C237833B9044B13B10448AFF3BF
S3150800019400800123237010BD100000200000000019
S315080001A4A064000808B5034B1BB103490348AFF321
S315080001B4008008BD0000000014000020A0640008A8
S315080001C408B503F079F908BD08B503F08BF908BD3D
S315080001D408B5054B1B6913F4005F01D1002008BD5F
S315080001E400F020F90120FAE70008024008B5642067
S315080001F400F0E8F808BD08B500F0EAF808BD000004
S3150800020400B5C7B04FF48C720021684606F0FEF8B4
S315080002146946084805F0ABFF40B9009B3BB19DF819
S31508000224083013F0100F02D1012000E0002047B077
S315080002345DF804FBBC66000800487047BC66000805
S3150800024410B582B0033804286ED8DFE800F0035CE2
S31508000254842A4200524B002283F828224C684CB167
S315080002640A225049184605F053FB18B94C4B01228B
S3150800027483F8282222464C494C4802F043FC484B52
S3150800028493F82832012B4FD14549484806F014F80B
S31508000294002849DA4248002380F8283205F094FEFB
S315080002A442E00B684A684249404802F02BFC3C4B42
S315080002B493F82832012B37D139493C4805F0FCFF1D
S315080002C4002831DA3648002380F8283205F07CFE07
S315080002D42AE00B7A00930B684A683649334802F0D9
S315080002E411FC2F4B93F82832012B1DD12C492F488A
S315080002F405F0E2FF002817DA2948002380F8283297
S3150800030405F062FE10E02C49284802F0FBFB244B5A
S3150800031493F82832012B09D0214B93F82832012B64
S3150800032411D0264805F045FF02B010BD1C491F48E8
S3150800033405F0C2FF0028EFDA1948002380F82832AE
S3150800034405F042FEE8E7164C204605F03DFE00237C
S3150800035484F82832E5E70A781949144802F0D2FBEA
S315080003640F4B93F82832012B0CD00D4B93F82832F7
S31508000374012BD9D10A4C204605F026FE002384F821
S315080003842832D1E70649094805F096FF0028ECDA31
S315080003940348002380F8283205F016FEE5E700BF77
S315080003A4AC000020B8640008C86400082C000020CB
S315080003B4E86400080865000830650008BC6600089B
S315080003C454650008014B1880704700BFE0020020FE
S315080003D408B503F01DF80F4B1B68984210D30E4B53
S315080003E41B7873B90C4B01221A700C4B4FF48072AC
S315080003F49A6103F00DF80A4B1B880344054A1360F7
S3150800040408BD054B00221A70044B4FF080729A619E
S31508000414EFE700BFDC020020D802002000140240E7
S31508000424E0020020024B4FF080729A61704700BFC9
S3150800043400140240F0B58DB000240694079408947D
S3150800044409940A940B942B4B1A6B42F004021A6310
S315080004541A6B02F004020592059A1A6B42F02002FE
S315080004641A631A6B02F020020492049A1A6B42F079
S3150800047480021A631A6B02F080020392039A1A6BBB
S3150800048442F008021A631A6B02F008020292029AF0
S315080004941A6B42F002021A631B6B03F00203019300
S315080004A4019B154F4FF08073BB61144E4FF48023A4
S315080004B4B3614FF40053069306A9114801F024F9D1
S315080004C44FF48073069301250795089409940A95B1
S315080004D406A9384601F018F9042306930795032359
S315080004E4089309940A9406A9304601F00DF90DB04B
S315080004F4F0BD00BF0038024000140240000C024060
S31508000504000802402DE9F04190B0002409940A94A9
S315080005140B940C940D940E940F94039404940594DC
S31508000524069407940894274B1A6C42F480221A649A
S315080005341A6C02F480220292029A1A6B42F008029A
S315080005441A631B6B03F008030193019B4FF4807332
S3150800055403934FF00208CDF8108003270597072662
S315080005640896194D03A9284601F0CEF84FF40073EE
S315080005740393CDF81080059706940794089603A963
S31508000584284601F0C1F84FF4E13309930A940B9411
S315080005940C940C230D930E940F940C4C09A9204625
S315080005A401F01CFA236923F490432361636923F059
S315080005B42A036361E36843F40053E36010B0BDE8BB
S315080005C4F08100BF00380240000C02400048004099
S315080005D408B5254A136823F00F0343F00303136091
S315080005E4214B1B6803F00F03032BF9D11F4A136829
S315080005F443F4803313601D4B1B6813F4003FFAD091
S315080006041A4B5A681A4911401A4A0A435A601A6810
S3150800061442F080721A60154B1B6813F0007FFAD0FB
S31508000624124B9A6822F0F0029A609A6822F4E05211
S3150800063442F4A0529A609A6822F4604242F4004254
S315080006449A609A6822F0030242F002029A60074B03
S315080006549B6803F00C03082BF9D1074801F01EFA2E
S31508000664002000F0F9F808BD003C024000380240BA
S315080006740080BCFF193C4000000E270708B500F0AF
S3150800068411F9FFF7A5FFFFF7D5FEFFF73BFFFFF7C5
S3150800069497FDFFF799FDFCE782B0002100910B4B0B
S315080006A45A6C42F480425A645A6C02F480420092AC
S315080006B4009A01911A6C42F080521A641B6C03F07A
S315080006C480530193019B02B0704700BF0038024073
S315080006D400B589B0002303930493059306930793FF
S315080006E40268154B9A4202D009B05DF804FB002152
S315080006F4019103F5EA331A6C42F000721A641A6C13
S3150800070402F000720192019A02911A6B42F00202F7
S315080007141A631B6B03F002030293029B4FF44073A4
S31508000724039302230493032306930923079303A934
S31508000734024800F0CFFDD7E70064004000040240F9
S3150800074408B501F027F818484FF08073836100F064
S315080007543FFF164800F03CFF154800F039FF1548DE
S3150800076400F036FF144B1A6C22F000721A641A6CE5
S3150800077422F480221A641A6B22F020021A631A6B76
S3150800078422F008021A631A6B22F004021A631A6B1F
S3150800079422F002021A631A6C22F080521A645A6C06
S315080007A422F480425A6408BD00140240000C024038
S315080007B40008024000040240003802407047FEE781
S315080007C4FEE7FEE7FEE770477047704708B500F096
S315080007D483F808BD70470000DFF834D0002103E031
S315080007E40C4B5B58435004310B480C4B42189A4245
S315080007F4F6D30B4A02E0002342F8043B094B9A421B
S31508000804F9D3FFF7E7FF05F017FEFFF737FF704741
S3150800081400000220B06C0008000000201000002030
S3150800082410000020F0100020FEE7000010B5094B68
S315080008344FF0FF321A6200241C625A625C621A6123
S315080008441C615A615C619A619C61FFF779FF2046D5
S3150800085410BD00BF0038024010B504460E4B1A7886
S315080008644FF47A73B3FBF2F30C4A1068B0FBF3F057
S3150800087400F044FB68B90F2C01D901200AE00022D4
S3150800088421464FF0FF3000F029FB054B1C60002081
S3150800089400E0012010BD00BF040000200000002075
S315080008A40800002008B50B4B1A6842F400721A6057
S315080008B41A6842F480621A601A6842F480721A60EE
S315080008C4032000F0F9FA0020FFF7C6FFFFF7E4FE5D
S315080008D4002008BD003C0240034A1168034B1B78FC
S315080008E40B441360704700BFE40200200400002094
S315080008F4002800F0A18038B5044690F82030D3B11A
S315080009042268136843F00103136002F089FD054663
S3150800091423685A6812F0010F10D102F081FD401BBA
S315080009240A28F5D9636A43F400336362052384F815
S315080009342030012038BDFFF7CBFEE1E71A6822F024
S3150800094402021A6002F06CFD054623685A6812F022
S31508000954020F0DD002F064FD401B0A28F5D9636A1C
S3150800096443F400336362052384F820300120E1E769
S31508000974227E012A3DD01A6822F080021A60637E1C
S31508000984012B3BD02268136823F040031360A37E2F
S31508000994012B39D02268136823F020031360E37E01
S315080009A4012B37D02268136843F010031360237FA2
S315080009B4012B35D02268136823F008031360637F7C
S315080009C4012B33D02268136823F004031360A36849
S315080009D4E268134322691343626913436268013A5E
S315080009E421681343CB6100206062012384F8203018
S315080009F4A0E71A6842F080021A60C0E72268136802
S31508000A0443F040031360C2E72268136843F02003E7
S31508000A141360C4E72268136823F010031360C6E75B
S31508000A242268136843F008031360C8E7226813684A
S31508000A3443F004031360CAE70120704790F8203096
S31508000A44013BDBB2012B05D9436A43F48023436295
S31508000A540120704710B5474BD3F8002242F0010233
S31508000A64C3F80022D3F8002222F47C52C3F80022E9
S31508000A74D3F80022486A42EA0022C3F800224A69E7
S31508000A8402F01F02012000FA02F2D3F81C026FEAF0
S31508000A94020C20EA0200C3F81C02CB69CBB9354B19
S31508000AA4D3F80C020CEA0000C3F80C028C884869D7
S31508000AB4D1F80CE044EA0E44483043F830408C68D8
S31508000AC4088840EA04404C6904F1480E03EBCE0357
S31508000AD45860CB69012B1ED08B69002B35D125486C
S31508000AE4D0F804320CEA0303C0F804320B699BBB42
S31508000AF42048D0F814320CEA0303C0F814320B6AFF
S31508000B04012B30D01B4AD2F8003223F00103C2F875
S31508000B140032002010BD174BD3F80C021043C3F85B
S31508000B240C028C884869D1F800E044EA0E4448303F
S31508000B3443F8304088894C69D1F808E040EA0E4009
S31508000B44483403EBC4035860C6E70A48D0F80432AD
S31508000B541343C0F80432C9E70648D0F814321343DD
S31508000B64C0F81432CBE70349D1F81C321343C1F851
S31508000B741C32C7E70064004070B5044690F820505C
S31508000B84EDB2012D06D0436A43F4002343620125DE
S31508000B94284670BD022380F820300268136823F0C3
S31508000BA40103136002F03CFC064623685B6813F0F5
S31508000BB4010F0CD002F034FC831B0A2BF5D9636AA7
S31508000BC443F400336362052384F82030E0E7002504
S31508000BD46562DDE730B590F820C00468A4680CF1B6
S31508000BE4FF3C5FFA8CFCBCF1010F62D814F0E05F9D
S31508000BF459D0C4F3016C012404FA0CF41C608B6804
S31508000C04002B3DD10D68CB68046843EA45550CF1C1
S31508000C1418031B01E55003680C690CF1180E03EB65
S31508000C240E135C600B7D012B35D0D17993791B04A7
S31508000C3443EA0163517943EA01231479016823439A
S31508000C4401EB0C11C1F88C31D17893781B0443EA73
S31508000C540163517843EA0123117802680B4302EBD6
S31508000C640C12C2F8883102680CF1180C4FEA0C1CF5
S31508000C7452F80C3043F0010342F80C3000201DE012
S31508000C844C6843EAC403CC6823430CF118042401D2
S31508000C9405682B51BFE7036803EB0E13596841F443
S31508000CA480715960C1E7436A43F400134362012023
S31508000CB404E0436A43F480234362012030BD90F87C
S31508000CC42030013BDBB2012B01D9002070470368B1
S31508000CD49B6803EA8163B3EB816F01D001207047F7
S31508000CE40020704790F820C00CF1FF3C5FFA8CFC9A
S31508000CF4BCF1010F00F2A58030B451B90468E46868
S31508000D0414F0030F10D1436A43F40013436201201D
S31508000D147EE00468246914F0030F05D1436A43F49A
S31508000D2400134362012073E0056801F11B042401E2
S31508000D342C5904F004049460002C6BD1056801F165
S31508000D441B0424012C59640D1460046801F11B0C5E
S31508000D544FEA0C1C54F80C4004F00204D4600468EE
S31508000D64A444DCF8045015F0080F5BD00824146179
S31508000D74046801F11B0C04EB0C146468C4F307241F
S31508000D849461046804EB0C146468240C54610268C6
S31508000D9402EB0112D2F8B8211A70026802EB0112AA
S31508000DA4D2F8B821C2F307225A70026802EB01127C
S31508000DB4D2F8B821C2F307429A70026802EB01120C
S31508000DC4D2F8B821120EDA70026802EB0112D2F8D0
S31508000DD4BC211A71026802EB0112D2F8BC21C2F3D3
S31508000DE407225A71026802EB0112D2F8BC21C2F337
S31508000DF407429A71026802EB0112D2F8BC21120E5C
S31508000E04DA71C1B90268D36843F02003D3600020BD
S31508000E1430BC7047056801F11B0424012C59E40809
S31508000E24546092E701F11B0504EB0514646804F0A9
S31508000E340F0414619CE70268136943F020031361E5
S31508000E44E5E7436A43F480234362012070470000C0
S31508000E54002808DB0901C9B200F1604000F56140C9
S31508000E6480F80013704700F00F000901C9B2014B5E
S31508000E741954704714ED00E000B500F00700C0F1FE
S31508000E84070CBCF1040F28BF4FF0040C031D062BF6
S31508000E940FD9C31E4FF0FF3E0EFA0CF021EA0001EB
S31508000EA499400EFA03FE22EA0E0241EA02005DF8B0
S31508000EB404FB0023EEE70000074AD36823F4E06343
S31508000EC41B041B0C000200F4E060034343F0BF63F9
S31508000ED443F40033D360704700ED00E010B50446D0
S31508000EE4054BD868C0F30220FFF7C6FF0146204623
S31508000EF4FFF7AEFF10BD00BF00ED00E00138B0F10A
S31508000F04807F0BD24FF0E0235861054AF02182F81E
S31508000F1423100020986107221A6170470120704740
S31508000F2400ED00E010B409490C6924F440740C611E
S31508000F340C6944F440740C610C6944F001040C61B6
S31508000F440260BFF36F8F436010BC7047003C0240D9
S31508000F54074B1A6922F440721A611A6942F400723C
S31508000F641A611A6942F001021A610160704700BFEA
S31508000F74003C0240074B1A6922F440721A611A6946
S31508000F8442F480721A611A6942F001021A610180F8
S31508000F94704700BF003C0240064B1A6922F44072AF
S31508000FA41A611A691A611A6942F001021A61017012
S31508000FB4704700BF003C0240204BDB6813F0100F5B
S31508000FC407D01F4AD36943F00803D3611B4B102289
S31508000FD4DA601A4BDB6813F0200F07D0184AD36976
S31508000FE443F00403D361154B2022DA60134BDB6804
S31508000FF413F0400F07D0124AD36943F00203D361B2
S315080010040E4B4022DA600D4BDB6813F0800F07D0D5
S315080010140B4AD36943F00103D361084B8022DA6093
S31508001024064BDB6813F0020F07D0054AD36943F071
S315080010341003D361014B0222DA607047003C024078
S31508001044E8020020094B1B69002B01DB00207047CE
S31508001054064B074A5A6002F188325A601B69002B0C
S3150800106401DB002070470120704700BF003C0240A6
S3150800107423016745034A136943F0004313610020BB
S31508001084704700BF003C024038B50446144B0022A2
S31508001094DA6102F0C5F90546124BDB6813F4803FA2
S315080010A40AD0B4F1FF3FF7D024B102F0B9F9401BD6
S315080010B4A042F1D903200DE00A4BDB6813F0010FB7
S315080010C402D0084B0122DA60064BDB6813F0F20FF4
S315080010D401D1002038BDFFF76FFF0120FAE700BFF2
S315080010E4E8020020003C0240F8B516461B4A127E68
S315080010F4012A30D004460D461F46184B01221A769B
S315080011044CF25030FFF7C0FF90B9ACB1012C18D09F
S31508001114022C1BD032463B462846FFF703FF4CF207
S315080011245030FFF7B1FF0E4A136923F00103136128
S315080011340A4B00221A76F8BDF1B22846FFF72CFFAF
S31508001144EDE7B1B22846FFF715FFE8E7314628462A
S31508001154FFF7FEFEE3E70220EDE700BFE802002002
S31508001164003C0240074B1A6922F440721A611A6954
S3150800117442F004021A611A6942EA002242F48032F1
S315080011841A617047003C0240012905D0022906D09D
S3150800119439B14FF4407104E04FF4807101E04FF423
S315080011A400710E4B1A6922F440721A611A690A43CD
S315080011B41A611A6922F0F8021A61F82292FAA2F25E
S315080011C4B2FA82F2904040F002001A6902431A61A8
S315080011D41A6942F480321A61704700BF003C024023
S315080011E4164B1B6813F4007F10D0144B1A6822F4AC
S315080011F400721A601A6842F400621A601A6822F4C5
S3150800120400621A601A6842F400721A600B4B1B6873
S3150800121413F4806F10D0094B1A6822F480621A609E
S315080012241A6842F480521A601A6822F480521A60C4
S315080012341A6842F480621A60704700BF003C024094
S31508001244F8B5224B1B7E012B3ED004460E461F4B97
S3150800125401221A764CF25030FFF716FF074670BB88
S315080012644FF0FF3333602368012B16D0A568E36873
S31508001274A2681344AB4220D9217C2846FFF784FF91
S315080012844CF25030FFF700FF114A136923F0FA03B2
S315080012941361074680B90135E9E76168207CFFF7E1
S315080012A461FF4CF25030FFF7EFFE0746084A136910
S315080012B423F00403136100E03560FFF791FF034B45
S315080012C400221A763846F8BD0227FBE7E802002012
S315080012D4003C024070B582B0002365E085685E0074
S315080012E40324B44025EA0405CC68B4402C4384603E
S315080012F4456825EA0C054C68C4F300149C402C4345
S31508001304446063E0DD08083550F8254003F0070C0F
S315080013144FEA8C0C4FF00F0E0EFA0CFE24EA0E0E52
S315080013240C6904FA0CF444EA0E0440F8254064E017
S31508001334082400E0002404FA0EF42C430CF1020CF1
S31508001344624D45F82C40624CA568D44325EA02064A
S31508001354D1F804C01CF4801F01D042EA05065C4D8E
S31508001364AE60ED6804EA0506D1F804C01CF4001F53
S3150800137401D042EA0506564DEE606D6804EA050694
S31508001384D1F804C01CF4003F01D042EA0506504DCA
S315080013946E602D682C404E6816F4803F01D042EAF0
S315080013A405044B4A146001330A6832FA03F400F060
S315080013B48A804FF0010C0CFA03FC1CEA0202F2D0F4
S315080013C44C6804F00304013C012C87D94C6804F0EA
S315080013D40304032C0CD0C4685D004FF0030C0CFA0C
S315080013E405FC24EA0C0C8C68AC4044EA0C04C46082
S315080013F44C6804F00304022C84D004684FEA430EB4
S315080014044FF0030C0CFA0EFC24EA0C0C4C6804F09E
S31508001414030404FA0EF444EA0C0404604C6814F455
S31508001424403FC0D0002401942A4C656C45F480459D
S315080014346564646C04F480440194019C4FEA930C3B
S315080014440CF10205214C54F8255003F0030E4FEA1B
S315080014548E0E0F2404FA0EF425EA04051E4CA04247
S315080014643FF468AF04F58064A0421ED004F5806496
S31508001474A0421CD004F58064A0421AD004F5806406
S31508001484A04218D004F58064A04216D004F58064FE
S31508001494A04214D004F58064A04212D004F58064F6
S315080014A4A0423FF445AF092445E7012443E7022453
S315080014B441E703243FE704243DE705243BE70624E4
S315080014C439E7072437E702B070BD00BF003801408A
S315080014D4003C0140003802400000024000B5836821
S315080014E491FAA1FCBCFA8CFC4FEA4C0C4FF0030EA3
S315080014F40EFA0CFC23EA0C0391FAA1F1B1FA81F174
S3150800150449008A40134383605DF804FB00B5C36849
S3150800151491FAA1FCBCFA8CFC4FEA4C0C4FF0030E72
S315080015240EFA0CFC23EA0C0391FAA1F1B1FA81F143
S3150800153449008A401343C3605DF804FB00B5036A97
S3150800154491FAA1FCBCFA8CFC4FEA8C0C4FF00F0EF6
S315080015540EFA0CFC23EA0C0391FAA1F1B1FA81F113
S3150800156489008A40134303625DF804FB00B5436AA5
S31508001574090A91FAA1FCBCFA8CFC4FEA8C0C4FF0D0
S315080015840F0E0EFA0CFC23EA0C0391FAA1F1B1FA38
S3150800159481F189008A40134343625DF804FB00B570
S315080015A4036891FAA1FCBCFA8CFC4FEA4C0C4FF088
S315080015B4030E0EFA0CFC23EA0C0391FAA1F1B1FA14
S315080015C481F149008A40134303605DF804FB000077
S315080015D4444B984219D0444B984222D0434B9842E4
S315080015E42BD0434B984234D0424B98423DD0424B81
S315080015F4984246D0414B98424FD0414B984258D0D6
S31508001604404B984261D00120704703F560531A692C
S3150800161442F001021A611A6922F001021A610020D5
S31508001624704703F550531A6942F002021A611A699F
S3150800163422F002021A610020704703F540531A6922
S3150800164442F004021A611A6922F004021A6100209F
S31508001654704703F530531A6942F008021A611A6989
S3150800166422F008021A610020704703F520531A690C
S3150800167442F010021A611A6922F010021A61002057
S31508001684704703F510531A6942F020021A611A6961
S3150800169422F020021A610020704703F500531A69E4
S315080016A442F040021A611A6922F040021A610020C7
S315080016B4704703F5E0531A6942F080021A611A6901
S315080016C422F080021A610020704703F5C0531A6994
S315080016D442F480721A611A6922F480721A6100202F
S315080016E4704700BF000002400004024000080240A0
S315080016F4000C024000100240001402400018024088
S31508001704001C024000200240F8B507460E460D6844
S3150800171495FAA5F5B5FA85F519E0B268214638466D
S31508001724FFF7DCFE3268F1687B6823EA020301FBF3
S3150800173402F213437B6016E0726921463846FFF7C6
S3150800174415FF726821463846FFF729FF01353468C4
S3150800175434FA05F21BD00122AA401440F6D0736865
S31508001764013B012BD9D9326921463846FFF7CEFE0B
S315080017747368022BE5D194FAA4F3B3FA83F3072B1F
S31508001784DAD8726921463846FFF7D8FED9E7002029
S31508001794F8BD0000154A136843F001031360134BA0
S315080017A41B6813F0020FFAD0104A00239360104BFB
S315080017B41360136823F0F80343F0800313600B4B9C
S315080017C41B6813F0007FFAD1084B1B6813F0006FEF
S315080017D4FAD1064B074A5A60074AC3F88420002000
S315080017E4D8605A6F42F080725A67704700380240D0
S315080017F4FFFFF2FA1030002400300020034B9B68E8
S31508001804C3F30313024AD35CD84070470038024036
S31508001814E0660008034B9B68C3F38223024AD35C41
S31508001824D840704700380240D8660008034B9B68C6
S31508001834C3F34233024AD35CD840704700380240A7
S31508001844D86600080D4B5B6803F480039BB90C4803
S315080018540A4B5A6802F03F02B0FBF2F05A68C2F328
S31508001864881202FB00F05B68C3F3014301335B0093
S31508001874B0FBF3F070470348EAE700BF00380240BC
S315080018840024F40040787D0108B5074B9B6803F0F3
S315080018940C03042B04D0082B04D1FFF7D3FF08BD8F
S315080018A40248FCE70248FAE70038024040787D011E
S315080018B40024F40010B50446FFF7E6FF2060FFF79E
S315080018C49DFF6060FFF7A6FFA0606068FFF7AEFFA4
S315080018D4E06010BD0246036813F0400F2DD110B422
S315080018E4006820F47F4020F0BF000B684C6823434F
S315080018F48C682343CC6823430C6923434C692343EC
S315080019048C692343CC6923430C6A23431843106028
S31508001914536823F00403C88A034353600B6AB3F578
S31508001924005F06D00020D36923F40063D36110BC9A
S3150800193470478B8C13610020F5E70120D36923F4E3
S315080019440063D3617047000010B4B2F5004F21D08C
S3150800195401EB810101EB81019B00B1FBF3F11E4C04
S31508001964A4FB01235B091A0192B24FF0640C0CFB29
S3150800197413131B013233A4FB0343C3F34F1303F0BE
S31508001984F0010A4492B203F00F0313449BB2836036
S3150800199410BC704701EB810101EB81015B00B1FBCF
S315080019A4F3F10D4CA4FB01235B091A0192B24FF023
S315080019B4640C0CFB1313DB003233A4FB0343C3F39D
S315080019C44F13590001F4F8710A4492B203F007035D
S315080019D413449BB28360DBE71F85EB51C36813F49A
S315080019E4005F01D00120704730B585B004460D4626
S315080019F4C36823F4164323F00C034A68C9680A43E8
S31508001A0429690A43A9690A431343C360AB6802698F
S31508001A1422F44052134303616B69426922F440720B
S31508001A24134343616846FFF745FF164B9C4210D0A3
S31508001A34154B9C4213D0154B9C4212D0144B9C4216
S31508001A4411D0144B9C4210D0134B9C420FD001204A
S31508001A5416E0039999B12B685BB9012010E0029945
S31508001A64F8E70299F6E70399F4E70299F2E7029987
S31508001A74F0E7AA692046FFF767FF002000E0012087
S31508001A8405B030BD00100140004400400048004045
S31508001A9400140140004C004000500040014B1860FF
S31508001AA4704700BF00000020024A137843F0010380
S31508001AB4137070470C00002010B50D4B187301F015
S31508001AC4A7FC00F132040A4B9B6813F0010F07D1F7
S31508001AD401F0E0FD01F09CFCA042F4D9012300E0EA
S31508001AE400231BB9024B187BC0B200E0002010BDCE
S31508001AF4003C004008B5034B04229A61FF20FFF717
S31508001B04DBFF08BD000C024010B50446FF20FFF7B2
S31508001B14D3FF207010BD38B501F07AFC00F5FA75CC
S31508001B24FF20FFF7C9FF044601F0B4FDFF2C03D0DC
S31508001B3401F06EFCA842F3D3FF2C14BF0020012049
S31508001B4438BD000010B5084B4FF480229A61FF2077
S31508001B54FFF7B2FFFFF7DFFF10B10124204610BDDF
S31508001B640446FFF7C7FFF9E7000C024070B50446C0
S31508001B740E4610F0800F1BD1FFF7BCFFFFF7E2FFFC
S31508001B84D8B344F04000FFF797FF300EFFF794FFF1
S31508001B94C6F30740FFF790FFC6F30720FFF78CFF4D
S31508001BA4F0B2FFF789FF6CB1082C20D001200AE0B7
S31508001BB400F07F0400213720FFF7D8FF05460128E7
S31508001BC4DAD912E09520FFF777FF0C2C11D00A24F6
S31508001BD4FF20FFF771FF054601F05CFD15F0800F45
S31508001BE403D0631E13F0FF04F2D1284670BD872084
S31508001BF4E9E7FF20FFF760FFE9E7FF25F5E7F8B512
S31508001C0405460E4601F004FC00F16407FF20FFF7C1
S31508001C1453FF044601F03EFDFF2C03D101F0F8FB07
S31508001C24B842F3D3FE2C13D16C1C2846FFF76CFF7D
S31508001C3420460235FFF768FF01F02CFD023EF3D17A
S31508001C44FF20FFF739FFFF20FFF736FF0120F8BD15
S31508001C540020FCE738B504460D46FFF75CFF00B9DB
S31508001C6438BD2846FFF728FFFD2D1BD04FF4007515
S31508001C742078FFF721FF60780234FFF71DFF01F093
S31508001C8409FD023DF4D1FF20FFF716FFFF20FFF7F9
S31508001C9413FFFF20FFF710FF00F01F03052B03D1E6
S31508001CA40120DDE70120DBE70020D9E770B586B01F
S31508001CB4234B04229A614FF480560096012301931C
S31508001CC4022302930025039504951E4C6946204673
S31508001CD4FFF71AFDA66100E00135092D1DD801F0AC
S31508001CE497FB00F16404184B9B6813F0020F03D1A9
S31508001CF401F08EFBA042F6D9134BFF221A7301F0AA
S31508001D0487FB00F16404104B9B6813F0010FE3D1C1
S31508001D1401F07EFBA042F6D9DEE74FF48053009328
S31508001D2402230193032302930023039304930623B4
S31508001D34059369460348FFF7E7FC06B070BD00BF84
S31508001D44000C024000080240003C0040F0B595B083
S31508001D542C4B1A6B42F004021A631A6B02F0040243
S31508001D640392039A1A6B42F008021A631A6B02F07A
S31508001D7408020292029A1A6C42F400421A641B6C14
S31508001D8403F400430193019B042704970123059355
S31508001D94022506950024079408941B4E04A9304688
S31508001DA4FFF7B2FCB7614FF4E05304930595032398
S31508001DB40693079408940623099304A91348FFF77E
S31508001DC4A3FC0A944FF482730B930C940D940E940B
S31508001DD44FF400730F93302310931194129407232E
S31508001DE413930B4C0AA92046FFF774FD636823F086
S31508001DF410036360236843F040032360FFF756FF2C
S31508001E0415B0F0BD00380240000C0240000802403C
S31508001E14003C004010B58AB0114C236823F04003F7
S31508001E242360002300934FF4827201920293039372
S31508001E3404934FF4007205920693079308930723B5
S31508001E44099369462046FFF745FD636823F01003A6
S31508001E546360236843F0400323600AB010BD00BFE3
S31508001E64003C0040002840F09D80F0B583B04E4BFE
S31508001E741B7813F0020404D04B4B1878C0B203B095
S31508001E84F0BDFFF763FF494B4FF480229A610021A6
S31508001E940846FFF76BFE0546012810D0444B1C6024
S31508001EA4FFF728FE002C7AD03F4A137803F0FE0386
S31508001EB41370FFF7AFFF3C4B1878C0B2DFE701F0A9
S31508001EC4A7FA00F57A764FF4D5710820FFF74EFE87
S31508001ED401283FD1254609E0FF20FFF7EDFD05F16E
S31508001EE408036B4403F8040C0135EDB2032DF3D94A
S31508001EF49DF80630012BD1D19DF80730AA2BCDD1F8
S31508001F0401F086FAB04206D24FF08041A920FFF7C5
S31508001F142DFE0028F4D101F07BFAB042BED200218E
S31508001F243A20FFF723FE05460028B7D1032D0AD821
S31508001F34FF20FFF7C1FD05F108036B4403F8040C01
S31508001F440135EDB2F2E79DF8043013F0400F24D0C2
S31508001F540C24A3E70021A920FFF708FE01280CD9C1
S31508001F642F4601F055FAB0420AD200212846FFF757
S31508001F74FDFD28B101F08EFBF3E70227A925F0E75A
S31508001F8401F046FAB04289D24FF400711020FFF7E7
S31508001F94EDFD002882D13C4680E704247EE7FFF75E
S31508001FA483FD88E7012070470C000020000C0240DE
S31508001FB40803002018B9034B1878C0B270470120EB
S31508001FC4704700BF0C00002000283BD138B50D46E9
S31508001FD41C46002B38D01E4B1B7813F0010F35D145
S31508001FE41C4B1B6813F0080F00D15202012C1AD09F
S31508001FF411461220FFF7BAFD78B94FF40071284646
S31508002004FFF7FDFD28B105F5007501F043FB013C1A
S31508002014F3D100210C20FFF7A9FDFFF76BFD201E65
S3150800202418BF012038BD11461120FFF79FFD00286F
S31508002034F3D14FF400712846FFF7E1FD0028ECD0F0
S315080020440024EAE7042070470420EBE70320E9E7C5
S315080020540C0000200803002000284AD170B50D465C
S3150800206416461C46002B46D0264B1B7813F0010F48
S3150800207443D1244B1B7813F0040F40D1224B1B6821
S3150800208413F0080F00D15602012C1DD013F0060FC9
S3150800209428D131461920FFF769FD78B9FC2128466D
S315080020A4FFF7D8FD28B105F5007501F0F3FA013CF0
S315080020B4F4D1FD210020FFF7CDFDC0B1FFF71AFDCD
S315080020C4201E18BF012070BD31461820FFF74EFDAB
S315080020D40028F3D1FE212846FFF7BCFD0028EDD0E1
S315080020E40024EBE721469720FFF740FDD1E70124BA
S315080020F4E4E7042070470420E5E70320E3E7022029
S31508002104E1E700BF0C0000200803002070B584B086
S31508002114002840F01F810D461646904B1C7814F093
S31508002124010440F019810E2900F20881DFE811F054
S315080021340F00160006015A000601060106010601EB
S3150800214406010601B500B900C900D800ED00FFF77D
S31508002154F9FC002840F0F8800124F0E00021092069
S31508002164FFF704FD044608B12C46E8E0102168464A
S31508002174FFF745FD002800F0E9809DF800309B092B
S31508002184012B1FD09DF8052002F00F029DF80A3096
S3150800219402EBD3129DF809305B0003F006031A44D8
S315080021A49DF808109DF807309B0003EB91139DF8E2
S315080021B40610890201F440610B440133073A93403F
S315080021C43360BCE09DF809309DF8082003EB022330
S315080021D49DF80720120402F47C12134401339B026F
S315080021E43360ACE05E4B1B6813F0040F20D000216B
S315080021F48D20FFF7BBFC08B10124A0E0FF20FFF700
S315080022045BFC10216846FFF7FAFC78B9012496E0CE
S31508002214FF20FFF751FC013CE4B2002CF8D19DF8ED
S315080022240A20120910239340336088E03024F4E727
S3150800223400210920FFF79AFC044608B101247EE030
S3150800224410216846FFF7DBFC002800F08180444B28
S315080022541B6813F0020F10D09DF80A305B0003F0D8
S315080022647E039DF80B2003EBD21301339DF80D2052
S315080022749209013A9340336061E09DF80A20C2F35B
S3150800228484029DF80B10CB0003F0180303EB5113DB
S31508002294013302FB0333336051E0314B1B6813707F
S315080022A44DE000210920FFF761FC044608B101242A
S315080022B445E010213046FFF7A2FC00283FD101244F
S315080022C43DE000210A20FFF751FC044608B1012429
S315080022D435E010213046FFF792FC80BB01242EE03E
S315080022E400213A20FFF742FC044660B1012426E0A7
S315080022F4FF20FFF7E1FB705501F0CCF90135EDB28B
S31508002304032DF5D91BE00546FAE7154B1B6813F0B0
S31508002314040F01D1012412E000218D20FFF726FCC9
S31508002324044608B101240AE0FF20FFF7C5FB402153
S315080023343046FFF764FC10B9012400E00424FFF7D3
S31508002344D9FB204604B070BD2C46F8E72C46F6E7C0
S315080023540124F4E70424F4E70324F2E70C0000203C
S31508002364080300209A4200D28854704770470146F1
S31508002374002008E000EB8000531C0B60137803EB85
S315080023844003A3F130000A681378303BDBB2092B0B
S31508002394F0D970472DE9F04F83B005460E469346AB
S315080023A41F46DDF830A00D9CDDF838900F9B13F01E
S315080023B4030F19D1A0460192C84509D202F1010BAF
S315080023C43B4631462020A84708F101085A46F3E758
S315080023D4DDF804B008E0013C02F101083B46314649
S315080023E41AF80400A8474246002CF4D10F9B13F0B0
S315080023F4020F03D1104603B0BDE8F08FA2EB0B031E
S315080024044B45F7D2541C3B4631462020A847224662
S31508002414F4E72DE9F04385B099460C9D0D9C9DF88B
S315080024243880DDF840E0119F129E16F0020F21D184
S315080024347FB116F0010F0CD0B8F1000F02D116F0D7
S315080024440C0F06D0013F04E04FF0300C05F804C029
S315080024540134744501D21F2CF6D916F0010F09D0A0
S31508002464BC4207D21F2C05D84FF0300C05F804C01F
S315080024740134F2E716F0100F14D016F4806F04D165
S315080024841CB1744522D0BC4220D00F9B102B33D0EC
S315080024940F9B022B3DD01F2C0ED84FF0300C05F89D
S315080024A404C001341F2C07D8B8F1000F39D04FF0F7
S315080024B42D0C05F804C0013403960297019400957F
S315080024C44B46FFF767FF05B0BDE8F083B4F1010C8E
S315080024D41DD00F9B102B0ED064460F9B102BD7D103
S315080024E416F0200FD4D01F2CD2D84FF0580C05F86C
S315080024F404C00134CFE7023C16F0200FEDD11F2C9F
S31508002504EBD84FF0780C05F804C00134C3E76446E9
S31508002514BBE71F2CD0D84FF0620C05F804C0013471
S31508002524B9E716F0040F05D04FF02B0C05F804C0D4
S315080025340134C1E716F0080FBED04FF0200C05F899
S3150800254404C00134B8E7F0B591B0169C189D1B9EDB
S315080025540CB926F0100616F4806E16D064B34FF044
S31508002564000E12E00CF1300C5FFA8CFC0EF1010738
S315080025740EF1400EEE440EF820CCB4FBF5FCAC424A
S315080025841BD31F2F19D8BE466446B4FBF5FC05FBBE
S315080025941C4C5FFA8CFCBCF1090FE3D916F0200F2A
S315080025A408D04127BC445FFA8CFCACF10A0C5FFAEC
S315080025B48CFCDBE76127F5E7274606961A9C059403
S315080025C4199C049403959DF85C400294019708AC01
S315080025D40094FFF71EFF11B0F0BD00002DE9F04F7F
S315080025E48DB0804617460B938946002900F07782FA
S315080025F400260B9B1878002800F07482252809D039
S31508002604741C3B4632464946C0470B9B01330B9321
S315080026142646EEE701330B9300251FE045F0010536
S3150800262401320B92012318E045F0020501320B92A0
S31508002634012312E045F0040501320B9201230CE054
S3150800264445F0080501320B92012306E045F0100512
S3150800265401320B92012300E000234BB30B9A137843
S31508002664203B102BF8D801A151F823F04526000881
S315080026745D2600085D260008512600085D26000828
S315080026845D2600085D2600085D2600085D2600080C
S315080026945D2600085D260008392600085D26000820
S315080026A42D2600085D2600085D2600082126000858
S315080026B407930B9B1A78A2F13003DBB2092B18D9BE
S315080026C42A2A1BD0DDF81CB00B9B1A782E2A25D093
S315080026D40B9A1378683B122B5CD8DFE803F0495B46
S315080026E4575B3B5B5B5B5B5B5B5B5B5B5B5B5B5B4C
S315080026F47B000BA8FFF73BFE8346E5E7169B1A1DEE
S3150800270416921B68002B04DB9B460B9B01330B9329
S31508002714DAE745F00205C3F1000BF6E745F48065F0
S315080027245A1C0B925A78A2F13003DBB2092B0CD946
S315080027342A2ACDD1169B1A1D16921C6824EAE4731C
S3150800274407930B9B01330B93C2E70BA8FFF70FFE06
S315080027540790BDE745F48071531C0B9353786C2B93
S3150800276401D00D4616E045F4407502320B9211E08D
S3150800277445F08001531C0B935378682B01D00D4602
S3150800278408E045F0C00502320B9203E045F40075F3
S3150800279401320B920B9B1878782811D864281ED31B
S315080027A4A0F16402D2B201239340A14A134228D16C
S315080027B413F4805F40F0788113F4004F40F00C81E5
S315080027C4741C3B4632464946C0470B9B01330B9360
S315080027D426460EE745F4807501320B92DAE762283D
S315080027E40FD017D825280AD1741C3B4632464946C9
S315080027F42520C0470B9B01330B932646F9E6582838
S31508002804DED16F2853D01ED8582852D062281CD13E
S3150800281402231DE06328D3D115F0020500F0CB800E
S3150800282401241698031D169306F1010A3B463246FF
S3150800283449460078C047002D40F0C0800B9B013301
S315080028440B935646D5E6782835D025F010050A2385
S31508002854582832D0692803D0642801D025F00C05FD
S3150800286415F4806F01D025F00105692828D064285D
S3150800287426D015F4007F44D115F4807F6CD115F069
S31508002884400F7ED0169A111D169112780595CDF82B
S3150800289410B00799039102930023019300923B46D3
S315080028A4324649464046FFF74EFE064629E00823C7
S315080028B4CEE71023CCE71023CAE745F02005C9E77D
S315080028C415F4007F1DD115F4807F1ED115F0400F35
S315080028D434D0169A111D1691127882EAE271A1EB88
S315080028E4E2710595CDF810B0079803900293D20FBC
S315080028F4019200913B46324649464046FFF723FE7D
S3150800290406460B9B01330B9373E6169A111D169113
S31508002914126882EAE271A1EBE2710595CDF810B06E
S31508002924079803900293D20F019200913B463246D0
S3150800293449464046FFF707FE0646E2E715F0800FCC
S3150800294405D0169A111D1691B2F90020C5E7169AF4
S31508002954111D16911268C0E7169A111D1691059550
S31508002964CDF810B0079903910293002301931368D5
S3150800297400933B46324649464046FFF7E4FD064681
S31508002984BFE715F0800F04D0169A111D1691128808
S315080029947CE7169A111D1691126877E702F1010A67
S315080029A43B4649462020C047234652465C1C9B4565
S315080029B4F4D8164635E701233246F7E7524606E0C9
S315080029C4561C3B4649462020C0472C463246651CC1
S315080029D4A345F5D8924631E7169B1A1D1692D3F8E5
S315080029E400A0079BFBB94FF0FF32534601E00133C1
S315080029F40A46197811B1511E002AF8D1A3EB0A0325
S31508002A0415F48062089203D0079A934228BF1346A6
S31508002A1415F0020409D00994CDF828B0079D32466A
S31508002A24089E9B4621E0079ADFE73246264608E0D9
S31508002A3421081200541C3B4649462020C0472B4611
S31508002A4422465D1C9B45F5D834462B460994CDF899
S31508002A5428B0079D089E9B4607E01D460AF1010A11
S31508002A64541C3B464946C04722469AF8000020B102
S31508002A74002EF3D06B1E002DEFD1099C16465B463B
S31508002A84DDF828B01CB90B9B01330B93B1E55C1C2C
S31508002A949B4507D9551C3B4649462020C047234633
S31508002AA42A46F4E71646EEE745F02105169B1A1D55
S31508002AB416921B68059508220492079A0392102217
S31508002AC402920022019200933B463246494640460A
S31508002AD4FFF739FD06460B9B01330B9389E5DFF8AF
S31508002AE4208085E5BE4208D37A1E3B464946002027
S31508002AF4C04730460DB0BDE8F08F3246F5E700BF53
S31508002B04712300080EB400B584B0014605AA52F82C
S31508002B14043B039200924FF0FF320448FFF75EFD30
S31508002B2404B05DF804EB03B0704700BF69230008DE
S31508002B3472B6704762B670472DE9F04184B0044610
S31508002B440D46174698466846FEF7B4FE0299174B93
S31508002B54A3FB01318909002301E00133DBB2112B00
S31508002B641FD8134A12F8130002EB4302527800EBFB
S31508002B74020C0CFB044CB1FBFCFE0CFB1E16002ECF
S31508002B84EBD11FFA8EFCA5F800C00CF1FF3C1FFA26
S31508002B948CFCBCF5806FE0D2387088F800200120E0
S31508002BA400E0002004B0BDE8F08100BFD34D6210F8
S31508002BB4F066000870B58CB00023ADF82E308DF899
S31508002BC42D308DF82C300BAB0DF12D020DF12E01A5
S31508002BD44FF4FA70FFF7B0FF002835D01D4C1E4B92
S31508002BE42360002525766576A5760126E67625777B
S31508002BF46577A560E5609DF82D30013B1B042361CC
S31508002C049DF82C30013B1B056361BDF82E306360CB
S31508002C142046FDF76DFE0695079508964CF6E043A3
S31508002C24019302954FF6E0730393042304930595E1
S31508002C3409960E230A9301A92046FDF7FFFE2046AE
S31508002C44FDF79AFF0CB070BDB521044800F0ECFB03
S31508002C54C4E700BF0C030020006400407C6500083C
S31508002C6410B588B0024640F2E17302930023049338
S31508002C740593069101AB02A90B48FDF7ABFF08B112
S31508002C8408B010BD00F0C4FB00F1320401990648EF
S31508002C94FEF715F80028F3D000F0FCFC00F0B8FBAA
S31508002CA4A042F3D9ECE700BF0C03002010B588B0A6
S31508002CB403460C4601AA00210848FEF713F850B942
S31508002CC4019A40F267639A4206D1039B23B9059B8E
S31508002CD42370012000E0002008B010BD0C0300207A
S31508002CE408B5FFF725FF08BD10B500F045FAD8B1B9
S31508002CF4FDF76EFAE8B100F023FC0021012000F08C
S31508002D04DBFCFDF793FD00F03FFB00F039FA20F0F9
S31508002D14604020F07F00094B986000F031FA44685F
S31508002D24FFF708FFA04710BD0021022000F0C4FCED
S31508002D34F9E70021022000F0BFFCF4E700ED00E00B
S31508002D4470B50D46044606E015F8013B04F8013B48
S31508002D5400F0A0FC3246531E9EB2002AF4D170BD80
S31508002D6438B50546002401E00134E4B2052C15D82B
S31508002D7400F090FC04EB4403094A52F82330AB42B2
S31508002D84F2D804EB440102EB810252681344AB42C5
S31508002D94EAD9034B03EB8103187A00E0FF2038BD18
S31508002DA41467000808B5C1F3080353B903688B42CE
S31508002DB409D040F8041B4FF40072FFF7C1FF012045
S31508002DC408BD0020FCE70120FAE72DE9F041074693
S31508002DD4FEF738F900247F2C15D83E6806EB8408DC
S31508002DE407EB84035D6800F055FC2A460023414638
S31508002DF40220FEF779F9804640B956F82430AB42EA
S31508002E0406D10134E7E74FF0010801E04FF0000866
S31508002E14FEF730F94046BDE8F081000038B50D46A6
S31508002E240C4B984211D004460B4B994207D1094CD6
S31508002E3429462046FFF7B6FF48B1204638BDFFF7B6
S31508002E44C4FF0028F4D10024F7E7044CF0E7002473
S31508002E54F3E700BF3403002000800008380500208B
S31508002E642DE9F04106460C4617461D4621F4FF781F
S31508002E7428F001080368B3F1FF3F07D033684345D8
S31508002E840AD13368E41A3444043414E04146FFF79B
S31508002E9489FF0028F2D120E041463046FFF7BEFFFD
S31508002EA406460028EDD1002017E017F8013B04F880
S31508002EB4013B013D10D000F0EDFB311D611AB1F55F
S31508002EC4007FF2D3316801F500713046FFF7A6FF9B
S31508002ED4064620B1041DE8E70120BDE8F08100207C
S31508002EE4FBE700000023052B2FD803EB4301194AFF
S31508002EF402EB8102127A824202D00133DBB2F2E794
S31508002F0470B5144A52F8215002EB8102566815F03E
S31508002F14030F02D116F0030F04D04FF42A710E489A
S31508002F2400F082FA002405E02B68B3F1FF3F0ED1C6
S31508002F3404350134B4EB960F05D214F0FF0FF3D120
S31508002F4400F0A8FBF0E7012070BD002070470020C0
S31508002F54FAE700BF14670008B8650008F0B587B03B
S31508002F6404460E460023009388420FD80125012CF7
S31508002F7425D9072E27D8012D22D100230193022310
S31508002F84059301230493FEF75DF803E00025EEE7B5
S31508002F940134E4B2B4420FD82046FFF7A3FF07462C
S31508002FA40028F5D100F076FB0394694601A8FEF7DC
S31508002FB447F90028ECD03D46FEF75CF800E000250A
S31508002FC4284607B0F0BD0025FAE700004FF0FF33A6
S31508002FD4024A1360024A1360704700BF380500208E
S31508002FE43403002070B50D460139144B1B1A994257
S31508002FF401D9002070BD04461646FFF7B1FEFF2826
S3150800300413D028190138FFF7ABFEFF280DD024F496
S31508003014FF7222F001020A4B9A4208D02B46324626
S3150800302421460848FFF71CFFE4E70020E2E72B46A1
S31508003034324621460448FFF713FFDBE7FFFF07087C
S315080030440080000838050020340300204A1E0E4B71
S315080030541B1A9A4201D90020704770B505460C46DA
S31508003064FFF77EFE06462C44601EFFF779FE0146EE
S31508003074FF2E05D0FF2805D03046FFF76FFF70BD39
S315080030840020FCE70020FAE7FFFF070800B583B035
S3150800309400230193134B1B68B3F1FF3F20D0114A59
S315080030A45368019391680B440193D1680B440193C7
S315080030B411690B44019351690B44019391690B44BB
S315080030C40193D26913440193DA4301925B42019353
S315080030D401AA04210448FFF785FF03B05DF804FB41
S315080030E40120FAE734030020848100080A4B1A6891
S315080030F4596811449A681144DA6811441A691144E2
S315080031045A6911449A690A44D3F88431D34201D0DE
S3150800311400207047012070470080000808B50C4B52
S315080031241B68B3F1FF3F06D10A4B1B68B3F1FF3F97
S3150800313407D1012008BD0648FFF747FE0028F3D14A
S31508003144F8E70448FFF741FE0028F3D00120F1E729
S315080031543403002038050020004870470080000822
S3150800316408B5FFF733FF08BD08B5FFF73BFF08BDF1
S3150800317408B5FFF76BFF08BD08B5FFF7B7FF08BD2D
S3150800318408B5FFF7E9FF08BD08B5FFF77FFF00B9E3
S3150800319408BDFFF7C3FFFBE7054B1B6813F0200FB9
S315080031A401D100207047024B5B6803700120704709
S315080031B40048004010B5094B586000F029F900F1A1
S315080031C40A04064B1B6813F0800F05D100F062FA57
S315080031D400F01EF9A042F4D910BD00BF0048004013
S315080031E410B588B00C4CE36823F40053E3604FF43D
S315080031F46143019300230293039304930C220592DB
S315080032040693079301A92046FEF7E8FBE36843F40F
S315080032140053E36008B010BD0048004070B5064688
S315080032240D46812904D82846FFF7C4FF00240BE07D
S315080032347E21074800F0F8F8F5E700F02BFA305D30
S31508003244FFF7B8FF0134A4B2A542F6D870BD00BF93
S31508003254F865000870B5254B1C78BCB92448FFF7F7
S315080032649BFF012801D0204670BD214B1B78013BEA
S31508003274DBB2802BF7D800F0CBF81E4B18601E4B38
S3150800328400221A70194B01221A70ECE706460D46FD
S31508003294194B1B78013316481844FFF77DFF04467B
S315080032A4012815D1144B1A780132D2B21A70104B70
S315080032B41B789A4201D00024D5E710493046FFF717
S315080032C43FFD0A4B00221A700B4B1B782B70CAE77A
S315080032D400F09EF8074B1B68C833984203D90024AC
S315080032E4024B1C70BFE70024BDE700BFC8070020D7
S315080032F444070020400700203C070020450700201B
S3150800330482B01A4B5A6C42F001025A645A6C02F0A3
S3150800331401020192019A164A12689968C1F3423168
S315080033241448415CCA409B6813F4604F1BD10123BF
S3150800333402FB03F3104A012111604FF6FF71D162B3
S315080033445B090E49A1FB0313DB09013B936253692D
S3150800335443F0010353610A4B00211960526A094B71
S315080033641A8002B070470223E2E700BF0038024021
S3150800337400000020D866000800000140C55A7C0AEF
S31508003384CC070020CA0700200C4B5A6A42F00102F7
S315080033945A625A6A22F001025A625A6C22F00102EF
S315080033A45A644FF0E02300221A615A619A6103F5C0
S315080033B450634FF000725A60704700BF00380240ED
S315080033C40F4B5B6A9BB20F4A11885B1A9BB2632B3D
S315080033D414D910B40C4AA2FB03235A090B4C2068CF
S315080033E400EB5310206002EB820303EB83039A007D
S315080033F492B21144034B198010BC7047704700BF42
S3150800340400000140CA0700201F85EB51CC070020A5
S3150800341408B5FFF7D5FF014B186808BDCC0700208F
S3150800342408B5FFF7F5FF08BD08B500F033F9FCE762
S3150800343408B500F0C9F8012806D000F0E5F918B176
S315080034440C4B1B78012B00D008BDFFF7E1FF0A4B94
S315080034541B680A4A1268134403F5FA739842F3D3AD
S31508003464044B00221A7000F0D9F90028ECD1FFF7B2
S315080034743BFCE9E7D8070020D0070020D407002042
S3150800348408B5054B1B78012B00D008BDFFF7C0FF14
S31508003494024B1860F9E700BFD8070020D4070020BC
S315080034A408B5044B01221A70FFF7EAFFFFF7C0FFBD
S315080034B408BD00BFD807002008B5FFF711FC00F0C7
S315080034C4E5F8FFF71DFF00F0E9F8FFF749FE00F0FD
S315080034D483F900F023F80021084600F0EDF8FFF719
S315080034E4DFFF08BD08B500F0D5F8FFF769FF00F05F
S315080034F491FA00F091F8FFF79BFF08BD08B5FFF7AE
S3150800350487FF014B186008BD6008002008B5024B08
S315080035141870FFF7F3FF08BD6408002010B50020F3
S31508003524FFF7F4FF00F0F6FDFFF744FB034C022314
S315080035342370FFF755FE0023237010BD0D000020ED
S3150800354408B50020FFF7E2FF08BD000038B50446B9
S315080035540D460A4B1B78022B07D0084B1B7843B140
S3150800356400F0F2FDFFF7CAFF38BDC9B2FFF778FBD2
S31508003574F3E7E9B22046FFF751FEF1E70D00002014
S31508003584074B1B78032B05D0042B05D0022B05D13A
S31508003594082070473F2070473F20704781207047B6
S315080035A40D000020074B1B78032B05D0042B05D0F0
S315080035B4022B05D1082070473F2070473F207047EB
S315080035C4812070470D00002008B500F0B5FD00B154
S315080035D4012008BD10B5FFF7F7FF012802D0002423
S315080035E4204610BD0A4B1C78012C01D00024F7E7AD
S315080035F4FFF70EFF074B1B68C01A41F28733984240
S3150800360401D80024ECE70020FFF780FFE8E700BFB5
S31508003614640800206008002000B583B00DF1070196
S315080036241848FFF743FB01280DD00DF1070115488B
S31508003634FFF710FE012811D0FFF7CCFF012818D098
S3150800364403B05DF804FB104B02221A70FFF75EFF05
S315080036549DF807100B4800F07FFDE6E70A4B0022A9
S315080036641A70FFF753FF9DF80710064800F074FD1B
S31508003674E2E702238DF8043001A9052000F01CF8BE
S31508003684DEE700BFDC0700200D00002008B5FCF7C4
S31508003694ADFD08BD08B5FCF7AEFD08BD0023034A19
S315080036A41360034A1360034A137070476C080020BA
S315080036B4680800206508002038B504460D46C31E70
S315080036C4042B20D8DFE803F0323A4726030071B109
S315080036D4234B1A6882B1234B19688A4218D35308B4
S315080036E4642000FB0133B3FBF2F3DBB205E0582197
S315080036F41D48FFF799FEEBE700232B726968194A00
S3150800370413680B44136029462046FCF799FD38BD17
S315080037140023F2E729B16968114A13680B44136058
S31508003724F1E767211048FFF77FFEF4E700230C4A08
S3150800373413600C4A13600D4A1370E4E70B4B1B78AD
S31508003744012BE4D0074B1B68054A12689342DED165
S31508003754002BDCD0D7E7054B01221A70D3E700BF4C
S315080037646C080020680800203866000865080020F0
S3150800377484460021084601292AD800B509E0203BD9
S315080037840FE00301DBB21344D8B20131C9B20129EF
S315080037941AD81CF801300F4AD25C02F00302022A36
S315080037A4EDD0DBB2A3F13002D2B2162A0BD8A3F1BC
S315080037B43A0E5FFA8EFEBEF1060F07D9092AE0D93A
S315080037C4373BDAB2DDE700205DF804FB0020FBE7AF
S315080037D4704700BFA56B000808B50022064B1A708F
S315080037E40649074802F068F800B908BD6E2105487D
S315080037F4FFF71AFEF9E700BF580E002068660008AE
S31508003804FC0900206C660008034B1B780BB10020EA
S3150800381470470120704700BF580E002010B5FFF707
S31508003824D3FE01280ED0084B1C7814B10024204678
S3150800383410BDFCF7E5FC0128F9D1034B01221A70E7
S315080038440446F4E70024F2E7580E00200378114AE8
S31508003854D25C02F00302022A0FD0532B0FD143780D
S315080038640C4AD25C12F0040F0BD0312B0BD0322B3E
S315080038740BD0332B0BD003207047203BEDE70320F6
S3150800388470470320704700207047012070470220C4
S31508003894704700BFA56B000870B506460230FFF7EF
S315080038A467FF0546044604363046FFF761FF0544BC
S315080038B4EDB2013CA4B20236012CF5D8ED43EDB2C3
S315080038C43046FFF755FFA84201D1012070BD0020FC
S315080038D4FCE700002DE9F041044617460E4651B3AD
S315080038E448B32046FFF7B2FF0546032800F0878051
S315080038F42046FFF7D1FF002800F08580012D2AD045
S31508003904022D4FD0002D40F08180A01CFFF730FF18
S315080039148046201DFFF72CFF05023560A01DFFF722
S3150800392427FF054435600834A8F103052DB2002F96
S3150800393466D000260CE04FF42E713548FFF774FD67
S31508003944CFE72046FFF714FFB85502340136B6B25E
S31508003954AE42F6DB54E0A01CFFF70AFF8046201DA2
S31508003964FFF706FF05043560A01DFFF701FF05EB09
S315080039740025356004F10800FFF7FAFE05443560B2
S315080039840A34A8F104052DB2002F39D0002606E022
S315080039942046FFF7EDFEB85502340136B6B2AE42FC
S315080039A4F6DB2DE0A01CFFF7E3FE8046201DFFF79B
S315080039B4DFFE05063560A01DFFF7DAFE05EB0045B8
S315080039C4356004F10800FFF7D3FE05EB00253560E2
S315080039D404F10A00FFF7CCFE054435600C34A8F15F
S315080039E405052DB267B1002606E02046FFF7C0FE9E
S315080039F4B85502340136B6B2AE42F6DB00E000250D
S31508003A042846BDE8F0814FF0FF35F9E70025F7E7CA
S31508003A146C66000830B589B0A94B1B78022B2CD0EC
S31508003A24032B00F0D080012B1AD1FFF799FB002352
S31508003A348DF81830FCF700FC079006A90320FFF759
S31508003A443BFEFCF7F9FB014601229E4801F060FFA4
S31508003A5440B99D4B00221A605A60994B02221A708B
S31508003A6409B030BD964B00221A7007238DF8003032
S31508003A7469460520FFF720FEF2E7924C22464FF4EA
S31508003A848071924802F0ECFB637C5BBBA8B1904959
S31508003A940022A1F5C070FFF71DFF0446B0F1FF3FF1
S31508003AA42ED0002809DD884B5B68002B36D1874B5E
S31508003AB4D3F88021844B1A605860864BD3F8482281
S31508003AC4D3F840329A42CBD100217E4802F08CFAD0
S31508003AD400284FD17C4B5B68002B59D1784B0322C5
S31508003AE41A70BDE7764B00221A7008238DF8003049
S31508003AF469460520FFF7E0FD204602F065FAAFE7C0
S31508003B046F4B00221A700A238DF800306946052087
S31508003B14FFF7D2FD6B4802F057FAA1E76B4AD2F8D1
S31508003B248001694A12689918884203D12344664A6F
S31508003B345360C2E70492059304A90620FFF7BCFD67
S31508003B44614B59681868FFF713FB30B15F4BD3F81C
S31508003B5480215D4B1A605C60AFE70023584A1370F6
S31508003B648DF8003069460520FFF7A6FD554802F092
S31508003B742BFA75E7524B00221A7009238DF8003088
S31508003B8469460520FFF798FD4E4802F01DFA67E7D7
S31508003B944D4C22680492059304A90620FFF78CFD70
S31508003BA461682068FFF7E4FA002897D10023444A9D
S31508003BB413708DF8003069460520FFF77DFD4148EE
S31508003BC402F002FA4CE73F4C22464FF480713F4814
S31508003BD402F046FB637C2BBB60B13F4A02F18001CD
S31508003BE4A2F58070FFF776FE0446B0F1FF3F27D0B2
S31508003BF4002833DC374BD3F84822D3F840329A42AC
S31508003C047FF42EAFFFF7C0FA00284AD02D4802F0F9
S31508003C14DBF900212A4B19700420FFF74DFDFFF745
S31508003C2463F81DE7264B00221A7008238DF8003026
S31508003C3469460520FFF740FD204602F0C5F90FE75F
S31508003C441F4B00221A700A238DF800306946052096
S31508003C54FFF732FD1B4802F0B7F901E71B4DD5F80B
S31508003C6480310193029000238DF80C3001A90720B6
S31508003C74FFF722FD05F580722146D5F88001FFF786
S31508003C8473FA0028B6D10E4B00221A7001238DF858
S31508003C94003069460520FFF70FFD0A4802F094F93B
S31508003CA4DEE6074B00221A7001238DF800306946B8
S31508003CB40520FFF701FD034802F086F9D0E600BFA8
S31508003CC4580E0020300C00207008002078080020C8
S31508003CD4F8090020FC09002078090020024B00227C
S31508003CE483F88220704700BF5C0E00200378427870
S31508003CF443EA0223827843EA0243C07843EA00602F
S31508003D0470470870C0F307234B70C0F307438B70E2
S31508003D14000EC8707047000010B5064C002384F8DE
S31508003D248130FFF7DBFFFF2323700123A4F88630D5
S31508003D3410BD00BF5C0E0020074BFF221A7000223C
S31508003D445A7093F882109970DA701A715A710622A9
S31508003D54A3F88620704700BF5C0E002010B5094CF6
S31508003D64FF232370084BC4F8883000236370A370BC
S31508003D74E370211D0720FFF7C4FF0823A4F8863043
S31508003D8410BD00BF5C0E00205C67000810B5064C29
S31508003D94FF2323700430FFF7A9FFC4F88800012322
S31508003DA4A4F8863010BD00BF5C0E0020F8B50546A1
S31508003DB41746002406E015F8013B1C44E4B2FFF755
S31508003DC469FC31464E1E0029F5D13C600120F8BD38
S31508003DD430B583B0002501950B4CFF2323700430BE
S31508003DE4FFF784FF014601AAD4F88800FFF7DEFF2F
S31508003DF46070211D0198FFF784FFA570E5700823FC
S31508003E04A4F8863003B030BD5C0E002030B583B00C
S31508003E140B4CFF23237000256570A570FFF7B0FBD4
S31508003E24E07025716571A5710723A4F886308DF8AD
S31508003E340050019569460320FFF73EFC03B030BDE8
S31508003E445C0E002010B582B00C46F12813D003236B
S31508003E548DF80430312C11D0252C1DD001A905204C
S31508003E64FFF72AFC0E4BFE221A705C700222A3F896
S31508003E74862002B010BD2029E9D1F3E7D12807D05E
S31508003E84D02801D0C928E9D101238DF80430E5E703
S31508003E9400238DF80430E1E704238DF80430DDE7C8
S31508003EA45C0E002038B50446FFF7AEFCF8B1FFF700
S31508003EB415FF114C012584F88150FF232370002334
S31508003EC4637010226270A370FFF75AFBE070FFF765
S31508003ED469FB2071FFF766FBC0F307206071A571C3
S31508003EE4E5710823A4F88630FFF73AF938BD10219E
S31508003EF42078FFF7A7FFF9E75C0E002038B50446DB
S31508003F04FFF73EFB6278904212D90C4DD5F888101B
S31508003F14681CFEF715FFFF232B70D5F888306278E6
S31508003F241344C5F8883063780133A5F8863038BD5C
S31508003F3422212078FFF786FFF9E700BF5C0E0020F0
S31508003F4438B50446FFF71CFB6378984217D9201D39
S31508003F54FFF7CCFE01460C4DC5F888006278681C4C
S31508003F64FEF7EEFEFF232B70D5F8883062781344EB
S31508003F74C5F8883063780133A5F8863038BD222120
S31508003F842078FFF75FFFF9E75C0E002008B50021EB
S31508003F940078FFF757FF08BD08B531210078FFF709
S31508003FA451FF08BD08B520210078FFF74BFF08BD6F
S31508003FB470B584B00546154BD3F88860FFF7E0FA68
S31508003FC4441E0196029400238DF80C3001A907209B
S31508003FD4FFF772FB6A1C21463046FFF7C5F878B12D
S31508003FE40A4CFF232370FFF7CBFAD4F8883001383C
S31508003FF40344C4F888300123A4F8863004B070BD9D
S3150800400431212878FFF71EFFF8E700BF5C0E002071
S3150800401470B584B00446FFF7B3FA0138637898425A
S3150800402422DD1D4BFF221A700122A3F8862065782B
S31508004034FDB1194BD3F888600196029500238DF8D3
S315080040440C3001A90720FFF737FBA21C2946304686
S31508004054FFF78AF8D0B1104AD2F8883061780B4451
S31508004064C2F8883004B070BD22212078FFF7EAFE32
S31508004074F8E7FFF789F820B931212078FFF7E2FE3F
S31508004084F0E700210420FFF717FBEBE7312120783E
S31508004094FFF7D8FEE6E700BF5C0E002070B582B0D5
S315080040A405460F4BD3F888600430FFF71FFE044615
S315080040B40096019069460620FFF7FEFA2146304627
S315080040C4FFF756F838B1064BFF221A700122A3F8F7
S315080040D4862002B070BD31212878FFF7B3FEF8E7D1
S315080040E45C0E002010B5FEF7FFFD064C002384F88D
S315080040F48130FFF7F3FDFF2323700123A4F88630EC
S3150800410410BD00BF5C0E002008B589B2FFF71EFA81
S3150800411408BD0000074B002283F88120C3F88820D5
S3150800412483F88420A3F8862083F8832083F88220E2
S31508004134704700BF5C0E0020024B93F8810000B163
S31508004144012070475C0E0020024B002283F884206D
S31508004154704700BF5C0E002010B504460078FF289F
S3150800416425D0404B93F88130012B2DD1A0F1C903FA
S31508004174352B66D8DFE803F04965655D6565594DF5
S3150800418455516565656565656565656565656565F1
S3150800419465656565656565656565656565656565BD
S315080041A46165352D293165656539653D4145204685
S315080041B4FFF778FE2B4B93F88430012B45D0294B17
S315080041C4B3F98610002945DC10BD2046FFF796FE94
S315080041D4F0E72046FFF7B4FEECE72046FFF7D6FDE6
S315080041E4E8E72046FFF7F4FDE4E72046FFF7B6FDC7
S315080041F4E0E72046FFF7CAFEDCE72046FFF79CFD0A
S31508004204D8E72046FFF788FDD4E72046FFF7D0FE17
S31508004214D0E72046FFF7FCFECCE72046FFF7F6FD7D
S31508004224C8E72046FFF73AFFC4E72046FFF75AFFD8
S31508004234C0E72046FFF7B0FEBCE72046FFF7B2FE0C
S31508004244B8E72021FFF7FEFDB4E710212078FFF731
S31508004254F9FDB4E71846012380F88430FFF754FFC4
S31508004264B2E700BF5C0E00204278007840EA0220DC
S315080042747047C378827842EA0322437843EA0223E2
S31508004284007840EA032070470170090A41707047B4
S315080042940170C1F307234370C1F307438370090E02
S315080042A4C17070470020704700207047023983693F
S315080042B4023B8B4204D9C36A428901FB0230704728
S315080042C40020704770B506460D4601F11A00FFF73F
S315080042D4CBFF3378032B00D070BD044605F11400D8
S315080042E4FFF7C2FF44EA0040F6E770B506460C46F7
S315080042F4154691B204F11A00FFF7C6FF3378032B6B
S3150800430400D070BD290C04F11400FFF7BDFFF8E7CF
S315080043142DE9F04180460E4601F11A00FFF7A4FF85
S3150800432458BB357825F04005013D05EB450305EBFB
S3150800433483050127002404E04FF6FF73984221D130
S3150800434401340C2C0DD8134B185D3044FFF78CFF41
S31508004354002FF1D0FF2D13D828F81500074601358C
S31508004364EEE7337813F0400F0ED07FB1FF2D0FD848
S31508004374002328F81530012000E00020BDE8F0816C
S315080043840020FBE70020F9E70120F7E70120F5E71D
S315080043940020F3E7E46700082DE9F84380460F4652
S315080043A491464B730F23CB7200240C73214607F1F5
S315080043B41A00FFF769FF09F1FF3606EB460306EB19
S315080043C48306254602E001340C2C11D84FF6FF73F8
S315080043D49D4202D038F8165001360C4B185D294612
S315080043E43844FFF751FF002DEDD14FF6FF75EAE784
S315080043F44FF6FF739D4202D038F816300BB949F0D0
S31508004404400987F80090BDE8F88300BFE467000810
S3150800441401464FF00B0C0020C30143EA5003DBB2FC
S315080044240A7801311344D8B2BCF1010CF4D17047AF
S315080044340146006820B30246137801321F2B01D9BE
S315080044443A2BF9D13A2B01D0002070470378A3F10F
S31508004454300C5FFA8CFCBCF1090F0ED8023090427E
S3150800446402D04FF0FF307047A3F13000002802DD78
S315080044744FF0FF3070470A6070474FF0FF307047BF
S315080044844FF0FF30704738B50D46044698B10368B7
S315080044949BB11A78A2B18188DA88914203D009209F
S315080044A400242C6038BD5878FDF784FD10F001000F
S315080044B409D12468F5E70920F3E71C460920F0E743
S315080044C409200024EDE709200024EAE770B50579F8
S315080044D40DB9284670BD044600F134060123026B63
S315080044E431464078FDF7B8FD054688B9002323719F
S315080044F4216B636ACB1AE2699342EAD2E378022B08
S31508004504E7D101230A4431466078FDF7A5FDE0E7C3
S315080045140125DEE770B5036B8B4202D100263046CF
S3150800452470BD04460D46FFF7D1FF06460028F6D1AE
S3150800453401232A4604F134016078FDF745FD10B1DC
S3150800454401264FF0FF352563E9E7000038B5044630
S31508004554002303714FF0FF330363FFF7DBFF0028E3
S315080045645AD104F23220FFF77FFE054694F8343018
S31508004574EB2B09D0E92B07D0E82B05D04AF65523AF
S315080045849D4247D0032038BD4AF655239D4237D06D
S3150800459404F13F00FFF768FE94F84120431E1842D1
S315080045A4ECD1B0F5007FE9D3E8D8002AE6D0531E4B
S315080045B41A42E3D104F14200FFF756FE0028DDD083
S315080045C494F84430013B012BD8D804F14500FFF791
S315080045D44BFE0028D2D004F14700FFF745FE7F289A
S315080045E406D804F15400FFF744FEB0F5803FC5D35E
S315080045F404F14A00FFF738FE0028BFD00020C2E7BE
S315080046040822064904F1860001F0F0FE0028BFD10D
S315080046140020B8E70220B6E70420B4E79C66000841
S3150800462470B584B006460D460021FFF78FFF0228B1
S3150800463403D02BD855B3002400E00024032C0ED84D
S3150800464406F13400230103F5E3731844FFF711FE5A
S3150800465404AB03EB840343F8100C0134EEE70DB105
S315080046646C1E0AE02C4608E03046FFF76FFF6DB96A
S3150800467401280BD90134032C08D804AB03EB8403B3
S3150800468453F8101C0029EFD10320F0E704B070BDDD
S315080046942DE9F84F0D46164600230B60FFF7C8FEB2
S315080046A40028C0F21C81A24B53F82040002C00F0CD
S315080046B41A812C6006F0FE06237873B16078FDF73C
S315080046C479FC10F0010508D1002E00F0098110F0DC
S315080046D4040F00F005810A2502E10023237060789F
S315080046E4FDF7C0FB10F0010540F0FF801EB110F085
S315080046F4040F40F0FC8000212046FFF791FF0428B0
S3150800470400F0F780012800F2F680266B04F13F00DA
S31508004714FFF7AAFDB0F5007F40F0EF8004F14A00E8
S31508004724FFF7A2FD074620B904F15800FFF7A1FDDB
S315080047340746E76194F84420E270531EDBB2012B66
S3150800474400F2DD8007FB02F894F84190A4F80A9079
S31508004754B9F1000F00F0D58009F1FF3319EA030F08
S3150800476440F0D18004F14500FFF77EFD82462081A2
S3150800477410F00F0F40F0C98004F14700FFF774FDED
S31508004784834620B904F15400FFF773FD834604F108
S315080047944200FFF769FD0246002800F0B88000EBE6
S315080047A4080303EB1A139B45C0F0B380ABEB030B6A
S315080047B4BBFBF9F1CB45C0F0AE805E48814206D812
S315080047C44FF6F570814241D84FF0020B01E04FF0E5
S315080047D4000B40F6F57081423BD9BBF1000F00F09F
S315080047E49C8001F10209C4F8189026623244626278
S315080047F43344E362BBF1030F2ED0BAF1000F00F085
S3150800480492804244A262BBF1020F36D009EB4903F7
S3150800481409F0010909EB530909F2FF13B7EB532F02
S31508004824C0F083804FF0FF33636123618023637193
S31508004834BBF1030F24D084F800B03F4A1388013330
S315080048449BB21380E3803D4BE36049E04FF0030BD2
S31508004854C3E74FF0010BC4E704F15E00FFF704FD5C
S3150800486400285CD1BAF1000F5BD104F16000FFF7B0
S3150800487400FDA0624FEA8909CEE74FEA4909CBE76A
S3150800488404F16400FFF7F0FC0128D4D1711C20461A
S31508004894FFF740FE0028CED10023637104F23220CC
S315080048A4FFF7E2FC4AF655239842C4D104F13400D2
S315080048B4FFF7DFFC224B9842BDD104F50670FFF7DB
S315080048C4D8FC204B9842B6D104F50770FFF7D1FC03
S315080048D4606104F50870FFF7CCFC2061ABE70B2593
S315080048E42846BDE8F88F0C25FAE70325F8E70A25D4
S315080048F4F6E70125F4E70D25F2E70D25F0E70D2582
S31508004904EEE70D25ECE70D25EAE70D25E8E70D2585
S31508004914E6E70D25E4E70D25E2E70D25E0E70D2595
S31508004924DEE70D25DCE70D25DAE70D25D8E700BF18
S31508004934EC100020F5FFFF0FE8100020E80E002019
S3150800494452526141727241612DE9F047012975D9C4
S3150800495407460C46164683698B4273D90378022B9D
S315080049643ED0032B4FD0012B6ED101EB5108416A7F
S3150800497401EB5821FFF7CEFD054600285FD107F164
S31508004984340A08F10109C8F3080814F001041DD013
S315080049941AF8083003F00F0343EA0613DBB20AF8E1
S315080049A4083001233B71796A01EB59213846FFF730
S315080049B4B1FD0546002842D1C9F3080944B1C6F336
S315080049C407130AF8093001233B7138E0F3B2E6E726
S315080049D41AF80930C6F3032223F00F031343F0E74A
S315080049E4416A01EB1421FFF795FD054638BB07F12B
S315080049F43400640004F4FF74B1B22044FFF744FCA5
S31508004A0401233B711BE0416A01EBD411FFF782FDD8
S31508004A140546A0B926F0704607F13403A40004F449
S31508004A24FE741C442046FFF724FC00F07041314311
S31508004A342046FFF72DFC01233B7100E0022528469A
S31508004A44BDE8F0870225FAE70225F8E7F8B5056810
S31508004A54012954D90C46AB698B4252D92B78022BBF
S31508004A642BD0032B39D0012B4DD101EB5106696AA2
S31508004A7401EB56212846FFF74DFD10B14FF0FF30E4
S31508004A843EE0771CC6F308062E4496F83460696A35
S31508004A9401EB57212846FFF73DFDB0BBC7F30807CE
S31508004AA42F4497F8343046EA032014F0010F01D056
S31508004AB4000925E0C0F30B0022E0696A01EB142122
S31508004AC42846FFF727FD18BB05F13400640004F4F3
S31508004AD4FF742044FFF7C8FB12E0696A01EBD4119E
S31508004AE42846FFF717FDB0B905F13400A40004F40D
S31508004AF4FE742044FFF7BDFB20F0704000E001205F
S31508004B04F8BD0120FCE70120FAE74FF0FF30F7E78C
S31508004B144FF0FF30F4E74FF0FF30F1E72DE9F041AD
S31508004B24D0F80080B1F5001F3FD207460E4611F0B3
S31508004B341F0F3DD101618468E4B998F80030022B4F
S31508004B4401D9D8F82840ACB9B8F80830B3EB561FE1
S31508004B5430D9D8F82830BB617C61BB6993B303EBC1
S31508004B645623BB6108F13408C6F308014144F961C8
S31508004B7400201BE0B8F80A506D02AE420FD3214656
S31508004B843846FFF763FF0446B0F1FF3F14D0012807
S31508004B9414D9D8F81830834212D9761BEDE7214682
S31508004BA44046FFF783FBB861D6E70220BDE8F081EB
S31508004BB40220FBE70220F9E70120F7E70220F5E7E0
S31508004BC40220F3E70220F1E72DE9F84306460768D1
S31508004BD4884631B93D698DB1BB69AB420FD8012509
S31508004BE40DE0FFF733FF0346012878D9B0F1FF3FFC
S31508004BF46FD0BA6982426CD8454600E001257B69C4
S31508004C04002B66D0454506D04FF00009B9F1000FD0
S31508004C143AD12C462FE005F10109BB694B4501D869
S31508004C244FF0020949463046FFF710FF03460128AC
S31508004C344FD0B0F1FF3F4CD00028E7D03B69012B99
S31508004C4405D9BA699A4205D84FF00009DEE74FF04C
S31508004C540009DBE71D464FF00009D7E72146304631
S31508004C64FFF7F4FE034670B1012832D0B0F1FF3FD6
S31508004C742FD0AC4237D00134BB69A342EED8012DFC
S31508004C842FD90224EAE7A1464FF0FF3249463846AF
S31508004C94FFF75AFE0346C8B9B8F1000F0FD1ABB9EE
S31508004CA4C7F810907A69BB69023B9A4201D8013A5F
S31508004CB47A617B7943F001037B714B4609E04A46E6
S31508004CC441463846FFF740FE0346E8E7012B03D082
S31508004CD401231846BDE8F8834FF0FF33F9E70123AB
S31508004CE4F7E74B46F5E74B46F3E7F8B50C46056890
S31508004CF401292ED906461146AB69A3422BD94AB1D6
S31508004D044FF0FF322846FFF71FFE074610B123E08F
S31508004D14A24221D9274621463046FFF797FE044684
S31508004D24E0B101281CD0B0F1FF3F1BD00022394660
S31508004D342846FFF709FE074670B96B69AA69911EEA
S31508004D448B42E5D201336B616B7943F001036B71D6
S31508004D54DEE7022700E002273846F8BD0027FBE70E
S31508004D640227F9E70127F7E7F8B505460C46FFF7E2
S31508004D74ADFB08B10120F8BD21462846FFF796FA8F
S31508004D840646286305F134074FF4007200213846B5
S31508004D9401F03CFB002400E001346B89A34207D9E7
S31508004DA40123A21939466878FDF756F90028F3D085
S31508004DB46889001B18BF0120DDE72DE9F84304467E
S31508004DC48846076805692035B5F5001F01D3002311
S31508004DD48361A369002B46D0C5F308063EB901339F
S31508004DE4A361616979B93B89B3EB551F07D9256175
S31508004DF407F134033344E3610020BDE8F883002354
S31508004E04A3610420F9E77B89013B13EA5523EED114
S31508004E142046FFF71BFE8146012826D9B0F1FF3F3D
S31508004E2425D0BB69834212D8B8F1000F17D061693F
S31508004E342046FFF7C9FE8146D8B101281BD0B0F138
S31508004E44FF3F1AD001463846FFF78EFFB8B9C4F8B3
S31508004E54149049463846FFF729FAA061C7E70023A4
S31508004E64A3610420C9E70420C7E70220C5E7012097
S31508004E74C3E70720C1E70220BFE70120BDE70120F9
S31508004E84BBE7F8B504460E4607680021FFF746FE59
S31508004E940246C0B9002508E00135B54213D0012100
S31508004EA42046FFF78AFF024668B9A1693846FFF724
S31508004EB431FB024638B9E3691B78E52BECD0002BA5
S31508004EC4EAD00025EBE7042A01D01046F8BD0722EC
S31508004ED4FBE72DE9F8430446884607684FF0FF09BF
S31508004EE44E4604252EE00F2B19D112F0400F06D09A
S31508004EF491F80D9002F0BF022369E3621646B242A6
S31508004F0401D0FF2618E04B7B4B4501D0FF2613E062
S31508004F14F868FFF7FDF988B3013EF6B20CE026B946
S31508004F240846FFF775FA48452BD04FF0FF33E3627E
S31508004F3427E0FF2600E0FF2600212046FFF73DFF75
S31508004F440546F0B9A169E1B13846FFF7E3FA054623
S31508004F54B8B9E1690A789AB1CB7A03F03F03A37129
S31508004F64E52AE6D02E2AE6D023F02000082814BF26
S31508004F74002001204045B6D0FF26DDE7FF26DBE703
S31508004F8404250DB10023A3612846BDE8F88370B54E
S31508004F94044605680669C16AB1F1FF3F1AD10023C0
S31508004FA4B3B9A1692846FFF7B5FA034670B9E269A9
S31508004FB4E521117001222A712269B24206D2002122
S31508004FC42046FFF7FAFE03460028EAD0042B05D04C
S31508004FD4184670BDFFF7A2FD0346E1E70223F7E78B
S31508004FE438B504460D464C22002101F00FFA256017
S31508004FF438BD38B50D46144640F2B51101F070F9BE
S31508005004FF2809D9012C01D8002038BDC0F307238D
S315080050142B7068700220F8E718B124B128700120B3
S31508005024F3E70020F1E72046EFE72DE9F843D0F847
S31508005034009000238B758369002B72D005460C46B5
S31508005044C36AB3F1FF3F2BD04FF0000846464746E4
S315080050540DE006F110012144C6F1FF02063140EACB
S315080050640840FFF7C6FF98B106444FF00008D9F880
S315080050740C3033F8170060B10137B8F1000FE8D1E6
S3150800508400F520539BB2B3F5006FE2D28046EEE7F3
S315080050940646B8F1000F00D0002626440023B3754F
S315080050A40022134605E009290ED0A01843720132DE
S315080050B40B460A2B0FD8E869591CC35C202BF7D07A
S315080050C4052BF0D1E523EEE70B2AEED8A0182E26F9
S315080050D446720132E9E7A31800215972A37D63B920
S315080050E4002A38D1511C22443F23937521440023B6
S315080050F48B75EB691B7B03B96372EB69DB7A03F087
S315080051043F032372E8691C30FFF7B3F82060E869A7
S315080051141630FFF7A9F8E080E8691830FFF7A4F815
S31508005124A080BDE8F883102763189E750132013103
S31508005134A3185B7A002BD9D01E462E2BF3D0A3F1E5
S31508005144410080B21928EFD8E869007B3842EBD0D1
S3150800515403F12006E8E7082700210A46E8E7F8B538
S3150800516405460668374617F8014B2046FFF79AF8AE
S3150800517440B1B71C76783046FFF796F888B106EB47
S315080051840424A4B214B920462F60F8BD40F2B51120
S31508005194204601F0C5F804460028F4D14FF0FF3044
S315080051A4F3E74FF0FF30F0E72DE9F04F85B00746F7
S315080051B489460B6803930368DD68002405E0FE2C22
S315080051C400F21C8125F81460013403A8FFF7C7FF11
S315080051D4B0F1FF3F00F01081B0F5803F03D3030C14
S315080051E425F81430013486B21F2E0DD92F2E0BD074
S315080051F45C2E09D07F2EE2D83146814801F00EF99B
S315080052040028DCD006209CE01F2E07D84FF004089F
S31508005214039BC9F8003010E001330393039B1A7803
S315080052242F2AF9D05C2AF7D01F2A02D94FF0000892
S31508005234EEE74FF00408EBE7013C44B104F1004300
S31508005244013B35F81330202BF6D02E2BF4D000234F
S3150800525425F8143014B9062073E0013335F8132001
S31508005264202AFAD00BB92E2A01D148F0030844B1F2
S3150800527404F10042013A35F812202E2A01D0013CE5
S31508005284F5E74FF020323A627A62C7F827204FF0E2
S31508005294080B4FF0000ACDF800A003F1010935F810
S315080052A4136056B3202E1BD02E2E17D0DA451BD2E8
S315080052B44C4519D07F2E54D82EB13146514801F0A9
S315080052C4ADF8002879D048F003085F2607EB0A03EF
S315080052D483F820604B460AF1010ADEE74C45E5D01F
S315080052E448F003084B46D8E7BBF10B0F2CD04C45C6
S315080052F401D048F003084C4529D297F82030E52B0D
S3150800530471D0BBF1080F72D0009A02F00C030C2B73
S3150800531403D002F00303032B01D148F0020818F066
S31508005324020F0BD1009B13F0010F01D048F01008AF
S31508005334009B13F0040F01D048F0080887F82B8067
S31508005344002005B0BDE8F08F48F00308D5E7009BB8
S315080053549B00DBB2009323464FF00B0B4FF0080A71
S315080053649BE748F00203019340F2B511304600F07A
S31508005374B7FF064610F0800F06D000F07F06224BD2
S315080053849E5DDDF8048097E7FF2813D90BF1FF33F8
S3150800539453450AD9C0F3072307EB0A0282F82030DB
S315080053A40AF1010ADDF8048090E748F003084B4641
S315080053B4DA4672E7DDF804807EE7A6F141039BB27C
S315080053C4192B03D8009B43F002030093A6F161034B
S315080053D49BB2192B3FF67AAF009B43F00103009367
S315080053E4203EB6B272E7052387F8203089E7009B8A
S315080053F49B00DBB2009387E70620A2E70620A0E716
S31508005404A8660008B4660008646700082DE9F04732
S3150800541481460F4601F11A00FEF726FFC8BB3E78FF
S3150800542406F03F06013E06EB460306EB83064FF0FD
S315080054340108002506E000202CE04FF6FF73984289
S315080054442AD101350C2D18D8174B585D3844FEF768
S315080054540BFF0446B8F1000FEFD0FF2EEBD800F08F
S3150800546475FF804606F1010A39F8160000F06EFF4A
S315080054748045E0D1A0465646E3E73B7813F0400F53
S315080054840CD0B8F1000F0BD039F8163053B90120F7
S3150800549400E00020BDE8F0870020FBE70120F9E7DB
S315080054A40120F7E70020F5E7E46700082DE9F8434B
S315080054B40446D0F800800021FFF730FB0646002892
S315080054C464D14FF0FF33E3624FF0FF094F460AE019
S315080054D44FF0FF33E362FF2700212046FFF76DFCF8
S315080054E40646002852D1A1694046FFF713F8064636
S315080054F400284BD1E5692B78002B46D0EA7A02F0CE
