S31510001000FC3F0020A51000100000000000000000AA
S3151000101000180400000100000000008000F002F833
S3151000102000F030F80CA030C8083824182D18671EA8
S31510001030A246AB4654465D46AC4201D100F022F8BA
S315100010407E460F3EB6460FCC0126334200D0FB1A21
S315100010503343A246AB461847EC1C00000C1D00009B
S315100010600023002400250026103A01D378C1FBD8AE
S31510001070520700D330C100D50B6070471FB51FBD96
S3151000108010B510BD03488546FFF7F8FF01F0E6FCE2
S3151000109000F0D2F8FC3F002003B4FFF7F1FF03BCC9
S315100010A000F0D2F80549064A30200A600431401E85
S315100010B0FBD10448804704480047FEE700000020A3
S315100010C000BFFEE79D1C00101D1000100022030932
S315100010D08B422CD3030A8B4211D300239C464EE03D
S315100010E003460B433CD4002243088B4231D30309F9
S315100010F08B421CD3030A8B4201D394463FE0C309AB
S315100011008B4201D3CB01C01A524183098B4201D3C2
S315100011108B01C01A524143098B4201D34B01C01AAD
S31510001120524103098B4201D30B01C01A5241C30825
S315100011308B4201D3CB00C01A524183088B4201D394
S315100011408B00C01A524143088B4201D34B00C01A80
S315100011505241411A00D201465241104670475DE095
S31510001160CA0F00D04942031000D3404253409C4658
S31510001170002203098B422DD3030A8B4212D3890115
S31510001180FC2212BA030A8B420CD3890192118B42AC
S3151000119008D3890192118B4204D389013AD0921156
S315100011A000E08909C3098B4201D3CB01C01A524111
S315100011B083098B4201D38B01C01A524143098B42DA
S315100011C001D34B01C01A524103098B4201D30B01C3
S315100011D0C01A5241C3088B4201D3CB00C01A5241E8
S315100011E083088B4201D38B00C01A5241D9D24308CF
S315100011F08B4201D34B00C01A5241411A00D201460C
S315100012005241104663465B1001D34042002B00D575
S315100012104942704763465B1000D3404201B5054909
S31510001220002802DC491C084000E00846C046C046BB
S3151000123002BD00BFFFFFFF7F10B50446C046C04683
S315100012402046FFF729FF10BD01491820ABBEFEE767
S3151000125026000200704770B58C180578401C6B0785
S315100012605B0F01D10378401C2A1106D10278401C6D
S3151000127003E00678401C0E70491C5B1EF9D12B0743
S3151000128005D40023521E0DD40B70491CFAE70378BF
S31510001290401CCB1A921C03E01D780D70491C5B1C78
S315100012A0521EF9D5A142D8D3002070BD00F0B9F96D
S315100012B0FCE7000010B500F03FF9012813D0114CDF
S315100012C0207801280FD100F0EFFC0F490968064A73
S315100012D0126851187D2292008918884203D3002083
S315100012E0207000F0BEF910BDA402002080B505489C
S315100012F00121017000F0D8FC03490860FFF7DAFFFE
S3151000130080BDC046A8020020AC02002080B500F0C7
S3151000131090F900F07DF900F0E5FC00F08FFB00F08D
S31510001320F7F8FFF7E3FF80BD80B500F07AF900F01B
S3151000133007FD00F007F9FFF7BDFF80BDF0B587B0D8
S315100013402F4C204600F02EFD02212E4D20462A4617
S3151000135000F042FD2C4806902C48059004952C4C24
S3151000136004A9204600F064FE20684021039108433A
S31510001370206020680126304320605148254941608D
S3151000138003218A07029281681140234A89188160D5
S3151000139072070192214CE1681143E1600460067600
S315100013A00825057300270761476100F067FD14489B
S315100013B031463A4600F0E8FC2D48194941608168EB
S315100013C0029A1140174A89188160E16A019A1143FD
S315100013D0E16220340460057307614761077600F007
S315100013E04DFD07483146324600F0CEFC084A1068DB
S315100013F00399884310601068B043106007B0F0BDC1
S3151000140000000450002D3101401F010020A10700EB
S3151000141000030450E1070080E1070020001004508B
S31510001420670600806706002070B5054610480068FC
S31510001430C069C00701D1002070BD0E460C4C204675
S3151000144000F062FD0146002000290DD1217B31708C
S31510001450217B002908D000202118097C2954401C22
S31510001460217B8842F8D3012021680122CA6170BD10
S31510001470D0040020B0B5124C2173002908D02246A2
S31510001480103203781370491E521C401C0029F8D1E3
S31510001490204600F0B1FD20680221C161204600F00F
S315100014A09BFD00F001FC054632352068C0698007B7
S315100014B005D500F0B6F800F0F7FBA842F5D9B0BD97
S315100014C0F004002080B541480021017000F0ECFBCB
S315100014D04E49086080BDC0464B480078042805D0A8
S315100014E0032803D0022803D1082070473F207047F5
S315100014F08120704744480078042805D0032803D07B
S31510001500022803D1082070473F207047812070477A
S31510001510B0B52E480024047000F0C6FB3B490860A5
S3151000152001F020F9FFF70AFF374D0220287000F06E
S3151000153095FA2C70B0BDC04680B501F021F9411E58
S31510001540884180BDB0B582B01F4801A9FFF76CFF76
S31510001550012401280DD11D4804702B480221017069
S3151000156000F0A2FB2949086001A80178164801F08D
S315100015700DF9154801A900F09DFA01280DD113485F
S31510001580047021480021017000F08EFB1F4908608D
S3151000159001A801780C4801F0F9F801F0F1F80028DB
S315100015A010D00A4C207800280CD000F07DFB174D87
S315100015B02968401A0649884204D30020207000F09A
S315100015C073FB286002B0B0BD88010020BC04002067
S315100015D08813000070B50D4604460B4E307802286D
S315100015E004D1E9B22046FFF745FF3078002803D131
S315100015F0E9B2204600F0D4FA01F028FA00F054FBC4
S315100016000249086070BDC04680010020B804002061
S3151000161080B500F001F880BD80B5642000F0CAF9ED
S3151000162080BD80B500F001F880BD80B500F0D2F91C
S3151000163080BD80B500F001F880BD72B6704762B605
S31510001640704770B5002A0BD014460D46064628780A
S315100016503070761C6D1C641EFFF7E3FF2004F6D174
S3151000166070BD10B500F0EEF900280DD000F00EF8A0
S31510001670002809D0FFF726FF00F054FB00F0DAF936
S315100016804468FFF7DCFFA04710BD000080B5054891
S315100016900068400701D4002080BD00F087F90120C2
S315100016A080BDC04624020440F0B581B01C461546E4
S315100016B00646FF200F4687433068421C09D1376023
S315100016C0301D0122009112023946FFF7BAFF009928
S315100016D03068B84209D000913046394600F0B8F863
S315100016E0002825D0064607680099C81B3018071D24
S315100016F00094B81B001F3446060AFFF792FF002E0F
S315100017000BD00120000221680918204600F0A0F82D
S3151000171000280DD00646071D00E02646009C2878B6
S315100017203870641E6D1C7F1C002CE1D1012000E076
S31510001730002001B0F0BD000080B59A480068401C3A
S3151000174004D0984800F0E2F800280AD06E480068E5
S31510001750401C04D06C4800F0D9F8002801D00120B4
S3151000176080BD002080BDC046F0B581B005466448F6
S31510001770401B4E1E0027864202D9384601B0F0BDE6
S31510001780284600F043F80446701900F03FF88442EA
S31510001790F3D8FF2CF1D00146FF28EED0042CECD361
S315100017A03229EAD8244D0091FFF73BFF2F26FFF789
S315100017B038FFE0B2297A814204D0761E0C35002E0D
S315100017C0F5D1DAE72D6800F0C1FC00F06DFA064697
S315100017D0284600F0C5FC00F0D5FCC007164D0AD00F
S315100017E00A3600F061FAB042C7D8FFF71AFF00F0C8
S315100017F0C9FCC007F5D100F0C5FC0028BDD1641C9A
S31510001800E1B20120009A9142CED9B7E770B50446ED
S31510001810094D2F26FFF705FF2868A04203D86968EF
S315100018200818A04205D8761E0C35002EF2D1FF20DE
S3151000183070BD287A70BDC046082B00101C48704732
S315100018400020C043574908602F4908607047C046BA
S3151000185070B50D46534CA0420AD006461448854230
S315100018600BD0304600F052F80028344601D102E081
S31510001870254C280601D0002409E02068A84206D08D
S31510001880204620C001210A022946FFF7DAFE20462B
S3151000189070BDC04670B506487EC85118C9180919DA
S315100018A049198919406809184842484170BDC0460F
S315100018B000400010F0B581B006461148801B4D1E41
S315100018C00027854218D80C4600923046FFF79EFF37
S315100018D0FF2811D0A819FFF799FFFF280CD0300A5E
S315100018E00849884201D12F4800E007483146009A3E
S315100018F02346FFF7D9FE0746384601B0F0BDC0466D
S31510001900FF2F031040001000B002002070B50546EE
S315100019100068FFF77BFF0024FF2827D000F016FC95
S3151000192000F0C2F90646294601C900F031FC00F064
S3151000193029FCC0070AD0761D00F0B6F9B04215D8BA
S31510001940FFF76FFE00F01EFCC007F5D100F01AFC81
S3151000195000280BD10120010204CD13782E78B34252
S3151000196004D16D1C521C491EF7D10446204670BD89
S31510001970B0B582B00B480168491C0FD0051D3ECD8D
S315100019808069511859186118691808184042019051
S315100019900548042101AAFFF78DFF00E0012002B0DF
S315100019A0B0BDC046B40300201C40001018480121E9
S315100019B001607047B0B50446054D002180222846C7
S315100019C000F02EFC1348048001206860B0BDC046AC
S315100019D000040440B0B500F067F90B4C216888424A
S315100019E010D30A48017801220029134600D11304A6
S315100019F0074D2B605140017000F056F905490988D2
S31510001A0040182060B0BDC0460C020020090200201C
S31510001A1004040440C804002080B5FFF7A9FF00287D
S31510001A2002D0FFF789FE80BD002080BD80B5FFF78C
S31510001A309BFE80BD80B5FFF701FF80BD80B5FFF727
S31510001A40FFFE80BD80B5FFF725FF80BD80B5FFF78F
S31510001A5031FF80BD00487047002D3101F0B585B0CB
S31510001A6002A900200190488110260E7208204871A4
S31510001A702120C000C880E12000020290474D0127B6
S31510001A8028463A4600F0EAFC042428463146224607
S31510001A903B4600F053FE2846019922463B4600F08D
S31510001AA06DFD286C022101430D208143296405B088
S31510001AB0F0BDC046F0B581B00C460546254E3178CE
S31510001AC0354800291ED0264F39780068000733D4D0
S31510001AD021480E18314800F0B3FC1F4B707038784F
S31510001AE0401C38701978C2B28A422FD13870591CEE
S31510001AF02846FFF7A6FD0020164908703878207092
S31510001B00012424E000680825002405401FD123483D
S31510001B1000F096FC10490870002D18D1C0B2401E76
S31510001B20802814D800F0C0F80C4908600C4800242E
S31510001B300470012030700AE000F0B6F80749096811
S31510001B40C831884202D90024347000E000242046AF
S31510001B5001B0F0BD9402002010020020980200206F
S31510001B609502002070B501460B4D2868C00412D4AA
S31510001B700A4800F0B7FC0120060200F095F804466A
S31510001B800A342868304205D1FFF74BFD00F08CF877
S31510001B90A042F6D96E6070BD1403004800020048DA
S31510001BA0B0B50C4605464808412803D22046FFF733
S31510001BB0D9FF0DE008A07A21FFF778FB2046FFF742
S31510001BC0D1FFFFF72EFD2878FFF7CCFF641E6D1CA2
S31510001BD0002CF6D1B0BDC0462E2E2F2E2E2F2E2E17
S31510001BE02F2E2E2F536F757263652F41524D434D15
S31510001BF0305F584D43312F72733233322E630000EB
S31510001C0070B584B004496846024678C978C200F0B7
S31510001C102DFB04B070BDC046F82A0010B0B51649A9
S31510001C200868000AC0B2154C206000280FD00A6858
S31510001C30D2B2134D2A60CB699B079B0D9A182A6066
S31510001C40C969890508D4800211180E480BE0C869C5
S31510001C5080050CD40C480CE0FFF7FCFE29682268BE
S31510001C60920251188001FFF731FA000101E0FFF7E7
S31510001C70F1FE2B490860B0BD00030140A002002010
S31510001C809C02002000001BB7006CDC0202480168B1
S31510001C9001229143016070476800014080B5FFF74B
S31510001CA0F5FFFFF7ADFF80BDF0B581B03148006894
S31510001CB0314D2F68381A314E304031490C68A042E8
S31510001CC002D2304800680BE02146FFF7FFF90146C3
S31510001CD02C4A1068401810604C43391B314029605B
S31510001CE001B0F0BDB0B5144C002020606060A0605B
S31510001CF001214906114A1160204D6560A060052139
S31510001D002160204908607D20C10005480068FFF762
S31510001D10DDF91B490860A068284017490860B0BD66
S31510001D20FC3F0020044800210160416081600120D1
S31510001D30400602490860704710E000E004ED00E03C
S31510001D40F0B581B00B4800680B4D2F68381A0B4E52
S31510001D5030400B490C68A0420AD32146FFF7B6F96A
S31510001D6008490A6812180A604443381B3040286034
S31510001D7001B0F0BD18E000E0C4040020FFFFFF0032
S31510001D80C0040020CC04002071239B00C0180368F7
S31510001D909B059B0FFBD11204491C09068918891C47
S31510001DA00160704780B501210160480500F048FACE
S31510001DB080BD80B53921C90041580F20084002283E
S31510001DC004D0012805D100F04BFA80BDFFF742FE82
S31510001DD080BD002080BD0000F0B583B002920E4693
S31510001DE004460125680500F017FB20680195A843F5
S31510001DF0206020688007FCD43920C00021580F22AB
S31510001E009143314321502046FFF7D3FF0646E06841
S31510001E1018490140E16030460299FFF757F9164A12
S31510001E20511C0D1A954200D31546491B3046FFF733
S31510001E304DF90746029880098002B6093146FFF728
S31510001E4045F90D49884200D30846029BD91B4643E3
S31510001E50B20A92019A1A914204D801988003054356
S31510001E60284602E00199C9030843E1680143E1608D
S31510001E7003B0F0BD003CFFFFFF030000B0B5044601
S31510001E80FF200102206882688A438260C1001A4AD4
S31510001E908A181A4B13401F2212020A4081681143F6
S31510001EA019438160217E012924D82021C1616168EE
S31510001EB088000BD40720420788041140014320688C
S31510001EC08161A1680A408904114302E0206881619A
S31510001ED0A168C1600125217E012906D1204600F0A6
S31510001EE08BF8E9062068074A01E0E902044AC16155
S31510001EF02068C261B0BDC0460080DF7F00E0FFFFF2
S31510001F004006A000C0002006F0B581B00168CB697C
S31510001F10CA692E4C641C234201D0032152E0520799
S31510001F204FD42B4C2B4D08220092CA6106C88F69DC
S31510001F30661C0838374211D0324342606B1C1A4077
S31510001F408F69274017434760CA68224087681F4039
S31510001F50174387602F40CA6832401EE017462F404D
S31510001F6047600327BF0717408A69920C174C224017
S31510001F70D2194260CB68334082682A401A43826085
S31510001F80CF68002B05D06B1C1A40BF0C2740104C95
S31510001F9003E00F4C27406B1C1A403A4382600A68D4
S31510001FA00B6903611201120F02734A694261CB6910
S31510001FB0CA695B0702D5009B1A40B4D1002101768D
S31510001FC000E00221084601B0F0BDC046FF07000040
S31510001FD0FFFFFF1FFFFFFFDF0068C269C16992069E
S31510001FE001D404207047C90504D407210906C1612C
S31510001FF00020704702207047017E012914D1016824
S315100020002022CA610F210906026813688B43017BDF
S3151000201009070909C9181160016911614069506100
S315100020200248D06100207047032070474000280006
S31510002030F0B58BB00190086802914C680A210A919C
S3151000204048430590002001273D49099107910690C4
S315100020500390049405983946FFF738F808902146FE
S31510002060FFF734F804460A9D2946FFF72FF806466F
S315100020704543601B052800D9761C002E0A99049C3E
S3151000208001D00A9971430898FFF720F8011B00D276
S31510002090211A002E00D101260798884207D9142E3E
S315100020A005D8C8087D2803970696079103D37F1C89
S315100020B0412FCFD101E00397069602980589012793
S315100020C04026204C20460699FFF700F8421B00D206
S315100020D02A1A09999142314600D83946A8420AD39C
S315100020E00998904200D8024617482418761E022EE8
S315100020F009920F46E6D8019D2A68402002432A60BD
S31510002100039A521E3F2313400F2212020C02A418E8
S315100021101440E218C943069B5918090307231B03E9
S31510002120C91819405118029A52899201C032D2B276
S31510002130891829612968814329600BB0F0BDC04612
S315100021401027000010EB0900F0D8FFFF0320000352
S3151000215002490A8802430A807047C04604000540B7
S31510002160F0B581B00446102501273E02316820469D
S3151000217088473904884202D1A4196D1EF4D101B0E2
S31510002180F0BD0000014800887047C04600000540B9
S3151000219080B50246412080000368084611469847DC
S315100021A080BD0000F0B581B08B07DB0EFC250C4618
S315100021B02C4000939D4004192669AE4326614D00BC
S315100021C00326AE40456FB54345674D07ED0E042611
S315100021D0AE404F087C233B40C3181F6CB7431F64A7
S315100021E05678AE401D6C35431D640C4DA84204D183
S315100021F001238B402E6E9E432E66103413785BB2ED
S31510002200DDB2002B02D552688A40426000988540A4
S3151000221020682843206001B0F0BDC046000204408B
S3151000222010B58B07DB0EFC2421409C404018016939
S31510002230A14301619A4001691143016110BD00007B
S315100022407D49C0220A600A685207FCD4034A136803
S3151000225003431360C32008607047C0460C03014057
S31510002260014800687047C046FC3F0020F0B581B0B9
S315100022700446714DC020286028684007FCD4A07918
S315100022802A4E2B4B2B4F302804D11888302101436E
S3151000229019802AE0FFF7DEFB254B2749884203D336
S315100022A01888402101431980188832218843A17962
S315100022B00143198021480221E96301214906326848
S315100022C08A433260394600BF491CFCD303210906F4
S315100022D032680A4332603168C901FCD4014600BF36
S315100022E0491CFCD3696B8907E5D4181FE179018075
S315100022F0002903D1124800BF401CFCD31837B06820
S315100023003840A1880143B1600F200004143E3168A3
S315100023108143A068E2680A4302433260C320286002
S31510002320A078218800F018F801B0F0BD1403014020
S3151000233090100140E7FDFFFF012D310184F5FFFFED
S3151000234061D19CFF034909680140481E8141084636
S315100023507047C04608030140F0B581B00746364ABB
S31510002360C020106010684007FCD4344B1D68D86933
S315100023700324A0430C0A0443DC611868FF24A0431D
S31510002380C9B208182249084318600124A107280A6F
S315100023901D680D42FCD1C6B2BE4210D93846BF00E8
S315100023A0BE4223D91C681B4D2C40B6083502254366
S315100023B0174C25431D601C680C42FCD1F0E7B50094
S315100023C03846AF4212D91D68124F3D40002E27469F
S315100023D000D03746BE0235430D4E35431D601D688D
S315100023E00D42FCD1BE003D01A842ECD81C68094D37
S315100023F02C4000022043064C2043186018680842FF
S31510002400FCD1C3201060FFF709FC01B0F0BDC04637
S315100024100000F03FFF000FC00749C0220A600A689B
S315100024205207FCD4054A1369034313611068400030
S31510002430FCD4C3200860704724000140000301400B
S315100024404321890042585201520F02D040181030D1
S3151000245000E05430006880B270470000F0B581B0DB
S3151000246017460D46044600F051F82E7A002E00D17C
S315100024701026002F0CD029682879002804D0204671
S31510002480324600F0F3F803E02046324600F08EF8AC
S3151000249001200002710809020818E9794900891E0D
S315100024A001430E480843E063687901060C4A89180F
S315100024B06163A979002900D0084600049D49401897
S315100024C0616B0143616305200002A0630020C043D5
S315100024D0E0646889206401B0F0BDC04601000300C5
S315100024E0020100FF2122D20083585B015B0F02D04C
S315100024F080188167704702468032836B1B06FCD4B6
S3151000250001235B03C364116070470000B0B5044635
S31510002510164884420FDC0920C006844202D01648B1
S31510002520844218D10820FFF777FF0820FFF70AFF2B
S315100025300028FAD10FE00E48844202D00D4884429A
S3151000254009D1012085042846FFF766FF2846FFF7C4
S31510002550F9FE0028FAD10320E060E068C007FCD03D
S31510002560206C0F2188432064B0BDC046FF3F004851
S3151000257000400048004200480002004870B543245D
S31510002580A400055907263606B54305511B020B4311
S31510002590110619430259044B13400B430121090735
S315100025A01943015170BDC046C0C0FFEFF0B589B0E8
S315100025B00C4601460120642C52D31546002A4FD0F2
S315100025C00291FFF74DFE64273946FEF77FFD06465A
S315100025D020463946FEF77AFD019568430590069622
S315100025E0B402204E751C01200490039029460891D0
S315100025F020460599FEF76AFD00231B498842049F71
S315100026003A4600D31A4607930146164B1940B14273
S3151000261000D3079F3A4000D13146002A01D0800AE4
S315100026200390002A284600D10898069AA41A6D1E0F
S315100026300E460146DBD10121C903401E0843029B09
S315100026401861019880023A49401803990904394AD9
S31510002650891801435869384A02400A435A610020D2
S3151000266009B0F0BDFF03000000041000F0B585B0FE
S3151000267015460F4604460E465643FFF7F1FD0496DF
S31510002680B0421BDD0297009403900499FEF728FDD3
S31510002690044626488442019512D90498450001271C
S315100026A0039E30462946FEF71BFD044604982D1856
S315100026B07F1C1E488442F4D8019D02E0012032E0BE
S315100026C001272E467E43214671430398FEF7FEFCF2
S315100026D00299081AC11745184D40601C04904643CC
S315100026E003983146FEF7F2FC0299081AC1174018F2
S315100026F048400499A84200D321460C48401A801C31
S31510002700012189030143009B196101988002084940
S3151000271040183904074A891801435869064A024085
S315100027200A435A61002005B0F0BDC046FE03000002
S3151000273000FCFFFF0000FFFFEF8000FC70B52124B6
S31510002740E400055907263606B54305511B020B430F
S31510002750110619430259024B13400B43035170BD26
S31510002760C0C0FFF88120BC4900220A5486200A52B4
S3151000277088200A508131CA708A704A707047C046E4
S315100027808120B549085C411E88417047F0B581B07B
S3151000279004460078FF2826D18120AF4C0121215410
S315100027A0822000212154A170A6482080FEF794FEB5
S315100027B0E070FEF79FFE2071FEF79CFE8621082230
S315100027C06252FF210231E180000A6071FFF736F98B
S315100027D08421A148425C012A42D186230222C25298
S315100027E0994B038040E081259B4E715D012940D1B4
S315100027F00146F1390D293ED87944097949008F44AB
S315100028005B5B066072865B5B5B965BA0A5BAFF207E
S3151000281030702079617909020818A17909044018E5
S31510002820E179090645180022002D17460ED00092B0
S3151000283088203458002620783718FEB2641C6D1E86
S31510002840FEF7EFFE002DF6D1834E009A8620082162
S315100028503152F28072713771012070707280B7E751
S315100028608622825E012A04DB0123435491B2FEF7CD
S31510002870B1FE01B0F0BDC93809281DD878440079D9
S315100028804000874404191971191976828EA2882777
S31510002890F559FEF721FE621C411E2846FFF7D6F8B1
S315100028A0002800D19EE0FF203070FEF715FEF1598A
S315100028B04018401EF05186E08620022131525D48B4
S315100028C06DE06578FEF708FEA8424BD9207961794C
S315100028D009020818A17909044018E1790906411876
S315100028E08825715106E06578FEF7F6FDA84239D9BC
S315100028F0882571596278701CFEF7A3FE70596178AD
S3151000290040187051FF2030706078401C6DE0E079FF
S31510002910A179227963798624012535531B029A18E9
S315100029200904511800060818882170502AE08820DA
S3151000293043493150862008213152FF20072103C612
S3151000294046E7862002213152FE2028E08620062105
S315100029503152FF2030800020B080F0708220305C31
S31510002960B07035E735483EE08620022131523248B4
S3151000297015E0FEF776FE822000213154715586202F
S3151000298001213152FF20307022E76578FEF7A4FD51
S31510002990801EA8422CDA8620022131522748308028
S315100029A016E7882030582179627912025118A279D7
S315100029B012048918E27912068918FFF737F80028E9
S315100029C010D0FF20307001200FE00024B470FF20DB
S315100029D03080FEF781FD862107227252B471B480D1
S315100029E0F070F5E614483080022086217052EFE62A
S315100029F0862501207053FF203070617800290CD095
S31510002A0037468826B859A21CFFF720F800280CD0A4
S31510002A10B85961784018B851DAE6FEF7FDFF00287C
S31510002A2000D0D5E602207053A1E702207853024861
S31510002A303880CDE6FE200000FE310000FE220000A8
S31510002A403C2D0010FF100000FE10000084200249EB
S31510002A5000220A547047C046100500208AB0FFF7BE
S31510002A60DDF8FEF753FC6A46082515701D4802244A
S31510002A702146FFF797FB08AA002717701A4E032165
S31510002A803046FFF78FFB06AA9C2010703046214671
S31510002A90FFF788FB1548016850229143016004AA8C
S31510002AA017700168072399430160114E3046294675
S31510002AB0FFF778FB02AAA420107009213046FFF711
S31510002AC071FB0C480168402211430160C168214323
S31510002AD005239943C160016891430160FEF724FC08
S31510002AE0FCE7C04600020440000104401C020048F6
S31510002AF0000404400003045000000100000000031D
S31510002B00000001000000000000400010001000004E
S31510002B100400000000500010001000000500000026
S31510002B200060001000100000060000000070001089
S31510002B3000100000070000000080001000100000C8
S31510002B4008000000009000100010000009000000AE
S31510002B5000A00010001000000A00000000B00010D5
S31510002B60001000000B00000000C000100010000054
S31510002B700C00000000D00010001000000D00000036
S31510002B8000E00010001000000E00000000F0001021
S31510002B90001000000F0000000000011000100000DF
S31510002BA010000000001001100010000011000000BD
S31510002BB0002001100010000012000000003001106B
S31510002BC0001000001300000000400110001000006B
S31510002BD01400000000500110001000001500000045
S31510002BE000600110001000001600000000700110B7
S31510002BF000100000170000000080011000100000F7
S31510002C0018000000009001100010000019000000CC
S31510002C1000A00110001000001A00000000B0011002
S31510002C20001000001B00000000C001100010000082
S31510002C301C00000000D00110001000001D00000054
S31510002C4000E00110001000001E00000000F001104E
S31510002C50001000001F00000000000210001000000D
S31510002C6020000000001002100010000021000000DB
S31510002C700020021000100000220000000030021098
S31510002C800010000023000000004002100010000099
S31510002C902400000000500210001000002500000063
S31510002CA000600210001000002600000000700210E4
S31510002CB00010000027000000008002100010000025
S31510002CC028000000009002100010000029000000EB
S31510002CD000A00210001000002A00000000B0021030
S31510002CE0001000002B00000000C0021000100000B1
S31510002CF02C00000000D00210001000002D00000073
S31510002D0000E00210001000002E00000000F002107B
S31510002D10001000002F00000000000310001000003B
S31510002D2030000000001003100010000031000000F9
S31510002D300020031000100000320000004F70656E76
S31510002D40424C5400682D001000000020880100003D
S31510002D5056120010A02D0010880100201404000047
S31510002D6060100010000000008D2F48FEE70411CA05
S31510002D704710E904A920290C0980044132013202C6
S31510002D8013BB1033100432053206320732083209EB
S31510002D905A0A20320C5A0D0C09820429A841000047
S7051000101DBD
