S01D000062696E2F6F70656E626C745F73746D3332663330332E7372656397
S315080000000030002015020008650200086502000895
S315080000106502000865020008650200080000000085
S315080000200000000000000000000000006502000853
S3150800003065020008000000006502000811130008A8
S3150800004065020008650200086502000865020008E6
S3150800005065020008650200086502000865020008D6
S3150800006065020008650200086502000865020008C6
S3150800007065020008650200086502000865020008B6
S3150800008065020008650200086502000865020008A6
S315080000906502000865020008650200086502000896
S315080000A06502000865020008650200086502000886
S315080000B065020008650200080000000065020008E5
S315080000C06502000800000000000000006502000844
S315080000D000000000650200086502000865020008C5
S315080000E06502000865020008000000000000000024
S315080000F000000000000000000000000000000000F2
S3150800010000000000000000000000000000000000E1
S3150800011000000000000000006502000865020008F3
S3150800012000000000000000000000000000000000C1
S3150800013000000000000000000000000000000000B1
S3150800014065020008650200080000000000000000C3
S315080001500000000000000000000000000000000091
S315080001600000000000000000000000000000000081
S315080001700000000000000000000000000000000071
S30D080001800000000065020008FA
S315080001880348044B834202D0034B03B11847704710
S315080001981000002010000020000000000548064B4B
S315080001A81B1AD90F01EBA301491002D0034B03B15F
S315080001B818477047100000201000002000000000B3
S315080001C810B5064C237843B9FFF7DAFF044B13B189
S315080001D80448AFF300800123237010BD10000020E7
S315080001E8000000007822000808B5054B1BB1054930
S315080001F80548AFF30080BDE80840FFF7CFBF00BF4A
S31508000208000000001400002078220008DFF834D027
S31508000218002103E00C4B5B58435004310B480C4B48
S3150800022842189A42F6D30B4A02E0002342F8043BE6
S31508000238094B9A42F9D300F011FF01F0F5FF00F0D7
S31508000248C9FFFEE70030002034230008000000201C
S31508000258100000201000002048060020FEE70000D5
S31508000268002808DB0901C9B200F1604000F56140C1
S3150800027880F80013704700F00F000901C9B2014B56
S315080002881954704714ED00E000B500F00700C0F1F6
S31508000298070CBCF1040F28BF4FF0040C031D062BEE
S315080002A80FD9C31E4FF0FF3E0EFA0CF021EA0001E3
S315080002B899400EFA03FE22EA0E0241EA02005DF8A8
S315080002C804FB0023EEE70000074AD36823F4E0633B
S315080002D81B041B0C000200F4E060034343F0BF63F1
S315080002E843F40033D360704700ED00E010B50446C8
S315080002F8054BD868C0F30220FFF7C6FF014620461B
S31508000308FFF7AEFF10BD00BF00ED00E00138B0F101
S31508000318807F0BD24FF0E0235861054AF02182F816
S3150800032823100020986107221A6170470120704738
S3150800033800ED00E082B0224A136843F00103136017
S315080003481F4B1B6813F0020FFAD01D4A136823F0D7
S31508000358F80343F0800313604FF0FF3301930199C4
S31508000368184B0B400193019B5360154B5B6813F0C0
S315080003780C0FFAD1124A13680193019B23F0847370
S3150800038823F480330193019B13600D4B1B6813F00C
S31508000398007FFAD10A4B1A6822F480221A600020D4
S315080003A85860D86218634FF41F020192019A9A603E
S315080003B898605A6A42F080725A6202B0704700BF63
S315080003C8001002400CC0FFF8034B5B68C3F3031325
S315080003D8024AD35CD84070470010024098220008A9
S315080003E8034B5B68C3F30223024AD35CD8407047C1
S315080003F80010024090220008034B5B68C3F3C2232F
S31508000408024AD35CD8407047001002409022000880
S315080004180E4B5B6803F48033ABB90D480B4AD36AB5
S3150800042803F00F030133B0FBF3F0536803F47013BA
S315080004384FF4701292FAA2F2B2FA82F2D340023359
S3150800044803FB00F070470348E8E700BF00100240C6
S3150800045800093D0000127A0008B5054B5B6803F0F1
S315080004680C03082B01D0034808BDFFF7D1FFFBE7AB
S315080004780010024000127A0010B50446FFF7ECFF98
S315080004882060FFF7A1FF6060FFF7AAFFA060606819
S31508000498FFF7B2FFE06010BD30BB08B5134B1B6B06
S315080004A8032181400B4043EA0063022B0DD0032B3E
S315080004B804D0012B11D1FFF7CFFF08BD0B4B1868E5
S315080004C810F00200F9D00A48F7E7084B186A10F046
S315080004D80200F2D04FF40040EFE7FFF7BDFFFFF741
S315080004E873FFFFF77DFFE8E700207047001002401A
S315080004F800127A0010B5074B4FF0FF321A61002434
S315080005081C61DA60DC609A629C6200F0D7FE2046BD
S3150800051810BD00BF0010024010B504460E4B1A78ED
S315080005284FF47A73B3FBF2F30C4A1068B0FBF3F096
S31508000538FFF7ECFE68B90F2C01D901200AE0002262
S3150800054821464FF0FF30FFF7D1FE054B1C6000200F
S3150800055800E0012010BD00BF0000002008000020B0
S315080005680400002008B5074A136843F0100313600F
S315080005780320FFF7A9FE0020FFF7CEFF00F032FEA2
S31508000588002008BD00200240064B0022DA61064B0F
S315080005981A6942F004021A611A6942F040021A619D
S315080005A8704700BF3000002000200240064B00229A
S315080005B8DA61064B1A6942F002021A6158611A6929
S315080005C842F040021A6170473000002000200240BD
S315080005D8264B1B7E012B45D070B505460E46234B88
S315080005E801221A760368934220D04CF2503000F064
S315080005F8AFF988BB4FF0FF3333606C680121AA68EE
S315080006086B6803EBC223A34227D92046FFF7CEFF20
S315080006184CF2503000F09CF9154A136923F002038E
S3150800062813610146B0B904F50064E8E74CF25030A6
S3150800063800F08EF908B101210FE0FFF7A5FF4CF28B
S31508000648503000F085F90146094A136923F0040376
S31508000658136102E0346000E00121044B00221A7697
S31508000668084670BD02210846704700BF30000020C2
S315080006780020024000B5836891FAA1FCBCFA8CFCFC
S315080006884FEA4C0C4FF0030E0EFA0CFC23EA0C0347
S3150800069891FAA1F1B1FA81F149008A4013438360BE
S315080006A85DF804FB00B5C36891FAA1FCBCFA8CFC9A
S315080006B84FEA4C0C4FF0030E0EFA0CFC23EA0C0317
S315080006C891FAA1F1B1FA81F149008A401343C3604E
S315080006D85DF804FB00B5036A91FAA1FCBCFA8CFC28
S315080006E84FEA8C0C4FF00F0E0EFA0CFC23EA0C039B
S315080006F891FAA1F1B1FA81F189008A40134303629C
S315080007085DF804FB00B5436A090A91FAA1FCBCFA2C
S315080007188CFC4FEA8C0C4FF00F0E0EFA0CFC23EAF1
S315080007280C0391FAA1F1B1FA81F189008A401343C1
S3150800073843625DF804FB00B5036891FAA1FCBCFAAC
S315080007488CFC4FEA4C0C4FF0030E0EFA0CFC23EA0D
S315080007580C0391FAA1F1B1FA81F149008A401343D1
S3150800076803605DF804FB0000B0F1904F0DD0284BEC
S31508000778984215D0274B984220D0274B98422BD021
S31508000788264B984236D001207047254B9A6A42F480
S3150800079800329A629A6A22F400329A6200207047F6
S315080007A803F1784303F503339A6A42F480229A627E
S315080007B89A6A22F480229A620020704703F17843E5
S315080007C803F502339A6A42F400229A629A6A22F474
S315080007D800229A620020704703F1784303F5013333
S315080007E89A6A42F480129A629A6A22F480129A6283
S315080007F80020704703F1784303F5FE339A6A42F4FA
S3150800080880029A629A6A22F480029A6200207047E5
S315080008180004004800080048000C00480014004876
S3150800082800100240F8B507460E460D6895FAA5F574
S31508000838B5FA85F519E0B26821463846FFF71AFF72
S315080008483268F1687B6823EA020301FB02F2134364
S315080008587B6016E0726921463846FFF753FF7268CF
S3150800086821463846FFF767FF0135346834FA05F23A
S315080008781BD00122AA401440F6D07368013B012B0D
S31508000888D9D9326921463846FFF70CFF7368022B17
S31508000898E5D194FAA4F3B3FA83F3072BDAD8726985
S315080008A821463846FFF716FFD9E70020F8BD0000AD
S315080008B8044B0022DA61044A136943F00103136101
S315080008C80180704730000020002002400C4BDB688E
S315080008D813F0100305D00B4AD36943F00203D3611A
S315080008E81023074AD26812F0040F06D00549CA69C8
S315080008F842F00102CA6143F00403014AD360704713
S3150800090800200240300000200A4B1B6913F0800FB4
S315080009180BD0084B084A5A6002F188325A601B699C
S3150800092813F0800F03D1002070470020704701207C
S31508000938704700BF0020024023016745034A136930
S3150800094843F0800313610020704700BF002002406F
S3150800095838B5044601F0F2F80546144BDB6813F07F
S31508000968010F0AD0B4F1FF3FF7D024B101F0E6F839
S31508000978401BA042F1D9032012E00C4BDB6813F0A8
S31508000988200F02D0094B2022DA60084BDB6813F0E7
S31508000998100F06D1054BDB6813F0040F01D10020B0
S315080009A838BDFFF793FF0120FAE700BF0020024091
S315080009B82DE9F8431E46244B1B7E012B41D00446DD
S315080009C80F469046204B01221A764CF25030FFF714
S315080009D8BFFF034678BB012C08D0022C03D04FF082
S315080009E804091C4607E04FF00209FAE74FF0010927
S315080009F8F7E70134E4B24C451DD22101C1F12002C2
S31508000A08A1F1200328FA01F106FA02F2114326FA9F
S31508000A1803F3194389B207EB4400FFF749FF4CF281
S31508000A285030FFF795FF094B1D6925F001051D6133
S31508000A3803460028DDD0044A002111761846BDE889
S31508000A48F8830223FAE700BF30000020002002409E
S31508000A587047002800F0A18038B5044690F8203081
S31508000A68D3B12268136843F00103136001F066F8EE
S31508000A78054623685A6812F0010F10D101F05EF88E
S31508000A88401B0A28F5D9636A43F4003363620523D1
S31508000A9884F82030012038BDFFF7DAFFE1E71A6845
S31508000AA822F002021A6001F049F8054623685A68D6
S31508000AB812F0020F0DD001F041F8401B0A28F5D9AB
S31508000AC8636A43F400336362052384F820300120FF
S31508000AD8E1E7227E012A3DD01A6822F080021A60D0
S31508000AE8637E012B3BD02268136823F0400313600A
S31508000AF8A37E012B39D02268136823F020031360DC
S31508000B08E37E012B37D02268136843F0100313607D
S31508000B18237F012B35D02268136823F00803136056
S31508000B28637F012B33D02268136823F0040313600C
S31508000B38A368E26813432269134362691343626828
S31508000B48013A21681343CB6100206062012384F8C7
S31508000B582030A0E71A6842F080021A60C0E72268C7
S31508000B68136843F040031360C2E72268136843F02A
S31508000B7820031360C4E72268136823F01003136080
S31508000B88C6E72268136843F008031360C8E72268B3
S31508000B98136843F004031360CAE701207047026824
S31508000BA890F82030013BDBB2012B05D9436A43F4A0
S31508000BB8802343620120704730B4D2F8003243F0EC
S31508000BC80103C2F800324B6903F01F03012000FA3B
S31508000BD803F3D2F81C026FEA030C20EA0300C2F8F2
S31508000BE81C02C869B0B9D2F80C020CEA0000C2F8AF
S31508000BF80C028C884869CD6844EA0544483042F8AE
S31508000C0830400C8848698D6844EA0544483002EB48
S31508000C18C0004460C86901281BD0886980BBD2F81F
S31508000C2804020CEA0000C2F80402086970BBD2F88C
S31508000C3814020CEA0000C2F81402096A01292BD02A
S31508000C48D2F8003223F00103C2F80032002030BC83
S31508000C587047D2F80C021843C2F80C028C88486907
S31508000C680D6844EA0544483042F830408C8948699A
S31508000C788D6844EA0544483002EBC0004460CCE776
S31508000C88D2F804021843C2F80402CEE7D2F81402CE
S31508000C981843C2F81402D0E7D2F81C120B43C2F85C
S31508000CA81C32CDE770B5044690F82050EDB2012DF8
S31508000CB806D0436A43F4002343620125284670BDDB
S31508000CC8022380F820300268136823F001031360B2
S31508000CD800F034FF064623685B6813F0010F0CD052
S31508000CE800F02CFF831B0A2BF5D9636A43F40033FB
S31508000CF86362052384F82030E0E700256562DDE7AE
S31508000D0830B590F820C00468A4680CF1FF3C5FFA77
S31508000D188CFCBCF1010F62D814F0E05F59D0C4F31B
S31508000D28016C012404FA0CF41C608B68002B3DD175
S31508000D380D68CB68046843EA45550CF118031B018E
S31508000D48E55003680C690CF1180E03EB0E135C608A
S31508000D580B7D012B35D0D17993791B0443EA0163BE
S31508000D68517943EA012314790168234301EB0C11ED
S31508000D78C1F88C31D17893781B0443EA016351781A
S31508000D8843EA0123117802680B4302EB0C12C2F8F6
S31508000D98883102680CF1180C4FEA0C1C52F80C3012
S31508000DA843F0010342F80C3000201DE04C6843EA82
S31508000DB8C403CC6823430CF11804240105682B5195
S31508000DC8BFE7036803EB0E13596841F4807159604D
S31508000DD8C1E7436A43F400134362012004E0436A07
S31508000DE843F480234362012030BD90F82030013B4C
S31508000DF8DBB2012B01D90020704703689B6803EA18
S31508000E088163B3EB816F01D00120704700207047DA
S31508000E1890F820C00CF1FF3C5FFA8CFCBCF1010F7E
S31508000E2800F2A58030B451B90468E46814F0030FD9
S31508000E3810D1436A43F40013436201207EE0046834
S31508000E48246914F0030F05D1436A43F40013436277
S31508000E58012073E0056801F11B0424012C5904F0EC
S31508000E6804049460002C6BD1056801F11B04240165
S31508000E782C59640D1460046801F11B0C4FEA0C1C0C
S31508000E8854F80C4004F00204D4600468A444DCF85E
S31508000E98045015F0080F5BD008241461046801F1A2
S31508000EA81B0C04EB0C146468C4F3072494610468E7
S31508000EB804EB0C146468240C5461026802EB0112F2
S31508000EC8D2F8B8211A70026802EB0112D2F8B821D2
S31508000ED8C2F307225A70026802EB0112D2F8B82147
S31508000EE8C2F307429A70026802EB0112D2F8B821D7
S31508000EF8120EDA70026802EB0112D2F8BC211A71D6
S31508000F08026802EB0112D2F8BC21C2F307225A7111
S31508000F18026802EB0112D2F8BC21C2F307429A71A1
S31508000F28026802EB0112D2F8BC21120EDA71C1B9B5
S31508000F380268D36843F02003D360002030BC7047AA
S31508000F48056801F11B0424012C59E408546092E74A
S31508000F5801F11B0504EB0514646804F00F04146119
S31508000F689CE70268136943F020031361E5E7436ABF
S31508000F7843F480234362012070470000014B186040
S31508000F88704700BF08000020B2F5004F06D001EBF5
S31508000F985301B1FBF3F189B2C16070475A0802EBF5
S31508000FA84102B2FBF3F34FF6F0721A40C3F3420359
S31508000FB81343C36070470000036813F0010F40D15C
S31508000FC830B585B004460D460368204A1A404B6872
S31508000FD8C9680B4329690B43A9690B431A4302607D
S31508000FE8AB68426822F44052134343606B698268CF
S31508000FF822F4407213438360154B984208D0154B68
S3150800100898420DD0144B98420FD0012005B030BD38
S315080010180020FFF741FAB0B12B685BB90120F5E764
S315080010286846FFF729FA0298F5E76846FFF724FAAB
S315080010380298F0E7AA6901462046FFF7A5FF0020AF
S31508001048E4E7012070470120E0E700BFF369FFEFF6
S31508001058003801400044004000480040054BD3F8DA
S31508001068882042F47002C3F888204FF000629A601C
S31508001078704700BF00ED00E0014B1880704700BFBD
S315080010885800002008B500F051FD0E4B1B68984221
S315080010980FD30D4B1B786BB90B4B01221A700B4BF0
S315080010A808229A6100F042FD094B1B880344054A49
S315080010B8136008BD044B00221A70044B08229A6272
S315080010C8F0E700BF54000020500000200004004844
S315080010D858000020014B08229A627047000400480D
S315080010E808B54FF090431B6913F4007F01D100201F
S315080010F808BDFFF7EFFF0120FAE708B56420FFF7F8
S31508001108BBFF08BD08B5FFF7BDFF08BD08B52A4AE5
S31508001118136823F0070343F002031360136803F008
S315080011280703022B42D1254A136843F001031360CB
S31508001138224B1B6813F0020FFAD0204B1A6822F0CC
S31508001148F80242F080021A605A6822F4741242F4CD
S3150800115860125A60DA6A22F00F02DA621A6842F0F6
S3150800116880721A60154B1B6813F0007FFAD0134B70
S315080011785A6822F0F0025A605A6822F4E06242F489
S3150800118880625A605A6822F460525A605A6822F095
S31508001198030242F002025A60084B5B6803F00C032C
S315080011A8082BF9D10648FFF7E9FE08BD6A21054864
S315080011B800F0ABF8B7E700BF002002400010024075
S315080011C80090D003A822000808B5FFF7CBF9FFF767
S315080011D89DFF08BD08B5FFF7F7FF00F0A2F800F075
S315080011E8AEF8FCE7F0B58DB0324B9A6942F00102C9
S315080011F89A619A6902F001020592059A5A6942F4B7
S3150800120800325A615A6902F400320492049A5A69F9
S3150800121842F480225A615A6902F480220392039A98
S31508001228DA6942F40032DA61DA6902F400320292C3
S31508001238029ADA6942F00072DA61DB6903F0007330
S315080012480193019B0827069701250795002408940A
S3150800125809940A94184E06A93046FFF7E3FAB762C6
S315080012684FF40073069307940A9506A94FF0904021
S31508001278FFF7D8FA48F204030693022707970326C6
S31508001288089609940A9507230B9306A94FF09040E8
S31508001298FFF7C8FA4FF4C0530693079708960994B8
S315080012A80A9409230B9306A94FF09040FFF7BAFA58
S315080012B80DB0F0BD001002400004004808B5FFF75D
S315080012C839F80F4808238362FFF74EFA4FF0904023
S315080012D8FFF74AFA0B4BDA6922F00072DA61DA6923
S315080012E822F40032DA615A6922F480225A615A696C
S315080012F822F400325A619A6922F001029A6108BDFD
S315080013080004004800100240704708B500F005F8C8
S31508001318FCE708B5FFF7F1FE08BD08B5FFF7F2FECA
S3150800132808BD08B500F02CFFFFF7F3FF00F078FBBF
S3150800133800F05AFF00F05CF800F03EF808BD08B562
S31508001348FFF7EBFF00F0CAFB00F0D0F800F002F850
S3150800135808BD000008B500F0A1F8012803D00B4B1A
S315080013681B78012B00D008BD00F0E0FB084B1B6872
S31508001378084A1268134403F5FA739842F3D3034BE1
S3150800138800221A7000F000FFEDE700BF6400002095
S315080013985C0000206000002008B5054B1B78012B6F
S315080013A800D008BD00F0C2FB024B1860F9E700BF81
S315080013B8640000206000002008B5044B01221A705A
S315080013C8FFF7EAFFFFF7C6FF08BD00BF6400002065
S315080013D808B500F0ABFB014B186008BDEC0000200F
S315080013E808B5024B1870FFF7F3FF08BDF000002098
S315080013F810B50020FFF7F4FF00F068FA00F094FC37
S31508001408034C0223237000F0C1FB0023237010BD90
S315080014180C00002008B50020FFF7E2FF08BD000011
S3150800142838B504460D460A4B1B78022B07D0084BDD
S315080014381B7843B100F064FAFFF7CAFF38BDC9B292
S3150800144800F0C8FCF3E7E9B2204600F0BDFBF1E777
S315080014580C000020074B1B78032B05D0042B05D05E
S31508001468022B05D1082070473F2070473F20704758
S31508001478812070470C000020074B1B78032B05D0EA
S31508001488042B05D0022B05D1082070473F2070474A
S315080014983F207047812070470C00002008B500F0EF
S315080014A827FA00B1012008BD10B5FFF7F7FF012894
S315080014B802D00024204610BD0A4B1C78012C01D006
S315080014C80024F7E700F032FB074B1B68C01A41F205
S315080014D88733984201D80024ECE70020FFF780FFFD
S315080014E8E8E700BFF0000020EC00002000B583B054
S315080014F80DF10701134800F093FC01280BD00DF1F4
S315080015080701104800F07CFB01280FD0FFF7CCFF35
S3150800151803B05DF804FB0C4B02221A70FFF760FF54
S315080015289DF80710074800F0F3F9E8E7064B00228C
S315080015381A70FFF755FF9DF80710024800F0E8F9FA
S31508001548E4E700BF680000200C000020024B0022D8
S3150800155883F88220704700BFF4000020034BFE2260
S315080015681A7059700222A3F886207047F4000020E2
S315080015780378427843EA0223827843EA0243C0782A
S3150800158843EA006070470870C0F307234B70C0F33E
S3150800159807438B70000EC8707047000010B5064CDC
S315080015A8002384F88130FFF7D1FFFF232370012336
S315080015B8A4F8863010BD00BFF4000020074BFF22B0
S315080015C81A7000225A7093F882109970DA701A7194
S315080015D85A710622A3F88620704700BFF400002037
S315080015E808B500210078FFF7B9FF08BD10B5094C02
S315080015F8FF232370084BC4F8883000236370A37050
S31508001608E370211D0720FFF7BEFF0823A4F88630DC
S3150800161810BD00BFF40000200023000810B5064CD2
S31508001628FF2323700430FFF7A3FFC4F888000123BB
S31508001638A4F8863010BD00BFF400002008B5312193
S315080016480078FFF78BFF08BD08B520210078FFF75B
S3150800165885FF08BD38B5084CFF232370002565703B
S31508001668A570FFF7F7FEE07025716571A571072368
S31508001678A4F8863038BD00BFF400002038B5FFF757
S3150800168865FF0F4C012584F88150FF23237000233A
S31508001698637010226270A370FFF7DCFEE070FFF734
S315080016A8EBFE2071FFF7E8FEC0F307206071A5710D
S315080016B8E5710823A4F8863000F096FD38BD00BF0A
S315080016C8F400002038B50446FFF7C4FE6278904255
S315080016D812D90C4DD5F88810681C00F075FDFF2343
S315080016E82B70D5F8883062781344C5F88830637843
S315080016F80133A5F8863038BD22212078FFF72EFF5A
S31508001708F9E700BFF400002038B50446FFF7A2FE43
S315080017186378984217D9201DFFF72AFF01460C4D12
S31508001728C5F888006278681C00F04EFDFF232B7008
S31508001738D5F8883062781344C5F888306378013359
S31508001748A5F8863038BD22212078FFF707FFF9E784
S31508001758F4000020F8B505461746002406E015F8F3
S31508001768013B1C44E4B2FFF7D8FD31464E1E00295A
S31508001778F5D13C600120F8BD30B583B00025019548
S315080017880B4CFF2323700430FFF7F2FE014601AA2B
S31508001798D4F88800FFF7DEFF6070211D0198FFF76F
S315080017A8F2FEA570E5700823A4F8863003B030BDAC
S315080017B8F400002038B504460F4BD3F88850FFF7D5
S315080017C849FE621C411E284600F012FD70B10A4CFB
S315080017D8FF232370FFF73EFED4F888300138034408
S315080017E8C4F888300123A4F8863038BD312120781A
S315080017F8FFF7B4FEF9E700BFF400002010B5044669
S31508001808FFF728FE01386378984216DD144BFF2245
S315080018181A700122A3F88620617899B1A21C104B88
S31508001828D3F8880000F0E4FCA8B10D4AD2F888304D
S3150800183861780B44C2F8883010BD22212078FFF75A
S315080018488DFEF9E700F0E4FC0028F5D1312120786F
S31508001858FFF784FEF0E731212078FFF77FFEEBE7F4
S31508001868F400002038B504460B4BD3F888500430EA
S31508001878FFF77EFE0146284600F0BEFC30B1064B4F
S31508001888FF221A700122A3F8862038BD3121207854
S31508001898FFF764FEF9E700BFF400002010B500F072
S315080018A873FC064C002384F88130FFF74FFEFF23AC
S315080018B823700123A4F8863010BD00BFF400002069
S315080018C808B589B2FFF7ACFD08BD0000074B002232
S315080018D883F88120C3F8882083F88420A3F8862013
S315080018E883F8832083F88220704700BFF40000201D
S315080018F8024B93F8810000B101207047F4000020DC
S31508001908024B002283F88420704700BFF4000020A9
S3150800191810B504460078FF2825D0404B93F8813047
S31508001928012B2DD1A0F1C903352B66D8DFE803F0C2
S315080019384965655D6565594D5551656565656565AD
S315080019486565656565656565656565656565656531
S3150800195865656565656565656165352D29316565FD
S315080019686539653D41452046FFF788FE2B4B93F8B8
S315080019788430012B45D0294BB3F98610002945DC5C
S3150800198810BD2046FFF79EFEF0E72046FFF7BCFE8F
S31508001998ECE72046FFF742FEE8E72046FFF7ECFEAD
S315080019A8E4E72046FFF722FEE0E72046FFF718FEA1
S315080019B8DCE72046FFF702FED8E72046FFF7EEFDEC
S315080019C8D4E72046FFF7F6FED0E72046FFF716FFCE
S315080019D8CCE72046FFF73EFEC8E72046FFF742FF5A
S315080019E8C4E72046FFF75AFFC0E72046FFF726FE5A
S315080019F8BCE72046FFF728FEB8E72021FFF7AEFD2B
S31508001A08B4E710212078FFF7A9FDB4E718460123A3
S31508001A1880F88430FFF754FFB2E700BFF4000020CF
S31508001A2882B01A4BDA6942F00102DA61DA6902F021
S31508001A3801020192019A164A12685968C1F30221ED
S31508001A481448415CCA405B6813F4E06F1CD1012353
S31508001A5802FB03F34FF08042012111604FF6FF7134
S31508001A68D1625B090C49A1FB0313DB09013B9362AD
S31508001A78536943F001035361084B00211960526A00
S31508001A88074B1A8002B070470223E1E700100240AC
S31508001A980800002090220008C55A7C0A8401002004
S31508001AA8800100200C4B1A6942F001021A611A6972
S31508001AB822F001021A61DA6922F00102DA614FF0AE
S31508001AC8E02300221A615A619A6103F550634FF0C0
S31508001AD800725A60704700BF001002404FF08043FA
S31508001AE85B6A9BB20E4A11885B1A9BB2632B15D99F
S31508001AF810B40C4AA2FB03235A090B4C206800EBC6
S31508001B085310206002EB820303EB83039A0092B218
S31508001B181144034B19805DF8044B7047704700BFA2
S31508001B28800100201F85EB518401002008B5FFF7C6
S31508001B38D5FF014B186808BD8401002008B5FFF7D2
S31508001B48F5FF08BD054BDB6913F0200F04D0034BDE
S31508001B589B8C0370012070470020704700440040A2
S31508001B6810B5094B1885FFF7E1FF00F10A04064B83
S31508001B78DB6913F0800F05D1FFF7CFFBFFF7D6FF18
S31508001B88A042F4D910BD00BF0044004010B588B083
S31508001B980C4C236823F0010323604FF46143019337
S31508001BA800230293039304930C2205920693079342
S31508001BB801A92046FFF700FA236843F001032360CA
S31508001BC808B010BD0044004070B506460D46812988
S31508001BD804D82846FFF7C4FF00240BE072210748FB
S31508001BE8FFF793FBF5E7FFF798FB305DFFF7B8FFBC
S31508001BF80134A4B2A542F6D870BD00BFB0220008C9
S31508001C0870B5254B1C78BCB92448FFF79BFF0128FB
S31508001C1801D0204670BD214B1B78013BDBB2802BD7
S31508001C28F7D8FFF783FF1E4B18601E4B00221A7061
S31508001C38194B01221A70ECE706460D46194B1B7814
S31508001C48013316481844FFF77DFF0446012815D1C5
S31508001C58144B1A780132D2B21A70104B1B789A4272
S31508001C6801D00024D5E71049304600F0ADFA0A4BF2
S31508001C7800221A700B4B1B782B70CAE7FFF756FF22
S31508001C88074B1B68C833984203D90024024B1C70BB
S31508001C98BFE70024BDE700BF14020020900100201A
S31508001CA88C01002088010020910100202DE9F041CF
S31508001CB884B004460D46174698466846FEF7DCFB88
S31508001CC80299174BA3FB01318909002301E0013367
S31508001CD8DBB2112B1FD8134A12F8130002EB430282
S31508001CE8527800EB020C0CFB044CB1FBFCFE0CFB17
S31508001CF81E16002EEBD11FFA8EFCA5F800C00CF1B3
S31508001D08FF3C1FFA8CFCBCF5806FE0D2387088F867
S31508001D180020012000E0002004B0BDE8F08100BFE3
S31508001D28D34D62100823000870B58CB00023ADF8AF
S31508001D382E308DF82D308DF82C300BAB0DF12D0289
S31508001D480DF12E014FF4FA70FFF7B0FF002835D0D1
S31508001D581D4C1E4B2360002525766576A57601263B
S31508001D68E67625776577A560E5609DF82D30013B11
S31508001D781B0423619DF82C30013B1B056361BDF8E4
S31508001D882E3063602046FEF764FE0695079508968A
S31508001D984CF6E043019302954FF6E0730393042348
S31508001DA80493059509960E230A9301A92046FEF77A
S31508001DB8F6FE2046FEF776FF0CB070BDAF21044844
S31508001DC8FFF7A3FAC4E700BF180200200064004022
S31508001DD8D822000810B588B0024640F2E17302938B
S31508001DE8002304930593069101AB02A90B48FEF755
S31508001DF887FF08B108B010BDFFF798FE00F1320456
S31508001E0801990648FEF7F1FF0028F3D0FFF785FA8F
S31508001E18FFF78CFEA042F3D9ECE700BF18020020B2
S31508001E2810B588B003460C4601AA00210848FEF7F3
S31508001E38EFFF50B9019A40F267639A4206D1039BAD
S31508001E4823B9059B2370012000E0002008B010BDC7
S31508001E581802002008B5C1F3080353B903688B4272
S31508001E6809D040F8041B4FF4007200F0ADF90120C0
S31508001E7808BD0020FCE70120FAE72DE9F0410746EE
S31508001E88FEF742FD00247F2C15D83E6806EB840829
S31508001E9807EB84035D68FFF740FA2A4600234146A4
S31508001EA80220FEF785FD804640B956F82430AB4235
S31508001EB806D10134E7E74FF0010801E04FF00008C2
S31508001EC8FEF73CFD4046BDE8F081000038B50D46F2
S31508001ED80C4B984211D004460B4B994207D1094C32
S31508001EE829462046FFF7B6FF48B1204638BDFFF712
S31508001EF8C4FF0028F4D10024F7E7044CF0E70024CF
S31508001F08F3E700BF40020020002800084404002028
S31508001F182DE9F04106460C4617461D4621F4FF787A
S31508001F2828F001080368B3F1FF3F07D03368434533
S31508001F380AD13368E41A3444043414E04146FFF7F6
S31508001F4889FF0028F2D120E041463046FFF7BEFF58
S31508001F5806460028EDD1002017E017F8013B04F8DB
S31508001F68013B013D10D0FFF7D8F9311D611AB1F5CB
S31508001F78007FF2D3316801F500713046FFF7A6FFF6
S31508001F88064620B1041DE8E70120BDE8F0810020D7
S31508001F98FBE700004FF0FF33024A1360024A13605A
S31508001FA8704700BF44040020400200200B4601F198
S31508001FB8FF3C1249091A8C4519D81149884218D381
S31508001FC810B5191801390D4CA14214D820F4FF741C
S31508001FD824F001040A498C4204D001460948FFF74F
S31508001FE897FF10BD01460848FFF792FFF9E700205A
S31508001FF87047002070470020F3E700BFFFFF00087E
S3150800200800280008440400204002002030B585B0A6
S31508002018002303934A1E1F4B1B1A9A4231D820F4F1
S31508002028FF6323F007031C4A93422ED30A18013A82
S31508002038184CA2422BD8C01A0844C0F3CF25C0F3BF
S315080020480A0008B10135ADB20024009401930123B2
S315080020580293FEF759FCA5420DD9FFF75EF903A9C5
S315080020686846FEF7B5FA50B9019B03F50063019374
S315080020780134A4B2EFE70124FEF760FC02E000246D
S31508002088FAE70024204605B030BD0024FAE7002404
S31508002098F8E700BFFFFF00080028000800B583B06E
S315080020A800230193134B1B68B3F1FF3F20D0114A55
S315080020B85368019391680B440193D1680B440193C3
S315080020C811690B44019351690B44019391690B44B7
S315080020D80193D26913440193DA4301925B4201934F
S315080020E801AA04210448FFF761FF03B05DF804FB61
S315080020F80120FAE740020020882900080E4BD3F889
S315080021080028D3F804181144D3F808281144D3F83A
S315080021180C281144D3F810281144D3F8142811446C
S31508002128D3F818280A44D3F88839D34201D00020AE
S3150800213870470120704700BF0020000808B50C4BFF
S315080021481B68B3F1FF3F06D10A4B1B68B3F1FF3F83
S3150800215807D1012008BD0648FFF78FFE0028F3D1EE
S31508002168F8E70448FFF789FE0028F3D00120F1E7CD
S315080021784002002044040020004870470028000850
S3150800218808B500F04DF808BD10B500F039F800B9E3
S3150800219810BDFEF7A5FF0028FAD0FFF73BF9FEF7B2
S315080021A8A9F9FFF77FFC00F02FF820F0604020F02F
S315080021B87F00044B986000F027F8446800F032F86E
S315080021C8A047E5E700ED00E070B50D46044606E0D1
S315080021D815F8013B04F8013BFFF79FF83246531EF2
S315080021E89EB2002AF4D170BD08B5FFF7D3FE08BD24
S315080021F808B5FFF7DBFE08BD08B5FFF707FF08BDFA
S3150800220808B5FFF77BFF08BD08B5FFF7B5FF08BD9A
S3150800221808B5FFF743FF00B908BDFFF78FFFFBE7CF
S3150800222872B6704762B6704770B50D4D0D4C641B93
S31508002238A4100026A64209D10B4D0C4C00F018F83C
S31508002248641BA4100026A64205D170BD55F8043BA8
S3150800225898470136EEE755F8043B98470136F2E702
S315080022682C2300082C2300082C23000830230008F8
S31508002278F8B500BFF8BC08BC9E467047F8B500BF5D
S30D08002288F8BC08BC9E4670472D
S315080022900000000001020304000000000000000026
S315080022A001020304060708096D61696E2E630000C2
S315080022B02E2E2F2E2E2F2E2E2F536F757263652FCF
S315080022C041524D434D345F53544D333246332F728A
S315080022D0733233322E6300002E2E2F2E2E2F2E2EE3
S315080022E02F536F757263652F41524D434D345F53BB
S315080022F0544D333246332F63616E2E63000000005F
S315080023004F70656E424C5400050206020603070329
S315080023100803090309040A040B040C040C050D053B
S311080023200E050F050F0610061007100822
S3090800232CF1010008A5
S30908002330C9010008C9
S31508002334010000001000000000127A0006000000E8
S70508000215DB
