S01700006F70656E626C745F786D63343730302E73726563A7
S3150C0000004088FE1F01020008A3020008A302000894
S3150C000010A3020008A3020008A302000800000000C7
S3150C000020000000000000000000000000A302000811
S3150C000030A302000800000000A3020008A3020008A7
S3150C000040A3020008A3020008A3020008A3020008EA
S3150C000050A3020008A3020008A3020008A3020008DA
S3150C000060A3020008000000000000000000000000D1
S3150C000070A302000800000000A3020008A302000867
S3150C000080A3020008A3020008A3020008A3020008AA
S3150C000090A3020008A3020008A3020008A30200089A
S3150C0000A0A3020008A3020008A3020008A30200088A
S3150C0000B0A3020008A3020008A3020008A30200087A
S3150C0000C0A3020008A3020008A3020008A30200086A
S3150C0000D0A3020008A3020008A3020008A30200085A
S3150C0000E0A3020008A3020008A3020008A30200084A
S3150C0000F0A3020008A3020008A3020008A30200083A
S3150C000100A3020008A3020008A3020008A302000829
S3150C000110A3020008A3020008A3020008A302000819
S3150C000120A3020008A3020008A3020008A302000809
S3150C000130A3020008A3020008A3020008A3020008F9
S3150C000140A3020008A3020008A3020008A3020008E9
S3150C000150A3020008A3020008A3020008A3020008D9
S3150C000160000000000000000000000000000000007D
S3150C000170A3020008A3020008A3020008A3020008B9
S3150C000180A3020008A3020008A3020008A3020008A9
S3150C000190A3020008A3020008A3020008A302000899
S3150C0001A0A3020008A3020008A3020008A302000889
S3150C0001B0A3020008A3020008A3020008A302000879
S3150C0001C0A3020008A3020008A3020008A302000869
S3150C0001D0A3020008A3020008A30200080000000006
S3150C0001E0A3020008A3020008110D0008A3020008D0
S3150C0001F0A302000800000000A30200080000000093
S3150C000200DFF878D01E4880471E4C1F4DAC4209DAE9
S3150C00021021686268A368043BA2BFC858D050FAE7AD
S3150C0002200C34F3E7194B1A4CA34208DA19685A68CE
S3150C0002300020043AA4BF8850FBE70833F4E71548BE
S3150C000240804715488047154880470000E0B0000CF1
S3150C0002504088FE1FF0000000E0B0000C4088FE1F36
S3150C000260000000003089FE1FD42200000000002090
S3150C0002700000000000000020A03000004088FE1F97
S3150C000280B50800084C020008640200086402000865
S3150C0002907C020008A10200088DA500084504000890
S3150C0002A07047FEE708B5044B586A10F4005002D0AC
S3150C0002B000F0C0F8012008BD008F0248642000F051
S3150C0002C08FB800F093B870477047704700B5C7B049
S3150C0002D04FF48C72002168460AF042F909486946C7
S3150C0002E007F08EFD0346009848B19DF8082002F0F1
S3150C0002F0100243EA0200C0B2B0FA80F0400947B0DF
S3150C0003005DF804FB5DA80008004870475DA800086E
S3150C00031073B507280DD8DFE800F0171E40203242CF
S3150C0003200E040B7A0093D1E900320020204903F029
S3150C00033079FB02B070BDD1E900321E49002002B033
S3150C000340BDE8704003F06EBB1B49002002B0BDE84F
S3150C000350704003F06FB91949F7E74E68184D194903
S3150C000360002420462C7003F065F936B11649324646
S3150C000370204603F057FB01232B701449E5E714497B
S3150C000380002003F057F90E4B1B78012BD1D11148E5
S3150C00039002B0BDE8704007F052BD0F49D5E70A78A8
S3150C0003A00E49002002B0BDE8704003F03BBB00BF15
S3150C0003B000A6000828A6000847A6000860A60008A4
S3150C0003C03089FE1F78A6000890A60008D5A600085E
S3150C0003D096A600085DA80008BAA60008D8A60008CC
S3150C0003E0014B1880704700BF3889FE1F10B50D4CA5
S3150C0003F004F04EFE236898420ED30B4B0B4A197829
S3150C00040059B9012119704FF40073536004F040FE82
S3150C000410074B1B880344236010BD002119704FF055
S3150C0004200073F2E73489FE1F3189FE1F00850248EE
S3150C0004303889FE1F024B4FF000725A60704700BF9E
S3150C0004400085024880B5454E0FCE92B00DAD0FC556
S3150C00045033682B6000240DA88DF80F4002F064FA67
S3150C000460204602F06DF8204602F050F8042002F007
S3150C000470AFF802F0DFF82021012002F0E5F8384D44
S3150C000480012002F0AFF800F001F93648802209216C
S3150C00049002F0F7FD22460D21284602F0F2FD2B6EE6
S3150C0004A0314823F400532B66012501F0FFFF02F0BF
S3150C0004B01BF92346224621460095204603F0C8F830
S3150C0004C000F088F803F00EFB0DF10F01204600F04A
S3150C0004D097F89DF80F30AB4201D103F007FC0226CA
S3150C0004E022488DF8104004AA0421902705958DF812
S3150C0004F0186001F079FF1D488DF81C7007AA0521BC
S3150C00050008958DF8246001F06FFF194A1748D369D6
S3150C00051023F0070343F00103D3610D210AAA8DF8DA
S3150C000520284001F061FF0DAA10488DF834700C219B
S3150C0005300E958DF83C6001F057FF0E4B1A6842F091
S3150C00054040021A60DA6822F007023243DA601A684F
S3150C00055022F040021A6003F0DCFAFCE774A80008EB
S3150C000560008F024800850248800000200081024866
S3150C00057000000340004301480B4A52F8033BD8B233
S3150C00058000EB1360C3F307210144C3F3074008448F
S3150C00059080B2002312F8011F01330844382B80B2B5
S3150C0005A0F8D1404280B270470080FE1F10B5074C50
S3150C0005B0074B22689A4206D1FFF7DEFFA38F1B1A60
S3150C0005C05842584110BD0020FCE700BF0080FE1FBA
S3150C0005D0A2E742CE10B5FFF7E9FF014650B9064C2B
S3150C0005E0064B2046382240F8043B09F0B9FFFFF7CA
S3150C0005F0C3FFA08710BD00BF0080FE1FA2E742CE3E
S3150C00060038B505460C46FFF7D1FF30B1372D05D866
S3150C00061034B1044B2B441B79237038BD0020FCE706
S3150C0006202046FAE70080FE1F704782B00023019334
S3150C000630019B834201D302B0704700BF019B01337B
S3150C000640F5E7000072B60C4B0C4A9A60BFF34F8F5D
S3150C00065062B6D3F8882042F47002C3F888205A692F
S3150C00066022F008025A61064A536923F00F0343F03D
S3150C00067004035361704700BF00ED00E00000000862
S3150C0006800020005800487047001BB7001B4BDB6866
S3150C000690D90310B530D51A4CE369DA0723D4FFF722
S3150C0006A0F1FF23695B0720D5A169A269A369C3F38E
S3150C0006B00643C1F30361013301FB0333B0FBF3F0D3
S3150C0006C0C2F3062303FB00000C4AD368DBB20133EA
S3150C0006D0B0FBF3F0136903F001030133B0FBF3F045
S3150C0006E0084B186010BD0848DBE7A36903F07F03CD
S3150C0006F00133B0FBF3F0E7E70348E5E700460050AB
S3150C00070000470050D0FF032000366E015B4B1A6881
S3150C000710D10710B506D45A6842F001025A601A681D
S3150C000720D207FCD5564B1A68940507D59A6842F43D
S3150C00073000729A6041F64C50FFF777FF514C636993
S3150C00074043F40023636140F6C410FFF76EFF636940
S3150C00075023F4803323F002036361636813F0300FD4
S3150C0007601BD0636823F4702323F030036360FFF718
S3150C00077089FF6368444AB0FBF2F0013843EA004350
S3150C00078063600023E361636923F4003363612369C7
S3150C00079003F46073B3F5607FF9D13A4B5A6942F0B2
S3150C0007A001025A611A69D007FCD55A6942F0100247
S3150C0007B05A61364A9A615A6942F040025A615A693C
S3150C0007C022F010025A615A6942F480225A612D4A6B
S3150C0007D013695907FCD5536923F001035361116959
S3150C0007E011F00101FBD12A4B4FF00110D860596171
S3150C0007F01961196259620321D96126499961264901
S3150C0008009962536923F040035361244B93611D4A4B
S3150C00081013699B06FCD54FF41660FFF706FF204BB9
S3150C000820936113699C06FCD54FF46160FFF7FDFEDE
S3150C0008301C4B9361134A13699806FCD54FF49650DA
S3150C000840FFF7F3FE184B936113699906FCD541F239
S3150C0008507070FFF7EAFE154B93610A4A13699B0603
S3150C000860FCD54FF4E150FFF7E0FE114B0522DA669A
S3150C0008700022C3F80425FFF709FF10BD0042005003
S3150C0008800044005000470050A0252600002F0B0105
S3150C000890004600500500010003002001002F050151
S3150C0008A0002F0301002F0201002F0101002F000170
S3150C0008B00041005038B5094A094D4FF00054234603
S3150C0008C003CBAB42106051601C4602F10802F6D114
S3150C0008D0FFF7B8FEFFF71AFF38BD00BFC0FF0320B5
S3150C0008E01000002010B50446054800F049F82CB954
S3150C0008F0034800F059F8034B185C10BD0320FCE7C5
S3150C0009004088FE1F88A8000808B528B9034800F0DF
S3150C0009106CF8034B185C08BD0320FCE74088FE1FEF
S3150C00092088A8000808B538B933B1DBB2034800F023
S3150C00093046F8034B185C08BD0420FCE74088FE1FF4
S3150C0009408CA8000808B538B933B1DBB2034800F0FF
S3150C00095041F8034B185C08BD0420FCE74088FE1FD9
S3150C0009608CA8000808B528B9034800F044F8034BD6
S3150C000970185C08BD0420FCE74088FE1F8CA8000804
S3150C00098038B5437B04466BB9436803B19847257B5E
S3150C00099035B9204601F02EFA10B16573012038BD29
S3150C0009A0012363730020FAE708B5037B2BB900F02B
S3150C0009B04BFF003818BF012008BD0020FCE710B41F
S3150C0009C0047B1CB95DF8044B01F02CBA00205DF8D1
S3150C0009D0044B704710B4047B1CB95DF8044B01F052
S3150C0009E08DBA00205DF8044B7047037B0BB900F001
S3150C0009F059BE002070472DE9F04105468AB00F46D6
S3150C000A0016460021222201A809F0AAFD2C7A14F020
S3150C000A10010440F00C812846FFF7E7FF020707D5D3
S3150C000A200E2F05D846F21103FB40DB0700F10181BE
S3150C000A30252F00F2FA80DFE817F0C2003C002600F2
S3150C000A404E004500F800F800F100F800F8005600DA
S3150C000A505E0066006E007600F800F800F800F800FC
S3150C000A60F800F800F800F800F800F800F800F800B4
S3150C000A70F800F800F800F8007E009400A100C6000B
S3150C000A80C800E500ED002B7B002B40F0988031462A
S3150C000A90284600F08DFE002800F091800F2800F00B
S3150C000AA0CA800A2800F0C180332800F0BE800124D9
S3150C000AB085E02B7B002B40F082803146284600F0E7
S3150C000AC02EFEE8E72B7B002B79D1D6E900122846BF
S3150C000AD001F0BEF8DFE72B7B002B70D131462846A0
S3150C000AE000F06BFED7E72B7B002B68D131462846EE
S3150C000AF000F0DCFDCFE72B7B002B60D1314628467E
S3150C000B0000F0FCFDC7E72B7B002B58D1314628465D
S3150C000B1000F0D0FDBFE72B7B002B50D13146284689
S3150C000B2000F0E7FDB7E72B7B002B48D13146284672
S3150C000B3000F05CFEAFE796F820200423102A8DF80F
S3150C000B40043072D88DF8052031460DF1060009F0F7
S3150C000B5041FD2B7B9BBB012201A9284600F046FDDB
S3150C000B6099E7002396F820208DF80430102A5CD8DB
S3150C000B708DF8052031460DF106001BE096F8207025
S3150C000B800123102F8DF804304FD896F82180B8F138
S3150C000B90100F4AD807EB08033A4631460DF106000A
S3150C000BA08DF8053009F016FDB81C01AB424606F16E
S3150C000BB01001184409F00EFD2A7B002ACCD02046E1
S3150C000BC00AB0BDE8F0810223CCE796F82070052325
S3150C000BD0102F8DF8043028D896F82180B8F1100F14
S3150C000BE023D807EB08033A4631460DF106008DF87B
S3150C000BF0053009F0EFFCB81C01AB424606F11001BA
S3150C000C001844A4E72B7B002BD9D13146284600F09B
S3150C000C10C9FC40E708238DF80430CDE72B7B002B6D
S3150C000C20CDD1284601F080F835E70424C7E7032424
S3150C000C30C5E70524C3E70224C1E7000070B52B4CB9
S3150C000C402B4DD4F89C302B4A2B4E43F00103C4F8A1
S3150C000C509C30D4F89C3023F0F00343F08003C4F8A6
S3150C000C609C302846052101F0BFFB284601220521B0
S3150C000C7002F019FA2846214A062101F0B5FB28464E
S3150C000C80012205F58075062102F00DFA1C4A002199
S3150C000C90284601F0A9FB01220021284602F003FA9E
S3150C000CA0184A0621304601F09FFB012206213046E8
S3150C000CB002F0F9F9144A0721304601F095FB01229E
S3150C000CC00721304602F0EFF9104A0121284601F0BF
S3150C000CD08BFB01221146284602F0E5F9D4F8B43014
S3150C000CE043F48813C4F8B43070BD00BF0040005004
S3150C000CF000830248A4A800080081024894A80008B2
S3150C000D00E4A80008D4A80008C4A80008B4A80008E1
S3150C000D100F4803681A68138E10B50E4C9BB22380CD
S3150C000D20538E0D4A9BB2138023881B0403D511885E
S3150C000D3089B200F0A8FB2388C3F30E0333B12188D4
S3150C000D400348BDE8104089B200F060BB10BD00BF7F
S3150C000D504088FE1F3C89FE1F3A89FE1F70B503684A
S3150C000D601A6892F82F300B43DBB282F82F30054607
S3150C000D700C4604F08DF900F2F51604F089F9B04230
S3150C000D8009D802F0C1FF2B681B6893F82F3013EAC1
S3150C000D900400F2D170BD2E20FCE710B504460068A5
S3150C000DA030220021203009F0DBFB236800220121D0
S3150C000DB040F20110627283F85020197718839976E5
S3150C000DC022721A68938D23F004031B041B0C938563
S3150C000DD010BD00000368404970B50446186802F05F
S3150C000DE093F923689A88110703D11B685B6ADA07A3
S3150C000DF061D502212046FFF7B1FF0546226893888C
S3150C000E0003F070031BB913685B6A9B0704D50421B6
S3150C000E102046FFF7A3FF054623683049186802F001
S3150C000E207EF9236893F85160012E2FD12C4918684E
S3150C000E30002202F087F9236883F8586004F028F939
S3150C000E4000F2E935FFF764FF04F022F985423FD33F
S3150C000E5002F05AFF23689A79012A2ED100252368BD
S3150C000E600022DA80002D35D11868438E9BB263B10F
S3150C000E70294602F054F923681849186802F04FF90C
S3150C000E8006212046FFF76AFF252523681A68538E2C
S3150C000E909BB23BB9536A03F47003B3F5700F0CBFE6
S3150C000EA02425252523680F49186802F01FF92368A5
S3150C000EB01D77284670BD2525A0E71868DB79012B20
S3150C000EC0CCD04FF4004102F02FF90028BAD1C5E777
S3150C000ED02E25C4E72E25D8E70000FF100080FF0062
S3150C000EE006A900080080FF102DE9F04105460C46C6
S3150C000EF017461E4604F0CCF800F2E938FFF708FF57
S3150C000F0004F0C6F840450CD92B680022DA711A7E1B
S3150C000F101E2A16D104EB8606B44209D10020BDE880
S3150C000F20F08102F0F1FE2B68DB79002BE6D0EBE7C3
S3150C000F301A68012F13BF2168126A226011620434E9
S3150C000F40EAE7012283F851202846BDE8F041FFF775
S3150C000F5041BF38B50368012283F85820044604F0D3
S3150C000F6097F800F2E935FFF7D3FE04F091F88542C5
S3150C000F700ED302F0C9FE23681B7A002BF3D0002097
S3150C000F80236800221A729A7E1F2A18BF187E38BD53
S3150C000F902E20F5E703685A0054BFD80F012013F032
S3150C000FA0005F18BF012013F0806F18BF012013F0EB
S3150C000FB0805F18BF012013F0006F18BF012013F4D7
S3150C000FC0004F18BF012013F4001F18BF012013F4A3
S3150C000FD0801F18BF012013F4002F18BF012013F037
S3150C000FE0807F18BF012013F4803F18BF012013F037
S3150C000FF0080F18BF012070472DE9F7431F460368F9
S3150C0010000A9D9046002283F8512040F201121A8361
S3150C00101004460E4604F03CF800F2E93904F038F8C0
S3150C001020814565D302F070FE23681B685A6A9207E5
S3150C001030F4D45B6ADB07F1D41A212368D3F800C019
S3150C001040DCF82430D8071ED4337813F0200108D1ED
S3150C001050727802F03F020D2A03D003F00302032A32
S3150C0010600CD1DCF82420920744D419B903F00303FD
S3150C001070032B03D1237A43F020032372237A43F004
S3150C001080100323720021C8B21A39012942D94246EB
S3150C0010903146604602F056F803F0FAFF00F2E938E2
S3150C0010A0FFF736FE03F0F4FF804525D22268507E0A
S3150C0010B000231C2893715DD10193737813F03F01C3
S3150C0010C04CD00F294AD0126811690091880103F09F
S3150C0010D03F02237A17D5032A15D043F00803013FA4
S3150C0010E02372052F3AD8DFE807F01118233B3D3B56
S3150C0010F02E21A2E71B21C6E702F006FE23689B7988
S3150C001100002BCDD0D2E703F0F703E8E72960684659
S3150C001110FFF740FF03B0BDE8F08329606846FFF790
S3150C00112039FFD8B1204603B0BDE8F043FFF711BF35
S3150C0011301A4B1A6912022A6019695A69120242EA92
S3150C00114011626A6059699A69120242EA1162AA60CE
S3150C0011509A69DB691B0243EA1263AB600020D9E78C
S3150C0011602960FBE78BB201A8090C0193FFF712FF6C
S3150C0011702960CFE7022804D1737803F03F03082BCC
S3150C001180C8D033789B0648BF0123204648BF82F857
S3150C001190513003B0BDE8F043FFF71CBE00C0014858
S3150C0011A07FB50023039303680D49B3F84C6003AD78
S3150C0011B036040095012332460446FFF71DFF60B93D
S3150C0011C0039B03F4E053B3F5006F06D00549009575
S3150C0011D0022332462046FFF70FFF04B070BD00BF56
S3150C0011E008A90008FEA800082DE9FF411F460023A8
S3150C0011F00393437A0546180758BF49020DF10C08AC
S3150C0012001646CDF8008058BF560201230A462846DA
S3150C0012101949FFF7F1FE044638BB1849CDF8008092
S3150C001220012332462846FFF7E7FE0446E8B90223B7
S3150C00123002461349CDF800802846FFF7DDFE04462A
S3150C00124003F026FF4FF47A7303FB0706013603F00F
S3150C0012501FFFB0420DD802F057FD2B681B685A6A67
S3150C0012609207F4D45B6ADB07F1D4204604B0BDE8E0
S3150C001270F0812E24F9E700BF1EA9000820A900085A
S3150C00128022A900082DE9F04387B01E4603930023DC
S3150C001290ADF814300368DDF838809DF83C900C46A8
S3150C0012A0054603A91868174601F051FF02AB0093D7
S3150C0012B0214601233A462846FFF79EFE044640BBCC
S3150C0012C0F31CC3F38D034A4641462846FFF70CFE32
S3150C0012D00446F0B903F0DCFE00F2E936FFF718FD20
S3150C0012E003F0D6FE864205D302F00EFD2B681B7A60
S3150C0012F0002BF3D02B6800221A729A7E1F2A08D074
S3150C0013000122284683F8512007B0BDE8F043FFF7C9
S3150C00131061BD204607B0BDE8F08300002DE9F0471B
S3150C001320164602689A46012386B09376437ADDF810
S3150C00133038809DF83C900D4619075EBF2B685B0202
S3150C0013402B604FF40073CDE903364FF491730446CA
S3150C001350ADF8143003AF1068394601F0F8FE236877
S3150C0013604FF08071186801F0C1FE02AB00932A6839
S3150C001370012351462046FFF73FFE054630BB08EBDE
S3150C0013804626464526D12046FFF7E3FD0546E8B935
S3150C0013902368DA7E092A19D11A680395928FD20727
S3150C0013A024D51B7F242B11D11749009701232A46DC
S3150C0013B02046FFF721FE48B1252807D004212046F8
S3150C0013C0FFF7CCFC10B923681B689B8F284606B028
S3150C0013D0BDE8F08780234A4641462046FFF784FD48
S3150C0013E005460028F2D108F50078CAE70221204606
S3150C0013F0FFF7B4FC0028E9D10349009701232A46DC
S3150C0014002046FFF7F9FDD7E706A9000838B50446CC
S3150C00141088060D4609D523681E221A7618682021DF
S3150C00142001F07DFE23680122DA71E90609D52368ED
S3150C0014301E221A761868102101F071FE236801220B
S3150C001440DA71AA070DD523681F229A76186802212D
S3150C00145001F065FE237A23F0200323722368012210
S3150C0014601A72EB070DD523681C225A7618680121CF
S3150C00147001F055FE237A23F0100323722368012210
S3150C0014809A71002038BD38B503680446C8070D4666
S3150C00149099800DD502225A76227A22F010022272F7
S3150C0014A018684FF4803101F03AFE236801229A71D4
S3150C0014B0A9070ED5226803235376237A23F010034B
S3150C0014C0237210684FF4003101F029FE23680122C3
S3150C0014D09A716A070ED5226804235376237A23F071
S3150C0014E01003237210684FF4802101F018FE236854
S3150C0014F001229A712B070ED5226805235376237A7F
S3150C00150023F01003237210684FF4002101F007FE3C
S3150C001510236801229A71E8060ED5226806231376F3
S3150C001520237A23F02003237210684FF4801101F004
S3150C001530F6FD23680122DA71A9060ED52268072367
S3150C0015401376237A23F02003237210684FF40011CC
S3150C00155001F0E5FD23680122DA716A060ED52268D0
S3150C00156008231376237A23F02003237210684FF492
S3150C001570800101F0D4FD23680122DA71EB050ED54A
S3150C00158022680923D376237A23F03003237210685A
S3150C0015904FF0807101F0C3FD236801229A7101207E
S3150C0015A038BD000030B585B0002303930368B3F84B
S3150C0015B04C2003AB0D4600930B4901231204044641
S3150C0015C0FFF71AFD68B9039B9B0145BF01232B70DE
S3150C0015D02870237A56BF237A43F0080323F00803B6
S3150C0015E0237205B030BD00BF08A900082DE9FF41E4
S3150C0015F0044688461646FFF7D3FD002843D12368D8
S3150C00160026491A68938923F010031B041B0C93813B
S3150C00161098F80170013727F00107023703AD0095E2
S3150C00162001233A462046FFF7E7FC60BB022302463D
S3150C001630CDE900831A493B462046FFF723FE236873
S3150C0016401A68536A9807FCD40123144900954FF481
S3150C00165000722046FFF7D0FC23681B685A6A910774
S3150C001660FCD45A6AD207F9D468B90DF10B0120469D
S3150C001670FFF798FF38B99DF80B30012B06D1701E79
S3150C00168018BF0120000104B0BDE8F08123B9003E6B
S3150C00169018BF01263001F6E71020F4E70CA9000864
S3150C0016A024A90008007A00F00F007047437A0B60FB
S3150C0016B0002070470268536AC3F30B0010B508800C
S3150C0016C0906A1B0C43EA00434B60030C0B72D36A03
S3150C0016D00B731C0E4C721C0C8C72000E1C0A48737D
S3150C0016E0CC72136B128E1B0C52BACA810B7400206F
S3150C0016F010BD03681B6A0B6000207047026801313D
S3150C00170002F13403403253F8040B41F8040B9342B4
S3150C001710F9D11A880A809B788B700020704730B5F7
S3150C0017200C46417A11F0040185B005464FF01002C3
S3150C00173015D00021684608F013FF69462846FFF7C6
S3150C001740DDFF50B99DF80820BDF8063002F03F02C7
S3150C00175043EA024301339B02236005B030BD684661
S3150C00176008F0FEFE69462846FFF7C8FF0028F4D1AC
S3150C001770BDF808209DF80730C2F309029B0943EA1D
S3150C0017808203019AC2F3C232013302329340E3E779
S3150C00179037B500230C4601A915460193FFF7BFFF89
S3150C0017A020B9019B2C449C4288BF332003B030BD2A
S3150C0017B04FF400730B800020704730B50D46417A0C
S3150C0017C085B011F0040118BF0021044610226846AA
S3150C0017D008F0C6FE69462046FFF790FFBDF80430B8
S3150C0017E0C3F3C61301332B6005B030BD30B585B0DD
S3150C0017F0002304460D460393FFF7D2FCE8B9236891
S3150C0018000F49B3F84C2003AB009312040123204676
S3150C001810FFF7F2FB88B923680A491A6893899BB2C9
S3150C00182023F0100343F0100393810123CDE90053F9
S3150C001830024640232046FFF725FD05B030BD00BF0C
S3150C00184026A900082CA900082DE9F04F97B00546EB
S3150C00185003F01EFC00F2E93403F01AFCA04200F27D
S3150C001860E18102F051FA29680B689A8D9607F3D537
S3150C0018709A8D92B242F004029A8593F8292042F08E
S3150C001880010283F8292091F85A90B9F1000F40F023
S3150C001890CB81554F4FF0020807F10C0A0023CDF807
S3150C0018A000901A4639462846FFF7A6FB044683469F
S3150C0018B0002840F08F8006AE0690009606234FF463
S3150C0018C0D57251462846FFF797FB0446002871D17E
S3150C0018D0069BDAB2AA2A74D103F47063B3F5807F3F
S3150C0018E06FD12B68012283F850202B683F49B3F83F
S3150C0018F04C700023049304AB00933A46012328460C
S3150C001900FFF77AFB2B6893F8502004460AB9122C81
S3150C00191001D0002C5ED120330093354904233A467E
S3150C0019202846FFF769FB1228044601D0002851D13E
S3150C001930002306932B68DFF8B49093F850302D4FA4
S3150C001940002B08BF4FF480174FF0330809F10C0A2F
S3150C00195000960123002249462846FFF74DFB044614
S3150C001960002837D12B68203300933A46042351467E
S3150C0019702846FFF741FB044608B112282AD103F08A
S3150C00198087FB00F1150403F083FB844228D8B8F1D9
S3150C0019900108296802D00B6A002BD9DA91F850207D
S3150C0019A06B7A4AB30A6A50004CBF43F00C0343F0FF
S3150C0019B0010323E02B685A7E022A03D183F850B028
S3150C0019C093E71924B8F1010F04D0192C4FF0010834
S3150C0019D03FF464AF2B2C34D0204617B0BDE8F08F03
S3150C0019E002F092F9CFE700BFF4A8000826A9000878
S3150C0019F032A900080000104043F0020324316B7238
S3150C001A0000220091032389492846FFF7F5FA04467C
S3150C001A100028DFD12B6886494C33009302460523F8
S3150C001A202846FFF7E9FA04460028D3D13146284662
S3150C001A30FFF7B8FD04460028CCD12B7A23F003031C
S3150C001A402B7204AE00230493039373602B682F7AD6
S3150C001A50B3F84C80774934334FEA08480093424632
S3150C001A6003232846FFF7C8FA07F0080747EA0001E0
S3150C001A7011F0FF0140F08D80402206A808F070FDA1
S3150C001A8006A92846FFF7B2FE04460028A4D1069AFA
S3150C001A90130A03F47F4353EA12631EBF2B7A43F0F7
S3150C001AA004032B726B7AD90630D42846FFF778FBE1
S3150C001AB00446002890D12B685F49B3F84C2003AB41
S3150C001AC0009348EA024201232846FFF795FA04469A
S3150C001AD0002881D12B6859491A6893899BB223F047
S3150C001AE0100343F0100393810123CDE900630246F2
S3150C001AF008232846FFF7C6FB2B68044696E8030026
S3150C001B00443383E80300002C7FF466AF4C490096FF
S3150C001B1001234FF400722846FFF76EFA044600289C
S3150C001B207FF45AAF87BB06902846FFF739FB06AE03
S3150C001B3000284FD12B684021186801F0E5FA2B6874
S3150C001B4093F84520520732D42B681B6893F828204B
S3150C001B5002F0DD0283F8282093F8282042F00202D6
S3150C001B6083F8282000214022304608F0F9FC2B6827
S3150C001B7093F844301B0739D12B681A6892F8283031
S3150C001B8003F0FB0382F828302B68012283F85A20D5
S3150C001B9022E72846FFF704FB2B681A6893899BB249
S3150C001BA023F0100343F0100304469381ABE7B3F81C
S3150C001BB04C2021490096012312042846FFF71CFAF3
S3150C001BC040B920490096012302222846FFF714FA51
S3150C001BD00028B9D02B681B6893F8282002F0DD0288
S3150C001BE083F8282093F82820D2B2B9E72846FFF7C5
S3150C001BF0D7FA0028C0D10123CDE90063124A134954
S3150C001C0040232846FFF73EFB0028B5D12B681A68FF
S3150C001C100A9B03F00F03012BAED192F8283043F048
S3150C001C200403AFE72E24D7E60124D5E6F6A8000870
S3150C001C30F8A8000802A9000826A9000836A9000879
S3150C001C400CA900082AA9000801000080FCA80008BD
S3150C001C502DE9F047DFF8CCC004460D461746BCE824
S3150C001C600F009AB06E460FC6BCE80F000FC69CE874
S3150C001C700300402286E8030000210AA808F070FC45
S3150C001C80236840F201121A8301229A76237A5807A6
S3150C001C9046D4BE18761B324629462046FFF778FDF9
S3150C001CA028BB0AA92046FFF7A1FD00BBDDE90C32D3
S3150C001CB0190E5FFA82F8C2F38529C2F3012248EAAB
S3150C001CC00128C3F30353B9FBF8F991441AAA02EBA2
S3150C001CD0830353F8683C03FB08F8464512D20020F0
S3150C001CE02EB14B463A4629462046FFF77DFA236825
S3150C001CF01B685A6A9107FCD45A6AD207F9D41AB0EF
S3150C001D00BDE8F08705EB080A4B46524629462046A5
S3150C001D10FFF76AFA0028E3D1A6EB08065546DCE77E
S3150C001D200F20E4E744A9000837B5037A13F0020341
S3150C001D30054612D102680A49B2F84C2000931204E7
S3150C001D40FFF75AF9044628B92846FFF726F82B68F8
S3150C001D5083F85A40204603B030BD0124FAE700BF91
S3150C001D600AA9000813B5037A5B0604463DD4012183
S3150C001D70FEF7F4FF002832D123681B689A8D22F0F7
S3150C001D8001021204120C9A859A8DD2B242F4807218
S3150C001D909A859A8D92B242F001029A85F3229A861E
S3150C001DA033214EF2FF02DA8619875A8793F82E20D2
S3150C001DB002F0F00242F00E0283F82E2093F829204E
S3150C001DC002F0F10242F00E0283F82920237A084A27
S3150C001DD0019043F043032372019B934201D902B055
S3150C001DE010BD019B01330193F6E72C20F7E700BFEA
S3150C001DF09F860100036810B50446186801F060F967
S3150C001E00022000F0EFFB237A5B0606D52046FEF790
S3150C001E10C4FF01212046FEF7A1FF2046BDE8104075
S3150C001E20FFF7A0BF2DE9F0431F46037A1546DA07E4
S3150C001E3085B004460E4656D41B0756D4D0F80090EF
S3150C001E40012F99F85A302BD1F3B13A462946FFF7B0
S3150C001E509FFCB8B9637AD9F80020264918079389EC
S3150C001E609BB223F0100343F01003938158BF6D020D
S3150C001E700123CDE900632A464FF400732046FFF791
S3150C001E8001FA10B1332832D0012023681B685A6A34
S3150C001E909107FCD45A6AD207F9D405B0BDE8F08391
S3150C001EA040F201124FF001080395A9F8182089F8A1
S3150C001EB01A80002BE8D03A462946FFF769FC002821
S3150C001EC0E0D1D9F80030988980B220F0100040F0AB
S3150C001ED0100098813A46CDE90068074B03A92046C5
S3150C001EE0FFF71CFACDE70320CFE70520CDE704204A
S3150C001EF0CBE700BF0EA9000810A900082DE9F04396
S3150C001F00047A1646E20785B005460F4698465DD418
S3150C001F1023075DD414F004045CD1D0F80090B8F11A
S3150C001F20010F99F85A3030D1002B55D04246314624
S3150C001F30FFF72EFCC0B96B7AD9F800202749180791
S3150C001F40938923F010034FEA03434FEA134393811B
S3150C001F5058BF76020223CDE9007332464FF4007364
S3150C001F602846FFF78FF920B11E2802D0332833D12B
S3150C001F7004242B681B685A6A9107FCD45A6AD20748
S3150C001F80F9D4204605B0BDE8F08340F20112A9F859
S3150C001F9018200122039689F81A20EBB142463146E5
S3150C001FA0FFF7F6FB0028DFD1D9F80030988920F02E
S3150C001FB010000004000C98810223CDE90073424600
S3150C001FC0074B03A92846FFF7A9F9CCE70324D0E76A
S3150C001FD00524CEE70224CCE70124CAE712A900089F
S3150C001FE014A90008004870474DAA0008004870471D
S3150C001FF02DAA0008004870470CAA00080B46012BB6
S3150C00200011460ED11378C3F34113022B0BD153781F
S3150C002010012B08D19388072B05D1044A9E2307F080
S3150C00202043BB012070470020704700BF6EA9000813
S3150C002030F8B5234A1378DBB9012111702149224ED8
S3150C0020400F4616F8015B05F00F022C099F2D8CBF6D
S3150C002050373430340133092A8CBF37323032102BE7
S3150C0020600C704A7001F10201EBD1002387F8203085
S3150C00207068B9164B1B681A88154B5A800123013315
S3150C002080DBB213485B0043F440730380F8BD0328AE
S3150C00209013D80E4B53F82040204608F0A9FAC3B2C9
S3150C0020A01F2B28BF1F230A4A2046E1188842E6D078
S3150C0020B010F8014B22F8024FF8E70020E6E700BFC4
S3150C0020C03E89FE1FBC88FE1FC0FF0320AC88FE1F86
S3150C0020D04089FE1F02F0DCBFF0B5304F304D85B0A5
S3150C0020E04FF48033002401AA3846092102938DF857
S3150C0020F0044000F079F901AA284604218DF8044021
S3150C00210000F072F901AA284602218DF8044000F06D
S3150C0021106BF901AA2846032188268DF8044000F0A5
S3150C00212063F901AA284605218DF80C408DF8046048
S3150C00213000F05AF901AA284608218DF80C408DF8B2
S3150C002140046000F051F901AA284609218DF80C40CB
S3150C0021508DF8046000F048F901AA384608218DF87C
S3150C002160044000F041F901AA284607218DF80C40DD
S3150C0021708DF8046000F038F901AA214628468DF83E
S3150C002180044000F031F901222146284600F08BFF6D
S3150C002190044A054B1A6405B0F0BD00BF008F024817
S3150C0021A000820248000A40040040005038B5224D17
S3150C0021B0284600F0B3FE2A68136823F480131360D4
S3150C0021C002F066FF00F59C5408340021284600F006
S3150C0021D04BFF18B902F05CFFA04229D3174A1648E8
S3150C0021E0002100F0F3FE2B681A6842F490421A6044
S3150C0021F003F58052916941F400519161196841F0DF
S3150C00220008011960916941F0020191611A6842F066
S3150C00221004021A600A4B08221A7000225A702722EE
S3150C0022209A706922DA705B221A7145225A7138BD8E
S3150C00223001F06AFDC9E700BFE088FE1F60AA00082E
S3150C002240DAA5FE1F0823037000234370272383702F
S3150C0022506923C3705B2303714523437170470000E8
S3150C00226010B5094800F0F6FD40F2F353421E9A42AF
S3150C002270044606D802460549034800F0C3FD20462D
S3150C00228010BD0024FBE700BFE088FE1F989FFE1FD1
S3150C00229022490B88013B9BB240F2F352934230B574
S3150C0022A010D81F4B93F826205869540100EB4212A4
S3150C0022B00059002807DA1B6803F5805302225A617D
S3150C0022C000225A6030BD1748946800220D8895424A
S3150C0022D01ED893F82620586900EB421154014D6024
S3150C0022E083F82820015941F000410151013293F83D
S3150C0022F025000021D2B2904208BF0A4683F8262058
S3150C00230019621B6803F5805302225A615960D9E79A
S3150C00231010F8015B15550132D8E700BF8C9FFE1FE4
S3150C002320E088FE1F989FFE1F10B5064A0649AA2391
S3150C0023305524C2F85435C1F8A84AA021C2F8541540
S3150C002340036010BD0050000C00A0000C30B5094B0A
S3150C002350094AAA2455218025C3F85445C2F8A81A5F
S3150C002360C3F85455C3F854453023C2F8A81A036071
S3150C00237030BD00BF0050000C00A0000C014B1869CA
S3150C002380704700BF002000580D4AF52370B5C2F8FF
S3150C00239054355023C2F854350E1D002351F82350E2
S3150C0023A056F82340C2F8F0550233402BC2F8F445D8
S3150C0023B0F4D1FFF7B9FF034A1369DB07FCD470BDF0
S3150C0023C00050000C0020005808B5054BF522C3F848
S3150C0023D05425FFF7BBFF034A1369DB07FCD408BD82
S3150C0023E00050000C0020005801F0FC030344F0B52B
S3150C0023F001F003051C69ED00F826AE4024EA06043C
S3150C0024001C61446F4F000326BE4024EA0604164E98
S3150C0024104467B042147803D006F58076B0420BD1EF
S3150C002420026E012606FA01F122EA010202661A6917
S3150C002430AC4014431C61F0BD2606F8D556688E4098
S3150C0024404660CE0800EB860001F00701066C890099
S3150C00245007278F4026EA07060664127A066C8A401E
S3150C00246032430264E3E700BF008E024810B504460F
S3150C002470FEF70CF9064B074A1B68B3FBF2F304FB99
S3150C00248003F00023834200D110BD00BF0133F9E7EE
S3150C002490D0FF032040420F0020F070420C23000FA7
S3150C0024A05843014BC25070471044005020F0704204
S3150C0024B00C23000F5843014BC25070471444005074
S3150C0024C0030F0C22534302F1A04202F588429B589B
S3150C0024D0034033F0704314BF012000207047000006
S3150C0024E0034B044A5B69106803F00103D84070473C
S3150C0024F000460050D0FF0320034AD36823F48033F0
S3150C0025000343D360704700BF00460050034A9369EB
S3150C00251023F4803303439361704700BF0046005099
S3150C002520064AD36928B923F4807323F00103D361D7
S3150C002530704743F4807343F00103F8E700470050FB
S3150C002540054AD2F8C4301B07FBD4044AD36823F0DF
S3150C00255040031843D06070470040005000430050C1
S3150C002560054AD2F8C4301B07FBD4044AD36823F0BF
S3150C00257080031843D0607047004000500043005061
S3150C002580034AD368013823F0FF030343D360704733
S3150C00259000460050034A136A013823F00103034333
S3150C0025A01362704700460050034A1369013823F042
S3150C0025B0010303431361704700460050034A5369F5
S3150C0025C0013823F001030343536170470046005062
S3150C0025D0034A9369013823F0070303439361704759
S3150C0025E000460050014B5860704700BF0046005033
S3150C0025F020F070420C23000F5843014BC250704719
S3150C0026004446005020F070420C23000F5843014BF7
S3150C002610C250704748460050030F0C225343044ADD
S3150C0026209B58034033F0704314BF012000207047C1
S3150C00263040460050034A536A23F4803323F00203C6
S3150C0026405362704700470050184B5A6A42F0010219
S3150C0026505A621A6AD207FCD55A6A01380139000641
S3150C00266042F0100240EA01205A6258625A6A42F05D
S3150C00267040025A625A6A22F010025A625A6A42F4AC
S3150C00268080225A62094B1A6A5107FCD55A6A22F003
S3150C00269001025A621A6AD207FCD45A6A22F0400224
S3150C0026A05A62034B0822DA66704700BF0047005097
S3150C0026B00041005010B50B4C6369012843F480139C
S3150C0026C063610AD1636923F4801363616420FFF7A5
S3150C0026D0CDFE636943F400236361BDE810406420BA
S3150C0026E0FFF7C4BE00470050024B4FF440325A600D
S3150C0026F0704700BF00420050094B1A68D20704D439
S3150C00270001225A601A68D007FCD5064B1A68910547
S3150C00271005D54FF400729A601A689205FCD470477E
S3150C0027200042005000440050034B186880F008002B
S3150C002730C0F3C000704700BF00430050114A4FF46D
S3150C0027400003C2F88030104BD96921F03001D961F1
S3150C002750916F0802FCD54FF40031C2F880100822A4
S3150C0027605A60084B9A6F9103FCD507494FF4002227
S3150C002770C3F88020CA6842F00802CA609A6F120336
S3150C002780FCD57047004000500043005038B50C4D46
S3150C0027906B6923F480336B616C68FDF773FF094B2F
S3150C0027A0B0FBF3F024F47023013823F0300343EA32
S3150C0027B000436B606B6923F400336B6138BD00BF5B
S3150C0027C000470050A0252600044B186900F46070E1
S3150C0027D0A0F5607358425841704700BF004700503F
S3150C0027E0034A536923F4803323F002035361704781
S3150C0027F000470050034A536943F4803343F0020305
S3150C0028005361704700470050064A9369013823F418
S3150C002810FE0343EA0043936113699B06FCD5322001
S3150C002820FFF724BE00470050F8B5069E15461F4616
S3150C002830FFF776FE01295CD1002857D1FDF722FF60
S3150C002840354CB0FBF4F4A40534497C431823B4FB93
S3150C002850F5F4B4FBF3F39A0D4B6943F001034B61AA
S3150C0028600B69DB07FCD54B6943F010034B61886998
S3150C0028706B1E2B4D054045EA0365013F531E45EA89
S3150C002880072545EA03458D614B6943F040034B61CF
S3150C0028904B6923F010034B614B6943F480234B6166
S3150C0028A01E4B1A695007FCD55A6922F001025A616F
S3150C0028B01A69D107FCD43C23B4FBF3F3B6EB935F54
S3150C0028C04FEA935001D2FFF79FFF5A23B4FBF3F460
S3150C0028D0B6EB945F4FEA945001D2FFF795FF304662
S3150C0028E0FFF792FF0F4B0522DA66F8BD4FF0C06476
S3150C0028F0AAE70A4B9A69013E22F07F0232439A619B
S3150C0029001A69D206FCD55A6942F001025A61034A89
S3150C0029101369DB07FCD5E5E740420F000047005082
S3150C002920FF8080F00041005013B504460020FFF7ED
S3150C002930E3FDFFF7E1FEE3792BB1FFF7FFFEFFF7AF
S3150C002940F3FE0028FBD0607AFFF70AFE1B4AD2F88A
S3150C002950C430002BFBD1207AFFF7ACFE207CFFF7AE
S3150C0029600FFE607CFFF720FEA07CFFF713FEE07CD9
S3150C002970FFF724FEA3792BB1FFF708FFFFF724FF1F
S3150C0029800028FBD0E17871B9A3790BB9FFF732FFB8
S3150C002990E068B0F5803F01D1FFF7AEFD02B0BDE8AF
S3150C0029A01040FDF773BEFFF71BFFA3780093237847
S3150C0029B06278A088FFF738FFEAE700BF00400050B6
S3150C0029C00B682DE9F04700220A264F6806FB03FC2C
S3150C0029D042F2107990460124BCFBF4F3B3FBF7FEEC
S3150C0029E0BEFBF6F506FB15EABAF1050F2BD9013538
S3150C0029F006FB05FEB3FBFEF39F4294BFDB1BFB1AE3
S3150C002A00142D07D84B4505D2B3F57A7F22D39946B8
S3150C002A102A46A0460134412CDED1444642F2107CB3
S3150C002A200F8901254026E64606FB0EE3B3FBF2F3BF
S3150C002A309F4211D8DB1B634501D29C463546013EAD
S3150C002A40022EF1D10CE0BEF1090FD1D8B3FBF6F38F
S3150C002A500125D1E72A46E1E7FF1A674538BF354617
S3150C002A60036843F0400303604B89013B9B01013C27
S3150C002A70691E023ADBB204F03F040902521B2343DF
S3150C002A8001F4706112030B4302F4E0421343036139
S3150C002A90036823F040030360BDE8F087D0F8C43127
S3150C002AA013F4407FFAD10131130443EA016343F076
S3150C002AB00203C0F8C431704710B5054C01230360FE
S3150C002AC02046FFF7E9FC2046BDE81040FFF790BD15
S3150C002AD01000001010B504460648FFF793FD054894
S3150C002AE0FFF7E4FC236823F00103236023689B07AC
S3150C002AF0FCD410BD10000010D0F8C83103F00F0341
S3150C002B00012B03D0022B03D000207047FFF7E8BC43
S3150C002B10FDF7B8BD70B5044615460E46FFF7DAFF4D
S3150C002B20D4F8C83123F00F033343C4F8C831204618
S3150C002B30FFF7E2FF40F2FF36B0FBF5F2C2F580621A
S3150C002B40B2424FEA951328BF324681099B02B3FB6A
S3150C002B50F1F3B34228BF33465943890AC2F580665E
S3150C002B60B0FBF6F0281AA5EB8115A84298BF1346C0
S3150C002B70E26822F4434222F0FF02E260E2688CBF74
S3150C002B8002210121134343EA8133E36070BD000047
S3150C002B90037E012B0FD103682022DA61017B1A68B0
S3150C002BA061F31B621A6002691A6142695A61034A2F
S3150C002BB0DA61002070470320704700BF40002800F0
S3150C002BC038B50468A26822F47F42A26004F1384347
S3150C002BD0A168A3F5A833DA009B0A02F4F85241EA7D
S3150C002BE043331343A360057E012D1CD82023C179E2
S3150C002BF0E361D0E9012389065FBF02F0604141EA37
S3150C002C008242A26182684EBFA26103F0604343EA2E
S3150C002C108243012DE36007D1FFF7BAFF4FF0006343
S3150C002C20E361044BE36138BD4FF40063E361024B8F
S3150C002C30F8E700BFC00020064006A0000368DA696A
S3150C002C40D869920606D510F4807005D14FF0E06273
S3150C002C50DA61704704207047022070470268034609
S3150C002C60D069D169000530B549D4490749D408243F
S3150C002C70D4619069D97910F000502CD160F34511CC
S3150C002C80D97191695868C1F38A4161F31C00586087
S3150C002C90D068D97A400F60F34511D972D06811F01B
S3150C002CA0200F996818BFC0F38A4060F31C01996025
S3150C002CB01168106918615069D5695861D0696D073A
S3150C002CC000F0080001D50028D2D1C1F30362002020
S3150C002CD01A73187630BD41F02001D9719069596884
S3150C002CE060F31C015960D068996860F31C01996007
S3150C002CF0D168D87A490F61F34510D872D8E703200A
S3150C002D00E8E70220E6E7F0B5016990F824500023C5
S3150C002D104FF0004644F2F45740F2F45C9D4207D85B
S3150C002D20036803F58053D960002380F82730F0BD83
S3150C002D305A0101EB43148E50826967600AB10CFB91
S3150C002D4003220133A2609D4214BF1A46002201EBF6
S3150C002D504212E260E2E70000F0B5416990F82550B6
S3150C002D600F4E002340F2F4579D4207D8036803F533
S3150C002D7080531961002380F82630F0BD5A0101EB0F
S3150C002D8043148E50C2690AB107FB03220133A260B9
S3150C002D909D4214BF1A46002201EB4212E260E3E7A1
S3150C002DA00000107070B5046804F580552B6843F06C
S3150C002DB001032B602E6816F00106FBD14FF48063DD
S3150C002DC023608023A3610D4BAB610D4B2B60FFF78A
S3150C002DD09AFFFFF7C1FF4FF0FF336B616FF07C4337
S3150C002DE0C4F81031C4F80C316FF0C023C4F80032AB
S3150C002DF04FF40273E363066270BD00BF0400200249
S3150C002E008020010238B504460846236994F8271039
S3150C002E1003EB41131546996807F0DCFB94F8273051
S3150C002E2021695A014FF000408850013394F8242050
S3150C002E30DBB29A4208BF002384F82730236803F5D7
S3150C002E40805328465A69120641BF80225A610022D5
S3150C002E509A6038BD90F8273002695B01D05800287B
S3150C002E6008DB00F40343B3F5407F05D1C0F30D40F6
S3150C002E7004387047002070474FF0FF307047000051
S3150C002E80164B174A1B69116803F001039940036836
S3150C002E901448B0EB510F4FEA510203D308221A61C2
S3150C002EA00020704710498A4201D80C22F7E70F49D7
S3150C002EB08A4201D80022F2E70D498A4201D804223F
S3150C002EC0EDE70C498A4201D81022E8E70A498A4202
S3150C002ED001D81422E3E70220704700BF00460050D9
S3150C002EE0D0FF0320C00E16020087930300E1F50500
S3150C002EF080D1F00800C2EB0B80B2E60E10B5064C82
S3150C002F000420FFF76FFB2046FFF77CFB2046BDE84D
S3150C002F101040FFF7CBBA00BF0400002038B50446BA
S3150C002F20FFF7ECFF2046FFF7ABFF05462046FFF701
S3150C002F3039FFD4E902212368284619645A6438BD3E
S3150C002F4010B50468206900F03C0040EA821040EAA3
S3150C002F50C12040F0010020614FF6FF72206910F08D
S3150C002F60010002D162691A8010BD013AF6D1022025
S3150C002F70FAE710B504686361236903F03C0343EA7E
S3150C002F80821343EAC12343F0030323614FF6FF7315
S3150C002F90206910F0010002D0013BF9D1022010BDCE
S3150C002FA037B54FF40043002204460D46FFF7E1FF08
S3150C002FB050B90DF10603002229462046FFF7C0FF43
S3150C002FC0BDF90630002BF4DB03B030BDF7B5044673
S3150C002FD00D4616464FF0FF3701AB02222946204616
S3150C002FE0FFF7AEFF18B10420013FF5D119E00DF142
S3150C002FF00603032229462046FFF7A2FF0028F2D13A
S3150C003000BDF80430222B0ED1BDF8063023F00F0389
S3150C0030109BB2B3F5AB5F06D129462046FFF7C0FF3E
S3150C00302018B103B0F0BD0320DEE77288F179A2F582
S3150C00303080435A425A41B388B3F5006FB379C1F154
S3150C0030400001C3F100034FEA423201F4804103F45C
S3150C003050805308BF42F480720B4313432946002267
S3150C0030602046FFF786FFDCE707B501220DF10603C4
S3150C003070FFF766FFBDF80600C0F3800003B05DF8ED
S3150C00308004FB01F0FC03184401F00301036910B5BD
S3150C003090C900F8248C4023EA0403036103698A40BF
S3150C0030A01A43026110BD436F10B5490003248C40CE
S3150C0030B023EA04034367436F8A401A43426710BDF1
S3150C0030C010B5044C2046FFF79DFA2046BDE810408B
S3150C0030D0FFF7ECB940000010838E0B439BB283863E
S3150C0030E0C38E9BB243EA1141C186704710B50C469C
S3150C0030F0FFF7F2FF038F23439BB20387438F9BB2E9
S3150C00310043EA1441418710BD038F9BB223EA0103A6
S3150C0031100387438F9BB223EA1141418770478BB2D9
S3150C003120090C038641867047B1F5803F06D2038EA3
S3150C0031309BB20B4214BF012000207047438E13EA4A
S3150C0031401143F7E70B888260C381002070470B8818
S3150C00315083808B88C38083890A7A9BB223F02003F1
S3150C003160134383812AB9838923F002031B041B0CA6
S3150C003170838183894A7A9BB223F00C0343EA820348
S3150C00318083817047F8B50E460546174600F050F990
S3150C003190347A002C08BF102437B1337931682246B3
S3150C0031A028461BB300F082F8F27963080133013A22
S3150C0031B01B0243EA420343F4403343F00103EB633F
S3150C0031C07379013B1A0642F481726A63B27982B151
S3150C0031D06B6B013A43EA02436B634FF4A063AB6338
S3150C0031E04FF0FF33EB6473892B64F8BD00F020F8C5
S3150C0031F0DAE76A6B42EA0343EEE7D0F8083113F0DC
S3150C003200E06F08D1836B1B06FCD44FF40053C364E8
S3150C003210C0F880107047C0F880117047D0F80C3198
S3150C00322013F0E06F0CBF406DD0F81C0180B27047F4
S3150C00323063292DE9F04105460C46164632D98AB368
S3150C003240FFF74EF96423B0FBF3F7B4FBF3F44FF43A
S3150C003250806374434FEA872C40F2FF3E01211846E7
S3150C003260BCFBF4F24FEA9228B8F5806F06D8C2F38D
S3150C003270090272453EBF9646414603460138ACEB01
S3150C003280070CEDD1013B43F400432B616A69064BF5
S3150C003290013E134043EA8623013943EA01436B613D
S3150C0032A0BDE8F0810120FBE7EF8000FCF8B50F4686
S3150C0032B016460546FFF714F906FB07F1884234DD7E
S3150C0032C090FBF1F34C00012240F2FE3C634527D8FB
S3150C0032D002FB06F403FB02F103FB0444B0FBF4F41B
S3150C0032E03C1B7143002CB0FBF1F0A7EB0007B8BFF9
S3150C0032F06442002FB8BF7F42BC42B8BF0133C3F54E
S3150C003300806343F480432B616969094B013E0B4092
S3150C00331043EA8623013A43EA02436B610020F8BD77
S3150C00332090FBF4F301320C44D0E70120F7E700BF21
S3150C003330EF8000FC10B5D0F8084124F0E064C0F82A
S3150C003340084141EA0261D0F8084141EA0321034BE6
S3150C00335023401943C0F8081110BD00BFC0C0FFF8C8
S3150C00336030B5D0F80C4124F0E064C0F80C41D0F82C
S3150C0033700C51064C2C400C4344EA026444EA0324E8
S3150C00338044F08054C0F80C4130BD00BFC0C0FFEF04
S3150C003390224B984210B514D14FF40060FFF732F966
S3150C0033A04FF40060FFF738F90028F9D14FF40060AC
S3150C0033B0FFF77CF84FF40060FFF782F80028F9D18C
S3150C0033C010BD174B984212D11648164CFFF71AF936
S3150C0033D02046FFF721F90028FAD11248114CFFF7C5
S3150C0033E065F82046FFF76CF80028FAD1E8E70E4B93
S3150C0033F09842E5D10D480D4CFFF704F92046FFF72E
S3150C0034000BF90028FAD10948084CFFF74FF820466B
S3150C003410FFF756F80028FAD1D2E700BF08000340A0
S3150C0034200800024880000010084002480001001005
S3150C003430134B984210B5044603D003F5007398421B
S3150C0034400CD11048FFF7A4FF0323E360E368DB0706
S3150C003450FCD5236C23F00F03236410BD0A4B984252
S3150C00346003D003F50073984201D10848EAE7084BEC
S3150C003470984203D003F500739842E5D10548E1E77D
S3150C0034800000034008000340000002480800024800
S3150C00349000400248084002480369C26893429CBF38
S3150C0034A081685B18013B981A70472DE9F041D0E909
S3150C0034B002840546A8EB04064068964220440F4653
S3150C0034C0144406D907F086F8BFF35F8FEC60BDE8AD
S3150C0034D0F0813246A4EB080407F07CF868682246B3
S3150C0034E0B919EFE72DE9F843C5680646894617462C
S3150C0034F04FF000083369B46870689D4228BF1B19E9
S3150C003500641BBC4203F1FF3328BF3C465B1B9C4249
S3150C00351028BF1C4649462246284407F05BF8B36888
S3150C0035202544A044A1443F1BAB4208BF0025BFF372
S3150C0035305F8FF560002FDDD14046BDE8F8830000B3
S3150C00354008B5144BA8220021184607F009F80322E7
S3150C003550026111494261114A8161C2614FF4806274
S3150C0035600262002282624262C26201660C494166B4
S3150C0035701021816603460267C2664267BFF35F8FFE
S3150C003580084911F8010D98540132102AF9D1BFF3EC
S3150C0035905F8F08BD908DFE1F1FA700089089FE1F28
S3150C0035A08089FE1F78AA0008F8B5144B182700FB73
S3150C0035B007751D4407FB00330E46DB6A012B1446C8
S3150C0035C00AD0022B14D023B92846FFF765FF844294
S3150C0035D008D900242046F8BD2846FFF75DFF844233
S3150C0035E028BF0446224631462846FFF75EFFF1E720
S3150C0035F02846BDE8F840FFF775BF00BF908DFE1F4B
S3150C003600F8B50B4B1B78532B04460D46164601D0CA
S3150C003610FFF796FFEFF311874FF0200181F3118826
S3150C003620324629462046FFF7BFFF87F31188F8BDBF
S3150C003630908DFE1F38B5054608460C4606F0D8FF99
S3150C003640214602462846BDE83840FFF7D9BF0000A0
S3150C0036502DE9F041164C1E462378532B0546884619
S3150C003660174601D0FFF76CFF022D1DD8EFF3118C16
S3150C0036704FF0200181F3118865B1182005FB00037A
S3150C003680E21844F80380576000FB054200231662DB
S3150C00369093625362182303FB0544069BE3628CF387
S3150C0036A011880020BDE8F0814FF0FF30FAE700BF2B
S3150C0036B0908DFE1F826810B504464068531C8342E9
S3150C0036C005D820688154A360E3680133E360D4E92C
S3150C0036D001329A420BD121682069FFF791FFA3684A
S3150C0036E0984215BF4FF0FF330023E360A36010BD73
S3150C0036F02DE9F84F9946DDE90A43164605468846F4
S3150C0037000A464FF0010AB24212D2CA4538BFCA461F
S3150C00371013F0010B01D184B90024EB68002B3DDBBF
S3150C0037200127B9F1010F1FD909F1FF397743F8E7E2
S3150C0037300AF1010AB2FBF6F2E5E79B0712D5B9F1DD
S3150C003740000F0CBF30272027A245E6D23946284663
S3150C003750FFF7B0FFEB68002B04F1FF34DDDB002C28
S3150C003760F2D1D9E72027EFE7B8FBF7F39E42DDD974
S3150C003770DFF84890B8FBF7F3284619F8031007FB57
S3150C0037801388FFF797FFEB68002B03DBB7FBF6F309
S3150C003790B74205D2BBF1000F00D064B9BDE8F88F73
S3150C0037A01F46E7E720212846FFF784FFEB68002B2E
S3150C0037B004F1FF34F2DB5445F4D8EFE779AA00089C
S3150C0037C02DE9F04F00238FB00E461021CDE90A13D8
S3150C0037D0CDE90C300DF1140A03901546CDF824A052
S3150C0037E016F8011B39B90C9D002D00F310810C98AD
S3150C0037F00FB0BDE8F08F252940F0BA804FF0000BD2
S3150C003800314611F8013B2D2B18D012D8232B1CD086
S3150C0038102B2B17D00024314611F8013BA3F13000B5
S3150C003820092815D80A2202FB0433A3F130040E46EC
S3150C003830F1E7302BEED14BF0020B01E04BF0010B14
S3150C0038400E46DDE74BF0040BFAE74BF0080BF7E7F7
S3150C0038502E2B11D10E464FF000090A27304610F8D0
S3150C003860011BA1F1300CBCF1090F07D807FB09119C
S3150C003870A1F130090646F1E74FF00009304610F881
S3150C003880011B01F0FB07682F0646F8D0782909D8EA
S3150C0038906F290BD8632967D020D8252968D05829D9
S3150C0038A000F095800C9B002B9ADA9CE7703908295E
S3150C0038B0F8D801A050F821F0FF390008A538000807
S3150C0038C0A5380008DF390008A5380008BD390008FE
S3150C0038D0A5380008A5380008CF3900086429E1D1BD
S3150C0038E029680F68081D87EAE7712860A1EBE77164
S3150C0038F04FF001080A2009293EDCC84538BFC846E6
S3150C0039002CB1002F02DB1BF0040F00D0013C1BF086
S3150C003910020F02D0B9F1000F04D01BF0010F01D138
S3150C0039207CBB00240C990029BCDB002F35DA7F42C6
S3150C0039302D2109A8FFF7BEFE0C990029B2DB0BF06E
S3150C0039400301022904D1B9F1000F01D154BB0024A3
S3150C0039500C990029A6DBCDE9004B4B460A223946C9
S3150C00396009A8FFF7C5FE9DE72B681A1D19782A6072
S3150C00397009A8FFF79FFE95E708F10108B1FBF0F1E6
S3150C003980B9E7A045CED2202109A8FFF793FE0C99E2
S3150C003990002904F1FF34C3DAC4E71BF0040FCED0C0
S3150C0039A02B21C6E7A045D3D2302109A8FFF782FE0A
S3150C0039B00C99002904F1FF34C8DAC9E72968081DF7
S3150C0039C02860CDE9004B4B460A220968C8E72968EE
S3150C0039D0081D2860CDE9004B4B461022F5E72B68F5
S3150C0039E01A1D2A601C6814F8011B00293FF45AAFF3
S3150C0039F009A8FFF75FFE0C9B002BF4DA52E7296847
S3150C003A000B1D2B6000220823CDE90032E5E70B9C49
S3150C003A1024B1039822465146FFF7F2FD2C440C9430
S3150C003A20E5E600BF0EB403B503AB01AA53F8041BBD
S3150C003A300193FFF7C5FE02B05DF804EB03B07047C7
S3150C003A4008B500F061F9FCE710B500F0D3F80128D1
S3150C003A501AD000F0FFF9B8B10C4C2378012B13D116
S3150C003A6001F016FB0A4B0B4A1B681268134403F54C
S3150C003A70FA73984208D30023237000F0F3F918B9AF
S3150C003A80BDE8104000F0C6BF10BD00BF408EFE1F43
S3150C003A90388EFE1F3C8EFE1F014B1860704700BF10
S3150C003AA0388EFE1F014B1868704700BF388EFE1FFC
S3150C003AB008B5044B1B78012B03D101F0E9FA024B34
S3150C003AC0186008BD408EFE1F3C8EFE1F08B5044BC9
S3150C003AD001221A70FFF7ECFFBDE80840FFF7B4BFF0
S3150C003AE0408EFE1F08B500F093FF00F00BF901F0B5
S3150C003AF08BFA00F00BF901F0ADF900F093F900F038
S3150C003B001DF80021084600F00FF9BDE80840FFF744
S3150C003B10DDBF08B500F0F8F801F09AFA00F0A2FA49
S3150C003B2000F070F8BDE80840FFF78EBF08B501F04D
S3150C003B30AFFA014B186008BDC48EFE1F38B50A4B90
S3150C003B400A4C00251D70FFF7F1FF00F0E7FC00F0B2
S3150C003B5087FE0223237001F0B1F9257001F0AFFA4C
S3150C003B600323237038BD00BFC88EFE1F1089FE1FAD
S3150C003B7008B5044B00221A70FFF7D8FFBDE80840C1
S3150C003B8001F0B4BAC88EFE1F70B5114E3378022BF5
S3150C003B9005460C4602D1C9B200F0F0FE33781BB9CB
S3150C003BA0E1B2284601F0B8F93378032B03D1E1B220
S3150C003BB0284601F09DFA3378052B03D1E1B228464D
S3150C003BC000F094FB00F0C4FCBDE87040FFF7AEBFFC
S3150C003BD01089FE1F054B1B78022B05D0033B012BCE
S3150C003BE08CBF81203F207047082070471089FE1F2C
S3150C003BF0FFF7F0BF08B500F0A1FC003818BF012094
S3150C003C0008BD000013B535480DF1070100F0DEFEC6
S3150C003C1001280BD1324B02221A70324B1870FFF767
S3150C003C2085FF9DF807102D4800F09AFC2B480DF1E6
S3150C003C30070101F08BF901280BD1294B00221A70D0
S3150C003C40284B1870FFF772FF9DF80710234800F0F9
S3150C003C5087FC22480DF1070101F076FA01280BD1F9
S3150C003C601F4B03221A701F4B1870FFF75FFF9DF84E
S3150C003C7007101A4800F074FC18480DF1070100F003
S3150C003C8055FB01280BD1164B05221A70154B1870D3
S3150C003C90FFF74CFF9DF80710104800F061FCFFF78A
S3150C003CA0A9FF012817D10F4C2378012B13D101F052
S3150C003CB0EFF90D4B1B68C01A41F2873398420AD9AB
S3150C003CC000232370FFF732FF022301A905208DF88C
S3150C003CD0043000F029F802B010BD00BF418EFE1F63
S3150C003CE01089FE1FC88EFE1FC48EFE1F08B500F07D
S3150C003CF0EFFA034B05221A70BDE80840FFF7D8BE51
S3150C003D001089FE1FFCF7DABAFCF7DBBA034A00236C
S3150C003D101360034A1360034A13707047D08EFE1F5C
S3150C003D20CC8EFE1FC98EFE1FC31E70B505460C46F3
S3150C003D30042B1DD8DFE803F02D354222030019B9F8
S3150C003D4020485821FFF77CFE1F4B20481B68016852
S3150C003D5053B18B4223BF5A08642606FB012200236B
S3150C003D6024BFB2FBF3F3DBB2237263680B4403602C
S3150C003D7021462846BDE87040FCF7CABA19B9114865
S3150C003D806721FFF75DFE104A636811680B441360E8
S3150C003D90EEE70D4A002313600C4A13600C4A1370AD
S3150C003DA0E6E70B4B1B78012B07D0084B064A1B6822
S3150C003DB01268934201D1002BDAD170BD044B01225B
S3150C003DC01A70D5E728A70008D08EFE1FCC8EFE1FD2
S3150C003DD0C98EFE1FF0B5124E0146441E0020254624
S3150C003DE014F8013FF25C02F00302022A08BF203BE2
S3150C003DF0DBB2A3F13002D2B2162A0ED8A3F13A07DF
S3150C003E00062F0AD9092A84BF373BDAB202EB001314
S3150C003E10A94203F0FF00E2D1F0BD0020FCE700BF91
S3150C003E20ADAF000808B5074B0749084800221A70C1
S3150C003E3003F030FD28B1BDE8084005486E21FFF7B8
S3150C003E40FFBD08BDBC94FE1F58A700086090FE1F5E
S3150C003E505BA70008024B1878B0FA80F0400970474F
S3150C003E60BC94FE1F10B5FFF7C5FE012801D100203A
S3150C003E7010BD054C2378002BF9D1FCF727FA012845
S3150C003E80F5D12070F4E700BFBC94FE1F03780E49F1
S3150C003E90CA5C02F00302022A08BF203B532B0CD14A
S3150C003EA04378CA5C520708D5312B08D0322B08D080
S3150C003EB0332B0CBF022003207047032070470020D1
S3150C003EC070470120704700BFADAF00082DE9F041E7
S3150C003ED005460230FFF77EFF0435074604460646C4
S3150C003EE0A8464046FFF776FF013EB6B22044012EA7
S3150C003EF0C4B208F10208F4D8BB1E9BB2012F03F121
S3150C003F0001034FEA430308BF0223E818FFF762FFD9
S3150C003F10E443E4B2231A58425841BDE8F08100004C
S3150C003F202DE9F041044616460F4601B120B94C481E
S3150C003F304FF42E71FFF784FD2046FFF7A7FF0328E9
S3150C003F40054600F08A802046FFF7C0FF002800F0E7
S3150C003F508180012D27D0022D4DD0002D7DD1A01CA6
S3150C003F60FFF738FF0546201DFFF734FF4FEA002800
S3150C003F70C7F80080A01DFFF72DFF033D40443860B5
S3150C003F802DB236B1771E0834C6F10106F3199D42DF
S3150C003F9002DC2846BDE8F0812046FFF71BFF023401
S3150C003FA007F8010FF2E7A01CFFF714FF8046201D4F
S3150C003FB0FFF710FF05043D60A01DFFF70BFF05EB97
S3150C003FC000253D6004F10800FFF704FF2844A8F122
S3150C003FD0040538602DB2002EDBD0771E0A34C6F1EC
S3150C003FE00106F3199D42D4DD2046FFF7F3FE023499
S3150C003FF007F8010FF5E7A01CFFF7ECFE8046201D25
S3150C004000FFF7E8FE05063D60A01DFFF7E3FE05EB96
S3150C00401000453D6004F10800FFF7DCFE05EB0025CA
S3150C0040203D6004F10A00FFF7D5FE2844A8F105050A
S3150C00403038602DB2002EACD0771E0C34C6F10106BA
S3150C004040F3199D42A5DD2046FFF7C4FE023407F89E
S3150C004050010FF5E74FF0FF359BE7002599E700BF09
S3150C0040605BA700082DE9FF416E4C2578022D29D05F
S3150C004070032D00F09080012D1BD1002600F0EAFEE6
S3150C0040808DF80460FCF740F901A902900320FFF7B4
S3150C0040904BFEFCF739F92A460146634803F022FC2D
S3150C0040A050B107236946052026708DF80030FFF7BE
S3150C0040B03BFE04B0BDE8F0815C4BC3E90000022373
S3150C0040C02370F6E75A4FDFF86C81574A4FF480712C
S3150C0040D0384603F002FF98F8452262B1002323709C
S3150C0040E00823694605208DF80030FFF71DFE4E4863
S3150C0040F003F0D9FDDDE7D8B107F5C0713846FFF7F7
S3150C0041000FFF421C064603D1002323700A23E8E75F
S3150C00411000280DDD454DD7F880116B6813B9296061
S3150C0041206E6005E02A689818884210D133446B609B
S3150C004130D8F84822D8F840329A42BAD13A480021E7
S3150C00414003F0BEFDA8B1002323700923C9E701A91A
S3150C0041500620CDE90123FFF7E7FDD5E9000100F0C4
S3150C0041607DFE10B900232370BBE7D7F880312B6096
S3150C004170D6E72E4D6B6863B12A6801A90620CDE9F6
S3150C0041800123FFF7D1FDD5E9000100F067FE0028F9
S3150C004190E8D0032394E7264D264F234A4FF480712B
S3150C0041A0284603F09AFE97F84582B8F1000F95D190
S3150C0041B008B305F5807205F5C0712846FFF7B0FE09
S3150C0041C0431C0646A0D0002815DDD5F880318DF8A5
S3150C0041D00C80CDE9013001A90720FFF7A5FDD5F824
S3150C0041E0800105F58072314600F036FE18B90023C1
S3150C0041F02370012375E7D7F84822D7F840329A4244
S3150C0042007FF457AF00F030FE0028F0D0064803F0DC
S3150C0042104AFD002104202170FFF786FD00F0FAFB11
S3150C00422047E700BFBC94FE1F9492FE1FD48EFE1F60
S3150C004230DC8EFE1F6090FE1F38B51D4B1C78002CC3
S3150C00424034D1FDF749FF00F023FF1A4B00F5FA7045
S3150C004250186000F01DFF42F21075174B28441860C9
S3150C00426001F05AF8154B1C805C80154B1C805C8049
S3150C004270144B4EF603001C805C8001F093F8FDF79E
S3150C00428095FF1148FDF7DEFF0F48062102F08EF868
S3150C00429002F0A4F8FFF706FC42F20F73984202D81C
S3150C0042A02846FFF7F9FB094B01221A7038BD00BFEF
S3150C0042B01189FE1FC894FE1FC494FE1FE8A5FE1F9D
S3150C0042C0E0A5FE1FE4A5FE1FBE94FE1FBD94FE1FB7
S3150C0042D0044B00221A70044B1B780BB9FFF7ACBFCA
S3150C0042E0704700BF1189FE1FBD94FE1F70B50D4BA4
S3150C0042F01B78012B10D10C4B1B68DA691A6203F17F
S3150C00430023044518A84208D10431A3F8A6100121AC
S3150C0043100A4483F8A810DA6170BD10F8016B04F832
S3150C004320016FEFE7BD94FE1F849FFE1FF8B5354B5A
S3150C0043301E78012E44D1FDF793FF334C00B3334D59
S3150C00434020804FF40060AF8901F088FD87420BD1C5
S3150C004350304601F037F8238893B101F0B1FEFDF732
S3150C00436097FF002323800BE040F60600AD8901F091
S3150C00437075FD854204D101F04FFE2388002BEED14A
S3150C00438000F086FE224A234D1368234E984219D21A
S3150C00439000F07EFE214A1368984205D303F51C53A0
S3150C0043A01033136001F00EFE03202E6001F00AF8A4
S3150C0043B023882BB101F084FEFDF76AFF00232380CE
S3150C0043C00020F8BD03F5FA73022013602E6000F08E
S3150C0043D0F9FF23882BB101F073FEFDF759FF00237B
S3150C0043E023800F4B0F4A1A60052000F0EBFF238841
S3150C0043F0002BCDD001F064FEFDF74AFF002323808D
S3150C004400C6E700BFBD94FE1F8C9FFE1F989FFE1F24
S3150C004410C894FE1F849FFE1FD89EFE1FC494FE1FC9
S3150C004420D09EFE1F909EFE1F38B5234B234D1C6855
S3150C0044302B7813F0400207D00123E3610023A4F884
S3150C004440A630A4F8A83038BDD80748BF84F8A920F0
S3150C004450590709D594F8A930012B05D1B4F8A61043
S3150C00446004F1200001F0FEFC2B781A070FD594F806
S3150C004470A830012B0BD1B4F8A610002284F8A82082
S3150C00448029B184F8A93004F1200001F0EBFC2B785B
S3150C0044909B07D8D50A4B19888529D4D894F8A93006
S3150C0044A0002BD0D1074B18680439BDE83840C9B287
S3150C0044B0043000F055B800BF849FFE1F889FFE1F76
S3150C0044C08C9FFE1F949FFE1F00687047F12813B542
S3150C0044D00C460AD1202919D10F4BFE221A70022242
S3150C0044E05C70A3F8862002B010BD31290ED1D128FC
S3150C0044F00ED0D0280ED0C9280CBF0123032301A946
S3150C00450005208DF80430FFF70FFCE5E70323F6E7EB
S3150C0045100023F4E70123F2E7CC94FE1F064B00229E
S3150C004520C3F88820A3F8862083F88120A3F882207C
S3150C00453083F88420704700BFCC94FE1F034B93F87E
S3150C0045408100003818BF0120704700BFCC94FE1FB5
S3150C004550024B002283F88420704700BFCC94FE1FC8
S3150C0045602DE9FF4105460078BA4CFF2838D1FFF7F4
S3150C00457071FC10B910212878D5E00122002384F8AB
S3150C004580812041F2FF0284F88230A3702280FFF76B
S3150C00459021FBE070FFF72CFB2071FFF729FB40F2A3
S3150C0045A00113000AE38008236071A4F8863000F03A
S3150C0045B051FC94F88430012B03D128781021FFF795
S3150C0045C085FFB4F98610002940F34081A1480123E8
S3150C0045D089B284F8843004B0BDE8F041FFF7D4BA50
S3150C0045E094F88130012B40F03181D2281ED8C8288E
S3150C0045F001D8202197E0A0F1C903092BF9D801A213
S3150C00460052F823F041470008F3450008F34500082B
S3150C00461041480008F3450008F345000831480008F6
S3150C0046208347000807480008E347000800F10F031A
S3150C004630DBB20D2BDDD8A0F1F1030D2BD9D801A2DD
S3150C00464052F823F047480008F3450008DB460008FB
S3150C004650AF4600087D460008C9460008F345000829
S3150C004660F3450008F345000813470008F345000816
S3150C004670234700082D47000835480008FFF7AAFA1B
S3150C0046806A78904201D8222175E7D4F888107248CE
S3150C00469000F0ECF9FF236A782370D4F888301344C1
S3150C0046A0C4F888306B780133A4F8863081E7FFF7BD
S3150C0046B091FA6B788342E6D2281DFFF705FFC4F802
S3150C0046C088006A780146E2E7FF23281D2370FFF76E
S3150C0046D0FBFEC4F888000123E6E7FF23281D2370A0
S3150C0046E0FFF7F2FED4F88870002600EB0708474562
S3150C0046F008D10023012226716371E3806270638006
S3150C0047000823D1E717F8013B1E44F6B2FFF7FCFA73
S3150C004710EDE7524BC4F88830FF220723C4E9002387
S3150C004720EEE70021FC20FFF7D1FE42E7FF232380B2
S3150C00473094F88230A3700023E370A3800623B3E7BA
S3150C004740D4F88870FFF746FA0023461E01A9072005
S3150C004750CDE901768DF80C30FFF7E6FA6A1C314686
S3150C004760384600F079FB08B9312104E7FF232370A2
S3150C004770FFF730FAD4F8883001380344C4F888308F
S3150C004780A9E7FFF727FA6B78013898427FF77BAFDA
S3150C004790FF2323700123A4F886306E7846B900F007
S3150C0047A063FB0028E0D031460420FFF7BDFA00E792
S3150C0047B0D4F88870002301A90720CDE901768DF87D
S3150C0047C00C30FFF7B1FAAA1C3146384600F044FB10
S3150C0047D00028C9D06A78D4F888301344C4F88830D5
S3150C0047E0E7E60026FF232380A670FFF7F3F90723DD
S3150C0047F0E070A680A671A4F886308DF80460029647
S3150C00480001A90320D1E7281DFFF75EFED4F88870B6
S3150C0048100646CDE9017001A90620FFF785FA314657
S3150C004820384600F01BFB00289ED0FF23237052E76E
S3150C00483000F0F0F8002384F8813084F88230F4E735
S3150C0048403121CC206FE72021F1206CE704B0BDE8C4
S3150C004850F08100BFCC94FE1FCD94FE1F89AA0008E0
S3150C0048602DE9FF413748384DFEF726F9FDF738FE9E
S3150C0048700446AC425ED3354DAC425FD82246314835
S3150C004880334E0121FEF746F90194324C324A334B32
S3150C00489001A92046CDE90223FEF792F82368304899
S3150C0048A043F040032360236843F0010323602D4B40
S3150C0048B0C0E90063836803F040422B4B13438360CB
S3150C0048C0F36843F00053F360002501274FF0080806
S3150C0048D0C0E9045580F80C800776FEF771F92A4674
S3150C0048E039461848FEF7DAF820482149214BC0E929
S3150C0048F00013836803F040421F4B13438360F36A33
S3150C00490043F00053F362C0E9045580F80C80057639
S3150C004910FEF756F90B483A463946FEF7BFF82368B8
S3150C00492023F040032360236823F00103236004B0C3
S3150C004930BDE8F0816400FFF7E7F99AE76408FFF732
S3150C004940E3F999E700400148001BB700000E270762
S3150C004950005001480043014820A10700401F0100F8
S3150C0049607895FE1FE1070080E10700205895FE1F91
S3150C00497020500148670600806706002038B5124CA7
S3150C004980217304F10F030144884217D10E48FEF738
S3150C004990FFF823680C480222DA61FEF74FF900F0A3
S3150C0049A077FB00F132052368DB699B0705D5FFF71A
S3150C0049B0ABF900F06DFBA842F5D938BD10F8012B08
S3150C0049C003F8012FE0E700BF7895FE1F70B50F4C7A
S3150C0049D023680546D86910F001000E460DD0204616
S3150C0049E0FEF73CF980B9237B33700246217BD3B2A8
S3150C0049F0994203D823680122DA6170BDE1180132AD
S3150C004A00097CE9540120F1E70020F3E75895FE1FD5
S3150C004A1000F0E8BB10B500F023FA38B9FFF766F9D9
S3150C004A20BDE8104000210220FFF77EB9FBF73AFCE7
S3150C004A300028F3D0FFF79CF800210120FFF774F94A
S3150C004A4000F0D6FA00F00EFA4FF0E02320F06040AA
S3150C004A5020F07F00C3F8080D00F004FA446800F05B
S3150C004A60C3FBA047BDE81040FFF740B9F8B50646B2
S3150C004A700F4615460024AC4200D1F8BD3B5D3355BC
S3150C004A80FFF742F90134F6E7F8B50C4C064600255B
S3150C004A902746FFF739F92368B34208D862681344EE
S3150C004AA0B34204D90C2303FB0577387AF8BD0135DC
S3150C004AB00D2D04F10C04ECD1FF20F7E794AA0008A5
S3150C004AC02DE9F84305460068FFF7DEFFFF2831D0D5
S3150C004AD0002405F10409FFF717F92E6800F0D8FA3F
S3150C004AE0264409EB040800F10D0741463046FDF754
S3150C004AF04BFCFDF743FCC30715D4FDF73FFC30F028
S3150C004B00100317D1F25C18F80310914212D101333D
S3150C004B10B3F5807FF6D104F58074B4F5806FDAD1E5
S3150C004B200120BDE8F88300F0B3FAB84202D8FFF7CB
S3150C004B30EBF8DEE70020F4E738B5104B9842044654
S3150C004B400D4608D00E4A914216D0FFF7B9FF18B998
S3150C004B500024204638BD0B4CC5F30903002BF7D1B6
S3150C004B6023689D42F5D020464FF4806240F8045BE2
S3150C004B702946FFF77BFFECE71C46EDE79895FE1FF1
S3150C004B8000C0000C9C99FE1F2DE9F0411F460368DE
S3150C004B9021F47F78013304460D46164628F00308A7
S3150C004BA006D140F8048B4FF480624146FFF75EFF56
S3150C004BB02368434505D020464146FFF7BDFF044612
S3150C004BC0E8B123680435ED1A25443744FFF79CF801
S3150C004BD0231DEB1AB3F5806F08D32168204601F527
S3150C004BE08061FFF7A9FF044648B1051D16F8013B85
S3150C004BF005F8013BBE42E9D10120BDE8F081002059
S3150C004C00FBE70000034A4FF0FF331360024A1360C0
S3150C004C10704700BF9C99FE1F9895FE1F030E082B2C
S3150C004C20144B2DE9F041044608BF00F180644F1E79
S3150C004C301B1B9F420D46164619D82046FFF724FF2C
S3150C004C40FF2814D03819FFF71FFFFF280FD00A4B87
S3150C004C5024F47F7222F003029A4221462B463246F6
S3150C004C600CBF06480648BDE8F041FFF78DBF002093
S3150C004C70BDE8F081FFFF1F0C00C0000C9895FE1FCD
S3150C004C809C99FE1F030E082B434B2DE9F74F054647
S3150C004C9008BF00F180654E1E5B1B9E4203D90020A7
S3150C004CA003B0BDE8F08F2846FFF7EEFE04467019F8
S3150C004CB0FFF7EAFEE31EDBB2FB2B0646EFD80F2806
S3150C004CC0EDD88442EBD80C2741F6C818DFF8D09003
S3150C004CD0FFF71AF8CB460025CA46FFF715F89BF8DE
S3150C004CE00830A34227D17D435AF80550691CD6D00B
S3150C004CF0002399F80820A24241D17B430AEB030218
S3150C004D005AF803A0D2F804B04AEA0B039A0704D067
S3150C004D10224840F24131FEF793FE4FEA9B0B4FF0CF
S3150C004D200009D9454FEA89030BD10134E4B2A642F6
S3150C004D30CCD20120B4E701350D2D0BF10C0BCCD1E7
S3150C004D40ADE75FFA89F21AB90193FEF7DDFF019B15
S3150C004D5053F80A3083B100F09BF900EB080928469A
S3150C004D60FDF732FBFDF70AFBC3070ED4FDF706FB76
S3150C004D7030F02003D9D092E709F10109D1E70133CC
S3150C004D800D2B09F10C09B4D1E5E700F081F9814549
S3150C004D9085D3FEF7B9FFE5E7FFFF1F0C89A70008CF
S3150C004DA094AA000807B50E4A1368013316D0D2E947
S3150C004DB001310B44D1680B480B4411690B44516902
S3150C004DC00B449169D2690B441344DB4301AA0421B9
S3150C004DD00193FFF723FF03B05DF804FB0120FAE70C
S3150C004DE09895FE1F00C2000C0A4AD2E900310B440A
S3150C004DF09168D2F800020B44D1680B4411690B443C
S3150C004E0051690B4491690B44DB431B1A58425841B8
S3150C004E10704700BF00C0000C0A4808B50368013390
S3150C004E2005D109480368013306D1012008BDFFF7F7
S3150C004E3047FE0028F5D1F9E7FFF742FE003818BF08
S3150C004E400120F3E79895FE1F9C99FE1F00487047BA
S3150C004E5000C0000CFFF7D6BEFFF7E0BEFFF712BF8F
S3150C004E60FFF7C2BFFFF7F2BF08B5FFF79BFF18B1FC
S3150C004E70BDE80840FFF7D0BF08BD000038B50E4CA2
S3150C004E80D4F81431DA04014614D42046FEF7B5F9E9
S3150C004E9000F0FEF800F10A05D4F81431DB0505D450
S3150C004EA0FEF732FF00F0F4F88542F5D24FF480732A
S3150C004EB0C4F8183138BD00BF000003407FB5154C4F
S3150C004EC04FF46143019308238DF8093010264FF4F3
S3150C004ED08473002501A920460122ADF80A308DF80D
S3150C004EE00C60ADF80E50FEF74DF931462046012305
S3150C004EF00422FEF71FFA0123042229462046FEF758
S3150C004F002FFA236C23F00F0343F00203236404B03F
S3150C004F1070BD00BF00000340812938B504460D461C
S3150C004F2003D909487C21FEF78BFD2846FFF7A6FF1F
S3150C004F302544AC4200D138BDFEF7E6FE14F8010B51
S3150C004F40FFF79CFFF5E700BFC4A700082DE9F8435F
S3150C004F50224C237880460F462148C3B9D0F8145109
S3150C004F6015F0080510D1FEF759F91E4BC0B2187092
S3150C004F700138C0B2802807D800F08AF81A4B18609E
S3150C004F801A4B1D70012323700020BDE8F883D0F85E
S3150C004F901461164D16F0080695F8009015D1FEF71B
S3150C004FA03DF910492B780A780133DBB289449A42D1
S3150C004FB089F801002B70E7D140460131FFF756FD09
S3150C004FC02B7826703B700120DFE700F061F8064B6A
S3150C004FD01B68C8339842D7D90023D4E72C9EFE1FF2
S3150C004FE000000340A89DFE1FA49DFE1FA09DFE1F52
S3150C004FF04FF0E02300221A615A619A614FF0007259
S3150C005000C3F8042D7047000008B5FFF7F1FF4FF009
S3150C005010E0236FF07F425A610021052299611A61E3
S3150C005020074A9B6912684FF47A70B2FBF0F2054896
S3150C0050300260054A1160054A23F07F43136008BDE0
S3150C005040D0FF0320309EFE1F389EFE1F349EFE1F8F
S3150C00505030B54FF0E0230B4C9B6922680A49D31AF2
S3150C005060096823F07F4399420AD8B3FBF1F3074D45
S3150C005070286803FB1122184422F07F422860226024
S3150C00508030BD00BF349EFE1F309EFE1F389EFE1F95
S3150C00509008B5FFF7DDFF014B186808BD389EFE1FEB
S3150C0050A010B50446002003F07BF938B101222146E5
S3150C0050B0002003F07FF9431E5842584110BD07B536
S3150C0050C0012301A90020ADF8043003F047FDFEF7DB
S3150C0050D0E9FCB0F5FA6F06D24FF4FA6003B05DF84E
S3150C0050E004EBFEF7D9BC03B05DF804FB03F02CBD52
S3150C0050F013B53F2904468DF8071003D911487521BD
S3150C005100FEF79EFC01220DF10701002003F05CF96D
S3150C005110012803D00B487921FEF792FC9DF8072055
S3150C0051202146002003F050F99DF80730834203D046
S3150C00513004487C21FEF784FC002003F04FF902B0F2
S3150C00514010BD00BFFFA700082DE9F8431D4F1E4DEB
S3150C005150804600200E4605F017F800214FF0FF3070
S3150C00516003F05AFF3C787CB92846FFF799FF0128D3
S3150C00517006D12B78013B3E2B9EBF144B38701C700E
S3150C00518000242046BDE8F883DFF8409099F800002B
S3150C00519001302844FFF784FF01280446F0D199F822
S3150C0051A000302A780133DBB29A4289F80030E7D115
S3150C0051B0691C4046FFF75AFC00233B7099F80030F7
S3150C0051C03370DEE77D9EFE1F3D9EFE1F3C9EFE1F3E
S3150C0051D00120FBF778B80020FBF775B8FBF774B81D
S3150C0051E0FBF773B872B6704762B67047013A70B582
S3150C0051F00B468C18A34215D3C1F10103234423F0AB
S3150C00520001034D1EA54288BF00230B44A34208D1BF
S3150C0052108B5C00EB032080B2B0EB032F3CBF01305C
S3150C00522080B270BD1D886DBA10FA85F080B2AEB230
S3150C005230864284BF013080B20233DBE770B5C57895
S3150C005240124A0D44EDB2D570837803EB1123DBB211
S3150C00525093704478547006781670B3EB112F05D200
S3150C005260601CC0B2507008B901361670C9B28D42B6
S3150C0052700BDA0133DBB293703BB953780133DBB2F3
S3150C005280537013B913780133137070BD819EFE1FD2
S3150C00529010B5084C014620680830FFF7CFFF064AC8
S3150C0052A0236811781972517859729178D27899725B
S3150C0052B0DA7210BD849FFE1F819EFE1F08B506493B
S3150C0052C014220020FFF792FF10B140BA80B208BD3D
S3150C0052D04FF6FF70FBE700BFA69FFE1F38B50D4DBE
S3150C0052E02C8A64BAA4B2A4F10E00082205F11A01A4
S3150C0052F080B2FFF77BFFA4F1140292B205F12201F2
S3150C005300FFF774FF10B140BA80B238BD4FF6FF708C
S3150C005310FBE700BF989FFE1F074A00231380074A2E
S3150C0053205376074A4FF480611180064A01211170A9
S3150C005330054A9380704700BFD49EFE1FD89EFE1F61
S3150C005340869EFE1F809EFE1F909EFE1FF0B5124A83
S3150C005350124C9688238801339BB2B3F5FA4F28BFBB
S3150C0053604FF480535DBAAFB2BE42F4D023800C4CDE
S3150C005370002323703EB99580D18040B9106040233C
S3150C0053800548137202E0012222701846F0BD03880C
S3150C005390138043885380F2E7909EFE1F869EFE1F65
S3150C0053A0809EFE1F054B00221A70054A118809B90A
S3150C0053B01080704701221A70704700BF809EFE1F36
S3150C0053C0D49EFE1F2DE9F74FDFF84492854ED9F88F
S3150C0053D00040042800F0C480DFF82C82824A834BFC
S3150C0053E0C8F800300328136017D1637E03F00F034F
S3150C0053F0032B38D1238A002B35D17D4B08221A700A
S3150C005400FFF712F87A4B1A787A4B12F0200100F05B
S3150C0054109C8400221A80627641E0022840F0898042
S3150C005420754AD3780133DBB2D37063B99378013301
S3150C005430DBB293703BB953780133DBB2537013B9BB
S3150C0054401378013313706B4B00221A80637E328003
S3150C00545003F0FD01052909D1A37E0133DBB2782BBC
S3150C005460A37600D162760023338025E2002BFAD096
S3150C005470228A5F48002A55D0A17E4A1EA2760029B0
S3150C005480F1D1E27E082A04D05D1E012D0ED8052A24
S3150C0054900CD10023637680230370FEF7C5FF14231B
S3150C0054A0564A82F82F302823338039E01746042ACF
S3150C0054B002F1010228BF04270325E27603F00F024E
S3150C0054C0BD40013AA576072ACDD801A353F822F0A0
S3150C0054D07557000877570008F1540008E95C000876
S3150C0054E067540008E95C000867540008E95C00088A
S3150C0054F004230370FEF798FF3B4B1B68C8F800307B
