S31508000000580C002061010008690100086B0100080E
S3150800001000000000000000000000000000000000D2
S315080000200000000000000000000000006D0100084C
S3150800003000000000000000006F0100087D1600089F
S3150800004073010008730100087301000873010008B2
S3150800005073010008730100087301000873010008A2
S315080000607301000873010008730100087301000892
S315080000707301000873010008730100087301000882
S315080000807301000873010008730100087301000872
S315080000907301000873010008730100087301000862
S315080000A07301000873010008730100087301000852
S315080000B073010008730100087301000800F002F8D4
S315080000C000F03EF80CA030C8083824182D18671E12
S315080000D0A246AB4654465D46AC4201D100F030F824
S315080000E07E460F3EB6460FCC0126334200D0FB1A99
S315080000F03343A246AB461847841E0000A41E0000E0
S31508000100103A02D378C878C1FAD8520701D330C852
S3150800011030C101D504680C60704700000023002434
S3150800012000250026103A01D378C1FBD8520700D320
S3150800013030C100D50B6070471FB51FBD10B510BD87
S3150800014000F02DF81146FFF7F7FF01F077FD00F0F4
S3150800015045F803B4FFF7F2FF03BC00F04BF80000C4
S315080001600748804707480047FEE7FEE7FEE7FEE741
S31508000170FEE7FEE704480549054A064B70470000B6
S31508000180E5160008BD00000858060020580C002097
S315080001905808002058080020704770477047754671
S315080001A000F024F8AE46050069465346C008C0006C
S315080001B0854618B020B5FFF7DDFF60BCB6460026B9
S315080001C00027C0C5C0C5C0C5C0C5C0C5C0C5C0C557
S315080001D0C0C5403D490849008D46704710B50446DC
S315080001E0C046C0462046FFF7B4FF10BD004870471A
S315080001F01000002001491820ABBEFEE726000200C9
S31508000200704700F0C4F8FCE710B500F05FF8012865
S3150800021013D0154C207801280FD101F065FA13493F
S315080002200968064A126851187D2292008918884280
S3150800023003D30020207000F0CBF810BD8401002005
S3150800024080B509480121017000F004F8FFF7DCFFCA
S3150800025080BDC04680B504480078012803D101F066
S3150800026043FA0249086080BD880100208C010020FD
S3150800027080B500F094F800F081F801F03BFA01F03F
S31508000280BFF800F017F8FFF7DBFF80BD80B500F078
S315080002907EF801F081FA00F01FF8FFF7B5FF80BD80
S315080002A080B5002000F04AF880BD81207047812083
S315080002B07047000080B5002000F040F801F0F4FB1C
S315080002C001F004F92C480121017080BD80B501F0C8
S315080002D0F9FB411E884180BD80B582B0094801A955
S315080002E001F024F9012809D123490120087000F0FA
S315080002F025F801A80178034801F0ECFB00F004F8A2
S3150800030002B080BD7000002010B5FFF7DFFF0024A3
S3150800031001280FD10C48007801280BD101F0E4F927
S315080003200D490968401A0449884203D3002000F0A1
S3150800033005F80124204610BD8813000080B502493F
S31508000340087000F003F880BDA005002080B501F014
S31508000350CBF90149086080BD9C05002080B5064A96
S315080003601278012A02D1C9B201F046F901F024FC3B
S31508000370FFF7ECFF80BDC0469805002080B500F069
S3150800038001F880BD80B5642001F002F880BD80B513
S3150800039000F001F880BD80B500F0FEFF80BD80B595
S315080003A000F001F880BD72B6704762B6704770B546
S315080003B0002A0BD014460D46064628783070761C5F
S315080003C06D1C641EFFF7E3FF2004F6D170BD000024
S315080003D010B501F019F8002815D000F019F8002812
S315080003E011D0FFF75DFF00F023FB01F0BFF901F024
S315080003F003F8054901400548016000F0FDFF44681F
S31508000400FFF7D3FFA04710BD80FFFF1F08ED00E0F0
S3150800041080B500F027FD002803D000F0B5FF0120C5
S3150800042080BD002080BD00001D490A6802430120E6
S31508000430000410430860704719480268034B1340CC
S31508000440C9001943024A0A430260704705E0FEFFE5
S3150800045002000100B0B512490C68012525430D605C
S315080004600260BFF36F8F4360B0BDC046B0B50122CE
S3150800047093040B4A14681C431460EFF31083EFF3DC
S31508000480108472B6002420C920C0651C3F2C2C4657
S31508000490F9D3101F0068C003FBD483F31088B0BDDE
S315080004A014200240F0B581B005460120009000F006
S315080004B071FB06461A4F3868C0030AD438681949CA
S315080004C04A1C3A60084012D017494860009801B0A3
S315080004D0F0BD0098040402E038682042EED0681C9B
S315080004E0FAD000F057FB801BA842F5D311E0396813
S315080004F00020490311D500900120840402E03868E1
S31508000500204209D0681CFAD000F044FB801BA842A0
S31508000510F5D3032001B0F0BD009801B0F0BDC04688
S3150800052010200240FAC30000AC050020F0B583B0E5
S315080005301C4615460B4602462D4E0E400068401CCA
S3150800054001210028084605D0002811D1002824D109
S3150800055003B0F0BD10463146029414461F4600F01B
S315080005607DF93B462246029C411E88410028EDD073
S3150800057007461068B04203D138460028E8D00CE098
S3150800058002931046314600F07BF9024600283846A9
S3150800059000D11046029B0028DAD000901068181A7D
S315080005A01018061DB54F09E02246029C019D2878C1
S315080005B03070641E6D1C761C002C13D001950294B5
S315080005C0B01A051F1446FFF7E2FEBD42ECD92068B3
S315080005D03818411C204600F053F9002805D0024679
S315080005E0061DE2E7009803B0F0BD002003B0F0BD99
S315080005F000FEFFFF10B5D6480068401C09D0D44855
S3150800060000F0A8F90446401E8441002C04D1204677
S3150800061010BD0124002CFAD0CC480068401CF6D046
S31508000620CA4800F097F90028F1D10446204610BDC3
S3150800063070B5C44A121A4B1E934213D90025934229
S3150800064013D80E1800F0B2F80446701E00F0AEF883
S3150800065001460020FF2902460DD1FF2C0ED10028A5
S315080006600FD170BD01259342EBD9FF2428462146B8
S315080006700028F6D005E02A46FF2CF0D010460028C0
S31508000680EFD0204600F002F870BDC046F0B587B03E
S315080006900E4600210691B04201D90C4600E001241D
S315080006A0122E0A4606D9052807D2B04208D9012CC7
S315080006B03ED108E022460528F7D31146B042F6D8BF
S315080006C00C46012C34D100F08BF80546304600F074
S315080006D087F80746304600F09DF801260596022160
S315080006E00291791B0818C00A87B200F03FFA002F5A
S315080006F01CD0019400240094284600F035F8049094
S31508000700284600F019F804200390FFF740FE02A8D7
S3150800071006A900F09FF9002807D1F0022D18641CDD
S31508000720A0B28742E8D8019C00E0009C00F0D8F906
S31508000730204607B0F0BD0000B0B50546E9208400A4
S31508000740E80E03D117482146FFF75BFD1F20C006B8
S315080007502818154909680906890B884203D3611CBC
S315080007601048FFF74EFDB0BD70B50446C00E0C4DDF
S3150800077003D10C482946FFF744FD1F20C00626185A
S31508000780094800680006800B864203D3691C0548A1
S31508000790FFF737FD2046FFF7CFFFF00A70BDC046CA
S315080007A0C3030000481F0008E075FF1FF0B581B0BD
S315080007B004460025234E02E00C35A82D0CD07759A7
S315080007C0FFF7E5FDA742F7D870194168C919A14294
S315080007D0F2D9007A01B0F0BDFF2001B0F0BDC046E5
S315080007E0F0B581B0044600260C2777431548C01992
S315080007F0057AFFF7CCFDA54207D0701C0C2E0646DD
S31508000800F2D90020C04301B0F0BD0E48C05901B06E
S31508000810F0BDC046F0B581B0044600260C207043F2
S3150800082008490F183D7AFFF7B2FDA54206D0701C9D
S315080008300C2E0646F2D9002001B0F0BD786801B04A
S31508000840F0BDC046A01E0008274870470020C043D8
S31508000850754908603D4908607047C04610B5074CA1
S315080008600C4007D102688A4204D002C00122520213
S31508000870FFF79DFD6042604110BDC046FF010000C4
S3150800088070B50D4606466848864215D016498D420B
S31508000890044608D0304600F05DF80128344600D0FA
S315080008A0002430462946002C0BD0FFF7D7FF002836
S315080008B000D10446204670BD244829460446002C2B
S315080008C0F3D1002070BDC04670B507487EC80068E1
S315080008D05118C9180919491989190818534909686D
S315080008E041184842484170BD00280008F0B581B05B
S315080008F00C4606461348801B491E002781421ED80F
S3150800090015463046FFF752FFFF2818D0A019401E9B
S31508000910FFF74CFFFF2812D0700A0B49884207D10F
S31508000920414831462A462346FFF700FE074606E0B9
S31508000930064831462A462346FFF7F8FD0746384655
S3150800094001B0F0BDFFFF010814000400900100206B
S3150800095094030020F0B585B005460068FFF726FF2A
S315080009600446FF3C611E8C41FF283BD0009400F0F2
S31508000970FDF8281D03904020002401940295049058
S315080009800399085D09194A78120210188A78CB78F3
S315080009901B029A181204161808794A7912021018B6
S315080009A08A79C9790902891809040F182868251847
S315080009B0FFF7EDFC0120294632463B4600F0A0F839
S315080009C000280CD16868784029687140014306D12F
S315080009D008340498401E029DD1D1009C00E0019C79
S315080009E000F07EF8204605B0F0BD000070B582B074
S315080009F0002001900C480168491C11D0061D7ECEC6
S31508000A00C0695118591861186918711808184042B0
S31508000A1001900648042101AAFFF768FF02B070BDDD
S31508000A20012002B070BDC04694030020BC2800080F
S31508000A3010B50024E043064988608C60C860CC6025
S31508000A4048604C6008600C6000F0E2F8204610BD73
S31508000A5024100240F0B583B00546424C20780128A0
S31508000A6002D1022003B0F0BD029100276760012081
S31508000A7020707D20C6003046FFF714FD00282BD1D4
S31508000A80042169602968042906D10420FFF7CCFCF3
S31508000A903046FFF707FD1FE00197F943029A1160F8
S31508000AA0AF68E968C9198F4210D23946FFF7C4FC06
S31508000AB03046FFF7F7FC002806D1A968EA685118FE
S31508000AC07F1C8F42F1D301E002990F6026490A681C
S31508000AD002239A430A60019F277003B0F0BDC046FF
S31508000AE080B57D20C000FFF7DDFC0120C0071E4948
S31508000AF00A6802430A600868C043C00F80BDC04642
S31508000B00F0B585B00F46174E3178012902D102207B
S31508000B1005B0F0BD0293039204900025756001208C
S31508000B2030707D20C4002046FFF7BCFC002816D193
S31508000B3001950498012805D13846039A029BFFF7C8
S31508000B4089FC03E038460399FFF790FC2046FFF737
S31508000B50A9FC05490A68049B9A430A60019D3570F9
S31508000B6005B0F0BDAC050020142002400648C16857
S31508000B70002901D400207047044901600449016036
S31508000B80C068C00F7047C046082002402301674569
S31508000B90AB89EFCD80B500F0A7FD80BDB0B50124C7
S31508000BA020027D490A6802430A600025284600F0AB
S31508000BB009F8002801D02046B0BD00F045F82C46BB
S31508000BC02046B0BDB0B505460E4801780124002977
S31508000BD016D07D20C00001F038F801460A480068A2
S31508000BE001F033F800F070F8032D09D8002807D172
S31508000BF00024E0432946224600F062F803480560CF
S31508000C002046B0BD04000020000000200800002097
S31508000C1010B500F099F900F031F9284800F0BEF84F
S31508000C200520000700F0BAF80124600400F056F821
S31508000C30042000F067F9204600F064F9200700F068
S31508000C404DF800F05FF810BDF0B587B000F068F811
S31508000C500124200700F048F800F0AEFA204600F01C
S31508000C6057F9042000F054F9600400F03DF8002715
S31508000C7005970497039702942020019005200507FD
S31508000C8001AE2846314600F0AFF800F0F7F80597B0
S31508000C900297600301900948314600F0A5F80694CA
S31508000CA0059704970397022002900C200190284686
S31508000CB0314600F099F807B0F0BDC046000800506C
S31508000CC080B500F09BFF80BD80B500F0C5FC80BDF7
S31508000CD080B5FFF763FF00F0D3FC80BD08490A68BA
S31508000CE082430A607047C04681B005490A680243D4
S31508000CF00A60096801400091009801B07047C04633
S31508000D003C10024013480168012291430160704774
S31508000D100120C0020F490A6882430A607047C0462C
S31508000D2081B00C4801680122114301600068104037
S31508000D300090009801B0704781B00120C0020549B3
S31508000D400A6802430A60096801400091009801B0E8
S31508000D507047C046401002400120C00206490A6892
S31508000D6002430A607047C0460120C00202490A6869
S31508000D7082430A607047C046301002400648016840
S31508000D80072008407047C0460348016802220A4304
S31508000D9005218A43026070470020024010B50B21E6
S31508000DA0090741180A20C141012005290ED8CAB2EF
S31508000DB02F23D340DA0709D0880005A10C5820460E
S31508000DC000F0B4F8204600F0B7F8002010BDC04681
S31508000DD001000000020000000400000008000000F6
S31508000DE00100000020000000F0B581B00546086843
S31508000DF0002833D00C4600270EE0626928463146A3
S31508000E0000F04CF862682846314600F059F87F1C15
S31508000E1020680146F94021D00126BE400640F6D09A
S31508000E206068401E012809D8A2682846314600F0A5
S31508000E305FF8E2682846314600F04BF822692846F2
S31508000E40314600F04CF860680228DBD1FF2ED4D872
S31508000E5062692846314600F017F8D3E7002001B04A
S31508000E60F0BD0000024800688004C00F7047C04605
S31508000E7010080050034820210160704701482021CE
S31508000E800160704728000050494349434A430F23ED
S31508000E904B43016A9943114301627047090A494362
S31508000EA049434A430F234B43416A994311434162DD
S31508000EB07047000001482021016070471800005063
S31508000EC049434A4303234B4301689943114301604D
S31508000ED070474A4343688B4313434360704749430B
S31508000EE04A4303234B43C16899431143C160704782
S31508000EF049434A4303234B4381689943114381601D
S31508000F007047000008490A6882430A607047C0466D
S31508000F1081B005490A6802430A60096801400091E0
S31508000F20009801B07047C0463410024005490A6867
S31508000F3002430A607047C04602490A6882430A604B
S31508000F407047C04624100240F0B581B000F09CF806
S31508000F5000F0AAF80128FBD100F0B2F8834D00246E
S31508000F60AC60012637022F6000F088F80028FBD114
S31508000F702F6000F0EFF80028FBD13003E860AC6181
S31508000F80E0432862204601B0F0BDC0460F200102AA
S31508000F9083480068084070470720010380480068B6
S31508000FA008407047072001037D48006808407047DD
S31508000FB07B480168382008407047C0467848016871
S31508000FC0382008407047C04610B5044600F042FA7B
S31508000FD0206000F021FA606000F02EFAA06010BDD3
S31508000FE080B50C2810D0032830D1032000F040F833
S31508000FF01C49884218D01C49884223D01B4988427C
S3150800100019D100F027FA80BD0C2000F031F81349F9
S3150800101040180221C841032806D0022818D0012802
S3150800102009D100F017FA80BD00F056F8401E41427B
S315080010304141C80380BD00F00DFA00F0EDF900F05B
S31508001040FBF980BD00F030F8012805D0002080BDEE
S3150800105000F02AF80128F9D1014880BD0000F4FF04
S315080010600024F4000300030002000300010003004B
S315080010705049096801400004084370473B48006826
S315080010808003C00F7047C0460120000237490A682E
S3150800109002430A607047C0460120000233490A68C5
S315080010A002430A607047C046304800684005C00FD2
S315080010B07047C0462D4800684005C00F7047C046B7
S315080010C07F20000203490A68824301208003101822
S315080010D00860704704100240024800688007C00F85
S315080010E07047C0465C10024019480168024A0A4027
S315080010F002495118016070478C80FF1F324000601A
S3150800110001200006DD490A6802430A607047C046A6
S31508001110012000070E490A6802430A607047C04664
S315080011200B480168702008407047C04608480168A7
S31508001130032008407047C046054800684004400E32
S315080011407047C046072041070148006808407047B5
S315080011500C100240C94800688001C00F7047C0469D
S31508001160C64800688001C00F7047C046001002409C
S315080011700F2000020A490A6882430A607047C0467F
S315080011800720000306490A6882430A607047C0467A
S315080011900348016802220A4305218A430260704710
S315080011A0081002400120800502490A6882430A6045
S315080011B07047C046541002400320400202490A689C
S315080011C002430A607047C0460000014001490860B2
S315080011D07047C04600000020CC48016801229143B0
S315080011E001607047C948016801220A4302607047D6
S315080011F070B584B00D46044600F060F8002801D0AA
S31508001200012640E0206821490140A8680843296969
S31508001210014368690843E96901432160E968204692
S3150800122000F0A4F8A969204600F092F800211848B1
S31508001230844206DCB548844210D01848844208D057
S3150800124010E01448844204D0134884420AD103208B
S3150800125005E001A8FFF7B8FE039903E00C20FFF7A5
S31508001260BFFE01460126002909D06868002806D075
S31508001270EB692A680090204600F02AF800262968BB
S31508001280204600F06CF8304604B070BDF369FFEFF5
S31508001290FF4B0040004C0040003801400048004029
S315080012A0054800688006C00F7047C04602480068B7
S315080012B00006C00F7047C0461C4400400168012064
S315080012C00840704701480068C0B27047244400408F
S315080012D070B50B2A21D81E460446049DD0B280005C
S315080012E00EA212580846114600F0AFFC0121C903A8
S315080012F08E420BD1690840004018294600F0A5FC2B
S31508001300124901400007400F401805E069084018D7
S31508001310294600F09AFC80B2E06070BD010000002A
S31508001320020000000400000006000000080000009B
S315080013300A0000000C000000100000002000000059
S31508001340400000008000000000010000F0FF0000DF
S3150800135003221202836893430B4383607047C26A71
S315080013600F239A4389B21143C162704703221203BD
S31508001370436893430B434360704700000149086084
S315080013807047C0462844004080B5FFF773FD80BD0E
S31508001390114908807047C04610B500F0A5F90C4CF5
S315080013A02168884212D30B480178002904D000210D
S315080013B00170FFF75FFD03E001210170FFF77AFD79
S315080013C000F092F9044909884018206010BDC0460B
S315080013D0F4000020F1000020A405002080B5FFF7E6
S315080013E005FB002802D0FFF705F980BD002080BD67
S315080013F080B5FFF71DF980BD80B5FFF725FA80BDDA
S3150800140080B5FFF723FA80BD80B5FFF75DFA80BD8A
S3150800141080B5FFF76BFA80BD10B50446FFF7B6FD39
S3150800142080093C210140034840581F210140CC4017
S31508001430204610BD401E000810B50446FFF7ACFD57
S31508001440000B8000C74908581F210140CC402046A0
S3150800145010BDC04680B5FFF7ABFD082804D010289C
S3150800146004D100F00DF880BD164880BD0348006819
S315080014708004410F1448C84080BDC0460010024091
S31508001480B0B5FFF753FE104D032803D029460228AE
S3150800149004D002E00B49022800D00D46FFF74CFEA7
S315080014A004466C43FFF73CFE0009411C204600F049
S315080014B0CCFB0446FFF746FE400F411C204600F0D1
S315080014C0C4FBB0BD00127A000024F40010B588B041
S315080014D000240794069405940494039402940194B2
S315080014E00094FFF779FE079406940C20059004945F
S315080014F003940294E120000201900094034869468F
S31508001500FFF776FEFFF76EFE08B010BD00440040F8
S3150800151010B50446FFF7C4FE002804D0FFF7D2FE34
S315080015202070012010BD002010BD0000F0B581B06C
S315080015300546244E307800281DD00C4624480778E6
S31508001540214EB819401CFFF7E3FF01282AD1781C61
S315080015501F4F38703178C2B28A422FD13870711C49
S315080015602846FEF724FF00201649087038782070B0
S31508001570012001B0F0BD144C2046FFF7C9FF014613
S315080015800020012918D12178491E802914D800F095
S31508001590ABF80E4908600E49002008700121317029
S315080015A001B0F0BD00F0A0F808490968C8318842C2
S315080015B004D900200349087001B0F0BD002001B02D
S315080015C0F0BDC0467C010020F80000208001002004
S315080015D07D01002010B5FFF7D1FE00F085F804461E
S315080015E00A34FFF763FE002805D1FEF7D0FE00F0A7
S315080015F07BF8A042F5D910BDB0B50C46054648089B
S31508001600412803D309A08121FEF7FBFD2046FFF7F9
S31508001610E1FF002C08D0FEF7BAFE2878FFF7DAFFBC
S31508001620641E6D1C002CF6D1B0BDC0462E2E2F2E82
S315080016302E2F2E2E2F2E2E2F536F757263652F4148
S31508001640524D434D305F53544D333247302F7273EA
S315080016503233322E63000000B0B5401E010E01D0B1
S315080016600120B0BD4A4D68600024E043032100F024
S31508001670C5FAAC60072028602046B0BD7047000058
S3150800168080B5FFF781FBFFF779FB022803D011A08D
S315080016906921FEF7B6FDFFF7FFFCFFF70BFD0128F2
S315080016A0FBD1FFF721FDFFF72BFDFFF731FDFFF714
S315080016B057FD0128FBD1FFF75BFDFFF761FDFFF73B
S315080016C067FDFFF77BFC1028FBD10548FFF77EFD79
S315080016D080BDC0462E2E2F6D61696E2E63000000F8
S315080016E00090D0037047000080B500F055F83748E1
S315080016F0006880BDF0B581B0FFF754FDFFF71CFB0D
S3150800170015480468FFF74EFC0090144D2E46143E0B
S31508001710FFF748FC012737601149A96100283846B8
S3150800172000D002200099090B89000E4A51581F2241
S315080017300A40D44044430C49204600F086FA401E2D
S3150800174068612868384328602048002101602869B4
S315080017501C49088001B0F0BD00000020142C01408F
S31508001760FFFF0000801E0008A086010080B5FFF775
S31508001770F3FAFFF7F9FAFFF7CBFA054800210160FB
S3150800178041608160012040060249086080BDC0466C
S3150800179010E000E004ED00E070B50A4D2E880A4816
S315080017A00068801B80B264280AD36424214600F0AE
S315080017B04CFA06490A6812180A604443A019288098
S315080017C070BDC046A2050020242C0140A8050020B3
S315080017D0B0B582B0BE4CFF21217000250195001DD1
S315080017E000F057F901468820205801AA00F03BF975
S315080017F001206070019800F0F5F986200821215231
S31508001800658002B0B0BDC04610B500F0DBF9812096
S31508001810EF4C012121540020A0700A482080FEF7D1
S3150800182044FDE070FEF743FD2071FEF740FD86217A
S3150800183008226252FF210231E180000A6071FFF737
S31508001840DFFD10BDFF10000010B58120EA4C002115
S31508001850215400F0B7F9862001212152FF2020707B
S3150800186010BDC04610B58820E34C05492150FF201D
S315080018702060072000F0B6F986200821215210BD05
S31508001880721F00088620DC4906220A52FF200880BB
S3150800189000208880C8708220085C88707047C0461F
S315080018A070B504464578FEF700FD801EA84203DAA7
S315080018B0222000F08FF970BD8620CF4D01212952D4
S315080018C0FF202870617800290BD08826A859A21C09
S315080018D0FFF79EFD002809D0A85961784018A8513D
S315080018E003E0FFF77BFD002800D070BD312000F033
S315080018F071F970BDB0B58821BF4D6C58001D00F058
S31508001900C8F801462046FFF773FD002805D0862053
S3150800191001212952FF202870B0BD312000F05AF964
S31508001920B0BDC046F0B581B004468826B24FBD5951
S31508001930FEF7BBFC621C411E2846FFF769FD00281E
S315080019400CD0FF203870FEF7B0FC862101227A52AF
S31508001950B9594018401EB85101B0F0BD312000F009
S3150800196039F901B0F0BDC04680B5312000F032F932
S3150800197080BD000010B5FEF72BFD81209E4C00218E
S31508001980215400F01FF9862001212152FF202070E2
S3150800199010BDC046B0B5984C0025A570FF20208024
S315080019A0FEF783FC862107226252A571A580E070A6
S315080019B0B0BDC04610B5904CFF212170001D00F047
S315080019C068F88821605086200121215210BDC04642
S315080019D070B504464578FEF768FCA84215D9201D5F
S315080019E000F057F801468826834DA8516278681C8E
S315080019F0FEF7DDFCA85961784018A8516078401CAC
S31508001A0086216852FF20287070BD222000F0E2F877
S31508001A1070BDC04680B5002000F0DCF880BD00002F
S31508001A2070B504464578FEF740FCA84211D98826C9
S31508001A30714DA9596278681CFEF7B9FCA8596178F6
S31508001A404018A8516078401C86216852FF202870EB
S31508001A5070BD222000F0BEF870BDC04680B52020BB
S31508001A6000F0B8F880BDF0B581B0144600290CD056
S31508001A700D460646002730783818C7B2761C6D1E04
S31508001A80FEF785FC002DF6D100E00027276001B09F
S31508001A90F0BD01784278120251188278120489182A
S31508001AA0C0780006081870478120534900220A5456
S31508001AB086200A5288200A508131CA708A704A7074
S31508001AC07047C04681204C49085C411E88417047D2
S31508001AD0C8050020B0B50178FF2913D1FFF794FE99
S31508001AE08424454D285D012802D1102000F072F8A3
S31508001AF08620285E012800DA2EE00121295500F00B
S31508001B0075F829E081223C4B9A5C012A24D1C9390F
S31508001B10352922D87944097949008F441A1E1E228C
S31508001B201E1E25282B2E1E1E1E1E1E1E1E1E1E1E99
S31508001B301E1E1E1E1E1E1E1E1E1E1E1E1E1E1E1EB7
S31508001B401E1E1E1E311E3449373A1E1E1E3D1E40DD
S31508001B504346FFF7E7FEC3E7B0BD202000F03AF89A
S31508001B60BEE7FFF701FFBBE7FFF704FFB8E7FFF79C
S31508001B7097FEB5E7FFF7BEFEB2E7FFF70BFFAFE745
S31508001B80FFF76CFFACE7FFF723FEA9E7FFF748FF6F
S31508001B90A6E7FFF70FFFA3E7FFF764FEA0E7FFF747
S31508001BA039FF9DE7FFF76EFE9AE7FFF74DFE97E7C9
S31508001BB0FFF70EFF94E7C04684200F4900220A5417
S31508001BC07047C04682200C4900220A547047C04616
S31508001BD0C80500208621084A022353525070FE2069
S31508001BE010707047044948607047C04680B581B296
S31508001BF00148FEF7B3FB80BDC8050020002805D4C0
S31508001C000322034693430C4A9A1806E00F22024021
S31508001C10083A03239A43074BD2188007C00E890156
S31508001C20C9B28140FF238340106898430843106077
S31508001C307047C0461CED00E000E400E0FFF748F8F6
S31508001C40FEF716FBFEF722FBFCE743088B421AD386
S31508001C50002203098B4279D3030A8B425ED3030B16
S31508001C608B4242D3030C8B4227D30902FF2212BAB6
S31508001C70030C8B4202D31212090203D0030B8B42C8
S31508001C8033D31AE0D3E0411A8041401C704703461B
S31508001C900B4371D443088B42F5D3002203098B42C8
S31508001CA054D3030A8B4239D3030B8B421DD3030C3F
S31508001CB08B4202D394466EE0090AC30B8B4201D3CA
S31508001CC0CB03C01A5241830B8B4201D38B03C01A34
S31508001CD05241430B8B4201D34B03C01A5241030BAB
S31508001CE08B4201D30B03C01A5241C30A8B4201D35C
S31508001CF0CB02C01A5241830A8B4201D38B02C01A07
S31508001D005241430A8B4201D34B02C01A5241030A7D
S31508001D108B4201D30B02C01A5241CDD2C3098B4262
S31508001D2001D3CB01C01A524183098B4201D38B01DF
S31508001D30C01A524143098B4201D34B01C01A524182
S31508001D4003098B4201D30B01C01A5241C3088B42C7
S31508001D5001D3CB00C01A524183088B4201D38B00B2
S31508001D60C01A524143088B4201D34B00C01A524154
S31508001D70411A524110007047CA0F00D04942031059
S31508001D8000D34042534000229C4603098B422DD380
S31508001D90030A8B4212D38901FC2212BA030A8B4228
S31508001DA00CD3890192118B4208D3890192118B4277
S31508001DB004D3890137D0921100E08909C3098B42FF
S31508001DC001D3CB01C01A524183098B4201D38B013F
S31508001DD0C01A524143098B4201D34B01C01A5241E2
S31508001DE003098B4201D30B01C01A5241C3088B4227
S31508001DF001D3CB00C01A524183088B4201D38B0012
S31508001E00C01A5241D9D243088B4201D34B00C01A9B
S31508001E105241411A00D201465241104663465B10B0
S31508001E2000D34042704763465B1000D3404201B579
S31508001E300021004201D0C9430846C046C04602BD3B
S31508001E400000000000000000000000000000000084
S31508001E500000000000000000000000000000000074
S31508001E60010000000200000003000000040000005A
S31508001E700600000007000000080000000900000036
S31508001E800000000000000000000000000000000044
S31508001E90010000000200000003000000040000002A
S31508001EA000280008000800000500000000300008AF
S31508001EB000080000060000000038000800080000BE
S31508001EC007000000004000080008000008000000A5
S31508001ED0004800080008000009000000005000083B
S31508001EE0000800000A00000000580008000800006A
S31508001EF00B00000000600008000800000C0000004D
S31508001F0000680008000800000D00000000700008C6
S31508001F10000800000E000000007800080008000015
S31508001F200F0000000080000800800000100000007C
S31508001F300000010800800000110000000080010870
S31508001F4000800000120000002E2E2F2E2E2F2E2E7F
S31508001F502F2E2E2F536F757263652F41524D434DA9
S31508001F60305F53544D333247302F666C6173682E99
S31508001F7063004F70656E424C54000000A01F0008B5
S31508001F80000000201000000000010008B01F000833
S31508001F9010000020480C00001C010008000000008A
S31508001FA00024F40001000000040000000000000006
S705080000BD35
