S01700006F70656E626C745F7333326B3134342E73726563DE
S113000000700020E1190000DB090000470A00002D
S1130010731000001F1B00004B1B000000000000B9
S11300200000000000000000000000005B1B000056
S11300308F1B000000000000AD1B0000AF1B000080
S1130040A91B0000A91B0000A91B0000A91B00009C
S1130050A91B0000A91B0000A91B0000A91B00008C
S1130060A91B0000A91B0000A91B0000A91B00007C
S1130070A91B0000A91B0000A91B0000A91B00006C
S11303F0A91B0000A91B0000A91B0000FFFFFFFFB1
S1130400FFFFFFFFFFFFFFFFFFFFFFFFFE7FFFFF79
S1130410DFF8480400F1810100220A70C0F8882046
S1130420CA70A0F886201046887048707047DFF8BC
S11304302C0490F88100401E8041C043C00F7047D7
S11304400020DFF8181481F88400704770B5044662
S1130450DFF8085405F181062078FF2815D12046DD
S113046000F0B0F8F078012803D11021207800F0D2
S11304708BF8B5F986100846012805DB0120F070D9
S11304802846BDE8704064E070BD30780128FBD197
S113049020780146C9293CD0CC294ED0CF2948D058
S11304A0D0293AD0D12940D0D2293AD0F12948D004
S11304B0F3291AD0F42910D0F5290AD0F62910D03E
S11304C0FA2916D0FC2918D0FD291AD0FE291CD0EF
S11304D03BE0204600F0D5F8C4E7204600F0F2F8EF
S11304E0C0E7204600F0C0F8BCE7204600F00FF952
S11304F0B8E7204600F0A6F8B4E7204600F09FF8DD
S1130500B0E7204600F08CF8ACE7204600F07BF81A
S1130510A8E7204600F026F9A4E7204600F044F9B5
S1130520A0E7204600F00DF99CE7204600F06EF9A4
S113053098E7204600F082F994E7204600F090F90D
S113054090E7204600F08FF98CE7202100F01CF89A
S113055088E789B200F0C5B9F8B504460D461646D9
S1130560002704E020783F18641C00F01FFA284696
S1130570451E0028F6D1FFB237600120F2BD0020ED
S1130580B64981F882007047B448FE220270417077
S11305900221A0F886107047014608784A7840EA9C
S11305A002208A7840EA0240C97840EA0160704734
S11305B008700246120A4A700246120C8A70000E33
S11305C0C870704710B5FFF7DAFFA44C012084F817
S11305D08100FF202070102060700020A07000F0C7
S11305E098F9E07000F0A3F9207100F0A0F9000A76
S11305F060710120A071E0710820A4F88600BDE8B4
S1130600104000F0D5B910B5944C002084F8810056
S1130610FFF7B5FFFF2020700120A4F8860010BD6D
S11306208E48FF2101700021417000F182010A7897
S113063082700022C2708280062088807047002168
S11306400078A1E710B5854CFF20207087A0C4F87E
S11306508800002060706080211D0720FFF7A8FF3C
S11306600820A4F8860010BD10B57C4CFF21217031
S1130670001DFFF791FFC4F888000120A4F886004C
S113068010BD38B5044600F044F96278401E1146A6
S1130690884204DA22212078BDE8344074E76F4DA3
S11306A0D5F88810681C00F0BDF9FF202870D5F833
S11306B0880061784018C5F888006078401CA5F867
S11306C0860031BD38B5044600F023F9401E617838
S11306D0884204DA22212078BDE8344054E75F4D93
S11306E0201DFFF759FFC5F8880062780146681C91
S11306F000F098F9FF202870D5F888006178401838
S1130700C5F888006078401CA5F8860031BD1CB58A
S113071000210091514CFF212170001DFFF73CFF87
S113072001466A46D4F88800FFF716FF6070211D61
S11307300098FFF73DFF002060800820A4F88600A1
S113074013BD10B5454CFF20207000206070A070D0
S113075000F0DFF8E0700020A080A0710720A4F86A
S1130760860010BD70B505463C4CD4F8886000F096
S1130770D0F80146491E6A1C304600F01BF90028D7
S113078004D131212878BDE87040FDE6FF202070B7
S113079000F0BFF8D4F88810401E4018C4F8880050
S11307A00120A4F8860070BD38B5044600F0B1F805
S11307B0801E6178884204DA22212078BDE8344022
S11307C0E2E6264DFF2028700120A5F88600617816
S11307D0002908D100F0F6F8002816D1312120783C
S11307E0BDE83440D0E6A21CD5F8880000F0E2F859
S11307F0002804D131212078BDE83440C4E6D5F87E
S1130800880061784018C5F8880031BD38B50446C1
S1130810201DFFF7C1FE0146104DD5F8880000F0F9
S1130820CBF8002804D131212078BDE83440ABE670
S1130830FF2028700120A5F8860031BD10B500F016
S1130840CFF8064C002084F88100FFF798FEFF20C3
S113085020700120A4F8860010BD0000C00800200C
S11308603121007890E6202100788DE64F70656E86
S1130870424C540010B5002000F070F8FFF7C8FD9A
S113088000F083F9464C0220207000F0C3FA0020E7
S1130890207010BD1CB5424C6946201D00F069FA59
S11308A0012809D102202070012000F057F89DF89A
S11308B00010201DFFF7CAFD6946201D00F002FB51
S11308C0012809D100202070012000F047F89DF88C
S11308D00010201DFFF7BAFD00F043F813BD0020FF
S11308E03CE070B504460D462D4E3078022803D105
S11308F0C9B2204600F0FBF93078002804D129461B
S1130900C9B2204600F0C1FAFFF79AFDBDE8704075
S11309103FE023480078801E03D0401E012802D9FE
S113092003E0082070473F207047812070471C482F
S11309300078801E03D0401E012802D903E008205D
S113094070473F2070478120704710B50024FFF79F
S11309506EFD002800D00124204610BD1149087006
S113096017E038B50024FFF7F0FF01280FD10D4D33
S1130970287801280BD100F059FB6968401A41F22C
S11309808831884203D32046FFF7E8FF012420463C
S113099032BD80B500F04AFB0249486001BD000049
S11309A00084FF1F1000002000F05EBB00F05FBB5E
S11309B000F064BB00F06BBB00F09CBB00F0E3BB39
S11309C000F013BC80B500F0BEFB002801D100206C
S11309D002BDBDE8014000F0EDBBFEE700F070BDD4
S11309E080B5FFF7EBFF002816D000F02FFB00289E
S11309F012D0FFF774FF00F0F5FAFFF7E1FF0749A3
S1130A0008400749086000F05DFDFFF7D9FF001DAD
S1130A100068BDE80240004701BD000080FFFF1FE1
S1130A2008ED00E070B504460D46164605E015F8DD
S1130A30010B04F8010BFFF7B9FF3046461E80B2E4
S1130A400028F4D170BDFEE7F0B40346DFF870432C
S1130A502068C0F30220002803D101204FF48075E0
S1130A6025604FF4FA540FF2A435285CB4FBF0F47B
S1130A700025DFF8506301E06D1CEDB2122D16D293
S1130A801F4616F825007843B4FBF0F700FB174027
S1130A900028F1D10F8008880028EDD0B0F5807FC0
S1130AA0EAD856F8250010600120F0BC70470020F9
S1130AB0FBE738B5C44C2068002803D5DE21C348C1
S1130AC000F002FD206840F080402060206840F083
S1130AD08050206000F0AAFA0546FA352068C0016B
S1130AE005D4FFF763FF00F0A1FA8542F6D231BDC9
S1130AF038B5B54C2068002803D5FE21B34800F072
S1130B00E3FC206820F080402060206820F08050C2
S1130B10206000F08BFA0546FA352068C00105D53F
S1130B20FFF744FF00F082FA8542F6D231BD38B5B2
S1130B30A54C2068002810D4206840F000402060B4
S1130B4000F074FA0546FA352068C00205D4FFF7B0
S1130B502DFF00F06BFA8542F6D231BD38B59A4CC0
S1130B602068002810D5206820F00040206000F0A4
S1130B705DFA0546FA352068C00205D5FFF716FF71
S1130B8000F054FA8542F6D231BD3EB50020ADF8EE
S1130B90000001A908608E48016841F080410160AD
S1130BA0FFF7DCFFFFF785FFFFF7C1FF864C6068A6
S1130BB020F400506060FFF7D1FFFFF77AFF01AA2D
S1130BC069464FF4FA70FFF73FFF002804D140F262
S1130BD087117E4800F078FC61684FF67870014018
S1130BE061606068BDF80010491E40EA0160606001
S1130BF060689DF80510491E01F007010843606014
S1130C0060689DF80610491EC90401F46011084388
S1130C10606060689DF80710491E090401F4E02132
S1130C20084360609DF806000146032900DD0420A6
S1130C306168401E800500F44000084360606068FD
S1130C4040F0800060600020624A05E00021034615
S1130C509BB242F82310401C014689B28029F5D387
S1130C6000205D4A05E0002103469BB242F82310B0
S1130C70401C014689B21F29F5D91F20216860F361
S1130C8006012160206840F400302060206840F4B0
S1130C9080302060206820F0005020606FF02040F9
S1130CA04E4908604E484FF0806101604D494160F3
S1130CB00020A0624FF0FF3020634B482062206880
S1130CC020F4000020606168484801406160FFF73B
S1130CD00FFF00F0ABF90546FA352068000105D591
S1130CE0FFF764FE00F0A2F98542F6D237BD70B575
S1130CF03F4C4FF4807222603E4A136823F06043F5
S1130D001360136823F440131360136843F48003DF
S1130D101360136823F47023136013680D462D04C5
S1130D2005F470252B43136000220AE0324B960829
S1130D30B600F61C02F00305761B855C9D55521C1B
S1130D40D2B20B469A42F1DB2A482C494160016831
S1130D5041F04061016000F069F9054632352068D0
S1130D60C00505D4FFF722FE00F060F98542F6D2F3
S1130D7070BD30B40022224B9B6A9B051DD5184AD6
S1130D801268120C02F00F020A7000220AE01D4BD6
S1130D909508AD00ED1C02F003042D1B5B5D83542C
S1130DA0521CD2B20B789A42F1DB15484FF4007111
S1130DB081620068144908600122104630BC704703
S1130DC004410640381A000000400240C01A0000E6
S1130DD0905006408040024080480240A4480240AF
S1130DE01041024000009C1906003B00F7EFFFFF92
S1130DF03040024000410240084102400000841F8C
S1130E0008400240184102400C0000200001020486
S1130E10081020405B48016821F0804101600168AE
S1130E2021F0E0610160016841F0864101605649AA
S1130E300868C0F30220002804D101200A6842F4A3
S1130E4080720A605149524A57A3185CB2FBF0F011
S1130E504FF46142B0FBF2F0801C40044D4A52EA68
S1130E60D0420A604C4848600020886008614861AC
S1130E704FF470308861886940F0880088610120EF
S1130E80C8614FF440208860704770B504460D4631
S1130E902846822803DBC821404800F015FB284679
S1130EA000F05CF8002607E0FFF780FD304680B2D2
S1130EB0205C00F053F8761C3046294680B2884204
S1130EC0F2D370BDF8B505460E46354C607800285F
S1130ED012D1201D00F036F8012831D120790028E4
S1130EE02ED082282CDA00F0A1F8C4F88800002063
S1130EF020700120607023E02778601D3946084483
S1130F0000F020F8012812D17F1C2770384621797F
S1130F10C0B2884214D1FFB23A46611D2846FFF799
S1130F2081FD00206070207830700120F2BD00F057
S1130F307DF8D4F88810C831814201D20020607055
S1130F400020F2BD01460020164B1A68C2F340523D
S1130F50002A02D0986808700120704738B5114CF7
S1130F60A06000F063F805460A352068C0F3C0505D
S1130F70002805D1FFF71AFD00F058F88542F4D295
S1130F8031BD0000AC5106400443064010B0064099
S1130F90006CDC020000020300C01FC0801A0000C5
S1130FA02808002014B00640000102040810204064
S1130FB080B500F017F820486FF07F4141600021B0
S1130FC08160052101601D491D4A12684FF47A733E
S1130FD0B2FBF3F28A6000220A60806820F07F404E
S1130FE0486001BD144800210160416081604FF0F8
S1130FF000701449086070471348036823F07F4366
S11310000E484168CB1A23F07F438268934200D292
S1131010704710B4B3FBF2F304681C19046002FBBC
S1131020131121F07F41416010BC704780B5FFF778
S1131030E3FF0248006802BD10E000E0B4080020AD
S11310408884FF1F04ED00E018E000E080B5054847
S11310500068C00401D5002002BD00F068FA012038
S113106002BD000090F00F40642000F031BA00F09F
S113107040BAFEE7DFF800F08D84FF1F4FF0FF3029
S1131080DFF828140860DFF8281408607047F8B502
S113109004460D4616460127DFF81804001B691E96
S11310A0884200D20027384601280BD1204600F0A0
S11310B0E2F9FF2805D02819401E00F0DCF9FF28CA
S11310C000D100273846012812D1A00A8002B0F5C9
S11310D0005F2B463246214605D1DFF8D40300F0E9
S11310E0B9F8074604E0DFF8C40300F0B3F8074694
S11310F03846F2BDF8B504460D460126DFF8B413B0
S1131100091B6A1E914200D20026314601290ED1E4
S113111000F0B1F907462C19641E204600F0ABF923
S11311203946FF2902D00146FF2900D10026314665
S1131130012906D10146C9B23846C0B200F037F9D8
S113114006463046F2BD0120DFF86423116811F130
S1131150010F00D1704780B5516890684118D0687C
S11311604118106941185069411890694118D069B3
S11311704118C943491C00916A46042142F2F830DF
S1131180FFF785FF02BD01204FF400531A68596828
S11311908A1899688A18D9688A1819698A1859693D
S11311A08A1899698A1842F2F83109688A1800D0B5
S11311B00020704710B50124BD48016811F1010FEA
S11311C004D000F08CF8002800D100242046012827
S11311D009D1B648016811F1010F04D000F07FF87D
S11311E0002800D10024204610BD4FF40050704761
S11311F010B501248A0500D000242246012A08D112
S113120002688A4205D001604FF48062001DFFF736
S113121009FC204610BD70B505460E46A44CA542F7
S113122002D1A24D2C460AE0B6F5005F01D1254655
S113123005E02C4600F053F8002800D10024002CCF
S113124006D031462846FFF7D3FF002800D10024FA
S1131250204670BD2DE9F84304460E4690461D46CF
S113126001274FEA96294FEA8929206810F1010FD6
S113127006D149462046FFF7BBFF002800D10027CE
S11312803846012809D12068484506D049462046F9
S1131290FFF7C1FF040000D10027384601281BD105
S11312A02068361AA019061DFFF780FB201D301A8E
S11312B0B0F5806F08D3216801F580612046FFF7FF
S11312C0AAFF040007D0261D18F8010B06F8010B2D
S11312D06D1EE9D100E000273846BDE8F2832DE910
S11312E0F84304460125206800F0C5F8FF2800D122
S11312F000252846012857D10026DFF8BC910AE0D2
S1131300401CC0B2072805DC395C18F80020914263
S1131310F6D00025761C802E46D2276807EBC60738
S113132004EBC60000F10408FFF740FB99F8000045
S1131330000638D5702089F80000072089F80700D6
S11313403846000C89F806003846000A89F805007A
S113135089F8047098F8000089F8080098F80100EA
S113136089F8090098F8020089F80A0098F803003F
S113137089F80B0098F8040089F80C0098F8050027
S113138089F80D0098F8060089F80E0098F807000F
S113139089F80F00FFF76EFE99F8000010F0710F46
S11313A001D10020AEE700252846BDE8F2832DE9EF
S11313B0F04705460E46012730462946884200D2AA
S11313C000273846012803D13046152800D30027CA
S11313D0384601284CD1DFF8E0A001E06D1CEDB2E5
S11313E03046A84244DBFFF7E1FA05EB45008000F4
S11313F0324951F800800844446818F1010F0BD0B9
S1131400002C09D05FEA085006D1200504D1240B32
S1131410E4B24FF0000903E0002729E009F10109D3
S11314204846C0B2A04221DAFFF7C0FA4846C0B22B
S113143008EB00309AF80010090616D570218AF8D6
S1131440001009218AF807100146090C8AF80610D1
S11314500146090A8AF805108AF80400FFF70AFE13
S11314609AF8000010F0710FD8D000273800B5D1D9
S11314703846BDE8F08770B50446FF25002601E034
S1131480761CF6B2152E0ED2FFF790FA06EB460044
S113149080000A490A589442F2D3084440688218EA
S11314A09442EDD23546284670BD00001800002055
S11314B01C040020FFFF070000000240AC170000DE
S11314C062B6704762B6704780B5FFF76FFAFCE703
S11314D01A490A6842F480720A6019490A6942F09A
S11314E001020A610A6842F001020A601549488053
S11314F0704710B5FFF79AFD124C6168884215D306
S11315000F492078002806D101202070486840F057
S11315100100486005E000202070086840F00100E8
S11315200860FFF783FD61884018606010BD0448BF
S1131530016841F0010101607047000000C00440EF
S1131540C4F00F402008002080B500F005F800F03A
S11315507DF800F08AF8FCE780B500F031F83248F5
S1131560016841F080410160416841F0804141607F
S1131570816841F0804181602C48816941F4807127
S11315808161816921F00201816129490A6822F49B
S113159080520A604A6822F480524A60016841F429
S11315A000710160416841F40071416021480168A3
S11315B041F4A0610160416841F4A061416001BD52
S11315C01D4840F201114160242282600268120227
S11315D0FCD4012202600268D201FCD5174A1068CB
S11315E00002FBD41068400840001060536840F2C9
S11315F00230034353604FF4C0109060106800023F
S1131600FCD4106840F0010010601068C001FCD5E3
S11316100B4801600B480C4941600168C1F3036148
S11316200629FAD100F042B82C51064018B0044003
S113163094F00F4010D0044000410640004606409C
S113164004420640104006401200010680B5FFF730
S1131650C5F9FFF7A9F9FFF7ABFCFFF7A9F9FFF705
S113166009F9BDE8014000F075B880B5FFF79EF9AF
S1131670FFF7C2FCFFF70EF9BDE8014000F072B8B5
S11316802948016841F4700101602848016821F08B
S113169080410160264827494160416842F2201197
S11316A001604FF6FF7181607047000010B40023A1
S11316B0012121480268C2F30342521C0068000E53
S11316C000F00F00012806D0022806D003280BD012
S11316D0062811D01FE0194B1EE01948006810F0CD
S11316E0010019D0154B17E01648006800F00300FC
S11316F017A353F820300FE013480368C3F3022301
S11317005B1C0068C0F3044410340C4844435B0081
S1131710B4FBF3F300E01946002903D0B3FBF2F065
S11317200A49086010BC704788ED00E034EF00E01F
S11317300020054020C528D91040064000127A0038
S11317400842064008430640084606408884FF1FB6
S1131750006CDC0280B501201349087000F01BF80E
S1131760BDE8014010B5FFF7F0F8012812D00E4C87
S1131770207801280ED1FFF759FCA26861688A1805
S113178002F5FA72904205D300202070BDE81040A3
S1131790FFF726B910BD10B5034C2078012802D1FB
S11317A0FFF744FC606010BD000000200020000032
S11317B000100000020000000030000000100000D3
S11317C003000000004000000010000004000000BE
S11317D00050000000100000050000000060000040
S11317E0001000000600000000700000001000005F
S11317F007000000008000000080000008000000D6
S113180000000100008000000900000000800100C9
S1131810008000000A0000000000020000800000B8
S11318200B00000000800200008000000C0000009B
S113183000000300008000000D0000000080030091
S1131840008000000E000000000004000080000082
S11318500F00000000800400008000001000000061
S11318600000050000800000110000000080050059
S1131870008000001200000000000600008000004C
S11318801300000000800600008000001400000027
S11318900000070000800000150000000080070021
S11318A00080000016000000F0B41B481B491C4ACD
S11318B01C4B1D4C1D4D1E4E03E011F8017B00F81E
S11318C0017B1C4F8F42F8D11B48984207D013F874
S11318D0010B02F8010BF7E7002004F8010B17488D
S11318E0A042F9D11648B04204D016F8010B05F80D
S11318F0010BF7E70020134905E0134A52F82020B2
S113190041F82020401C114AB0EB920FF5D3104847
S11319100160F0BC704700BF0084FF1F5419000031
S11319208C84FF1F901B00000000002000000000BA
S113193000000000E0190000A81B00004C09002072
S1131940000000000080FF1F0000000000040000F1
S113195008ED00E0060000000000000000000000A8
S11319600000000000000000000000000000000073
S11319700000000000000000000000000000000063
S11319800000000000000000000000000000000053
S11319900000000000000000000000000000000043
S11319A00000000000000000000000000000000033
S11319B00000000000000000000000000000000023
S11319C00000000000000000000000000000000013
S11319D0000000000000000000000000006CDC02B9
S11319E072B60021002200230024002500260027CF
S11319F0B846B946BA46BB46BC460A490A4A521AD0
S1131A00013A05DD0020042308601944043AFBDA96
S1131A1006488546064880470648804762B6FFF771
S1131A2093FDFEE70080FF1FFF6F00200070002081
S1131A3081160000A918000008030202090303022A
S1131A400A0303030B0403030C0404030D0504033A
S1131A500E0504040F06040410060504110705040A
S1131A6012070505130805051408060515080705DA
S1131A7016080706170808061808080719080808AA
S1131A80433A5C576F726B5C736F6674776172650F
S1131A905C4F70656E424C545C5461726765745C53
S1131AA0536F757263655C41524D434D345F5333DC
S1131AB0324B31345C72733233322E6300000000D7
S1131AC0433A5C576F726B5C736F667477617265CF
S1131AD05C4F70656E424C545C5461726765745C13
S1131AE0536F757263655C41524D434D345F53339C
S1131AF0324B31345C63616E2E6300004EF68851C4
S1131B00CEF20001086840F470000860BFF34F8F04
S1131B10BFF36F8F4FF00170E1EE100A7047FEE7DC
S1131B2000F00FF8002801D0AFF30080AFF300807D
S1131B300020AFF30080AFF30080FFF705FD00F055
S1131B4002F80120704700F001B8FEE700F000F849
S1131B500746384600F002F8FBE7FEE780B5AFF32E
S1131B600080024A11001820ABBEFBE726000200E9
S1131B704EF6A550CFF6F560014603B4684680F3EF
S1131B800988AFF30080FFF7B9FFFFF7C9FFFEE74D
S1131B900448017841F08001017001780906FCD500
S1131BA0704700BF00000240FFF7FEBFFEE7FEE7FC
S9031B7170
