S02000006F70656E626C745F6F6C696D65785F73746D3332683130332E737265630F
S3150800000000500020250400080D0400080F0400080D
S315080000101104000813040008150400080000000075
S31508000020000000000000000000000000170400089F
S3150800003019040008000000001B0400081D0400083D
S315080000406D0400086D0400086D0400086D040008BE
S315080000506D0400086D0400086D0400086D040008AE
S315080000606D0400086D0400086D0400086D0400089E
S315080000706D0400086D0400086D0400086D0400088E
S315080000806D0400086D0400086D0400086D0400087E
S315080000906D0400086D0400086D0400086D0400086E
S315080000A06D0400086D0400086D0400086D0400085E
S315080000B06D0400086D0400086D0400086D0400084E
S315080000C06D0400086D0400086D0400086D0400083E
S315080000D06D0400086D0400086D0400086D0400082E
S315080000E06D0400086D0400086D0400080000000097
S315080000F000000000000000000000000000000000F2
S3110800010000000000000000005FF808F195
S3150800010C10B5054C237833B9044B13B10448AFF337
S3150800011C00800123237010BD500000200000000051
S3150800012C0838000808B5034B1BB103490348AFF35D
S3150800013C008008BD000000005400002008380008A4
S3150800014C034613F8012B002AFBD1181A01387047FD
S3150800015C01F010B801F01DB84FF40062024B0128EB
S3150800016C0CBF5A611A6170470010014070477047FE
S3150800017C08B5054B9B68DB0703D500F037F801205B
S3150800018C08BD0020FCE700BF00080140642000F011
S3150800019C03B800F007B80000014B1880704700BF81
S315080001AC7400002010B500F0D1FE0C4C2368984260
S315080001BC0ED30B4B4FF4805118780A4A48B90120D4
S315080001CC1870516100F0C2FE074B1B88034423606C
S315080001DC10BD002018701161F4E700BF70000020F4
S315080001EC6C00002000100140740000204FF480526F
S315080001FC014B1A61704700BF00100140054B82B0D5
S3150800020C9A6902439A619B6903400193019B02B068
S3150800021C704700BF00100240224A10B5136823F03D
S3150800022C070343F002031360136803F00703022B5A
S3150800023CFAD11D4C236843F48033236023689A0350
S3150800024CFCD5636823F47C1343F4E81363602368D2
S3150800025C43F08073236023689B01FCD5636823F005
S3150800026CF0036360636823F4E06343F480636360BC
S3150800027C636823F460536360636823F0030343F0F5
S3150800028C02036360636803F00C03082BFAD1074872
S3150800029C00F0B8FB002000F0F5F8636823F480033F
S315080002AC636010BD002002400010024000A24A0400
S315080002BC7FB5002400F00AF9FFF7AEFF2020CDE940
S315080002CC03440594FFF79AFF0420FFF797FF1020C5
S315080002DCFFF794FF4FF400630F4D40F201126B6168
S315080002EC4FF480532B6104230C480DEB0301CDE925
S315080002FC012300F0D5FA012309492846CDE9011353
S3150800030C022301A9CDE9033400F0CAFAFFF720FF4E
S3150800031CFFF720FFFCE700BF001001400008014072
S3150800032C18001804104B82B09A6942F001029A61BF
S3150800033C9A6902F001020092009ADA6942F0805238
S3150800034CDA61DB69094A03F080530193019B536810
S3150800035C23F0E06343F080635360536823F0E06353
S3150800036C536002B0704700BF001002400000014005
S3150800037C0268084B82B09A420AD103F5DA33DA6975
S3150800038C42F40002DA61DB6903F400030193019B72
S3150800039C02B07047005C00400268044B9A4201BFE9
S315080003AC034AD36923F40003D3617047005C004009
S315080003BC0010024008B500F0F9FA0E4800F020FAD1
S315080003CC0D4800F01DFA0D4BDA6922F40002DA61C9
S315080003DC9A6922F010029A619A6922F004029A61CB
S315080003ECDA6922F08052DA619A6922F001029A617E
S315080003FC08BD00BF00100140000801400010024073
S3150800040C7047FEE7FEE7FEE7FEE770477047704762
S3150800041C00F06EB870470000002103E00B4B5B58E8
S3150800042C435004310A480B4B42189A42F6D30A4AEF
S3150800043C02E0002342F8043B084B9A42F9D3FFF733
S3150800044CE9FF03F0A9F9FFF733FF7047B439000841
S3150800045C000000204C00002050000020540C002006
S3150800046CFEE7000010B54FF0FF320024044B1A616A
S3150800047C1C61DA60DC60FFF79DFF204610BD00BFEB
S3150800048C0010024038B50E4B05461A784FF47A73AD
S3150800049CB3FBF2F30B4A1068B0FBF3F000F076F8F6
S315080004AC044658B90F2D09D8024629464FF0FF3095
S315080004BC00F03CF82046044B1D6038BD0120FCE7D3
S315080004CC040000200000002008000020074A08B598
S315080004DC1368032043F01003136000F015F800208E
S315080004ECFFF7D0FFFFF71EFF002008BD00200240D3
S315080004FC034A044B11681B780B441360704700BF02
S3150800050C780000200400002007490302CA6803F497
S3150800051CE06322F4E0621204120C134343F0BF6347
S3150800052C43F40033CB60704700ED00E0154B30B553
S3150800053CDC68C4F30224C4F10703251D042B28BF69
S3150800054C0423062D4FF0FF3594BF0024033C05FA0F
S3150800055C03F321EA0303A54022EA0502A340002877
S3150800056C43EA0203ACBF00F16040074A4FEA0313A3
S3150800057CDBB2ABBF00F5614000F00F0080F800332A
S3150800058C135430BD00ED00E014ED00E00138B0F175
S3150800059C807F0BD24FF0E023F021054A586182F890
S315080005AC23100020072298611A61704701207047B2
S315080005BC00ED00E0114AD36813F0100305D010497A
S315080005CCCB6943F00203CB611023D268500706D5DA
S315080005DC0B4943F00403CA6942F00102CA61074A8F
S315080005ECD169C90708D50648C16941F00401C1613A
S315080005FCD16921F00101D161D36070470020024016
S3150800060C80000020064B186910F0800007D0054AB8
S3150800061C5A6002F188325A601869C0F3C0107047E4
S3150800062C0020024023016745034A0020136943F062
S3150800063C80031361704700BF0020024070B5054661
S3150800064C00F08CFC0646114CE368D80712D4E36814
S3150800065C990644BF2023E360E368DA0606D4E36907
S3150800066CDB0703D4E06810F0040007D0FFF7A2FFFD
S3150800067C012003E06B1CE7D00DB9032070BD00F018
S3150800068C6DFC801BA842DFD9F7E700BF00200240AB
S3150800069C2DE9F84FDFF894A01F469AF8183005464E
S315080006AC012B884691463FD001234CF250308AF8EC
S315080006BC1830FFF7C3FF90BB012D03D0022D14BFD2
S315080006CC0425022500263346DFF864B03401C4F14C
S315080006DC2001A4F1200207FA01F129FA04F4CAF858
S315080006EC1C300C4327FA02F21443DBF81020A4B290
S315080006FC42F00102CBF810204CF2503028F8164084
S3150800070CFFF79CFFDBF8102022F00102CBF8102033
S3150800071C28B90136F2B295424FF00003D6D8002319
S3150800072C8AF81830BDE8F88F0220FBE78000002015
S3150800073C002002400022064BDA61064B1A6942F089
S3150800074C02021A6158611A6942F040021A6170472E
S3150800075C80000020002002402DE9F041264F054676
S3150800076C3B7E8846012B44D001243C7603684CF228
S3150800077C5030022B1AD1FFF761FF20B1012000235C
S3150800078C3B76BDE8F0811D4CF86123694CF250307C
S3150800079C43F004032361236943F040032361FFF705
S315080007AC4DFF236923F004032361E8E7FFF746FFAF
S315080007BC0028E3D14FF0FF33C8F800302046AE6866
S315080007CC0E4CD5E9023203EB8223B342D7D9304615
S315080007DCFFF7B0FF4CF25030FFF730FF236923F0D8
S315080007EC0203236110B1C8F80060C8E706F58066F5
S315080007FCE7E70220C5E700BF800000200020024082
S3150800080C224B98420BD103F58433DA6842F0040282
S3150800081CDA60DA6822F004020020DA6070471C4BB2
S3150800082C984209D103F58233DA6842F00802DA6095
S3150800083CDA6822F00802EFE7164B984209D103F55D
S3150800084C8033DA6842F01002DA60DA6822F01002B5
S3150800085CE2E7114B984209D103F57C43DA6842F07A
S3150800086C2002DA60DA6822F02002D5E70B4B9842B0
S3150800087C09D103F57843DA6842F04002DA60DA689F
S3150800088C22F04002C8E70120704700BF000801406B
S3150800089C000C0140001001400014014000180140F2
S315080008AC2DE9F04F0D680446C5F30F2595FAA5F208
S315080008BC0326B2FA82F204274FF0011C40F2011EFD
S315080008CC35FA02F001D1BDE8F08F012393402B4293
S315080008DC6AD0072A88BFA2F10803D1F804A08ABFF8
S315080008EC0CFA03F30EFA02F343F08063BAF1080F1D
S315080008FC0ED1E0684FEA132898FAA8F9B9FA89F9DB
S3150800090C20EA0808086900FA09F048EA0000E060DD
S3150800091C4FEA136893FAA3F9B9FA89F993FAA3FB80
S3150800092C0F20BBFA8BFB4FEA890900FA09F954F830
S3150800093C08004FEA8B0B20EA09090AFA0BFA49EA6E
S3150800094C0A0A44F808A0486820F0080001282BD1A8
S3150800095C93FAA3F9B9FA89F993FAA3F0B0FA80F0E5
S3150800096C4FEA890906FA09F92AEA09094FEA800AB7
S3150800097C886800FA0AF049EA000044F8080093FA75
S3150800098CA3F9B9FA89F993FAA3F3B3FA83F34FEAFD
S3150800099C890907FA09F920EA0909C8689B009840E9
S315080009AC49EA000044F80800013289E7144B1A6832
S315080009BC42F001021A601A689207FCD55A6822F0AE
S315080009CC03025A605A6812F00C0FFBD11A6822F00F
S315080009DC80721A60186810F00070FBD158601A689B
S315080009EC22F450221A601A6822F0F80242F08002A9
S315080009FC1A6098605A6A42F080725A62704700BF51
S31508000A0C00100240014B1860704700BF0000002020
S31508000A1C0048704765390008004870474539000892
S31508000A2C00487047243900080B46012B11460ED195
S31508000A3C1378C3F34113022B0BD15378012B08D12E
S31508000A4C9388072B05D19E23034A01F099BE0120F2
S31508000A5C70470020704700BF86380008F0B5284953
S31508000A6C85B00B7823BB274A01AED2F8E847019428
S31508000A7CD2F8EC470294D2F8F027039201220A70B6
S31508000A8C21490F4616F8015B013305F00F022C09B4
S31508000A9C9F2D8CBF37343034092A8CBF373230320D
S31508000AAC0C2B0C704A7001F10201EBD100233B763A
S31508000ABC70B9164B1B681A88154B5A8001230133DB
S31508000ACCDBB213485B0043F44073038005B0F0BDFA
S31508000ADC032813D80D4B53F820402046FFF730FB5C
S31508000AECC3B21F2B28BF1F232046094AE118884288
S31508000AFCE5D010F8014B22F8024FF8E70020E5E79D
S31508000B0CA000002000F0FF1F1C0000200C00002095
S31508000B1CA200002072B6704762B67047FFF7FABF9C
S31508000B2C10B500F08DF9C8B1FFF722FBB0B100F093
S31508000B3C55FBFFF797FC00F0D1F900F083F9084B49
S31508000B4C20F0604020F07F00986000F07BF9446844
S31508000B5CFFF7E2FF2346BDE81040184710BD00BF5B
S31508000B6C00ED00E0F8B506460F4615460024AC42E3
S31508000B7C00D1F8BD3B5D335500F09CFB0134F6E71C
S31508000B8C2DE9F84306460025FFF73CFD06F1040956
S31508000B9CD6F8008059F8057005EB080400F08AFBB6
S31508000BAC21463A4600230220FFF772FD044668B92F
S31508000BBC55F80830BB4204D10435B5F5007FE7D1AA
S31508000BCC0124FFF731FD2046BDE8F8830024F8E739
S31508000BDC38B5104B044698420D4608D00E4A914239
S31508000BEC16D0FFF7CDFF18B90024204638BD0B4C9C
S31508000BFCC5F30803002BF7D123689D42F5D0204690
S31508000C0C4FF40072294640F8045BFFF7ABFFECE79C
S31508000C1C1C46F1E7E400002000400008E80200202A
S31508000C2C2DE9F0411F46036821F4FF780133044689
S31508000C3C0D46164628F0010806D14FF400724146B7
S31508000C4C40F8048BFFF78EFF2368434505D02046F2
S31508000C5C4146FFF7BDFF0446E8B123680435ED1A93
S31508000C6C2544374400F026FB231DEB1AB3F5007F09
S31508000C7C08D32168204601F50071FFF7A9FF044641
S31508000C8C48B1051D16F8013BBE4205F8013BE9D1F2
S31508000C9C0120BDE8F0810020FBE700004FF0FF3390
S31508000CAC024A1360024A1360704700BFE80200202C
S31508000CBCE400002030B40E4D4C1E0B46291A8C420B
S31508000CCC12D80C4CA0420FD3411E1944A9420BD87A
S31508000CDC20F4FF7121F00101A142014630BC0CBF82
S31508000CEC05480648FFF79CBF002030BC704700BF7C
S31508000CFCFFFF010800400008E4000020E80200207D
S31508000D0C30B500241C4D4A1E2B1A87B09A42019402
S31508000D1C20D81A4A20F47F7323F00303934219D37D
S31508000D2C421E0A44AA4215D80144C91AC1F38F2592
S31508000D3CC1F3090109B10135ADB2002404930123AD
S31508000D4C02940593FFF75EFCA3B29D4205D80124D5
S31508000D5CFFF76AFC204607B030BD00F0ABFA01A9D4
S31508000D6C02A8FFF7F9FC013420B9049B03F580634C
S31508000D7C0493E9E70024EBE7FFFF010800400008AD
S31508000D8C07B50F480368013317D0D0E9013213446D
S31508000D9CC2680C49134402691344426913448269B4
S31508000DAC1344C26913445B42019304230DEB0302FB
S31508000DBCFFF736FF03B05DF804FB0120FAE700BF26
S31508000DCCE40000200C4100080A4AD2E900310B4421
S31508000DDC91680B44D1680B4411690B4451690B4457
S31508000DEC9169D2F80C210B44D3420CBF0120002088
S31508000DFC704700BF004000080A4808B5036801336D
S31508000E0C05D109480368013306D1012008BDFFF74F
S31508000E1CB7FE0028F5D1F9E7FFF7B2FE003818BF80
S31508000E2C0120F3E7E4000020E802002000487047A0
S31508000E3C00400008FFF732BFFFF73CBFFFF760BF63
S31508000E4CFFF7C2BFFFF7F2BF08B5FFF799FF18B156
S31508000E5CBDE80840FFF7D0BF08BD0000184B82B0AC
S31508000E6C9A69012042F400629A619A69154902F45A
S31508000E7C00620192019A5A685B68C2F3C22213F4A3
S31508000E8C605F14BF022301238A5C0F490968D140AD
S31508000E9C4B430E490E4AB3FBF1F310604FF6FF7045
S31508000EAC0021013BD0629362536943F001035361FD
S31508000EBC084B526A1960084B1A8002B0704700BF7B
S31508000ECC001002402038000800000020A08601000F
S31508000EDC002C0140F0040020EC0400200B4BDA68CF
S31508000EEC42F40062DA60DA6822F40062DA609A691F
S31508000EFC22F400629A614FF0E02300221A615A61CB
S31508000F0C9A614FF00072C3F8042D70470010024026
S31508000F1C0B4B0C485B6A028810B59B1A9BB2632B69
S31508000F2C0DD96421B3FBF1F3074C2168194403EB83
S31508000F3C830303EB830302EB83022160028010BD5B
S31508000F4C002C0140EC040020F004002008B5FFF743
S31508000F5CDFFF014B186808BDF004002008B5FFF741
S31508000F6CD7FF014B186808BDF004002010B50446DD
S31508000F7C002000F0FDFA38B101222146002000F0CD
S31508000F8C01FB431E5842584110BD000007B50D4BD6
S31508000F9C0D480360FFF7ECF9012301A90020ADF811
S31508000FAC043000F065FE00F0C5F8B0F5FA6F06D20D
S31508000FBC4FF4FA6003B05DF804EB00F0B5B803B073
S31508000FCC5DF804FB005C00403805002008B500F00D
S31508000FDC45FE034B03480360BDE80840FFF7DCB940
S31508000FEC005C00403805002013B53F2904468DF8EF
S31508000FFC071003D98D21114800F070F80122002042
S3150800100C0DF1070100F0C8FA012803D091210B480D
S3150800101C00F064F8214600209DF8072000F0BCFA81
S3150800102C9DF80730834203D09421044800F056F803
S3150800103C002000F0BBFA02B010BD00BF483800080B
S3150800104C2DE9F84380461D4F00200E4601F08AFE16
S3150800105C00214FF0FF3001F04DF83C78184D7CB963
S3150800106C2846FFF783FF012806D12B78013B3E2B38
S3150800107C9EBF144B38701C7000242046BDE8F883BC
S3150800108CDFF8409099F8000001302844FFF76EFF0E
S3150800109C01280446F0D199F800302A780133DBB2DE
S315080010AC9A4289F80030E7D14046691CFFF75AFD89
S315080010BC00233B7099F800303370DEE735050020C5
S315080010CCF5040020F40400200120FFF745B80020A1
S315080010DCFFF742B8FFF74AB8FFF749B808B500F06A
S315080010ECE9F8FCE710B500F0A7F8012814D00B4C6A
S315080010FC2378012B10D1FFF729FF094B094A1B68E6
S3150800110C1268134403F5FA73984205D30023237027
S3150800111CBDE81040FFF704BD10BD00BF180800203D
S3150800112C1008002014080020014B1860704700BFF7
S3150800113C10080020014B1868704700BF10080020E3
S3150800114C08B5044B1B78012B03D1FFF7FFFE024BA6
S3150800115C186008BD1808002014080020012208B5DC
S3150800116C034B1A70FFF7ECFFBDE80840FFF7BABF50
S3150800117C1808002008B5FFF7D1FC00F099F8FFF71E
S3150800118C6DFEFFF757FE00F017F8BDE80840FFF7AD
S3150800119CE5BF08B500F08EF8FFF7BAFE00F054F874
S315080011ACBDE80840FFF79EBF08B5FFF7CFFE014B19
S315080011BC186008BD58080020002208B5054B1A709F
S315080011CCFFF7F2FF00F07AF8FFF7E0FE0322024B76
S315080011DC1A7008BD5C08002035000020002208B5EE
S315080011EC034B1A70FFF7E0FFBDE80840FFF7EEBEA9
S315080011FC5C08002008B5064B1B78032B02D1C9B234
S3150800120CFFF7F2FE00F072F8BDE80840FFF7CCBF16
S3150800121C35000020064B1B78022B05D006D9052B6A
S3150800122C14BF3F20812070470820704781207047E3
S3150800123C35000020FFF7EEBF08B500F04DF8003872
S3150800124C18BF012008BD000013B515480DF107019C
S3150800125CFFF7F6FE01280BD10322124B1A70124B1C
S3150800126C1870FFF7A1FF9DF807100D4800F046F817
S3150800127CFFF7E2FF012810D10B4C2378012B0CD178
S3150800128CFFF764FE094B1B68C01A41F28733984274
S3150800129C03D900232370FFF787FF02B010BD00BFE8
S315080012AC19080020350000205C080020580800208A
S315080012BCFEF76CBFFEF76DBF006870470022054B42
S315080012CC9A64A3F8442083F83F20A3F8402083F8B7
S315080012DC4220704760080020034B93F83F00003803
S315080012EC18BF0120704700BF600800200022024B7F
S315080012FC83F84220704700BF60080020F8B50378D1
S3150800130C0546FF2B964C33D10122002384F83F2047
S3150800131C41F2FF0284F84030A3702280FFF77AFF6F
S3150800132CE070FFF787FF2071FFF784FF40F2011387
S3150800133CE3800823000A6071A4F84430FFF77AFDAD
S3150800134C94F84230012B01BF41F2FE03238002239D
S3150800135CA4F84430B4F94410002940F3FF80012363
S3150800136C84F842307E4889B2BDE8F840FFF742BFA0
S3150800137C94F83F20012A40F0F180D22B1ED8C82BB6
S3150800138C02D842F2FE0344E0C93B092BF9D801A264
S3150800139C52F823F0C51400088F1300088F130008A1
S315080013ACD71400088F1300088F1300085915000866
S315080013BCEF1400083F1500082915000803F10D0263
S315080013CCD2B20B2ADDD8F33B0B2BDAD801A252F892
S315080013DC23F000BF6B14000843140008111400080E
S315080013EC5B1400088F1300088F1300088F1300086E
S315080013FC9F1400088F130008AD140008B1140008D8
S3150800140C5D150008FFF706FF6A78904204D842F289
S3150800141CFE23238002230BE0A16C5248FFF7A2FBA4
S3150800142CFF236A782370A36C1344A3646B78013387
S3150800143CA4F8443084E7FFF7EDFE6B788342E6D2D6
S3150800144C281DFFF739FFA06401466A78E5E7FF23F4
S3150800145C281D2370FFF730FFA0640123E8E7FF235C
S3150800146C281D2370FFF728FF0025A66C8719BE4296
S3150800147C08D10023012225716371E38062706380B1
S3150800148C0823D5E716F8013B1D44EDB2FFF712FF0A
S3150800149CEDE7354BFF22A3640723C4E90023EFE7E6
S315080014ACFE23B6E7FF23238094F84030A37000236D
S315080014BCE370A3800623BBE7A66CFFF7ABFE6A1C9A
S315080014CC411E3046FFF7B8FC10B943F2FE13A0E7ED
S315080014DCFF232370FFF79EFEA36C01380344A36415
S315080014ECBBE7FFF797FE6B78013898428FDDFF2331
S315080014FC23700123A4F84430697821B9FFF7A4FCBA
S3150800150C0028E2D01CE7A06CAA1CFFF795FC002863
S3150800151CDBD06A78A36C1344A36411E7FF23002578
S3150800152C2380A570FFF776FE0723E070A580A571CA
S3150800153C7EE70430FFF7C0FEA36C01461846FFF79A
S3150800154C7DFC0028C1D0FF23237086E7FFF7E8FA55
S3150800155C002384F83F3084F84030F4E7F8BD00BF28
S3150800156C600800206108002077390008704770472A
S3150800157C08B518B9024800F097F908BD0020FCE731
S3150800158C8C090020134618B90A46024902F0ECB831
S3150800159C002070478409002020B993B20A460249F4
S315080015AC02F032B8002070473009002010B9024901
S315080015BC01F0F4BF00207047300900207FB5124CAB
S315080015CCAC220021204602F0DFF804F16C0340251A
S315080015DC009300230D4E1A461946CDE9015603957C
S315080015EC04F1580001F090FF04F11803009300234E
S315080015FC2E4401221946CDE901560395201D01F00A
S3150800160C83FF04B070BD00BF2C090020AC08002075
S3150800161C10B5054C204601F08DFFA4F1540001F0DD
S3150800162C89FF012010BD00BF8409002038B5074C7E
S3150800163C0025204600F8605B00F028FA04F10C003F
S3150800164C84F8595000F022FA657138BD2C0900202F
S3150800165C2DE9F0414B798046FF2B0E4627D12E4DAE
S3150800166C0C7895F8593013BB6B7903BB8B788F18AC
S3150800167C0C442B70BC4206D2237823449F4202D3D7
S3150800168C6378042B03D1A01B80B2BDE8F0810B2B29
S3150800169CF9D0052B22D12146404600F075FC40B9FD
S315080016AC4FF0E023D3F8F03DD80700D500BE002054
S315080016BCEBE7A378DA0914D06A797AB96B71A3883F
S315080016CC2A79C3F30A03A3F500714B424B4163F322
S315080016DC4102404611492A7101F060FF23781C44E7
S315080016ECC8E795F85920002AF8D185F85930A38807
S315080016FC4046C3F30A03A3F500725342534195F8C7
S3150800170C5820074963F3410285F8582001F0CEFFAB
S3150800171C0028E3D1C4E700BF2C09002030090020BB
S3150800172C8409002070B5184D1C4695F859300646A4
S3150800173C8B4214D1B5F86430A4B22BB12246E96DAC
S3150800174C05F1600000F02DF9002010492246FFF73C
S3150800175C0DFF30460E4901F0A9FF012070BD6B79CB
S3150800176C8B420FD10020A1B2FFF701FF3046291D8D
S3150800177C01F014FF0028F0D122463046291D01F04D
S3150800178CDBFEEAE70020E9E72C090020AC0800207C
S3150800179C840900200A4492B291424FEA400001D8CB
S315080017AC824201DB121A92B21046704738B50546CA
S315080017BCD41A0846A988A4B29A423CBF04EB410441
S315080017CCA4B2B4B1A14205D2914294BF521A52188E
S315080017DC93B26B81994209D9EA882968C2F30E0239
S315080017EC02FB031101F0FCFF012038BD5B1A9BB20A
S315080017FCF0E72046F9E72DE9F047BDF82050868832
S3150800180C5C1BA4B2AB423CBF04EB4604A4B207462D
S3150800181C8846FCB1A64206D234469E4294BF9B1B10
S3150800182C9B199DB24581944228BF1446AE4214D9E1
S3150800183CB7F806A0A6EB050939681FFA89F9CAF3A1
S3150800184C0E0A4C450AFB05110AD840460AFB04F257
S3150800185C01F0C6FF2046BDE8F087AD1BADB2E5E743
S3150800186C0AFB09F9A61B1FFA89F94A46404635446C
S3150800187C01F0B6FF05FB0AF2396892B208EB0900CB
S3150800188CE6E7B2F5004F0DD882809DF80020C3F329
S3150800189C0E0343EAC233C3800023016043810381EC
S315080018AC01207047002070470246138952898088A8
S315080018BC92B29BB2934236BFC2EB40029B1A9B185C
S315080018CC9BB2984228BF184670470389428981887B
S315080018DC92B29BB2934236BFC2EB41029B1A9B183B
S315080018EC9BB299428CBF002001207047038941891D
S315080018FC828889B29BB28B4236BFC1EB42015B1A16
S3150800190C5B189BB29A4286BFD01A80B200207047E9
S3150800191C0289438910B504469BB292B2FFF746FF7B
S3150800192C61890346024689B2A088FFF733FF6081B6
S3150800193C184610BD37B5038945890446ADB20095DE
S3150800194C9BB2FFF758FF61890346024689B2A08805
S3150800195CFFF720FF6081184603B030BD70B50589C6
S3150800196C04460E46ADB2FFF7B0FF10B1E079C009D8
S3150800197C13D02846A388834210D9E2882368C2F379
S3150800198C0E02314602FB003001F02AFF01222946DD
S3150800199CA088FFF7FFFE2081012070BDC01A80B217
S315080019ACE9E72DE9F84F074688461446002A32D04F
S315080019BCC37906894189DB098588B6B289B22DD1E6
S315080019CC8E4235BFC1EB4503711A9B198BB238BFD2
S315080019DC9BB2AB4256D2EB1A9BB29A4228BF1C4614
S315080019ECB146A94538D2B7F806B0A5EB090A386846
S315080019FC1FFA8AFACBF30E0BA2450BFB090030D360
S31508001A0C41460BFB04F201F0EBFE22463146B88840
S31508001A1CFFF7C0FE38812046BDE8F88FAA4209D3E5
S31508001A2C95B3C388541BC3F30E0303FB04880E46F5
S31508001A3C2C46D5E78E424FEA450236BF531A731A1F
S31508001A4C9B199BB223449342CADB2A1B284692B2A3
S31508001A5CFFF7A0FE0646C3E7A9EB05091FFA89F9A5
S31508001A6CBFE70BFB0AFA651B1FFA8AFA5246414670
S31508001A7CA94401F0B5FE09FB0BF2386892B208EBE3
S31508001A8C0A01C0E70024C6E72C46C4E700234381B5
S31508001A9C0381012070470A46018908B589B20346B5
S31508001AAC8088FFF777FE188108BD0A46418908B574
S31508001ABC89B203468088FFF76DFE588108BD70B55C
S31508001ACC04894389A4B29BB285889C4236BFC3EB72
S31508001ADC4502E21A121992B2954205D2A54209D8C4
S31508001AEC2A46631B9BB24381B2B9C1E90022002086
S31508001AFC886070BD2A462B199BB243819D420ED92C
S31508001B0C0068A34200EB03064E600BD200230A8042
S31508001B1C4B80ECE7641BA4B2A542FBD9EEE75B1B32
S31508001B2C9BB2EBE7521BEC1A13440C804B80DFE795
S31508001B3C0389428970B59BB292B28588934236BFA7
S31508001B4CC2EB45049C1AE418A4B2A54207D8002394
S31508001B5CC1E900330020886070BD5B1B9BB29D42B7
S31508001B6CFBD995420AD900689A4200EB03064E60E7
S31508001B7C07D9D21A00230A804B80EBE7521B92B284
S31508001B8CEFE7ED1A1B1B0D804B80E4E72DE9F041BE
S31508001B9C05460024194E1A4FDFF868803178E2B2F0
S31508001BAC4B1CDBB2934210D834220021164801F0A4
S31508001BBCEBFD1022FF21154801F0E6FDBDE8F041CA
S31508001BCC1022FF21124801F0DFBD91420DD92421C4
S31508001BDCD8F8003001FB02334BB94FF0E023D3F8A9
S31508001BECF03DDB0708D4BDE8F081F6D13B46284624
S31508001BFCDB6898470134D1E700BEF4E79C0A00205D
S31508001C0C80390008A00A0020A50A0020A90A00208D
S31508001C1CB90A002070B50C4605461646486900F008
S31508001C2CE1FD3246284663690121BDE87040184734
S31508001C3C0346034A10780BB101F032B801F035B8F7
S31508001C4C48000020704770470020704700207047F6
S31508001C5C70477047034600201870704708B5034B49
S31508001C6C1878FFF7F6FF012008BD00BF48000020D2
S31508001C7C2DE9F84FDFF8A480054698F800300E4693
S31508001C8CFF2B46D149B94FF0E023D3F8F03DDB07DB
S31508001C9C00D500BE0020BDE8F88F002434220021B0
S31508001CAC1F4801F071FD1F4B1F4F20481C70FFF792
S31508001CBCEDFE1F4B1F4A38461A60FFF7CBFF3B78E1
S31508001CCCDFF87490FF2BC9F80000DCD04FF0240B1A
S31508001CDCDFF868A00CE091421DD9D9F800300BFB4F
S31508001CEC0233002BCFD05B680134002BCBD098473E
S31508001CFC3978E2B24B1CDBB29342ECD83146284613
S31508001D0C88F8005000F0D2FF0028BCD0284600F016
S31508001D1CC7FF0120BFE7B6D15346E4E748000020C9
S31508001D2CA50A0020A40A00209C0A00203C000020DA
S31508001D3CD809002038000020A00A002080390008A5
S31508001D4C2DE9F04343780446023B0E4685B0052B35
S31508001D5C16D8DFE813F00600B1002A003200C800D6
S31508001D6CCD000021824B1A7822F001021A701A78DB
S31508001D7C22F002021A7059701A7861F382021A70EC
S31508001D8C7C4B1F6816B930463B6898472146381D68
S31508001D9CFFF7E4FD054616B901203B689847002D68
S31508001DAC77D03246617820789AE0714B1A78D70743
S31508001DBC76D51A7842F00402E1E76D4A1378DD0706
S31508001DCC6ED5137823F004031370D9E791426AD9B8
S31508001DDC2421D9F8003001FB0233002B65D10135DB
S31508001DEC3978EAB24B1CDBB29342EFD8604D2B78AC
S31508001DFC58072CD52B7823F004032B700023CDF829
S31508001E0C0630CDF80A30ADF80E3023788DF804304C
S31508001E1C05238DF80530574BD3F800801EB930468C
S31508001E2CD8F80030984701A908F10400FFF796FD89
S31508001E3C07461EB90120D8F800309847002F42D122
S31508001E4C4FF0E023D3F8F03DD90700D500BEEB7868
S31508001E5CDA0725D50023CDF80630CDF80A30ADF8CB
S31508001E6C0E3023788DF8043003238DF8053063681B
S31508001E7C0293404B1D6816B930462B68984701A942
S31508001E8C281DFFF76BFD044616B901202B689847E9
S31508001E9C0CBB4FF0E023D3F8F03DDB0700D500BEB2
S31508001EAC05B0BDE8F0839AD143461B6A002B96D041
S31508001EBC61682078984792E700252F4FDFF8BC8099
S31508001ECCDFF8BC908CE732469DF805109DF80400A7
S31508001EDCFFF7B8FEBBE732469DF805109DF80400DF
S31508001EECFFF7B0FEDCE7274A13780133DBB26BE762
S31508001EFC017911F00F033FF443AF1D4D4FEA430C24
S31508001F0C05EB430303EBD1131A7D1B4BC8091B784E
S31508001F1C9A4228D224271A4B1B6807FB0233002B3C
S31508001F2C3FF42EAFDF69002F3FF42AAF6544054412
S31508001F3C95F82430627923F0010385F8243095F856
S31508001F4C2430203523F004032B712078A368B84776
S31508001F5C0028A5D12B7943F001032B712B7943F07B
S31508001F6C04032B710CE77FF40BAF044BDAE700BFC5
S31508001F7CA50A0020D80900209C0A002080390008F0
S31508001F8CA00A0020A40A002038B58A780D4B12F056
S31508001F9C08020C461D7808D04FF0E023D3F8F03D24
S31508001FACDB0700D500BE002038BD074B20469978C4
S31508001FBC01F054FA0028EFD021462846BDE83840EF
S31508001FCC01F012B948000020A50A0020CB0901F03F
S31508001FDC0F020448243303EB42030021184401F092
S31508001FEC11BA00BFA50A0020CB0901F00F0204485C
S31508001FFC243303EB42030021184401F01EBA00BF38
S3150800200CA50A002070B5144C01F00F0604EB460423
S3150800201C04EBD11494F824501048ED0704F120046D
S3150800202C007808D54FF0E023D3F8F03DDB0700D550
S3150800203C00BE002070BD257945F00105257101F01B
S3150800204C5DF90028F6D1227960F300022271227913
S3150800205C60F382022271E5E7A50A002048000020F9
S3150800206C10B50C460B4B187801F064F90A4904F0C4
S3150800207C0F0301EB430101EBD41191F8243043F023
S3150800208C020381F8243091F8243043F0010381F8D7
S3150800209C243010BD48000020A50A002010B50C46B7
S315080020AC0B4B187801F076F90A4904F00F0301EB8B
S315080020BC430101EBD41191F8243023F0020381F883
S315080020CC243091F8243023F0010381F8243010BD14
S315080020DC48000020A50A0020054B01F00F0203EB6F
S315080020EC420303EBD11191F82400C0F3400070476A
S315080020FCA50A00202DE9F04F984B87B01B78FF2BCB
S3150800210C3DD0974F974B00201D682C4654F8043B3E
S3150800211C9847204603A9FFF7FBFB04462B680120CA
S3150800212C984764B39DF80D30013B072B00F2D0821B
S3150800213CDFE813F008001200C602AE02B8021B0054
S3150800214C7002BF029DF80C00FFF720FD00F042FB61
S3150800215C9DF81030BB70D5E79DF80C00FFF716FDFF
S3150800216C00F038FBFEF7B3FFCCE77F4A13784BB980
S3150800217C4FF0E023D3F8F03DDC0700D500BE07B0DE
S3150800218CBDE8F08F1378013BDBB21370137803F0BC
S3150800219CFF00002BB6D1724C9DF80C50237843F0F7
S315080021AC0103237094F8243060F3000384F8243078
S315080021BC94F8243060F3820384F8243094F825309C
S315080021CC60F3000384F8253094F8253060F3820315
S315080021DC84F8253000F006FB9DF8102002F0600309
S315080021EC602B07D14FF0E023D3F8F03DDD072BD554
S315080021FC00BE29E0402B0BD15C4800F0F3FA012114
S3150800220C284604AAFEF710FC00287FF47BAF1BE0D7
S3150800221C02F01F02012A00F07E81022A00F0AC812E
S3150800222C002ADFD1202B21D19DF814300F2B0BD887
S3150800223C4F4A23441B791278934210D24D4A11689F
S3150800224C242202FB031161B99DF80C00002101F050
S3150800225C71F880219DF80C0001F06CF852E7F3D167
S3150800226C454904AA2846FFF7D5FCCDE7002BB9D17A
S3150800227C9DF81130092BB5D801A252F823F000BFEE
S3150800228C01250008EF240008F1210008DB240008CA
S3150800229CF1210008B522000833240008F1210008B2
S315080022ACCF220008D922000804A800F0A1FA284673
S315080022BC9DF8121001F038F8237843F002032370C6
S315080022CC20E763788DF80A3001231DE19DF812602A
S315080022DC63789E4213D063786BB10021284600F0D0
S315080022EC2FFD284600F0EAFF94F802802846FFF7EF
S315080022FC4DFC84F80280667036B9FEF7E8FE28466F
S3150800230C04A900F02BFAFDE6701EC0B2FEF784FB9A
S3150800231C10B14378022B08D04FF0E023D3F8F03DE8
S3150800232CD9077ED4002363705CE7C37900F10906EC
S3150800233CC3F38012C3F340131B0143EA42132278FA
S3150800234C22F03002134323704388C3180093009B72
S3150800235CB34213D8FEF7B8FED1E700BF48000020F9
S3150800236CA50A0020D8090020A40A0020350A00086E
S3150800237C9C0A0020A00A00208039000873780B2BD1
S3150800238C02BF3278F378B618727818BF0123042A7C
S3150800239CC2D14FF0000B009AA2EB060A1FFA8AFA72
S315080023ACB54A5FFA8BF811784A1CD2B24245B3D9B2
S315080023BC414515D92421B14A126801FB0822002A85
S315080023CCAAD0D2F810903146524628460193C847EF
S315080023DC08288146019B21D982451FD300210CE090
S315080023EC9AD1A74AEDE7B07801310244D2B2224419
S315080023FC1079FF2890D182F80480CAB29342F2D899
S3150800240C434631464A469F4801F06CF89A4B4E446F
S3150800241C1B780133DBB2434599D87DE70BF1010BE9
S3150800242CBEE700BE7EE7BDF812301A0AD8B2531EB4
S3150800243C0E2B3FF609AF01A151F823F085240008AD
S3150800244CA7240008C12400085522000855220008B4
S3150800245CD5240008A7240008552200085522000890
S3150800246C5522000855220008552200085522000856
S3150800247C552200089D240008FEF7CAFA02460028D1
S3150800248C3FF4B0AE1223284604A900F079F9BBE64E
S3150800249CFEF7C6FA024640B9D6E6022A07D1FEF777
S315080024ACBBFA024600283FF49DAE5388EBE7FFF7CC
S315080024BCCDFBEFE7BDF81410FEF7D0FA024600285C
S315080024CC3FF4C2AE0378DEE7FFF7BEFBF6E7BDF8CE
S315080024DC1230012B7FF4B8AE237843F0080323702F
S315080024EC0DE7BDF81230012B7FF4AEAE237823F03E
S315080024FC0803F4E72378C3F340129B0803F002039E
S3150800250C1343ADF80A30022328460DF10A0204A932
S3150800251C00F036F9F6E59DF814300F2B3FF694AE1D
S3150800252C554A23441B79127893421ED2534A116892
S3150800253C242202FB031100293FF486AE284604AA7E
S3150800254CFFF768FB00287FF4DDAD9DF8103013F01B
S3150800255C60047FF479AE00F045F99DF811300A2B2A
S3150800256C07D00B2B3FF4CBAE6EE67FF46DAE444929
S3150800257CE4E78DF80A40A7E69DF814100A073FF51C
S3150800258C31AE01F00F023C4804EB420202EBD112C9
S3150800259C127D0078824214D238480668242000FB43
S315080025AC0266ABB99DF8113003F0FD02012A15D06D
S315080025BC002B7FF417AE2846FFF78EFDADF80A0000
S315080025CCA1E700F08E80002B7FF43EAE0026E9E7EB
S315080025DC002E3FF439AE314604AA43E6BDF8122064
S315080025EC22B9012B284612D1FFF758FD002E3FF4CD
S315080025FC89AD314604AA2846FFF70CFB002000F0EB
S3150800260CF1F894F82530DE073FF57CAD77E6FFF751
S3150800261C27FDEBE79DF8101001F00F0407EB4402B9
S3150800262C02EBD11292F8243023F0010382F82430FD
S3150800263C92F8243023F0040382F824303CB9059B25
S3150800264C9DF811209DF80C0000F0E0F85AE50A4BAD
S3150800265C127D1B789A4217D22420084B1B6800FB64
S3150800266C0233002B3FF484AD9C699DF81120059B21
S3150800267C9DF80C00A04745E59C0A0020A00A0020FE
S3150800268C80390008B90A00207FF472AD174BEBE7C6
S3150800269C3B78D8077FF536AD3878C0F3C000FEF71F
S315080026AC19FD2FE53B78D9077FF52CADFEF714FD00
S315080026BC28E5049B002B3FF425AD0598984721E5A2
S315080026CCFB78DA077FF51EAD0498FFF7BCFA19E517
S315080026DC4FF0E023D3F8F03DDB077FF513AD00BED2
S315080026EC10E5024E002B7FF476AF5BE780390008C5
S315080026FC144B70B59989DA8905468C1AA4B293F9E4
S3150800270C0000402C28BF402400280FDA914213D031
S3150800271C9968A1B122460C4801F062F880210A4A50
S3150800272C23462846BDE87040FFF76CBC91424FF033
S3150800273C0001F4D10A46F3E780210022F0E70846A7
S3150800274C70BD00BF1C0B0020DC0A0020C943002307
S3150800275C01F080011A46FFF755BC000030B4074C4F
S3150800276C0546224608680B46496803C200222846D5
S3150800277CC4E9022230BC1978FFF7E8BF1C0B00200D
S3150800278CF8B5134E0C463746054608684968B260D4
S3150800279C03C70021F181E1888B4228BF0B46B38120
S315080027AC89B14BB142B94FF0E023D3F8F03DDB07C2
S315080027BC00D500BE002005E02846FFF799FF002843
S315080027CCF1D00120F8BD28462178FFF7BFFFF6E7C0
S315080027DC1C0B002014220021014800F0D5BF00BFB5
S315080027EC1C0B0020014B1861704700BF1C0B002006
S315080027FC10B50246044C00682346516803C30023EF
S3150800280CC4E9023310BD00BF1C0B002070B5284C60
S3150800281C1E462378C909B1EBD31F054613D03EB122
S3150800282C4FF0E023D3F8F03DDB073FD4002070BD12
S3150800283C214600F0C3FC23691BB122460321284616
S3150800284C98470120F3E794F90030A068002B05DBC4
S3150800285C0028EBD03246174900F0C2FFA268E3897C
S3150800286C32443344A260E2889BB29A42E38101D097
S3150800287C3F2E17D8236933B928462178FFF766FF08
S3150800288C0028DED1CCE702212846094A984701469A
S3150800289C0028F1D1284600F04DFD8021284600F08D
S315080028AC49FDCEE72846FFF723FFE9E700BEBDE75B
S315080028BC1C0B0020DC0A00201E4AF0B50023164625
S315080028CCC40900F00F0504F1020C84F0010E12F88D
S315080028DC0C70D8B237B157788F421DD11778AF42E2
S315080028EC1AD1F0BD012904D106EB83077744BF78CA
S315080028FC97B91778FF2F01D0AF420DD15778FF2F14
S3150800290C08D1012206F8235006EB83035970234499
S3150800291C9A70E6E78F42F4D00133082B02F10402D1
S3150800292CD5D14FF0E023D3F8F03DDB0700D500BE38
S3150800293C0020D6E7330B0020400000F180405308F6
S3150800294C00F5C040F0B50D4606461C46013C06D2BD
S3150800295CD20744BF11F8132020F82320F0BD35F810
S3150800296C027B26F8047BF1E7490001F18041530804
S3150800297C01F5C041F0B506460D461C46013C06D28B
S3150800298CD20744BF31F8232000F81320F0BD35F8E0
S3150800299C047B26F8027BF1E73E288CBF2021022116
S315080029AC0C4A8BBF1F300130C0F34713C0F34703E3
S315080029BC108801FB03039BB2B3F5007F138008D97B
S315080029CC4FF0E023D3F8F03DDB0700D500BE4FF6F9
S315080029DCFF707047300B002038B50023FF211D46C9
S315080029EC1D4AA2F84C301D4A0133082B1170517040
S315080029FC9570D57002F10402F6D100214024184BCB
S31508002A0C08461C80FFF758FF8020FFF755FF154B2B
S31508002A1C20469D739D779C819C83FFF7BDFF85B2ED
S31508002A2C2046FFF7B9FF104980B20D8108804FF494
S31508002A3C8050094A1388888123F4786323F00F039E
S31508002A4C5B045B0C83F4085383F020031380802308
S31508002A5CA2F84C3038BD00BF005C0040330B002098
S31508002A6C300B0020540B0020006000402DE9F04F7D
S31508002A7C438904898289E41AA4B2944228BF14466D
S31508002A8C504A89B032F8218089461FFA88F808F42A
S31508002A9CC062B2F5806F18BF4FF0000A48F40047C1
S31508002AAC47F08007009208BFC7F3801A4A000192C4
S31508002ABC0AEB41024449D0F804B031F832500646C4
S31508002ACCADB2BBF1000F73D0002C49D0584605A9FE
S31508002ADCFEF7F5FFBDF81410BDF81620A14228BF65
S31508002AEC2146631A9BB2934228BF1346CA189846C6
S31508002AFC93B221F00100019301F0010382B2069909
S31508002B0C029320B128460392FFF716FF039A029BFD
S31508002B1C1544A8B2079DC3B18A5CADF81220B8F16A
S31508002B2C000F09D015F8011B08F1FF3342EA012200
S31508002B3CADF812201FFA83F802220DF11201029049
S31508002B4CFFF7FAFE0298023080B2B8F1000F03D0F4
S31508002B5C42462946FFF7F0FE58460199FEF7A5FFAF
S31508002B6C738987F03007234473814FEA490353442A
S31508002B7CDB0003F1804303F5C0439A88C4F30904C8
S31508002B8C02F47C4222439A80009B27F4E047B3F573
S31508002B9C806F04BF0123F3730A4B27F0400723F811
S31508002BAC2970BFF34F8FBFF36F8F09B0BDE8F08F55
S31508002BBC002CD5D00168224628461944FFF7BCFEDE
S31508002BCCCEE700BF005C00400060004038B50B46FD
S31508002BDC314A01EB400102EB0111012B897B4FEACB
S31508002BEC401005D110301044FFF740FF012038BDC6
S31508002BFC2A4C104434F821500289ADB2808925F448
S31508002C0C8044824224F0700405F4C06528BF02464D
S31508002C1C44F40044B5F5806F44F080044FEA011083
S31508002C2C22D13E2A85BF01231F320132C2F3471235
S31508002C3C98BFC2F34702D21ADB0343EA82239BB23C
S31508002C4C002B08BF4FF4004300F1804000F5C0404C
S31508002C5C83808381114B84F4405423F82140BFF3BD
S31508002C6C4F8FBFF36F8FC1E73E2A85BF01231F32F3
S31508002C7C0132C2F3471298BFC2F34702D21ADB03DA
S31508002C8C43EA82239BB2002B00F1804008BF4FF425
S31508002C9C004300F5C040DCE7540B0020005C004004
S31508002CACBFF34F8FBFF36F8F704770471FB504463E
S31508002CBC00230193019BC72B34D903231F4AA2F87F
S31508002CCC403000230293029BC72B2FD9B2F8403011
S31508002CDC23F002031B041B0CA2F8403000230393B9
S31508002CEC039BC72B26D90022144BA3F84020A3F824
S31508002CFC5020A3F844201A809A801A819A811A8245
S31508002D0C9A821A839A83B3F8402092B242F45D42AF
S31508002D1CA3F84020FFF760FE2046FEF799FF012036
S31508002D2C04B010BD00BF019B0133C2E700BF029B74
S31508002D3C0133C7E700BF039B0133D0E7005C0040B3
S31508002D4C074AB2F8403029B19BB243F40073A2F893
S31508002D5C4030704723F400731B041B0CF7E700BFC5
S31508002D6C005C00402DE9F04F8E4B8FB0B3F8442031
S31508002D7C97051FFA82FB10D54FF6FF52A3F844208D
S31508002D8C4FF44072B3F848300121C3F30A030BA879
S31508002D9CADF82C200C93FEF7D3FF1BF4806F814AF9
S31508002DAC13D04FF6FF33A2F84430FFF715FE4FF455
S31508002DBC8073ADF82C30002301210BA88DF8303028
S31508002DCCFEF7BEFF0FB0BDE8F08F1BF4805F1BD07B
S31508002DDCB2F84030012123F004031B041B0CA2F8A3
S31508002DEC4030B2F840300BA823F008031B041B0C28
S31508002DFCA2F840304EF6FF73A2F844304FF4A063A5
S31508002E0CADF82C30FEF79CFF1BF4006F1AD0654BFF
S31508002E1C0121B3F840200BA892B242F00802A3F89D
S31508002E2C4020B3F8402092B242F00402A3F84020A6
S31508002E3C4FF2FF72A3F844204FF48063ADF82C30A0
S31508002E4CFEF77EFF1BF4807F16D057490A78012AB5
S31508002E5C0BD15448B0F8403023F010031B041B0C5C
S31508002E6CA0F84030013A0A7001E0002AFAD14FF670
S31508002E7CFF624C4BA3F84420DFF830A1494BB3F85A
S31508002E8C44301A040FD41BF4804F9BD04FF0E02328
S31508002E9CD3F8F03DDB0700D500BE4BF6FF72414B6D
S31508002EACA3F844208EE73F4BB3F8447007F00F079E
S31508002EBCBC0004F1804404F5B84423889AB21E0475
S31508002ECC029229D5150575D53B0103F1804303F507
S31508002EDCC0439D891989C5F3090589B21DB12A46CE
S31508002EEC09A8FFF741FD2388082D23F070034FEA44
S31508002EFC03534FEA135343F08003238046D1DDE98D
S31508002F0C09014FF4C063ADF82C300EAB03E903008E
S31508002F1C01210BA8FEF714FF029B1906AED52388D0
S31508002F2C224823F4E14323F070031B041B0C43F4DF
S31508002F3C00432380228802F00F0193B202F4C06288
S31508002F4CB2F5806F4FEA411214D18418E57F002D33
S31508002F5C94D0002583F04003C3F3801303EB470397
S31508002F6CDB0003F1804303F5C043E5779C8804F442
S31508002F7C7C449C8083185C8B1B8BA34200F00A81D3
S31508002F8C103239461044FFF771FD77E74FF0E0230E
S31508002F9CD3F8F03DD80700D500BE4FF48052044B49
S31508002FAC9A81B9E7005C0040320B0020540B0020D4
S31508002FBC00600040238823F070031B051B0D43F0AB
S31508002FCC8003238023889AB203F00F0903F4C063A5
S31508002FDCB3F5806F04930ABF1346012383F4804329
S31508002FEC039208BFC3F38033734A03EB470302EB20
S31508002FFCC301B1F8048032F833500AEB4913596807
S3150800300CC8F30908ADB24FEA49120091002900F03D
S3150800301C8480B8F1000F32D00BA90098FEF788FD12
S3150800302CBDF82C30BDF82E20434528BF4346A8EBE7
S3150800303C0306B6B2964228BF16469A1992B206925B
S3150800304C23F0010291B201910C9903F00103059149
S3150800305C32B12946019A05980793FFF785FC079B19
S3150800306C019A1544ADB2002B42D10D981EB13246C9
S3150800307C2946FFF779FC06990098FEF70CFD0AEB32
S3150800308C491359899A89414489B290454FEA491599
S3150800309C598102D31B8999424BD33E2A8BBF0123F4
S315080030AC00231F3201328CBFC2F34712C2F3470208
S315080030BCD21ADB0343EA82239BB2002B08BF4FF4D8
S315080030CC00433A0102F1804202F5C0429381002680
S315080030DC4FF4E0630D910BA801215544ADF82C3043
S315080030EC8DF830908DF83160FEF72AFEAE6013E746
S315080030FC2946022209A8FFF737FCBDF82430059AA1
S3150800310C0199023553540D98ADB21B0A002EB2D054
S3150800311C013E00F8013BB6B2A8E7B8F1000FAED0F5
S3150800312C5AF802005B89424629461844FFF71CFCEC
S3150800313CA5E70498B0F5806F1ED05B1A9BB2934234
S3150800314C28BF13463E2B8BBF012200221F330133A7
S3150800315C8CBFC3F34713C3F347039B1AD20342EA44
S3150800316C83239BB2002B08BF4FF400433A0102F1AC
S3150800317C804202F5C0429381039B23F4804323F0DB
S3150800318C700343F4004343F0800383F440539BB22B
S3150800319C2380C1E64FF4E0620D93002361F07F01B2
S315080031AC8DF830100BA80121ADF82C208DF8313094
S315080031BCFEF7C6FD62E600BF006000400B785B06B2
S315080031CC09D14B78052B06D14B88054A63F07F034A
S315080031DCDBB2A2F84C304FF48052024B9A817047FE
S315080031EC005C0040006000402DE9F8430F468E78DD
S315080031FCB1F80480C978304601F00301FFF75CFB8F
S3150800320C0728054609D94FF0E023D3F8F03DDB072C
S3150800321C00D500BE0020BDE8F883254B06F00F0943
S3150800322C33F8203049F0800223F4786323F00F0337
S3150800323C5B045B0C43EA0204FB7803F00303022BE2
S3150800324C32D0032BDFD144F40644C8F30A084046AF
S3150800325CFFF7A2FBF609174A86F0010303EB4503B1
S3150800326C80B222F83300144B06EB4909012E03EB06
S3150800327C091314BF0C220422A3F80C809D734FF07B
S3150800328C020303FA02F383EA0403094A0CBF23F484
S3150800329CE04323F070039BB222F82530BFF34F8F1F
S315080032ACBFF36F8F0120B6E744F40044CDE700BFA7
S315080032BC005C004000600040540B002001220021F5
S315080032CCFF2010B50A4B0B4C24F822100132082AA1
S315080032DC187158719971D97103F10403F4D1BFF3BC
S315080032EC4F8FBFF36F8FC022034B1A8010BD00BFE0
S315080032FC330B0020005C0040300B002001F00F005F
S3150800330C70B44400074D04EBD1142601AA510022CF
S3150800331C05EB0414626023816281C90970BCFFF74E
S3150800332C55BC00BF540B0020002380211A46FFF71A
S3150800333CE5BF000001F00F03144A5B0003EBD11341
S3150800334C02EB031348F28002987B114BC90933F838
S3150800335C203018BF04219BB215BF23F4E04323F495
S3150800336C804323F0400323F0700312BF1A431A4319
S3150800337C0C2101238B405340054A9BB222F820307E
S3150800338CBFF34F8FBFF36F8F704700BF540B0020EE
S3150800339C005C004001F00F035B00C80903EBD11178
S315080033AC164B10B503EB01139C7B154B012833F810
S315080033BC242048F6BF734BF68F7112BF4FF4804327
S315080033CC1946402392B242F4004242F080020B4363
S315080033DC134003F4C062B2F5806F06D0012814BFFF
S315080033EC0C21042102228A405340054A9BB222F83A
S315080033FC2430BFF34F8FBFF36F8F10BD540B0020D3
S3150800340C005C00400378024613F0010011D11378D2
S3150800341CC3F380015B070FD4137813F001000AD1AC
S3150800342C13785B0708D41378012043F00403137050
S3150800343C7047002070470846704702780346C2F367
S3150800344C8000520709D51A7812F0010104D11A78AE
S3150800345C61F382021A7070470020704730B5C47841
S3150800346C858804F00304022CC5F30A030CD0032C3C
S3150800347C31D0012C14D140F2FF32022908BF4FF487
S3150800348C80629A4216D204E002290BD1B3F5007F6A
S3150800349C10D04FF0E023D3F8F03DDA0700D500BE84
S315080034AC002030BD42B1B3F5007F05D1402303712E
S315080034BC002343710120F4E7202B0AD815F4FF6F7B
S315080034CCE7D0074A083B9BB222FA03F3DB07F1D491
S315080034DCDFE7402BDCE7022918BF4022CEE700BF06
S315080034EC0101000130B50A44914200D330BD4C7835
S315080034FC052C06D18C7804F00F0500EB4505E4097C
S3150800350C2B550C782144EFE713B50278044661F382
S3150800351C000200F8082B04990093BDF81420012327
S3150800352CFEF7AFF90120069B6360BDF81C3063807B
S3150800353C02B010BD01207047F8B50F780E8A0C46FC
S3150800354C498A17F0020FB6B289B20CBF40234FF462
S3150800355C00738E42054601D00020F8BD002AFBD028
S3150800356C013B1342F8D1FA07F6D46178FEF72EFD23
S3150800357C0028F1D0237813F0010307D04FF0E0238D
S3150800358CD3F8F03DDB07E7D500BEE5E71A46284633
S3150800359C6178FEF737FD0028DFD1EFE770B501F14A
S315080035AC0805064628460C46FEF77EF9B8B1237878
S315080035BCD80714D430466178FEF708FD78B128464A
S315080035CC62886168FEF7B6F923780546A8B1D9076B
S315080035DC07D54FF0E023D3F8F03DDA070BD40020DB
S315080035EC70BD0346626830466178FEF70BFD00280D
S315080035FCEFD02846F4E700BEF1E7DB07EFD43046F8
S3150800360C6178FEF7F1FCEAE72DE9F04107460C462E
S3150800361C90461E46D3B18B8953BB0B78D90715D464
S3150800362C6178FEF7D3FC88B165884146B54228BF58
S3150800363C354660682A4600F0D3F82378DA0707D5AA
S3150800364C4FF0E023D3F8F03DDB070FD4002508E054
S3150800365C61784DB162683846ABB2FEF7D3FC0028E8
S3150800366CEED02846BDE8F0812A46F4E700BEEDE721
S3150800367C01F10803B2B2414618461E46FEF791F907
S3150800368C2378054613F0020F30460CBF4FF040085E
S3150800369C4FF40078FEF708F9404502D2A389434552
S315080036ACDFD221463846FFF779FFDAE78A89F8B57B
S315080036BC06460C460B78F2B9DF070ED44978FEF7A6
S315080036CC85FC50B122786388D50708D54FF0E023DE
S315080036DCD3F8F03DDA0700D500BE0020F8BD6178B6
S315080036EC3BB162683046FEF78DFC0028EED0608848
S315080036FCF4E71A46F6E701F1080713F0020F384605
S3150800370C0CBF40254FF40075FEF7F0F88542E4D857
S3150800371C2378D807E1D430466178FEF757FC0028A1
S3150800372CDBD03846FEF7E2F88542237815D8D90758
S3150800373C6288CBD46D420540ADB2954228BF15467A
S3150800374C617845B162682B463046FEF75BFC00286B
S3150800375CBCD02846C2E72A46F5E7DB07BDD4304677
S3150800376C6178FEF741FCB8E770B50C46064611467B
S3150800377C04F108009AB2FEF7DDF8054621463046F4
S3150800378CFFF794FF284670BD03460244934200D1C6
S3150800379C704703F8011BF9E770B500260C4D0D4C64
S315080037AC641BA410A64209D100F028F800260A4D7D
S315080037BC0A4C641BA410A64205D170BD55F8043BEF
S315080037CC98470136EEE755F8043B98470136F2E779
S315080037DCAC390008AC390008AC390008B039000817
S315080037EC0A44914200F1FF3300D1704710B511F825
S315080037FC014B914203F8014FF9D110BDF8B500BF42
S3150800380CF8BC08BC9E467047F8B500BFF8BC08BCA7
S3090800381C9E467047FF
S3150800382000000000010203044F70656E424C5420EC
S31508003830557365720057696E5553422042756C6B15
S315080038402044657669636500433A2F576F726B2F7C
S31508003850736F6674776172652F4F70656E424C544C
S315080038602F5461726765742F536F757263652F41A4
S31508003870524D434D335F53544D333246312F757392
S31508003880622E630009040A000000000003069E0079
S315080038901400030057494E5553420000000000002B
S315080038A000000000800004000100280044006500B4
S315080038B0760069006300650049006E0074006500C3
S315080038C07200660061006300650047005500490004
S315080038D0440000004E007B003800300037003900F5
S315080038E039003900430033002D00450034004500F7
S315080038F030002D0034003000450041002D0038000E
S315080039003100380038002D003400380045003800F2
S3150800391035003200420035003400460032004200CD
S315080039207D000000050F2100011C100500DF60DD89
S31508003930D88945C74C9CD2659D9E648A9F00000322
S31508003940069E00010009022000010100804B0904BF
S31508003950000002FF000000070501024000000705FD
S3150800396081024000001201010200000040501DAC17
S31508003970600001010203014F70656E424C5400005D
S3150800398000000000C91500081D16000839160008B1
S315080039905D160008350A0008311700080000000007
S309080039A00000000015
S30D080039A4A8C7FF7F010000001F
S309080039AC31010008CF
S309080039B00D010008EF
S315080039B40024F40001000000100000008438000808
S315080039C428380008353800081C0000203031323306
S315080039D434353637383941424344454600000000F9
S315080039E400000000000600003D1C0008DC09002059
S311080039F410000C0000000000FF0000009E
S70508000425C9
