S01D000062696E2F6F70656E626C745F73746D3332663130332E7372656399
S315080000000050002099010008E1010008E1010008FC
S31508000010E1010008E1010008E10100080000000014
S31508000020000000000000000000000000E1010008D8
S31508000030E101000800000000E1010008451200087F
S31508000040E1010008E1010008E1010008E1010008FA
S31508000050E1010008E1010008E1010008E1010008EA
S31508000060E1010008E1010008E1010008E1010008DA
S31508000070E1010008E1010008E1010008E1010008CA
S31508000080E1010008E1010008E1010008E1010008BA
S31508000090E1010008E1010008E1010008E1010008AA
S315080000A0E1010008E1010008E1010008E10100089A
S315080000B0E1010008E1010008E1010008E10100088A
S315080000C0E1010008E1010008E1010008E10100087A
S315080000D0E1010008E1010008E1010008E10100086A
S315080000E0E1010008E1010008E10100080000000044
S315080000F000000000000000000000000000000000F2
S3110800010000000000000000005FF808F195
S3150800010C0348044B834202D0034B03B1184770478C
S3150800011C1000002010000020000000000548064BC7
S3150800012C1B1AD90F01EBA301491002D0034B03B1DB
S3150800013C184770471000002010000020000000002F
S3150800014C10B5064C237843B9FFF7DAFF044B13B105
S3150800015C0448AFF300800123237010BD1000002063
S3150800016C00000000B021000808B5054B1BB1054975
S3150800017C0548AFF30080BDE80840FFF7CFBF00BFC6
S3150800018C0000000014000020B0210008002103E044
S3150800019C0B4B5B58435004310A480B4B42189A4296
S315080001ACF6D30A4A02E0002342F8043B084B9A426B
S315080001BCF9D300F0BBFE01F0D1FF00F063FF7047E6
S315080001CC6C220008000000201000002010000020FF
S315080001DC48060020FEE77047002800F0A18038B5D5
S315080001EC044690F82030D3B12268136843F0010313
S315080001FC136001F03DFC054623685A6812F0010F9E
S3150800020C10D101F035FC401B0A28F5D9636A43F472
S3150800021C00336362052384F82030012038BDFFF7CC
S3150800022CDAFFE1E71A6822F002021A6001F020FCF4
S3150800023C054623685A6812F0020F0DD001F018FC17
S3150800024C401B0A28F5D9636A43F400336362052315
S3150800025C84F820300120E1E7227E012A3DD01A6875
S3150800026C22F080021A60637E012B3BD02268136849
S3150800027C23F040031360A37E012B39D02268136840
S3150800028C23F020031360E37E012B37D02268136812
S3150800029C43F010031360237F012B35D022681368B3
S315080002AC23F008031360637F012B33D0226813688D
S315080002BC23F004031360A368E2681343226913430B
S315080002CC626913436268013A21681343CB610020C3
S315080002DC6062012384F82030A0E71A6842F0800295
S315080002EC1A60C0E72268136843F040031360C2E73C
S315080002FC2268136843F020031360C4E72268136866
S3150800030C23F010031360C6E72268136843F008034A
S3150800031C1360C8E72268136843F004031360CAE73E
S3150800032C01207047026890F82030013BDBB2012BA4
S3150800033C05D9436A43F4802343620120704710B5FC
S3150800034CD2F8003243F00103C2F800324B6903F0CD
S3150800035C1F03012000FA03F3D2F81C026FEA030C00
S3150800036C20EA0300C2F81C02C869C0B9D2F80C020C
S3150800037C0CEA0000C2F80C028C884869D1F80CE02B
S3150800038C44EA0E44483042F830400C884869D1F8A3
S3150800039C08E044EA0E44483002EBC0004460C869E1
S315080003AC01281AD0886988BBD2F804020CEA000026
S315080003BCC2F80402086978BBD2F814020CEA0000E9
S315080003CCC2F81402096A01292CD0D2F8003223F09B
S315080003DC0103C2F80032002010BDD2F80C021843F3
S315080003ECC2F80C028C884869D1F800E044EA0E443D
S315080003FC483042F830408C894869D1F808E044EA1C
S3150800040C0E44483002EBC0004460CBE7D2F8040235
S3150800041C1843C2F80402CDE7D2F814021843C2F8FE
S3150800042C1402CFE7D2F81C120B43C2F81C32CCE7E5
S3150800043C70B5044690F82050EDB2012D06D0436AEB
S3150800044C43F4002343620125284670BD022380F835
S3150800045C20300268136823F00103136001F008FBCF
S3150800046C064623685B6813F0010F0CD001F000FBFD
S3150800047C831B0A2BF5D9636A43F40033636205239D
S3150800048C84F82030E0E700256562DDE730B590F8A2
S3150800049C20C00468A4680CF1FF3C5FFA8CFCBCF124
S315080004AC010F62D814F0E05F59D0C4F3016C012433
S315080004BC04FA0CF41C608B68002B3DD10D68CB68D4
S315080004CC046843EA45550CF118031B01E55003680B
S315080004DC0C690CF1180E03EB0E135C600B7D012BEB
S315080004EC35D0D17993791B0443EA0163517943EAF0
S315080004FC012314790168234301EB0C11C1F88C31E3
S3150800050CD17893781B0443EA0163517843EA0123B3
S3150800051C117802680B4302EB0C12C2F88831026898
S3150800052C0CF1180C4FEA0C1C52F80C3043F0010372
S3150800053C42F80C3000201DE04C6843EAC403CC6832
S3150800054C23430CF11804240105682B51BFE70368F3
S3150800055C03EB0E13596841F480715960C1E7436A7D
S3150800056C43F400134362012004E0436A43F48023F6
S3150800057C4362012030BD90F82030013BDBB2012BE1
S3150800058C01D90020704703689B6803EA8163B3EBC3
S3150800059C816F01D0012070470020704790F820C069
S315080005AC0CF1FF3C5FFA8CFCBCF1010F00F2A58044
S315080005BC30B451B90468E46814F0030F10D1436AD7
S315080005CC43F40013436201207EE00468246914F0A6
S315080005DC030F05D1436A43F400134362012073E009
S315080005EC056801F11B0424012C5904F004049460D9
S315080005FC002C6BD1056801F11B0424012C59640DE0
S3150800060C1460046801F11B0C4FEA0C1C54F80C40DE
S3150800061C04F00204D4600468A444DCF8045015F011
S3150800062C080F5BD008241461046801F11B0C04EB59
S3150800063C0C146468C4F307249461046804EB0C1462
S3150800064C6468240C5461026802EB0112D2F8B821D2
S3150800065C1A70026802EB0112D2F8B821C2F307220B
S3150800066C5A70026802EB0112D2F8B821C2F307429B
S3150800067C9A70026802EB0112D2F8B821120EDA70DF
S3150800068C026802EB0112D2F8BC211A71026802EB5D
S3150800069C0112D2F8BC21C2F307225A71026802EB86
S315080006AC0112D2F8BC21C2F307429A71026802EB16
S315080006BC0112D2F8BC21120EDA71C1B90268D368DC
S315080006CC43F02003D360002030BC7047056801F165
S315080006DC1B0424012C59E408546092E701F11B050C
S315080006EC04EB0514646804F00F0414619CE70268B3
S315080006FC136943F020031361E5E7436A43F4802347
S3150800070C4362012070470000014B1860704700BF18
S3150800071C0800002010B401EB810101EB8101920065
S3150800072CB1FBF2F10D4CA4FB01235B091A0192B241
S3150800073C4FF0640C0CFB13131B013233A4FB03435D
S3150800074CC3F34F1303F0F0010A4492B203F00F03FC
S3150800075C13449BB2836010BC704700BF1F85EB51D6
S3150800076CC36813F4005F01D00120704730B585B01B
S3150800077C04460D46C36823F4B05323F00C034A68A9
S3150800078CC9680A4329690A431343C360AB680269FB
S3150800079C22F44052134303616B69426922F4407296
S315080007AC13434361684600F05BF90E4B9C4208D034
S315080007BC0D4B9C420BD00D4B9C420AD0012005B028
S315080007CC30BD039961B12A682AB90120F7E7029965
S315080007DCF8E70299F6E72046FFF79CFF0020EEE7BC
S315080007EC0120ECE700380140004400400048004076
S315080007FC002808DB0901C9B200F1604000F5614028
S3150800080C80F80013704700F00F000901C9B2014BBC
S3150800081C1954704714ED00E000B500F00700C0F15C
S3150800082C070CBCF1040F28BF4FF0040C031D062B54
S3150800083C0FD9C31E4FF0FF3E0EFA0CF021EA000149
S3150800084C99400EFA03FE22EA0E0241EA02005DF80E
S3150800085C04FB0023EEE70000074AD36823F4E063A1
S3150800086C1B041B0C000200F4E060034343F0BF6357
S3150800087C43F40033D360704700ED00E010B504462E
S3150800088C054BD868C0F30220FFF7C6FF0146204681
S3150800089CFFF7AEFF10BD00BF00ED00E00138B0F168
S315080008AC807F0BD24FF0E0235861054AF02182F87D
S315080008BC23100020986107221A617047012070479F
S315080008CC00ED00E010B5064B4FF0FF321A6100241C
S315080008DC1C61DA60DC6000F07DFC204610BD00BFB0
S315080008EC0010024010B504460E4B1A784FF47A7372
S315080008FCB3FBF2F30C4A1068B0FBF3F0FFF7CEFF2C
S3150800090C68B90F2C01D901200AE0002221464FF0C4
S3150800091CFF30FFF7B3FF054B1C60002000E00120F9
S3150800092C10BD00BF000000200800002004000020B5
S3150800093C08B5074A136843F0100313600320FFF742
S3150800094C8BFF0020FFF7CEFF00F0A4FB002008BDAC
S3150800095C00200240184A136843F001031360164B33
S3150800096C1B6813F0020FFAD0134A536823F00303DB
S3150800097C5360114B5B6813F00C0FFAD10E4A1368CF
S3150800098C23F0807313600C4B1B6813F0007FFAD1AD
S3150800099C094B002058601A6822F450221A601A680B
S315080009AC22F0F80242F080021A6098605A6A42F005
S315080009BC80725A62704700BF00100240034B5B6896
S315080009CCC3F30313024AD35CD840704700100240A5
S315080009DCD0210008034B5B68C3F30223024AD35C9D
S315080009ECD840704700100240C8210008034B5B68CA
S315080009FCC3F3C223024AD35CD840704700100240A6
S31508000A0CC82100080B4B5B6803F4803343B90A48CA
S31508000A1C084B5B68C3F38343023303FB00F0704750
S31508000A2C044B5B68C3F3404301330448B0FBF3F053
S31508000A3CEEE700BF0010024000093D0000127A00E4
S31508000A4C08B5054B5B6803F00C03082B01D003486B
S31508000A5C08BDFFF7D7FFFBE70010024000127A002B
S31508000A6C10B50446FFF7ECFF2060FFF7A7FF6060A0
S31508000A7CFFF7B0FFA0606068FFF7B8FFE06010BD35
S31508000A8C10B54FEA116E50F80E3091FAA1FCBCFA6B
S31508000A9C8CFC4FEA8C0C0F2404FA0CFC23EA0C038E
S31508000AAC91FAA1F1B1FA81F189008A40134340F811
S31508000ABC0E3010BD10B54FEA116E50F80E3091FA83
S31508000ACCA1FCBCFA8CFC4FEA8C0C032404FA0CFC33
S31508000ADC23EA0C0391FAA1F1B1FA81F189008A4053
S31508000AEC134340F80E3010BD10B54FEA116E50F88E
S31508000AFC0E3091FAA1FCBCFA8CFC4FEA8C0C04243F
S31508000B0C04FA0CFC23EA0C0391FAA1F1B1FA81F16F
S31508000B1C89008A40134340F80E3010BD264B984284
S31508000B2C0DD0264B984216D0254B98421FD0254BF4
S31508000B3C984228D0244B984231D00120704703F5AF
S31508000B4C8433DA6842F00402DA60DA6822F00402C6
S31508000B5CDA600020704703F58233DA6842F008023F
S31508000B6CDA60DA6822F00802DA600020704703F5CA
S31508000B7C8033DA6842F01002DA60DA6822F0100282
S31508000B8CDA600020704703F57C43DA6842F02002ED
S31508000B9CDA60DA6822F02002DA600020704703F582
S31508000BAC7843DA6842F04002DA60DA6822F04002EA
S31508000BBCDA600020704700BF00080140000C0140B5
S31508000BCC0010014000140140001801402DE9F041C5
S31508000BDC80460E460F68C7F30F2797FAA7F4B4FAA0
S31508000BEC84F414E0A4F108034FF001159D4045F078
S31508000BFC80657368082B17D0726829464046FFF73C
S31508000C0C3FFF7368012B1ED0092B1CD0013437FA11
S31508000C1C04F323D00123A3403B42F7D0072CE1D899
S31508000C2C40F20115A540E4E73269D8F80C102B0AF6
S31508000C3C21EA152193FAA3F3B3FA83F39A400A43EC
S31508000C4CC8F80C20D8E7B26829464046FFF732FFA9
S31508000C5CF26829464046FFF747FFD7E70020BDE86C
S31508000C6CF0810000044B0022DA61044A136943F050
S31508000C7C01031361018070473000002000200240F8
S31508000C8C194BDB6813F0100305D0184AD36943F0E7
S31508000C9C0203D3611023144AD26812F0040F06D04B
S31508000CAC1249CA6942F00102CA6143F004030E4AAA
S31508000CBCD26912F0010F09D00C49CA6942F0040234
S31508000CCCCA610949CA6922F00102CA6140F20112D5
S31508000CDC934202D0044AD3607047034AD36923F07F
S31508000CEC0103D361704700BF00200240300000208A
S31508000CFC0A4B1B6913F0800F0BD0084B084A5A6035
S31508000D0C02F188325A601B6913F0800F03D1002058
S31508000D1C7047002070470120704700BF0020024032
S31508000D2C23016745034A136943F0800313610020C6
S31508000D3C704700BF0020024038B5044600F098FE04
S31508000D4C0546164BDB6813F0010F0AD0B4F1FF3FCA
S31508000D5CF7D024B100F08CFE401BA042F1D9032039
S31508000D6C1BE00E4BDB6813F0200F02D00B4B202236
S31508000D7CDA600A4BDB6813F0100F0BD1074BDB69F3
S31508000D8C13F0010F06D1054BDB6813F0040F01D1E4
S31508000D9C002002E0FFF774FF012038BD0020024056
S31508000DAC2DE9F8431E46244B1B7E012B41D00446E5
S31508000DBC0F469046204B01221A764CF25030FFF71C
S31508000DCCBBFF034678BB012C08D0022C03D04FF08E
S31508000DDC04091C4607E04FF00209FAE74FF001092F
S31508000DECF7E70134E4B24C451DD22101C1F12002CA
S31508000DFCA1F1200328FA01F106FA02F2114326FAA8
S31508000E0C03F3194389B207EB4400FFF72BFF4CF2A7
S31508000E1C5030FFF791FF094B1D6925F001051D613F
S31508000E2C03460028DDD0044A002111761846BDE891
S31508000E3CF8830223FAE700BF3000002000200240A6
S31508000E4C064B0022DA61064B1A6942F004021A6153
S31508000E5C1A6942F040021A61704700BF3000002040
S31508000E6C00200240064B0022DA61064B1A6942F052
S31508000E7C02021A6158611A6942F040021A617047F7
S31508000E8C3000002000200240264B1B7E012B46D04A
S31508000E9C70B505460E46234B01221A760368022BBB
S31508000EAC20D04CF25030FFF747FF90BB4FF0FF3382
S31508000EBC3360AC680121EA68AB6803EB8223A34272
S31508000ECC28D92046FFF7CEFF4CF25030FFF734FFF7
S31508000EDC154A136923F0020313610146B8B904F5E0
S31508000EEC8064E8E74CF25030FFF726FF08B1012181
S31508000EFC10E00120FFF7A4FF4CF25030FFF71CFF5F
S31508000F0C0146094A136923F00403136102E03460AD
S31508000F1C00E00121034B00221A76084670BD022117
S31508000F2C0846704730000020002002407047000039
S31508000F3C014B1880704700BF5800002008B500F018
S31508000F4C8FFD0E4B1B6898420FD30D4B1B786BB954
S31508000F5C0B4B01221A700B4B20221A6100F080FDF4
S31508000F6C094B1B880344054A136008BD044B002231
S31508000F7C1A70044B20225A61F0E700BF5400002077
S31508000F8C500000200008014058000020014B202288
S31508000F9C5A6170470008014008B5054B9B6813F465
S31508000FAC005F01D1002008BDFFF7F0FF0120FAE72A
S31508000FBC0010014008B56420FFF7BAFF08BD08B554
S31508000FCCFFF7BCFF08BD000008B5274A136823F0D5
S31508000FDC070343F002031360136803F00703022B9D
S31508000FEC3CD1224B1A6842F480221A601A6842F4E1
S31508000FFC80321A601D4B1B6813F4003FFAD01B4A4B
S3150800100C536823F47C1343F4E8135360136843F0D2
S3150800101C80731360154B1B6813F0007FFAD0134BC3
S3150800102C5A6822F0F0025A605A6822F4E06242F4D6
S3150800103C80625A605A6822F460525A605A6822F0E2
S3150800104C030242F002025A60084B5B6803F00C0379
S3150800105C082BF9D10648FFF757FB08BD6821054848
S3150800106C00F0EBF8BDE700BF00200240001002407C
S3150800107C00A24A04E021000808B5FFF759FCFFF75F
S3150800108CA3FF08BD08B5FFF7F7FF00F0E2F800F07C
S3150800109CEEF8FCE72DE9F0418CB0484B9A6942F022
S315080010AC01029A619A6902F001020692069ADA69B5
S315080010BC42F08052DA61DA6902F080520592059A9A
S315080010CC9A6942F004029A619A6902F0040204923F
S315080010DC049A9A6942F008029A619A6902F008021F
S315080010EC0392039A9A6942F010029A619A6902F07D
S315080010FC10020292029ADA6942F40032DA61DA696B
S3150800110C02F400320192019ADA6942F00072DA614D
S3150800111CDB6903F000730093009B42F220030793EC
S3150800112C012308930223099300250A95244C07A941
S3150800113C2046FFF74BFD2023636103F18463079375
S3150800114C4FF00408CDF8208007A91E48FFF73EFD8E
S3150800115C40F20443079309270897032609960A952C
S3150800116C07A92046FFF732FD40F608030793CDF88A
S3150800117C208007A92046FFF729FD134B0793082360
S3150800118C089304F5806407A92046FFF71FFD0F4B4B
S3150800119C0793089709960A9507A92046FFF716FD9F
S315080011AC0B4A536823F0E06323F4C04343F0E0632F
S315080011BC43F4804353600CB0BDE8F0810010024044
S315080011CC000801400010014001000104020002045D
S315080011DC0000014008B5FFF7BDFB1348FFF79EFC5E
S315080011EC1248FFF79BFC1248FFF798FC114BDA697B
S315080011FC22F00072DA61DA6922F40032DA619A694D
S3150800120C22F010029A619A6922F008029A619A6988
S3150800121C22F004029A61DA6922F08052DA619A693C
S3150800122C22F001029A6108BD00100140000C014031
S3150800123C0008014000100240704708B500F005F898
S3150800124CFCE708B5FFF7B6FE08BD08B5FFF7B7FE0D
S3150800125C08BD08B500F02EFFFFF7F3FF00F078FB8A
S3150800126C00F05CFF00F05CF800F03EF808BD08B52D
S3150800127CFFF7EBFF00F0CCFB00F0D0F800F002F81B
S3150800128C08BD000008B500F0A1F8012803D00B4BE7
S3150800129C1B78012B00D008BD00F0E2FB084B1B683D
S315080012AC084A1268134403F5FA739842F3D3034BAE
S315080012BC00221A7000F002FFEDE700BF6400002060
S315080012CC5C0000206000002008B5054B1B78012B3C
S315080012DC00D008BD00F0C4FB024B1860F9E700BF4C
S315080012EC640000206000002008B5044B01221A7027
S315080012FCFFF7EAFFFFF7C6FF08BD00BF6400002032
S3150800130C08B500F0ADFB014B186008BDEC000020D9
S3150800131C08B5024B1870FFF7F3FF08BDF000002064
S3150800132C10B50020FFF7F4FF00F068FA00F09EFCF9
S3150800133C034C0223237000F0C3FB0023237010BD5B
S3150800134C0C00002008B50020FFF7E2FF08BD0000DE
S3150800135C38B504460D460A4B1B78022B07D0084BAA
S3150800136C1B7843B100F064FAFFF7CAFF38BDC9B25F
S3150800137C00F0D2FCF3E7E9B2204600F0C7FBF1E730
S3150800138C0C000020074B1B78032B05D0042B05D02B
S3150800139C022B05D1082070473F2070473F20704725
S315080013AC812070470C000020074B1B78032B05D0B7
S315080013BC042B05D0022B05D1082070473F20704717
S315080013CC3F207047812070470C00002008B500F0BC
S315080013DC27FA00B1012008BD10B5FFF7F7FF012861
S315080013EC02D00024204610BD0A4B1C78012C01D0D3
S315080013FC0024F7E700F034FB074B1B68C01A41F2D0
S3150800140C8733984201D80024ECE70020FFF780FFC9
S3150800141CE8E700BFF0000020EC00002000B583B020
S3150800142C0DF10701134800F09DFC01280BD00DF1B6
S3150800143C0701104800F086FB01280FD0FFF7CCFFF8
S3150800144C03B05DF804FB0C4B02221A70FFF760FF21
S3150800145C9DF80710074800F0F3F9E8E7064B002259
S3150800146C1A70FFF755FF9DF80710024800F0E8F9C7
S3150800147CE4E700BF680000200C000020024B0022A5
S3150800148C83F88220704700BFF4000020034BFE222D
S3150800149C1A7059700222A3F886207047F4000020AF
S315080014AC0378427843EA0223827843EA0243C078F7
S315080014BC43EA006070470870C0F307234B70C0F30B
S315080014CC07438B70000EC8707047000010B5064CA9
S315080014DC002384F88130FFF7D1FFFF232370012303
S315080014ECA4F8863010BD00BFF4000020074BFF227D
S315080014FC1A7000225A7093F882109970DA701A7161
S3150800150C5A710622A3F88620704700BFF400002003
S3150800151C08B500210078FFF7B9FF08BD10B5094CCE
S3150800152CFF232370084BC4F8883000236370A3701C
S3150800153CE370211D0720FFF7BEFF0823A4F88630A9
S3150800154C10BD00BFF40000203822000810B5064C68
S3150800155CFF2323700430FFF7A3FFC4F88800012388
S3150800156CA4F8863010BD00BFF400002008B5312160
S3150800157C0078FFF78BFF08BD08B520210078FFF728
S3150800158C85FF08BD38B5084CFF2323700025657008
S3150800159CA570FFF7F7FEE07025716571A571072335
S315080015ACA4F8863038BD00BFF400002038B5FFF724
S315080015BC65FF0F4C012584F88150FF232370002307
S315080015CC637010226270A370FFF7DCFEE070FFF701
S315080015DCEBFE2071FFF7E8FEC0F307206071A571DA
S315080015ECE5710823A4F8863000F098FD38BD00BFD5
S315080015FCF400002038B50446FFF7C4FE6278904222
S3150800160C12D90C4DD5F88810681C00F077FDFF230D
S3150800161C2B70D5F8883062781344C5F8883063780F
S3150800162C0133A5F8863038BD22212078FFF72EFF26
S3150800163CF9E700BFF400002038B50446FFF7A2FE10
S3150800164C6378984217D9201DFFF72AFF01460C4DDF
S3150800165CC5F888006278681C00F050FDFF232B70D3
S3150800166CD5F8883062781344C5F888306378013326
S3150800167CA5F8863038BD22212078FFF707FFF9E751
S3150800168CF4000020F8B505461746002406E015F8C0
S3150800169C013B1C44E4B2FFF7D8FD31464E1E002927
S315080016ACF5D13C600120F8BD30B583B00025019515
S315080016BC0B4CFF2323700430FFF7F2FE014601AAF8
S315080016CCD4F88800FFF7DEFF6070211D0198FFF73C
S315080016DCF2FEA570E5700823A4F8863003B030BD79
S315080016ECF400002038B504460F4BD3F88850FFF7A2
S315080016FC49FE621C411E284600F014FD70B10A4CC6
S3150800170CFF232370FFF73EFED4F8883001380344D4
S3150800171CC4F888300123A4F8863038BD31212078E6
S3150800172CFFF7B4FEF9E700BFF400002010B5044635
S3150800173CFFF728FE01386378984216DD144BFF2212
S3150800174C1A700122A3F88620617899B1A21C104B55
S3150800175CD3F8880000F0E6FCA8B10D4AD2F8883018
S3150800176C61780B44C2F8883010BD22212078FFF727
S3150800177C8DFEF9E700F0E6FC0028F5D1312120783A
S3150800178CFFF784FEF0E731212078FFF77FFEEBE7C1
S3150800179CF400002038B504460B4BD3F888500430B7
S315080017ACFFF77EFE0146284600F0C0FC30B1064B1A
S315080017BCFF221A700122A3F8862038BD3121207821
S315080017CCFFF764FEF9E700BFF400002010B500F03F
S315080017DC75FC064C002384F88130FFF74FFEFF2377
S315080017EC23700123A4F8863010BD00BFF400002036
S315080017FC08B589B2FFF7ACFD08BD0000074B0022FF
S3150800180C83F88120C3F8882083F88420A3F88620DF
S3150800181C83F8832083F88220704700BFF4000020E9
S3150800182C024B93F8810000B101207047F4000020A8
S3150800183C024B002283F88420704700BFF400002076
S3150800184C10B504460078FF2825D0404B93F8813014
S3150800185C012B2DD1A0F1C903352B66D8DFE803F08F
S3150800186C4965655D6565594D55516565656565657A
S3150800187C65656565656565656565656565656565FE
S3150800188C65656565656565656165352D29316565CA
S3150800189C6539653D41452046FFF788FE2B4B93F885
S315080018AC8430012B45D0294BB3F98610002945DC29
S315080018BC10BD2046FFF79EFEF0E72046FFF7BCFE5C
S315080018CCECE72046FFF742FEE8E72046FFF7ECFE7A
S315080018DCE4E72046FFF722FEE0E72046FFF718FE6E
S315080018ECDCE72046FFF702FED8E72046FFF7EEFDB9
S315080018FCD4E72046FFF7F6FED0E72046FFF716FF9B
S3150800190CCCE72046FFF73EFEC8E72046FFF742FF26
S3150800191CC4E72046FFF75AFFC0E72046FFF726FE26
S3150800192CBCE72046FFF728FEB8E72021FFF7AEFDF7
S3150800193CB4E710212078FFF7A9FDB4E71846012370
S3150800194C80F88430FFF754FFB2E700BFF40000209C
S3150800195C82B01A4B9A6942F400629A619A6902F447
S3150800196C00620192019A164A12685968C1F3C2219B
S3150800197C1448415CCA405B6813F4605F1BD10123B1
S3150800198C02FB03F3104A012111604FF6FF71D16275
S3150800199C5B090E49A1FB0313DB09013B93625369EF
S315080019AC43F0010353610A4B00211960526A094B33
S315080019BC1A8002B070470223E2E700BF001002400B
S315080019CC08000020C8210008002C0140C55A7C0AD2
S315080019DC84010020800100200C4BDA6842F4006276
S315080019ECDA60DA6822F40062DA609A6922F4006234
S315080019FC9A614FF0E02300221A615A619A6103F545
S31508001A0C50634FF000725A60704700BF00100240D6
S31508001A1C0F4B5B6A9BB20F4A11885B1A9BB2632BFE
S31508001A2C14D910B40C4AA2FB03235A090B4C206890
S31508001A3C00EB5310206002EB820303EB83039A003E
S31508001A4C92B21144034B198010BC7047704700BF03
S31508001A5C002C0140800100201F85EB5184010020D9
S31508001A6C08B5FFF7D5FF014B186808BD840100209F
S31508001A7C08B5FFF7F5FF08BD054B1B6813F0200FDB
S31508001A8C01D100207047024B5B6803700120704738
S31508001A9C0044004010B5094B5860FFF7E1FF00F110
S31508001AAC0A04064B1B6813F0800F05D1FFF7CDFB14
S31508001ABCFFF7D6FFA042F4D910BD00BF0044004082
S31508001ACC10B588B0104CE36823F40053E3604FF468
S31508001ADC6143019300230293039304930C2205920A
S31508001AEC0693079301A92046FEF73AFE236923F4C9
S31508001AFC90432361636923F02A036361E36843F423
S31508001B0C0053E36008B010BD0044004070B50646AB
S31508001B1C0D46812904D82846FFF7BCFF00240BE0A4
S31508001B2C73210748FFF789FBF5E7FFF78EFB305D56
S31508001B3CFFF7B0FF0134A4B2A542F6D870BD00BFBA
S31508001B4CE821000870B5254B1C78BCB92448FFF76A
S31508001B5C93FF012801D0204670BD214B1B78013B11
S31508001B6CDBB2802BF7D8FFF77BFF1E4B18601E4B9A
S31508001B7C00221A70194B01221A70ECE706460D461C
S31508001B8C194B1B78013316481844FFF775FF0446A2
S31508001B9C012815D1144B1A780132D2B21A70104B8F
S31508001BAC1B789A4201D00024D5E71049304600F03C
S31508001BBCA5FA0A4B00221A700B4B1B782B70CAE736
S31508001BCCFFF74EFF074B1B68C833984203D900240E
S31508001BDC024B1C70BFE70024BDE700BF14020020AF
S31508001BEC900100208C010020880100209101002022
S31508001BFC2DE9F04184B004460D46174698466846CA
S31508001C0CFEF72EFF0299174BA3FB01318909002316
S31508001C1C01E00133DBB2112B1FD8134A12F813005B
S31508001C2C02EB4302527800EB020C0CFB044CB1FBA2
S31508001C3CFCFE0CFB1E16002EEBD11FFA8EFCA5F82B
S31508001C4C00C00CF1FF3C1FFA8CFCBCF5806FE0D28F
S31508001C5C387088F80020012000E0002004B0BDE8A8
S31508001C6CF08100BFD34D62104022000870B58CB0CD
S31508001C7C0023ADF82E308DF82D308DF82C300BABAB
S31508001C8C0DF12D020DF12E014FF4FA70FFF7B0FF8E
S31508001C9C002835D01D4C1E4B23600025257665760D
S31508001CACA5760126E67625776577A560E5609DF825
S31508001CBC2D30013B1B0423619DF82C30013B1B0581
S31508001CCC6361BDF82E3063602046FEF785FA0695EB
S31508001CDC079508964CF6E043019302954FF6E07388
S31508001CEC039304230493059509960E230A9301A9D5
S31508001CFC2046FEF717FB2046FEF79AFB0CB070BD84
S31508001D0CB4210448FFF799FAC4E700BF180200206B
S31508001D1C006400401022000810B588B0024640F254
S31508001D2CE1730293002304930593069101AB02A970
S31508001D3C0B48FEF7ABFB08B108B010BDFFF790FED9
S31508001D4C00F1320401990648FEF715FC0028F3D079
S31508001D5CFFF77BFAFFF784FEA042F3D9ECE700BF46
S31508001D6C1802002010B588B003460C4601AA0021BB
S31508001D7C0848FEF713FC50B9019A40F267639A4279
S31508001D8C06D1039B23B9059B2370012000E0002094
S31508001D9C08B010BD1802002008B5C1F3080353B9E2
S31508001DAC03688B4209D040F8041B4FF4007200F00C
S31508001DBCA5F9012008BD0020FCE70120FAE72DE96A
S31508001DCCF0410746FEF794FF00247F2C15D83E6891
S31508001DDC06EB840807EB84035D68FFF736FA2A4698
S31508001DEC002341460220FEF7DBFF804640B956F831
S31508001DFC2430AB4206D10134E7E74FF0010801E085
S31508001E0C4FF00008FEF78EFF4046BDE8F081000053
S31508001E1C38B50D460C4B984211D004460B4B9942DB
S31508001E2C07D1094C29462046FFF7B6FF48B120468C
S31508001E3C38BDFFF7C4FF0028F4D10024F7E7044C9B
S31508001E4CF0E70024F3E700BF40020020004000083A
S31508001E5C440400202DE9F04106460C4617461D465B
S31508001E6C21F4FF7828F001080368B3F1FF3F07D087
S31508001E7C336843450AD13368E41A3444043414E00D
S31508001E8C4146FFF789FF0028F2D120E0414630464B
S31508001E9CFFF7BEFF06460028EDD1002017E017F81D
S31508001EAC013B04F8013B013D10D0FFF7CEF9311D7B
S31508001EBC611AB1F5007FF2D3316801F5007130462D
S31508001ECCFFF7A6FF064620B1041DE8E70120BDE88A
S31508001EDCF0810020FBE700004FF0FF33024A136045
S31508001EEC024A1360704700BF4404002040020020D9
S31508001EFC0B4601F1FF3C1249091A8C4519D81149B0
S31508001F0C884218D310B5191801390D4CA14214D8AA
S31508001F1C20F4FF7424F001040A498C4204D00146CB
S31508001F2C0948FFF797FF10BD01460848FFF792FFCF
S31508001F3CF9E700207047002070470020F3E700BF40
S31508001F4CFFFF01080040000844040020400200205E
S31508001F5C30B587B0002305934A1E1F4B1B1A9A42AD
S31508001F6C31D820F47F7323F003031C4A93422ED3F3
S31508001F7C0A18013A184CA2422BD8C01A0844C0F3C6
S31508001F8C8F25C0F3090008B10135ADB200240194C0
S31508001F9C039301230493FEF7ABFEA5420DD9FFF775
S31508001FAC54F905A901A8FEF76FFF50B9039B03F571
S31508001FBC806303930134A4B2EFE70124FEF7B2FE63
S31508001FCC02E00024FAE70024204607B030BD0024BE
S31508001FDCFAE70024F8E700BFFFFF010800400008F5
S31508001FEC00B583B000230193134B1B68B3F1FF3F75
S31508001FFC20D0114A5368019391680B440193D16818
S3150800200C0B44019311690B44019351690B440193D9
S3150800201C91690B440193D26913440193DA430192F3
S3150800202C5B42019301AA04210448FFF761FF03B040
S3150800203C5DF804FB0120FAE7400200200C41000879
S3150800204C0A4B1A68596811449A681144DA6811449B
S3150800205C1A6911445A6911449A690A44D3F80C311D
S3150800206CD34201D000207047012070470040000879
S3150800207C08B50C4B1B68B3F1FF3F06D10A4B1B681E
S3150800208CB3F1FF3F07D1012008BD0648FFF797FEBD
S3150800209C0028F3D1F8E70448FFF791FE0028F3D09F
S315080020AC0120F1E740020020440400200048704754
S315080020BC0040000808B500F04DF808BD10B500F052
S315080020CC39F800B910BDFEF767FF0028FAD0FFF7FC
S315080020DC39F9FEF7F7FBFFF77FFC00F02FF820F035
S315080020EC604020F07F00044B986000F027F84468A5
S315080020FC00F032F8A047E5E700ED00E070B50D46B4
S3150800210C044606E015F8013B04F8013BFFF79DF879
S3150800211C3246531E9EB2002AF4D170BD08B5FFF79D
S3150800212CDBFE08BD08B5FFF7E3FE08BD08B5FFF7EB
S3150800213C0FFF08BD08B5FFF783FF08BD08B5FFF705
S3150800214CB5FF08BD08B5FFF74BFF00B908BDFFF78B
S3150800215C8FFFFBE772B6704762B6704770B50026FC
S3150800216C0C4D0D4C641BA410A64209D100F01AF8AC
S3150800217C00260A4D0A4C641BA410A64205D170BD54
S3150800218C55F8043B98470136EEE755F8043B984753
S3150800219C0136F2E76422000864220008642200086B
S315080021AC68220008F8B500BFF8BC08BC9E46704704
S311080021BCF8B500BFF8BC08BC9E4670478A
S315080021C800000000010203040000000000000000EF
S315080021D801020304060708096D61696E2E6300008B
S315080021E82E2E2F2E2E2F2E2E2F536F757263652F98
S315080021F841524D434D335F53544D333246312F7256
S31508002208733233322E6300002E2E2F2E2E2F2E2EAB
S315080022182F536F757263652F41524D434D335F5384
S31508002228544D333246312F63616E2E630000000029
S315080022384F70656E424C54000502060206030703F2
S315080022480803090309040A040B040C040C050D0504
S311080022580E050F050F06100610071008EB
S3090800226475010008EA
S309080022684D0100080E
S3150800226C01000000100000000024F4000600000025
S7050800019958
