S01900006F70656E626C745F73746D3332663736372E73726563F5
S31508000000000008207D0B0008490B00084B0B000870
S315080000104D0B00084F0B0008510B000800000000AC
S31508000020000000000000000000000000530B00085C
S31508000030550B000800000000570B0008590B000874
S31508000040CD0B0008CD0B0008CD0B0008CD0B000822
S31508000050CD0B0008CD0B0008CD0B0008CD0B000812
S31508000060CD0B0008CD0B0008CD0B0008CD0B000802
S31508000070CD0B0008CD0B0008CD0B0008CD0B0008F2
S31508000080CD0B0008CD0B0008CD0B0008CD0B0008E2
S31508000090CD0B0008CD0B0008CD0B0008CD0B0008D2
S315080000A0CD0B0008CD0B0008CD0B0008CD0B0008C2
S315080000B0CD0B0008CD0B0008CD0B0008CD0B0008B2
S315080000C0CD0B0008CD0B0008CD0B0008CD0B0008A2
S315080000D0CD0B0008CD0B0008CD0B0008CD0B000892
S315080000E0CD0B0008CD0B0008CD0B0008CD0B000882
S315080000F0CD0B0008CD0B0008CD0B0008CD0B000872
S31508000100CD0B0008CD0B0008CD0B0008CD0B000861
S31508000110CD0B0008CD0B0008CD0B0008CD0B000851
S31508000120CD0B0008CD0B0008CD0B0008CD0B000841
S31508000130CD0B0008CD0B0008CD0B0008CD0B000831
S31508000140CD0B0008CD0B0008CD0B0008CD0B000821
S31508000150CD0B0008CD0B0008CD0B0008CD0B000811
S31508000160CD0B0008CD0B0008CD0B0008CD0B000801
S31508000170CD0B0008CD0B0008CD0B000800000000D1
S31508000180CD0B0008CD0B0008CD0B0008CD0B0008E1
S31508000190CD0B0008CD0B0008CD0B0008CD0B0008D1
S315080001A0CD0B0008CD0B0008CD0B0008CD0B0008C1
S315080001B0CD0B0008CD0B0008CD0B0008CD0B0008B1
S315080001C0CD0B0008CD0B000800000000CD0B000881
S315080001D0CD0B0008CD0B0008CD0B0008CD0B000891
S315080001E0CD0B0008CD0B0008CD0B0008CD0B000881
S30D080001F0CD0B0008CD0B000839
S315080001F810B5054C237833B9044B13B10448AFF34B
S3150800020800800123237010BDC001002000000000F3
S31508000218B863000808B5034B1BB103490348AFF395
S31508000228008008BD00000000C4010020B86300086B
S3150800023853B94AB9002908BF00281CBF4FF0FF3137
S315080002484FF0FF3000F088B9ADF1080C6DE904CE1F
S3150800025800F006F8DDF804E0DDE9022304B070478B
S315080002682DE9F047089D8E4604468846002B4AD154
S315080002788A42174662D9B2FA82F64EB1C6F1200307
S3150800028801FA06F820FA03F3B74043EA0808B44027
S315080002984FEA174E1FFA87FCB8FBFEF1230C0EFB34
S315080002A8118843EA084301FB0CF29A4209D9FB185C
S315080002B801F1FF3080F0EA809A4240F2E78002397D
S315080002C83B449A1AA3B2B2FBFEF00EFB102243EA8D
S315080002D8024300FB0CFC9C4509D9FB1800F1FF32C8
S315080002E880F0D6809C4540F2D3803B44023840EAE9
S315080002F80140A3EB0C0300211DB1F3400022C5E918
S315080003080032BDE8F0878B4205D90DB1C5E9000171
S3150800031800210846F5E7B3FA83F1002946D1734563
S3150800032802D3824200F20581841A6EEB0302012089
S315080003389046002DE5D0C5E90048E2E7002A00F016
S315080003489080B2FA82F6002E40F0A4808A1A030C2E
S315080003584FEA174E80B2BCB20121B2FBFEFC0EFB77
S315080003681C2243EA024304FB0CF29A4207D9FB18FB
S315080003780CF1FF3802D29A4200F2E080C4469B1A72
S31508000388B3FBFEF20EFB123340EA034302FB04F406
S315080003989C4207D9FB1802F1FF3002D29C4200F2B0
S315080003A8CA8002461B1B42EA0C40A5E7C1F1200693
S315080003B88B4022FA06F71F430EFA01F420FA06F3D1
S315080003C82EFA06FE4FEA1749234300FA01F81FFAE0
S315080003D887FCBEFBF9F01C0C09FB10EE44EA0E4438
S315080003E800FB0CFEA64502FA01F209D93C1900F1F0
S315080003F8FF3A80F09C80A64540F2998002383C4432
S31508000408A4EB0E041FFA83FEB4FBF9F309FB1344A5
S315080004184EEA044403FB0CFCA44508D93C1903F12D
S31508000428FF3E80F08280A4457FD9023B3C4443EADC
S315080004380040A4EB0C04A0FB02EC64457346E146B5
S3150800044862D35FD05DB1B8EB030264EB090404FA22
S3150800045806F622FA01F31E43CC40C5E900640021DA
S315080004684FE7B1FBF2FC010C41EA0E4180B240EAC3
S3150800047801423B4638463C46B846BE462026B1FBAE
S31508000488F7F1A2EB080241EA0C4166E7014618E7CC
S3150800049810462CE7C6F120022EFA02F3B740B140FF
S315080004A820FA02F24FEA174E0A43B3FBFEF8BCB22B
S315080004B80EFB1833110C41EA034108FB04F9B04056
S315080004C889454FEA104380B23ED9791808F1FF3CAE
S315080004D801D289451FD8A1EB0901B1FBFEF909FB31
S315080004E804F80EFB191192B242EA0142424529D292
S315080004F8BA1809F1FF31C4D24245C2D2A9F102019C
S315080005083A44BEE7F0459DD2BEEB02036CEB070CF6
S315080005180138E14696E7A7EB09094944A8F1020C10
S31508000528B1FBFEF909FB04F8DBE773467FE750469B
S3150800053866E70846FDE63B44023A33E7ACF1020CA7
S315080005483B441CE749469CE7A1EB0901C446B1FBB5
S31508000558FEF909FB04F8C4E7704700BF10B582B076
S3150800056800248DF8074000F0ABF803F0F9FD0DF10B
S315080005780701204600F0BCF89DF80730012B01D08A
S3150800058802B010BD03F0BEFEFAE708B503F0F6FDA3
S3150800059808BD000008B54FF40051054801F0D6FC1F
S315080005A8012803D000F040F8012008BD0020FCE728
S315080005B80008024008B5642000F006F808BD08B52A
S315080005C800F008F808BD0000014B1880704700BF06
S315080005D8E401002008B503F069FD0F4B1B68984233
S315080005E810D30E4B1B7873B901220C4B1A70802155
S315080005F80B4801F0B2FC03F059FD0A4B1B8803446B
S31508000608054A136008BD0022044B1A708021044865
S3150800061801F0A3FCEFE700BFE0010020DC010020A1
S3150800062800040240E401002008B50022802102489F
S3150800063801F093FC08BD00BF000402400C4B1B6880
S31508000648C3F3072252FA83F2C3F3074010441B0E7A
S3150800065813FA80F080B2002305E0054A1A44127995
S31508000668104480B20133372BF7D9404280B270471D
S315080006780000002008B5FFF7E1FF044B9B8F98425E
S3150800068801D0002008BD0120FCE700BF00000020BB
S3150800069808B5054B1A68054B9A4201D0002008BDD3
S315080006A8FFF7E8FFFBE700BF00000020A2E742CEFD
S315080006B808B5FFF7C3FF014B988708BD000000205F
S315080006C808B5FFF7E5FF68B9074B084A1A6000231B
S315080006D804E0054A1A44002111710133372BF8D969
S315080006E8FFF7E6FF08BD00BF00000020A2E742CEDC
S315080006F838B505460C46FFF7CBFF034658B1372DE4
S315080007088CBF00230123002C08BF00231BB1034A12
S315080007182A4412792270184638BD00BF0000002006
S3150800072830B58DB000240794089409940A940B945C
S31508000738284B1A6B42F004021A631A6B02F0040279
S315080007480192019A1A6B42F080021A631A6B02F038
S3150800075880020292029A1A6B42F001021A631A6B15
S3150800076802F001020392039A1A6B42F002021A6314
S315080007781A6B02F002020492049A1A6B42F00802F3
S315080007881A631A6B02F008020592059A1A6B42F068
S3150800079840021A631B6B03F040030693069B0E4D33
S315080007A822468021284601F0D8FB4FF400530793C8
S315080007B80894099407A9094801F020FA80230793A1
S315080007C80123089309940A9407A9284601F016FAFA
S315080007D80DB030BD0038024000040240000802404F
S315080007E82DE9F041B4B000242D942E942F9430941A
S315080007F83194329433942794289429942A942B94E0
S315080008082C949022214603A805F097FD4FF480758D
S31508000818039503A801F0DEFF264B1A6C42F48022E2
S315080008281A641A6C02F480220292029A1A6B42F02F
S3150800083808021A631B6B03F008030193019B2795AB
S315080008484FF00208CDF8A080032729972A942B94FD
S3150800085807262C96184D27A9284602F034FB4FF48C
S3150800086800732793CDF8A08029972A942B942C9661
S3150800087827A9284602F027FB4FF4E1332D932E9437
S315080008882F9430940C233193329433940B4C2DA91E
S31508000898204602F04DFD636823F490436360A3681D
S315080008A823F02A03A360236843F00103236034B0C6
S315080008B8BDE8F08100380240000C024000480040BC
S315080008C830B595B03422002107A805F036FD002476
S315080008D8029403940494059406941D4B1A6C42F0EA
S315080008E880521A641B6C03F080530093009B194BC3
S315080008F81A6842F440421A601B6803F4404301939D
S31508000908019B012307934FF4A023089302250D950D
S315080009184FF480030E9308230F934FF4D87310935C
S3150800092811951295139507A801F008FC01F01CFB10
S315080009380F230293039504944FF4A05305934FF499
S3150800094880530693072102A801F088FE15B030BD2A
S31508000958003802400070004008B500F071F9FFF74A
S31508000968AFFFFFF7DDFEFFF73BFFFFF7F7FDFFF7E2
S315080009780CFEFCE782B00A4B1A6C42F080521A64E5
S315080009881A6C02F080520092009A5A6C42F480421D
S315080009985A645B6C03F480430193019B02B0704769
S315080009A800380240F0B58DB00023079308930993E1
S315080009B80A930B9302683A4B9A4201D00DB0F0BDE0
S315080009C8A3F590431A6B42F000721A631A6B02F089
S315080009D800720092009A1A6B42F080621A631A6BC8
S315080009E802F080620192019A1A6B42F000621A6359
S315080009F81A6B02F000620292029A1A6B42F004021B
S31508000A081A631A6B02F004020392039A1A6B42F0ED
S31508000A1801021A631A6B02F001020492049A1A6B0D
S31508000A2842F002021A631A6B02F002020592059A4C
S31508000A381A6B42F040021A631B6B03F040030693D5
S31508000A48069B322307930226089603250A950B2444
S31508000A580B9407A9134801F0D1F88623079308963B
S31508000A68002709970A950B9407A90F4801F0C6F8B5
S31508000A784FF400530793089609970A950B9407A904
S31508000A880A4801F0BBF84FF42053079308960997CC
S31508000A980A950B9407A9064801F0B0F88EE700BF37
S31508000AA8008002400008024000000240000402409C
S31508000AB80018024010B501F095FA1E4C0022802154
S31508000AC8204601F04AFA8021204601F099F94FF4A8
S31508000AD80051194801F094F904F500644FF480713F
S31508000AE8204601F08DF94FF40071204601F088F987
S31508000AF8124B1A6C22F480221A641A6B22F04002EE
S31508000B081A631A6B22F008021A631A6B22F0040297
S31508000B181A631A6B22F002021A631A6B22F0010290
S31508000B281A631A6C22F080521A645A6C22F48042AC
S31508000B385A6410BD0004024000080240003802400A
S31508000B487047FEE7FEE7FEE7FEE77047704770471F
S31508000B5808B500F081F808BD054BD3F8882042F49B
S31508000B687002C3F888204FF000629A60704700BF89
S31508000B7800ED00E0DFF834D0002103E00C4B5B58A9
S31508000B88435004310B480C4B42189A42F6D30B4A89
S31508000B9802E0002342F8043B094B9A42F9D3FFF7CF
S31508000BA8DBFF05F0D3FBFFF7D7FE704700000820E8
S31508000BB8206500084000002064000020C0010020CD
S31508000BC8984D0020FEE7000010B5094B4FF0FF329C
S31508000BD81A6200241C625A625C621A611C615A61B4
S31508000BE85C619A619C61FFF765FF204610BD00BFEE
S31508000BF80038024010B504460E4B1A784FF47A733B
S31508000C08B3FBF2F30C4A1068B0FBF3F000F098F85F
S31508000C1868B90F2C01D901200AE0002221464FF0B5
S31508000C28FF3000F07DF8054B1C60002000E001202D
S31508000C3810BD00BF440000204000002048000020E6
S31508000C4808B5032000F05AF80020FFF7D3FFFFF78E
S31508000C5891FE002008BD0000034A1168034B1B7863
S31508000C680B441360704700BF980200204400002018
S31508000C7838B5044603F022FA0546B4F1FF3F02D018
S31508000C88044B1B781C4403F019FA401BA042FAD3FC
S31508000C9838BD00BF44000020002804DB0901C9B29A
S31508000CA8044B1954704700F00F000901C9B2024BEA
S31508000CB81954704700E400E014ED00E000B500F0B0
S31508000CC80700C0F1070CBCF1040F28BF4FF0040C4D
S31508000CD8031D062B0FD9C31E4FF0FF3E0EFA0CF064
S31508000CE821EA000199400EFA03FE22EA0E0241EAB9
S31508000CF802005DF804FB0023EEE700000649CB680E
S31508000D0823F4E0631B041B0C000200F4E0600343B1
S31508000D18024A1A43CA60704700ED00E00000FA0567
S31508000D2810B50446054BD868C0F30220FFF7C6FF7E
S31508000D3801462046FFF7B0FF10BD00BF00ED00E0F2
S31508000D480138B0F1807F0BD24FF0E0235861054A8D
S31508000D58F02182F823100020986107221A6170474B
S31508000D680120704700ED00E02DE9F04182B0054604
S31508000D7800230193D0F8688008F1120350F823403D
S31508000D88C66E012714E001A802F0C4FD019B13B141
S31508000D982362A36011E000270FE06B6943F48043E0
S31508000DA8636013E003F1120255F82240013E9846A3
S31508000DB8BEB1B7B1236A002BE5D0002FF8D0AB6DCA
S31508000DC8002BEAD16A69134B13436360236843F01F
S31508000DD80043236008F10103032BE3D9A8F10303B1
S31508000DE8E0E7EB6EB34211D008F1030303F00303FF
S31508000DF8BFF35F8F2A6903EB830302EBC3022B68F1
S31508000E0803F580539A60C5F86880EE6602B0BDE8B7
S31508000E18F08100BF004000805079137943EA002327
S31508000E2807480B50D07893781B0443EA0063507838
S31508000E3843EA002312781343024A8B50704700BFCF
S31508000E48408002404480024030B4002208E0C4686A
S31508000E58DC6051F80C3043F4400341F80C30013299
S31508000E68032A1FD8C16802EB82034FEAC30C01EBB9
S31508000E78C303002441F80C405C609C60DC60941D48
S31508000E8840F8243051F80C4044F4801441F80C40DA
S31508000E98022ADCD8541C04EB8404C56805EBC40490
S31508000EA8DC60D6E700238362C268036803F58053CB
S31508000EB81A6130BC704710B4002202E00169D96093
S31508000EC80132032A28D8046902EB82034FEAC30CC5
S31508000ED804EBC303002144F80C1059609960D960E3
S31508000EE8196259624FF0004144F80C10416941F4FF
S31508000EF880415960596821F00041596002F1120190
S31508000F0840F82130022AD9D80469511C01EB81011D
S31508000F1804EBC104DC60D3E70023C3650366836674
S31508000F28C36683650269036803F58053DA605DF86A
S31508000F38044B7047F0B5856A00EB85039B698C6896
S31508000F481E68002EC0F2B3802E1D00EB8606F669D1
S31508000F58002E40F0AE8026689E605E686FF30C0629
S31508000F6867683E435E600E6816F0010F05D01E6876
S31508000F7826F440064F693E431E600E6816F0200F99
S31508000F8805D01E6826F040660F693E431E6009684C
S31508000F9811F0040F03D0196841F080011960196827
S31508000FA841F0805119602F4600264FF0010E27E0C0
S31508000FB8196821F0804119602EE000EB8C039B69C3
S31508000FC81968002930DB0CF1040100EB8101C969B5
S31508000FD851BB196821F0805119600EF1010EA468F9
S31508000FE82168996059686FF30C0167683943596035
S31508000FF80136BFF35F8F196841F0004119606746EB
S31508001008A16851B3196821F000511960002ACFD098
S31508001018196841F08041196007F1010CBCF1030F0A
S31508001028CBD9A7F1030CC8E700EB85039969002219
S3150800103804E000EB8301896901321D4672450AD22C
S31508001048BFF35F8F0B6823F000430B606B1C032B01
S31508001058EFD9EB1EEDE70220F0BD1AB31A6842F085
S3150800106880421A601A6842F000521A6000EB850539
S31508001078AA69BFF35F8F136843F000431360C26B16
S315080010883B1D00EB8303DA618762EFF310820123C5
S3150800109883F31088036C33440133036482F310889E
S315080010A80020D9E71A6822F080421A60DAE7022097
S315080010B8D2E70220D0E7000070B505460C4602685C
S315080010C813683C491940A37B5B06207C002861D13C
S315080010D84FF400000343607C00285DD14FF480007C
S315080010E80343A0680343E07F43EA00436069034378
S315080010F8A07F002852D14FF400500343207F43EACB
S315080011080033A0690343207943EA802394F8200032
S31508001118002845D14FF400700343E07B43EAC01327
S31508001128606A034394F8280043EA00130B431360E4
S315080011382B681E680120FFF79BFD2B681E6029682F
S315080011488A6922F0BE021204120CA36C1B0494F8D6
S315080011584C0038BB80200343206D034394F85500A0
S31508001168012821D00020034394F8560001281DD0F1
S315080011780020034394F85400012819D0002003439B
S3150800118813438B612B689C690120FFF771FD2B6857
S315080011989C6170BD00209DE70020A1E70020ACE710
S315080011A80020B9E70020D6E70820DCE70420E0E7B6
S315080011B80220E4E70F8120FD70B505460C46026853
S315080011C802F580539B692B491940237B002B4DD187
S315080011D84FF08063607B43EA4063607F002847D10D
S315080011E84FF480100343A07B43EA405360690343E6
S315080011F8207F43EAC013A07F43EA8013206A03438B
S3150800120894F8240043EA80030B4302F5805293615D
S315080012182B6803F580539E690120FFF729FD2B6883
S3150800122803F580539E612279A36843EA4263A2695B
S3150800123813432269134394F8252043EAC213A26A82
S3150800124843EA8203226813432A6843F4000302F533
S31508001258805213602B6803F580531C680120FFF73A
S3150800126807FD2B6803F580531C6070BD0023B1E7A2
S315080012780020B7E7233FDEF870B5A4B00646012577
S315080012888DF83C508DF83D5000240D948DF84B4050
S315080012988DF84A508DF848408DF83A508DF83050F8
S315080012A88DF84C408DF83B4014948DF854401D94A5
S315080012B88DF878401F948DF882408DF880404FF459
S315080012C8804310934FF4006311938DF881400BA95E
S315080012D8FFF7F2FE8DF80C508DF80D508DF81D505D
S315080012E88DF80E5005948DF81C408DF81E4008940C
S315080012F88DF824508DF804504FF4803302934FF438
S31508001308800306934FF4005304938DF825500A94E6
S31508001318009469463046FFF74FFF24B070BD10B5F4
S3150800132882B0044600230193036803F580539A693B
S3150800133842F480129A61036803F580539B69019306
S315080013480120FFF795FC2368019A03F580539A61F3
S3150800135802B010BD002868D030B583B00446D0F86E
S315080013688430002B32D0324B5A6C42F480425A648D
S315080013785B6C03F480430193019B2E4B5A6822F455
S3150800138800025A605A68A1680A435A605B6823686B
S3150800139803F580531A6842F001021A6002F08EFEBD
S315080013A80546236803F580531B6813F0010F13D00D
S315080013B802F084FE401BB0F5FA7FF2D90423C4F87C
S315080013C88830E023C4F8843001202CE02023C0F8B4
S315080013D88430FFF7E7FAC6E72046FFF74DFF2046B1
S315080013E8FFF732FD2046FFF766FD626800212046B2
S315080013F8FFF712FD2268D36B43F40273D36322689E
S31508001408D2F80C110C4B0B43C2F80C312268D2F8EF
S31508001418103143F40313C2F810310020C4F88800C9
S315080014281023C4F8843003B030BD0120704700BFCC
S3150800143800380240003801406000020038B5D0F88C
S315080014488430102B01D0012038BD04462023C0F86B
S3150800145884300423C366FFF787FC2268136843F0C1
S315080014680803136023681D680120FFF701FC236839
S315080014781D602268136843F00403136023681D6817
S315080014880120FFF7F5FB23681D602046FFF747FF95
S31508001498236803F580539A6942F400529A612368CF
S315080014A803F580539A6942F002029A614023C4F808
S315080014B884300020C8E7F8B5044631B11546D4F893
S315080014C88430402B09D00120F8BDD0F8883043F085
S315080014D80103C0F888300120F6E700222046FFF706
S315080014E829FD002835D1BFF34F8FA36A9A1D54F8F2
S315080014F822605A1CA262032A01D9033BA362A26A84
S315080015082368063254F8222003F580535A6002F0FD
S31508001518D5FD07463368002B30DA236803F5805271
S31508001528526912F4005F1CD1B5F1FF3FF2D002F000
S31508001538C5FDC01BA84201D8002DEBD1D4F88830C8
S3150800154843F00403C4F888304FF040533360012051
S31508001558BAE7D4F8883043F00203C4F88830012083
S31508001568B2E7D4F8882042F00802C4F8882003F5C0
S3150800157880535B69C4F88C300120A5E70020A3E7EF
S315080015882DE9F84F044681B18A46D0F88430402BB5
S315080015986CD1C76D07F1120350F82350C36EC3F117
S315080015A804094FF00008464634E0D0F8883043F07E
S315080015B80103C0F88830012059E02B6813F4007F2E
S315080015C802D00023236663662B68C3F30D4B2B688A
S315080015D813F4807F03D02B6823674FF00108AA68A5
S315080015E82A625B4604F1800104F17C0002F098F94E
S315080015F8236E01332366636E5B44636600232B629E
S315080016087B1C032B00D9FB1E03F1120254F8225047
S3150800161801361F462B68002B14DB88F001034E455C
S3150800162810D27BB12B6813F4807F03D0EB69A367CC
S31508001638AB6963672B6813F4007FBED1E36F002B91
S31508001648BBD1DDE7E36E3344E3662BB9E765B8F14A
S31508001658000F05D101200AE02046FFF785FBF5E7CC
S31508001668E36FCAF800300020E06700E00120BDE813
S31508001678F88FF8B505461E460068036903F01C038B
S31508001688C90289B21943940104F4F8640C4344F076
S315080016980104046102F012FD074601E02B681C6983
S315080016A814F0010F07D002F009FDC01BB0F5803F02
S315080016B8F4D3012004E02B685B699BB233600020F1
S315080016C8F8BD70B505460668306900F01C00C90201
S315080016D889B20143940104F4F8640C4344F0030402
S315080016E89BB273612B681C6102F0E8FC064601E0B0
S315080016F82B681C6914F0010F07D002F0DFFC801B69
S31508001708B0F5803FF4D3012000E0002070BD002921
S3150800171879D002681268C2F3001281F82820026894
S31508001728126802F060024A620268126812F4007FC0
S315080017380CBF0122002281F8202002681268C2F331
S315080017480042CA770268126812F4005F0CBF0122C9
S3150800175800228A7702681268C2F300320A7702689A
S31508001768126802F400628A610268126802F480420A
S315080017784A610268126812F4800F0CBF012200221F
S315080017884A740268126812F4000F0CBF012200227C
S315080017980A7402681268C2F3C012CA730268126829
S315080017A802F460228A6002681268C2F380220A710B
S315080017B802681268C2F340628A7302689269C2F3C1
S315080017C8400281F854200268926912F0800F0CBF13
S315080017D80122002281F84C200268926902F0300240
S315080017E80A6502689269120C8A6402689269C2F3E9
S315080017F8800281F8562002689269C2F3C00281F80D
S315080018085520002070470120704751B108B5D0F817
S315080018188430102B01D0012008BDFFF74DFC0020AD
S31508001828FAE701207047000038B5054603681C69C1
S3150800183824F01C0400F0C8FF0C4B984204D844F066
S3150800184808042B681C6138BD094B984202D244F03B
S315080018580C04F6E7074B9842F3D9074B984202D887
S3150800186844F00404EDE744F01004EAE7BF0E160254
S3150800187800879303FFE0F5057FD1F00810B40B49FC
S315080018880C6924F440740C610C6944F440740C61C6
S315080018980C6944F001040C610260BFF36F8F436062
S315080018A8BFF34F8F5DF8044B704700BF003C0240FA
S315080018B8084B1A6922F440721A611A6942F40072CE
S315080018C81A611A6942F001021A610160BFF34F8F63
S315080018D8704700BF003C0240084B1A6922F4407260
S315080018E81A611A6942F480721A611A6942F0010289
S315080018F81A610180BFF34F8F704700BF003C024052
S31508001908074B1A6922F440721A611A691A611A6928
S3150800191842F001021A610170BFF34F8F704700BF8A
S31508001928003C02401A4BDB6813F0020F04D0194A30
S31508001938936943F020039361154BDB6813F0100F86
S3150800194804D0144A936943F010039361104BDB687B
S3150800195813F0200F04D00F4A936943F008039361E4
S315080019680B4BDB6813F0400F04D00A4A936943F01F
S3150800197804039361064BDB6813F0800F04D0054A0D
S31508001988936943F002039361014BF222DA607047C8
S31508001998003C02409C020020094B1B69002B01DB16
S315080019A800207047064B074A5A6002F188325A6087
S315080019B81B69002B01DB002070470120704700BF18
S315080019C8003C024023016745034A136943F0004374
S315080019D813610020704700BF003C024038B5044632
S315080019E8154B00229A6102F069FB0546134BDB6822
S315080019F813F4803F0AD0B4F1FF3FF7D024B102F0C0
S31508001A085DFB401BA042F1D903200DE00B4BDB68B8
S31508001A1813F0F20F09D1094BDB6813F0010F08D050
S31508001A28064B0122DA60002038BDFFF77BFF01204C
S31508001A38FAE70020F8E700BF9C020020003C0240B5
S31508001A48F8B516461B4A127D012A31D004460D46BA
S31508001A581F46184B01221A754CF25030FFF7BEFF85
S31508001A6890B9032C07D8DFE804F00213181DF1B261
S31508001A782846FFF745FF4CF25030FFF7AFFF0E4AEE
S31508001A88136923F0010313610A4B00221A75F8BD7E
S31508001A98B1B22846FFF720FFEDE731462846FFF79B
S31508001AA807FFE8E732463B462846FFF7E7FEE2E740
S31508001AB80220ECE79C020020003C0240034612483C
S31508001AC8026922F440720261032910D0022915D04E
S31508001AD80D490A6942F004020A610B4A106940EA8C
S31508001AE8032040F480301061BFF34F8F70470146DA
S31508001AF8006948F2040202430A61EEE702490A69E4
S31508001B0842F400420A61E8E7003C0240012905D090
S31508001B18022906D039B14FF4407104E04FF48071B8
S31508001B2801E04FF400710B2800D904300C4B1A69F0
S31508001B3822F440721A611A690A431A611A6922F06C
S31508001B48F8021A611A6942EAC00242F002021A61E8
S31508001B581A6942F480321A61BFF34F8F704700BF83
S31508001B68003C0240224B1B7D012B3DD070B5044634
S31508001B780E461F4B01221A754CF25030FFF72EFFFE
S31508001B88014660BB4FF0FF3333602368012B16D03C
S31508001B98A568E368A2681344AB4220D9217C284685
S31508001BA8FFF7B4FF4CF25030FFF718FF114A1369D4
S31508001BB823F0FA031361014680B90135E9E761683C
S31508001BC8207CFFF77BFF4CF25030FFF707FF0146F2
S31508001BD8084A1069084B0340136100E03560044B56
S31508001BE800221A75084670BD02210846704700BFCC
S31508001BF89C020020003C0240FB7FFFFF00230F2BBE
S31508001C0800F2F48070B582B066E085684FEA430E44
S31508001C18032404FA0EF425EA0405CC6804FA0EF43B
S31508001C282C438460446824EA02044A68C2F3001212
S31508001C389A40224342605DE0DC08083450F82420C4
S31508001C4803F00705AD004FF00F0E0EFA05FE22EA5F
S31508001C580E0E0A69AA4042EA0E0240F824205DE000
S31508001C68092200E0002202FA0EF22A430234604DE5
S31508001C7845F824205F4A94686FEA0C0224EA0C05A2
S31508001C884E6816F4801F01D04CEA0405594CA56025
S31508001C98E46802EA04054E6816F4001F01D04CEA07
S31508001CA80405544CE560646802EA04054E6816F4AF
S31508001CB8003F01D04CEA04054E4C65602468224072
S31508001CC84D6815F4803F01D04CEA0402494C22605D
S31508001CD801330F2B00F2888001229A400C6804EA27
S31508001CE8020C32EA0404F3D14C6804F00304013CFC
S31508001CF8012C8AD94A6802F00302032A09D0C46863
S31508001D085D000322AA4024EA02048A68AA402243FC
S31508001D18C2604A6802F00302022A8DD004684FEAB4
S31508001D28430E032202FA0EF224EA02044A6802F073
S31508001D38030202FA0EF2224302604A6812F4403F8E
S31508001D48C6D02D4A546C44F480445464526C02F448
S31508001D5880420192019A9C08A51C254A52F82550EA
S31508001D6803F0030E4FEA8E0E0F2202FA0EF225EA48
S31508001D780205224A90423FF475AF02F58062904206
S31508001D8822D002F58062904220D002F58062904205
S31508001D981ED002F5806290421CD002F580629042FD
S31508001DA81AD002F58062904218D002F580629042F5
S31508001DB816D002F58062904214D002F580629042ED
S31508001DC83FF44EAF0A224EE701224CE702224AE7C1
S31508001DD8032248E7042246E7052244E7062242E7A3
S31508001DE8072240E708223EE702B070BD704700BFE9
S31508001DF800380140003C014000380240000002401B
S31508001E0800230F2B00F29B80F0B52DE0092500E092
S31508001E18002505FA0CF5A54275D004685D004FF053
S31508001E28030C0CFA05FC24EA0C0404604FEAD30EEA
S31508001E380EF1080E50F82E4003F00706B6000F25D7
S31508001E48B54024EA050440F82E40C46824EA0C0480
S31508001E58C460446824EA02024260826822EA0C02E4
S31508001E68826001330F2B69D801229A4002EA0106DB
S31508001E7832EA0104F5D14FEA930E0EF10205304C09
S31508001E8854F8254003F0030C4FEA8C0C0F2505FA85
S31508001E980CF73C402B4DA842BAD005F58065A842F8
S31508001EA821D005F58065A8421FD005F58065A842AA
S31508001EB81DD005F58065A8421BD005F58065A842A2
S31508001EC819D005F58065A84217D005F58065A8429A
S31508001ED815D005F58065A84213D005F58065A84292
S31508001EE894D00A2595E7012593E7022591E7032566
S31508001EF88FE704258DE705258BE7062589E7072556
S31508001F0887E7082585E7104C256825EA060525602C
S31508001F18656825EA06056560E56825EA0605E56053
S31508001F28A56825EA0605A560054E0EF1020456F8C9
S31508001F38245025EA070546F824506EE7F0BD704791
S31508001F480038014000000240003C0140036919427C
S31508001F5801D001207047002070470AB18161704797
S31508001F68090481617047000010B582B01B4B1A6CD2
S31508001F7842F080521A641B6C03F080530193019B4C
S31508001F88174A136843F48033136002F097F8044637
S31508001F98134B5B6813F4803F08D102F08FF8001BD7
S31508001FA8B0F57A7FF4D9032002B010BD0C4A13683D
S31508001FB843F40033136002F081F80446084B5B6863
S31508001FC813F4003F07D102F079F8001BB0F57A7FC1
S31508001FD8F4D90320E8E70020E6E700BF0038024006
S31508001FE80070004038B502F069F804464E4A13688E
S31508001FF843F0010313604C4B1B6813F0020F06D11C
S3150800200802F05CF8001B0228F5D9032038BD464DB6
S315080020182B6843F080032B6002F050F8044600232F
S31508002028AB60414B9B6813F00C0F08D002F046F8DA
S31508002038001B41F288339842F3D90320E6E702F0F9
S315080020483DF80446384A136823F450231360364B80
S315080020581B6813F4003F06D002F030F8001B64280A
S31508002068F5D90320D2E702F029F804462E4A136860
S3150800207823F0807313602C4B1B6813F0007F06D07F
S3150800208802F01CF8001B0228F5D90320BEE702F067
S3150800209815F80446244A136823F080631360224B14
S315080020A81B6813F0006F06D002F008F8001B6428B6
S315080020B8F5D90320AAE702F001F804461A4A136874
S315080020C823F080531360184B1B6813F0005F06D083
S315080020D801F0F4FF001B6428F5D9032096E7124B94
S315080020E8124A5A60103AC3F88420C3F88820DA6876
S315080020F822F4FE42DA60DA6842F47F02DA605A6F3E
S3150800210822F001025A675A6F42F080725A67084BE2
S31508002118084A1A60084B1868FEF76CFD00283FF451
S3150800212875AF012072E700BF00380240103000245E
S31508002138400000200024F40048000020002800F091
S31508002148068270B582B00446036813F0010F29D0D9
S31508002158954B9B6803F00C03042B1AD0924B9B688B
S3150800216803F00C03082B0FD06368B3F5803F40D003
S31508002178002B54D18C4B1A6822F480321A601A68DC
S3150800218822F480221A6039E0874B5B6813F4800FC3
S31508002198EAD0854B1B6813F4003F03D06368002B0D
S315080021A800F0D781236813F0020F74D07E4B9B6822
S315080021B813F00C0F5ED07C4B9B6803F00C03082BBE
S315080021C853D0E368002B00F08980774A136843F0F8
S315080021D80103136001F072FF0546734B1B6813F081
S315080021E8020F72D101F06AFF401B0228F5D90320B5
S315080021F8B4E16D4A136843F48033136063682BB3FC
S3150800220801F05CFF0546684B1B6813F4003FC9D10B
S3150800221801F054FF401B6428F5D903209EE1B3F565
S31508002228A02F09D0604B1A6822F480321A601A68FF
S3150800223822F480221A60E1E75B4B1A6842F480228E
S315080022481A601A6842F480321A60D7E701F036FF36
S315080022580546554B1B6813F4003FA3D001F02EFF23
S31508002268401B6428F5D9032078E14F4B5B6813F4C3
S31508002278800FA6D14C4B1B6813F0020F03D0E368F6
S31508002288012B40F06881484A136823F0F80321694E
S3150800229843EAC1031360236813F0080F46D063693D
S315080022A883B3414A536F43F00103536701F006FFAE
S315080022B805463D4B5B6F13F0020F37D101F0FEFE62
S315080022C8401B0228F5D9032048E1374A136823F04A
S315080022D8F803216943EAC1031360DCE7324A136845
S315080022E823F00103136001F0E9FE05462E4B1B682F
S315080022F813F0020FCFD001F0E1FE401B0228F5D9F2
S3150800230803202BE1284A536F23F00103536701F092
S31508002318D5FE0546244B5B6F13F0020F06D001F075
S31508002328CDFE401B0228F5D9032017E1236813F0D0
S31508002338040F7DD01C4B1B6C13F0805F1ED11A4B03
S315080023481A6C42F080521A641B6C03F0805301938E
S31508002358019B0125154B1B6813F4807F10D0A368D1
S31508002368012B25D0002B3BD10F4B1A6F22F0010207
S315080023781A671A6F22F004021A671EE00025E9E7B1
S315080023880A4A136843F48073136001F097FE0646F9
S31508002398064B1B6813F4807FE1D101F08FFE801B82
S315080023A86428F5D90320D9E00038024000700040B7
S315080023B8724A136F43F001031367A36833B301F036
S315080023C87DFE06466D4B1B6F13F0020F2FD101F0E9
S315080023D875FE801B41F288339842F3D90320BDE085
S315080023E8052B09D0654B1A6F22F001021A671A6F76
S315080023F822F004021A67E0E7604B1A6F42F00402FB
S315080024081A671A6F42F001021A67D6E701F056FEF4
S3150800241806465A4B1B6F13F0020F08D001F04EFE02
S31508002428801B41F288339842F3D9032096E0FDB918
S31508002438A369002B00F09180504A926802F00C02BA
S31508002448082A59D0022B19D04C4A136823F08073EE
S31508002458136001F033FE0446484B1B6813F0007FEF
S3150800246848D001F02BFE001B0228F5D9032075E099
S31508002478424A136C23F080531364D9E73F4A13681A
S3150800248823F08073136001F019FE05463B4B1B6861
S3150800249813F0007F06D001F011FE401B0228F5D97B
S315080024A803205BE0E369226A1343626A43EA8213FC
S315080024B8A26A5208013A43EA0243E26A43EA026315
S315080024C8226B43EA02732D4A5360136843F08073FC
S315080024D8136001F0F3FD0446284B1B6813F0007FD0
S315080024E806D101F0EBFD001B0228F5D9032035E0DB
S315080024F8002033E0002031E0204A5268012B2FD013
S3150800250802F48003E1698B422CD102F03F03216A69
S315080025188B4229D1616A47F6C0731340B3EB811F12
S3150800252824D102F44031A36A5B08013BB1EB034F9F
S315080025381ED102F07063E16AB3EB016F1AD102F09B
S31508002548E042236BB2EB037F16D1002006E0012098
S315080025587047012002E0012000E0002002B070BDAB
S315080025680120FBE70120F9E70120F7E70120F5E755
S315080025780120F3E70120F1E70120EFE700380240E0
S3150800258808B5334B9B6803F00C03042B5BD0082B68
S315080025985BD12F4B5A6802F03F025B6813F4800F31
S315080025A82CD02B4B5868C0F388104FEA401CBCEB5C
S315080025B8000C6EEB0E0E4FEA8E1343EA9C634FEA45
S315080025C88C11B1EB0C0163EB0E03DB0043EA517384
S315080025D8C90011EB000C43F10003590200234FEA26
S315080025E84C2041EADC51FDF723FE194B5B68C3F31F
S315080025F8014301335B00B0FBF3F008BD144B586880
S31508002608C0F388104FEA401CBCEB000C6EEB0E0EAC
S315080026184FEA8E1343EA9C634FEA8C11B1EB0C011F
S3150800262863EB0E03DB0043EA5173C90011EB000C98
S3150800263843F10003990200234FEA8C2041EA9C5192
S31508002648FDF7F6FDD1E70348D7E70348D5E700BF06
S315080026580038024000127A000024F400002800F02E
S31508002668A08070B50D460446524B1B6803F00F034D
S315080026788B420BD24F4A136823F00F030B431360A0
S31508002688136803F00F038B4240F08D80236813F01C
S31508002698020F17D013F0040F04D0474A936843F47F
S315080026A8E0539360236813F0080F04D0424A9368EE
S315080026B843F460439360404A936823F0F003A168A3
S315080026C80B439360236813F0010F31D06368012B1D
S315080026D820D0022B25D0384A126812F0020F64D08F
S315080026E835498A6822F0030213438B6001F0E6FC39
S315080026F80646314B9B6803F00C036268B3EB820FFE
S3150800270816D001F0DBFC801B41F288339842F0D9D9
S31508002718032045E0284A126812F4003FE0D1012058
S315080027283EE0254A126812F0007FD9D1012037E029
S31508002738204B1B6803F00F03AB420AD91D4A1368DE
S3150800274823F00F032B431360136803F00F03AB4200
S315080027582DD1236813F0040F06D0174A936823F47B
S31508002768E053E1680B439360236813F0080F07D01A
S31508002778114A936823F46043216943EAC1039360C5
S31508002788FFF7FEFE0C4B9B68C3F303130B4AD35C97
S31508002798D8400B4B18600B4B1868FEF72BFA00202D
S315080027A870BD012070470120FAE70120F8E70120EB
S315080027B8F6E700BF003C024000380240D86300082C
S315080027C84000002048000020014B1868704700BFE9
S315080027D840000020F0B583B00446066816F00106E6
S315080027E80DD0B54B9A6822F400029A609A68416B34
S315080027F80A439A60436B002B00F067810026256818
S3150800280815F4002511D0AC4AD2F88C3023F44013BD
S31508002818E16B0B43C2F88C30E36BB3F5801F00F00D
S315080028285681002B00F055810025236813F4801F74
S315080028380FD0A14AD2F88C3023F44003216C0B43FD
S31508002848C2F88C30236CB3F5800F00F0448103B9C5
S315080028580125236813F0807F00D0012613F0200F86
S3150800286840F03B81236813F0100F0CD0924BD3F835
S315080028788C2022F08072C3F88C20D3F88C20A16BA8
S315080028880A43C3F88C20236813F4804F08D08A4A71
S31508002898D2F8903023F44033616E0B43C2F8903077
S315080028A8236813F4004F08D0834AD2F8903023F4EB
S315080028B84023A16E0B43C2F89030236813F4803F77
S315080028C808D07D4AD2F8903023F44013E16E0B43C2
S315080028D8C2F89030236813F4003F08D0764AD2F835
S315080028E8903023F44003216F0B43C2F890302368D5
S315080028F813F0400F08D0704AD2F8903023F003033B
S31508002908616C0B43C2F89030236813F0800F08D027
S31508002918694AD2F8903023F00C03A16C0B43C2F82D
S315080029289030236813F4807F08D0634AD2F8903031
S3150800293823F03003E16C0B43C2F89030236813F494
S31508002948007F08D05C4AD2F8903023F0C003216D86
S315080029580B43C2F89030236813F4806F08D0564AA0
S31508002968D2F8903023F44073616D0B43C2F8903067
S31508002978236813F4006F08D04F4AD2F8903023F42E
S315080029884063A16D0B43C2F89030236813F4805F47
S3150800299808D0494AD2F8903023F44053E16D0B43E6
S315080029A8C2F89030236813F4005F08D0424AD2F878
S315080029B8903023F44043216E0B43C2F890302368C5
S315080029C813F4800F08D03C4AD2F8903023F080637D
S315080029D8A16F0B43C2F89030236813F4001F0DD07B
S315080029E8354AD2F8903023F00063E16F0B43C2F8FA
S315080029F89030E36FB3F1006F00F0D580236813F0C9
S31508002A08080F00D0012513F4802F08D02A4AD2F8D7
S31508002A18903023F04073616F0B43C2F890302368F7
S31508002A2813F4000F09D0244AD2F8903023F08053C3
S31508002A38D4F880100B43C2F89030236813F0806FDF
S31508002A4809D01D4AD2F8903023F00053D4F88410E0
S31508002A580B43C2F89030236813F0006F09D0164A62
S31508002A68D2F88C3023F00073D4F888100B43C2F8D8
S31508002A788C30236813F0805F09D00F4AD2F88C305F
S31508002A8823F08063D4F88C100B43C2F88C3026B92F
S31508002A98236813F0007F00F00681074A136823F0BD
S31508002AA88063136001F00AFB0646034B1B6813F0A4
S31508002AB8006F7AD002E000BF0038024001F0FEFA43
S31508002AC8801B6428F1D90320F0E0012697E6012641
S31508002AD8A7E60125A9E60126B9E67F4B1A6C42F056
S31508002AE880521A641B6C03F080530193019B7B4A3E
S31508002AF8136843F48073136001F0E0FA0746774BCE
S31508002B081B6813F4807F06D101F0D8FAC01B642825
S31508002B18F5D90320CAE0704B1B6F13F4407315D020
S31508002B28226B02F440729A4210D06B4B1A6F22F449
S31508002B384072196F41F480311967196F21F4803191
S31508002B4819671A671B6F13F0010F12D1236B03F469
S31508002B584072B2F5407F1DD05F4A936823F4F81394
S31508002B6893605D490B6F226BC2F30B0213430B6725
S31508002B7878E601F0A3FA0746574B1B6F13F0020FC6
S31508002B88E4D101F09BFAC01B41F288339842F3D985
S31508002B9803208BE05048826822F4F81250491940FD
S31508002BA80A438260DDE7012528E7236813F0010F49
S31508002BB813D0636B8BB9484AD2F88430D2F884109C
S31508002BC8606803F4403343EA801301F070610B43ED
S31508002BD8A16843EA0173C2F88430236813F4002F06
S31508002BE803D0E26BB2F5801F06D013F4801F1ED0FF
S31508002BF8236CB3F5800F1AD1374AD2F88430D2F845
S31508002C088410606803F4403343EA8013E06843EAB3
S31508002C18006301F0E0410B43C2F88430D2F88C30E7
S31508002C2823F01F03616A01390B43C2F88C30236805
S31508002C3813F0807F11D0284AD2F88400D2F884107D
S31508002C48666823691B0443EA861300F07060034329
S31508002C5801F0E0410B43C2F88430236813F0007F83
S31508002C680DD0626823691B0443EA8213E26843EAC3
S31508002C780263A26843EA0273174AC2F88430164AFE
S31508002C88136843F08063136001F018FA0646124B7E
S31508002C981B6813F0006F06D101F010FA801B642830
S31508002CA8F5D9032002E0012D02D0002003B0F0BDBB
S31508002CB8094A136823F08053136001F0FFF90546A3
S31508002CC8054B1B6813F0005F0CD001F0F7F9401BA1
S31508002CD86428F5D90320E9E7003802400070004067
S31508002CE8FFFCFF0F236813F4002F01D0E26B22B113
S31508002CF813F4801F1DD0236CDBB9354AD2F8883007
S31508002D08D2F88810606903F4403343EA8013A0694F
S31508002D1843EA006301F0E0410B43C2F88830D2F871
S31508002D288C3023F4F853A16A013943EA0123C2F81F
S31508002D388C30236813F4001F03D0E36FB3F1006FD8
S31508002D4831D0236813F0080F19D0214AD2F8881011
S31508002D58D2F88830606903F4403343EA801301F0F7
S31508002D6870610B43E16943EA0173C2F88830D2F807
S31508002D788C3023F44033E16A0B43C2F88C30144A8A
S31508002D88136843F08053136001F098F90446104B12
S31508002D981B6813F0005F19D101F090F9001B64282D
S31508002DA8F5D9032082E70A4AD2F88800D2F88810AB
S31508002DB86569236A1B0443EA851300F070600343B8
S31508002DC801F0E0410B43C2F88830BAE700206DE706
S31508002DD80038024000B5836891FAA1FCBCFA8CFC5D
S31508002DE84FEA4C0C4FF0030E0EFA0CFC23EA0C03C0
S31508002DF891FAA1F1B1FA81F149008A401343836037
S31508002E085DF804FB00B5C36891FAA1FCBCFA8CFC12
S31508002E184FEA4C0C4FF0030E0EFA0CFC23EA0C038F
S31508002E2891FAA1F1B1FA81F149008A401343C360C6
S31508002E385DF804FB00B5036A91FAA1FCBCFA8CFCA0
S31508002E484FEA8C0C4FF00F0E0EFA0CFC23EA0C0313
S31508002E5891FAA1F1B1FA81F189008A401343036214
S31508002E685DF804FB00B5436A090A91FAA1FCBCFAA5
S31508002E788CFC4FEA8C0C4FF00F0E0EFA0CFC23EA6A
S31508002E880C0391FAA1F1B1FA81F189008A4013433A
S31508002E9843625DF804FB00B5036891FAA1FCBCFA25
S31508002EA88CFC4FEA4C0C4FF0030E0EFA0CFC23EA86
S31508002EB80C0391FAA1F1B1FA81F149008A4013434A
S31508002EC803605DF804FBF8B507460E460D6895FAE3
S31508002ED8A5F5B5FA85F519E0B26821463846FFF72B
S31508002EE879FF3268F1687B6823EA020301FB02F27C
S31508002EF813437B6016E0726921463846FFF7B2FF2E
S31508002F08726821463846FFF7C6FF0135346834FA31
S31508002F1805F21BD00122AA401440F6D07368013B7B
S31508002F28012BD9D9326921463846FFF76BFF7368F2
S31508002F38022BE5D194FAA4F3B3FA83F3072BDAD86C
S31508002F48726921463846FFF775FFD9E70020F8BDAC
S31508002F58034B9B68C3F30313024AD35CD8407047F4
S31508002F6800380240D8630008034B9B68C3F38223E2
S31508002F78024AD35CD840704700380240D06300083C
S31508002F88034B9B68C3F34233024AD35CD840704765
S31508002F9800380240D06300080D4B5B6803F48003D1
S31508002FA89BB90C480A4B5A6802F03F02B0FBF2F08C
S31508002FB85A68C2F3881202FB00F05B68C3F3014340
S31508002FC801335B00B0FBF3F070470348EAE700BF3C
S31508002FD8003802400024F40000127A0008B5074BAE
S31508002FE89B6803F00C03042B04D0082B04D1FFF7C5
S31508002FF8D3FF08BD0248FCE70248FAE70038024052
S3150800300800127A000024F40008B5032808D00C2812
S315080030182ED0B0F5406F53D030287AD0002008BD9E
S31508003028514BD3F89030034043EA00434F4A934242
S3150800303808D0B3F1031F0CD0013A934211D1FFF718
S31508003048CDFFECE7484B186810F00200E7D048486F
S31508003058E5E7454B186F10F00200E0D04FF4004042
S31508003068DDE7FFF7BBFFFFF773FFFFF789FFD6E733
S315080030783D4BD3F89030034043EA00433D4A934218
S3150800308808D0B3F10C1F0CD0043A934211D1FFF7BC
S31508003098A5FFC4E7344B186810F00200BFD03448BF
S315080030A8BDE7314B186F10F00200B8D04FF4004056
S315080030B8B5E7FFF793FFFFF74BFFFFF755FFAEE7B7
S315080030C8294BD3F89030034043EA00432A4A9342EF
S315080030D809D0B3F10C2F0DD0A2F58062934211D115
S315080030E8FFF77CFF9BE7204B186810F0020096D084
S315080030F81F4894E71C4B186F10F002008FD04FF446
S3150800310800408CE7FFF76AFFFFF722FFFFF738FF53
S3150800311885E7154BD3F89030034043EA0043174A2E
S31508003128934208D0B3F1301F0DD0103A934213D109
S31508003138FFF754FF73E70C4B186810F002003FF4CA
S315080031486EAF0B486BE7084B186F10F002003FF498
S3150800315866AF4FF4004062E7FFF740FFFFF7F8FE57
S31508003168FFF702FF5BE700BF0038024002000300D2
S315080031780024F40008000C000008000C20003000A9
S3150800318808B5C0280AD0B0F5407F2FD0B0F5405F03
S3150800319855D0B0F5404F7BD0002008BD524BD3F828
S315080031A89030034043EA0043504A934208D0B3F1AB
S315080031B8C01F0CD0403A934211D1FFF70FFFECE736
S315080031C8494B186810F00200E7D04948E5E7464B2E
S315080031D8186F10F00200E0D04FF40040DDE7FFF763
S315080031E8FDFEFFF7B5FEFFF7BFFED6E73E4BD3F861
S315080031F89030034043EA00433E4A934209D0B3F16C
S31508003208032F0DD0A2F58072934211D1FFF7E6FE7F
S31508003218C3E7354B186810F00200BED03448BCE73F
S31508003228314B186F10F00200B7D04FF40040B4E7DE
S31508003238FFF7D4FEFFF78CFEFFF796FEADE72A4B9D
S31508003248D3F89030034043EA00432B4A934209D007
S31508003258B3F1302F0DD0A2F58052934211D1FFF762
S31508003268BDFE9AE7204B186810F0020095D0204852
S3150800327893E71D4B186F10F002008ED04FF40040EC
S315080032888BE7FFF7ABFEFFF763FEFFF76DFE84E7F4
S31508003298154BD3F89030034043EA0043174A934244
S315080032A809D0B3F1C02F0ED0A2F58042934213D1AC
S315080032B8FFF794FE71E70C4B186810F002003FF40C
S315080032C86CAF0B4869E7084B186F10F002003FF41B
S315080032D864AF4FF4004060E7FFF780FEFFF738FE5B
S315080032E8FFF742FE59E700BF003802408000C000D9
S315080032F80024F4000002000300200030008000C00B
S31508003308B2F5004F06D001EB5301B1FBF3F189B2D0
S31508003318C16070475A0802EB4102B2FBF3F34FF655
S31508003328F0721A40C3F342031343C36070470000A0
S3150800333838B5036813F0010F62D104460D460368D1
S31508003348314A1A404B68C9680B4329690B43A9696E
S315080033580B431A430260AB68426822F4405213438F
S3150800336843606B69826822F4407213438360274B73
S31508003378984216D0264B98421BD0264B98421CD00A
S31508003388254B98421DD0254B98421ED0244B98426F
S3150800339820D0244B984222D0234B984224D001208F
S315080033A82FE00320FFF730FE60B32B680BBB012024
S315080033B827E00C20FFF728FEF6E73020FFF724FE63
S315080033C8F2E7C020FFF7DCFEEEE74FF44070FFF7A0
S315080033D8D7FEE9E74FF44060FFF716FEE4E74FF437
S315080033E84050FFF7CDFEDFE74FF44040FFF7C8FE31
S315080033F8DAE7AA6901462046FFF782FF002000E0BF
S31508003408012038BD0120FCE7F369FFEF00100140F1
S315080034180044004000480040004C0040005000406E
S315080034280014014000780040007C004008B500F010
S315080034383DFE08BD88B1CA6892B18A689AB10A6918
S31508003448A2B10A6882604A68C260CA6842618A6824
S3150800345802610A698261002070474FF0FF307047A1
S315080034684FF0FF3070474FF0FF3070474FF0FF308E
S31508003478704770B582B00546002301934468002C4E
S315080034884AD1836803B1984720232B60002602E0B7
S315080034986FF0040601341F2C0DD86B6901AA122196
S315080034A8204698470028F3DB019B03F01F03A34235
S315080034B8F0D12C60002628681F2826D8002E37D178
S315080034C82B694FF4004200219847002833DB6B69C3
S315080034D801AA00212868984700282FDBAB69984776
S315080034E80446019B13F4004F11D0AB699847001B9B
S315080034F8B0F5FA7F0DD86B6901AA002128689847A4
S315080035080028EEDA6FF0040601E06FF002067EB9CD
S3150800351803E06FF00106FAE70026AB699847044608
S31508003528AB699847031BB3F5FA6FF9D901236B60A2
S31508003538304602B070BD6FF00306F9E76FF004066F
S31508003548F6E710B582B0044600230193436901AA39
S31508003558012100689847002839DB636901AA012117
S3150800356820689847002835DB019B13F0040F34D0F0
S31508003578636901AA002120689847002830DB019B67
S3150800358813F4805F0CD103F40452B2F5045F2AD011
S3150800359813F4005F29D113F4807F28D004201DE096
S315080035A8636901AA1F2120689847002821DB019B27
S315080035B813F4805F20D003F01C03182B1ED0082BA9
S315080035C81ED0142B01D0052008E0042006E06FF071
S315080035D8040003E06FF0040000E0012002B010BD0B
S315080035E86FF00400FAE70220F8E70320F6E705205B
S315080035F8F4E76FF00400F1E70620EFE70220EDE7AD
S315080036080320EBE70023072B13D801229A400A491F
S3150800361809680A4202D00133DBB2F4E70A430649CD
S315080036280A604FF4C46202FB03F02030034B1844C7
S3150800363870470020704700BFC00E0020E00E00202B
S315080036480022072A14D84FF4C46302FB03F3203375
S3150800365808490B44834202D00132D2B2F1E701236A
S3150800366803FA02F204490B6823EA02030B6070475F
S31508003678704700BFE00E0020C00E00200023012B73
S3150800368811D801229A40094909680A4202D0013329
S31508003698DBB2F4E70A4305490A6003EB4303580219
S315080036A8034B184470470020704700BFB802002033
S315080036B8C00200200023012B11D803EB4301084A56
S315080036C802EB4122824202D00133DBB2F3E7012240
S315080036D89A4004490B6823EA02030B60704770474F
S315080036E8C0020020B80200200020704708B500F084
S315080036F8DDFC08BD08B513460A4601460348FDF72A
S31508003708B8FF00B908BD4FF0FF30FBE7E801002015
S3150800371808B513460A4601460348FDF7D2FF00B91D
S3150800372808BD4FF0FF30FBE7E801002008B502485E
S31508003738FEF77AF8002008BDE801002070B59AB0AF
S315080037486422002101A802F0F8FD264B08221A7007
S3150800375800225A7027229A706922DA705B221A7137
S3150800376845225A712048214A026043604FF40003F3
S3150800377883601F4BC3601F4B03614FF4C0634361EB
S31508003788FDF7E8FD1C4C1D492046FFF753FE204669
S31508003798FFF76FFE2046FFF7D4FE042807D0052852
S315080037A809D0032819D14FF48045002605E00025DD
S315080037B84FF4006601E000252E460B4C01A9204669
S315080037C8FDF7A5FF0796069501A92046FEF71DF8F9
S315080037D82046FDF733FE1AB070BD4FF480454FF406
S315080037E80066EAE700400020E80100200080024061
S315080037F86400002004010020E03F00204C0000205F
S31508003808074A1178074B1970517859709178997049
S31508003818D178D9701179197152795A71704700BFE0
S31508003828004000201C4D0020064B1A7802705A7872
S3150800383842709A788270DA78C2701A7902715B795E
S31508003848437170470040002030B583B000230193C8
S3150800385801A91448FDF794FEF8B9019C0CB1002596
S3150800386806E000251AE004F12000FFF7E9FE2468BF
S31508003878A4B1A288002AF6D0E388002BF3D09A428E
S31508003888F1D8B3F5BE6FEED804F1200106482844EE
S3150800389802F080FDA3881D44E5E70025284603B005
S315080038A830BD00BFE80100202847002030B593B096
S315080038B83822002104A802F040FD00230193029350
S315080038C80393FFF7DBFEE0B104460F4D2A880F493C
S315080038D802F060FD01942B880293002203922121AD
S315080038E804914FF4400109910892059301AB069398
S315080038F81194FA2204A90648FDF7DDFD2046FFF7CC
S31508003908D9FE13B030BD00BF1C4700202847002049
S31508003918E801002010B50446FFF774FE206010BDC4
S3150800392830B4A2F12004002542F8205C22F81A5C7B
S3150800393822F81C3C026822B10A6814600C60026806
S3150800394805E00460FAE7D1881944D1801268002A8C
S31508003958F9D130BC704772B6704762B6704708B579
S31508003968FFF7F9FF08BD000010B500F053FAB8B123
S31508003978FCF710FEB8B100F029FCFDF725F900F0B0
S3150800398851FB00F04BFA094B0340094A936000F0D3
S3150800399845FA4468FFF7E1FFA04700F0B3FC10BDFD
S315080039A800F0B0FCFBE700F0ADFCF8E780FFFF1F6E
S315080039B800ED00E070B50D46044606E015F8013B33
S315080039C804F8013B00F0AEFC3246531E9EB2002AAC
S315080039D8F4D170BD044B5B6913F0005F01D0012078
S315080039E870470020704700BF003C024038B50546BE
S315080039F8002401E00134E4B20A2C15D800F092FC40
S31508003A0804EB4403094A52F82330AB42F2D804EBD4
S31508003A18440102EB810252681344AB42EAD9034BCC
S31508003A2803EB8103187A00E0FF2038BD806400089C
S31508003A3808B5C1F3080353B903688B4209D040F89F
S31508003A48041B4FF40072FFF7B5FF012008BD0020DC
S31508003A58FCE70120FAE72DE9F0410746FFF7BAFF28
S31508003A68804610B94046BDE8F081FDF795FF002469
S31508003A787F2C15D83E6806EB840807EB84035D6837
S31508003A8800F050FC2A46002341460220FDF7D8FFDD
S31508003A98804640B956F82430AB4206D10134E7E7E8
S31508003AA84FF0010801E04FF00008FDF78DFFD9E750
S31508003AB838B50D460C4B984211D004460B4B994223
S31508003AC807D1094C29462046FFF7B2FF48B12046D8
S31508003AD838BDFFF7C0FF0028F4D10024F7E7044CE7
S31508003AE8F0E70024F3E700BF08400020008000083C
S31508003AF80C4200202DE9F04106460C4617461D469D
S31508003B08DFF8748001EA08080368B3F1FF3F07D0B5
S31508003B18336843450AD13368E41A3444043414E054
S31508003B284146FFF785FF0028F2D120E04146304696
S31508003B38FFF7BEFF06460028EDD1002017E017F864
S31508003B48013B04F8013B013D10D000F0EBFB311DA9
S31508003B58611AB1F5007FF2D3316801F50071304674
S31508003B68FFF7A6FF064620B1041DE8E70120BDE8D1
S31508003B78F0810020FBE700BF00FEFFFF00230A2BA9
S31508003B882FD803EB4301194A02EB8102127A8242C3
S31508003B9802D00133DBB2F2E770B5144A52F8215065
S31508003BA802EB8102566815F0030F02D116F0030FCF
S31508003BB804D040F2B6210E4800F084FA002405E045
S31508003BC82B68B3F1FF3F0ED104350134B4EB960FD9
S31508003BD805D214F0FF0FF3D100F0A4FBF0E701209B
S31508003BE870BD002070470020FAE700BF806400080F
S31508003BF8E8630008F0B587B004460E46002300932C
S31508003C08884202D860B1012500E000250B2E09D8A4
S31508003C18FFF7E0FE10B1012D06D0284607B0F0BD23
S31508003C280025F5E70025F3E700230193022305930A
S31508003C3801230493FDF7B0FE01E00134E4B2B4426F
S31508003C480FD82046FFF79AFF07460028F5D100F057
S31508003C5869FB0394694601A8FDF784FF0028ECD0A0
S31508003C683D46FDF7B1FE2846D8E700004FF0FF337A
S31508003C78024A1360024A1360704700BF0C420020CC
S31508003C880840002070B50D460139134B1B1A994296
S31508003C9801D9002070BD04461646FFF7A7FEFF287F
S31508003CA811D028190138FFF7A1FEFF280BD00B4AB7
S31508003CB822400B4B9A4208D02B46324621460948E1
S31508003CC8FFF718FFE6E70020E4E72B4632462146C9
S31508003CD80548FFF70FFFDDE7FFFF1F0800FEFFFF98
S31508003CE8008000080C420020084000204A1E0D4BA0
S31508003CF81B1A9A4201D90020704770B505460C462A
S31508003D08FFF774FE06462C44601EFFF76FFEFF2871
S31508003D1818BFFF2E01D1002070BD01463046FFF7B7
S31508003D2869FFF9E7FFFF1F0800B583B00023019371
S31508003D38134B1B68B3F1FF3F20D0114A5368019310
S31508003D4891680B440193D1680B44019311690B449C
S31508003D58019351690B44019391690B440193D26904
S31508003D6813440193DA4301925B42019301AA0421A1
S31508003D780448FFF787FF03B05DF804FB0120FAE75C
S31508003D8808400020F88100080A4B1A685968114447
S31508003D989A681144DA6811441A6911445A6911442F
S31508003DA89A690A44D3F8F831D34201D000207047FB
S31508003DB8012070470080000808B50C4B1B68B3F152
S31508003DC8FF3F06D10A4B1B68B3F1FF3F07D1012015
S31508003DD808BD0648FFF73FFE0028F3D1F8E7044870
S31508003DE8FFF739FE0028F3D00120F1E70840002044
S31508003DF80C420020004870470080000808B5FFF705
S31508003E0835FF08BD08B5FFF73DFF08BD08B5FFF73C
S31508003E186DFF08BD08B5FFF7B7FF08BD08B5FFF77A
S31508003E28E9FF08BD08B5FFF77FFF00B908BDFFF72A
S31508003E38C3FFFBE7054BDB6913F0200F04D0034BE0
S31508003E485B6A0370012070470020704700480040ED
S31508003E5810B5094B986200F029F900F10A04064BD7
S31508003E68DB6913F0800F05D100F05CFA00F01EF943
S31508003E78A042F4D910BD00BF0048004010B588B06C
S31508003E880C4C236823F0010323604FF46143019324
S31508003E9800230293039304930C220592069307932F
S31508003EA801A92046FFF744FA236843F00103236073
S31508003EB808B010BD0048004070B506460D46812971
S31508003EC804D82846FFF7C4FF00240BE086210748D4
S31508003ED800F0F8F8F5E700F025FA305DFFF7B8FFC7
S31508003EE80134A4B2A542F6D870BD00BF28640008FC
S31508003EF870B5254B1C78BCB92448FFF79BFF0128E9
S31508003F0801D0204670BD214B1B78013BDBB2802BC4
S31508003F18F7D800F0CBF81E4B18601E4B00221A7013
S31508003F28194B01221A70ECE706460D46194B1B7801
S31508003F38013316481844FFF77DFF0446012815D1B2
S31508003F48144B1A780132D2B21A70104B1B789A425F
S31508003F5801D00024D5E710493046FFF72BFD0A4B58
S31508003F6800221A700B4B1B782B70CAE700F09EF8D4
S31508003F78074B1B68C833984203D90024024B1C70A8
S31508003F88BFE70024BDE700BF9C4400201844002072
S31508003F9814440020104400201944002082B01A4B0B
S31508003FA85A6C42F001025A645A6C02F001020192F4
S31508003FB8019A164A12689968C1F342311448415C55
S31508003FC8CA409B6813F4604F1BD1012302FB03F315
S31508003FD8104A012111604FF6FF71D1625B090E493B
S31508003FE8A1FB0313DB09013B9362536943F0010301
S31508003FF853610A4B00211960526A094B1A8002B0AC
S3150800400870470223E2E700BF00380240400000205C
S31508004018D063000800000140C55A7C0AA044002065
S315080040289E4400200C4B5A6A42F001025A625A6AA8
S3150800403822F001025A625A6C22F001025A644FF0C1
S31508004048E02300221A615A619A6103F550634FF01A
S3150800405800725A60704700BF003802400F4B5B6A0F
S315080040689BB20F4A11885B1A9BB2632B15D910B4F9
S315080040780C4AA2FB03235A090B4C206800EB531081
S31508004088206002EB820303EB83039A0092B2114481
S31508004098034B19805DF8044B7047704700000140D0
S315080040A89E4400201F85EB51A044002008B5FFF761
S315080040B8D5FF014B186808BDA044002008B5FFF7CE
S315080040C8F5FF08BD08B500F02DF9FCE708B500F0BE
S315080040D8C1F8012803D00B4B1B78012B00D008BD6B
S315080040E8FFF7E4FF084B1B68084A1268134403F5F0
S315080040F8FA739842F3D3034B00221A70FFF734FC7D
S31508004108EDE700BFAC440020A4440020A8440020E2
S31508004118014B1860704700BFA4440020014B18687B
S31508004128704700BFA444002008B5054B1B78012B2F
S3150800413800D008BDFFF7BAFF024B1860F9E700BFC1
S31508004148AC440020A844002008B5044B01221A7084
S31508004158FFF7EAFFFFF7BAFF08BD00BFAC44002027
S3150800416808B5FFF7FCFB00F0D9F8FFF717FFFFF7CC
S3150800417845FE00F01DF8FFF7E7FF08BD08B500F093
S31508004188D1F8FFF76BFF00F08DF8FFF79FFF08BD22
S3150800419808B5FFF78BFF014B186008BD34450020AA
S315080041A808B5024B1870FFF7F3FF08BD384500201D
S315080041B808B50020FFF7F4FF00F00CFCFFF75EFED9
S315080041C8014B00221A7008BD6000002008B50020BF
S315080041D8FFF7E6FF08BD000038B504460D460A4B4A
S315080041E81B7843B1084B1B78052B08D000F00CFC4C
S315080041F8FFF7CEFF38BDC9B2FFF75EFEF2E7E9B2B0
S31508004208204600F09DF9F1E760000020074B1B786F
S31508004218032B05D0042B05D0022B05D1082070479F
S315080042283F2070473F207047812070476000002074
S31508004238074B1B78032B05D0042B05D0022B05D179
S31508004248082070473F2070473F20704781207047F5
S315080042586000002008B500F0CFFB00B1012008BDBA
S3150800426810B5FFF7F7FF012802D00024204610BD35
S315080042780A4B1C78012C01D00024F7E7FFF716FF34
S31508004288074B1B68C01A41F28733984201D80024A5
S31508004298ECE70020FFF784FFE8E700BF3845002071
S315080042A83445002000B583B00DF107011348FFF720
S315080042B81FFE01280BD00DF10701104800F064F91C
S315080042C801280FD0FFF7CCFF03B05DF804FB0C4BB1
S315080042D800221A70FFF764FF9DF80710074800F0D8
S315080042E89BFBE8E7064B05221A70FFF759FF9DF86E
S315080042F80710024800F090FBE4E700BFB04400202E
S315080043086000002008B500F00BF9034B05221A7067
S31508004318FFF70AFF08BD00BF6000002008B5FCF7D4
S3150800432849F908BD08B5FCF74AF908BD10B5FFF7FD
S315080043388BFAB8B9FFF7BAFE464B1B68984209D3F9
S3150800434803F5FA73434A13600024002C37D0002477
S31508004358002C4AD0FFF7AAFE3F4B1B68984259D251
S31508004368002460E03D4A10803D4B9C894FF400606C
S3150800437800F03CFF844213D0394B9C8940F606006E
S3150800438800F034FF8442D5D101F098FE334B1B88E0
S31508004398002BCFD0FFF78AFA304B00221A80C9E7DC
S315080043A8012000F05DFF2D4B1B88002BC2D001F0C1
S315080043B8F5FEFFF77BFA294B00221A80BAE7AC22EA
S315080043C8284B02FB0433284A1360022000F048FFF2
S315080043D8224B1B880BB90134B7E701F0DFFEFFF75C
S315080043E865FA1E4B00221A80F5E7204B03EB841367
S315080043F81F4A1360052000F033FF184B1B880BB9BA
S315080044080134A5E701F0CAFEFFF750FA134B00225C
S315080044181A80F5E742F210721A440F4B1A6001F037
S315080044281DFE9DE70134A4B9AC220E4B02FB0433EA
S315080044380D4A1360032000F013FF084B1B88002B56
S31508004448F0D001F0ABFEFFF731FA044B00221A80D0
S31508004458E8E710BD48450020444500201C470020D1
S3150800446828470020684600201447002020460020D8
S3150800447860460020224B1B7803B1704710B582B0FE
S31508004488FFF75CF9FFF712FE00F5FA701D4B186086
S31508004498FFF70CFE42F2107303441B4A136000F040
S315080044A84DFE0023ADF80430ADF80630174A1380E0
S315080044B85380174A13805380164A138053804EF642
S315080044C8030000F07BFEFFF79BF9134C2046FFF725
S315080044D8ABF90621204600F047FC00F063FCFFF71D
S315080044E81DFE42F20F73984204D90C4B01221A702A
S315080044F802B010BD42F21070FFF70AFEF5E700BFDA
S315080045086100002048450020444500202C4D002025
S31508004518244D0020284D00203C4500203945002020
S3150800452808B5054B00221A70044B1B7803B108BD61
S31508004538FFF7A0FFFBE700BF610000203945002010
S315080045480F4B1B78012B00D0704730B40D4B1C68F5
S31508004558E5692562002307E01A1D10F803C02244FE
S3150800456882F820C001339BB29942F5D80431A4F8E1
S31508004578A610012384F8A8301D44E56130BC7047AD
S31508004588394500201447002008B5044B1B78012B31
S3150800459801D0002008BDFFF7C9FEFAE73945002013
S315080045A810B5284B1C68284B1B7813F0400F29D1E7
S315080045B813F0010F02D0002284F8A92013F0040F83
S315080045C803D094F8A930012B26D01F4B1B7813F07B
S315080045D8080F03D094F8A830012B24D01A4B1B785F
S315080045E813F0020F17D0194B1988852913D894F890
S315080045F8A93083B9164B18680439C9B2043000F0D3
S315080046080BFA08E00123E3610023A4F8A63084F82E
S31508004618A83084F8A93010BDB4F8A61004F1200013
S3150800462801F082FCD1E7002384F8A830B4F8A61074
S315080046380029D3D0012384F8A93004F1200001F019
S3150800464873FCCBE714470020184700201C470020B6
S3150800465824470020024B002283F88220704700BFB7
S315080046684C450020034BFE221A7059700222A3F803
S31508004678862070474C4500200378427843EA02238F
S31508004688827843EA0243C07843EA006070470870B4
S31508004698C0F307234B70C0F307438B70000EC8702E
S315080046A87047000010B5064C002384F88130FFF7E0
S315080046B8D1FFFF2323700123A4F8863010BD00BF5D
S315080046C84C450020074BFF221A7000225A7093F8AF
S315080046D882109970DA701A715A710622A3F8862020
S315080046E8704700BF4C45002008B500210078FFF741
S315080046F8B9FF08BD10B5094CFF232370084BC4F849
S31508004708883000236370A370E370211D0720FFF724
S31508004718BEFF0823A4F8863010BD00BF4C4500200C
S315080047280465000810B5064CFF2323700430FFF70C
S31508004738A3FFC4F888000123A4F8863010BD00BF7B
S315080047484C45002008B531210078FFF78BFF08BDD6
S3150800475808B520210078FFF785FF08BD38B5084C4D
S31508004768FF23237000256570A570FFF74FFDE070DD
S3150800477825716571A5710723A4F8863038BD00BF71
S315080047884C45002038B5FFF765FF0F4C012584F81E
S315080047988150FF2323700023637010226270A37070
S315080047A8FFF734FDE070FFF743FD2071FFF740FD82
S315080047B8C0F307206071A571E5710823A4F886304F
S315080047C8FFF71CFB38BD00BF4C45002038B504462A
S315080047D8FFF71CFD6278904212D90C4DD5F888105F
S315080047E8681CFFF7E7F8FF232B70D5F8883062783E
S315080047F81344C5F8883063780133A5F8863038BD80
S3150800480822212078FFF72EFFF9E700BF4C45002044
S3150800481838B50446FFF7FAFC6378984217D9201D7D
S31508004828FFF72AFF01460C4DC5F888006278681C10
S31508004838FFF7C0F8FF232B70D5F888306278134441
S31508004848C5F8883063780133A5F8863038BD222143
S315080048582078FFF707FFF9E74C450020F8B5054625
S315080048681746002406E015F8013B1C44E4B2FFF796
S3150800487859FD31464E1E0029F5D13C600120F8BD88
S3150800488830B583B0002501950B4CFF2323700430FF
S31508004898FFF7F2FE014601AAD4F88800FFF7DEFF03
S315080048A86070211D0198FFF7F2FEA570E5700823D0
S315080048B8A4F8863003B030BD4C45002038B5044608
S315080048C80F4BD3F88850FFF7A1FC621C411E2846F7
S315080048D8FFF798FA70B10A4CFF232370FFF796FC86
S315080048E8D4F8883001380344C4F888300123A4F87A
S315080048F8863038BD31212078FFF7B4FEF9E700BFC6
S315080049084C45002010B50446FFF780FC013863784B
S31508004918984216DD144BFF221A700122A3F8862046
S31508004928617899B1A21C104BD3F88800FFF76AFA88
S31508004938A8B10D4AD2F8883061780B44C2F8883095
S3150800494810BD22212078FFF78DFEF9E7FFF76AFAEE
S315080049580028F5D131212078FFF784FEF0E73121C8
S315080049682078FFF77FFEEBE74C45002038B504466C
S315080049780B4BD3F888500430FFF77EFE01462846CD
S31508004988FFF744FA30B1064BFF221A700122A3F842
S31508004998862038BD31212078FFF764FEF9E700BF85
S315080049A84C45002010B5FEF7DFFF064C002384F8B7
S315080049B88130FFF74FFEFF2323700123A4F88630C2
S315080049C810BD00BF4C45002008B589B2FFF704FCA6
S315080049D808BD0000074B002283F88120C3F8882009
S315080049E883F88420A3F8862083F8832083F8822016
S315080049F8704700BF4C450020024B93F8810000B170
S31508004A08012070474C450020024B002283F8842079
S31508004A18704700BF4C45002010B504460078FF28AB
S31508004A2825D0404B93F88130012B2DD1A0F1C9032D
S31508004A38352B66D8DFE803F04965655D6565594D28
S31508004A485551656565656565656565656565656524
S31508004A5865656565656565656565656565656565F0
S31508004A686165352D293165656539653D41452046B8
S31508004A78FFF788FE2B4B93F88430012B45D0294B3A
S31508004A88B3F98610002945DC10BD2046FFF79EFEBF
S31508004A98F0E72046FFF7BCFEECE72046FFF742FEA4
S31508004AA8E8E72046FFF7ECFEE4E72046FFF722FE94
S31508004AB8E0E72046FFF718FEDCE72046FFF702FE88
S31508004AC8D8E72046FFF7EEFDD4E72046FFF7F6FEBF
S31508004AD8D0E72046FFF716FFCCE72046FFF73EFE4D
S31508004AE8C8E72046FFF742FFC4E72046FFF75AFF04
S31508004AF8C0E72046FFF726FEBCE72046FFF728FE54
S31508004B08B8E72021FFF7AEFDB4E710212078FFF7B4
S31508004B18A9FDB4E71846012380F88430FFF754FF47
S31508004B28B2E700BF4C4500203523037001234370C4
S31508004B3881700330704700003623037004234370DE
S31508004B48024BDB69C0F8023006307047D8450020AA
S31508004B583223037004234370024B5B6AC0F80230A1
S31508004B6806307047D845002037230370032343705F
S31508004B7801228270C3700623037105307047FF232C
S31508004B8800F8013B704700000346014400208B42A9
S31508004B9833D210B410E0362A22D0FF2A2AD0352A72
S31508004BA805D1987803E0D3F80240144A14635A7872
S31508004BB8023213448B421DD21A78332A15D0EAD802
S31508004BC8032AF0D0062A06D0012AF0D1D3F80240E3
S31508004BD80A4A9462EBE7D3F80240084AD462E6E741
S31508004BE8D3F80240054AD461E1E7D3F80240034AFC
S31508004BF81462DCE75DF8044B70477047D845002017
S31508004C08074B828C1A80C28C5A80064B028D1A80F2
S31508004C18428D5A80044B028E1A80428E5A807047FB
S31508004C282C4D0020244D0020284D0020F8B50446B8
S31508004C38012303704370194B9A6982700025C57061
S31508004C48174A10686060258180276781154A1268A7
S31508004C58E26025616561A5619E693246596904F174
S31508004C681C0001F097FB06F118002044C6F1100253
S31508004C782946043001F061FB4022294604F12C003C
S31508004C8801F05BFB3A46294604F16C0001F055FB36
S31508004C98054B1868C4F8EC00F8BD00BFD8450020D5
S31508004CA8686400082C4D00207064000838B50A4C62
S31508004CB825682846FFF7BAFF012105F1F000FFF736
S31508004CC833FFFFF751FFFFF75AFF2368C11A184643
S31508004CD801F02AF938BD00BF2447002038B50B4C27
S31508004CE825682846FFF7A2FF032105F1F000FFF71C
S31508004CF81BFFFFF721FFFFF72BFFFFF740FF23688E
S31508004D08C11A184601F010F938BD00BF244700201B
S31508004D1810B5114B1C682378022B01D0002010BD52
S31508004D2804220E49A01801F0F8FA98B90C4B9A69AA
S31508004D38596904F11C0001F0F0FA08B10020EEE701
S31508004D482269074B5A62074B198804F1F000FFF7E6
S31508004D581BFFE4E70020E2E7244700200C6500086B
S31508004D68D84500201C47002010B582B00C4C60615D
S31508004D78A1610023A3704FF6FF73ADF80430ADF8B0
S31508004D8806304FF4864101A801F07EF8606010B13C
S31508004D984FF488438380024B00221A8002B010BD64
S31508004DA8D845002082B00023ADF80430ADF80630A7
S31508004DB8024A1380538002B0704700BF2C4D00206A
S31508004DC838B59E4B1B88B3F5937F2BD8B3F5877FE9
S31508004DD81ED9A3F20F13172B00F23A81DFE813F056
S31508004DE848004C00380138013801380138013801C3
S31508004DF838013801380138013801380138013801D5
S31508004E08380138013801380138013801830087002C
S31508004E18002B40F01D81894B01229A704FF47A7253
S31508004E281A6140E0B3F5B67F80F01281B3F5AA7F20
S31508004E3840F20E81A3F25513162B00F20981DFE81A
S31508004E4813F0B000B40007010701070107010701BD
S31508004E5807010701070107010701070107010701FC
S31508004E68070107010701070107010701C300C70072
S31508004E78724B4FF488721A80714B1C7814F002042E
S31508004E881FD06F4B1B7813F0020F20D16B4B1B6991
S31508004E984EF65F22934202DC5B00684A1361674B51
S31508004EA89B78022B1AD0FFF701FF644C216904F19D
S31508004EB8080001F01FFA40F20F1323800324204646
S31508004EC838BD604801F01DFA0028DAD1F7E7FFF780
S31508004ED81FFF0228DAD1594B02229A70574B4FF412
S31508004EE87A721A611AE0554B4FF493721A80544B2A
S31508004EF81C7814F002041ED0514B1B7813F0020FCD
S31508004F081FD14E4B1B6942F21072934240DC4B4A42
S31508004F1803F57A7313619378032B19D0FFF7DEFE2E
S31508004F28464C216904F1080001F0E4F940F225131A
S31508004F3823800324C3E7434801F0E3F90028DBD1BB
S31508004F48BDE7FFF7E5FE0528DBD13C4B03229A703F
S31508004F583A48FFF755FE394D288C00F047F90404FE
S31508004F68688C00F043F940EA04035B084FF47A7248
S31508004F7802FB03F3002B0FDB2B61304C216904F18C
S31508004F88080001F0B7F940F255132380032496E781
S31508004F9800242A4B1C8092E7284B6FF000421A61BE
S31508004FA8EBE7264B4FF4AB721A80264801F0A9F9AD
S31508004FB808B9002483E7214B02229A704FF47A72C3
S31508004FC81A61FFF7EFFE1AE01C4B40F26B121A80C3
S31508004FD81B4B1C7814F002041ED0194B1B7813F0CF
S31508004FE8020F1FD1154B1B6942F2107293422BDC34
S31508004FF8124A03F57A7313619378032B19D0FFF7CE
S315080050086DFE0E4C216904F1080001F073F94FF49E
S31508005018B5732380032452E70A4801F072F9002879
S31508005028DBD14CE7FFF774FE0528DBD1034B0322D7
S315080050389A700248FFF7E4FD8DE700BFD8450020BF
S3150800504818470020E04500200024044B1C8036E75A
S31508005058024B00221A80022431E700BFD8450020F7
S3150800506808B5FFF7ADFE08BD013A0A4400E002316B
S3150800507891420CD291F800C04B7803EB0C239BB2F3
S31508005088184480B28342F2D9013080B2EFE700D0E3
S3150800509870470B7800EB032080B2B0EB032FF7D2EA
S315080050A8013080B2F4E7000010B5C2780A44D2B2DB
S315080050B8164CE270837803EB1123DBB2A37090F8E1
S315080050C801C084F801C090F800E084F800E0B3EB6A
S315080050D8112F09D20CF1010C5FFA8CF0607018B91F
S315080050E80EF1010E84F800E0C9B28A420CDA0133DF
S315080050F8DBB2064A93703BB953780133DBB2537077
S3150800510813B913780133137010BD00BF1046002079
S3150800511810B50146074C20680830FFF7C5FF236815
S31508005128054A117819725178597291789972D27814
S31508005138DA7210BD14470020104600201A4B0022C8
S315080051481A7006E0194A002122F813100133164A84
S315080051581370154B1B78002BF4D0134B00221A70CA
S3150800516808E0134AAC2101FB0322002151760133DA
S315080051780D4A13700C4B1B78002BF2D00D4B4FF4CD
S3150800518880621A80084B00221A7007E00A4A02EB66
S315080051988312002191800133034A1370024B1B784E
S315080051A8002BF3D0704700BF0F4600206446002046
S315080051B8684600201446002020460020094B002295
S315080051C81A7002E00133074A1370064B1B7843B975
S315080051D8054A32F81320002AF4D1034A22F81300A4
S315080051E8704770470F46002064460020030243EACA
S315080051F8102080B27047000008B51422054900201F
S31508005208FFF732FF10B1FFF7F1FF08BD4FF6FF7041
S31508005218FBE700BF3647002038B50D4D2B7C6C7C64
S3150800522804EB0324A4B2143CA4B22044082205F1D2
S315080052381A0180B2FFF718FF224605F12201FFF787
S3150800524813FF10B1FFF7D2FF38BD4FF6FF70FBE723
S315080052582847002008B50620FFF7DEFF08BD00002E
S3150800526838B5984B1C68042800F05781964B974A1E
S315080052781360974A1360032859D0022800F0A280C1
S31508005288052800F03381934B9B7B452B56D1914BD0
S315080052981A7C5B7C03EB02208F49098888424DDC1F
S315080052A885B28D4B1D808B4B1B7D13F03F0F45D167
S315080052B8884B5B7D002B41D1884B1C880CB95B88D1
S315080052C84BB1844BDB8B9C4238D1824B1A8C834B6F
S315080052D85B889A4232D1FFF78FFF4FF6FF739842E1
S315080052E82CD17C4BDB7D062B00F05C81112B00F062
S315080052F88281012B22D1774B93F82230082B1DD1B6
S31508005308744B002283F822209B8C4FF6F672934240
S3150800531840F2788109336F4A93846E4B5A8BDA8345
S315080053289A8B1A845C836D4A52889A8336E1637E1F
S3150800533803F00F03032B01D1238A2BB10023664AF6
S315080053481380674A137038BD654B08221A70FFF731
S3150800535827F9634B1B7813F0200F40F0A58413F048
S31508005368100F40F0F6845F4A128882B113F0010FD5
S3150800537801D000232382238A002B40F0F784638A0E
S315080053889A4201D9574A1380564B1B882382002311
S31508005398E3764F4B1A684D4B1A60524B1B881BB164
S315080053A8238A002B40F0E6844D4B1B7813F0020F36
S315080053B8C4D0494B28221A80464B102283F82F203E
S315080053C800F07DBC484AD3780133DBB2D37063B9A1
S315080053D893780133DBB293703BB953780133DBB268
S315080053E8537013B913780133137000233A4A13809C
S315080053F83C4A1380637E052B18BF072B32D0002B37
S315080054089CD0228A002A51D0A27E511EA176002A53
S3150800541894D1E27E082A31D0591EC9B201292BD95E
S315080054281046042A28BF042003218140A1760132A8
S31508005438E27603F00F03013B072B3FF67FAF01A285
S3150800544852F823F0BB5800089F540008A9540008CE
S31508005458FB5B000845530008FB5B0008455300083A
S31508005468FB5B0008A37E0133DBB2A376782B7FF4B7
S3150800547865AF0023637661E7052AD1D100236376F1
S31508005488174B80221A70FFF78BF8124B142283F8F1
S315080054982F2000F011BC0F4B002283F82F200CE2B6
S315080054A80F4B04221A70FFF77BF872E703F00F0315
S315080054B8032B7FF443AF0A4B08221A70FFF770F8DC
S315080054C847E700BF144700205E470020244700200E
S315080054D820470020284700201C4700202C4D002084
S315080054E8184700201A47002018460020964B1B68C4
