S01900006F70656E626C745F73746D3332663230372E7372656300
S3150800000000000220F50A0008DD0A0008DF0A0008D9
S31508000010E10A0008E30A0008E50A000800000000F3
S31508000020000000000000000000000000E70A0008C9
S31508000030E90A000800000000EB0A0008ED0A0008BB
S31508000040450B0008450B0008450B0008450B000842
S31508000050450B0008450B0008450B0008450B000832
S31508000060450B0008450B0008450B0008450B000822
S31508000070450B0008450B0008450B0008450B000812
S31508000080450B0008450B0008450B0008450B000802
S31508000090450B0008450B0008450B0008450B0008F2
S315080000A0450B0008450B0008450B0008450B0008E2
S315080000B0450B0008450B0008450B0008450B0008D2
S315080000C0450B0008450B0008450B0008450B0008C2
S315080000D0450B0008450B0008450B0008450B0008B2
S315080000E0450B0008450B0008450B0008450B0008A2
S315080000F0450B0008450B0008450B0008450B000892
S31508000100450B0008450B0008450B0008450B000881
S31508000110450B0008450B0008450B0008450B000871
S31508000120450B0008450B0008450B0008450B000861
S31508000130450B0008450B0008450B0008450B000851
S31508000140450B0008450B0008450B0008450B000841
S31508000150450B0008450B0008450B0008450B000831
S31508000160450B0008450B0008450B0008450B000821
S31508000170450B0008450B0008450B00080000000069
S30908000180450B000815
S3150800018410B5054C237833B9044B13B10448AFF3BF
S3150800019400800123237010BD940000200000000095
S315080001A4DC6F000808B5034B1BB103490348AFF3DA
S315080001B4008008BD0000000098000020DC6F0008DD
S315080001C4034613F8012B002AFBD1181A0138704785
S315080001D453B94AB9002908BF00281CBF4FF0FF319C
S315080001E44FF0FF3000F08CB9ADF1080C6DE904CE80
S315080001F400F006F8DDF804E0DDE9022304B07047F0
S315080002042DE9F047089D8E4604468846002B4AD1B8
S315080002148A42174662D9B2FA82F64EB1C6F120036B
S3150800022401FA06F820FA03F3B74043EA0808B4408B
S315080002344FEA174EB8FBFEF11FFA87FC0EFB11882E
S3150800024401FB0CF2230C43EA08439A4209D9FB182A
S3150800025401F1FF3080F0EB809A4240F2E8800239DF
S315080002643B449A1AB2FBFEF00EFB102200FB0CFC70
S31508000274A3B243EA02439C4509D9FB1800F1FF32AD
S3150800028480F0D7809C4540F2D4803B44023840EA4B
S3150800029401400021A3EB0C031DB10022F340C5E97C
S315080002A40032BDE8F0878B4205D90DB1C5E90001D6
S315080002B400210846F5E7B3FA83F1002946D17345C8
S315080002C402D3824200F20881841A6EEB03020120EB
S315080002D49046002DE5D0C5E90048E2E7002A00F07B
S315080002E49180B2FA82F6002E40F0A5808A1A01217E
S315080002F4030C4FEA174E80B2BCB2B2FBFEFC0EFBEF
S315080003041C2243EA024304FB0CF29A4207D9FB185F
S315080003140CF1FF3802D29A4200F2E380C4469B1AD3
S31508000324B3FBFEF20EFB123302FB04F440EA03436A
S315080003349C4207D9FB1802F1FF3002D29C4200F214
S31508000344CD8002461B1B42EA0C40A5E7C1F12006F4
S315080003548B4022FA06F71F432EFA06FA4FEA174984
S31508000364BAFBF9F80EFA01FE20FA06F309FB18AAF5
S315080003741FFA87FC43EA0E0300FA01FE08FB0CF099
S315080003841C0C44EA0A44A04202FA01F20AD93C19AE
S3150800039408F1FF3A80F09E80A04240F29B80A8F1C3
S315080003A402083C44241A98B2B4FBF9F309FB134433
S315080003B403FB0CFC40EA0444A44509D93C1903F19F
S315080003C4FF3080F08580A44540F28280023B3C449D
S315080003D443EA0840A4EB0C04A0FB028C644543469C
S315080003E4E14664D361D05DB1BEEB030264EB090454
S315080003F404FA06F622FA01F31E43CC40C5E9006462
S3150800040400214EE7B1FBF2FC010C41EA0E4180B231
S3150800041440EA01423B46B1FBF7F138463C46B8464A
S31508000424BE462026A2EB080241EA0C4165E70146CE
S3150800043417E710462BE7C6F120012EFA01FCB74050
S315080004440EFA06FE20FA01F141EA0E014FEA174EAA
S31508000454BCFBFEF8BCB20EFB18CC08FB04F90A0C6C
S3150800046442EA0C42B04091454FEA104380B23ED965
S31508000474BA1808F1FF3C01D291451FD8A2EB09022C
S31508000484B2FBFEF909FB04F80EFB192A8AB242EA02
S315080004940A42424529D2BA1809F1FF31C2D2424565
S315080004A4C0D2A9F102013A44BCE7C6459BD2B8EBCF
S315080004B402036CEB070C0138E14694E7A7EB09093C
S315080004C44A44B2FBFEF9A8F1020C09FB04F8DBE77F
S315080004D403467DE7D04665E70846FAE63B44023A12
S315080004E430E7ACF1020C3B4419E749469AE7A2EB1C
S315080004F40902B2FBFEF9C44609FB04F8C4E700BFC7
S31508000504704700BF13B500248DF8074000F088F83B
S3150800051402F03AFC20460DF1070100F097F89DF821
S315080005240730012B01D102F005FD02B010BD02F01F
S315080005343ABC00004FF4005108B5054801F03EFAEC
S31508000544012803D000F036F8012008BD0020FCE796
S3150800055400080240642000F005B800F009B87047A6
S3150800056470477047014B1880704700BFB8000020D9
S3150800057410B502F0E3FA0B4C236898420ED30A4BE3
S315080005841A7862B90122802108481A7001F01CFA07
S3150800059402F0D4FA064B1B880344236010BD0022DC
S315080005A4F1E700BFB4000020B000002000040240B8
S315080005B4B800002000228021014801F005BA00BFD6
S315080005C4000402400B4A52F8033BD8B200EB13600E
S315080005D4C3F307210144C3F307400023084480B248
S315080005E412F8011F01330844382B80B2F8D140426F
S315080005F480B270470000002010B5074C074B2268EC
S315080006049A4206D1FFF7DEFFA38F1B1A58425841B8
S3150800061410BD0020FCE700BF00000020A2E742CE80
S3150800062410B5FFF7E9FF014650B9064C064B2046BC
S31508000634382240F8043B06F094FCFFF7C3FFA08772
S3150800064410BD00BF00000020A2E742CE38B505461B
S315080006540C46FFF7D1FF30B1372D05D834B1044B1A
S315080006642B441B79237038BD0020FCE72046FAE7A3
S315080006740000002010B592B01022002108A806F048
S3150800068470FC1422002101A806F06BFC0523012145
S315080006940224CDE906134FF48003C022CDE90C43A6
S315080006A40423CDE90E321093082306A8119301F00A
S315080006B40FFA08B172B6FEE70F234FF4A052CDE93C
S315080006C401344FF480530390032101A8CDE9042390
S315080006D401F0C2FB08B172B6FEE712B010BD000005
S315080006E4002580B596B0584C00F066FAFFF7C2FFAD
S315080006F4142200210FA806F034FC0195236B2A4620
S3150800070443F004032363236B802103F0040301935A
S31508000714019B0295236B4D4843F080032363236BA7
S31508000724022703F080030293029B0395236B032697
S3150800073443F001032363236B03F001030393039B31
S315080007440495236B43F002032363236B03F002032C
S315080007540493049B0595236B43F008032363236BD7
S3150800076403F008030593059B0695236B43F04003A2
S315080007742363236B03F040030693069B01F024F9D5
S315080007844FF4005332480FA9CDE90F35119500F0FF
S31508000794A1FF012380222D480FA9CDE90F23CDE916
S315080007A4115500F097FF1C2229460FA806F0D9FB1D
S315080007B4236C09A943F480232364236C254803F492
S315080007C480230893089B236B43F008032363236B56
S315080007D4072403F008030793079B4FF480730E94CA
S315080007E4CDE90937CDE90B650D9501F0D9FB4FF431
S315080007F4007309A91748CDE90937CDE90D54CDE9A0
S315080008040B6501F0CDFB4FF46143CDE90F350C239D
S31508000814114C0FA92046CDE91335CDE91155159587
S3150800082401F0CCFC236923F490432361636923F024
S315080008342A036361E36843F40053E360FFF762FE47
S31508000844FFF775FEFCE700BF0038024000040240CB
S3150800085400080240000C024000480040002182B013
S315080008640B4B00915A6C42F480425A645A6C02F457
S3150800087480420092009A01911A6C42F080521A64DE
S315080008841B6C03F080530193019B02B0704700BFB1
S3150800089400380240F0B504468DB01422002107A89A
S315080008A406F05FFB22683D4B9A4274D10024A3F5F7
S315080008B4904300941A6B022742F000721A631A6B6B
S315080008C4032602F000720092009A01941A6B0B2513
S315080008D442F080621A631A6B314802F08062019210
S315080008E4019A02941A6B07A942F000621A631A6BFA
S315080008F402F000620292029A03941A6B42F004020E
S315080009041A631A6B02F004020392039A04941A6B8C
S3150800091442F001021A631A6B02F001020492049A65
S3150800092405941A6B42F002021A631A6B02F0020269
S315080009340592059A06941A6B42F040021A631B6BD9
S31508000944CDE90A6503F040030693069B3223CDE9F5
S31508000954073700F0BFFE8623124807A9CDE90737F3
S31508000964CDE909460B9500F0B5FE4FF400530E4841
S3150800097407A9CDE90737CDE909460B9500F0AAFE84
S315080009844FF42053094807A9CDE90737CDE90946A5
S315080009940B9500F09FFE0DB0F0BD00BF008002402D
S315080009A40008024000000240000402400018024009
S315080009B430B5044689B01422002103A806F0D1FAFA
S315080009C42368B3F1A04F26D10025144C0195236B57
S315080009D44FF4C05243F001032363236B032103F04E
S315080009E401030193019B0223CDE903230A230C483F
S315080009F4CDE9061303A900F06DFE636B43F080038B
S31508000A0463630295636C43F480436364636C03F421
S31508000A1480430293029B09B030BD00BF00380240F0
S31508000A24000002400368B3F1A04F09D1054A4FF408
S31508000A34C051536B044823F08003536300F02ABF64
S31508000A44704700BF003802400000024010B51F4C32
S31508000A5400F0C0FF00222046802100F0B5FF2046A2
S31508000A64802100F017FF04F500644FF4005118487C
S31508000A7400F010FF4FF48071204600F00BFF4FF48E
S31508000A840071204600F006FF124B1A6C22F48022ED
S31508000A941A641A6B22F040021A631A6B22F00802CF
S31508000AA41A631A6B22F004021A631A6B22F0020202
S31508000AB41A631A6B22F001021A631A6C22F0805226
S31508000AC41A645A6C22F480425A6410BD0004024027
S31508000AD40008024000380240FEE7FEE7FEE7FEE7AC
S31508000AE4FEE770477047704700F080B8704700000B
S31508000AF4DFF834D00D480E490E4A002302E0D458D4
S31508000B04C4500433C4188C42F9D30B4A0B4C002343
S31508000B1401E013600432A242FBD3FFF7E7FF06F0B5
S31508000B2429FAFFF7DDFD7047000002204000002087
S31508000B3494000020E4720008940000204C48002029
S31508000B44FEE7000010B54FF0FF320024074B1A6287
S31508000B541C625A625C621A611C615A615C619A6120
S31508000B649C61FFF773FF204610BD00BF00380240A2
S31508000B7438B50E4B05461A784FF47A73B3FBF2F37D
S31508000B840B4A1068B0FBF3F000F090F8044658B925
S31508000B940F2D09D8024629464FF0FF3000F056F8C3
S31508000BA42046044B1D6038BD0120FCE744000020A4
S31508000BB4400000204800002008B50B4B03201A68A3
S31508000BC442F400721A601A6842F480621A601A685B
S31508000BD442F480721A6000F027F80020FFF7C8FF75
S31508000BE4FFF73CFE002008BD003C0240034A044BC4
S31508000BF411681B780B441360704700BF040100207A
S31508000C044400002038B5044601F0A0FF0546631CDD
S31508000C141EBF044B1B78E41801F098FF431BA3423C
S31508000C24FAD338BD4400002007490302CA6803F40E
S31508000C34E06322F4E0621204120C134343F0BF6328
S31508000C4443F40033CB60704700ED00E0154B30B534
S31508000C54DC68C4F30224C4F10703251D042B28BF4A
S31508000C640423062D4FF0FF3594BF0024033C05FAF0
S31508000C7403F321EA0303A54022EA0502A340002858
S31508000C8443EA0203ACBF00F16040074A4FEA031384
S31508000C94DBB2ABBF00F5614000F00F0080F800330B
S31508000CA4135430BD00ED00E014ED00E00138B0F156
S31508000CB4807F0BD24FF0E023F021054A586182F871
S31508000CC423100020072298611A6170470120704793
S31508000CD400ED00E04FF4FA52064B82B01B68B3FBF2
S31508000CE4F2F3019300BF019B5A1E0192002BF9D11E
S31508000CF402B0704740000020002307B5019303683B
S31508000D0403F580539A6942F480129A619B690193A8
S31508000D14FFF7E0FF0368019A03F580539A6103B06D
S31508000D245DF804FB70B5044629B14FF480434FF4CB
S31508000D340062C0E90232D4E902321343E269216847
S31508000D44B2FA82F25209086843EA82232B4A02401D
S31508000D54134343F400730B6001200D68FFF752FF39
S31508000D644022236801201D605A605D68FFF74AFF28
S31508000D74236801205D6000259D60DD609A6922F084
S31508000D84BE021204120C42F080029A619E69FFF7B1
S31508000D9439FF236801209E61DD61DD69FFF732FFB3
S31508000DA42268174BD56102F58052916901200B40E0
S31508000DB443F0087343F0040393619569FFF722FF30
S31508000DC42368104A03F580539D6101201A601D6843
S31508000DD4FFF718FF2368A26903F580531D60012AEB
S31508000DE401BFDA6942F4803242F04002DA6162698C
S31508000DF4054B9188196412685A6470BD0F8120FFE7
S31508000E04233FDEF88020C10200800240F0B5044684
S31508000E1490F8450001284FF002001AD001254FF436
S31508000E24801784F8455040F2F45C002584F84400A1
S31508000E34E16201F1200003F1FF3E9D420AD12368D5
S31508000E44002003F580531961012384F8450084F8CA
S31508000E544430F0BD0CFB052640F8186CE66940F8EA
S31508000E64207C2EB950F8206C46F4400640F8206CD5
S31508000E74AE4594BF0E460646013540F8146C20303C
S31508000E84DBE72DE9F041044690F8450001284FF0C8
S31508000E9402001CD001254FF0004684F8455044F260
S31508000EA4F457002540F2F45C84F84400A16201F189
S31508000EB4200003F1FF3E9D420BD12368002003F571
S31508000EC48053D960012384F8450084F84430BDE88A
S31508000ED4F0810CFB052840F8188CAE4594BF88466B
S31508000EE4804640F8206C40F81C7C40F8148C013588
S31508000EF42030E0E7F0B590F845300246012B4FF074
S31508000F0402000BD0012382F8440082F8453031B937
S31508000F1482F844300023012082F84530F0BDD36AB4
S31508000F241868002801DA1223F2E740F2F454A142C1
S31508000F342FD9B1FBF4F004FB101444B30130244C4C
S31508000F4401F2F45104FB001140F2F4560024C1F3F3
S31508000F540C01471E1D6825F040551D601CB91D6807
S31508000F6445F080551D60A74208BF1D6804F10104B9
S31508000F7404BF45F000551D601D685E6045F00045D8
S31508000F8408BF5960A0421D60DB68E3D10DE0012863
S31508000F94D5D11868C1F30C0140F040501860596067
S31508000FA4196841F000411960DB68D36213680020B0
S31508000FB403F580535969490741BF04215961002142
S31508000FC45960012382F8450082F84430A6E700BF39
S31508000FD40CFAFFFF30B590F845200346012A4FF076
S31508000FE4020023D001249A6A83F8454083F8440012
S31508000FF41168002926DB1168D06811F4807116D0AF
S31508001004996B5A632144A14208BF1A63126899630B
S31508001014C2F30D42043ADA631A6B926898621A6448
S315080010240020012283F8450083F8442030BD156862
S315080010349862AD0555BF9A6BC3E90C2101329C63CE
S3150800104458BF9A630120002283F8440083F8452098
S31508001054ECE7F8B590F844300646822B154630D0AE
S3150800106482230268048A80F844301369E4028901F9
S3150800107401F4F861A4B203F01C030C431C4344F0C6
S315080010840104146101F062FD074614F0010007D15A
S3150800109433685B699BB22B60012386F844300CE005
S315080010A401F054FDC01BB0F5803F07D3012386F831
S315080010B444300023032086F84530F8BD33681C699C
S315080010C4E3E70220F9E770B590F844300546422B69
S315080010D42ED0422380F844302C8A0368E402186927
S315080010E4890101F4F861A4B200F01C000C4304431E
S315080010F492B244F003045A611C6101F027FD0646C6
S3150800110414F0010003D1012385F844300CE001F002
S315080011141DFD801BB0F5803F07D3012385F84430B5
S315080011240023032085F8453070BD2B681C69E7E762
S315080011340220F9E70023F7B50446009300284AD0AD
S3150800114490F8443003F0FF021BB980F84520FFF7F6
S31508001154A1FB00230193624B5A6C42F480425A6401
S315080011645B6C03F480430193019B5E4B5A6822F43B
S3150800117400025A605A68216A0A435A60236803F5CA
S3150800118480531A6842F001021A6001F0DFFC054632
S31508001194236803F580521268D00720D41D6900F02D
S315080011A4F9FE514B514A0344934225F01C0524D2B7
S315080011B445F0080523684FF400421D6100212046C6
S315080011C4FFF781FF054640B301212046FFF7AAFD34
S315080011D4012384F844300125284603B0F0BD01F004
S315080011E4B5FC401BB0F5FA7FD2D9032384F8443002
S315080011F40023032584F84530EEE73D4B3D4A034476
S31508001204934202D845F00C05D4E73B4B3B4A0344CA
S31508001214934228BF45F00405CCE7FF20FFF7F2FC0C
S31508001224616800294BD001F091FC41F288370646E3
S315080012346A4601212046FFF70CFF01F087FC801B54
S31508001244B84205D901212046FFF76CFD0123CDE7F5
S31508001254009B5907ECD54FF4805200212046FFF72E
S3150800126432FF0028B0D101F071FC41F288370646F6
S315080012746A4601212046FFF7ECFE01F067FC801B55
S31508001284B842DFD8009B9A06F2D56A461021204652
S31508001294FFF7DFFE002897D1009AC2F38003DB022A
S315080012A4E360930756BF4FF48043A060A360002110
S315080012B42046FFF737FD012384F844308CE7D4E948
S315080012C40223520842EAD302204692B2FFF7FBFEF3
S315080012D400287FF479AF40F6FF70FFF793FCE6E742
S315080012E4003802400038014000D3CEFEC0E1E400D5
S315080012F440F1E9FD3F787D0100796CFC005A6202F1
S3150800130437B590F845300224012B2FD080F8444095
S31508001314012500240368019480F845501A6842F0B0
S3150800132408021A601B680193FFF7D4FC019A036844
S315080013341A6000941A6842F004021A601B68009343
S31508001344FFF7C8FC0368009A1A60FFF7D5FC036820
S3150800135403F580539A6942F400529A619A6942F0F5
S3150800136402029A6180F8445080F84540204603B04A
S3150800137430BD0000094910B50C6924F440740C61A9
S315080013840C6944F440740C610C6944F001040C6162
S315080013940260BFF36F8F436010BD00BF003C02407C
S315080013A4074B1A6922F440721A611A6942F40072E8
S315080013B41A611A6942F001021A610160704700BF96
S315080013C4003C0240074B1A6922F440721A611A69F2
S315080013D442F480721A611A6942F001021A610180A4
S315080013E4704700BF003C02401A4BDA68D20606D59D
S315080013F41949CA6942F00802CA611022DA60DA6831
S31508001404900606D51449CA6942F00402CA61202224
S31508001414DA60104BDA68510606D50F49CA6942F0F4
S315080014240202CA614022DA60DA68120606D50A4957
S31508001434CA6942F00102CA618022DA60054AD368A1
S315080014449B0706D50449CB6943F01003CB610223F5
S31508001454D3607047003C024008010020064B1A6915
S31508001464002ABFBF054A5A6002F188325A60BABFD9
S315080014741869C00F00207047003C024023016745E5
S31508001484034A0020136943F000431361704700BF01
S31508001494003C02400022114B70B50446DA6101F0A3
S315080014A455FB06460E4DEB68DA030CD4EB68DB07EE
S315080014B444BF0123EB60E86810F0F20007D0FFF799
S315080014C493FF012003E0611CEDD00CB9032070BD25
S315080014D401F03CFB801BA042E5D9F7E70801002090
S315080014E4003C02402DE9F0411F4E9846337E0746DC
S315080014F4012B0D46144635D001234CF25030337671
S31508001504FFF7C8FFB0B9CFB9184BE4B21A6922F489
S3150800151440721A611A691A611A6942F001021A615B
S315080015242C704CF25030FFF7B5FF104A136923F0BC
S315080015340103136100233376BDE8F081012F04D13A
S315080015442846A1B2FFF73EFFEBE7022F04D1214656
S315080015542846FFF725FFE4E7224643462846FFF7D1
S3150800156409FFDEE70220E7E708010020003C024005
S31508001574074B1A6922F440721A611A6942F0040286
S315080015841A611A6942EA002242F480321A617047E3
S31508001594003C0240022988BF4FF440710E4B98BFA5
S315080015A409021A6922F440721A611A690A431A610D
S315080015B41A6922F0F8021A61F82292FAA2F2B2FA29
S315080015C482F219699040084340F0020018611A69CA
S315080015D442F480321A617047003C0240144B1A6880
S315080015E491050FD51A6822F400721A601A6842F433
S315080015F400621A601A6822F400621A601A6842F4D1
S3150800160400721A600A4B1A6852050FD51A6822F432
S3150800161480621A601A6842F480521A601A6822F4C0
S3150800162480521A601A6842F480621A60704700BFD2
S31508001634003C02402DE9F843DFF89080054698F807
S3150800164418300F46012B3FD001234CF2503088F84E
S315080016541830FFF71FFF0446A0B94FF0FF333B606D
S315080016642B68012B14D1287CFFF782FF4CF25030EB
S31508001674FFF710FF0446164A136923F0040313619F
S31508001684FFF7ACFF002388F818302046BDE8F88336
S31508001694AE68DFF83C90D5E902231344B342EFD988
S315080016A43046297CFFF776FF4CF25030FFF7F2FEFE
S315080016B4D9F8103023F0FA03C9F8103010B10446EB
S315080016C43E60DDE70136E6E70224DEE7080100208E
S315080016D4003C024000232DE9F74FDFF8AC916B4C30
S315080016E40A6832FA03F502D103B0BDE8F08F012582
S315080016F405FA03F818EA020200F0B38003274E68D5
S315080017044FEA430E06F0030507FA0EFC6F1E012F77
S315080017146FEA0C0C34D8876807EA0C0ACF6807FA0C
S315080017240EF747EA0A078760476827EA0808C6F3F0
S3150800173400179F4047EA08074760C768022D07EA6B
S315080017440C088F6807FA0EF747EA0807C76019D125
S315080017544FF00F0B4FEAD30800EB880803F0070A8B
S31508001764D8F820704FEA8A0A0BFA0AFB27EA0B0B09
S315080017740F6907FA0AF747EA0B07C8F8207001E069
S31508001784032DDAD1076805FA0EF507EA0C073D4377
S3150800179416F4403F056064D000254FF00F0E0195FE
S315080017A4D9F8445023F0030745F48045C9F8445052
S315080017B4D9F8445007F1804705F48045019507F5A3
S315080017C49C3703F0030C019D4FEA8C0CBD680EFA96
S315080017D40CFE25EA0E0E2E4DA84244D005F580656A
S315080017E4A84242D005F58065A84240D005F5806533
S315080017F4A8423ED005F58065A8423CD005F580652B
S31508001804A8423AD005F58065A84238D005F5806522
S31508001814A84236D005F58065A84214BF09250825CF
S3150800182405FA0CF545EA0E05BD60D743A56816F416
S31508001834801F0CBF3D401543A560E56816F4001FDC
S315080018440CBF3D401543E560656816F4003F0CBFC0
S315080018543D40154365602568F60354BF3D4015436E
S31508001864256001333CE70025DAE70125D8E7022598
S31508001874D6E70325D4E70425D2E70525D0E70625C8
S31508001884CEE70725CCE700BF00380240003C0140FC
S31508001894000002402DE9F04F00224FF0010A4FF0F4
S315080018A40F084FF0030B434C31FA02F301D1BDE89C
S315080018B4F08F0AFA02FC1CEA010668D022F0030536
S315080018C405F1804505F59C3502F00307AB68BF00B2
S315080018D408FA07F909EA030E374B984259D003F573
S315080018E48063984257D003F58063984255D003F530
S315080018F48063984253D003F58063984251D003F528
S31508001904806398424FD003F5806398424DD003F51F
S31508001914806398424BD003F58063984214BF092329
S315080019240823BB40734513D1236823EA06032360BF
S31508001934636823EA06036360E36823EA0603E3604D
S31508001944A36823EA0603A360AB6823EA0903AB602A
S31508001954056853000BFA03F325EA0305D608056060
S3150800196400EB860602F00705376AAD0008FA05F5A6
S3150800197427EA05073762C56825EA0305C560456889
S3150800198425EA0C054560856825EA03038360013268
S315080019948AE70023C5E70123C3E70223C1E7032334
S315080019A4BFE70423BDE70523BBE70623B9E70723F7
S315080019B4B7E700BF003C0140000002400369194232
S315080019C414BF0120002070470AB1816170470904D9
S315080019D4FBE7000070B501F0B9F80546364C2368F4
S315080019E443F0010323602368990745D5236841F228
S315080019F4883643F08003236001F0A8F800230546DF
S31508001A04A3602D4CA36813F00C0F3CD101F09EF88B
S31508001A140546236823F450232360274C23689A0336
S31508001A2437D401F093F80546236823F080732360BE
S31508001A34214C23689B0132D4204B636001F086F85D
S31508001A440546236823F0806323601B4C236813F040
S31508001A5400632AD11A4AC4F88420E3604FF0FF339E
S31508001A64184A6367184B1A60184B1868FFF780F80A
S31508001A74003818BF012005E001F068F8401B022869
S31508001A84B1D9032070BD01F061F8401BB042B9D941
S31508001A94F7E701F05BF8401B6428BFD9F1E701F0CA
S31508001AA455F8401B6428C4D9EBE701F04FF8401BEE
S31508001AB40228CBD9E5E700BF0038024010300004FD
S31508001AC4003000200024F4004000002048000020D4
S31508001AD42DE9F341044640B30368DE0710D42368AE
S31508001AE49D0744D42368190700F1908023685A0790
S31508001AF400F1B080A369002B40F00181002027E0A3
S31508001B049C4B9A6802F00C02042A07D09A6802F0E1
S31508001B140C02082A0BD15B68590208D5954B1B6839
S31508001B249A03DCD56368002BD9D1012010E0237908
S31508001B34904DAB70636873B101F008F806462B68DC
S31508001B449B03CCD401F002F8801B6428F7D9032040
S31508001B5402B0BDE8F08100F0F9FF06462B689F0342
S31508001B64BDD500F0F3FF801B6428F7D9EFE7814B56
S31508001B749A6812F00C0F07D09A6802F00C02082A29
S31508001B8416D15B68590213D47A490B689A0702D5A9
S31508001B94E368012BC9D1F822086892FAA2F2B2FACC
S31508001BA482F22369934020F0F80213430B6099E705
S31508001BB4E268714BDAB101221A6000F0C7FF0646E3
S31508001BC46C4D2B689B070CD5F822296892FAA2F269
S31508001BD4B2FA82F22369934021F0F80213432B6088
S31508001BE480E700F0B3FF801B0228EAD9AFE71A6042
S31508001BF400F0ACFF05465F4E33689F077FF572AF6A
S31508001C0400F0A4FF401B0228F6D9A0E762695A4BE4
S31508001C1482B10122C3F8802E00F098FF0546554E7E
S31508001C24736F9B073FF562AF00F090FF401B0228D5
S31508001C34F6D98CE7C3F8802E00F088FF05464D4E8A
S31508001C44736F9F077FF552AF00F080FF401B022891
S31508001C54F6D97CE7474B1A6C12F0805226D1012735
S31508001C6401921A6C42F080521A641B6C03F080537A
S31508001C740193019B414D2B6843F480732B602B68B9
S31508001C84D80515D5237A3B4D85F87030A368FBB97A
S31508001C9400F05CFF41F2883806462B6F9B071FD578
S31508001CA400F054FF801B4045F7D950E70027E1E7C9
S31508001CB42B6843F480732B6000F048FF06462B68B4
S31508001CC4D905DFD400F042FF801B0228F7D93EE786
S31508001CD400F03CFF41F2883806462B6F9A0708D570
S31508001CE4002F3FF407AF234A136C23F08053136481
S31508001CF400E700F02BFF801B4045EED927E71D4D72
S31508001D04AA6802F00C02082A4DD00022022B1A4BAC
S31508001D141A663BD100F01AFF06462B6899012FD4A0
S31508001D246A68D4E9073122F0746222F45F3222F435
S31508001D347F720B4322F003021343626A43EA821357
S31508001D44E26A43EA0263A26A5208013A43EA024390
S31508001D5401226B60084B074D1A6600F0F7FE04462D
S31508001D642B689A013FF5CAAE00F0F0FE001B642802
S31508001D74F6D9ECE6003802400000474200700040FD
S31508001D8400F0E4FE801B6428C7D9E0E600F0DEFE16
S31508001D9404462B689B017FF5B1AE00F0D7FE001B05
S31508001DA46428F6D9D3E6012B3FF4BFAE6B68E26923
S31508001DB403F4800191427FF4B8AE216A03F03F022E
S31508001DC48A427FF4B2AE47F6C072616A1A40B2EB31
S31508001DD4811F7FF4AAAEA26A03F440315208013A7D
S31508001DE4B1EB024F7FF4A1AEE26A03F07063B3EB82
S31508001DF4026F14BF01200020AAE600BF134908B5E4
S31508001E048B6803F00C03042B1CD0082B1CD14A68DE
S31508001E144B68496813F4800314BF0D480D48C1F391
S31508001E24881118BF0023A1FB000102F03F02FEF748
S31508001E34CFF9064B5B68C3F3014301335B00B0FB80
S31508001E44F3F008BD0248FCE70248FAE70038024006
S31508001E5400127A000024F4002DE9F0410D460446E8
S31508001E6410B90120BDE8F081454B1A6802F00F024B
S31508001E748A422ED321688F0733D4C80746D4404BE9
S31508001E841A6802F00F02AA4269D8226851076FD469
S31508001E94130707D53B4A2169936823F4604343EA49
S31508001EA4C1039360FFF7AAFF364BF0229B6892FAA8
S31508001EB4A2F2B2FA82F203F0F003D340324AD35CB8
S31508001EC4D840324B1860324B1868FEF751FE002092
S31508001ED4C8E7CAB21A701B6803F00F038B42C0D155
S31508001EE4C8E7284B11F0040F1EBF9A6842F4E05263
S31508001EF49A600E0742BF9A6842F460429A609A68EA
S31508001F04A06822F0F00202439A60B6E761681D4BA6
S31508001F1401291A681BD112F4003FA2D09A6841F22B
S31508001F24883822F003020A439A6000F00FFE064638
S31508001F34144FBB68626803F00C03B3EB820F9ED0A0
S31508001F4400F004FE801B4045F3D903208AE70229E2
S31508001F5402D112F0007FE0E712F0020FDDE7EAB2E1
S31508001F641A701B6803F00F03AB427FF47AAF8CE751
S31508001F740449E0688B6823F4E05303438B6087E7DE
S31508001F84003C02400038024005700008400000206A
S31508001F9448000020014B1868704700BF4000002025
S31508001FA42DE9F04F02460D6895FAA5F44FF0010C99
S31508001FB4B4FA84F403266FEA050E35FA04F001D15F
S31508001FC4BDE8F08F0CFA04F32B406FD04868471E1F
S31508001FD4012F1ED8D2F8088093FAA3F7B7FA87F721
S31508001FE493FAA3F9B9FA89F97F0006FA07F728EAF2
S31508001FF407088F684FEA490907FA09F748EA0707FD
S31508002004976057680EEA0708CF686F4348EA0707D8
S315080020145760D2F80C8093FAA3F7B7FA87F793FABE
S31508002024A3F9B9FA89F97F0006FA07F728EA07082F
S315080020340F694FEA490907FA09F748EA0707022820
S31508002044D7601FD193FAA3F7B7FA87F7072FD1F802
S3150800205414902DDC176A93FAA3FABAFA8AFA93FA51
S31508002064A3F84FF00F0BB8FA88F84FEA8A0A0BFA66
S315080020740AFA4FEA880827EA0A0709FA08F847EA2B
S3150800208408071762D2F8008093FAA3F7B7FA87F716
S3150800209493FAA3F3B3FA83F37F0006FA07F75B0010
S315080020A428EA0708984048EA00001060013484E7E3
S315080020B4576A4FEA132898FAA8FABAFA8AFA98FADB
S315080020C4A8F84FEA8A0BB8FA88F84FF00F0A4FEACD
S315080020D488080AFA0BFA27EA0A0709FA08F947EAFE
S315080020E409075762CEE70000034B044A9B68C3F30B
S315080020F40313D35CD84070470038024005700008C3
S31508002104034B044A9B68C3F38223D35CD8407047C5
S3150800211400380240FD6F0008034B044A9B68C3F36A
S315080021244233D35CD840704700380240FD6F00083C
S315080021340C4B0D485A68596812F4800F0B4A01F083
S315080021443F0108BF1046B0FBF1F05A685B68C2F35A
S3150800215488125043C3F3014301335B00B0FBF3F029
S31508002164704700BF0038024000127A000024F400C9
S31508002174064B9B6803F00C03042B03D0082B03D1EE
S31508002184FFF7D6BF02487047024870470038024036
S3150800219400127A000024F40010B50446FFF7E8FF9D
S315080021A42060FFF7A1FF60600146FFF7A9FFA06062
S315080021B40846FFF7B1FFE06010BD000030B5C368FC
S315080021C404469B040D4685B002D5012005B030BDF2
S315080021D44B68C968C2680B43296922F416420B4343
S315080021E4A96922F00C020B431343C3600369AA6866
S315080021F423F440531343036143696A6923F4407320
S31508002204134343616846FFF7C7FF254B9C4224D115
S31508002214039B002BD9D02A68002AD6D019214B4310
S31508002224A969B1F5004F4FF064012BD15200B3FBF5
S31508002234F2F3B3FBF1F001FB1033DB003233B3FBEB
S31508002244F1F303F007025B0002EB001203F4F873E0
S3150800225413449BB20020A360B8E7124B9C4201D1F9
S31508002264029BD6E7104B9C42FAD003F54C439C429A
S31508002274CED0A3F548439C42F2D003F580639C4232
S31508002284A3D1EDE79200B3FBF2F3B3FBF1F201FB42
S3150800229412331B013233B3FBF1F303EB0213D8E712
S315080022A400100140004400400048004000487047C0
S315080022B4DA71000800487047BA7100080048704788
S315080022C4997100080B46012B11460ED11378C3F3F6
S315080022D44113022B0BD15378012B08D19388072B72
S315080022E405D19E23034A02F06FBA012070470020E5
S315080022F4704700BFFB700008F0B5284985B00B7815
S3150800230423BB274A01AED2F8104A0194D2F8144ADC
S315080023140294D2F8182A039201220A7021490F4618
S3150800232416F8015B013305F00F022C099F2D8CBFAB
S3150800233437343034092A8CBF373230320C2B0C70C0
S315080023444A7001F10201EBD100233B7670B9164BB2
S315080023541B681A88154B5A8001230133DBB21348CC
S315080023645B0043F44073038005B0F0BD032813D81B
S315080023740D4B53F820402046FDF722FFC3B21F2B0E
S3150800238428BF1F232046094AE1188842E5D010F8D9
S31508002394014B22F8024FF8E70020E5E72801002060
S315080023A40070FF1F5C0000204C0000202A0100205A
S315080023B400F0C4BB2721194B10B599706921D9704F
S315080023C45B210822197145211A70597100220121CD
S315080023D4134C14484FF4804CC4E90001C4E905328F
S315080023E44FF400615A704FF400032046C4E902C151
S315080023F42282E2612362FEF79DFE042320460A4AEE
S315080024040A49FEF703FD20460423094A0949FEF74B
S3150800241438FD2046BDE81040FEF772BF6A01002069
S31508002424BC0000200080024070010020103100200A
S315080024344019002090310020074A084B117819707A
S315080024445178597091789970D178D97011795279EF
S3150800245419715A71704700BF6A010020D2470020DB
S31508002464064B1A7802705A7842709A788270DA782B
S31508002474C2701A7902715B79437170476A01002048
S3150800248470B50F4C2046FEF7A5FD0546B0B9A68FD4
S31508002494216C32460B4804F091FD226B136843F015
S315080024A4004313602368A56303F580535A6912062B
S315080024B402D580225A619D60304670BD0026FBE72E
S315080024C4BC0000209041002070B5134CE66A00F069
S315080024D435FB00F1FA053368002B0CDB0F4B10496A
S315080024E41D88E36A2A46986804F068FD29460A485E
S315080024F4FEF700FD05E000F02BFD00F01FFBA842E7
S31508002504E9D9236803F580535A69920603D520222C
S315080025145A6100225A6070BDBC0000208441002024
S315080025249041002072B6704762B67047FFF7FABF4B
S3150800253410B500F0E3F918B9BDE8104000F0FABC8C
S31508002544FDF7F8FF0028F7D000F056FCFEF7FAFA74
S3150800255400F0BCFA00F0D4F9064B20F0604020F0F5
S315080025647F00986000F0CCF94468FFF7DDFFA047C8
S31508002574E2E700BF00ED00E0F8B506460F4615464B
S315080025840024AC4200D1F8BD3B5D335500F0E0FCB5
S315080025940134F6E7F8B50C4C06460025274600F044
S315080025A4D7FC2368B34208D862681344B34204D9F3
S315080025B40C2303FB0577387AF8BD01350A2D04F197
S315080025C40C04ECD1FF20F7E7EC7100082DE9F84379
S315080025D406460025FEF742FF06F10409D6F80080F0
S315080025E459F8057005EB080400F0B2FC21463A4692
S315080025F400230220FEF776FF044668B955F808302A
S31508002604BB4204D10435B5F5007FE7D10124FEF7B2
S3150800261437FF2046BDE8F8830024F8E738B5104BA1
S31508002624044698420D4608D00E4A914216D0FFF742
S31508002634CDFF18B90024204638BD0B4CC5F3080352
S31508002644002BF7D123689D42F5D020464FF400723B
S31508002654294640F8045BFFF78FFFECE71C46F1E7D1
S315080026641032002000800008143400202DE9F041BF
S315080026741F46036821F4FF78013304460D461646BF
S3150800268428F0010806D14FF40072414640F8048B3D
S31508002694FFF772FF2368434505D020464146FFF7F6
S315080026A4BDFF0446E8B123680435ED1A25443744CA
S315080026B400F04EFC231DEB1AB3F5007F08D32168FE
S315080026C4204601F50071FFF7A9FF044648B1051D28
S315080026D416F8013BBE4205F8013BE9D10120BDE8E5
S315080026E4F0810020FBE700004FF0FF33024A136035
S315080026F4024A1360704700BF1434002010320020C9
S31508002704124B70B51B1A16464A1E9A4204460D46C3
S3150800271419D8FFF73FFFFF2815D0601E2844FFF796
S3150800272439FFFF280FD00A4B24F4FF7222F0010266
S315080027349A4221462B463246BDE870400CBF0548EE
S315080027440548FFF793BF002070BD00BFFFFF0F08C1
S315080027540080000810320020143400202DE9F047C8
S31508002764344B4A1E1B1A9A4204460E4686B004D9AE
S315080027740024204606B0BDE8F087FFF70BFF0546A0
S31508002784601E3044FFF706FFFF2D0646F0D0FF28EB
S31508002794EED00024012D0094EBD90B28E9D8854204
S315080027A4E7D8012302220194CDE904322C46FEF728
S315080027B455FE214FE1B28E4203D20124FEF760FE94
S315080027C4D7E71E4A00231046157A8D4221D10C22DA
S315080027D45343C21850F80390556849EA05039B0702
S315080027E404D04FF42A71384600F082FA4FEA950865
S315080027F4002545454FEA850A01D10134DAE7EBB2EB
S315080028040BB900F0A5FB5AF80930013306D1013596
S31508002814EFE701330A2B02F10C02D5D100F098FB3D
S31508002824694601A80394FEF705FF0028E5D00024AD
S31508002834C4E700BFFFFF0F0835700008EC710008F5
S3150800284407B50E4A1368013316D0D2E901310B4491
S31508002854D1680B480B4411690B4451690B449169BF
S31508002864D2690B4413445B42042101AA0193FFF77E
S3150800287447FF03B05DF804FB0120FAE71032002095
S31508002884848100080A4AD2E900310B4491680B4452
S31508002894D1680B4411690B4451690B449169D2F808
S315080028A484210B44D3420CBF01200020704700BF8B
S315080028B4008000080A4808B50368013305D10948A9
S315080028C40368013306D1012008BDFFF77FFE0028FF
S315080028D4F5D1F9E7FFF77AFE003818BF0120F3E7C8
S315080028E41032002014340020004870470080000885
S315080028F4FFF7FABEFFF704BFFFF730BFFFF7C2BF03
S31508002904FFF7F2BF08B5FFF79BFF18B1BDE808400B
S31508002914FFF7D0BF08BD000038B5084D686000F061
S315080029240DF900F10A042B681B0605D400F010FB08
S3150800293400F004F9A042F6D938BD00BF00480040AB
S3150800294410B50D4C88B0E3684FF4614223F4005384
S31508002954E3600023CDE901230C22204601A9CDE931
S315080029640333CDE905230793FFF728FCE36843F40B
S315080029740053E36008B010BD00480040812938B50B
S3150800298404460D4603D97E21084800F0B1F92846C5
S31508002994FFF7C2FF2544AC4200D138BD00F0D8FA8F
S315080029A414F8010BFFF7B8FFF5E700BF73700008CA
S315080029B42DE9F041204C0F462578204EADB93368F1
S315080029C49B060FD573681E4ADBB21370013BDBB254
S315080029D4802B07D800F0B2F81A4B18601A4B1D70F2
S315080029E4012323700020BDE8F0813568DFF858809C
S315080029F415F0200598F8003014D011497568CA18DE
S31508002A04557001330A78DBB29A4288F80030E9D166
S31508002A140131FFF7B1FD0023237098F80030012037
S31508002A243B70E0E700F08AF8064B1B68C833984207
S31508002A34D8D92570D6E700BFA43600200048004040
S31508002A44203600201C36002018360020184B82B089
S31508002A545A6C012042F001025A645A6C154902F074
S31508002A6401020192019A9A689B68C2F3423213F4EE
S31508002A74604F14BF022301238A5C0F490968D140B9
S31508002A844B430E490E4AB3FBF1F310604FF6FF7041
S31508002A940021013BD0629362536943F001035361F9
S31508002AA4084B526A1960084B1A8002B0704700BF77
S31508002AB400380240FD6F000840000020A08601008F
S31508002AC400000140A8360020A63600200B4B5A6A9F
S31508002AD442F001025A625A6A22F001025A625A6C98
S31508002AE422F001025A644FF0E02300221A615A6167
S31508002AF49A614FF00072C3F8042D704700380240FB
S31508002B040B4B0C485B6A028810B59B1A9BB2632B65
S31508002B140DD96421B3FBF1F3074C2168194403EB7F
S31508002B24830303EB830302EB83022160028010BD57
S31508002B3400000140A6360020A836002008B5FFF795
S31508002B44DFFF014B186808BDA836002008B5FFF753
S31508002B54D7FF014B186808BDA836002010B50446EF
S31508002B64002000F0ABFC38B101222146002000F019
S31508002B74AFFC431E5842584110BD000013B54FF030
S31508002B84A04415480460FDF713FF144A01A95368C5
S31508002B94002043F002035360A36B43F40013A363BA
S31508002BA4A36B23F40023A363A36B23F48023A363F7
S31508002BB40123ADF8043001F059F800F0C5F8B0F572
S31508002BC4FA6F06D24FF4FA6002B0BDE8104000F07E
S31508002BD4B5B802B010BD00BFF0360020000800509A
S31508002BE408B501F039F84FF0A04303480360BDE87F
S31508002BF40840FDF717BF00BFF036002013B53F297C
S31508002C0404468DF8071003D99B21114800F070F883
S31508002C14012200200DF1070100F064FC012803D00D
S31508002C249F210B4800F064F8214600209DF80720F0
S31508002C3400F058FC9DF80730834203D0A2210448CB
S31508002C4400F056F8002000F057FC02B010BD00BF93
S31508002C54B17000082DE9F84380461D4F00200E4642
S31508002C6402F062FA00214FF0FF3001F067FA3C786F
S31508002C74184D7CB92846FFF771FF012806D12B7831
S31508002C84013B3E2B9EBF144B38701C700024204613
S31508002C94BDE8F883DFF8409099F80000013028442D
S31508002CA4FFF75CFF01280446F0D199F800302A782A
S31508002CB40133DBB29A4289F80030E7D14046691CF1
S31508002CC4FFF75AFC00233B7099F800303370DEE7AF
S31508002CD4ED360020AD360020AC3600200120FDF785
S31508002CE43EBC0020FDF73BBCFDF73ABCFDF739BCFA
S31508002CF408B500F02DF9FCE710B500F0B9F801287D
S31508002D0414D00B4C2378012B10D1FFF717FF094B6E
S31508002D14094A1B681268134403F5FA73984205D3E3
S31508002D2400232370BDE81040FFF702BC10BD00BFA6
S31508002D34D43B0020CC3B0020D03B0020014B18603C
S31508002D44704700BFCC3B0020014B1868704700BF92
S31508002D54CC3B002008B5044B1B78012B03D1FFF7A5
S31508002D64EDFE024B186008BDD43B0020D03B002082
S31508002D74012208B5034B1A70FFF7ECFFBDE80840BB
S31508002D84FFF7BABFD43B002008B5FFF7CFFB00F026
S31508002D94DDF8FFF75BFEFFF7ABFD00F017F8BDE8BB
S31508002DA40840FFF7E5BF08B500F0D2F8FFF7A8FE1C
S31508002DB400F066F8BDE80840FFF79EBF08B5FFF7C0
S31508002DC4BDFE014B186008BD583C002038B50025E7
S31508002DD4074B084C1D70FFF7F1FF00F005FAFFF7E3
S31508002DE4AFFD2570FFF7CAFE0323237038BD00BF65
S31508002DF45C3C002075000020002208B5034B1A70BD
S31508002E04FFF7DCFFBDE80840FFF7EABE5C3C00209C
S31508002E1470B50E4E054633780C4613B9C9B2FFF79A
S31508002E24ADFD3378032B03D12846E1B2FFF7E6FE5E
S31508002E343378052B03D12846E1B200F0E5F800F013
S31508002E44EDF9BDE87040FFF7B9BF00BF7500002073
S31508002E54054B1B78022B05D0033B012B8CBF812025
S31508002E643F2070470820704775000020FFF7F0BF21
S31508002E7408B500F0C9F9003818BF012008BD0000DC
S31508002E8413B528480DF10701FFF792FD01280BD168
S31508002E940022254B1A70254B1870FFF78FFF9DF8F3
S31508002EA40710204800F0C2F91E480DF10701FFF784
S31508002EB4D1FE01280BD103221B4B1A701B4B187029
S31508002EC4FFF77CFF9DF80710164800F0AFF9154880
S31508002ED40DF1070100F0B8F801280BD10522124BB1
S31508002EE41A70124B1870FFF769FF9DF807100D4802
S31508002EF400F09CF9FFF7BCFF012810D10B4C23788E
S31508002F04012B0CD1FFF71AFE094B1B68C01A41F2B4
S31508002F148733984203D900232370FFF74FFF02B083
S31508002F2410BD00BFD53B0020750000205C3C002086
S31508002F34583C002008B500F059F80522024B1A70CF
S31508002F44BDE80840FFF706BF75000020FDF702BB81
S31508002F54FDF703BB38B51D4B1C78002C34D1FFF79D
S31508002F6429FAFFF7EBFD1A4B00F5FA70186042F2DE
S31508002F741075FFF7E3FD174B2844186003F068F84B
S31508002F84154B4EF603001C805C80144B1C805C8039
S31508002F94134B1C805C8003F0A1F8FFF74DFA114827
S31508002FA4FFF75EFA06210F4802F084FE02F09AFE45
S31508002FB4FFF7CAFE42F20F73984202D82846FFF773
S31508002FC4BDFE0122084B1A7038BD00BF76000020EA
S31508002FD4683C0020643C0020E0470020D8470020D5
S31508002FE4DC4700205E3C00205D3C00200022044BA8
S31508002FF41A70044B1B780BB9FFF7ACBF704700BFB8
S31508003004760000205D3C002070B50D4B1B78012B23
S3150800301410D10C4B45181B68DA6903F123041A62AC
S31508003024A84208D10431A3F8A61001210A4483F85A
S31508003034A810DA6170BD10F8016B04F8016FEFE7A8
S315080030445D3C00207C410020F8B5354B1E78012EE6
S3150800305444D1FFF715FA334C00B3334D20804FF4AF
S315080030640060AF8903F09CFD87420BD1304603F01C
S3150800307445F8238893B103F0B7FEFFF725FA002332
S3150800308423800BE040F60600AD8903F089FD8542EE
S3150800309404D103F055FE2388002BEED1FFF74EFD2D
S315080030A4224A234D1368234E984219D2FFF746FD48
S315080030B4214A1368984205D303F51C531033136049
S315080030C403F016FE03202E6003F018F823882BB1AC
S315080030D403F08AFEFFF7F8F9002323800020F8BDE1
S315080030E403F5FA73022013602E6003F007F82388A9
S315080030F42BB103F079FEFFF7E7F9002323800F4B82
S315080031040F4A05201A6002F0F9FF2388002BCDD058
S3150800311403F06AFEFFF7D8F900232380C6E700BF49
S315080031245D3C00208441002090410020683C00203A
S315080031347C410020D0400020643C0020C840002088
S315080031448840002038B5234B234D1C682B7813F090
S31508003154400207D00123E3610023A4F8A630A4F8AB
S31508003164A83038BDD80748BF84F8A920590709D517
S3150800317494F8A930012B05D1B4F8A61004F120005F
S3150800318403F012FD2B781A070FD594F8A830012BF3
S315080031940BD10022B4F8A61084F8A82029B184F823
S315080031A4A93004F1200003F0FFFC2B789B07D8D53F
S315080031B40A4B19888529D4D894F8A930002BD0D17C
S315080031C4074B04391868C9B20430BDE8384000F022
S315080031D42DB800BF7C410020804100208441002096
S315080031E48C410020006870470022064BC3F88820EB
S315080031F4A3F8862083F88120A3F8822083F8842004
S31508003204704700BF6C3C0020034B93F881000038DC
S3150800321418BF0120704700BF6C3C00200022024BF7
S3150800322483F88420704700BF6C3C0020F8B5037807
S315080032340546FF2B9D4C33D10122002384F88120B7
S3150800324441F2FF0284F88230A3702280FFF700FE61
S31508003254E070FFF70BFE2071FFF708FE40F201133A
S31508003264E3800823000A6071A4F88630FFF740FB60
S3150800327494F88430012B01BF41F2FE032380022314
S31508003284A4F88630B4F98610002940F30D81012389
S3150800329484F88430854889B2BDE8F840FFF7B8BD9C
S315080032A494F88120012A40F0FF80D22B1ED8C82B1F
S315080032B402D842F2FE0344E0C93B092BF9D801A21D
S315080032C452F823F0FB330008B7320008B732000877
S315080032D40F340008B7320008B73200089D340008D6
S315080032E42B340008813400086B34000803F10D02FE
S315080032F4D2B20B2ADDD8F33B0B2BDAD801A252F84B
S3150800330423F000BF9D3300087133000839330008E1
S315080033148B330008B7320008B7320008B732000802
S31508003324D3330008B7320008E3330008E73300084C
S31508003334A1340008FFF78CFD6A78904204D842F25B
S31508003344FE23238002230EE0D4F888105848FFF79A
S3150800335413F9FF236A782370D4F888301344C4F821
S3150800336488306B780133A4F8863081E7FFF770FD5F
S315080033746B788342E3D2281DFFF734FFC4F888002C
S3150800338401466A78E2E7FF23281D2370FFF72AFF20
S31508003394C4F888000123E6E7FF23281D2370FFF7F6
S315080033A421FF0025D4F888608719BE4208D1002376
S315080033B4012225716371E380627063800823D2E772
S315080033C416F8013B1D44EDB2FFF7C2FDEDE7394B94
S315080033D4FF22C4F888300723C4E90023EEE7FE2356
S315080033E4AFE7FF23238094F88230A3700023E370A9
S315080033F4A3800623B7E7D4F88860FFF729FD6A1C7B
S31508003404411E3046FFF776FA10B943F2FE1398E7E1
S31508003414FF232370FFF71CFDD4F8883001380344D2
S31508003424C4F88830B6E7FFF713FD6B78013898427D
S3150800343485DDFF2323700123A4F88630697821B932
S31508003444FFF760FA0028E0D012E7D4F88800AA1C2F
S31508003454FFF750FA0028D8D06A78D4F8883013448D
S31508003464C4F8883004E7FF2300252380A570FFF7F6
S31508003474EFFC0723E070A580A57174E70430FFF715
S31508003484B1FED4F8883001461846FFF735FA002805
S31508003494BBD0FF2323707DE7FFF74AF8002384F89F
S315080034A4813084F88230F4E7F8BD00BF6C3C002014
S315080034B46D3C0020647200087047704708B518B957
S315080034C4024800F0C0FA08BD0020FCE7D83D0020F9
S315080034D4134618B90A46024902F00EBB0020704783
S315080034E4D03D002020B993B20A46024902F054BAE4
S315080034F4002070477C3D002010B9024902F016BA34
S31508003504002070477C3D00207FB5124CAC22002178
S31508003514204603F026FD04F16C034025009300239E
S315080035240D4E1A461946CDE90156039504F158007D
S3150800353402F0B2F904F11803009300232E44012281
S315080035441946CDE901560395201D02F0A5F904B0E4
S3150800355470BD00BF783D0020F83C002010B5054C2E
S31508003564204602F0AFF9A4F1540002F0ABF90120A9
S3150800357410BD00BFD03D002038B5074C00252046B5
S3150800358400F8605B00F000FB04F10C0084F8595065
S3150800359400F0FAFA657138BD783D00202DE9F0414E
S315080035A44B798046FF2B0E4627D12E4D0C7895F87D
S315080035B4593013BB6B7903BB8B788F180C442B706B
S315080035C4BC4206D2237823449F4202D36378042B51
S315080035D403D1A01B80B2BDE8F0810B2BF9D0052BD3
S315080035E422D12146404600F0EDFC40B94FF0E023D5
S315080035F4D3F8F03DD80700D500BE0020EBE7A37842
S31508003604DA0914D06A797AB96B71A3882A79C3F36B
S315080036140A03A3F500714B424B4163F3410240464A
S3150800362411492A7102F082F923781C44C8E795F8EF
S315080036345920002AF8D185F85930A3884046C3F39F
S315080036440A03A3F500725342534195F858200749D3
S3150800365463F3410285F8582002F0F0F90028E3D113
S31508003664C4E700BF783D00207C3D0020D03D002003
S3150800367470B5184D1C4695F8593006468B4214D138
S31508003684B5F86430A4B22BB12246E96D05F16000A1
S3150800369400F06EFA002010492246FFF70DFF304667
S315080036A40E4902F0CBF9012070BD6B798B420FD11C
S315080036B40020A1B2FFF701FF3046291D02F036F9B2
S315080036C40028F0D122463046291D02F0FDF8EAE723
S315080036D40020E9E7783D0020F83C0020D03D002092
S315080036E40A4492B291424FEA400001D8824201DB71
S315080036F4121A92B21046704738B50546D41A0846C7
S31508003704A988A4B29A423CBF04EB4104A4B2B4B15A
S31508003714A14205D2914294BF521A521893B26B81B0
S31508003724994209D9EA882968C2F30E0202FB0311F1
S3150800373403F044FC012038BD5B1A9BB2F0E720462F
S31508003744F9E713B50446930801EB830399420BD1B1
S3150800375412F0030206D0002301A8019303F02EFCFD
S31508003764019B236002B010BD51F8040B2060EDE7FD
S315080037742DE9F74FBDF8304085881E1BB6B2A34223
S315080037843CBF06EB4506B6B280460F4656B3B5426D
S3150800379406D22E469D4294BF5B1B5B199CB244819C
S315080037A4964228BF1646A54220D9B8F806202B1BF0
S315080037B4751BC2F30E0225449BB202FB03F955435B
S315080037C49DF83410D8F800A0012902FB04A41FFAB6
S315080037D489F9ADB218D09E420BD8214638467243B1
S315080037E403F0ECFB304603B0BDE8F08F641BA4B2CB
S315080037F4D9E74A462146384603F0E0FB2A46D8F874
S31508003804001007EB0900EBE79E4206D821467243EF
S3150800381492B23846FFF795FFE4E729F003081FFA42
S3150800382488F8424621463846FFF78BFF19F0030904
S315080038341DD0C9F1040B1FFA8BFBAB4528BFAB4659
S31508003844002309F1FF395FFA89F909F1010204EB4A
S31508003854080101A8A5EB0B05019303F0AFFB01AB27
S31508003864ADB24B44D344D34506D1019B3B60002DEE
S31508003874B8D02A465146CCE71AF8012B03F8012F8B
S31508003884F1E713B5930800EB8303984209D112F0C4
S31508003894030204D00B6801A9019303F08FFB02B05D
S315080038A410BD0C6840F8044BEFE72DE9F04F80464D
S315080038B4164698F807200089B8F80A50D2098946A6
S315080038C4B8F8044085B080B2ADB211D1A84236BF6B
S315080038D4C5EB4405451B2D18ADB2A54280F09E8064
S315080038E4651BADB2B54228BF3546AEB205460BE0F8
S315080038F4A64234D333B9B8F80620361BC2F30E02EF
S3150800390402FB06193CB326462946A14239D2B8F821
S315080039140620A4EB010C341BC2F30E021FFA8CFC1E
S315080039240C4402FB0CF75443D8F80000012B02FBA5
S315080039340100BFB2A4B231D0B44525D34946724377
S3150800394403F03CFB32462946B8F80400FFF7C8FEE4
S315080039543446A8F80800204605B0BDE8F08FA8420A
S315080039644FEA440136BF4A1B421B121892B232442C
S315080039748A42BBDBA21B2946204692B2FFF7B0FE59
S31508003984B4E7091B89B2C0E73A46494603F016FB71
S315080039942246D8F8000009EB0701D1E7B44505D358
S315080039A4724392B24946FFF76CFFCBE727F0030B45
S315080039B41FFA8BFB5A4649460190FFF762FF17F038
S315080039C4030728D0C7F1040A1FFA8AFAA24528BFB2
S315080039D4A246013F0198FFB2D9F8003001373A46AA
S315080039E403A95844039303F0E9FAD8F8000003AB93
S315080039F4A4EB0A043B44A4B2421E03EB0A0199420F
S31508003A0404D15044002C9DD02246CBE713F8017B01
S31508003A1402F8017FF3E7D8F80000F3E700249AE7F1
S31508003A24B2F5004F0DD882809DF80020C3F30E032B
S31508003A3443EAC233C3800023016043810381012022
S31508003A44704700207047024613895289808892B2CB
S31508003A549BB2934236BFC2EB40029B1A9B189BB299
S31508003A64984228BF1846704703894289818892B2CA
S31508003A749BB2934236BFC2EB41029B1A9B189BB278
S31508003A8499428CBF002001207047038941898288A6
S31508003A9489B29BB28B4236BFC1EB42015B1A5B18F3
S31508003AA49BB29A4286BFD01A80B200207047028918
S31508003AB4438910B504469BB292B2FFF71DFE61898D
S31508003AC40346024689B2A088FFF70AFE60811846B3
S31508003AD410BD73B50026038945890446ADB2CDE900
S31508003AE400569BB2FFF744FE61890346024689B233
S31508003AF4A088FFF7F5FD6081184602B070BD73B55E
S31508003B040126038945890446ADB2CDE900569BB220
S31508003B14FFF72EFE61890346024689B2A088FFF79D
S31508003B24DFFD6081184602B070BD70B5058904468C
S31508003B340E46ADB2FFF798FF10B1E079C00913D06D
S31508003B442846A388834210D9E2882368C2F30E0262
S31508003B54314602FB003003F031FA01222946A088D7
S31508003B64FFF7BEFD2081012070BDC01A80B2E9E7C7
S31508003B7412B10023FFF799BE1046704712B101230C
S31508003B84FFF793BE10467047002343810381012043
S31508003B94704700002DE9F04105460024194E1A4FD6
S31508003BA4DFF868803178E2B24B1CDBB2934210D856
S31508003BB4174C2C220021204603F0D3F91022FF21AA
S31508003BC4201D03F0CEF94FF0FF336361A361E3616F
S31508003BD40DE091420DD92421D8F8003001FB0233B7
S31508003BE44BB94FF0E023D3F8F03DDB0708D4BDE822
S31508003BF4F081F6D13B462846DB6898470134D1E77D
S31508003C0400BEF4E7E83E00206C720008EC3E002093
S31508003C14F13E002070B50C4605461646486900F084
S31508003C2405FE3246284663690121BDE870401847F7
S31508003C340346034A10780BB101F000B901F0FFB846
S31508003C449000002070477047002070470020704796
S31508003C54034600201870704708B5034B187801F01E
S31508003C64FFF8012008BD00BF900000202DE9F84F99
S31508003C74DFF8A480054698F800300E46FF2B46D197
S31508003C8449B94FF0E023D3F8F03DDB0700D500BE71
S31508003C940020BDE8F88F00242C2200211F4803F0D9
S31508003CA460F91F4B1F4F20481C70FFF76DFF1F4B11
S31508003CB41F4A38461A60FFF7CBFF3B78DFF8749043
S31508003CC4FF2BC9F80000DCD04FF0240BDFF868A0FE
S31508003CD40CE091421DD9D9F800300BFB0233002BB6
S31508003CE4CFD05B680134002BCBD098473978E2B241
S31508003CF44B1CDBB29342ECD83146284688F8005070
S31508003D0401F0BEF80028BCD0284601F097F8012037
S31508003D14BFE7B6D15346E4E790000020F13E002001
S31508003D24F03E0020E83E00207C000020243E0020CF
S31508003D3478000020EC3E00206C7200082DE9F04360
S31508003D4443780446023B0D4685B0052B16D8DFE8B2
S31508003D5413F00600B1002A003200C800CD00002185
S31508003D64844B1A7822F001021A701A7822F0020299
S31508003D741A7059701A7861F382021A707E4B1F689A
S31508003D8415B928463B6898472146381DFFF7CDFEE6
S31508003D94064615B901203B689847002E77D02A466F
S31508003DA4617820789AE0734B1A78D70776D51A780B
S31508003DB442F00402E1E76F4A1378DE076ED51378FA
S31508003DC423F004031370D9E791426AD92421D9F858
S31508003DD4003001FB0233002B65D101363978F2B283
S31508003DE44B1CDBB29342EFD8624E337858072CD576
S31508003DF4337823F0040333700023CDF80630CDF866
S31508003E040A30ADF80E3023788DF8043005238DF882
S31508003E140530594BD3F800801DB92846D8F8003028
S31508003E24984701A908F10400FFF77FFE07461DB964
S31508003E340120D8F800309847002F42D14FF0E023EC
S31508003E44D3F8F03DD90700D500BEF378DA0725D5AF
S31508003E540023CDF80630CDF80A30ADF80E302378B5
S31508003E648DF8043003238DF8053063680293424BBA
S31508003E741E6815B928463368984701A9301DFFF707
S31508003E8454FE044615B90120336898470CBB4FF015
S31508003E94E023D3F8F03DDB0700D500BE05B0BDE846
S31508003EA4F0839AD143461B6A002B96D06168207822
S31508003EB4984792E70026314FDFF8C480DFF8C490AC
S31508003EC48CE72A469DF805109DF80400FFF7BAFE0C
S31508003ED4BBE72A469DF805109DF80400FFF7B2FED5
S31508003EE4DCE7294A13780133DBB26BE7017911F071
S31508003EF40F033FF443AF1F4E4FEA430C06EB43034D
S31508003F0403EBD1131A7D1D4BC8091B789A422CD290
S31508003F1424271C4B1B6807FB0233002B3FF42EAFE8
S31508003F24DF69002F3FF42AAF6644064496F820302A
S31508003F34627923F0010386F8203096F8203023F0BE
S31508003F44040386F820302078A368B8470028A5D14A
S31508003F5496F8203043F0010386F8203096F820308E
S31508003F6443F0040386F8203008E77FF407AF044BD0
S31508003F74D6E700BFF13E0020243E0020E83E00209C
S31508003F846C720008EC3E0020F03E002010B5054C8B
S31508003F9418B963680BB92368984763680133636083
S31508003FA410BD00BF88000020054A536833B1013BA1
S31508003FB4536018B913B9012013681847704700BF2E
S31508003FC48800002038B50F4B0C461D788B7803F013
S31508003FD40F03052B08D94FF0E023D3F8F03DDB0790
S31508003FE400D500BE002038BD074B0022204699782C
S31508003FF401F0FCFB0028EED021462846BDE83840EF
S3150800400400F0AEBF90000020F13E0020CB0901F07D
S315080040140F020448203303EB42030021184401F03D
S31508004024B9BB00BFF13E0020CB0901F00F020448DA
S31508004034203303EB42030021184401F0C6BB00BF3A
S31508004044F13E002070B5164C01F00F0604EB460449
S3150800405404EBD11494F820501248ED07007808D5DB
S315080040644FF0E023D3F8F03DDB0700D500BE00206F
S3150800407470BD94F8205045F0010584F8205000F0EE
S31508004084DBFF0028F4D194F8202060F3000284F8BA
S31508004094202094F8202060F3820284F82020DFE7A9
S315080040A4F13E00209000002010B50C460B4B187802
S315080040B401F00AF80A4B04F00F0203EB420303EB80
S315080040C4D41191F8203043F0020381F8203091F896
S315080040D4203043F0010381F8203010BD9000002001
S315080040E4F13E002010B50C460B4B187800F0FEFF85
S315080040F40A4B04F00F0203EB420303EBD41191F8C5
S31508004104203023F0020381F8203091F8203023F080
S31508004114010381F8203010BD90000020F13E0020F4
S31508004124054B01F00F0203EB420303EBD11191F89F
S315080041342000C0F340007047F13E00202DE9F04FFF
S31508004144984B87B01B78FF2B3DD0974F974B002091
S315080041541D682C4654F8043B9847204603A9FFF7E4
S31508004164A6FC04462B680120984764B39DF80D30D5
S31508004174013B072B00F2D082DFE813F00800120097
S31508004184C602AE02B8021B007002BF029DF80C00FC
S31508004194FFF700FD00F042FB9DF81030BB70D5E731
S315080041A49DF80C00FFF7F6FC00F038FBFEF799FDC6
S315080041B4CCE77F4A13784BB94FF0E023D3F8F03DA8
S315080041C4DC0700D500BE07B0BDE8F08F1378013BC5
S315080041D4DBB21370137803F0FF00002BB6D1724CD0
S315080041E49DF80C50237843F00103237094F820308B
S315080041F460F3000384F8203094F8203060F38203D7
S3150800420484F8203094F8213060F3000384F82130D0
S3150800421494F8213060F3820384F8213000F006FB19
S315080042249DF8102002F06003602B07D14FF0E023BD
S31508004234D3F8F03DDD072BD500BE29E0402B0BD182
S315080042445C4800F0F3FA0121284604AAFEF73AF876
S3150800425400287FF47BAF1BE002F01F02012A00F05E
S315080042647E81022A00F0AC81002ADFD1202B21D1DD
S315080042749DF814300F2B0BD84F4A23441B79127818
S31508004284934210D24D4A1168242202FB031161B9E4
S315080042949DF80C00002100F017FF80219DF80C0002
S315080042A400F012FF52E7F3D1454904AA2846FFF75E
S315080042B4B1FCCDE7002BB9D19DF81130092BB5D83F
S315080042C401A252F823F000BF414500082F45000813
S315080042D4314200081B45000831420008F54200082F
S315080042E473440008314200080F43000819430008C4
S315080042F404A800F0A1FA28469DF8121000F0CCFE96
S31508004304237843F00203237020E763788DF80A3094
S3150800431401231DE19DF8126063789E4213D06378E9
S315080043246BB10021284600F003FE284600F032FE51
S3150800433494F802802846FFF72DFC84F802806670FC
S3150800434436B9FEF7CEFC284604A900F02BFAFDE69A
S31508004354701EC0B2FDF7AEFF10B14378022B08D029
S315080043644FF0E023D3F8F03DDB077ED400236370D7
S315080043745CE7C37900F10906C3F38012C3F340135B
S315080043841B0143EA4213227822F0300213432370B6
S315080043944388C3180093009BB34213D8FEF79EFCC8
S315080043A4D1E700BF90000020F13E0020243E002003
S315080043B4F03E0020C9220008E83E0020EC3E00201A
S315080043C46C72000873780B2B02BF3278F378B61830
S315080043D4727818BF0123042AC2D14FF0000B009A41
S315080043E4A2EB060A1FFA8AFAB54A5FFA8BF811781D
S315080043F44A1CD2B24245B3D9414515D92421B14AFA
S31508004404126801FB0822002AAAD0D2F81090314675
S31508004414524628460193C84708288146019B21D954
S3150800442482451FD300210CE09AD1A74AEDE7B0785C
S3150800443401310244D2B222441079FF2890D182F87D
S315080044440480CAB29342F2D8434631464A469F4844
S3150800445401F010FA9A4B4E441B780133DBB24345FC
S3150800446499D87DE70BF1010BBEE700BE7EE7BDF8E0
S3150800447412301A0AD8B2531E0E2B3FF609AF01A101
S3150800448451F823F0C5440008E7440008014500082C
S31508004494954200089542000815450008E7440008B7
S315080044A4954200089542000895420008954200087E
S315080044B4954200089542000895420008DD44000824
S315080044C4FDF7F4FE024600283FF4B0AE1223284650
S315080044D404A900F079F9BBE6FDF7F0FE024640B9F7
S315080044E4D6E6022A07D1FDF7E5FE024600283FF480
S315080044F49DAE5388EBE7FFF7A9FBEFE7BDF8141069
S31508004504FDF7FAFE024600283FF4C2AE0378DEE75A
S31508004514FFF79AFBF6E7BDF81230012B7FF4B8AE25
S31508004524237843F0080323700DE7BDF81230012BF6
S315080045347FF4AEAE237823F00803F4E72378C3F3B5
S3150800454440129B0803F002031343ADF80A30022312
S3150800455428460DF10A0204A900F036F9F6E59DF895
S3150800456414300F2B3FF694AE554A23441B79127820
S3150800457493421ED2534A1168242202FB03110029CE
S315080045843FF486AE284604AAFFF744FB00287FF4C6
S31508004594DDAD9DF8103013F060047FF479AE00F0B9
S315080045A445F99DF811300A2B07D00B2B3FF4CBAEF7
S315080045B46EE67FF46DAE4449E4E78DF80A40A7E653
S315080045C49DF8141001F00F02052A3FF62FAE3C4859
S315080045D404EB420202EBD112127D0078824214D215
S315080045E438480668242000FB0266ABB99DF81130EA
S315080045F403F0FD02012A15D0002B7FF417AE2846D6
S31508004604FFF78EFDADF80A00A1E700F08E80002BB7
S315080046147FF43EAE0026E9E7002E3FF439AE314674
S3150800462404AA43E6BDF8122022B9012B284612D162
S31508004634FFF758FD002E3FF489AD314604AA2846F3
S31508004644FFF7E8FA002000F0F1F894F82130DE07C5
S315080046543FF57CAD77E6FFF727FDEBE79DF81010ED
S3150800466401F00F0007EB400303EBD11393F8202066
S3150800467422F0010283F8202093F8202022F0040275
S3150800468483F8202038B9059B9DF811209DF80C0065
S3150800469400F0E0F85AE51A7D094B1B789A4217D2BE
S315080046A42420084B1B6800FB0233002B3FF484AD1F
S315080046B49C699DF81120059B9DF80C00A04745E5CB
S315080046C4E83E0020EC3E00206C720008053F0020FE
S315080046D47FF472AD174BEBE73B78D8077FF536AD19
S315080046E43878C0F3C000FEF7FFFA2FE53B78D90700
S315080046F47FF52CADFEF7FAFA28E5049B002B3FF468
S3150800470425AD0598984721E5FB78DA077FF51EADB0
S315080047140498FFF798FA19E54FF0E023D3F8F03D2B
S31508004724DB077FF513AD00BE10E5024E002B7FF4C0
S3150800473476AF5BE76C720008144B70B59989DA8911
S3150800474405468C1AA4B293F90000402C28BF4024CD
S3150800475400280FDA914213D09968A1B122460C4871
S3150800476402F02CFC80210A4A23462846BDE87040FC
S31508004774FFF768BC91424FF00001F4D10A46F3E70B
S3150800478480210022F0E7084670BD00BF603F002084
S31508004794203F0020C943002301F080011A46FFF791
S315080047A451BC704730B4074C0546224608680B4688
S315080047B4496803C200222846C4E9022230BC197893
S315080047C4FFF7E8BF603F0020F8B5134E0C4637469E
S315080047D4054608684968B26003C70021F181E18883
S315080047E48B4228BF0B46B38189B14BB142B94FF00E
S315080047F4E023D3F8F03DDB0700D500BE002005E032
S315080048042846FFF799FF0028F1D00120F8BD28466D
S315080048142178FFF7BFFFF6E7603F00201422002146
S31508004824014802F09EBB00BF603F0020014B18619F
S31508004834704700BF603F002010B50246044C00686C
S315080048442346516803C30023C4E9023310BD00BFDD
S31508004854603F002070B5284C1E462378C909B1EB81
S31508004864D31F054613D03EB14FF0E023D3F8F03DED
S31508004874DB073FD4002070BD2146FFF792FF23696A
S315080048841BB122460321284698470120F3E794F9E9
S315080048940030A068002B05DB0028EBD03246174908
S315080048A402F08CFBA268E38932443344A260E288AE
S315080048B49BB29A42E38101D03F2E17D8236933B9B4
S315080048C428462178FFF766FF0028DED1CCE70221C7
S315080048D42846094A984701460028F1D1284600F097
S315080048E4F3FB8021284600F0EFFBCEE72846FFF7C6
S315080048F423FFE9E700BEBDE7603F0020203F002014
S31508004904012894BF0346002370B5244D1B0105EB0B
S315080049140010067AEC5801F00F05AE4208D84FF09D
S31508004924E023D3F8F03DD90700D500BE002070BDBA
S31508004934D31CC9094FEA93030FD1C3F30D030833F4
S315080049443344626A5B009BB29A4204D2144A928840
S315080049549A42E4D363620120E9E7407A104920B118
S315080049648A799042DBD901328A71A268606A120692
S315080049745CBF5B009BB28A8818448242CFD3D21AA2
S3150800498492B28A8042EA03430DB9A362E3E705F1CA
S315080049943F0204EB82046360DDE700BF90720008FF
S315080049A47C3F0020012894BF014600210A4B0901D7
S315080049B4595803EB00131A7ADB68183252004A6214
S315080049C48A6C064A9B0893809AB202EB0343CB652A
S315080049D440228021FFF794BF907200087C3F002094
S315080049E4022828BF0020234B0001F0B51C588E78F6
S315080049F4D4F808E806F00F001EF0060F08BF4FF0BB
S31508004A04010E8B881C4F4FEA400C0CEBD61207EBB1
S31508004A140212C3F30A0353818A794FEAD61504BFEF
S31508004A2402F1FF320EFA02F2AC4408BFD2B207EB27
S31508004A340C173A73CA7843F4004302F003014A1E7A
S31508004A4418BF012243EA814343EA02730DB166F3B0
S31508004A54995385F0010500EB051202F14801490155
S31508004A6463500123D4F81C1893400B43C4F81C382C
S31508004A74F0BD00BF90720008843F0020022828BFBA
S31508004A840020324B000130B51B5801F00F04C90948
S31508004A944FEA44114FEA425203EB01002CD0D0F8F6
S31508004AA40059002D0EDBD0F800190A4342F00062C3
S31508004AB4C0F80029A40144F020041C611A6995066B
S31508004AC4FCD430BDD0F8005945F00065C0F800594B
S31508004AD4D0F808596D06FBD5D0F8005919442A436D
S31508004AE442F08042C0F80029D1F808299207FBD57C
S31508004AF40222C1F80829DDE7D0F8005B002D00DAA8
S31508004B042CB9D0F8003B1343C0F8003BD9E7D3F8D7
S31508004B14044844F40074C3F804485C692406FCD5C4
S31508004B24D0F8004B1944224342F08042C0F8002BC7
S31508004B34D1F8082B9207FBD50222C1F8082BD3F823
S31508004B44042842F48062C3F80428BAE7907200087D
S31508004B542DE9F74F0027022828BF00200C463E46B9
S31508004B641F4B000153F800801E4D08EB4113D3F880
S31508004B741039DFF874B0C3F3C9494B1C08EB033387
S31508004B844FEA411A009305EB4115BBB24B4503D3D3
S31508004B94304603B0BDE8F08F08EB0A01D1F81029B6
S31508004BA46B8B92B2934228BF1346D1F818290BEAA5
S31508004BB482029342ECD868691E44B6B228B11A46F2
S31508004BC40099FEF79CFF0137DFE72A69214640462C
S31508004BD4019300F0C2FD2A69019B1A442A61F2E78F
S31508004BE490720008843F0020FCFF03000128F8B5F2
S31508004BF494BF0346002314462D4A1B01D5580E4676
S31508004C0484F00102002942D12A4F37F81430402B88
S31508004C14194628BF40215B1A27F814300123C3F329
S31508004C24090306EB021241EAC34305EB4212C2F832
S31508004C341039D2F800391F46C7F30747C3F3076C80
S31508004C4407F00C076CF07B0C042F6CF31F6307D179
S31508004C54D5F80878FF054CBF43F0805343F000535A
S31508004C64012CAF6CC2F8003910D179B13146FFF77F
S31508004C746FFF5EB1104B03EB46131B8B8342C1BF18
S31508004C84D5F83438B4401C43C5F83448F8BD0A4B43
S31508004C9404EB410103EB01135F891989CB19013B25
S31508004CA4B3FBF7F39BB2012B38BF0123B7E700BF69
S31508004CB4907200087C3F0020843F0020012894BF9E
S31508004CC4034600232DE9F04F05460F460024574AAC
S31508004CD41B01D65889B0B36CB36CDFF85481C3F39F
S31508004CE483230133029381F001034FEA031906EB88
S31508004CF443235FFA89F203F5106303920193039A37
S31508004D04D6F818382244D340D90732D5019B012F47
S31508004D1403EB4412D2F808905FFA84FA4FEA441B6C
S31508004D24C2F8089043D119F0010F08D05CBB414A78
S31508004D34528842B33A4621462846FFF757FF19F0E8
S31508004D44800F16D0D6F83438E340DA0711D5514621
S31508004D542846B344FFF7FCFEDBF81039C3F3120305
S31508004D643BB90122D6F83438A24023EA0203C6F82E
S31508004D743438029A0134E3B29A4208F12008BED8BC
S31508004D8409B0BDE8F08FB8F8182007210792002269
S31508004D948DF815106AF07F018DF8181005A8012101
S31508004DA48DF814508DF81920FEF7C8FFC7E719F0D7
S31508004DB4080F5FFA89F218D0D6F80039002B04DAFE
S31508004DC4002280212846FFF759FE06238DF8153060
S31508004DD4194B8DF8145093E8030008AB03E9030054
S31508004DE4012105A8FEF7AAFFC3E7D307C1D529F40D
S31508004DF4FF4323F05F039BB2002BBAD144B90D4B92
S31508004E041B882BB1224621462846FFF7EFFEB0E75A
S31508004E14B8F808300722079300238DF814508DF844
S31508004E2415208DF818A08DF81930D9E79072000866
S31508004E34843F00207C3F0020743F00207047704761
S31508004E44022828BF0020054B00011A58D2F8043856
S31508004E5423F00203C2F80438704700BF90720008B2
S31508004E64022828BF0020054B00011A58D2F8043836
S31508004E7443F00203C2F80438704700BF9072000872
S31508004E840128F8B594BF034600230026254A1B01CA
S31508004E94D458254B0546012120461E605E6000F065
S31508004EA47DFB3246014607462846A36C00F082FB82
S31508004EB4064640B94FF0E023D3F8F03DDB0700D5AA
S31508004EC400BE3046F8BDD4F8003823F003032FB3E8
S31508004ED4A26C02F0C002802A01D143F4804343F055
S31508004EE404032846C4F80038FFF7BAFFE3682846DF
S31508004EF423F0C04343F08043E360236823F0D003E0
S31508004F0443F0C0032360A269084B1343A361A36853
S31508004F1443F08003A360FFF793FFD2E743F003034C
S31508004F24DDE700BF907200087C3F00200430008053
S31508004F34022828BF0020084B084A00011B58D171D3
S31508004F4431B108225A619A6942F008029A61704797
S31508004F549A6922F00802F9E7907200087C3F00205B
S31508004F6470B58A880C46C2F30A0289780646FFF7A2
S31508004F74C7FC054640B94FF0E023D3F8F03DDB07FC
S31508004F8400D500BE284670BD21463046FFF728FDE9
S31508004F94F8E70000012894BF02460022F8B5234B1F
S31508004FA412019D58044603EB001300201F7AFEF7EE
S31508004FB4EDFF00201E4B012198714FF001131D4A85
S31508004FC4C5F81C38CBB29F421CD905EB4113D3F85C
S31508004FD400690131002EB8BFD3F8006902F1200236
S31508004FE4BCBF46F09046C3F80069D3F8006B5083FB
S31508004FF4002EBEBFD3F8006B46F09046C3F8006B8C
S315080050045081DFE74FF484632B612B699B06FCD43C
S3150800501410232B612E6916F01006FBD12046FFF7E4
S31508005024C1FC3046BDE8F840FEF7BEBF90720008E2
S315080050347C3F0020843F00202DE9F047804600206D
S3150800504492461F4601F00F09CC09FEF79FFF104B45
S3150800505404EB49052A0103EB05156E8996B143F855
S3150800506402A000236B602B7B2F816B73B9F1000FB1
S3150800507402D1084B23F81470224649464046FFF7E6
S31508005084B5FD01260020FEF78FFF3046BDE8F08700
S31508005094843F00207C3F00200128034694BF034632
S315080050A40023084A1B01D258D2F8003823F4FE63B9
S315080050B443EA0113C2F80038002380211A46FFF791
S315080050C4BBBF00BF90720008012838B5034688BFE5
S315080050D400230C46044A1B01D5580122FFF7CEFCCF
S315080050E4230708BFAB6C38BD90720008022828BF96
S315080050F40020CB0983F0010301F00F0101EB031132
S31508005104084B00011B5803EB4113D3F8002922F47A
S315080051140012C3F80029D3F8002942F08052C3F8D4
S315080051240029704790720008012894BF034600239B
S31508005134B84A1B012DE9F04FD4580546A369666998
S3150800514487B01E40F10472D54FF480530120636181
S31508005154FEF71CFFC0220021AF48A76C01F001FF2F
S315080051640023AE4AC7F383270137D38004EB4311E0
S31508005174D1F8002B013342F00062C1F8002BDAB2F1
S31508005184BA42F3D3002304EB4312D2F800190133CD
S315080051940029BEBFD2F8001941F09041C2F800199F
S315080051A4DAB29742EFD84FF00113C4F81C38092332
S315080051B4C4F81438C4F810384FF484632361236997
S315080051C49A06FCD410232361276917F01007FBD12C
S315080051D42846FFF7E7FB4022D4F80038012067F396
S315080051E40A13C4F80038D4F8003923F00303C4F8C2
S315080051F40039D4F8003B23F00303C4F8003BD4F881
S315080052040039C4F80039D4F8003BC4F8003B824B93
S315080052145A835A81A36CD4F8103B43F0C043C4F8AC
S31508005224103BA36943F4E013A361FEF7BDFEB30480
S315080052341ED54FF4005363614FF400636361A36999
S3150800524443F40063A361D4F8082812F0060FC2F3E6
S31508005254410300F0CB809F1E7B427B41012103A8BA
S315080052648DF80C508DF80D108DF81030FEF766FD8C
S3150800527430050FD54FF400636361A369012123F454
S315080052840063A361042303A88DF80C508DF80D3030
S31508005294FEF754FD002E0FDA4FF000436361A3694D
S315080052A4012143F40063A361052303A88DF80C5078
S315080052B48DF80D30FEF742FD71070CD567687A073D
S315080052C408D50223012103A88DF80C508DF80D305A
S315080052D4FEF734FD676033071AD508236361A369AB
S315080052E44E4A43F40063A361D4F80838D279C3F369
S315080052F40D231AB9A26922F00802A2610322012128
S3150800530403A88DF80C508DF80D200493FEF716FDAE
S31508005314F70619D5A369DFF800B123F01003A361D2
S3150800532404F5805A276AC7F34342042A07F00F098B
S3150800533466D0062A5CD0022A78D06269D006F1D4EF
S31508005344A36943F01003A361310303D5002128465A
S31508005354FFF7B4FC720303D501212846FFF7AEFC18
S31508005364F30240D54FF480134FF0000848F2040BBB
S315080053746361D4F80838A76C274EC7F38327DFF888
S31508005384A0A0C3F30029013704EB4811D1F800396A
S315080053940AEA13425A451ED1C3F300424A451AD1B2
S315080053A4727F002A72D0013AB6F818C07277728BE7
S315080053B40CEB02000138B0FBF2F01A4A02EAC042CA
S315080053C442EA0C02C1F81029B9F1000F5BD043F088
S315080053D48053C1F8003908F101085FFA88F39F423F
S315080053E406F12006D0D807B0BDE8F08F022335E7CA
S315080053F4DAF800200C4B1A60DAF800205A609CE7A9
S3150800540404EB4919D9F8102B42F0C042C9F8102BFD
S3150800541493E700BF90720008843F00207C3F002079
S315080054240C80FFFF0000F81F743F0020C7F30A171B
S315080054344FEA491847B10BEB080250683A46B8B127
S3150800544404F58051FEF79AFB0BEB08025189B94221
S315080054547FF673AFA0441189D8F8100B091A118185
S31508005464B9F1000F7FF469AF154AA2F8009064E712
S3150800547420465BF8081000F053F95BF808203A4414
S315080054844BF80820E0E743F00053A2E768F07F01F1
S315080054942846C9B2CDE90012FFF7F0FA00990723A6
S315080054A48DF810100121019A03A88DF80C508DF877
S315080054B40D3005928DF81110FEF740FC8BE700BFFE
S315080054C47C3F00200369002BFCDA036C02699BB25B
S315080054D442F00102026144F20922934206D80369A2
S315080054E4DA07FCD40369002BFCDA704703699B00CE
S315080054F4FCD5036923F0005323F0010343F000535A
