S01900006F70656E626C745F73746D3332753537352E73726563E9
S3150800000000000C2029090008CD080008CF080008C0
S31508000010D1080008D3080008D5080008790900089F
S31508000020000000000000000000000000D7080008DB
S31508000030D908000800000000DB080008DD080008F1
S31508000040790900087909000879090008790900087A
S31508000050790900087909000879090008790900086A
S31508000060790900087909000879090008790900085A
S31508000070790900087909000879090008790900084A
S31508000080790900087909000879090008790900083A
S31508000090790900087909000879090008790900082A
S315080000A0790900087909000879090008790900081A
S315080000B00000000079090008790900087909000894
S315080000C079090008790900087909000879090008FA
S315080000D079090008790900087909000879090008EA
S315080000E079090008790900087909000879090008DA
S315080000F079090008790900087909000879090008CA
S3150800010079090008790900087909000879090008B9
S3150800011079090008790900087909000879090008A9
S315080001207909000879090008790900087909000899
S315080001307909000879090008790900087909000889
S315080001407909000879090008790900087909000879
S315080001507909000879090008790900087909000869
S315080001607909000879090008790900087909000859
S315080001707909000879090008790900087909000849
S315080001807909000879090008790900087909000839
S315080001907909000879090008790900087909000829
S315080001A07909000879090008790900087909000819
S315080001B07909000800000000790900087909000893
S315080001C07909000800000000790900087909000883
S315080001D079090008790900087909000879090008E9
S315080001E079090008790900087909000879090008D9
S315080001F000000000000000007909000879090008DD
S3150800020079090008790900087909000879090008B8
S3150800021079090008790900087909000879090008A8
S315080002207909000879090008790900087909000898
S309080002307909000832
S3150800023410B5054C237833B9044B13B10448AFF30E
S3150800024400800123237010BD700000200000000008
S31508000254B86A000808B5034B1BB103490348AFF352
S31508000264008008BD0000000074000020B86A000879
S31508000274034613F8012B002AFBD1181A01387047D4
S3150800028408B503F077F808BD08B503F081F808BD8A
S3150800029408B5054B1B6913F4005F03D100F040F859
S315080002A4012008BD0020FCE70008024208B56420C6
S315080002B400F008F808BD08B500F00AF808BD70474C
S315080002C470477047014B1880704700BF94000020A0
S315080002D408B502F023FF0E4B1B6898420FD30D4B4B
S315080002E41B786BB90B4B01221A700B4B80229A614F
S315080002F402F014FF094B1B880344054A136008BD22
S31508000304044B00221A70044B80229A62F0E700BF5D
S31508000314900000208C000020000402429400002073
S31508000324014B80229A62704700040242094BDA6A3A
S3150800033442F00102DA629A6842F002029A6001E027
S31508000344012B06D0034BDB6B13F00203F8D0012311
S31508000354F6E7704700080246044B1A6822F00402BE
S315080003641A601A6842F001021A60704700040340D2
S3150800037470B58AB0002404940594069407940894E6
S3150800038409941D4BD3F88C2042F00402C3F88C2040
S31508000394D3F88C2002F004020392039AD3F88C2033
S315080003A442F00102C3F88C20D3F88C2002F0010233
S315080003B40292029AD3F88C2042F00202C3F88C20E7
S315080003C4D3F88C3003F002030193019B0B4D80266E
S315080003D4AE624FF40053049304A9094801F0BCFB28
S315080003E404960123059306940794089404A92846B9
S315080003F401F0B2FB0AB070BD000C024600040242CA
S315080004040008024210B590B0202200210DEB02002C
S3150800041406F016FB002402940394049405940694A7
S315080004240794354AD2F8E03C23F00303C2F8E03CCB
S31508000434324BD3F8A42042F48042C3F8A420D3F85C
S31508000444A42002F480420192019AD3F88C2042F047
S315080004540102C3F88C20D3F88C3003F0010300930F
S31508000464009B4FF4C06302930223039304940594F8
S3150800047406940723079302A9214801F06DFB042378
S3150800048408934FF4614309930A940B940C940C2330
S315080004940D930E940F9408A91A4801F041FF1A4ABD
S315080004A402F6080353E8003F23F0604302F6080205
S315080004B442E800310029F2D1134A02F6080353E848
S315080004C4003F23F0606302F6080242E8003100297F
S315080004D4F2D10C4B1A6822F000521A605A6822F4B8
S315080004E490425A609A6822F02A029A601A6842F080
S315080004F401021A6010B010BD00000246000C024644
S3150800050400000242003801400030014072B6FEE79E
S3150800051400B583B0594A136823F00F0343F0040364
S315080005241360564B1B6803F00F03042BF9D1544A86
S31508000534D36843F44033D36000E033B9504BDB68E7
S3150800054413F40043F9D00123F7E74E490A6842F445
S3150800055480720A6001E0012A06D04A4A126812F437
S315080005648062F8D01A46F6E746490B6923F4F8136D
S3150800057443F480130B610B6843F480530B6001E06A
S31508000584012B06D03F4B1B6813F40053F8D01346CF
S31508000594F6E73C4A916A21F4706121F0030141F0BF
S315080005A402019162506B3849014041F009015163D7
S315080005B4916A21F4706121F0030141F0020191620C
S315080005C4506B3249014041F4803141F009015163CD
S315080005D4916A41F400319162916A41F480219162F1
S315080005E4916A21F470419162916A41F00C01916219
S315080005F4116841F08071116001E0012A06D0214A90
S31508000604126812F00072F8D01A46F6E71D4A136A01
S3150800061423F00F0343F008031362D36943F003037B
S31508000624D361184BDB6903F00C030C2BF9D1502367
S31508000634019302E0019B013B0193019B002BF9D135
S31508000644104B1A6A22F00F021A621A6A22F0700212
S315080006541A621A6A22F4E0621A625A6A22F070026C
S315080006645A620B4801F0CAFE002000F0AFF910B92F
S3150800067403B05DF804FBFFF749FF00BF0020024002
S3150800068400080246000C024600FEFF8000FE80FFBA
S315080006940068890900B583B000F0EEF90D4BD3F86C
S315080006A4942042F00402C3F89420D3F8943003F05B
S315080006B404030193019BFFF739FEFFF729FFFFF7B0
S315080006C457FEFFF79FFEFFF747FEFFF7D9FDFFF733
S315080006D4DBFDFCE7000C024608B501F045F80420EA
S315080006E400F034FA08BD000000B589B0002303936E
S315080006F404930593069307930268194B9A4202D00A
S3150800070409B05DF804FB174BD3F8E02022F04072D9
S3150800071442F08072C3F8E020D3F8A02042F40072B5
S31508000724C3F8A020D3F8A02002F400720192019A1B
S31508000734D3F88C2042F00202C3F88C20D3F88C300C
S3150800074403F002030293029B4FF4407303930223BC
S3150800075404930923079303A9034800F06FFECFE720
S3150800076400A40040000C02460004024210B588B0FA
S315080007740023039304930593069307930268264B71
S315080007849A4201D008B010BD244CD4F8E03023F0C6
S315080007944063C4F8E030D4F88C3043F00103C4F85D
S315080007A48C30D4F88C3003F001030093009B4FF48B
S315080007B4C0530393022304930A23079303A91848EF
S315080007C400F03CFED4F88C3043F48043C4F88C30F3
S315080007D4D4F88C3003F480430193019BD4F8943005
S315080007E413F0040F14D1D4F8943043F00403C4F876
S315080007F49430D4F8943003F004030293029B00F077
S31508000804B3FFD4F8943023F00403C4F89430B9E75A
S3150800081400F0AAFFB6E700BF00000442000C024637
S315080008240000024208B50268084B9A4200D008BD87
S31508000834074AD2F88C3023F48043C2F88C304FF43C
S31508000844C051044800F00EFFF1E700BF000004425F
S31508000854000C02460000024210B501F0C1FB164C1A
S315080008648023A362154801F0E1F8204601F0DEF87A
S31508000874134801F0DBF8134BD3F8A42022F4804282
S31508000884C3F8A420D3F88C2022F00402C3F88C20E1
S31508000894D3F88C2022F00202C3F88C20D3F88C20DB
S315080008A422F00102C3F88C20D3F8942022F0040223
S315080008B4C3F8942010BD00BF000402420008024297
S315080008C400000242000C0246FEE7FEE7FEE7FEE7EA
S315080008D4FEE770477047704708B500F0F7F808BD9B
S315080008E40E48D0F8883043F47003C0F888300C4BAF
S315080008F401221A600022DA611A625A62196821F022
S31508000904A85121F4102119609A62196821F48021EA
S3150800091419601A654FF000638360704700ED00E0C4
S31508000924000C0246DFF834D0002103E00C4B5B5878
S31508000934435004310B480C4B42189A42F6D30B4ADF
S3150800094402E0002342F8043B094B9A42F9D3FFF725
S31508000954C7FF06F07DF8FFF79DFEFEE700000C20B2
S315080009644C6F0008000000206D0000207000002075
S315080009747C130020FEE7000010B50E4B0E4A5A679A
S315080009840E4A9A6700245C679C670D4ADA67DC6737
S315080009940C4A1A661C660C4A5A6640F211129A6682
S315080009A45C669C6640F26162DA66DC66FFF754FFB1
S315080009B4204610BD000C02463F407E0222028000FB
S315080009C4007867000F100700FF55BF1938B5274B85
S315080009D41A78002A47D005464FF0E0231C6914F01C
S315080009E404040DD0224B1C684FF47A71B1FBF2F261
S315080009F4B4FBF2F4204600F0CBF850B3012033E000
S31508000A0400F014F901280ED0022817D00028F1D1D5
S31508000A14174B1C68154A11784FF4FA52B2FBF1F2D7
S31508000A24B4FBF2F4E6E7114B1B784FF47A72B2FB87
S31508000A34F3F24FF4FA43B3FBF2F4DBE70B4B1B7800
S31508000A444FF47A72B2FBF3F24FF40043B3FBF2F4B9
S31508000A54D0E7002229464FF0FF3000F089F8054B0D
S31508000A641D60002000E0012038BD00BF04000020FE
S31508000A74000000200800002010B5104A136843F44B
S31508000A8480731360032000F061F800F075FE0C4BC8
S31508000A941B6A03F00F030B4AD35CD8400A4B186051
S31508000AA4042000F085F80020FFF790FF10B1012418
S31508000AB4204610BD0446FFF70FFEF9E70020024062
S31508000AC4000C0246186B000800000020034B1B7834
S31508000AD4034A11680B441360704700BF04000020E2
S31508000AE498000020002808DB0901C9B200F160401B
S31508000AF400F5614080F80013704700F00F00090103
S31508000B04C9B2014B1954704714ED00E000B500F062
S31508000B140700C0F1070CBCF1040F28BF4FF0040C02
S31508000B24031D062B0FD9C31E4FF0FF3E0EFA0CF019
S31508000B3421EA000199400EFA03FE22EA0E0241EA6E
S31508000B4402005DF804FB0023EEE70000074AD368B9
S31508000B5423F4E0631B041B0C000200F4E060034367
S31508000B6443F0BF6343F40033D360704700ED00E0FD
S31508000B7410B50446054BD868C0F30220FFF7C6FF34
S31508000B8401462046FFF7AEFF10BD00BF00ED00E0AA
S31508000B940138B0F1807F09D24FF0E0235861002074
S31508000BA498611A6942F003021A6170470120704776
S31508000BB4042838D8DFE800F00A18283703004FF06D
S31508000BC4E022136943F00403136170474FF0E022EF
S31508000BD4136923F004031361134AD2F8E03023F4AB
S31508000BE44003C2F8E03070474FF0E022136923F05F
S31508000BF4040313610C4AD2F8E03023F4400343F4A7
S31508000C048003C2F8E03070474FF0E022136923F0FE
S31508000C1404031361044AD2F8E03023F4400343F48E
S31508000C240003C2F8E0307047000C02464FF0E02398
S31508000C34186910F004000CD1084BD3F8E03003F41B
S31508000C444003B3F5800F06D0B3F5000F04D1022094
S31508000C547047042070470120704700BF000C024605
S31508000C6410B4154B03640168D1F8802022F4F812F5
S31508000C74446B42EA0442C1F88020104A426401687F
S31508000C84D1F8802022F07062846B42EA0462C1F8CB
S31508000C9480200B4A8264D832C264D832026518327C
S31508000CA4426502E0002243F8042B064A9342F9D926
S31508000CB45DF8044B704700BF00AC004070AC0040C0
S31508000CC4B0AC00404FAF004070B54C68ECB90D6944
S31508000CD48C6825430C6845EA8445CC690E6A44EA5F
S31508000CE406648E6934434E693443CE6844EA06443E
S31508000CF4406D03EBC30300EBC30E40F83350CEF844
S31508000D0404400EF1080E002019E00C698D6825438D
S31508000D140C68254345F08045DFE702EB000C9CF898
S31508000D2403409CF802301B0443EA04639CF8014020
S31508000D3443EA0423145C23434EF8043B0430CB688B
S31508000D44024CE35C8342E8D870BD00BF286B0008F8
S31508000D54002800F0DC8038B5044690F85C30D3B13E
S31508000D642268936923F01003936102F0DFF90546BC
S31508000D7423689A6912F0080F12D002F0D7F9401BBB
S31508000D840A28F5D9236E43F001032366032384F85E
S31508000D945C30012038BD80F85D30FFF7A5FCDFE73D
S31508000DA49A6942F001029A6102F0C0F9054623687D
S31508000DB49A6912F0010F0DD102F0B8F9401B0A28FE
S31508000DC4F5D9236E43F001032366032384F85C30C4
S31508000DD40120DFE79A6942F002029A6162684D4B84
S31508000DE41A60237C012B3FD02268936943F04003A1
S31508000DF49361637C012B3DD02268936923F4804375
S31508000E049361A37C012B3BD02268936943F48053F6
S31508000E1493612268936923F44073A1680B43936131
S31508000E242268936923F0A40393612268136923F063
S31508000E3410031361E368012B28D0002B2BD0022B57
S31508000E444ED02268936943F080039361226813693C
S31508000E5443F010031361E368032B1CD122689369DA
S31508000E6443F02003936116E02268936923F0400354
S31508000E749361BEE72268936943F480439361C0E7AC
S31508000E842268936923F480539361C2E722689369BD
S31508000E9443F004039361A3695A1EE369013B1B02E9
S31508000EA443EA4263226A013A13436269013A2168B2
S31508000EB443EA0243CB61A368B3F5407F16D02268A0
S31508000EC4D2F8C030E16B0B43C2F8C0302046FFF7B6
S31508000ED4C7FE0020A0652066012384F85C3059E724
S31508000EE42268936943F020039361D4E7A36A013B1C
S31508000EF4E26A013A43EA0223226B013A43EA0213FD
S31508000F04626A013A216843EA0243CB60D7E70120C3
S31508000F14704700BF00A5004090F85C30013BDBB287
S31508000F24012B05D9036E43F00203036601207047BB
S31508000F340B68A3B110B4CA680B6943EA42724B69D9
S31508000F448C6843EA8473406C496800EBC10C40F82A
S31508000F543120CCF8043000205DF8044B70478A68C9
S31508000F64CB68DB0643EA82730A6943EA02434A69A1
S31508000F741343026C496842F821300020704790F800
S31508000F845CC05FFA8CFCBCF1010F05D0036E43F01C
S31508000F94040303660120704710B40468D4F880007B
S31508000FA420F03F00920042EA011242EA4303019A02
S31508000FB41A430243C4F8802000205DF8044B7047A6
S31508000FC490F85C30DBB2012B05D0036E43F00403C2
S31508000FD4036601207047022380F85C30026893692F
S31508000FE423F001039361002303661846704738B556
S31508000FF4044690F85C30DBB2022B1BD10368D3F8A5
S31508001004C40010F4001F05D0236E43F4007323664E
S31508001014012014E0D3F8C450C5F301452B462046F5
S31508001024FFF752FE22680123AB40C2F8CC30A36511
S31508001034002004E0036E43F008030366012038BD6C
S31508001044806D704770B590F85C40E4B2022C40F0AD
S31508001054958040290BD00468D4F8985015F00F0FE2
S3150800106427D1036E43F48073036601208BE004687A
S31508001074D4F8905015F00F0F05D1036E43F480731E
S31508001084036601207FE0D4F8906016F0807605D0D8
S31508001094D4F8806016F4007600D00126D4F890407F
S315080010A4C4F301242644846C06EBC60504EBC50E7A
S315080010B414E0D4F8986016F0807605D0D4F88060E9
S315080010C416F4807600D00126D4F89840C4F3012497
S315080010D42644C46C06EBC60504EBC50EDEF80040D0
S315080010E404F08044546064BBDEF80040C4F38A44C8
S315080010F41460DEF8004004F000549460DEF8004002
S3150800110404F000441461BEF80440D461BEF80640F5
S3150800111404F00F04D460DEF8044004F48014546127
S31508001124DEF8044004F4001494619EF8074004F0C1
S315080011347F041462DEF80440E40F54624FF0000C96
S315080011440CE0DEF8004024F060441460D1E70EEBAE
S315080011540C04247A03F80C400CF1010CD4680A4DEB
S315080011642C5D6445F3D8402904D00368C3F89C6011
S31508001174002008E00368C3F89460F9E7036E43F0B7
S3150800118408030366012070BD286B00080368D3F8BA
S31508001194C800084000D001207047402905D00368DC
S315080011A4D3F8980000F00F0070470368D3F890004E
S315080011B400F00F0070470000094A936A43F00103E0
S315080011C49362EFF3108C72B6042351F8042B40F89B
S315080011D4042B013B13F0FF03F7D18CF310887047F7
S315080011E4002002400A4A936A43F4804343F0010309
S315080011F49362EFF3108C72B6202351F8042B40F84F
S31508001204042B013B13F0FF03F7D18CF310887047C6
S3150800121400200240094B9B6A002B01DB0020704723
S31508001224064B074A9A6002F188329A609B6A002B39
S3150800123401DB002070470120704700BF00200240F0
S3150800124423016745054B9A6A42F000429A629B6AF3
S31508001254002B01DB01207047002070470020024064
S3150800126438B5044601F062FF0546164B1B6A13F4AB
S31508001274403F0BD0B4F1FF3FF7D001F057FF401BB6
S31508001284A0421BD2002CF0D1032016E00D4B1B6A9A
S3150800129442F2FA02134009D10A4B1B6A13F0010FF2
S315080012A40ED0084B01221A62002006E006494A6855
S315080012B41A434A60034A1362012038BD0320FCE737
S315080012C40020FAE7002002400C000020174B1B7888
S315080012D4012B29D070B504460D461646134B012238
S315080012E41A7000225A604FF47A70FFF7B9FF90B962
S315080012F40E4B9C6024F00044012C10D0314628463D
S31508001304FFF770FF4FF47A70FFF7AAFF084A936A4B
S3150800131423EA04039362054B00221A7070BD314612
S315080013242846FFF749FFEDE7022070470C00002026
S315080013340020024010F0010F06D0084A936A43F4CD
S31508001344803343F00403936210F0020F04D0034A77
S31508001354936A43F4C0339362704700BF0020024087
S3150800136411F0010F12D00C4A936A23F400639362B6
S31508001374094A936A23F4813323F4FD7343EAC000CC
S3150800138440F4803040F0020090627047024A936A43
S3150800139443F400639362EBE700200240254B1B7875
S315080013A4012B42D070B504460E46224B01221A7010
S315080013B400225A604FF47A70FFF752FF844678BBCE
S315080013C423681C4A936023F0004348F204029342BC
S315080013D414D04FF0FF333360A568A368E26813445A
S315080013E4AB4215D961682846FFF7BAFF4FF47A70FD
S315080013F4FFF736FF844650B90135EEE76068FFF714
S3150800140499FF4FF47A70FFF72BFF844600E03560A6
S3150800141409498B6A226822F0004223EA02038B6296
S31508001424044B00221A70604670BD4FF0020C6046E9
S31508001434704700BF0C00002000200240F0B50446A7
S315080014440023DAE0056825EA0C054C6804F0010473
S315080014549C402C4304607F4D55F8334005EBC30587
S315080014646D68EF08083754F8276005F0070C4FEA4B
S315080014748C0C4FF00F0E0EFA0CFE26EA0E0E0B26F7
S3150800148406FA0CF646EA0E0644F8276027684FEA79
S31508001494450C032606FA0CF627EA0607022606FA78
S315080014A40CF63E43266021E0DE08083650F826503E
S315080014B403F00707BF004FF00F0C0CFA07FC25EAE8
S315080014C40C0C0D6905F00F05BD4045EA0C0540F8FE
S315080014D4265026685F000325BD4026EA05064D68A2
S315080014E405F00305BD40354325601D464E6806F1E3
S315080014F4FF3CBCF1010F03D9112E01D0122E1CD1C9
S31508001504A6684FEA450E4FF0030C0CFA0EFC26EAC1
S315080015140C0CCE6806FA0EF646EA0C06A660666851
S315080015244FF0010C0CFA05FC26EA0C0C4E68C6F3BF
S315080015340016AE4046EA0C0666604E68032E00F0B6
S315080015448280E6686D004FF0030C0CFA05FC26EA67
S315080015540C0C8E68AE4046EA0C06E6604D6815F03B
S31508001564805F49D09E083C4F183657F8265003F03A
S31508001574030C4FEACC0C4FF00F0E0EFA0CFE25EABC
S315080015840E0E364D05EA902505FA0CF545EA0E05C4
S3150800159447F826503E686FEA020C26EA02074D68A9
S315080015A415F4801F01D042EA06072B4E3760766889
S315080015B40CEA06074D6815F4001F01D042EA06072F
S315080015C4254E7760D6F884600CEA06074D6815F44C
S315080015D4003F01D042EA06071F4EC6F88470D6F8C3
S315080015E480600CEA06054F6817F4803F01D042EA8A
S315080015F40605194AC2F8805001330A6832FA03F517
S3150800160426D04FF0010C0CFA03FC1CEA0202F3D0B4
S31508001614134DA8423FF416AF4D68022D3FF444AF6C
S31508001624122D3FF441AF26684FEA430C032707FA05
S315080016340CF726EA070605F0030505FA0CF5354303
S3150800164425601D4652E78E68012E7FF47AAF85E73A
S31508001654F0BD00BF386B0008002002467F7F2F00CC
S3150800166400000246F0B50446002234E03A4B53F82B
S31508001674324003EBC2035D68384F3B680126AE402F
S3150800168423EA06033B6026686F000323BB401E4318
S3150800169426604FEAD50C0CF1080C54F82C6005F0BA
S315080016A40707BF004FF00F0E0EFA07FE26EA0E06CE
S315080016B444F82C60A66826EA0306A66066684FF016
S315080016C4010C0CFA05F526EA05056560E56825EAC0
S315080016D40303E360013231FA02F33BD0012393405A
S315080016E40B40F7D01D4DA842C0D04FEA920E0EF11A
S315080016F418061B4D55F8265002F00306F6000F2768
S31508001704B74007EA050C174D05EA9025B540654527
S3150800171401D01546B7E7124DD5F8806026EA0306C8
S31508001724C5F88060D5F8846026EA0306C5F884609F
S315080017342E6826EA03062E606E6826EA03036B60A3
S315080017440EF1180E55F82E3023EA070345F82E3005
S31508001754154698E7F0BD00BF386B0008000002463E
S31508001764002002467F7F2F00024A136943F0805304
S3150800177413617047000802465B4AD369926A13F0FC
S315080017840C0311D002F003020C2B0BD0564AD26973
S3150800179402F00C02042A1FD0082B00F0A2800020B5
S315080017A4014612E0012AF1D14F4A926812F4000F59
S315080017B40ED14D4AD2F8F420C2F303324B4951F8FC
S315080017C42210002B00F08B8000200C2B07D07047CA
S315080017D4454A9268120FF1E745480021F5E700B536
S315080017E44148836A03F0030C836AC3F30323013372
S315080017F407EE103A836AC3F3001E836BC3F3CC0364
S315080018040EFB03F307EE903AF8EE677ABCF1020F83
S315080018141FD0BCF1030F47D006EE901AF8EE666A9D
S31508001824B8EE477A86EE876A2F4B5B6BC3F30803D9
S3150800183407EE103AB8EE477ADFED2E6A67EEA67A17
S3150800184477EE277AB7EE007A77EE877A66EE276A16
S3150800185419E0B8EE477A9FED286AC6EE076A224B66
S315080018645B6BC3F3080307EE103AB8EE477A9FEDAD
S31508001874216A67EE867A77EE277AB7EE007A77EEEC
S31508001884877A66EEA76A184B5B6BC3F30663013364
S3150800189407EE903AB8EE677AC6EE877AFCEEE77AF0
S315080018A417EE900A5DF804FBB8EE477A9FED126AC4
S315080018B4C6EE076A0C4B5B6BC3F3080307EE103AD4
S315080018C4B8EE477A9FED0B6A67EE867A77EE277A43
S315080018D4B7EE007A77EE877A66EEA76AD3E7084604
S315080018E470470348704700BF000C0246D06A0008D8
S315080018F40024F400000000390024744B10B4046872
S3150800190491FAA1F3A3B1B3FA83F35B004FF0030C86
S315080019140CFA03F324EA030391FAA1F151B1B1FADB
S3150800192481F149008A40134303605DF8044B70470C
S315080019342023EAE72021F4E710B4846891FAA1F396
S31508001944A3B1B3FA83F35B004FF0030C0CFA03F369
S3150800195424EA030391FAA1F151B1B1FA81F14900DC
S315080019648A40134383605DF8044B70472023EAE7F3
S315080019742021F4E710B4C46891FAA1F3A3B1B3FA29
S3150800198483F35B004FF0030C0CFA03F324EA030316
S3150800199491FAA1F151B1B1FA81F149008A40134390
S315080019A4C3605DF8044B70472023EAE72021F4E777
S315080019B410B4046A91FAA1F3A3B1B3FA83F39B00B2
S315080019C44FF00F0C0CFA03F324EA030391FAA1F17E
S315080019D451B1B1FA81F189008A40134303625DF873
S315080019E4044B70472023EAE72021F4E710B4446A3D
S315080019F4090A91FAA1F3A3B1B3FA83F39B004FF052
S31508001A040F0C0CFA03F324EA030491FAA1F151B179
S31508001A14B1FA81F189008A40144344625DF8044BA3
S31508001A2470472023EAE72021F4E70000404B984258
S31508001A3419D0404B984221D03F4B984229D03F4B6E
S31508001A44984232D03E4B98423BD03E4B984243D0C4
S31508001A543D4B98424BD03D4B984253D03C4B984211
S31508001A645BD0012070473B4B5A6E42F001025A661E
S31508001A745A6E22F001025A6600207047354B5A6E98
S31508001A8442F002025A665A6E22F002025A66002090
S31508001A94704703F104235A6E42F004025A665A6EDA
S31508001AA422F004025A660020704703F180635A6ED6
S31508001AB442F008025A665A6E22F008025A66002054
S31508001AC47047244B5A6E42F010025A665A6E22F038
S31508001AD410025A66002070471E4B5A6E42F02002C6
S31508001AE45A665A6E22F020025A6600207047194B2D
S31508001AF45A6E42F040025A665A6E22F040025A66FC
S31508001B0400207047134B5A6E42F080025A665A6E8A
S31508001B1422F080025A66002070470E4B5A6E42F431
S31508001B2480725A665A6E22F480725A66002070478A
S31508001B34000002420004024200080242000C02426B
S31508001B44001002420014024200180242001C02421B
S31508001B5400200242000C0246F8B507460E460D68F8
S31508001B6495FAA5F515B1B5FA85F51BE0202519E012
S31508001B74B26821463846FFF7DFFE3268F1687B68AB
S31508001B8423EA020301FB02F213437B6016E072693F
S31508001B9421463846FFF72AFF726821463846FFF77A
S31508001BA4ADFE0135346834FA05F21DD00122AA4087
S31508001BB41440F6D07368013B012BD9D93269214602
S31508001BC43846FFF7D7FE7368022BE5D194FAA4F3D7
S31508001BD4002BDCD0B3FA83F3072BD8D872692146D5
S31508001BE43846FFF7E5FED7E70020F8BD020E064B98
S31508001BF4D358C0F3044103228A401340CB406FF301
S31508001C040F001843704700BFE00C0246034B1B6ADB
S31508001C1403F00F03024AD35CD8407047000C02460F
S31508001C24186B0008034B1B6AC3F30213024AD35CFE
S31508001C34D8407047000C0246106B0008034B1B6A19
S31508001C44C3F30223024AD35CD8407047000C024609
S31508001C54106B0008354B9B6A03F00303012B18D05D
S31508001C64002B3CD0023B012B39D831482F4A936AC2
S31508001C74C3F303230133B0FBF3F0536BC3F3080335
S31508001C8403FB0000536BC3F306630133B0FBF3F0A5
S31508001C947047264B9B6813F400030BD0234B9B68B1
S31508001CA413F4000314D1214AD2F8F420214A52F835
S31508001CB42300DBE71D4A926812F4000F0CD11B4B74
S31508001CC4D3F8F430C3F303331A4A52F82300CDE7A2
S31508001CD4164B9B681B0FE9E7144A9268F4E7134B03
S31508001CE49B6813F400030DD1104A926812F4000F8E
S31508001CF418D10E4BD3F8F430C3F303330D4A52F814
S31508001D042300B3E7094B9B6813F4000306D1074A7B
S31508001D14D2F8F420074A52F82300A7E7034B9B6836
S31508001D241B0FF7E7014A9268E8E700BF000C024672
S31508001D340024F400D06A000808B5304BDB6903F0C8
S31508001D440C030C2B31D8DFE803F00730303056305B
S31508001D543030563030302D00284B9B6813F400037E
S31508001D640BD0264B9B6813F4000314D1234AD2F8EC
S31508001D74F420234A52F8230016E0204A926812F403
S31508001D84000F0CD11D4BD3F8F430C3F303331C4AAC
S31508001D9452F8230008E0194B9B681B0FE9E7174A1A
S31508001DA49268F4E7FFF756FF08BD144B9B6813F4D3
S31508001DB400030DD1114A926812F4000F18D10F4B83
S31508001DC4D3F8F430C3F303330D4A52F82300EBE790
S31508001DD40A4B9B6813F4000306D1084AD2F8F42088
S31508001DE4074A52F82300DFE7044B9B681B0FF7E703
S31508001DF4024A9268E8E70348D6E700BF000C0246A1
S31508001E04D06A00080024F400354B9B6A03F00303E8
S31508001E14012B18D0002B3CD0023B012B39D8314872
S31508001E242F4A936AC3F303230133B0FBF3F0536BCE
S31508001E34C3F3080303FB0000536BC3F306430133E0
S31508001E44B0FBF3F07047264B9B6813F400030BD0E2
S31508001E54234B9B6813F4000314D1214AD2F8F420C7
S31508001E64214A52F82300DBE71D4A926812F4000F50
S31508001E740CD11B4BD3F8F430C3F303331A4A52F884
S31508001E842300CDE7164B9B681B0FE9E7144A9268B3
S31508001E94F4E7134B9B6813F400030DD1104A9268B8
S31508001EA412F4000F18D10E4BD3F8F430C3F30333EE
S31508001EB40D4A52F82300B3E7094B9B6813F4000351
S31508001EC406D1074AD2F8F420074A52F82300A7E7AE
S31508001ED4034B9B681B0FF7E7014A9268E8E700BFC4
S31508001EE4000C02460024F400D06A0008394BDB6A69
S31508001EF403F00303012B1DD0002B41D0023B012B19
S31508001F043ED8354A3349CB6BC3F308030133C86B50
S31508001F14C0F346200130072B58D9012858D9C96A75
S31508001F24C1F303210131B2FBF1F203FB02F2B2FB66
S31508001F34F0F07047274B9B6813F400030BD0254B2E
S31508001F449B6813F4000314D1224AD2F8F420234AD6
S31508001F5452F82320D6E71F4A926812F4000F0CD1D0
S31508001F641C4BD3F8F430C3F303331C4A52F823202A
S31508001F74C8E7184B9B681B0FE9E7164A9268F4E70B
S31508001F84144B9B6813F400030DD1124A926812F499
S31508001F94000F18D10F4BD3F8F430C3F303330F4AA9
S31508001FA452F82320AEE70B4B9B6813F4000306D1C3
S31508001FB4084AD2F8F420094A52F82320A2E7054B26
S31508001FC49B681B0FF7E7034A9268E8E70020704707
S31508001FD400207047000C02460024F400D06A00086A
S31508001FE4204A136843F00103136000E033B91D4B1C
S31508001FF41B6813F00403F9D00123F7E7194B9A6811
S3150800200422F0704242F080429A60DA6822F4F8427A
S31508002014DA601A6922F4F81242F480021A6100227C
S31508002024DA611A625A6219680F4A0A401A600D4B35
S315080020341B6813F0285FFAD10A4B0C4A5A63DA6311
S315080020445A641A6822F480221A600020186540F639
S31508002054FF529A65D3F8F42042F40002C3F8F42038
S31508002064704700BF000C0246FFFCFEEA800201012D
S3150800207408B5032807D03C4B984226D03B4B9842D8
S3150800208447D0002008BDFFF7B1FD032865D8DFE86F
S3150800209400F01502050CFFF74FFEF3E7344B1868FA
S315080020A410F48060EED03348ECE7314BD3F8F000F7
S315080020B410F00200E6D04FF40040E3E7FFF73CFED9
S315080020C4FFF7A4FDFFF7BAFDDCE7FFF78FFDA0F5E0
S315080020D40030032843D8DFE800F01502050CFFF7A3
S315080020E42BFECFE7224B186810F48060CAD021482B
S315080020F4C8E71F4BD3F8F00010F00200C2D04FF423
S315080021040040BFE7FFF718FEFFF780FDFFF78AFDDB
S31508002114B8E7FFF76BFDA0F58020032821D8DFE890
S3150800212400F01502050CFFF707FEABE7104B18681D
S3150800213410F48060A6D00F48A4E70D4BD3F8F0003E
S3150800214410F002009ED04FF400409BE7FFF7F4FD21
S31508002154FFF75CFDFFF766FD94E7002092E7002091
S3150800216490E700208EE700BF030002000300040086
S31508002174000C02460024F40008B5C02804D0B0F5C3
S31508002184407F32D0002008BD314BD3F8E0300340FD
S3150800219443EA00432F4A934219D00AD8B3F5400FAD
S315080021A41CD0403A934202D1FFF7C6FDEBE7002064
S315080021B4E9E7B3F1C01F08D1254BD3F8F00010F0B6
S315080021C40200E0D04FF40040DDE70020DBE7204BB7
S315080021D4186810F48060D6D01F48D4E7FFF7ACFD22
S315080021E4FFF714FDFFF71EFDCDE7194BD3F8E030D2
S315080021F4034043EA0043194A93421AD00BD8B3F171
S31508002204407F1DD0A2F58072934202D1FFF794FD58
S31508002214B9E70020B7E7B3F1032F08D10C4BD3F87D
S31508002224F00010F00200AED04FF40040ABE70020F7
S31508002234A9E7074B186810F48060A4D00648A2E7FB
S31508002244FFF77AFDFFF7E2FCFFF7ECFC9BE700BF1C
S31508002254000C02468000C0000024F40000020003BB
S3150800226408B5164BD3F8E0301840B0F1807F0AD091
S31508002274B0F1007F13D0F0B9104B186810F4003091
S315080022841AD00F4818E00D4B186810F0007013D0D8
S31508002294986A10F400300FD0FFF7B6FD0CE0074B30
S315080022A4186810F0006007D0D86A10F4803003D09C
S315080022B4FFF71CFE00E0002008BD00BF000C024624
S315080022C40024F4000B2A28D810B4019C7CB1B3F579
S315080022D4004F0FD0D2B2114B53F82230B1FBF3F1B1
S315080022E4019B01EB5301B1FBF3F189B2C1605DF8BF
S315080022F4044B7047D2B2094B53F82220B1FBF2F2D1
S31508002304630803EB4203B3FBF4F34FF6F0721A4087
S31508002314C3F342031343C360E9E77047B86B000885
S31508002324036813F0010F57D130B583B004460D4640
S3150800233403682A4A1A408B6809690B4369690B437F
S31508002344E9690B431A430260EB68426822F4405277
S3150800235413434360AB69826822F440721343836073
S315080023641F4B984214D01F4B984219D01E4B9842C3
S315080023741AD01E4B98421BD01D4B98421CD00120E4
S31508002384E26A22F00F022B881343E36203B030BDDE
S315080023940320FFF76DFEE8B16B6893B90120EFE7F8
S315080023A41448FFF765FEF6E71348FFF761FEF2E700
S315080023B4C020FFF7E1FEEEE74FF44070FFF7DCFEBE
S315080023C4E9E70093EB692A6801462046FFF77AFF96
S315080023D40020D5E70120D3E701207047F369FFEF12
S315080023E4003801400044004000480040004C0040CA
S315080023F4005000400300020003000400014B18606B
S31508002404704700BF0000002030B484B02D4B1D78FF
S31508002414002D53D12C4B1B6813F0010323D02A4AF1
S31508002424136803F00403116821F001011160012007
S31508002434264AD2F800170191D2F804170291D2F865
S315080024440827039248B1204A116821F004010B4376
S315080024541360136843F0010313601A4B01221A70C0
S315080024642846294617E00020E2E73732D2B2184C4C
S3150800247462540131C9B20133DBB2012B09D803F125
S3150800248410026A4412F8102C092AEED83032D2B255
S31508002494EDE70130C0B20B280DD800F110036B44E8
S315080024A413F80C3C1A098DF8002003F00F038DF875
S315080024B401302B46E1E7064B00225A5404B030BCDF
S315080024C4704700BF9C000020000403400000FA0B7C
S315080024D43800002000487047046E0008004870471A
S315080024E4E46D000800487047C06D0008012918D13A
S315080024F408B594461378C3F34113022B01D0002080
S3150800250408BD5378012B01D00020F9E79388072BDF
S3150800251401D00020F4E79E23034A614602F0E8FE50
S31508002524EEE70120704700BF206D000810B5044689
S31508002534FFF76AFF6CB9134B1B681A88124B5A804B
S315080025440120431C5B009BB20F4843F4407303808D
S3150800255410BD032C14D80B4B53F824402046FDF722
S3150800256487FEC0B21F2800D91F20002305E05A1C85
S31508002574E15C054B23F81210D3B29842F7D8E0E78A
S315080025840020E5E728000020A000002072B6704766
S3150800259462B670472DE9F04F83B0A0F51C53103B83
S315080025A4404CA34274D8002976D0002A76D00D89E7
S315080025B48B89019305EB030C1FFA8CFC0CF1010CB7
S315080025C41FFA8CFC4E89B1F80E8006EB080E1FFA2A
S315080025D48EFE0EF1010E1FFA8EFE8B8804E0012092
S315080025E4D08056E001339BB2CC889C424ED30C680B
S315080025F400FB0CF94C4553D3B4FBF3F903FB194719
S31508002604002FEFD14C46B9FBF0F900FB1949B9F193
S31508002614000FE7D1B4FBF0F41FFA84F9CC45E1D8EE
S31508002624CE45DFD34C464FEA490A0AF1090ADFF8D0
S3150800263478B0ABFB0AAB4FEADB0AA9EBDB091FFA56
S3150800264489F909F1FF391FFA89F94D45CAD84E4562
S31508002654C8D3019F5745C5D8D045C3D34FF0640B9B
S3150800266409FB0BBBBBFBF4F4E4B2413CE4B20F2C0C
S31508002674B8D81380A2F80290A2F804A04FEA5A0325
S31508002684D380BAF1010FAAD9012002E0002000E0A4
S31508002694002003B0BDE8F08F0020FAE70020F8E731
S315080026A40020F6E7F0EA7900CDCCCCCC70B58EB034
S315080026B40023029303933048304B0360FEF714F863
S315080026C44FF04070FFF7CCFD04900123ADF81430A9
S315080026D44FF40072ADF81620ADF818304FF4807236
S315080026E4ADF81A20ADF81C308023ADF81E3002AAC6
S315080026F404A92348FFF74EFF002836D01E4C0026AF
S315080027046660A660E660012525746574A674BDF83E
S3150800271408306361BDF80A30E361BDF80C30236202
S31508002724BDF80E30A3616562A562E562256365633B
S31508002734A663E6632046FEF70BFB089609960A95F8
S315080027440B9540F267630C930D9308A92046FEF790
S31508002754E3FB00952B46022211462046FEF70FFCA2
S315080027642046FEF72DFC0EB070BD40F23511054823
S3150800277400F0B2FDC2E700BFE000002000A400405C
S3150800278420A107001C6C000830B58BB005460C4622
S3150800279408291BD840F2E17301930023029303939B
S315080027A40793059308935222099206930494134CAB
S315080027B42A4601A92046FEF71AFC05462046FEF7D6
S315080027C43FFC044605B938B90BB030BD40F2AF1129
S315080027D40B4800F081FDDDE700F0A0FC00F13205AE
S315080027E421460648FEF7D2FC0028EDD000F0BEFECE
S315080027F400F094FCA842F3D9E6E700BFE000002005
S315080028041C6C000830B58BB004460D4640211348AD
S31508002814FEF7C3FC10B900200BB030BD23466A4648
S3150800282440210E48FEF70EFCA8B9009A40F26763E9
S315080028349A42F1D1019B002BEED19DF80C302B70F6
S31508002844082B01D80120E7E740F22E21044800F0BE
S3150800285443FD0120E0E70020DEE700BFE00000209A
S315080028641C6C000808B5FFF791FE08BD10B500F00A
S31508002874D5FA00B910BDFDF70BFD0028FAD000F013
S31508002884B7FDFEF779F800F003FC00F0CBFA20F068
S31508002894604020F07F00044B986000F0C3FA446857
S315080028A4FFF776FEA047E5E700ED00E070B50D46B4
S315080028B4044606E015F8013B04F8013B00F056FE11
S315080028C43246531E9EB2002AF4D170BD38B5054669
S315080028D4002401E00134E4B21A2C0ED800F046FEB6
S315080028E4074B53F83430AB42F4D8054A02EBC4021A
S315080028F452681344AB42EDD900E0FF24204638BDA4
S31508002904186E000808B5C1F3090363B903688B4256
S3150800291401D1012008E040F8041B4FF48062FFF758
S31508002924C5FF012000E0002008BDF8B50746006889
S31508002934FFF7CCFFFF2802D100242046F8BDFEF796
S3150800294469FC002400E001343F2C22D83D6805EBDD
S31508002954041507EB0416043600F008FE3246294629
S315080029640120FEF7B3FC0028EDD00024FEF76AFC2C
S31508002974002CE2D000F0FAFD0023FF2BDDD83968DD
S3150800298407EB8302526851F82310914203D10133AD
S31508002994F3E70124EAE70024CFE7000038B50D463B
S315080029A40D4B984211D004460C4B994207D10A4C58
S315080029B429462046FFF7A6FF58B1204638BDFFF73B
S315080029C4B4FF20B1002CF3D1F7E7054CF0E7002457
S315080029D4F3E70024F1E700BF440100200080000863
S315080029E4480500202DE9F04106460C4617461D46C3
S315080029F421F47F7828F003080368B3F1FF3F07D072
S31508002A043368434509D13368E41A3444043413E07B
S31508002A144146FFF777FF08B3F2E741463046FFF72A
S31508002A24BDFF06460028EED1002017E017F8013B43
S31508002A3404F8013B013D10D000F098FD311D611AE0
S31508002A44B1F5806FF2D3316801F580613046FFF73E
S31508002A54A5FF064620B1041DE8E70120BDE8F0817C
S31508002A640020FBE770B5134B53F8305003EBC00353
S31508002A745E6815F0030F02D116F0030F04D040F276
S31508002A843F310D4800F028FC002405E02B68B3F11B
S31508002A94FF3F0CD104350134B4EB960F05D214F07C
S31508002AA4FF0FF3D100F062FDF0E7012070BD0020AE
S31508002AB4FCE700BF186E00085C6C000810B50446F5
S31508002AC4B0F1006F0BD304F17844194BB3F8A03076
S31508002AD44FF6FF72934208D0ABB19B0207E04FF45E
S31508002AE47A71144800F0F8FBEDE74FF400139C42A2
S31508002AF40CD20F4BB3F8A0304FF6FF7293420BD0AB
S31508002B0483B15B020AE04FF40013F0E740F2E931BF
S31508002B14084800F0E1FBECE74FF480139C4204D22A
S31508002B24012010BD4FF48013F8E70220F9E700BF2F
S31508002B340007FA0B5C6C000838B50446B0F1006F60
S31508002B440BD304F178451C4BB3F8A0304FF6FF724B
S31508002B54934208D0E3B19B0207E040F202411748CA
S31508002B6400F0BAFBEDE74FF400139D4213D220465A
S31508002B74FFF7A4FF012814D00F4BB3F8A0304FF683
S31508002B84FF7293420FD09BB15B0203F100630CE022
S31508002B944FF40013E9E740F20341084800F09CFBB0
S31508002BA4E5E7680B03E04FF00163E01A400B38BD14
S31508002BB44FF00163F9E700BF0007FA0B5C6C0008E5
S31508002BC42DE9F04387B00023019388423FD8044691
S31508002BD40D461A2901D900273AE0FEF71BFB14E033
S31508002BE4760B4046FFF76AFF81464046FFF7A4FF87
S31508002BF402230293CDF80C900490059601A902A825
S31508002C04FEF7CCFB00BB0134E4B2AC421BD8204629
S31508002C14FFF728FF07460028F5D100F0A7FC0E4B5E
S31508002C2453F8348003EBC4035E68B8F1FF3F0BD056
S31508002C3456B1C6F30C03002BD2D040F29A3107489A
S31508002C4400F04AFBCCE70127FEF7FCFA00E0002770
S31508002C54384607B0BDE8F083186E00085C6C0008B7
S31508002C644FF0FF33044A1360044A1360044A136896
S31508002C7423F001031360704748050020440100202F
S31508002C840004034070B50D460139154B1B1A9942C9
S31508002C9401D9002070BD04461646FFF717FEFF2823
S31508002CA401D10020F6E728190138FFF70FFEFF289F
S31508002CB414D024F47F7222F003020A4B9A4206D0F7
S31508002CC42B46324621460848FFF78CFEE2E72B4698
S31508002CD4324621460548FFF785FEDBE70020D9E79B
S31508002CE4FFFF1F0800800008480500204401002053
S31508002CF44A1E0E4B1B1A9A4201D90020704770B51A
S31508002D0405460C46FFF7E2FD06462C44601EFFF70F
S31508002D14DDFDFF2E08D0FF2801D1002005E001467D
S31508002D243046FFF74DFF00E0002070BDFFFF1F0887
S31508002D3400B583B000230193134B1B68B3F1FF3F1F
S31508002D4403D1012003B05DF804FB0F4A53680193CD
S31508002D5491680B440193D1680B44019311690B44A0
S31508002D64019351690B44019391690B440193D26908
S31508002D7413440193DA4301925B42019301AA0421A5
S31508002D840248FFF77FFFDDE744010020348200088C
S31508002D940A4B1A68596811449A681144DA68114446
S31508002DA41A6911445A6911449A690A44D3F834329F
S31508002DB4D34201D1012070470020704700800008E3
S31508002DC408B50C4B1B68B3F1FF3F06D10A4B1B68C9
S31508002DD4B3F1FF3F07D1012008BD0648FFF7A5FD5B
S31508002DE40028F9D0F2E70448FFF79FFD0028F3D03E
S31508002DF40120F1E7440100204805002000487047F7
S31508002E040080000808B5FFF72BFF08BD08B5FFF7D3
S31508002E1439FF08BD08B5FFF76BFF08BD08B5FFF70E
S31508002E24B7FF08BD08B5FFF7E9FF08BD08B5FFF702
S31508002E347FFF00B908BDFFF7C3FFFBE7054BDB6956
S31508002E4413F0200F04D0034B5B6A0370012070470C
S31508002E54002070470038014010B5094B986200F00D
S31508002E645DF900F10A04064BDB6913F0800F05D1FE
S31508002E7400F07CFB00F052F9A042F4D910BD00BF63
S31508002E840038014000B589B020220021684603F0C5
S31508002E94D7FD2148036823F0010303600423009344
S31508002EA44FF46143019300230293039304930C2282
S31508002EB40592069307936946FFF732FA174A02F60C
S31508002EC4080353E8003F23F0604302F6080242E889
S31508002ED400310029F2D1114A02F6080353E8003FEB
S31508002EE423F0606302F6080242E800310029F2D1B1
S31508002EF4094B1A6822F000521A605A6822F4904262
S31508002F045A609A6822F02A029A601A6842F0010204
S31508002F141A6009B05DF804FB00380140003001402E
S31508002F2470B506460D46812904D82846FFF794FF4E
S31508002F3400240BE07D21074800F0CEF9F5E700F000
S31508002F4415FB305DFFF788FF0134A4B2A542F6D815
S31508002F5470BD00BF9C6C000870B5254B1C78BCB9C5
S31508002F642448FFF76BFF012801D0204670BD214B8A
S31508002F741B78013BDBB2802BF7D800F0CFF81E4B49
S31508002F8418601E4B00221A70194B01221A70ECE7BE
S31508002F9406460D46194B1B78013316481844FFF7A5
S31508002FA44DFF0446012815D1144B1A780132D2B2C2
S31508002FB41A70104B1B789A4201D00024D5E71049A1
S31508002FC43046FFF773FC0A4B00221A700B4B1B782A
S31508002FD42B70CAE700F0A2F8074B1B68C83398425F
S31508002FE403D90024024B1C70BFE70024BDE700BFC9
S31508002FF4D809002054090020500900204C09002053
S315080030045509002082B01B4BD3F8A42042F4006271
S31508003014C3F8A420D3F8A42002F400620192019A0A
S31508003024154A1268196AC1F302211448415CCA4058
S315080030341B6A13F4E06F1BD1012302FB03F3104A46
S31508003044012111604FF6FF71D1625B090D49A1FB9D
S315080030540313DB09013B9362536943F0010353618C
S31508003064094B00211960526A084B1A8002B070474E
S315080030740223E2E7000C024600000020106B000859
S31508003084002C0140C55A7C0ADC090020DA09002014
S315080030940D4BDA6F42F40062DA67DA6F22F40062E3
S315080030A4DA67D3F8A42022F40062C3F8A4204FF008
S315080030B4E02300221A615A619A6103F550634FF0BE
S315080030C400725A60704700BF000C02460F4B5B6AD9
S315080030D49BB20F4A11885B1A9BB2632B15D910B49D
S315080030E40C4AA2FB03235A090B4C206800EB531025
S315080030F4206002EB820303EB83039A0092B2114425
S31508003104034B19805DF8044B70477047002C014047
S31508003114DA0900201F85EB51DC09002008B5FFF702
S31508003124D5FF014B186808BDDC09002008B5FFF770
S31508003134F5FF08BD10B50446002000F09FFC08B949
S31508003144002010BD01222146002000F0A7FC01281A
S3150800315401D00020F5E70120F3E7000000B583B0AD
S315080031640D480E4B0360FDF701FB01238DF804306F
S3150800317400208DF8050001A901F096FA00F0D8F8A8
S31508003184B0F5FA6F02D303B05DF804FB4FF4FA60A6
S3150800319400F0C8F8F7E700BF280A00200000044238
S315080031A408B501F06FFA0348034B0360FDF73AFBD1
S315080031B408BD00BF280A00200000044210B582B0EA
S315080031C404468DF80710CBB23F2B16D801220DF111
S315080031D40701002000F076FC012813D19DF807208A
S315080031E42146002000F06EFC9DF8073083420ED17C
S315080031F4002000F07BFC02B010BD8D21064800F0CB
S315080032046BF8E3E79121044800F066F8E6E79421B1
S31508003214014800F061F8EBE7DC6C000870B5064677
S315080032240D46002002F07AFF00214FF0FF3001F02E
S31508003234F9FE1C4B1C789CB91B48FFF77BFF012839
S3150800324401D0204670BD184B1B78013BDBB23E2BE0
S31508003254F7D8144B01221A70144B00221A70F0E79F
S31508003264124B1B78013310481844FFF763FF0446D2
S31508003274012801D00024E4E70C4B1A780132D2B2B3
S315080032841A70094B1B789A4201D00024D9E70849D9
S315080032943046FFF70BFB034B00221A70034B1B78CF
S315080032A42B70CEE7240A0020E4090020E009002058
S315080032B4E509002008B50120FDF701F808BD08B5A1
S315080032C40020FCF7FCFF08BD08B5FCF7F9FF08BDAC
S315080032D408B5FCF7F6FF08BD08B500F047F9FCE7A2
S315080032E408B500F0D5F8012803D00B4B1B78012B41
S315080032F400D008BDFFF712FF084B1B68084A12687E
S31508003304134403F5FA739842F3D3034B00221A7055
S31508003314FFF7ACFAEDE700BF140F00200C0F0020EE
S31508003324100F0020014B1860704700BF0C0F0020D7
S31508003334014B1868704700BF0C0F002008B5054BF1
S315080033441B78012B00D008BDFFF7E8FE024B186076
S31508003354F9E700BF140F0020100F002008B5044B2E
S3150800336401221A70FFF7EAFFFFF7BAFF08BD00BF8C
S31508003374140F002008B5FFF775FA00F0F3F8FFF705
S3150800338441FEFFF73FFD00F01DF8FFF7E7FF08BD14
S3150800339408B500F0EBF8FFF799FE00F0A1F8FFF77F
S315080033A49FFF08BD08B5FFF7B9FE014B186008BDB5
S315080033B49C0F002008B5024B1870FFF7F3FF08BDF1
S315080033C4A00F002010B50020FFF7F4FF00F092FAD2
S315080033D4FFF76CF9054C02232370FFF753FD00230E
S315080033E42370FFF7BBFE0323237010BD5100002092
S315080033F408B50020FFF7DEFFFFF7D2FE08BD000080
S3150800340438B504460D460F4B1B78022B0BD00D4BD3
S315080034141B7863B10B4B1B78032B0DD000F084FA91
S31508003424FFF7C0FF38BDC9B2FFF7AEF9EFE7E9B257
S315080034342046FFF775FDEDE7E9B22046FFF7BEFE25
S31508003444ECE700BF51000020074B1B78032B05D07F
S31508003454042B05D0022B05D1082070473F2070475E
S315080034643F2070478120704751000020074B1B7886
S31508003474032B05D0042B05D0022B05D10820704751
S315080034843F2070473F207047812070475100002035
S3150800349408B500F041FA00B1012008BD10B5FFF7E0
S315080034A4F7FF012802D00024204610BD0A4B1C78D9
S315080034B4012C01D00024F7E7FFF730FE074B1B6801
S315080034C4C01A41F28733984201D80024ECE7002059
S315080034D4FFF770FFE8E700BFA00F00209C0F00204D
S315080034E400B583B00DF107011C48FFF78BF90128D5
S315080034F412D00DF107011948FFF72EFD012816D041
S315080035040DF107011548FFF789FE01281AD0FFF7C0
S31508003514C5FF03B05DF804FB114B02221A70FFF7CE
S3150800352449FF9DF807100D4800F006FAE1E70C4B31
S3150800353400221A70FFF73EFF9DF80710074800F0AF
S31508003544FBF9DDE7064B03221A70FFF733FF9DF8F4
S315080035540710024800F0F0F9D9E700BF180F002059
S315080035645100002008B5FCF7A1FE08BD08B5FCF714
S31508003574A2FE08BD024B002283F88220704700BFD2
S31508003584A40F0020034BFE221A7059700222A3F8D6
S3150800359486207047A40F00200378427843EA022362
S315080035A4827843EA0243C07843EA006070470870A9
S315080035B4C0F307234B70C0F307438B70000EC87023
S315080035C47047000010B5064C002384F88130FFF7D5
S315080035D4D1FFFF2323700123A4F8863010BD00BF52
S315080035E4A40F0020074BFF221A7000225A7093F882
S315080035F482109970DA701A715A710622A3F8862015
S31508003604704700BFA40F002008B500210078FFF713
S31508003614B9FF08BD10B5094CFF232370084BC4F83D
S31508003624883000236370A370E370211D0720FFF719
S31508003634BEFF0823A4F8863010BD00BFA40F0020DF
S31508003644F06E000810B5064CFF2323700430FFF70C
S31508003654A3FFC4F888000123A4F8863010BD00BF70
S31508003664A40F002008B531210078FFF78BFF08BDA9
S3150800367408B520210078FFF785FF08BD38B5084C42
S31508003684FF23237000256570A570FFF7DDFEE07043
S3150800369425716571A5710723A4F8863038BD00BF66
S315080036A4A40F002038B5FFF765FF0F4C012584F8F1
S315080036B48150FF2323700023637010226270A37065
S315080036C4FFF7C2FEE070FFF7D1FE2071FFF7CEFECA
S315080036D4C0F307206071A571E5710823A4F8863044
S315080036E4FFF790FB38BD00BFA40F002038B5044689
S315080036F4FFF7AAFE6278904212D90C4DD5F88810C5
S31508003704681CFFF7D3F8FF232B70D5F88830627846
S315080037141344C5F8883063780133A5F8863038BD74
S3150800372422212078FFF72EFFF9E700BFA40F002017
S3150800373438B50446FFF788FE6378984217D9201DE2
S31508003744FFF72AFF01460C4DC5F888006278681C05
S31508003754FFF7ACF8FF232B70D5F88830627813444A
S31508003764C5F8883063780133A5F8863038BD222138
S315080037742078FFF707FFF9E7A40F0020F8B50546F8
S315080037841746002406E015F8013B1C44E4B2FFF78B
S31508003794EDFE31464E1E0029F5D13C600120F8BDE8
S315080037A430B583B0002501950B4CFF2323700430F4
S315080037B4FFF7F2FE014601AAD4F88800FFF7DEFFF8
S315080037C46070211D0198FFF7F2FEA570E5700823C5
S315080037D4A4F8863003B030BDA40F002038B50446DB
S315080037E40F4BD3F88850FFF72FFE621C411E28465C
S315080037F4FFF70CFB70B10A4CFF232370FFF724FE76
S31508003804D4F8883001380344C4F888300123A4F86E
S31508003814863038BD31212078FFF7B4FEF9E700BFBA
S31508003824A40F002010B50446FFF70EFE013863788E
S31508003834984216DD144BFF221A700122A3F886203B
S31508003844617899B1A21C104BD3F88800FFF7DEFA09
S31508003854A8B10D4AD2F8883061780B44C2F888308A
S3150800386410BD22212078FFF78DFEF9E7FFF7DEFA6F
S315080038740028F5D131212078FFF784FEF0E73121BD
S315080038842078FFF77FFEEBE7A40F002038B504463F
S315080038940B4BD3F888500430FFF77EFE01462846C2
S315080038A4FFF7B8FA30B1064BFF221A700122A3F8C3
S315080038B4862038BD31212078FFF764FEF9E700BF7A
S315080038C4A40F002010B5FEF7D1FF064C002384F898
S315080038D48130FFF74FFEFF2323700123A4F88630B7
S315080038E410BD00BFA40F002008B589B2FFF788FDF4
S315080038F408BD0000074B002283F88120C3F88820FE
S3150800390483F88420A3F8862083F8832083F882200A
S31508003914704700BFA40F0020024B93F8810000B142
S3150800392401207047A40F0020024B002283F884204C
S31508003934704700BFA40F002010B504460078FF287E
S3150800394425D0404B93F88130012B2DD1A0F1C90322
S31508003954352B66D8DFE803F04965655D6565594D1D
S315080039645551656565656565656565656565656519
S3150800397465656565656565656565656565656565E5
S315080039846165352D293165656539653D41452046AD
S31508003994FFF788FE2B4B93F88430012B45D0294B2F
S315080039A4B3F98610002945DC10BD2046FFF79EFEB4
S315080039B4F0E72046FFF7BCFEECE72046FFF742FE99
S315080039C4E8E72046FFF7ECFEE4E72046FFF722FE89
S315080039D4E0E72046FFF718FEDCE72046FFF702FE7D
S315080039E4D8E72046FFF7EEFDD4E72046FFF7F6FEB4
S315080039F4D0E72046FFF716FFCCE72046FFF73EFE42
S31508003A04C8E72046FFF742FFC4E72046FFF75AFFF8
S31508003A14C0E72046FFF726FEBCE72046FFF728FE48
S31508003A24B8E72021FFF7AEFDB4E710212078FFF7A9
S31508003A34A9FDB4E71846012380F88430FFF754FF3C
S31508003A44B2E700BFA40F00207047704788B90A4B35
S31508003A54AC2101FB003393F8593033B9064B01FB0B
S31508003A6400335B791BB101207047012070470020A1
S31508003A7470470020704700BFB010002008B100202E
S31508003A84704708B50346AC2202FB03F360330248C9
S31508003A94184400F0DBFB08BDB010002008B1002074
S31508003AA4704708B50346AC2000FB03F303F158003E
S31508003AB413460A4602490144002002F0B1FF08BD34
S31508003AC4B010002008B10020704708B503464FF02F
S31508003AD4AC0C05480CFB030093B20A46011D0020F2
S31508003AE402F0C7FE08BD00BFB010002008B10020D0
S31508003AF4704708B5AC22034902FB0011043102F0F1
S31508003B0476FE08BDB01000202DE9F04385B0AC223E
S31508003B1400211C4802F094FF002414B105B0BDE846
S31508003B24F083AC2504FB05F505F16803DFF854803A
S31508003B3443440433E601DFF8509009EBC41205F157
S31508003B4458004027039702920197009300231A46C8
S31508003B541946404402F0F3FD05F1100343440833C3
S31508003B643E444E4405EB08000397029601970093DA
S31508003B74002301221946043002F0E1FD0134E4B2BF
S31508003B84CBE700BFB01000203010002070B5002429
S31508003B940CB1012070BDAC2504FB05F505F15800F0
S31508003BA4054E304402F0E2FDA819043002F0DEFDA9
S31508003BB40134E4B2ECE700BFB01000202DE9F0416F
S31508003BC400250DB1BDE8F081AC2405FB04F40B4EC9
S31508003BD404EB06080027375504F16000304400F06A
S31508003BE4BCFB88F8597004F108003044043000F02E
S31508003BF4B4FB88F805700135EDB2E2E7B010002091
S31508003C042DE9F8434B79FF2B40F0858007460C468F
S31508003C148E18087801EB000800250DB100207BE01A
S31508003C242846FFF713FF10B10135EDB2F5E7AC23CB
S31508003C3403FB05F5394B05EB0309A2785A5512E03F
S31508003C444FF0E023D3F8F03D13F0010F00D000BE87
S31508003C54002061E009F1040199F80520002A41D001
S31508003C6498F800309844B04551D298F80030434447
S31508003C749E424CD398F80130042B48D00B2B46D0DF
S31508003C84052BEDD14146384600F0F8FE0028D7D07A
S31508003C9498F80230DA09DDD109F1580199F8592062
S31508003CA4002ADDD189F85930B8F80430C3F30A0379
S31508003CB4B3F5007F14BF0023012399F8582063F352
S31508003CC4410289F85820384602F02EFE0028C7D14A
S31508003CD44FF0E023D3F8F03D13F0010F00D000BEF7
S31508003CE4002019E089F80530B8F80430C3F30A034C
S31508003CF4B3F5007F14BF0023012399F8042063F366
S31508003D04410289F80420384602F071FDA8E7A8EBB9
S31508003D14040080B200E00020BDE8F883B01000205B
S31508003D242DE9F04105461F46002464B1002C43D111
S31508003D34A04696F859308B4213D073798B4228D013
S31508003D440120BDE8F081AC231C4E03FB046696F8FB
S31508003D5459308B42EAD073798B42E7D00134E4B206
S31508003D64E3E7B6F864306BB9BAB2154901EBC81182
S31508003D742046FFF769FE06F15801284602F0D4FDED
S31508003D840120DEE7BAB2F16D06F1600000F0DBFA55
S31508003D94EAE7B9B22046FFF758FE04363146284604
S31508003DA402F025FD08B10120CBE73A4631462846FC
S31508003DB402F0DEFC0120C4E70020C2E7B0100020B0
S31508003DC43010002003460A4490B2814202D8B0EB70
S31508003DD4430F03DB5B009BB2C01A80B2704710B571
S31508003DE486460846BEF804C09A420CD3D41AA4B22E
S31508003DF424B3A44514D294450CD8A2EB0C0293B26E
S31508003E04AEF80A300CE0D41A4FEA4C0111FA84F4DD
S31508003E14A4B2EDE7624493B2F2E7A3EB0C039BB2B8
S31508003E249C45FAD9DEF80010BEF80620C2F30E0245
S31508003E3402FB031102F030FE012010BD0020FCE74E
S31508003E4430B583B00546940803E051F8044B2C605A
S31508003E541C46631E9BB2002CF7D112F0030201D153
S31508003E6403B030BD0023019301A802F015FE019B9F
S31508003E742B60F5E72DE9F04782B005460E469DF816
S31508003E8428E0B0F804C0ACEB030080B2A3EB0C0C3A
S31508003E9494441FFA8CFCE988C1F30E0919FB00F750
S31508003EA4BFB219FB0CFC1FFA8CFA2C6809FB0348F1
S31508003EB4BEF1000F05D0BEF1010F17D002B0BDE860
S31508003EC4F0874946904206D301FB02F24146304642
S31508003ED402F0E2FDF2E73A464146304602F0DCFDDE
S31508003EE452462968F01902F0D7FDE7E7904207D34E
S31508003EF419FB02F292B241463046FFF7A1FFDDE70D
S31508003F0427F003021FFA82F94A4641463046FFF76C
S31508003F1497FF08EB090217F003012CD0C1F1040737
S31508003F24BFB2574528BF5746FFB2AAEB070C1FFA7C
S31508003F348CFA0023019301A804E012F8011B00F887
S31508003F44011B19464B1EDBB20029F6D1296804E089
S31508003F5411F8012B00F8012B1F467B1EDBB2002F3C
S31508003F64F6D1019B3360BAF1000FA7D0524630460A
S31508003F74FFF766FFA2E72968F5E730B583B09E46E2
S31508003F84BDF81830B0F804C09E4511D3AEEB03044F
S31508003F94A4B224B3A44507D2F44511D8AEEB0C0E4B
S31508003FA41FFA8EF343816446944210D314460EE0F6
S31508003FB4AEEB03044FEA4C0515FA84F4A4B2E8E719
S31508003FC4E6441FFA8EF3EDE7A3EB0C039BB29C457C
S31508003FD4FAD99DF81C2000922246FFF74BFF20468B
S31508003FE403B030BD30B583B00446B0F808C045897F
S31508003FF4ADB2019300951FFA8CF3FFF7BEFF054691
S315080040046189024689B2A088FFF7DCFE60812846EA
S3150800401403B030BD10B582B0940803E00C6840F8CC
S31508004024044B1C46631E9BB2002CF7D112F0030204
S3150800403401D102B010BD0B68019301A902F02CFD51
S31508004044F7E72DE9F04782B005460E469DF828E0C5
S31508004054B0F804C0ACEB030189B2A3EB0C0C94448E
S315080040641FFA8CFCC088C0F30E0919FB01F7BFB20E
S3150800407419FB0CFC1FFA8CFA2C6809FB0348BEF1E1
S31508004084000F05D0BEF1010F17D002B0BDE8F087C6
S315080040944846914206D300FB02F23146404602F0F6
S315080040A4FBFCF2E73A463146404602F0F5FC524636
S315080040B4F119286802F0F0FCE7E7914207D319FBE7
S315080040C402F292B231464046FFF7A4FFDDE727F035
S315080040D403021FFA82F94A4631464046FFF79AFF19
S315080040E408EB090217F003002AD0C0F10407BFB28F
S315080040F4574528BF5746FFB2AAEB070C1FFA8CFA96
S315080041043368019301A904E011F8010B02F8010BC5
S315080041141846431EDBB20028F6D1286804E011F8D5
S31508004124012B00F8012B1F467B1EDBB2002FF6D1AC
S31508004134BAF1000FA9D052463146FFF76BFFA4E740
S315080041442868F5E72DE9F04383B09146002A60D044
S31508004154044688461F460689B6B2B0F80AC01FFA4E
S315080041648CF1C379DB091BD185888E4210D3A6EB63
S31508004174010C1FFA8CFC654550D9A5EB0C05ADB2AC
S315080041844D4528BF4D46002D44D0A288334631E01C
S31508004194A6EB010C6B0013FA8CFC1FFA8CFCEAE7FD
S315080041A48588954209D8FFB9A2EB0509C388C3F3E4
S315080041B40E0303FB09880E46E5E78E420ED3731AEF
S315080041C49BB24B44B3EB450F10DBA5EB090292B245
S315080041D42846FFF7F7FD06464D46D4E7731A6A00E4
S315080041E412FA83F39BB2ECE70E46CCE74D46CAE7D0
S315080041F49B1A9BB29A42FBD900972A464146204607
S31508004204FFF71FFF2A463146A088FFF7DBFD20810A
S3150800421400E01546284603B0BDE8F0830025F9E713
S31508004224B2F5004F10D801608280C28863F30E028B
S31508004234C280C3799DF8002062F3C713C3710023B3
S315080042444381038101207047002070470246808815
S3150800425413899BB2528992B2934205D39B1A9BB295
S31508004264984228BF184670479B1A420012FA83F3ED
S315080042749BB2F5E7818803899BB2428992B293423D
S3150800428406D39B1A98B281428CBF0020012070473E
S315080042949B1A4A0012FA83F398B2F4E782880389D0
S315080042A49BB2418989B28B4206D35B1A9BB29A4266
S315080042B408D9D01A80B270475B1A510011FA83F3F1
S315080042C49BB2F4E70020704738B50446028943894F
S315080042D49BB292B2FFF783FD05466189024689B20D
S315080042E4A088FFF76FFD6081284638BD08B500230E
S315080042F4FFF778FE08BD08B50123FFF773FE08BD6E
S3150800430470B504460E460589ADB2FFF7B3FF10B182
S31508004314E079C00916D0A2882B4601E09B1A9BB205
S315080043249A42FBD92068E288C2F30E02314602FBA0
S31508004334030002F0B1FB01222946A088FFF742FDDB
S315080043442081012070BD08B50023FFF7FBFE08BDD8
S3150800435408B50123FFF7F6FE08BD00234381038150
S315080043640120704738B5054600240DE0E31A13F01A
S31508004374FF0318D103EBC303174A02EB8303DB6875
S31508004384284698470134E4B2144B1B785A1CD2B217
S31508004394A24211D9A342E9D9114B1B6804EBC40202
S315080043A413EB8203EBD14FF0E023D3F8F03D13F07F
S315080043B4010F00D000BE38BD0A4C2C22002120462D
S315080043C402F03EFB4FF0FF336360A360E3602361B2
S315080043D46361A361E361EEE7F86E0008201200202A
S315080043E4241200202C12002008B520B1044B18789A
S315080043F401F012FD08BD024B187801F00EFDF9E72D
S315080044046C00002008B5FFF7ADFF00F0B1FF08BD4A
S3150800441470B505460C461646486900F0B3FF63694D
S31508004424324601212846984770BD00002DE9F04719
S315080044340646481EC0B2FEF751F818B10746437837
S31508004444022B0AD04FF0E023D3F8F03D13F0010F06
S3150800445400D000BE0020BDE8F087C279C2F3401040
S31508004464484B197860F304111970C2F38012C9B263
S3150800447462F34511197007F109057B881F44BD428B
S315080044847DD26B780B2B0AD04FF001096B78042B7D
S315080044940AD1A7EB05081FFA88F8002454E095F812
S315080044A403902B781D44F1E74FF0E023D3F8F03D51
S315080044B413F0010F00D000BE0020CCE7E31A13F076
S315080044C4FF0305D103EBC3032F4A02EB83034AE038
S315080044D44FF0E023D3F8F03D13F0010F00D000BEEF
S315080044E40020B8E727490B441C710132D2B2914522
S315080044F411D9AB781344DBB2224919440979FF2947
S31508004504F0D04FF0E023D3F8F03D13F0010F00D0BC
S3150800451400BE00209FE72346524629461B4802F060
S31508004524E9F855441A4B1B780133DBB2A342A6D8E3
S315080045344FF0E023D3F8F03D13F0010F00D000BE8E
S31508004544002088E70134E4B2114B1B785A1CD2B216
S31508004554A242E7D9A342B1D90E4B1B6804EBC402A5
S3150800456413EB8203B4D01B69424629463046984762
S3150800457482460828E6D98045E4D30022B7E7012015
S3150800458469E700BF2C120020F86E000840120020CC
S31508004594201200202412002070477047002070471C
S315080045A40020704738B505460C464B881A0AD8B217
S315080045B4531E0E2B58D8DFE803F008274257574DE9
S315080045C427575757575757571C00FDF783FF024677
S315080045D428B112232146284600F08AFE45E04FF00A
S315080045E4E023D3F8F03D13F0010F00D000BE0020FD
S315080045F43BE0FDF777FF0246002837D0438821467B
S31508004604284600F075FE30E0022A09D0FFF7C8FFF5
S31508004614024668B353882146284600F069FE24E01A
S31508004624FDF75CFF02460028F4D14FF0E023D3F8E7
S31508004634F03D13F0010F00D000BE002015E0A1885C
S31508004644FDF774FF0246A8B103782146284600F010
S315080046544FFE0AE0FFF7A2FF024668B10378214637
S31508004664284600F045FE00E0002038BD0020FCE79F
S315080046740020FAE70020F8E70020F6E703460020C2
S315080046841870704708B5034B187801F0D7FB01205A
S3150800469408BD00BF6C000020024B1878FF3818BF0D
S315080046A4012070476C000020F8B506460D46FFF752
S315080046B4F3FF0746002851D1CDB12C2200213348F7
S315080046C402F0BEF9324B00221A70324C2046FFF72C
S315080046D444FE043C304B1C60304C2046FFF7CEFFAA
S315080046E42F4B18602378FF2B0AD000241FE04FF0C5
S315080046F4E023D3F8F03D13F0010F2FD000BE2DE0D0
S315080047044FF0E023D3F8F03D13F0010F26D000BE96
S3150800471424E0E31A13F0FF0318D103EBC303214A79
S3150800472402EB83035B688BB198470134E4B21B4BF5
S315080047341B785A1CD2B2A24212D9A342E9D9184B01
S315080047441B6804EBC40213EB8203EBD14FF0E0239E
S31508004754D3F8F03D13F0010F00D000BE3846F8BD7B
S31508004764114B1E702946304601F078FB074640B9BE
S315080047744FF0E023D3F8F03D13F0010FEED000BE5E
S31508004784ECE7304601F048FBE8E700BF2C120020AE
S3150800479428120020580000205C1100202012002056
S315080047A424120020F86E00086C0000202DE9F04160
S315080047B484B005460E464378023B052B16D8DFE837
S315080047C413F00600690031003D00D200D800954B6D
S315080047D41A7822F001021A701A7822F002021A7064
S315080047E4002159701A7861F382021A708E4B1F6879
S315080047F416B93B68002098472946381DFFF780FDFF
S31508004804044616B93B6801209847002C40F00281FB
S315080048144FF0E023D3F8F03D13F0010F00F0FF80CA
S3150800482400BEFCE07F4B1B7813F0010F00F0F78005
S315080048347C4A137843F004031370D7E7794B1B7843
S3150800484413F0010F00F0EB80764A137823F0040383
S315080048541370CBE7E31A13F0FF0309D103EBC30381
S31508004864724A02EB83031B6A13B16968287898476E
S315080048740134E4B26E4B1B78581CC0B2A0420BD963
S31508004884A342E7D96B4B1B6804EBC40213EB820300
S31508004894E9D1EDE70024EDE7624B1B7813F0040F2A
S315080048A42ED0604A137823F004031370002301936F
S315080048B4029303932B788DF8043005238DF805307D
S315080048C4594B1F6816B93B680020984701A9381D3B
S315080048D4FFF716FD044616B93B680120984744B904
S315080048E44FF0E023D3F8F03D13F0010F08D000BED3
S315080048F406E032469DF805109DF80400FFF74CFEC5
S31508004904484BDB7813F0010F00F0898000230193EC
S31508004914029303932B788DF8043003238DF805301E
S315080049246B680293404B1D6816B92B68002098479C
S3150800493401A9281DFFF7E4FC044616B92B680120D3
S31508004944984744B94FF0E023D3F8F03D13F0010F2C
S3150800495465D000BE63E032469DF805109DF8040054
S31508004964FFF71AFE5BE0344A13780133DBB213709F
S315080049743CE70179CC0911F00F073FF437AF294B0F
S3150800498403EB470323441B7D294A1278934207D233
S31508004994284A126803EBC30312EB83020AD125E7FC
S315080049A49B1A13F0FF037FF421AF03EBC3031F4ADB
S315080049B402EB8302D369002B3FF418AF194B03EBC0
S315080049C44703234493F8200020F0010083F82000CD
S315080049D493F8200020F0040083F82000D2F81C8005
S315080049E4AB686A792878C04780F0010010F0FF0F99
S315080049F415D00C4B03EB4703234493F8202042F0CD
S31508004A04010283F8202093F8202042F0040283F858
S31508004A142020EBE6324669782878FFF7BDFD04B016
S31508004A24BDE8F0812C1200205C110020F86E000805
S31508004A3420120020241200202812002008B528B9C4
S31508004A44054B5B6813B9044B1B689847024A5368BD
S31508004A540133536008BD00BF6400002008B5064B47
S31508004A645B683BB1013B044A536018B913B9136830
S31508004A740120984708BD00BF6400002038B5134BD1
S31508004A841D788B7803F00F03052B09D94FF0E02323
S31508004A94D3F8F03D13F0010F00D000BE002038BD56
S31508004AA40C4600220A4B9978204601F0AFFD40B91E
S31508004AB44FF0E023D3F8F03D13F0010FEFD000BE1A
S31508004AC4EDE72146284601F03BFAE8E76C000020AA
S31508004AD42C12002008B501F00F035B0003EBD11379
S31508004AE4203300210248184401F05FFD08BD00BFC9
S31508004AF42C12002008B501F00F035B0003EBD11359
S31508004B04203300210248184401F06CFD08BD00BF9B
S31508004B142C12002070B51E48007801F00F051D4CB4
S31508004B2404EB450C0CEBD11C9CF8204014F0010F47
S31508004B3409D04FF0E023D3F8F03D13F0010F00D06D
S31508004B4400BE002070BDCE09124C04EB4504344463
S31508004B5494F820C04CF0010C84F820C001F062FAE5
S31508004B640028EFD194F8202022F0010284F82020AE
S31508004B7494F8202022F0040284F820204FF0E02341
S31508004B84D3F8F03D13F0010FDCD000BEDAE700BF1E
S31508004B946C0000202C12002038B501F00F05CC0952
S31508004BA40A4B187801F08AFA094B03EB45032344A8
S31508004BB493F8202042F0020283F8202093F820205C
S31508004BC442F0010283F8202038BD00BF6C000020A3
S31508004BD42C12002038B501F00F05CC090A4B1878B9
S31508004BE401F080FA094B03EB4503234493F820208C
S31508004BF422F0020283F8202093F8202022F00102F2
S31508004C0483F8202038BD00BF6C0000202C12002039
S31508004C1401F00F02044B03EB420303EBD11191F8A5
S31508004C242000C0F3400070472C1200202DE9F04103
S31508004C3482B006460C46002000F0A4FB237803F055
S31508004C446003602B21D0402B2CD0227802F01F025F
S31508004C54012A00F0FB80022A00F03E81002A40F077
S31508004C64C381202B28D0002B4BD16378092B00F263
S31508004C74E280DFE813F0CD00BD00E000AD00E000FF
S31508004C845000A700E0005F006C004FF0E023D3F863
S31508004C94F03D13F0010F00D000BE0025284602B0EF
S31508004CA4BDE8F081B54800F06DFB22460121304687
S31508004CB4FDF71CFC0546F1E7A388DBB20F2B00F2CF
S31508004CC49D81AF4A13441B79AE4A1278934208D29F
S31508004CD4AD4A116803EBC30311EB83010BD100251D
S31508004CE4DCE79B1A13F0FF0340F08A8103EBC30346
S31508004CF4A64901EB830122463046FFF789FB0546A0
S31508004D04CCE74FF0E023D3F8F03D13F0010F00D0C1
S31508004D1400BE0025C2E7204600F03AFB6188C9B206
S31508004D24304601F0B3F9964A137843F00203137038
S31508004D340125B3E7924B5B788DF8063001230DF114
S31508004D4406022146304600F0D3FA0125A6E765880F
S31508004D54EDB28B4B5B78DBB2AB4207D0884B5B7802
S31508004D6453B9874B5D70BDB9FEF7A9FA214630469B
S31508004D7400F0AAFA012591E70021304601F0C6F8A9
S31508004D84304601F0F7F87E4F97F802803046FFF771
S31508004D94E9FA87F80280E4E729463046FFF746FB36
S31508004DA4054660B9764B00225A704FF0E023D3F8D3
S31508004DB4F03D13F0010F3FF471AF00BE6EE7FEF746
S31508004DC479FAD3E721463046FFF7ECFB054665E753
S31508004DD46388012B01D0002560E7694A137843F0FC
S31508004DE4080313702146304600F06EFA012555E78C
S31508004DF46388012B01D0002550E7614A137823F014
S31508004E04080313702146304600F05EFA012545E78B
S31508004E145B4B1A78930803F00203C2F34012134358
S31508004E24ADF8063002230DF106022146304600F09D
S31508004E345FFA012532E74FF0E023D3F8F03D13F08B
S31508004E44010F00F0DF8000BE002527E7A388DBB248
S31508004E540F2B00F2D9804A4A13441B79494A12781F
S31508004E64934222D2484A116803EBC30311EB830128
S31508004E7400F0CC8022463046FFF7CAFA05460028D9
S31508004E847FF40CAF237813F0600F7FF407AF00F0BC
S31508004E9479FA63780A2B13D00B2B7FF4FFAE2146DD
S31508004EA4304600F011FA0125F8E69B1A13F0FF03C1
S31508004EB440F0AE8003EBC303344901EB8301D9E721
S31508004EC400238DF8063001230DF1060221463046EB
S31508004ED400F00EFA0125E1E6A288D1B202F00F0528
S31508004EE4C2F3C012052D19D8254800EB4500024423
S31508004EF4127D2448007882421AD22348056802EBB8
S31508004F04C20205EB8205FBB1002D00F08380224620
S31508004F1429463046FFF77CFA0546BFE64FF0E023FC
S31508004F24D3F8F03D13F0010F00D000BE0025B5E616
S31508004F34121A12F0FF0205D102EBC202134D05EB59
S31508004F448205E0E70025DEE76378012B20D0032BF2
S31508004F541ED0002B3ED13046FFF75AFE58B1012326
S31508004F64ADF8063002230DF106022146304600F05C
S31508004F74BFF9012592E60023F2E700BFF1240008F1
S31508004F842C1200202012002024120020F86E00089B
S31508004F94628822B9012B19D03046FFF7FDFD002D92
S31508004FA43AD0224629463046FFF732FA002000F066
S31508004FB4E9F91B4B93F8215015F001057FF46EAE01
S31508004FC42146304600F080F9012567E63046FFF7AA
S31508004FD401FEE4E74FF0E023D3F8F03D13F0010FA8
S31508004FE400D000BE002559E64FF0E023D3F8F03D83
S31508004FF413F0010F12D000BE00254FE600254DE63A
S3150800500400254BE6002549E6002547E6002545E642
S31508005014002543E6002541E601253FE600253DE651
S315080050242C12002030B585B0FFF736FB48B905B019
S3150800503430BD9DF80400FFF7E5F99DF808207A4B82
S315080050449A707A4B1D682C4654F8043B00209847FE
S3150800505401A92046FFF738F904462B68012098472A
S31508005064002CE4D09DF80530013B072B00F2D180D3
S3150800507401A252F823F000BF375000089D500008DB
S3150800508403520008C9510008E3510008AB50000850
S3150800509433510008F55100089DF80400FFF7B2F9EA
S315080050A4FEF70DF9CDE7624B1B78002B36D0604A24
S315080050B41378013BDBB213701378002BC1D15A4B1A
S315080050C41A7842F001021A7093F8202022F001029D
S315080050D483F8202093F8202022F0040283F8202065
S315080050E493F8212022F0010283F8212093F8212045
S315080050F422F0040283F8212002A99DF80400FFF790
S3150800510495FD00289DD100219DF8040000F0D6FFE6
S3150800511480219DF8040000F0D1FF92E74FF0E023C8
S31508005124D3F8F03D13F0010F81D000BE7FE79DF858
S31508005134081001F00F00CC093B4B03EB400303EBCB
S31508005144D11393F8202022F0010283F8202093F843
S31508005154202022F0040283F82020B8B1324B03EB56
S31508005164400323441B7D334A1278934216D2324AAB
S31508005174126803EBC30312EB830319D09C69039BE0
S315080051849DF809209DF80400A0475AE7039B9DF85B
S3150800519409209DF8040000F009F952E79B1A13F058
S315080051A4FF0305D103EBC303244A02EB8303E5E7B4
S315080051B44FF0E023D3F8F03D13F0010F3FF437AF77
S315080051C400BE34E7184B1B7813F0010F3FF439AFD0
S315080051D4154B1878C0F3C000FEF776F831E7124B82
S315080051E41B7813F0010F3FF42CAFFEF771F828E78C
S315080051F4029B002B3FF425AF0398984721E70A4BF7
S31508005204DB7813F0010F3FF41CAF0298FFF7C5F9DA
S3150800521417E74FF0E023D3F8F03D13F0010F3FF4FE
S3150800522410AF00BE0DE700BF2C1200205C11002051
S31508005234281200202012002024120020F86E0008EC
S3150800524408B591F90030002B05DB802100231A46A6
S31508005254FFF760FC08BD0021F8E70000F8B505462D
S31508005264164B9F89DE89BC1BA4B2402C28BF402458
S3150800527493F90030002B08DB0021B74217D0104AF7
S3150800528423462846FFF746FCF8BDB7420BD00B4B1E
S31508005294996854B169B1402C0DD82246084801F0E2
S315080052A4FBFB8021E9E78021E7E78021E5E7002287
S315080052B4E6E70020E8E70020E6E700BF98120020AA
S315080052C4581200207047000008B586460B46074A60
S315080052D4944608684968ACE8030000219160D181C6
S315080052E4918119467046FFF7ABFF08BD9812002056
S315080052F438B505468C461D4CA64608684968AEE886
S315080053040300A2600021E181BCF806108B4228BF85
S315080053140B46A381BCF80610C9B103B122B12846CD
S31508005324FFF79CFF50B138BD4FF0E023D3F8F03DAA
S3150800533413F0010F00D000BE0020F4E74FF0E0237D
S31508005344D3F8F03D13F0010FEDD000BEEBE761464C
S315080053542846FFF775FF0028E5D14FF0E023D3F878
S31508005364F03D13F0010FDED000BEDCE798120020F2
S31508005374034B00221A605A609A60DA601A61704711
S3150800538498120020014B1861704700BF981200203C
S315080053940146054B1A460068496803C200229A600A
S315080053A4DA819A81704700BF9812002038B50546FD
S315080053B41C46344B1B78DB09B3EBD11F16D04CB112
S315080053C44FF0E023D3F8F03D13F0010F00D000BEF0
S315080053D4002038BD2B4C2146FFF774FF23691BB107
S315080053E422460321284698470120F2E7254B93F9DC
S315080053F40030002B07DB234B9868002840D0224650
S31508005404214901F049FB1F4AD38913FA84F39BB255
S31508005414D381916821449160D288934201D03F2C6C
S3150800542420D8184B1B6923B1164A022128469847E7
S3150800543470B114492846FFF703FF0028C9D14FF075
S31508005444E023D3F8F03D13F0010FC2D000BEC0E745
S315080054540021284600F032FE8021284600F02EFE60
S315080054640120B6E72846FFF7F9FE0028B1D14FF028
S31508005474E023D3F8F03D13F0010FAAD000BEA8E745
S315080054840020A6E7981200205812002010B484467B
S31508005494E8B93B4B00011C5803EB0C131B7A01F0CB
S315080054A40F00C909834214D90332920839BBC2F3DF
S315080054B40D02083213445B009BB2626A9A425DD2BB
S315080054C4304A92889A4210D3636201200AE0002087
S315080054D4DFE74FF0E023D3F8F03D13F0010F00D0D7
S315080054E400BE00205DF8044B70474FF0E023D3F864
S315080054F4F03D13F0010F00D000BE0020F2E7204B68
