S01D000062696E2F6F70656E626C745F73746D3332673437342E737265638D
S315080000000000022065020008B5020008B5020008D3
S31508000010B5020008B5020008B50200080000000095
S31508000020000000000000000000000000B502000803
S31508000030B502000800000000B5020008C91800084B
S31508000040B5020008B5020008B5020008B5020008A6
S31508000050B5020008B5020008B5020008B502000896
S31508000060B5020008B5020008B5020008B502000886
S31508000070B5020008B5020008B5020008B502000876
S31508000080B5020008B5020008B5020008B502000866
S31508000090B5020008B5020008B5020008B502000856
S315080000A0B5020008B5020008B5020008B502000846
S315080000B0B5020008B5020008B5020008B502000836
S315080000C0B5020008B5020008B5020008B502000826
S315080000D0B5020008B5020008B5020008B502000816
S315080000E0B5020008B5020008B5020008B502000806
S315080000F0B5020008B5020008B5020008B5020008F6
S31508000100B5020008B5020008B5020008B5020008E5
S31508000110B5020008B5020008B5020008B5020008D5
S31508000120B5020008B5020008B5020008B5020008C5
S31508000130B5020008B5020008B5020008B5020008B5
S31508000140B5020008B5020008B5020008B5020008A5
S31508000150B5020008B5020008B5020008B502000895
S31508000160B5020008B5020008B5020008B502000885
S31508000170B5020008B5020008B5020008B502000875
S31508000180B5020008B5020008B5020008B502000865
S31508000190B502000800000000B5020008B502000814
S315080001A0B5020008B5020008B5020008B502000845
S315080001B0B5020008B5020008B5020008B502000835
S315080001C0B5020008B5020008B5020008B502000825
S30D080001D0B5020008B50200089B
S315080001D80348044B834202D0034B03B118477047C0
S315080001E83000002030000020000000000548064BBB
S315080001F81B1AD90F01EBA301491002D0034B03B10F
S315080002081847704730000020300000200000000022
S3150800021810B5064C237843B9FFF7DAFF044B13B138
S315080002280448AFF300800123237010BD3000002076
S3150800023800000000442B000808B5054B1BB105490A
S315080002480548AFF30080BDE80840FFF7CFBF00BFF9
S315080002580000000034000020442B00080D4885469D
S315080002680D480E490E4A002302E0D458C4500433F8
S31508000278C4188C42F9D30B4A0B4C002301E01360CF
S315080002880432A242FBD300F013F802F033FC01F063
S315080002984BFAFEE70000022000000020300000208C
S315080002A85C2D00083000002080060020FEE70000CC
S315080002B8034AD2F8883043F47003C2F88830704786
S315080002C800ED00E010B4046891FAA1F3A3B1B3FAFB
S315080002D883F35B004FF0030C0CFA03F324EA0303D9
S315080002E891FAA1F151B1B1FA81F149008A40134353
S315080002F803605DF8044B70472023EAE72021F4E7FA
S3150800030810B4846891FAA1F3A3B1B3FA83F35B0036
S315080003184FF0030C0CFA03F324EA030391FAA1F14C
S3150800032851B1B1FA81F149008A40134383605DF8F7
S31508000338044B70472023EAE72021F4E710B4C46881
S3150800034891FAA1F3A3B1B3FA83F35B004FF0030C58
S315080003580CFA03F324EA030391FAA1F151B1B1FAAD
S3150800036881F149008A401343C3605DF8044B70471E
S315080003782023EAE72021F4E710B4046A91FAA1F3E6
S31508000388A3B1B3FA83F39B004FF00F0C0CFA03F3EF
S3150800039824EA030391FAA1F151B1B1FA81F189006E
S315080003A88A40134303625DF8044B70472023EAE743
S315080003B82021F4E710B4446A090A91FAA1F3A3B113
S315080003C8B3FA83F39B004FF00F0C0CFA03F324EAF5
S315080003D8030491FAA1F151B1B1FA81F189008A4071
S315080003E8144344625DF8044B70472023EAE720214A
S315080003F8F4E70000B0F1904F13D0394B98421BD060
S31508000408384B984226D0384B984231D0374B9842C9
S315080004183CD0374B984247D0364B984252D00120A9
S315080004287047354BDA6A42F00102DA62DA6A22F074
S315080004380102DA620020704703F1784303F50333B3
S31508000448DA6A42F00202DA62DA6A22F00202DA624A
S315080004580020704703F1784303F50233DA6A42F05D
S315080004680402DA62DA6A22F00402DA6200207047C5
S3150800047803F1784303F50133DA6A42F00802DA62CF
S31508000488DA6A22F00802DA620020704703F1784334
S3150800049803F50033DA6A42F01002DA62DA6A22F001
S315080004A81002DA620020704703F1784303F5FE3339
S315080004B8DA6A42F02002DA62DA6A22F02002DA629E
S315080004C80020704703F1F82303F58033DA6A42F00F
S315080004D84002DA62DA6A22F04002DA6200207047DD
S315080004E80004004800080048000C004800100048AE
S315080004F8001400480018004800100240F8B50746DE
S315080005080E460D6895FAA5F515B1B5FA85F51BE0F9
S31508000518202519E0B26821463846FFF7F1FE326809
S31508000528F1687B6823EA020301FB02F213437B6046
S3150800053816E0726921463846FFF73CFF726821467D
S315080005483846FFF7BFFE0135346834FA05F217D086
S315080005580122AA401440F6D07368013B012BD9D969
S31508000568326921463846FFF7E9FE7368022BE5D15A
S31508000578FF2CDED8726921463846FFF7FDFEDDE70F
S315080005880020F8BD10B4064C616941F001016161AB
S315080005980260BFF36F8F43605DF8044B704700BF76
S315080005A800200240094A536943F480235361EFF354
S315080005B8108C72B6402351F8042B40F8042B013BE3
S315080005C813F0FF03F7D18CF3108870470020024018
S315080005D8094B5B69002B01DB00207047064B074A6D
S315080005E89A6002F188329A605B69002B01DB002069
S315080005F870470120704700BF002002402301674565
S31508000608054B5A6942F000425A615B69002B01DBC7
S3150800061801207047002070470020024038B505467B
S3150800062801F06CFD0446134B1B6913F4803F06D092
S3150800063801F064FD001BA842F5D9032038BD0D4B0F
S315080006481B694CF2FA32134009D10A4B1B6913F09D
S31508000658010F0CD0074B01221A610020EEE7064964
S315080006684A681A434A60034A13610120E6E70020EC
S31508000678E4E700BF00200240040000202DE9F0410D
S315080006881646284A1278012A49D004460D4698463D
S31508000698244B01221A704FF47A70FFF7BFFF0746FA
S315080006A808BB204B00225A601F4B1B6813F4806F47
S315080006B81FD01D4A136823F480631360194B02225E
S315080006C81A77D4B1631E012B1ED900244FF47A7009
S315080006D8FFF7A4FF074624B1134A536923EA04031C
S315080006E8536100F0FBFA0F4B00221A703846BDE832
S315080006F8F0810C4B00221A77E3E732464346284630
S31508000708FFF740FF0124E1E731462846FFF74AFF8D
S31508000718022C01D00024D9E74FF48024D6E7022713
S31508000728E4E700BF0400002000200240044B9B6851
S31508000738C3F30313034AD35C03F01F03D840704777
S3150800074800100240642B0008044B9B68C3F302237D
S31508000758034AD35C03F01F03D840704700100240D1
S315080007685C2B0008044B9B68C3F3C223034AD35C7B
S3150800077803F01F03D8407047001002405C2B00089E
S315080007880E4BDB6803F00303032B14D00C480B4A03
S31508000798D368C3F3062303FB00F0D368C3F3031334
S315080007A80133B0FBF3F0D368C3F3416301335B004D
S315080007B8B0FBF3F070470348E9E700BF00100240B2
S315080007C80024F40000366E0108B5074B9B6803F051
S315080007D80C03082B04D00C2B04D1FFF7D1FF08BD56
S315080007E80248FCE70248FAE70010024000366E01A4
S315080007F80024F4000E4BDB6803F00303032B14D024
S315080008080C480B4AD368C3F3062303FB00F0D368E6
S31508000818C3F303130133B0FBF3F0D368C3F34153AF
S3150800082801335B00B0FBF3F070470348E9E700BF04
S31508000838001002400024F40000366E011D4A1368B1
S3150800084843F48073136000E033B91A4B1B6813F43A
S315080008588063F9D00123F7E716494A6822F0FE4271
S3150800086842F080424A6001228A60124A926802F07F
S315080008780C02042AF9D10F4A4FF4807111601160ED
S3150800088800E032B10B4A126812F00072F9D01A4623
S31508000898F7E7084B4FF48052DA600020986140F277
S315080008A83B721A62D3F8942042F40002C3F89420E3
S315080008B8704700BF0010024008B5032805D00C2869
S315080008C82CD0302853D0002008BD3D4BD3F88830AB
S315080008D8034043EA00433B4A934208D0B3F1031F57
S315080008E80CD0013A934212D1FFF76EFFECE7344B6E
S315080008F8186810F48060E7D03348E5E7304BD3F83A
S31508000908900010F00200DFD04FF40040DCE7FFF754
S315080009185BFFFFF70BFFFFF725FFD5E7284BD3F853
S315080009288830034043EA0043284A934208D0B3F183
S315080009380C1F0CD0043A934212D1FFF745FFC3E7C0
S315080009481F4B186810F48060BED01F48BCE71C4BC4
S31508000958D3F8900010F00200B6D04FF40040B3E781
S31508000968FFF732FFFFF7E2FEFFF7EEFEACE7144BA0
S31508000978D3F88830034043EA0043154A934208D01F
S31508000988B3F1301F0CD0103A934212D1FFF71CFF6F
S315080009989AE70B4B186810F4806095D00A4893E7D5
S315080009A8074BD3F8900010F002008DD04FF40040A2
S315080009B88AE7FFF709FFFFF7B9FEFFF7C5FE83E7E2
S315080009C800100240020003000024F40008000C008E
S315080009D82000300010B50446C02804D00020B4F51D
S315080009E8407F29D010BD294BD3F88830034043EA05
S315080009F80043274A934208D0B3F1C01F0CD0403AA7
S31508000A08934212D1FFF7E0FEE9E7204B186810F485
S31508000A188060E4D01F48E2E71C4BD3F8900010F03A
S31508000A280200DCD04FF40040D9E7FFF7CDFEFFF708
S31508000A387DFEFFF789FED2E7144BD3F888302340AA
S31508000A4843EA0443144A934209D0B3F1032F0DD05D
S31508000A58A2F58072934212D1FFF7B6FEC2E70B4B96
S31508000A681B6813F4806FBDD00A48BBE7074BD3F859
S31508000A78903013F0020FB5D04FF40040B2E7FFF7F5
S31508000A88A3FEFFF753FEFFF75FFEABE70010024031
S31508000A988000C0000024F4000002000308B5144BC7
S31508000AA8D3F888301840B0F1807F0AD0B0F1007FBB
S31508000AB813D0C8B90E4B186810F4003013D00D4877
S31508000AC811E00B4B186810F000700CD0D86810F4B9
S31508000AD8801008D0FFF78EFE05E0FFF775FEFFF7D2
S31508000AE825FEFFF731FE08BD4FF0FF30FBE700BFD4
S31508000AF80010024000366E01014B1860704700BFAF
S31508000B08000000200B2A28D810B4019C7CB1B3F544
S31508000B18004F0FD0D2B2114B53F82230B1FBF3F184
S31508000B28019B01EB5301B1FBF3F189B2C1605DF892
S31508000B38044B7047D2B2094B53F82220B1FBF2F2A4
S31508000B48630803EB4203B3FBF4F34FF6F0721A405B
S31508000B58C3F342031343C360E9E77047742B0008DD
S31508000B68036813F0010F57D130B583B004460D4614
S31508000B7803682A4A1A408B6809690B4369690B4353
S31508000B88E9690B431A430260EB68426822F440524B
S31508000B9813434360AB69826822F440721343836047
S31508000BA81F4B984214D01F4B984219D01E4B984297
S31508000BB81AD01E4B98421BD01D4B98421CD00120B8
S31508000BC8E26A22F00F022B881343E36203B030BDB2
S31508000BD80320FFF771FEE8B16B6893B90120EFE7C8
S31508000BE80C20FFF769FEF6E73020FFF765FEF2E707
S31508000BF8C020FFF7EFFEEEE74FF44070FFF7EAFE76
S31508000C08E9E70093EB692A6801462046FFF77AFF69
S31508000C180020D5E70120D3E701207047F369FFEFE5
S31508000C28003801400044004000480040004C00409D
S31508000C3800500040114B1B6A13F4800F10D010F0B7
S31508000C48010F04D00D4A536943F00403536110F0A9
S31508000C58020F0CD0094A536943F40043536106E06E
S31508000C68064A536943F4004343F004035361034AAD
S31508000C78536943F480335361704700BF002002402C
S31508000C88154B1B6A13F4800F16D1134A536923F4BC
S31508000C9800635361104B5A6922F47E72C00000F44F
S31508000CA8FF6002435A615A6942F002025A615A6958
S31508000CB842F480325A61704711F0010F05D0064A8E
S31508000CC8536923F400635361E4E7034A536943F419
S31508000CD800635361DEE700BF00200240164B1B7F06
S31508000CE8DBB2012B01D0032B10D1144A116821F469
S31508000CF800711160116841F400611160116821F4EE
S31508000D0800611160116841F400711160023BDBB2A1
S31508000D18012B03D9084B00221A777047074B1A6824
S31508000D2842F480521A601A6822F480521A601A68C5
S31508000D3842F480621A60EDE70400002000200240B1
S31508000D48F8B53A4B1B78012B6DD004460E46374B3F
S31508000D5801221A704FF47A70FFF760FC07460028DC
S31508000D685CD1324B00225A60314B1B6813F4007F62
S31508000D782FD02F4B1B6813F4806F26D02C4A136884
S31508000D8823F480631360294B03221A772368012BFF
S31508000D9831D04FF0FF333360A568A368E26813447F
S31508000DA8AB4239D961682846FFF76AFF4FF47A706B
S31508000DB8FFF734FC1E4A536923F47E7323F00203B3
S31508000DC85361074638BB0135E7E7184B01221A77FE
S31508000DD8DCE7174B1B6813F4806F08D0144A1368AE
S31508000DE823F480631360114B02221A77CEE70F4B60
S31508000DF800221A77CAE76068FFF71CFF4FF47A7073
S31508000E08FFF70CFC07460A4A536923F4004323F004
S31508000E180403536100E03560FFF760FF034B0022C7
S31508000E281A703846F8BD0227FBE700BF0400002001
S31508000E3800200240002808DB0901C9B200F1604019
S31508000E4800F5614080F80013704700F00F000901AB
S31508000E58C9B2014B1954704714ED00E000B500F00B
S31508000E680700C0F1070CBCF1040F28BF4FF0040CAB
S31508000E78031D062B0FD9C31E4FF0FF3E0EFA0CF0C2
S31508000E8821EA000199400EFA03FE22EA0E0241EA17
S31508000E9802005DF804FB0023EEE70000074AD36862
S31508000EA823F4E0631B041B0C000200F4E060034310
S31508000EB843F0BF6343F40033D360704700ED00E0A6
S31508000EC810B50446054BD868C0F30220FFF7C6FFDD
S31508000ED801462046FFF7AEFF10BD00BF00ED00E053
S31508000EE80138B0F1807F0BD24FF0E0235861054AEC
S31508000EF8F02182F823100020986107221A617047AA
S31508000F080120704700ED00E010B5094B4FF0FF329D
S31508000F189A6300249C631A641C649A629C62DA6267
S31508000F28DC621A631C6300F08FFC204610BD00BF04
S31508000F3800100240104B1B680BB90120704710B50A
S31508000F4804464FF47A70B0FBF3F30C4A1068B0FB0A
S31508000F58F3F0FFF7C5FF68B90F2C01D901200AE09D
S31508000F68002221464FF0FF30FFF7AAFF044B1C600A
S31508000F78002000E0012010BD240000200000002009
S31508000F882800002010B50320FFF788FF0020FFF788
S31508000F98D1FF10B10124204610BD044600F0CCFB51
S31508000FA8F9E7000010B402681D4B9A4228D01D497B
S31508000FB81D4B9A4226D00164D2F8803023F4F813E0
S31508000FC8446B43EA0443C2F8803001F17003436472
S31508000FD80268D2F8803023F07063846B43EA0463AE
S31508000FE8C2F8803001F1B003836401F5C473C364A1
S31508000FF801F51873036501F51E7343650B4607E08B
S315080010080A49D5E701F5D461D5E7002243F8042B48
S3150800101801F554729A42F8D85DF8044B704700BF38
S315080010280068004000A40040006C004050A700403B
S3150800103870B54C68ECB90D698C6825430C6845EAA7
S315080010488445CC690E6A44EA06648E6934434E6957
S315080010583443CE6844EA0644406D03EBC30300EB09
S31508001068C30E40F83350CEF804400EF1080E00209F
S3150800107819E00C698D6825430C68254345F08045B9
S31508001088DFE702EB000C9CF803409CF802301B04CF
S3150800109843EA04639CF8014043EA0423145C2343A7
S315080010A84EF8043B0430CB68024CE35C8342E8D82C
S315080010B870BD00BFA42B000870470000002800F088
S315080010C8E38038B5044690F85C30D3B12268936952
S315080010D823F01003936101F011F8054623689A690D
S315080010E812F0080F12D001F009F8401B0A28F5D9A2
S315080010F8236E43F001032366032384F85C3001203A
S3150800110838BD80F85D30FFF7D7FFDFE79A6942F008
S3150800111801029A6100F0F2FF054623689A6912F0FF
S31508001128010F0DD100F0EAFF401B0A28F5D9236EF6
S3150800113843F001032366032384F85C300120DFE7C4
S315080011489A6942F002029A612268504B9A4242D042
S31508001158237C012B45D02268936943F040039361A9
S31508001168637C012B43D02268936923F480439361F7
S31508001178A37C012B41D02268936943F48053936179
S315080011882268936923F44073A1680B439361226824
S31508001198936923F0A40393612268136923F0100363
S315080011A81361E368012B2ED0002B31D0022B54D0C3
S315080011B82268936943F0800393612268136943F0B0
S315080011C810031361E368032B22D12268936943F05D
S315080011D8200393611CE06268A3F58063C3F80025C1
S315080011E8B6E72268936923F040039361B8E7226853
S315080011F8936943F480439361BAE72268936923F4B1
S3150800120880539361BCE72268936943F004039361AA
S31508001218A3695A1EE369013B1B0243EA4263226A31
S31508001228013A13436269013A216843EA0243CB61EA
S31508001238A368B3F5407F16D02268D2F8C030E16BB0
S315080012480B43C2F8C0302046FFF7ACFE0020A06565
S315080012582066012384F85C3052E72268936943F0D4
S3150800126820039361D4E7A36A013BE26A013A43EA99
S315080012780223226B013A43EA0213626A013A216899
S3150800128843EA0243CB60D7E7012070470064004071
S3150800129890F85C30013BDBB2012B05D9036E43F0AD
S315080012A802030366012070470B68A3B110B4CA6825
S315080012B80B6943EA42724B698C6843EA8473406C4B
S315080012C8496800EBC10C40F83120CCF804300020FE
S315080012D85DF8044B70478A68CB68DB0643EA827375
S315080012E80A6943EA02434A691343026C496842F8A1
S315080012F821300020704790F85CC05FFA8CFCBCF17E
S31508001308010F05D0036E43F00403036601207047F6
S3150800131810B40468D4F8800020F03F00920042EA2E
S31508001328011242EA4303019A1A430243C4F8802089
S3150800133800205DF8044B704790F85C30DBB2012B4F
S3150800134805D0036E43F004030366012070470223A1
S3150800135880F85C300268936923F0010393610023DF
S3150800136803661846704738B5044690F85C30DBB211
S31508001378022B1BD10368D3F8C40010F4001F05D04C
S31508001388236E43F400732366012014E0D3F8C4508F
S31508001398C5F301452B462046FFF74AFE2268012376
S315080013A8AB40C2F8CC30A365002004E0036E43F0D6
S315080013B808030366012038BD806D704770B590F83C
S315080013C85C40E4B2022C40F0958040290BD00468B2
S315080013D8D4F8985015F00F0F27D1036E43F480738D
S315080013E8036601208BE00468D4F8905015F00F0FB7
S315080013F805D1036E43F48073036601207FE0D4F8B1
S31508001408906016F0807605D0D4F8806016F40076D9
S3150800141800D00126D4F89040C4F301242644846CED
S3150800142806EBC60504EBC50E14E0D4F8986016F06A
S31508001438807605D0D4F8806016F4807600D0012628
S31508001448D4F89840C4F301242644C46C06EBC605B0
S3150800145804EBC50EDEF8004004F08044546064BB13
S31508001468DEF80040C4F38A441460DEF8004004F04D
S3150800147800549460DEF8004004F000441461BEF895
S315080014880440D461BEF8064004F00F04D460DEF8C0
S31508001498044004F480145461DEF8044004F400148B
S315080014A894619EF8074004F07F041462DEF804404D
S315080014B8E40F54624FF0000C0CE0DEF8004024F00C
S315080014C860441460D1E70EEB0C04247A03F80C4048
S315080014D80CF1010CD4680A4D2C5D6445F3D84029F3
S315080014E804D00368C3F89C60002008E00368C3F8C2
S315080014F89460F9E7036E43F008030366012070BD9C
S31508001508A42B00080368D3F8C800084000D00120B7
S315080015187047402905D00368D3F8980000F00F00F3
S3150800152870470368D3F8900000F00F007047000072
S31508001538014B1880704700BF5400002008B500F01A
S31508001548D5FD0F4B1B68984210D30E4B1B7873B901
S315080015580C4B01221A704FF0904320229A6100F032
S31508001568C5FD094B1B880344054A136008BD054B8E
S3150800157800221A704FF0904320229A62EFE700BFC4
S31508001588500000204C000020540000204FF09043E3
S3150800159820229A627047000008B5054B1B6913F4A8
S315080015A8005F03D1FFF7F2FF012008BD0020FCE722
S315080015B80008004808B56420FFF7BAFF08BD08B553
S315080015C8FFF7BCFF08BD000008B54A4A136823F0B0
S315080015D80F0343F004031360464B1B6803F00F031D
S315080015E8042BF9D1444AD2F8803023F48073C2F820
S315080015F8803002F5D032136843F48033136001E073
S31508001608012B06D03D4B1B6813F40033F8D0012391
S31508001618F6E73A4AD0683A49014041F4205141F080
S315080016282301D160D1683748084037490143D1605A
S31508001638D16841F08071D160D16841F48011D160D8
S31508001648116841F08071116001E0012A06D02B4A21
S31508001658126812F00072F8D01A46F6E7274A936815
S3150800166843F003039360936823F0F00343F0800381
S315080016789360224B9B6803F00C030C2BF9D1234A81
S31508001688D2F8FC3043F08073C2F8FC30204B1A6855
S3150800169842F001021A6000225A601D4B5B68632BF0
S315080016A8FBD9164B9A6822F0F0029A609A6822F4D7
S315080016B8E0629A609A6822F460529A601548FFF7C1
S315080016C81BFA0020FFF736FC78B90C4AD2F888309E
S315080016D823F0407343F08073C2F88830D2F8883014
S315080016E823F00C03C2F8883008BD9A210A4800F08E
S315080016F8E8F8EAE7002002400070004000100240BF
S315080017080C80FFF90C809FFF2328200000ED00E0DD
S31508001718001000E000688909B42B000808B5FFF72F
S3150800172831FCFFF751FF08BD08B5FFF7F7FF00F0D2
S31508001738D4F800F0E0F8FCE770B58EB03E4B1A6EA8
S3150800174842F001021A661A6E02F001020792079A17
S315080017589A6D42F080529A659A6D02F08052069206
S31508001768069A36498A6842F480428A60DA6C42F0F8
S315080017780102DA64DA6C02F001020592059ADA6C5B
S3150800178842F00202DA64DA6C02F002020492049A5F
S31508001798DA6C42F00402DA64DA6C02F004020392A4
S315080017A8039A9A6D42F400329A659A6D02F40032E9
S315080017B80292029A9A6D42F000729A659B6D03F03E
S315080017C800730193019B202508950123099300249A
S315080017D80A940B940C940DEB05014FF09040FEF714
S315080017E88DFE4FF09046B5624FF40053089309945E
S315080017F80C940DEB05011248FEF780FE0C2308939E
S31508001808022509950A940B940C9407230D9308A9A5
S315080018183046FEF773FE4FF4407308930995032381
S315080018280A930B940C9409230D9308A90548FEF707
S3150800183865FE0EB070BD00BF001002400070004083
S31508001848000800480004004810B5FEF7F7FF4FF0F7
S3150800185890442023A3621648FEF7CCFD1548FEF7E8
S31508001868C9FD2046FEF7C6FD134B9A6D22F0007295
S315080018789A659A6D22F400329A65DA6C22F00102AA
S31508001888DA64DA6C22F00202DA64DA6C22F004020C
S31508001898DA640A498A6822F480428A609A6D22F0D4
S315080018A880529A651A6E22F001021A6610BD00BFA8
S315080018B80008004800040048001002400070004074
S315080018C8704708B500F005F8FCE708B5FFF772FE9B
S315080018D808BD08B5FFF773FE08BD08B501F0AEF8F0
S315080018E8FFF7F3FF00F078FB01F0DCF800F05CF88E
S315080018F800F03EF808BD08B5FFF7EBFF00F0CEFB91
S3150800190800F0D0F800F002F808BD000008B500F0AD
S31508001918A1F8012803D00B4B1B78012B00D008BD72
S3150800192800F0E4FB084B1B68084A1268134403F5E1
S31508001938FA739842F3D3034B00221A7001F082F81F
S31508001948EDE700BF60000020580000205C0000207A
S3150800195808B5054B1B78012B00D008BD00F0C6FB5F
S31508001968024B1860F9E700BF600000205C00002001
S3150800197808B5044B01221A70FFF7EAFFFFF7C6FFFE
S3150800198808BD00BF6000002008B500F0AFFB014B9A
S31508001998186008BDE800002008B5024B1870FFF764
S315080019A8F3FF08BDEC00002010B50020FFF7F4FF90
S315080019B800F068FA00F0EEFC034C0223237000F0EE
S315080019C8C5FB0023237010BD2C00002008B5002095
S315080019D8FFF7E2FF08BD000038B504460D460A4B76
S315080019E81B78022B07D0084B1B7843B100F064FA22
S315080019F8FFF7CAFF38BDC9B200F03AFDF3E7E9B206
S31508001A08204600F0C9FBF1E72C000020074B1B789D
S31508001A18032B05D0042B05D0022B05D108207047C7
S31508001A283F2070473F207047812070472C000020D0
S31508001A38074B1B78032B05D0042B05D0022B05D1A1
S31508001A48082070473F2070473F207047812070471D
S31508001A582C00002008B500F027FA00B1012008BDBF
S31508001A6810B5FFF7F7FF012802D00024204610BD5D
S31508001A780A4B1C78012C01D00024F7E700F036FB46
S31508001A88074B1B68C01A41F28733984201D80024CD
S31508001A98ECE70020FFF780FFE8E700BFEC0000202E
S31508001AA8E800002000B583B00DF10701134800F0DF
S31508001AB81DFD01280BD00DF10701104800F088FB21
S31508001AC801280FD0FFF7CCFF03B05DF804FB0C4BD9
S31508001AD802221A70FFF760FF9DF80710074800F002
S31508001AE8F3F9E8E7064B00221A70FFF755FF9DF849
S31508001AF80710024800F0E8F9E4E700BF6400002090
S31508001B082C000020024B002283F88220704700BF71
S31508001B18F0000020034BFE221A7059700222A3F81F
S31508001B2886207047F00000200378427843EA0223AB
S31508001B38827843EA0243C07843EA0060704708702F
S31508001B48C0F307234B70C0F307438B70000EC870A9
S31508001B587047000010B5064C002384F88130FFF75B
S31508001B68D1FFFF2323700123A4F8863010BD00BFD8
S31508001B78F0000020074BFF221A7000225A7093F8CB
S31508001B8882109970DA701A715A710622A3F886209B
S31508001B98704700BFF000002008B500210078FFF75D
S31508001BA8B9FF08BD10B5094CFF232370084BC4F8C4
S31508001BB8883000236370A370E370211D0720FFF7A0
S31508001BC8BEFF0823A4F8863010BD00BFF000002029
S31508001BD8342C000810B5064CFF2323700430FFF791
S31508001BE8A3FFC4F888000123A4F8863010BD00BFF7
S31508001BF8F000002008B531210078FFF78BFF08BDF3
S31508001C0808B520210078FFF785FF08BD38B5084CC8
S31508001C18FF23237000256570A570FFF7F7FEE070AF
S31508001C2825716571A5710723A4F8863038BD00BFEC
S31508001C38F000002038B5FFF765FF0F4C012584F83A
S31508001C488150FF2323700023637010226270A370EB
S31508001C58FFF7DCFEE070FFF7EBFE2071FFF7E8FE02
S31508001C68C0F307206071A571E5710823A4F88630CA
S31508001C7800F018FF38BD00BFF000002038B504464C
S31508001C88FFF7C4FE6278904212D90C4DD5F8881031
S31508001C98681C00F0F7FEFF232B70D5F888306278A9
S31508001CA81344C5F8883063780133A5F8863038BDFB
S31508001CB822212078FFF72EFFF9E700BFF000002061
S31508001CC838B50446FFF7A2FE6378984217D9201D4F
S31508001CD8FFF72AFF01460C4DC5F888006278681C8C
S31508001CE800F0D0FEFF232B70D5F8883062781344AD
S31508001CF8C5F8883063780133A5F8863038BD2221BF
S31508001D082078FFF707FFF9E7F0000020F8B5054641
S31508001D181746002406E015F8013B1C44E4B2FFF711
S31508001D28D8FD31464E1E0029F5D13C600120F8BD84
S31508001D3830B583B0002501950B4CFF23237004307A
S31508001D48FFF7F2FE014601AAD4F88800FFF7DEFF7E
S31508001D586070211D0198FFF7F2FEA570E57008234B
S31508001D68A4F8863003B030BDF000002038B5044624
S31508001D780F4BD3F88850FFF749FE621C411E2846C8
S31508001D8800F094FE70B10A4CFF232370FFF73EFE5D
S31508001D98D4F8883001380344C4F888300123A4F8F5
S31508001DA8863038BD31212078FFF7B4FEF9E700BF41
S31508001DB8F000002010B50446FFF728FE01386378BE
S31508001DC8984216DD144BFF221A700122A3F88620C2
S31508001DD8617899B1A21C104BD3F8880000F066FE0A
S31508001DE8A8B10D4AD2F8883061780B44C2F8883011
S31508001DF810BD22212078FFF78DFEF9E700F066FE70
S31508001E080028F5D131212078FFF784FEF0E7312143
S31508001E182078FFF77FFEEBE7F000002038B5044688
S31508001E280B4BD3F888500430FFF77EFE0146284648
S31508001E3800F040FE30B1064BFF221A700122A3F8C3
S31508001E48862038BD31212078FFF764FEF9E700BF00
S31508001E58F000002010B500F0F5FD064C002384F8C4
S31508001E688130FFF74FFEFF2323700123A4F886303D
S31508001E7810BD00BFF000002008B589B2FFF7ACFD19
S31508001E8808BD0000074B002283F88120C3F8882084
S31508001E9883F88420A3F8862083F8832083F8822091
S31508001EA8704700BFF0000020024B93F8810000B18C
S31508001EB801207047F0000020024B002283F8842096
S31508001EC8704700BFF000002010B504460078FF28C8
S31508001ED825D0404B93F88130012B2DD1A0F1C903A9
S31508001EE8352B66D8DFE803F04965655D6565594DA4
S31508001EF855516565656565656565656565656565A0
S31508001F08656565656565656565656565656565656B
S31508001F186165352D293165656539653D4145204633
S31508001F28FFF788FE2B4B93F88430012B45D0294BB5
S31508001F38B3F98610002945DC10BD2046FFF79EFE3A
S31508001F48F0E72046FFF7BCFEECE72046FFF742FE1F
S31508001F58E8E72046FFF7ECFEE4E72046FFF722FE0F
S31508001F68E0E72046FFF718FEDCE72046FFF702FE03
S31508001F78D8E72046FFF7EEFDD4E72046FFF7F6FE3A
S31508001F88D0E72046FFF716FFCCE72046FFF73EFEC8
S31508001F98C8E72046FFF742FFC4E72046FFF75AFF7F
S31508001FA8C0E72046FFF726FEBCE72046FFF728FECF
S31508001FB8B8E72021FFF7AEFDB4E710212078FFF730
S31508001FC8A9FDB4E71846012380F88430FFF754FFC3
S31508001FD8B2E700BFF000002082B01B4B1A6E42F42D
S31508001FE800621A661A6E02F400620192019A174A8A
S31508001FF812689968C1F3C2211548415C01F01F01AE
S31508002008CA409B6813F4605F1BD1012302FB03F3E4
S31508002018104A012111604FF6FF71D1625B090E491A
S31508002028A1FB0313DB09013B9362536943F00103E0
S3150800203853610A4B00211960526A094B1A8002B08B
S3150800204870470223E2E700BF0010024000000020A4
S315080020585C2B0008002C0140C55A7C0A8001002028
S315080020687C0100200C4B1A6C42F400621A641A6C44
S3150800207822F400621A641A6E22F400621A664FF095
S31508002088E02300221A615A619A6103F550634FF0FA
S3150800209800725A60704700BF001002400F4B5B6A17
S315080020A89BB20F4A11885B1A9BB2632B15D910B4D9
S315080020B80C4AA2FB03235A090B4C206800EB531061
S315080020C8206002EB820303EB83039A0092B2114461
S315080020D8034B19805DF8044B70477047002C014084
S315080020E87C0100201F85EB518001002008B5FFF709
S315080020F8D5FF014B186808BD8001002008B5FFF711
S31508002108F5FF08BD054BDB6913F0200F04D0034B18
S315080021185B6A03700120704700207047004400403E
S3150800212810B5094B9862FFF7E1FF00F10A04064B60
S31508002138DB6913F0800F05D1FFF7CBFBFFF7D6FF56
S31508002148A042F4D910BD00BF0044004010B588B0BD
S3150800215820220021684600F0C5FC0E4C236823F0AF
S3150800216801032360042300934FF46143019300237A
S315080021780293039304930C220592069307936946E0
S315080021882046FEF7EDFC236843F00103236008B0F8
S3150800219810BD00BF0044004070B506460D468129AB
S315080021A804D82846FFF7BCFF00240BE09821074807
S315080021B8FFF787FBF5E7FFF78CFB305DFFF7B0FF06
S315080021C80134A4B2A542F6D870BD00BFBC2B0008DE
S315080021D870B5254B1C78BCB92448FFF793FF01282E
S315080021E801D0204670BD214B1B78013BDBB2802B02
S315080021F8F7D8FFF77BFF1E4B18601E4B00221A7094
S31508002208194B01221A70ECE706460D46194B1B783E
S31508002218013316481844FFF775FF0446012815D1F7
S31508002228144B1A780132D2B21A70104B1B789A429C
S3150800223801D00024D5E71049304600F023FC0A4BA4
S3150800224800221A700B4B1B782B70CAE7FFF74EFF54
S31508002258074B1B68C833984203D90024024B1C70E5
S31508002268BFE70024BDE700BF100200208C0100204C
S3150800227888010020840100208D0100202DE9F04FF7
S3150800228883B0A0F51C53103B404CA34274D80029D0
S3150800229876D0002A76D00D898B89019305EB030C35
S315080022A81FFA8CFC0CF1010C1FFA8CFC4E89B1F84C
S315080022B80E8006EB080E1FFA8EFE0EF1010E1FFAA7
S315080022C88EFE8B8804E00120D08056E001339BB24D
S315080022D8CC889C424ED30C6800FB0CF94C4553D36A
S315080022E8B4FBF3F903FB1947002FEFD14C46B9FBAA
S315080022F8F0F900FB1949B9F1000FE7D1B4FBF0F47E
S315080023081FFA84F9CC45E1D8CE45DFD34C464FEAC7
S31508002318490A0AF1090ADFF878B0ABFB0AAB4FEAB3
S31508002328DB0AA9EBDB091FFA89F909F1FF391FFA54
S3150800233889F94D45CAD84E45C8D3019F5745C5D8CA
S31508002348D045C3D34FF0640B09FB0BBBBBFBF4F4B6
S31508002358E4B2413CE4B20F2CB8D81380A2F8029034
S31508002368A2F804A04FEA5A03D380BAF1010FAAD9F2
S31508002378012002E0002000E0002003B0BDE8F08F4D
S315080023880020FAE70020F8E70020F6E7F0EA7900E7
S31508002398CDCCCCCC70B58EB00023029303933048CD
S315080023A8304B0360FEF788FE4FF04070FEF776FB69
S315080023B804900123ADF814304FF40072ADF81620D6
S315080023C8ADF818304FF48072ADF81A20ADF81C3005
S315080023D88023ADF81E3002AA04A92348FFF74EFF4A
S315080023E8002836D01E4C00266660A660E6600125E1
S315080023F825746574A674BDF808306361BDF80A309B
S31508002408E361BDF80C302362BDF80E30A36165623E
S31508002418A562E56225636563A663E6632046FEF75B
S315080024284DFE089609960A950B9540F267630C9334
S315080024380D9308A92046FEF72BFF00952B46022286
S3150800244811462046FEF757FF2046FEF775FF0EB0E1
S3150800245870BD4FF49F710548FFF733FAC2E700BF0E
S31508002468140200200064004020A10700E42B00089D
S3150800247830B58BB005460C4608291BD840F2E173DF
S315080024880193002302930393079305930893522213
S31508002498099206930494134C2A4601A92046FEF786
S315080024A862FF05462046FEF787FF044605B938B990
S315080024B80BB030BD4FF4DC710B48FFF702FADDE7C5
S315080024C8FFF714FE00F1320521460648FFF71AF809
S315080024D80028EDD0FFF7FDF9FFF708FEA842F3D963
S315080024E8E6E700BF14020020E42B000830B58BB0DD
S315080024F804460D4640211348FFF70BF810B900208B
S315080025080BB030BD23466A4640210E48FEF756FFF3
S31508002518A8B9009A40F267639A42F1D1019B002B49
S31508002528EED19DF80C302B70082B01D80120E7E76F
S3150800253840F237210448FFF7C4F90120E0E70020F4
S31508002548DEE700BF14020020E42B0008054B1B6ACF
S3150800255813F4800F02D04FF4006070474FF4805090
S31508002568704700BF00200240074B1B6A13F4800F10
S3150800257806D0012801D0054870474FF0006070471B
S315080025884FF00060704700BF0020024000000408B2
S31508002598064B1B6A13F4800F04D0054B984203D8E0
S315080025A8012070470120704702207047002002402A
S315080025B8FFFF030838B50546002401E00134E4B2F4
S315080025C8222C0ED8FFF785F9074B53F83430AB425F
S315080025D8F4D8054A02EBC40252681344AB42EDD953
S315080025E800E0FF24204638BD3C2C000808B5C1F396
S315080025F8080363B903688B4201D1012008E040F853
S31508002608041B4FF4007200F03DFA012000E0002098
S3150800261808BD2DE9F84380460068FFF7CBFFFF2879
S3150800262804D14FF000094846BDE8F883FDF7D0FF06
S31508002638002500E001353F2D18D8D8F8004004EBEE
S31508002648C50408EBC503D3E90167FFF742F9324623
S315080026583B4621460020FEF711F8814648B9D4E9D9
S315080026680023BB4208BFB242E4D004E04FF0010998
S3150800267801E04FF00009FDF7C3FFD4E770B50D4632
S315080026880E4B984212D004460D4B994209D10B4E6F
S31508002698344626B129462046FFF7A8FF58B13046E2
S315080026A870BDFFF7B6FF20B12646F2E7054E344659
S315080026B8EFE70026EDE70026F1E700BF78020020DD
S315080026C8003000087C0400202DE9F04106460C4637
S315080026D817461D4621F4FF7828F001080368B3F168
S315080026E8FF3F07D03368434509D13368E41A3444B1
S315080026F8043413E04146FFF779FF08B3F2E7414689
S315080027083046FFF7BBFF06460028EED1002017E043
S3150800271817F8013B04F8013B013D10D0FFF7D9F83B
S31508002728311D611AB1F5007FF2D3316801F50071E0
S315080027383046FFF7A3FF064620B1041DE8E7012047
S31508002748BDE8F0810020FBE770B504461E4BB3F8D8
S31508002758E0304FF6FF72934224D01C4AD2F8E0259F
S315080027681B4E06EA42261B4A126A12F4800F09D142
S315080027784FF6FF72934218D0144BD3F8E035164E2D
S3150800278806EA83262046FFF703FFFFF7EDFE054610
S3150800279884420DD3641BA64210D3FFF7D7FEB4FBB9
S315080027A8F0F070BD4FF48026DDE74FF40026E9E720
S315080027B840F2DB310948FFF784F8EBE74FF4787104
S315080027C80648FFF77EF8E8E70075FF1F0070FF1F49
S315080027D800FEFF010020024000FCFF030C2C000845
S315080027E8F0B587B0002305930193029303930493E6
S315080027F8884243D804460E46222901D900243EE0D9
S31508002808FDF7E6FE1F4B4FF400421A61B44229D879
S31508002818FFF75FF81C4B53F8347003EBC4035D6885
S31508002828B7F1FF3F22D01DB3FFF790FEB5FBF0F3D3
S3150800283800FB1353F3B9FFF789FEB5FBF0F5002340
S3150800284801933846FFF7A4FE02903846FFF77CFF47
S315080028580390049505A901A8FEF772FA60B9013430
S31508002868E4B2D3E70124FDF7CBFE08E00024FAE733
S315080028780024F8E70024F6E70024F4E700242046B5
S3150800288807B0F0BD002002403C2C00084FF0FF338B
S31508002898044A1360044A1360044A136843F48073AD
S315080028A8136070477C04002078020020002002404C
S315080028B870B50D460139154B1B1A994201D90020E6
S315080028C870BD04461646FFF775FEFF2801D100209D
S315080028D8F6E728190138FFF76DFEFF2814D024F407
S315080028E8FF7222F001020A4B9A4206D02B4632465C
S315080028F821460848FFF7E8FEE2E72B463246214616
S315080029080548FFF7E1FEDBE70020D9E7FFFF0708E0
S31508002918003000087C0400207802002070B50C46B8
S315080029284A1E104B1B1A9A4205D900263146002022
S31508002938012813D070BD0546FFF73CFE06462C4411
S31508002948601EFFF737FE0146FF2E03D0FF2803D087
S315080029580120EDE70020EBE70020E9E73046FFF71E
S315080029683FFFE7E7FFFF070800B583B00023019399
S31508002978134B1B68B3F1FF3F03D1012003B05DF881
S3150800298804FB0F4A5368019391680B440193D16875
S315080029980B44019311690B44019351690B44019344
S315080029A891690B440193D26913440193DA4301925E
S315080029B85B42019301AA04210248FFF779FFDDE784
S315080029C878020020D83100080A4B1A685968114459
S315080029D89A681144DA6811441A6911445A69114403
S315080029E89A690A44D3F8D831D34201D101207047ED
S315080029F8002070470030000808B50C4B1B68B3F177
S31508002A08FF3F06D10A4B1B68B3F1FF3F07D10120E8
S31508002A1808BD0648FFF7FDFD0028F9D0F2E7044887
S31508002A28FFF7F7FD0028F3D00120F1E77802002028
S31508002A387C040020004870470030000808B500F0FC
S31508002A484DF808BD10B500F039F800B910BDFEF705
S31508002A58A3FD0028FAD0FEF7B9FFFEF755FAFFF7E7
S31508002A6801FB00F02FF820F0604020F07F00044BAF
S31508002A78986000F027F8446800F032F8A047E5E7C0
S31508002A8800ED00E070B50D46044606E015F8013B72
S31508002A9804F8013BFEF71DFF3246531E9EB2002A74
S31508002AA8F4D170BD08B5FFF7F1FE08BD08B5FFF704
S31508002AB8FFFE08BD08B5FFF731FF08BD08B5FFF7E3
S31508002AC883FF08BD08B5FFF7B5FF08BD08B5FFF7CA
S31508002AD84BFF00B908BDFFF78FFFFBE772B67047D3
S31508002AE862B6704702440346934200D1704703F81A
S31508002AF8011BF9E770B50D4D0D4C641BA410002693
S31508002B08A64209D10B4D0C4C00F018F8641BA4100A
S31508002B180026A64205D170BD55F8043B98470136EC
S31508002B28EEE755F8043B98470136F2E7542D0008B6
S31508002B38542D0008542D0008582D0008F8B500BF74
S31508002B48F8BC08BC9E467047F8B500BFF8BC08BC78
S30908002B589E467047D0
S31508002B5C0000000001020304000000000000000051
S31508002B6C0102030406070809010000000200000020
S31508002B7C0400000006000000080000000A0000001F
S31508002B8C0C000000100000002000000040000000AF
S31508002B9C800000000001000000010203040506077E
S31508002BAC080C1014182030406D61696E2E630000F5
S31508002BBC2E2E2F2E2E2F2E2E2F536F757263652FBA
S31508002BCC41524D434D345F53544D333247342F7273
S31508002BDC733233322E6300002E2E2F2E2E2F2E2ECE
S31508002BEC2F536F757263652F41524D434D345F53A6
S31508002BFC544D333247342F63616E2E630000000048
S31508002C0C2E2E2F2E2E2F2E2E2F536F757263652F69
S31508002C1C41524D434D345F53544D333247342F662E
S31508002C2C6C6173682E6300004F70656E424C5400DD
S31508002C3C00300008001000000040000800100000DA
S31508002C4C005000080010000000600008001000008A
S31508002C5C007000080010000000800008004000000A
S31508002C6C00C00008004000000000010800400000F9
S31508002C7C00400108004000000080010800400000E8
S31508002C8C00C00108004000000000020800400000D7
S31508002C9C00400208004000000080020800400000C6
S31508002CAC00C00208004000000000030800400000B5
S31508002CBC00400308004000000080030800400000A4
S31508002CCC00C0030800400000000004080040000093
S31508002CDC0040040800400000008004080040000082
S31508002CEC00C0040800400000000005080040000071
S31508002CFC0040050800400000008005080040000060
S31508002D0C00C005080040000000000608004000004E
S31508002D1C004006080040000000800608004000003D
S31508002D2C00C006080040000000000708004000002C
S31508002D3C004007080040000000800708004000001B
S30D08002D4C00C007080040000062
S30908002D544102000822
S30908002D581902000846
S31508002D5C0024F40000000000000000000000000041
S31508002D6C0000000001000000000000000000000048
S31508002D7C0000000001000000100000000600000022
S705080002658B
