S01B00006F70656E626C745F656B5F6C6D3373363936352E737265632E
S1130000E8200020B96F0000CD6F0000CD6F000024
S1130010CD6F0000CD6F0000CD6F0000CD6F0000EC
S1130020CD6F0000CD6F0000CD6F0000CD6F0000DC
S1130030CD6F0000CD6F0000CD6F0000CD6F0000CC
S1130040CD6F0000CD6F0000CD6F0000CD6F0000BC
S1130050CD6F0000CD6F0000CD6F0000CD6F0000AC
S1130060CD6F0000CD6F0000CD6F0000CD6F00009C
S1130070CD6F0000CD6F0000CD6F0000CD6F00008C
S1130080CD6F0000CD6F0000CD6F0000CD6F00007C
S1130090CD6F0000CD6F0000CD6F0000CD6F00006C
S11300A0CD6F0000CD6F0000CD6F0000CD6F00005C
S11300B0CD6F0000CD6F0000CD6F0000CD6F00004C
S11300C0CD6F0000CD6F0000CD6F0000CD6F00003C
S11300D0CD6F0000CD6F0000CD6F0000CD6F00002C
S11300E0CD6F0000CD6F0000CD6F0000CD6F00001C
S11300F04178007807E0C178827842EA01224178A9
S1130100007841EA022140EA012070470170090A9F
S1130110417070470170090A4170090A8170090A27
S1130120C170704738B504460025207990B1226B20
S113013000F012F868B92071616A206BE269411A13
S1130140914207D2E378022B04D1121800F004F88C
S113015000E00125284632BD6078012304F1340112
S113016001F064BF70B504460D46206B002685423D
S113017010D02046FFF7D6FF06000BD1607801238C
S11301802A4604F1340101F01AFF10B14FF0FF3593
S113019001262563304670BD38B50446FFF7C2FF1B
S11301A0050030D12078032804BF6079012823D1C9
S11301B000F0D4F94AF6552104F23220FFF7A6FFE5
S11301C0124904F13400FFF7A5FF114904F5067044
S11301D0FFF7A0FF616904F50770FFF79BFF216932
S11301E004F50870FFF796FF226A6078521C2263B8
S11301F0FFF7B3FF0020607100226078002101F056
S11302005CFF00B10125284632BD00005252614115
S1130210727241618269891E921E914201D300204B
S11302207047C26A408901FB0021084670472DE9E6
S1130230F0410C460568012C4AD9A9698C4247D281
S1130240287801284FF0FF3604D041D303282FD05B
S11302501FD33DE0696A04EB540700F0CFFC00288B
S113026037D105F13400C7F308017F1C10F8018071
S1130270696A00F0C3FC60BB05F13400C7F30807EA
S1130280C15D48EA0126E00754BFC6F30B063609F0
S11302901FE0696A01EB142100F0B2FCC8B905F152
S11302A03400240600EBD450FFF722FF064610E08A
S11302B0696A01EBD41100F0A3FC50B905F13400D4
S11302C0640600EBD450FFF716FF20F0704600E000
S11302D001263046BDE8F0812DE9F0410F46012F9B
S11302E0044615464FF002086AD9A069874267D2CE
S11302F02178012904D063D3032948D036D35FE0A1
S1130300616A07EB570601EB562101F03DF85FEAFD
S1130310000855D104F13400C6F30801761C0844E2
S1130320FA0743BF017801F00F0141EA051129469C
S11303300170012020712046616A01EB5621FFF70C
S113034011FF5FEA00083BD104F13400C6F308064C
S11303508119FA0748BF2D0904D408782D0A65F3DA
S1130360030005460D700121217129E0616A01EB4A
S1130370172101F009F85FEA000821D104F13400E3
S11303803F06A9B200EBD750FFF7C0FE16E0616A42
S113039001EBD71100F0F8FF5FEA000810D104F177
S11303A034007F0600EBD7573846FFF7A4FE000F52
S11303B060F31F7529463846FFF7ACFE0120207113
S11303C04046BDE8F081F8B505460E462F68012E7B
S11303D0114629D9B869864226D229B14FF0FF3295
S11303E000F096F8010024D131462846FFF71FFF9C
S11303F004001DD0012C17D014F1010F16D00022D7
S1130400314600F085F8010013D1B8697969821E7C
S1130410914205D2491C7961797941F001017971E0
S113042026468642E0D303E00220F2BD0120F2BD5D
S11304300020F2BD2DE9F04180460C00D8F8007090
S113044006D13E6916B1B86986420ED301260CE086
S1130450FFF7EDFE012898BF012057D910F1010FD5
S113046054D0B969884251D32646786968B3A64204
S113047017D1B869751C854228BF02252946404614
S1130480FFF7D5FE012818BF10F1010F3ED038B197
S11304903869012805D9B969884202D2064600E0C4
S11304A0ADB93546B8696D1C854202D30225012ECB
S11304B00BD929464046FFF7BAFE40B1012818BFC0
S11304C010F1010F22D0B542ECD100201EE04FF014
S11304D0FF32294600F01CF890B924B12A4621467F
S11304E000F016F860B9B96978693D61891E8142E6
S11304F024BF401E7861787940F00100787104E0EF
S113050001280CBF4FF0FF3501252846BDE8F081D6
S11305103846E1E670B504460D46FFF703FED8B948
S113052029462046FFF776FE0546256300F016F8B7
S1130530002600E0761C6089864208D26078012398
S1130540721904F1340101F071FD0028F2D06089C0
S1130550864201D1002070BD012070BD4FF40071AE
S113056004F1340001F08CBE2DE9F04105460E463D
S11305702F68B6F5001F2ED216F01F0F2BD1AC68D2
S11305802E6154B93878032801DBBC6A2CB9398947
S1130590700988421FD2B86A19E0B7F80A8006E0E9
S11305A0022C18D3B869844215D2A6EB4826B6EBC0
S11305B0482F214608D32846FFF739FE044614F194
S11305C0010FEDD1012012E03846FFF723FEA861A8
S11305D06C61A86908B9022009E000EB5620A86103
S11305E0C6F30806B81900F13401E9610020BDE83A
S11305F0F0812DE9F0410646884634693768203495
S1130600B4F5001F20D2B06900B3E1053CD1401C11
S11306107169B06121B939896009884234D313E022
S11306207889401E10EA542F2ED13046FFF7FFFD83
S11306300546012D16D915F1010F1DD0B869854263
S11306401CD3B8F1000F03D10020B061042023E0D3
S113065071693046FFF7EEFE050008BF07201BD086
S1130660012D01D1022017E015F1010F04D0294614
S11306703846FFF74FFF08B101200DE075612946A8
S11306803846FFF7C7FDB0613461C4F30804381974
S113069000F13401F1610020BDE8F08170B5044639
S11306A00D4605F11A00FFF723FD217803290646BC
S11306B005D105F11400FFF71BFD46EA004630465C
S11306C070BD70B504460D461646B1B205F11A0068
S11306D0FFF71CFD2178032905D1310C05F1140025
S11306E0BDE8704012E570BD024600200B210306F0
S11306F05B0E03EBC01312F8010BC018491EF6D1B0
S1130700C0B270472DE9F24F064682B030680090BF
S1130710FF274FF00409B846B169002969D0009851
S1130720FFF720FD5FEA000963D1F4692078A0B3E4
S1130730E17A01F03F01B171E52818BF2E285ED09F
S113074021F02002082A14BF00220122029B9A42AF
S113075055D10F295CD1410606D594F80D80316935
S1130760F16200F0BF000746F9B2884204BF617B22
S1130770884544D1009800F0FAF800283FD1207849
S113078020F04000401E0D2545430FF260400190CB
S11307904FF0010A4FF0000B02E04FF004092BE088
S11307A0019810F80B106018FFF7A2FCBAF1000FC3
S11307B008D0B5F5807F3EBF824629F815A06D1C90
S11307C004D31CE04FF6FF71884218D10BF1010BE2
S11307D0BBF10D0FE4D32078410608D5BAF1000F20
S11307E005D0B5F5807F0AD2002029F815007F1EB8
S11307F006E05FEA090001D00020B061B4E0FF2701
S113080000213046FFF7F5FE5FEA000984D0F0E7E7
S11308104FF0FF35FFB20FB1F562EFE72046FFF767
S113082063FF8045EAD0F7E72DE9FE4F0646002135
S113083032680192FFF798FE5FEA000942D1FF2077
S113084000904FF0FF31FF27F162B1690198FFF783
S113085089FC5FEA000935D1F469207880B3E17A34
S113086001F03F01E528B17172D00A072BD50F2999
S11308706ED196F82B104A066ED4410606D5627BDB
S1130880009200F0BF003169F1620746F9B2884274
S113089002BF0098617B884245D1019800F067F857
S11308A0002840D1207800F03F00401E0D2101FBBC
S11308B000F80FF2383002904FF0010B002505E0EC
S11308C04FF0040950E00F292FD1D2E70298415D7F
S11308D06018FFF70DFCBBF1000F824610D0B8F58D
S11308E0807F20D201F01EFD834639F8180001F004
S11308F019FD08F10108834508BFD34604D012E06E
S11309004FF6FF7082450ED16D1C0D2DDED320787D
S1130910410606D5BBF1000F1CBF39F818000028AA
S113092001D17F1E18E0FF2716E0FFB22FB9009F08
S11309302046FFF7D9FE874216D096F82B00C10750
S113094006D4F0690B2206F1200101F02DFD58B107
S11309504FF0FF30FF27F06200213046FFF749FED9
S11309605FEA00093FF471AF4846BDE8FE8FD0F856
S11309700C9004F11A00FFF7BBBB00002DE9F04F07
S1130980044687B094F82B00256810F0A00F18BF18
S1130990062040F02881002600E0761CE96831F842
S11309A016000028F9D104F1200090E88C0002A977
S11309B081E88C009DF81370F80765D5402184F810
S11309C02B104FF00108D5F80CB00B2202A904F14A
S11309D0200001F0F9FCC246BAF1060F15D310E06D
S11309E03BF8021B102001F0010303EB4A0A4908FB
S11309F05FEACA3244BF8AF4883282F0210A401E78
S1130A00F1D1BBF800000028EAD10721504600F0DC
S1130A100F02303200093A2AA8BFD21D0DF8012076
S1130A20491E18BF0028F2D17E200DF8010004F100
S1130A302002002000E0401C884202D2135C202BDC
S1130A40F9D10246501C07299ABF1DF80130491CF0
S1130A50202304F1200C07280CF80230F1D9204699
S1130A60FFF7E2FE824620B908F10108B8F1640FED
S1130A70A9D3B8F1640F08BF072000F0B48004289C
S1130A8040F0B08084F82B70B80705D50C360D21E2
S1130A90B6FBF1F6761C00E001262768002120460B
S1130AA0FFF762FD010018D14FF00008A169384634
S1130AB0FFF758FB010010D1E1690978E5291CBF53
S1130AC000294FF0000803D108F10108B04507D010
S1130AD0012100F0BBF80100E8D0042808BF07207A
S1130AE00028824664D1761E019664D021696FF095
S1130AF01F0000FB06112046FFF736FD0028824642
S1130B0056D104F12000FFF7EFFD8DF800004FF6F9
S1130B10FF76A16900F074F80028824648D1D4F821
S1130B201C80E868019F9DF80010059088F80D105E
S1130B300F2088F80B00002188F80C1008F11A0027
S1130B40FFF7E4FAF8B2401E0D2101FB00F900BFE3
S1130B5026A0069001E0B34504D0059830F819B0FA
S1130B6009F10109069810F80A20594608EB020019
S1130B70FFF7CCFABBF1000F08BFB3460AF1010A34
S1130B80BAF10C0FE7D9B3451DBF059931F8190027
S1130B90002847F0400788F800700120287100F011
S1130BA054F8824620B90198401E0190B1D102E068
S1130BB0BAF1000F16D1A16900F022F8824688B973
S1130BC0E069202101F00CFCE0690B2204F1200112
S1130BD001F0FAFB94F82B00E16900F018000873A7
S1130BE001202871504607B0BDE8F08F01030507C6
S1130BF0090E10121416181C1E00000001EB5721D8
S1130C002846FFF7AFBA70B50446E16A256826693D
S1130C1011F1010F0CBF0020FFF7A6FC010013D156
S1130C20A169FFF7EDFF01000BD1E269E521117025
S1130C3001232B712169B14206D200F006F80100AC
S1130C40EED0042808BF022070BD00212046D0E465
S1130C502DE9F84F05460E462F680021B175A869A5
S1130C60002800F09F80E86A10F1010F40D0884608
S1130C7089468A4600E08246F86830F8190068B36D
S1130C80BAF1000F09F1010904D1A0F55842B2F5F7
S1130C90006FF0D306F1160303EB080B40F2B51115
S1130CA040EA0A4001F00CFBB0F5807FC8F1FF0474
S1130CB009DB012C81BF010A8BF800108BF80100BD
S1130CC0022005D808E038B134B10BF8010B01203B
S1130CD080444FF0000ACFE74FF00008BAF1000F4C
S1130CE018BF4FF0000806F11601002001F80800B3
S1130CF00020002106F10904EA69525C491C202AFB
S1130D000DD0052A08BFE522092904D10C2802D2F6
S1130D102E232354401C06F109031A54401C0B29AA
S1130D20EAD306F1090300221A54B17D31BB18B984
S1130D303F20B075012218E00023082410E02E287B
S1130D4008BF1024A0F141011A2904D2EF69397BAC
S1130D50214218BF203006F116015B1C8854521C36
S1130D6006F10900C05C0028E9D106F11601002053
S1130D708854EA69107B08B900217172E869C17A64
S1130D8001F03F013172E8691C30FFF7B4F93060BB
S1130D90E8691630FFF7ACF9F080E8691830FFF71E
S1130DA0A7F9B080BDE8F18F2DE9F04F054685B075
S1130DB028680390894601E009F1010999F80000C7
S1130DC02F2818BF5C28F7D00020A86099F80010DD
S1130DD0202913D2802285F82B20284605B0BDE8AF
S1130DE0F04F0021FFF7C0BB29690398C1F3080144
S1130DF0421802F13401FFF751FCA860002728686B
S1130E000FF22428C66812E02F2C18BF5C2C23D0C4
S1130E107F2C06DC2146404601F0E6FA002840F02B
S1130E20FC80FF2F80F0F98026F817407F1C19F80A
S1130E30014B40F2B510ADF800002CB1014620463C
S1130E4001F05BFA040022D014F1010F1FD0202C12
S1130E50DADA0BE009F1010999F800002F2818BF2C
S1130E605C28F7D020284FF0000801D24FF0040886
S1130E70384600E0401E30B1B11E31F81010202970
S1130E8018BF2E29F6D0002126F81010002800F0F3
S1130E90C480002700E07F1C36F817102029FAD000
S1130EA048F00301B7B188460446B01E30F8141068
S1130EB02E2901D0641EF9D120220B2105F1200036
S1130EC001F09EFA04964FF0000B4FF0080A0194CB
S1130ED0002604E032882E2AE6D1E4E78846049806
S1130EE030F817407F1C002C64D0202C48F00301FC
S1130EF0F4D02E2C02D1019A9742EFD1D34547D298
S1130F00019B9F4244D07F2C0EDDBDF8001020468B
S1130F1001F0D6F90446200648F0020804D5DFF8AB
S1130F20E01904F07F040C5D48F00300B4F5807F01
S1130F3002900FDBAAF10100834503D3DDF808809A
S1130F40D346CCE705F12001200A01F80B000BF190
S1130F50010B16E094B1214636A001F045FA68B9B8
S1130F60A4F141001A2838BF46F00206A4F161003A
S1130F701A2806D246F00106203C02E0DDF808807B
S1130F805F2405F1200000F80B400BF1010BA6E7EC
S1130F90BAF10B0F0DD0019A974218BF8846BA4296
S1130FA021BF17464FF0080B4FF00B0AB60096D23C
S1130FB000E0884695F82010E52904BF052285F84D
S1130FC02020BAF1080F08BFB600F0B200F00C01FF
S1130FD00C291ABF00F00300032848F002085FEA56
S1130FE0887007D4F10748BF48F01008700748BF5D
S1130FF048F0080885F82B802846FFF715FC95F87B
S11310002B1002000BD1490704D4A879C1063FF57F
S1131010EBAE052005B0BDE8F08F0620FAE7042802
S1131020F8D14907F6D4F4E72A3A3C3E7C223F7FC4
S1131030000000002B2C3B3D5B5D000001464FF09F
S1131040FF300A68130000D1704730B513F8014B24
S1131050202C02D33A2CF9D101E03A2C0CD114788B
S1131060A4F130050A2D08D2921C9A4205D1303CD5
S113107003DC20460B6030BD002030BDF8B50446CB
S113108000224FF0FF3322712363FFF76BF808B19E
S11310900420F2BD04F23220FFF72AF804F13406EA
S11310A0054630784AF65527EB281CBFE928E8287E
S11310B03AD1BD4206D108221EA104F1860001F0F6
S11310C073F978B304F13F00FFF712F80146707B1F
S11310D04A1E114208BFB1F5007F25D120B3411E3D
S11310E0084221D104F14200FFF702F8E0B1307C5C
S11310F0401E022818D204F14500FEF7F9FF98B10A
S113110004F14700FEF7F4FF802806DA04F15400E6
S1131110FEF7F1FFB0F5803F06D304F14A00FEF775
S1131120E7FF08B10020F2BDBD4201D10220F2BDAB
S11311300320F2BD46415433322020200000000039
S11311402DE9FF410F46002139601546FFF776FF70
S1131150002848BF0B2006D4DFF8A86706EB800000
S113116044680CB90C200CE13C6005F0FE052078C5
S113117048B1607800F01DFFC10704D4002D01D0F0
S113118040070CD4FCE000202070607800F01EFEC4
S1131190C10748BF032003D41DB1400701D50A206D
S11311A0EFE000212046FFF769FF022814D1002751
S11311B004EB071000F5FD70FEF79DFF4DF82700C6
S11311C07F1C032FF4D900275DF8271041B1204676
S11311D0FFF754FF012804D8042806D10120D0E0E9
S11311E003207F1C032FEFD9F6E7012818D8276BBB
S11311F004F13F00FEF77CFFB0F5007F10D104F14D
S11312004A00FEF775FF18B904F15800FEF773FFA2
S113121004F14101E061CA78E270012A18BF022A90
S11312206FD15043804608786081020069D0411E26
S1131230084266D104F14500FEF75AFF2081207A66
S113124010F00F0F5DD104F14700FEF751FF0500C8
S113125004D104F15400FEF74EFF054604F14200A8
S1131260FEF746FF00284CD0218908EB000303EB6E
S113127011139D4245D36289ED1AB5FBF2F2002A9F
S11312803FD00025DFF8A4C8624538BF03254FF6D8
S1131290F67C624538BF022540F6F67C624538BFCD
S11312A0012500D36DB3921CC019DB19032DA26173
S11312B027626062E36210D104F15E00FEF718FF5A
S11312C0002804BF208900281BD104F16000FEF728
S11312D012FFA062A06980000DE091B1606A4044F1
S11312E0A062022DA0690FBF400000EB400100F096
S11312F0010000EB5100E16900F2FF10B1EB502F47
S113130001D20D203DE04FF0FF306061206180206C
S1131310032D60712CD104F16400FEF7E9FE01286D
S113132026D1791C00F030F810BB607104F2322031
S1131330FEF7DEFE4AF65521884219D104F1340045
S1131340FEF7D9FEDFF8E817884211D104F50670DC
S1131350FEF7D1FEDFF8DC17884209D104F50770E7
S1131360FEF7C9FE606104F50870FEF7C4FE206153
S1131370257006F108013088E160401CE08030806F
S1131380002004B0BDE8F0812046FEF7EBBE70B546
S1131390044609260D46002C1CBF206800280DD0E9
S11313A0017859B1A188C288914207D1407800F0F0
S11313B000FEC00702D42068002600E00020286058
S11313C0304670BD1BB581B0144600916846FFF7E6
S11313D035FE010048BF0B2018D4DFF8280500EBC8
S11313E08102506810B1002353600370019828B142
S11313F04170002101980170019951600CB90020DD
S113140004E0002201A902A8FFF79AFE04B010BD6F
S11314102DE9F2418DB0040008BF092000F0D68008
S113142002F03F073A4669460DA8FFF789FE060019
S113143055D100980D99019001A8FFF7B5FC06005D
S113144004D19DF82F00010648BF062617F01C0F93
S113145000F09580300000F08880042E3FD101A870
S1131460FFF78CFA0646300047F0080736D13807F4
S11314703AD50898DFF8C05729460E30FEF74AFEE1
S1131480089829461630FEF745FEDDF820800098BE
S11314904146FFF703F90546202088F80B00002297
S11314A008990098FFF70DF9089800211C30FEF701
S11314B031FE00F041FB9DB10098D0F8308000224D
S11314C0294601A8FEF77FFF060007D10098414690
S11314D0FEF748FE064600986D1E0561300072D185
S11314E0380748BF47F040070098016B216208980D
S11314F06062089D00982946FFF7D0F8A06005F1C6
S11315001C00FEF7F8FDE060009820600099C88890
S1131510A08000216174E161616127744FF400715E
S113152004F1280000F0ACFEB8064ED5E568002DA5
S11315304BD0656100984789A1687F02AF420CD205
S11315402046FEF774FE0146012926D911F1010F48
S113155025D0ED1B3000F1D026E0E805A16134D0A0
S113156000F08DF910BB02262DE09DF80A0010F062
S1131570110F10D178077FF57AAF082623E03000E9
S1131580ACD19DF80A00C10648BF04261BD4B90794
S1131590A6D5C007A4D5072615E0022604E04FF01F
S11315A0FF300126A0610EE0A1610CE000EB5520A4
S11315B0E061024600984078012304F1280100F01C
S11315C0FEFC10B101260020206030460EB0BDE8BC
S11315D0F0812DE9FC47164600F04AF900F094F832
S11315E0010001D1687C010040F08C80287CC10797
S11315F058BF072040F18680EC686869241AB44219
S11316002FD934462DE0660A07EB000848D000982D
S11316104089F119884238BFC61B00984078334688
S11316204246514600F0CBFC002867D1287C0106D5
S11316300CD5E869A0EB0803B34207D24FF400725B
S113164005F128010AEB432000F0BEFE7602D9F82A
S113165000003018C9F80000A41B6969B244761868
S11316606E61002C4DD06869C10536D100994F894F
S11316707F1E17EA50270CD100280FBFA868A9695C
S11316802846FEF7D4FD012808D910F1010F35D002
S1131690A861A96900F0F3F80100B4D102202EE09A
S11316A0EA69424517D0287C01060BD5009840789A
S11316B0012305F1280100F0B9FCF8B9287C00F0F9
S11316C07F002874012300984078424605F12801E0
S11316D000F075FC90B9C5F81C806869C0F3080077
S11316E0C0F5007126468C4288BF0E4605F12801DC
S11316F001443246504600F067FEA8E701206874B2
S113170000E00020BDE8F687054669463FE62DE97E
S1131710FC47144600F0ACF80646FFF7F6FF01005C
S113172001D1707C010040F0A180307C810758BF5A
S1131730072040F19B8070692118814228D24FF024
S1131740FF34241A24E0C6F81C807069C0F3080032
S1131750C0F5007127468C4288BF0F4606F1280366
S11317603A465146184400F02FFE307C40F0800089
S11317703074E41BD9F800003818C9F80000BA44E2
S113178071697F187761F068B84238BF3846F060F5
S1131790002C66D07069C105D7D100994D896D1EA2
S11317A015EA502513D118B9B06828B9002100E012
S11317B0B1693046FEF73EFE002852D0012839D0E8
S11317C010F1010F4AD0B061B16801B9B060307C4A
S11317D0010607D50098F26900F035F900283DD1DB
S11317E000F02CF9B16900F04AF8010022D0670A30
S11317F005EB000820D0009840897919884238BF49
S1131800471B009840783B464246514600F00EFC88
S113181020BBF069A0EB0800B84209D20AEB4021D2
S11318204FF4007206F1280000F0CEFD00F006F936
S11318307F029EE7022012E0F169414583D070697E
S1131840F1688842BFF47FAF009840780123424694
S113185006F1280100F0B3FB0028EFD001207074DA
S113186004E0307C40F0400030740020BDE8F6878E
S1131870994600228A46C9F800207047014600981C
S1131880FEF7C8BC38B500F0E4F8010036D1217C7D
S11318904A0633D5080608D500F0FCF808B1012043
S11318A032BD207C00F07F002074216A0098FEF78E
S11318B059FC010022D1656AE87A40F02000E87200
S11318C02946A2682068FEF7FCFEE16805F11C00C9
S11318D0FEF720FCDFF8601305F11600FEF71AFC92
S11318E0002105F11200FEF711FC00F025F9009823
S11318F0FEF752FC217C01F0BF01217432BD0000CF
S11319006C6B0000340E00201CB50446FFF7BAFFD0
S1131910010007D169462046FFF739FD010004BFE5
S11319200021216016BD2DE9FC410C460646FFF757
S1131930ECFE5FEA000808BF96F811805FEA080031
S113194074D1F068A04203D2317C8A0758BF0446A0
S113195070690025002C756147D000994F897F027A
S113196068B1401E631EB0FBF7F2B3FBF7F393427A
S113197005D3791E88437061241AB0690CE0B068FD
S113198048B900213046FEF755FD012851D010F129
S1131990010F51D0B060B06160B926E0FEF747FC9A
S11319A010F1010F48D0012843D900998A69904267
S11319B03FD2B061A7420DD27169327C791871614E
S11319C0E41B910701463046E8D5FEF733FD0028B5
S11319D0E6D1002471696118E205716105D0FFF751
S11319E04DFF050025D000EB54257069F168814254
S11319F004D2317CF06041F040013174C0051CBF59
S1131A00F269954212D0307C010605D5009800F0A9
S1131A101AF888B900F012F80123009840782A4691
S1131A2006F1280100F0CBFA30B9F5614046BDE873
S1131A30F68102207074FAE70120FBE7307C00F0A5
S1131A407F00307470474078012306F1280100F0CC
S1131A50EDBA044669469AE431B58CB00C460022CE
S1131A6069460CA8FFF76CFB050010D10C99684679
S1131A70FFF79AF905000AD19DF82B00010648BF2B
S1131A80062504D41CB121466846FFF7E1F8284630
S1131A900DB030BD0098E2694078012304F12801BB
S1131AA000F0C4BA31B59AB0022269461AA8FFF709
S1131AB047FB010038D100981A99019001A8FFF75B
S1131AC073F9010030D19DF82F00010648BF0620AC
S1131AD02AD49DF80A50E80715D408990098FEF70F
S1131AE0DDFD0446E80612D500990D910F940021FE
S1131AF00DA8FEF739FD010016D100210DA8FEF74F
S1131B0001FE010001D107200EE004280CD101A838
S1131B10FFF779F8010002D11CB100F011F80100BF
S1131B2002D10098FEF738FB1BB030BDF6FFFF0F63
S1131B3052526141727241610099012008717047EB
S1131B400022214601A8FEF73EBC2DE9FC410546D2
S1131B50904600242F464E1EB44211DA6B460122F1
S1131B6001A94046FFF735FD0098012808D19DF8EA
S1131B7004000D28F2D0641C0A2807F8010BEBD1ED
S1131B800020387004B900252846BDE8F681F8B570
S1131B900D4604460A2D04BF0D21FFF7F8FF6668C1
S1131BA0002E16D4A76804F10C008555761C3C2E33
S1131BB00CDB20686B46324604F10C01FFF7A7FDED
S1131BC00098B0420CBF00264FF0FF367F1C6660C1
S1131BD0A760F1BD1CB504466268002A0DD42068D4
S1131BE06B4604F10C01FFF792FD002802BF606808
S1131BF00099884201D1A06816BD4FF0FF3016BD90
S1131C0038B50D4604464C2100F03AFB256031BD41
S1131C1018B593B004466846FFF7F2FF04E014F8E1
S1131C20011B6846FFF7B3FF20780028F7D1684608
S1131C30FFF7D0FF14B010BD000021541CB50146BD
S1131C40DFF81046204600F098FC6946204600F074
S1131C50BAFC0098C0B216BD10B5044600F077F87F
S1131C60207010BD10B500F00EFD00F5FA7400F000
S1131C706EF8FF2805D000F006FDA042F7D300203F
S1131C8010BD012010BD80B5012200F013F8BDE89D
S1131C900240FF20D2E780B5002200F00BF800F0EC
S1131CA056F8FFF7DFFF08B1012002BDFFF7EBFF95
S1131CB0002002BD0121DFF8A00500F009BE70B5C7
S1131CC005460C4600F0DFFC00F1640600F03FF826
S1131CD0FF2804D100F0D7FCB042F7D301E0FE287E
S1131CE001D0002070BD2846FFF7B6FF6D1C2846C2
S1131CF0FFF7B2FF6D1CA41EF5D100F028F800F028
S1131D0026F8012070BD38B505460C46FFF7AAFF3A
S1131D10C8B12046FFF792FFFD2C16D04FF4807413
S1131D202878FFF78BFF6878FFF788FFAD1C641EE7
S1131D30F6D100F00CF800F00AF800F008F800F012
S1131D401F00052801D0002032BD012032BDFF2034
S1131D5074E738B5044620060D4607D50021372020
S1131D60FFF7F7FF022804F07F042EDAFFF78BFF5A
S1131D70FFF791FF08B9FF2032BD44F04000FFF7A0
S1131D805DFF280EFFF75AFF2802000EFFF756FFEB
S1131D902804000EFFF752FFE8B2FFF74FFF0120BF
S1131DA0210008BF952002D0082C08BF8720FFF728
S1131DB045FF0C2C04BFFF20FFF740FF0A24FFF768
S1131DC0C6FF010601D5641EF9D132BD2DE9FE43DB
S1131DD008B10120E1E0DFF884542878810700F19C
S1131DE0DB80DFF87C04DFF87064DFF8688400F0DF
S1131DF07DFFDFF8700400F079FFDFF86C0400F079
S1131E0075FF34214FF0402000F0A8FD0121304639
S1131E1000F085FD0A23022234214FF0402000F017
S1131E20D2FC0A2302220121304600F0CCFC00F04F
S1131E30BBF801F055F801460820DFF83024019082
S1131E40009200F0ACF8404600F076FB00F0ACF8ED
S1131E5020214FF0402000F062FD202220214FF08D
S1131E60402000F035FD0A24FF21404600F085FBA8
S1131E706946404600F0A7FB641EF5D120214FF0CF
S1131E80402000F06BFD002200F08FF800210020BC
S1131E90FFF75FFF01285CD100F0F5FB00F57A79CC
S1131EA04FF4D5710820FFF754FF012832D10026E2
S1131EB002AFFFF74CFFF1B2761C7854F0B203285E
S1131EC0F7DDB878012804BFF878AA2841D100F0DA
S1131ED0DAFB484506D24FF08041A920FFF739FFCD
S1131EE00028F4D100F0CFFB484532D200213A203B
S1131EF0FFF72FFF68BBFFF72AFFE1B2641C785499
S1131F00E0B20328F7DD9DF80800410654BF04241D
S1131F100C241EE00021A920FFF71BFF0228A7BF05
S1131F20012401260224A92600F0ADFB484505D270
S1131F3000213046FFF70DFF0028F5D100F0A3FB88
S1131F40484505D24FF400711020FFF702FF00B19D
S1131F5000246C60FFF797FE002C287819D000F05D
S1131F60FE002870404600F0F5FA00F0B9FF44087E
S1131F70DFF8FC02844288BF044600F0B1FF082168
S1131F8001910094014600F00AF8404600F0D4FAAA
S1131F9002E040F0010028702878BDE8FE830023A9
S1131FA00022404600F05EBA01220121304600F0D2
S1131FB08FBC08B101207047A8480078704738B535
S1131FC00D4611461C4600B90CB9042032BDA34885
S1131FD00278D30701D5032032BD0079020758BF28
S1131FE04902012C08D11120FFF7B3FE98B900F083
S1131FF019F880B100240EE01220FFF7AAFE50B9B0
S113200000F010F818B1641E05F50075F8D1002130
S11320100C20FFF79EFEFFF736FE200018BF0120BC
S1132020C0B232BD4FF40071284648E670B50D4683
S113203016461C4600B90CB9042070BD87480178C7
S1132040CA0701D5032070BD01784A0701D50220D3
S113205070BD4068010758BF7602012C0BD1314690
S11320601820FFF776FE08BBFE212846FFF74BFE3B
S1132070E0B100241AE010F0060F03D021469720A7
S1132080FFF767FE31461920FFF763FE70B9FC21A4
S11320902846FFF738FE18B1641E05F50075F6D121
S11320A0FD210020FFF72FFE00B90124FFF7EBFD0F
S11320B0200018BF0120C0B270BDBFB5154608B1DD
S11320C00420C5E0654C2078C20748BF0320F8D43B
S11320D06268012702F0040099B1012914D0032990
S11320E046D00A2900F084800B2900F083800C2953
S11320F000F085800D2900F089800E2900F095807C
S1132100A2E0FFF7C8FD9CE000F0B7F8002835D145
S113211000F0B0F8002837D09DF800309DF8070093
S11321209DF808109DF809209B09012B07D102EBAB
S1132130012202EB0042521C92022A6082E08909C9
S113214001EB80019DF806009DF80A30520000F072
S1132150030002F0060201EB80219DF8050000F067
S11321600F0000EBD3101218491CD01F81403DE032
S1132170B8B100218D20FFF7ECFD002865D1FFF7F1
S1132180E6FD00F077F800285FD03024FFF7DFFD8C
S1132190641EFBD19DF80A101020090988402860AC
S11321A050E000F06AF800284FD100F063F80028EE
S11321B04BD022799DF80B109DF80A0093070BD59C
S11321C040009DF80D2000F07E0000EBD111920933
S11321D0491C501E814009E0CA0002F01802C0F3F5
S11321E0840002EB5111401C491C4143296029E041
S11321F02A7027E000F041F8002826D104E00021ED
S11322000A20FFF7A6FD00BB102117E000213A20A9
S1132210FFF79FFDC8B90024FFF799FDE1B2641CE4
S11322206854E0B20428F7DB0CE070B100218D2083
S1132230FFF78FFD48B9FFF78AFD40212846FFF7D5
S11322403EFD10B1002700E00427FFF71CFD3846CF
S113225004B0B0BD0080004000700040CC000020FD
S1132260100000100100002008000020801A060061
S113227020BCBE001021684621E50021092068E544
S1132280002200F0C1B830B5016884684218416882
S113229002EB5103C90703D54C4401E0491C08D1A2
S11322A09A4218BF12F9011B01D10C3030BD12F84B
S11322B0015B002904F8015BF0D4491EF7D5EFE770
S11322C010B502460020802A38BF104613D3B2F559
S11322D0803F10D240F2B51399420CD1304984B2F8
S11322E031F814309A4203D0401C81B28029F5DBC6
S11322F0803000F0FF0080B210BD0246002013467B
S1132300802B01DA1046704740F2B512914208D191
S1132310B3F5807F05DA224800EB4301A1F5807212
S113232010887047B0F5803F00D3704730B580B255
S1132330B0F5805F1B4B05DB03F5FA7302E009B9C6
S113234003EB44031A8842B3904226DB5C88210ADB
S113235004F0FF041B1DA518A842F0DA821A08290C
S11323601BD8DFE801F005080C0E10121416180033
S113237033F8120011E002F00102801A0DE0103867
S11323800BE0203809E0303807E01A3805E008305F
S113239003E0503801E0A0F5E35080B230BD000006
S11323A098660000E863000003000020521E22BF6C
S11323B013F8010B11F801CBB0EB0C00F6D0521C52
S11323C008BF1046704700004AB1000011F8013BF5
S11323D0521E00F8013B1CBF11F8013BF8E770479F
S11323E0002200F0C1BE0000C9B202788A421AB1CC
S11323F01CBF10F8012FF9E718BF00207047000038
S113240062F30F2262F31F4200B500BF1300964629
S11324109446103928BFA0E80C50FAD85FEA417CF2
S113242028BF0CC048BF40F8042BC90728BF20F8B8
S1132430022B48BF00F8012B00BD0000DFF8A811F3
S113244088421CBFDFF8A421904207D0DFF8A01116
S113245088421CBFDFF89C21904201D101207047C3
S1132460002070472DE9F84306460F4615461C46E2
S1132470FFF7E4FFDFF8808110B9CC2100F059F8B0
S1132480002D18BF022D0AD0012D18BF032D06D030
S1132490102D18BF202D02D0D22100F04AF8DDF80B
S11324A02090002C3DD0012C18BF022C02D0D52145
S11324B000F03FF80C20B7FBF0F0484502D2D721DA
S11324C000F037F8B7FBF9F94FF60160814502D304
S11324D0D82100F02EF8099F381F0C2802D9D921E1
S11324E000F027F8022C20D1082040F00400311D10
S11324F008600020801CB9FBF0F1491EB1F5807F13
S1132500F8D206F110027F1E1060A80100F0C0008E
S113251040EA012005F0300505433D433560BDE840
S1132520F18378084845CDD2C9E70020002CDCD1DE
S1132530DDE7404600F021BE10B500F019F818B9E7
S11325404FF4857100F016F854F8040F40F00200BF
S1132550206010BD10B500F00BF818B940F223113B
S113256000F008F854F8040F20F00200206010BDB9
S1132570044663E7204800F000BE70B500F015F88B
S11325801D4E18B940F2232100F01AF800F010F89B
S113259003D040F2252100F013F804F10C00016887
S11325A08A07FAD544F8085F70BD04460D4645E72E
S11325B021686FF0010001F00F0188400542704767
S11325C0304600F0DABD38B5FFF7EFFF18B940F236
S11325D07F21FFF7CFFF04F10C0001684A07FAD509
S11325E054F8080F286031BD00800040009000407E
S11325F000A0004000B00040806D000038B5254CBC
S1132600254D002020600021616000222349A26042
S11326104FF0007008606FF07F4262600020A0609D
S11326200521216000F05CFC4FF47A71B0FBF1F0FD
S1132630A86000222A60A06820F07F40686031BD55
S113264014480021016000224260002383604FF09F
S11326500070124908607047114803680E484168C9
S11326608268CB1A23F07F43934200D2704710B59F
S11326700468B3FBF2F31C1902FB1311046021F08C
S11326807F41416010BD80B5FFF7E6FF0248006856
S113269002BD000010E000E0AC18002004ED00E0F2
S11326A018E000E0B0F1402F1CBFDFF8F4128842BC
S11326B057D0DFF8F02290421CBFDFF8EC128842BA
S11326C04FD0DFF8E82290421CBFDFF8E4128842C2
S11326D047D0DFF8E02290421CBFDFF8DC128842CA
S11326E03FD0DFF8D82290421CBFDFF8D4128842D2
S11326F037D0DFF8D02290421CBFDFF8CC128842DA
S11327002FD0DFF8C82290421CBFDFF8C4128842E1
S113271027D0DFF8C02290421CBFDFF8BC128842E9
S11327201FD0DFF8B82290421CBFDFF8B4128842F1
S113273017D0DFF8B02290421CBFDFF8AC128842F9
S11327400FD0DFF8A82290421CBFDFF8A412884201
S113275007D0DFF8A02290421CBFDFF89C12884209
S113276001D10120704700207047F8B505460E4698
S11327701446FFF797FFDFF8847228B94FF490717D
S113278007F1780000F0F9FC002C1CBF012C022C8E
S113279005D04FF4917107F1780000F0EEFCF0439E
S11327A005F58061E2070A684CBF324302400A60C3
S11327B005F58465A10747BF28680643296800EA30
S11327C001062E60F1BD2DE9F04107460D4616467F
S11327D01C46FFF767FFDFF8248218B940F2FF11A7
S11327E000F066F8012E18BF022E07D0042E18BF81
S11327F00C2E03D040F2032100F05AF8082C18BF25
S11328000A2C08D00C2C18BF092C04D01CB14FF48E
S1132810027100F04DF8E84307F5A061F2070A6879
S11328204CBF2A4302400A6007F20451B2070A6807
S11328304CBF2A4302400A6007F5A16172070A6887
S11328404CBF2A4302400A6007F5A36132070A68B5
S11328504CBF2A4302400A6007F20C51E2070A689F
S11328604CBF2A4302400A6007F5A261A2070A6826
S11328704CBF2A4302400A6007F2145162070A68F7
S11328804CBF2A4302400A6007F21C5122070A681F
S11328904CBF2A4302400A6007F5A567002C07BF16
S11328A038680543396800EA01053D60BDE8F081F8
S11328B008F1780000F061BC38B500F048F818B9A8
S11328C040F2653100F040F804EB8504206832BD25
S11328D070B504460D461646FFF7E4FE18B940F2FB
S11328E0853100F031F804EB8504266070BD0122C7
S11328F069E7022229462046FFF737FF294620468A
S113290001B0BDE83040082304225CE738B500F08C
S11329101EF818B940F2524100F016F8E9E738B54C
S113292000F015F818B940F2F14100F00DF8082351
S1132930FFE7012229462046FFF745FF29462046A6
S1132940BDE83840012210E72D4800F016BC0446CB
S11329500D46A7E602222946204606E738B5FFF7CA
S1132960F6FF18B940F29661FFF7EEFFFFF7F2FFAA
S11329702946204601B0BDE830400823B7E738B502
S1132980FFF7E5FF18B940F2EA61FFF7DDFFFFF753
S1132990E1FF2946204601B0BDE830400823A6E700
S11329A00080054000500040009005400060004059
S11329B000A005400070004000B005400040024007
S11329C000C005400050024000D0054000600240B5
S11329D000E005400070024000F0054000D00340D4
S11329E0000006400010064000200640003006406B
S11329F00040064000500640006006409867000012
S1132A0010680000DFF8741488421CBFDFF87024DB
S1132A1090422ED0DFF86C1488421CBFDFF8682483
S1132A20904226D0DFF8641488421CBFDFF860248B
S1132A3090421ED0DFF85C1488421CBFDFF8582493
S1132A40904216D0DFF8541488421CBFDFF850249B
S1132A5090420ED0DFF84C1488421CBFDFF84824A3
S1132A60904206D0DFF8441488421CBFDFF84024AB
S1132A70904200F0EC80DFF83C1488421CBFDFF881
S1132A80382490426AD0DFF8341488421CBFDFF83F
S1132A903024904262D0DFF82C1488421CBFDFF847
S1132AA0282490425AD0DFF8241488421CBFDFF84F
S1132AB02024904252D0DFF81C1488421CBFDFF857
S1132AC0182490424AD0DFF8141488421CBFDFF85F
S1132AD07C25904242D0DFF8781588421CBFDFF88D
S1132AE0742590423AD0DFF87015884218BF402808
S1132AF034D0B0F1102F1CBFDFF8601588422DD000
S1132B00DFF85C2590421CBFDFF85815884225D0B9
S1132B10DFF8542590421CBFDFF8501588421DD0C1
S1132B20DFF84C2590421CBFDFF84815884215D0C9
S1132B30DFF8442590421CBFDFF8401588420DD0D1
S1132B40DFF83C2590421CBFDFF83815884205D0D9
S1132B50B0F1101F1CBFDFF83015884277D0DFF8C2
S1132B602C2590421CBFDFF8281588426FD0DFF86F
S1132B70242590421CBFDFF82015884267D0DFF877
S1132B801C2590421CBFDFF8181588425FD0DFF87F
S1132B90142590421CBFDFF81015884257D0DFF887
S1132BA00C2590421CBFDFF8081588424FD0DFF88F
S1132BB0042590421CBFDFF80015884247D0DFF897
S1132BC0FC2490421CBFDFF8F81488423FD0DFF8A1
S1132BD0F42490421CBFDFF8F014884237D0DFF8A9
S1132BE0EC2490421CBFDFF8E81488422FD0DFF8B1
S1132BF0E42490421CBFDFF8E014884227D0DFF8B9
S1132C00DC24904218BFB0F1202F20D0DFF8D0147C
S1132C10884218BF08281AD0DFF8C81488421CBF9D
S1132C20DFF8C424904212D0DFF8C01488421CBFDD
S1132C30DFF8BC2490420AD0DFF8B81488421FBFE2
S1132C40DFF8B4249042DFF8B414884201D10120A3
S1132C5070470020704738B500F05BF818B940F2AF
S1132C60313100F075F800F056F820D1A000DFF8FB
S1132C709014C4F3072200F47F708A1840EA4212C9
S1132C8042F08442012313600025009502E0009A7B
S1132C90521C0092009A102AF9D3C4F3072289180F
S1132CA040EA411040F084400022026031BD0FF23E
S1132CB0A040210F50F821100B68220CA0B202F0A2
S1132CC01F02904003430B60002101E00099491C5E
S1132CD0009100991029F9D30FF27442240F52F88D
S1132CE024100A6822EA0000086031BD10B500F023
S1132CF010F818B940F2963100F02AF800F00BF8F9
S1132D0004D1C4F30721DFF8FC0309E00FF24C40BF
S1132D1011E0044676E604F07040B0F1704F70475D
S1132D20A400411804F47F7444EA411444F0844438
S1132D300121216010BD220F50F822000168A2B2C7
S1132D40240C04F01F0402FA04F40C43046010BDC4
S1132D50DFF8B40300F011BA0138FDD170477047B1
S1132D60F8B5DFF8AC430546206810F0E04F1FBF0C
S1132D702168DFF8A0030140B1F1805F01D1002D8B
S1132D807AD4266E276F26F4800646F4006647F44C
S1132D9000672666B007276701D5A90707D505F0A0
S1132DA0010006F0010280F00100024211D065F03A
S1132DB003000640002F26662DD507F0700030284A
S1132DC01CBF07F07001702929D04FF40020FFF7D1
S1132DD0C3FF290961F30A16DFF83C03DFF83C233B
S1132DE007402A40E900174301F040010F432666DB
S1132DF027671020FFF7B0FF280B60F30D36680B30
S1132E0060F34D374021A165002F47BF2767266631
S1132E102666276706E006F030003028D5D14FF447
S1132E208050D4E7DFF8F802DFF8F81206402940B2
S1132E300E43E80D690060F3DC5708D5DFF8E802BB
S1132E4027F48007284046F48006074301E027F072
S1132E50804728050AD44FF40040216D4A0601D466
S1132E60401EFAD126F4006627F400672666276719
S1132E701020BDE8F2406FE7F1BD00000100100032
S1132E8002001000000110000002100000041000F5
S1132E90000110100002101000041010005800F07F
S1132EA00040101000501020005400F001000020D9
S1132EB00200002004000020080000201000002070
S1132EC0200000204000002080000020000100209D
S1132ED0090800F00A0800F00B0800F00C0800F0E4
S1132EE0F0B5DFF82C120A6E0B6F002B4CBF03F009
S1132EF0700002F03000DFF83442DFF83452DFF8BB
S1132F00147250B110282CD020284AD0302868D010
S1132F10602869D070286AD06CE0DFF8F001C2F351
S1132F20841450F82400DFF80C4204EA0305B5F1D8
S1132F30004F03D0002B6ED416056CD44D6ED1F81F
S1132F4000C005F01F061CF0E04F1EBF09680F40CB
S1132F50B7F1805F50D1C5F34811891C4843B61CB2
S1132F604FE0086810F0E04F1DBF08683840B0F12A
S1132F70805FDFF8C401D6D008683840A84202BF99
S1132F800D68ADB2022D06D008683840A04205D1C4
S1132F900C68200402D1DFF8A401C4E7DFF8A00123
S1132FA0C1E7086810F0E04F1DBF08683840B0F171
S1132FB0805FDFF89001B6D008683840A84202BFAD
S1132FC00D68ADB2022D06D008683840A04205D184
S1132FD00C68200402D1DFF87001A4E7DFF86C016B
S1132FE0A1E747F230509EE74FF480009BE74FF48F
S1132FF0004098E70020F0BDC5F34811761C484313
S11330007600B0FBF6F0690448BF4008290448BFC5
S1133010800842F48002510217D5002B10D55900C4
S11330200BD51C40B4F1004F03D0002B05D412057E
S113303003D44000C3F3865104E0C3F3C55101E057
S1133040C2F3C351491CB0FBF1F0F0BD0D0800F010
S11330500E0800F00F0800F0100800F00040001007
S1133060022000F0032000F0042000F0052000F00E
S11330700010101000011020004800F08000003003
S1133080005000F010000030014000F0000100107A
S1133090000200101000001020000010021C00F0BC
S11330A0031C00F02000003001001010020010107A
S11330B00400101008001010040400F0050400F0CF
S11330C0010000100200001004000010031800F0BA
S11330D0041800F0051800F0061800F0071800F0B6
S11330E00100102000101000005C00F0015C00F0F2
S11330F0025C00F0035C00F0045C00F0055C00F08E
S113310000E50F4000E60F40D86800006C6800003E
S113311000E00F400000FF708FFFFF7F3000008051
S1133120FCFF3FF80300C00700004040000003100C
S11331300000011000080080C0E1E400001BB7009B
S11331400024F40070383900C0C62D0000093D0089
S113315040E00F4044E00F4048E00F4000E10F40E2
S113316004E10F4008E10F404018491C1CBFB1F1B5
S1133170010100F8012DF9D1704780B500F003F882
S1133180FCE700F00DB800F00EB8000080B5022195
S11331905148FFF791FB10B100F008F9012002BD7E
S11331A0642000F0E7B800F0E8B8000080B5C6B0CD
S11331B04FF48C7100226846FFF7D6FF4FEA0D01E9
S11331C065A0FEF749FC38B9009828B19DF80800BD
S11331D0C10658BF012000D5002047B000BD000043
S11331E05DA070477CB5C01E3C4D3D4C042805F5E0
S11331F00B766FD8DFE800F0033C5717260000F089
S113320071F84C6844B10A223FA12846FEF700F940
S113321010B9012085F828024FEA04023EA1304685
S113322000F06DFB06E00B68D1F8042042A13046A3
S113323000F065FB00F060F84CD100F061F8002864
S113324048D50EE0087A00900B684A68214630465B
S113325000F055FB00F050F83CD100F051F8002884
S113326038D500F03FF82846BDE87640FEF74CBB61
S113327004F12801304600F042FB00F03DF805D18E
S113328000F03EF8002801D500F030F800F034F8E2
S113329004D12846FEF738FB00F024F8BDE8764058
S11332A02DA0FEF7FFBB0A7804F14C01304600F074
S11332B026FB00F021F805D100F022F8002801D502
S11332C000F014F800F018F804D12846FEF71CFBAF
S11332D000F008F873BD000000500240880B002085
S11332E0EC6B0000002085F828027047002085F868
S11332F028022846FEF708BB95F8280201287047E3
S113330029463046FEF784BC2F626F6F746C6F677A
S11333102E747874000000004669726D77617265DE
S113332020757064617465207374617274656420BF
S1133330282573290A00000045726173696E6720AD
S1133340256C752062797465732066726F6D202513
S1133350303858682E0A00002F64656D6F70726FE4
S1133360675F656B5F6C6D3373363936352E7372F8
S11333706563000010494880704710B5FFF783F972
S11333800D4C6268904210D321780C4811B9012287
S1133390227002E00021217000220121FFF798FA37
S11333A0FFF771F961880818606010BD00220121DF
S11333B00248FFF78DBA0000B81800200050024000
S11333C09A4238BF88547047704730380A28804181
S11333D0C00F704710B5014600200A2405E0531CB5
S11333E00B601278303A04FB00200A681378303BF3
S11333F00A2BF4D310BD2DE9F84F8AB081461498F6
S1133400199F002408B927F01007169D5FEA475852
S113341001AE00D5E8B1B0FBF5F805FB1800A446F1
S11334205FFA80FE0CF10104BEF10A0FB8BF303020
S113343008DB5FEA876E4CBF4FF0410E4FF0610E20
S113344070440A3806F80C005FEA080001D0202C0A
S1133450E1D3DDF860801598DDF85CC05FEA877E13
S113346026D4B8F1000F12D05FEAC77E0FD55FFAF9
S113347080FEBEF1000F08BF17F00C0F07D0A8F1B3
S1133480010804E04FF0300E06F804E0641C6445C3
S113349038BF202CF6D35FEAC77E09D54FF0300A37
S11334A002E006F804A0641C444538BF202CF8D37D
S11334B05FEAC76E2BD55FEA475A0AD44CB164451C
S11334C018BF444505D1641E03D0102D08BF641EE7
S11334D001D0102D06D15FEA876C03D4202C0AD2C8
S11334E078250DE0102D06D15FEA876C03D5202CDA
S11334F038BF582504D3022D04D1202C02D26225D2
S11335003555641C202C02D230253555641C202CE2
S11335100DD2651CC0B208B12D2006E0780748BF63
S11335202B2002D4380702D5202030552C461546CE
S113353017F0030F09959A460CD1A3460091C34591
S113354011D2009953462A462020C8476D1C0BF11E
S1133550010BF4E7009106E0641E0099305D5346C8
S11335602A46C8476D1C002CF6D1009CB8070AD522
S1133570099F05E053462A4621462020C8476D1C72
S1133580E81B4045F6D32846B1E12DE9FF4F87B04B
S11335908046DDF850B00024A9B9DFF8848312E036
S11335A000F0A8F9641C3046461CB842F8D30895CC
S11335B0CDF824A004E0099B08992246C04734466C
S11335C00A99481C0A900A980078002800F085811E
S11335D0661C2528EFD10A99481C0A90002703E0AD
S11335E047F01007401C0A9047F002050A9801783A
S11335F0202910D02329F3D02B2909D02D2905D037
S1133600302908BF47F00107ECD007E02F46E9E76F
S113361047F00407E6E747F00807E3E70A9A0021C2
S113362006911078FFF7D1FE20B10AA8FFF7D2FE69
S113363006900CE00A9801782A2908D15BF8041B4B
S1133640002944BF2F464942401C06910A90002598
S11336500A9801782E2918D1401C0A9047F48067F3
S11336600078FFF7B2FE20B10AA8FFF7B3FE0546C3
S11336700BE00A9801782A2907D15BF8040B00288B
S1133680C8BF05460A99481C0A9047F480700A99F5
S11336900A78682A0ED06A2A17D06C2A02D07A2AAD
S11336A016D018E00746481C0A90014608786C2892
S11336B011D10AE0481C0A90014647F080070878B7
S11336C0682808D147F0400703E047F4007700E09A
S11336D00746481C0A900A98007825283FF46BAFE7
S11336E0582818BF622811D0632874D064281CBFDE
S11336F069286F280AD0702800F0E280732800F04F
S11337009680752818BF78287FF455AF782808BFAD
S1133710102114D0582803D1102147F020070EE0BF
S11337206F2808BF08210AD0622808BF022106D0EA
S11337300A2127F01007692818BF642801D027F050
S11337400C077A0544BF7F087F00692818BF6428E6
S113375027D1B80518D4FA0517D55BF8040B00284F
S11337604EBF01220022002800D540420597039550
S113377002910192069B04930090099B08992246AA
S11337804046FFF738FE04461AE7780603D55BF88F
S1133790040BC0B2E3E738065BF8040BDFD500B2D4
S11337A0DDE7B805F0D4FA0509D55BF8040B0597F5
S11337B002910021069A049203950191DCE77806B0
S11337C003D55BF8040BC0B2F1E738065BF8040BD1
S11337D048BF80B2EBE70126B80711D4089DDDF895
S11337E024A0DDF8189002E000F084F8641C304650
S11337F0461C4845F8D30895CDF824A0CDF8189078
S113380022465BF8040B099B0899C0B2C047641CAC
S1133810B807B9D5089DDDF824A0069F3046461C9C
S1133820B842BFF4C4AE00F065F8641CF6E75BF878
S1133830040B0090002D14BF29464FF0FF310646BB
S113384000E0761C307800281EBF0846411E002880
S1133850F7D10098361A790502D5AE4288BF2E46B4
S1133860B807DDF820A0DDF8249015D43046069979
S1133870461C884210D24B46224651462020C0475F
S1133880641CF3E70098401C00904B46401E2246FF
S113389000785146C047641C0099087828B178051F
S11338A0F0D52846451E0028ECD1B907CDF820A054
S11338B0CDF824907FF584AE089D069FCA4672E633
S11338C05BF8040B47F02107059708211022002319
S11338D004910395029201934EE70998844234BF00
S11338E02246421E034608990020C04720460BB0DA
S11338F0BDE8F08F534622462946202040470CB4A9
S113390080B50B4602A900914FF0FF3200F004F895
S113391002BC5DF80CFB0A460146024835E600008D
S1133920C9330000C1330000B0B5C278DFF8FC39F8
S11339308A18DA71847804EB11249C71E7B2457813
S11339405D71B7EB112F0078187105DA6D1C5D718C
S1133950EDB20DB9401C1871D2B201F0FF018A42D8
S11339600BDA641C9C71E4B23CB95879401C587160
S1133970C0B210B91879401C1871B0BD30B50A44F2
S1133980521E09E00C784B7803EB0423181885B217
S11339909D4238BF401C891C9142F3D307D109785A
S11339A000EB012082B2B2EB012F38BF401C80B281
S11339B030BD80B51422DFF878190020FFF7DEFF50
S11339C001000EBF4FF6FF70000A40EA012080B2EA
S11339D002BD38B5DFF85C49207C637C03EB00232F
S11339E0A3F11405A81D082204F11A0180B2FFF7FF
S11339F0C5FFAAB204F12201FFF7C0FF01000EBF08
S1133A004FF6FF70000A40EA012080B232BDDFF8B1
S1133A101C09DFF8242900238382002151764FF406
S1133A208063DFF818290383918001234372704770
S1133A30F0B5DFF8F828148BDFF800299388641CAC
S1133A40A5B2B5F5FA4FA8BF4FF4805425042D0E46
S1133A5045EA0425AFB2BB42F1D0DFF8D068348325
S1133A602BB973729580D18028B9106007E00120CA
S1133A7070720020F0BD0188118040885080402180
S1133A8011721046F0BDDFF8A428918A19B990820A
S1133A9000205072704701215172704738B5DFF829
S1133AA08C48656A014605F10800FFF73DFF20795F
S1133AB02872606A61794172606AA1798172606A70
S1133AC0E179C17231BD00002DE9F843DFF85C48AB
S1133AD0DFF86058676A042805F1220600F08D803B
S1133AE005F1360205F136010328E261216208D1AD
S1133AF0787E00F00F00032804BF388A002823D101
S1133B0064E0022865D1E078401CE070C0B260B97E
S1133B10A078401CA070C0B238B96078401C6070B6
S1133B20C0B210B92078401C207000212161787E39
S1133B30072818BF05280CD1B87E401CC1B27829CB
S1133B4004BF00227A76B876002020822072BDE875
S1133B50F1830028F8D0398A002933D0B97E4A1E6F
S1133B600029BA76F0D1F97E082904D0022814BFBE
S1133B700128052907D1002078768021217200F0E0
S1133B80A4FC14204CE30429CEBF302203228A4033
S1133B9000F00F00401E491C0728BA76F976D3D8E6
S1133BA0DFE810F02C0209000B00F1020800F1021A
S1133BB00800F102C8E7002021E20421217200F08C
S1133BC084FCF7E200F00F000328BDD10820207226
S1133BD0C5E2052838D1A16A88880028B4D000211C
S1133BE0616205F12A0005F12A01E06121620820E1
S1133BF000212161207200F0A8FD608A0028A3D072
S1133C0000F11C010A042182120E69742A7408301E
S1133C10A16A0A7AAA7511230204120E42EA00224A
S1133C20B2800020EB75F0808A883280C88870806A
S1133C30A2896A83E089A8830A88EA834888288459
S1133C4005F13601E16144E3A87B4528BDD1297C17
S1133C50687C00EB0120218A8142ABDB2082287D35
S1133C6010F03F0F04BF687D002849D1B4F80C80E0
S1133C70B4F80E90B8F1000F08BFB9F1000F05D0E9
S1133C80E88B404504BF298C494539D1FFF791FEA3
S1133C904FF6FF77B84233D1E87D062807D1FFF706
S1133CA098FEB8422CD1DFF890160F4654E0112844
S1133CB033D1208ADFF88426A262A0F11C0121827C
S1133CC0A36A9888B0B17188814213D1D88800283A
S1133CD01EBF31888142B0F58A4F0BD11888002865
S1133CE033D1598869B1698B814202BFA88B598845
S1133CF0884206D002F1400140338B42A362DFD3F5
S1133D0022E702202072002205F12A0105F12A008F
S1133D106262E161206262826DE7012804BF30784B
S1133D200828EDD1708800224FF6F771327088426E
S1133D30ACBF093008307080A98B688BE883298474
S1133D40A5F81A80A5F81C90D5E2B842CBD15988C1
S1133D50B942C8D1D5E7AC37B942C0F0A780787E64
S1133D600028F8D07088BA88904202BF3088FA8858
S1133D709042F0D1688B3A88904202BFA88B7A882F
S1133D809042E8D1002067622072717B480700F1FD
S1133D904781307B228A00094FEA8008A2EB08029F
S1133DA0A2F1140084F8098020827A7E02F00F02C6
S1133DB0022A04BF01F03F02122A16D080B2002862
S1133DC008BF11F0030F10D030793A7A904202BF45
S1133DD070797A7A904206D1B079BA7A904202BF69
S1133DE0F079FA7A904240F01A82C8063CD5398AB2
S1133DF0002939D007F10C00FFF796FD2079327ABB
S1133E00824202BF717A627991422DD1B17AA2794C
S1133E10914202BFF17AE279914225D138736079F7
S1133E207873A179F87EB973E279FA73B0B997F926
S1133E30183097F91A10BA7D5B1AA3EBD2035BB260
S1133E409A18BA75180048BF4042F97D4018A0EB93
S1133E509100F875D2B200EBD200387601202072BE
S1133E600020397EB9763882787E00F00F01491E31
S1133E70072909D8DFE811F00900DB002C01BB0198
S1133E8004021402D301B3015EE6207AC107FBD514
S1133E90032078764021217200203882208A00286D
S1133EA003D042212172FFF7F9FD56E1707B00F047
S1133EB03F0002280CD17088A28A904206D1487E25
S1133EC00027002200283DD10F463FE00120607208
S1133ED0707B4107D8D4142070732821218250208C
S1133EE03073F779F07AB1797279337996F808C03A
S1133EF0F071F7727F1CB07AB071F772FFB2707A0A
S1133F007071B1721846727286F804C03072002F54
S1133F1001BF491CB172C9B2002905D1521C727289
S1133F20D2B20AB95B1C33726072718830887080B7
S1133F303180688BA98BE8832984A0896883E1890F
S1133F40A983B9E1072808BF0F460122002F627236
S1133F509AD067620320B876387604210020F97578
S1133F60B875F8767188B9803088F880698B3980A3
S1133F700121A88B788079762078387361787973F9
S1133F80A078B8730120E178F9733882F179F97275
S1133F90B079B87271797972307938720120FFF78B
S1133FA07DFD337B03F0F000512827DB002200E085
S1133FB0521C1909D0B2491FB0EB810F1DDA2844F5
S1133FC000F1360C9CF80000B8B10128F0D09CF840
S1133FD00110022808BF042904D0002918BF8A1838
S1133FE0E7D10AE09CF802009CF8031000F085F980
S1133FF0A8BF40F20A617982B9826272102070739C
S11340000221707B317540F0020070730621042098
S11340107075B1750A20F0752C212182602003E1AE
S1134020002179762020207200F04FFA8CE5207A66
S1134030C10745D5707B00F03F00122840D1317B89
S113404001F0F000512826DB4FF0000801E008F1F0
S113405001080A095FFA88F0521FB0EB820F1ADADE
S1134060284400F136021078A8B10128EFD00228C4
S113407004BF5078042805D05078002818BF804425
S1134080E7D108E09078D17800F037F9A8BF40F282
S11340900A617982B98284F80980032078763179BB
S11340A0397270797872B179B972F079F872012045
S11340B0FFF7F4FC422020720021398221614EE096
S11340C02020207200F001FA616A00204876FFE6A1
S11340D0727B218AD30719D5C00617D4388A0028E1
S11340E0A4D1491C88B2FFF7D9FC217A208A41F077
S11340F0100108B141F00201217200F0E6F901203B
S11341003882082100207976F8763CE090060AD5BA
S1134110F07CB27CE36940EA022E734440EA022058
S1134120E361091A2182208A40B1797ECA0605D446
S1134130217A41F002012172FFF7B0FCB17BF07BE0
S113414000EB0120B98A814200DB00B9084678827D
S1134150207A10F0030F3FF4F7AC0020608200F0E7
S1134160B4F9217A880604D5002161827976142174
S11341700AE0C8060AD500216182012038820421A0
S113418000207976F876112171734AE0608A78B15B
S1134190C80702D50021398201E0388A38B9788A03
S11341A0628A904288BF10466082388200E0608252
S11341B00020F876216A608AE16100281CBF388AF1
S11341C0002804D028302082182070732BE0207A35
S11341D0810754D5282020821021717323E0207A8E
S11341E0C1074CD500207876102121721CE7208A63
S11341F008B1FFF753FC717B207ACA0739D5C00791
S113420004D500210720B976398200E006207876AB
S11342100120FFF743FC1020207200F056F9102013
S113422070732821218250203073387A3072797A61
S11342307172B87AB072F97AF172387B3071797B25
S11342407171B87BB0710620F97BF171E875B9889A
S11342503180F8887080A1896983E089A8833988CE
S1134260E98378882884797EC80621D50020F081E6
S113427022E0C00710D5052100207976388263E456
S1134280208A08B1FFF70AFC707BC10704D5072018
S113429000217876B976BBE7208A0028BFD153E4A1
S11342A0207AC107FBD5072000217876B9764BE444
S11342B006200A21B073F1734020A875208A68741F
S11342C0010A0020297470823082FFF782FBC04308
S11342D030824520A8730021E973A982E08A401C3A
S11342E00104E082E874090E0020A9742883FFF712
S11342F060FBC0432883002028E441EA002140F207
S11343000B60814270470146000A40EA012080B2F6
S11343107047012909DB054A136A5182984204D087
S1134320528A01461846FEF74FB8704768180020B5
S1134330F6000020E8000020D0150020F41700202B
S113434038B5834C607890BB00F0FCFAFEF79BF91B
S113435000F5FA70606042F21075FEF794F92818BF
S1134360A060FFF754FB7B480021018041807A481C
S1134370018041807948018041804EF60300FFF7B7
S113438082FB00F0E9FA04F10C0000F05AFB06216C
S113439004F10C0000F0C0F900F0BDFA00F0B7FB26
S11343A0A8423CBF284600F0AFFB0120207031BD7D
S11343B06748002141700078002808BFFFF7C0BF9C
S11343C07047634A1378012B00D0704730B5644AB4
S11343D0146804F11C0213685360002303E0C45CF6
S11343E0D5185B1C2C728B42F9DB02F18A00091D83
S11343F00180012181701068401C106030BDF8B547
S1134400534D287801285ED100F029FB554CF8B1B2
S113441020804FF40060FFF776FF534EB18981424C
S113442007D10120FFF750FB208888B100F05AFC27
S11344300AE040F60600FFF766FFB189814207D122
S113444000F0F5FB208818B100F020FB002020804C
S1134450FEF719F96968424E444F88421CD301F5AE
S1134460FA71696037600220FFF72EFB208828B1BB
S113447000F038FC00F00AFB002222803C493D4851
S113448008600520FFF720FB208828B100F02AFCF3
S113449000F0FCFA00202080FEF7F5F8A9688842B5
S11344A005D301F51C511031A96000F03FFB3760C2
S11344B00320FFF709FB208828B100F013FC00F06B
S11344C0E5FA002020800020F2BD70B524482A4E71
S11344D00168307801F11C04410604F18A0506D50F
S11344E00120206000222A80AA70EA7070BDC107F2
S11344F002D50020E87008E0400706D5EA78012AD2
S113450003D12988201DFFF704FF317808070BD554
S1134510A978012908D100202988A87021B1012097
S1134520E870201DFFF7F5FE307881070FD50D4A9E
S11345301188081F82280ADAE87840B90F4802680F
S1134540BDE87040091FC9B2101D00F089BC70BDE0
S1134550D400002074180020DC180020D818002093
S11345608C18002078180020E8000020D0150020C6
S113457090180020F41700207018002084180020E0
S113458035220270012343708170C01C7047FF21E3
S113459000F8011B704738B5044601202070607094
S11345A00021DFF87C53A869A070E170211D0FF28F
S11345B08C300268DFF86C030A60802100222281BB
S11345C0618104F10C020168116004F110000421FE
S11345D0FDF706FF042104F11400FDF701FF042197
S11345E004F11800FDF7FCFEAA69696904F11C00D6
S11345F0FDF7EAFEA869C0F1100104F11C021044A1
S1134600FDF7EEFE402104F12C00FDF7E9FE8021C8
S113461004F16C00FDF7E4FE0FF22430026804F1AB
S1134620EC010A6031BD38B5BF4C25682846FFF758
S1134630B2FF032105F1F000FFF7A2FF362101705C
S113464004224270831CB64901F11C0215681D60E6
S113465004223225C271857151F8242F82600C30F6
S1134660FFF795FF01462068BDE83440091AFFF7BB
S113467050BE000070B5AC490D682878022849D1B5
S11346805FF00402ADA1281DFDF78EFE002841D184
S1134690A34CA269616905F11C00FDF785FE0028A1
S11346A038D105F1100004F1240102689F480A6022
S11346B005F1F00102880A4400200BE08B1C04F190
S11346C0280502E08B1C04F130051E682E608E1C48
S11346D04978314491421ED20D78012DEED0032D3C
S11346E0F0D0062D12D0332D06D0352D0CD0362D1A
S11346F006D0FF2DEBD170BD8B1C04F12005E4E73F
S11347008B1C04F11C05E0E78878E0E78B1C04F1BE
S11347102C05DAE7002070BD1CB5814C60610020D7
S1134720A070A1614FF6FF70ADF80000ADF8020073
S11347304FF486416846FFF77BF910B14FF4884186
S1134740818060600020208013BD2DE9F041784E07
S1134750734C30782188734F00F002004FF47A755F
S113476042F21178B1B140F20F12891A35D0491EC4
S113477036D0153954D0491E55D02F3900F08C80CD
S1134780491E00F08C80143900F09A80491E00F014
S11347909A80ADE00120A0702561634D2E683046FB
S11347A0FFF7F9FE012106F1F000FFF7E9FE3721DA
S11347B0017003224270C2700123062283700271C9
S11347C0411DFF2001F8010B2868091AFFF7A1FD1C
S11347D000F09CF840F20F1070E04FF488712180D3
S11347E018B900F08FF8002821D03078810705D55A
S11347F0FFF740FF022808BFA07009D020694EF6D9
S113480060218842BCBF40002061A0780228C4D146
S11348102561FFF708FF00F079F840F225104DE01C
S11348204FF49371218018B900F06CF8002861D01E
S11348303078810703D5FFF71DFF05284ED0206986
S1134840404555DA00F058F8E3D1A08C3880E18C6B
S113485038487980218D0180628D42803648218ECE
S11348600180628E4280208CFFF74DFD0646608CED
S1134870FFF749FD40EA064040084543B5F1004FC3
S113488028BF6FF000452561294604F1080000F0B7
S1134890A3FC40F255112CE04FF4AB70208000F0E3
S11348A031F838B30220A070256100213980798065
S11348B0FFF7B9FE00F02AF84FF4B570208019E034
S11348C040F26B11218010B900F01CF890B13078DF
S11348D0810706D5FFF7CEFE052802D10320A0707C
S11348E0B3E72069404503DA00F006F8E0D1ACE70D
S11348F000212180BDE8F08100F57A702061A07864
S11349000328704704F1080000F06EBC216904F12B
S1134910080000F061BC0348002101804180704719
S113492034180020741800208418002078180020FF
S113493070180020DC180020D8180020ADDE1223E7
S11349406382536310B5544C2046FEF7CFF92046DA
S1134950BDE81040FEF77FB97CB55048504CFEF7D7
S1134960C5F90C214F48FDF7D1FF7F21204600F007
S1134970B6FD0021204600F0CDFD0146204600F0A2
S1134980D7FDFEF7ADFA0146204600F03BFC1621A8
S1134990204600F048FC204600F09FFC0121204600
S11349A000F0E4FD0546FDF76EFE00F598568836E6
S11349B001E0FEF7E8FB680708D40121204600F077
S11349C0D5FD0546FDF75FFEB042F2D3364D082013
S11349D02870002169206970E8705B214520272236
S11349E029716871AA70694601A800F049FE01980E
S11349F010F1010F1CBF009810F1010F0FD00198A6
S1134A0001992870090A01986970000CA87000982F
S1134A100099E870090A00982971000C6871294608
S1134A20204600F029FC2148297801706A784270F8
S1134A30A9788170EA78C270297901716A79427122
S1134A4073BD19490A7802704B7843708A78827072
S1134A50CB78C3700A79027149794171704738B5CE
S1134A600F4C0021204600F055FD054629462046FE
S1134A7000F05EFDE80707D52046BDE8384040F267
S1134A8042620B4900F09DBC002032BD094B08492D
S1134A901A88034800F002BD0050102020000020B6
S1134AA00080044000500240C0180020C8180020B4
S1134AB0E80000207818002010B51B4C012020705D
S1134AC0FDF7E1FD6060BDE8104010B500F094FE14
S1134AD0012818D000F0C0FEA8B1134C207801289A
S1134AE011D1FDF7D0FDA26861688A1802F5FA7247
S1134AF0904208D30020207000F0B5FE18B9BDE83C
S1134B00104001F093B810BD07498860704706480B
S1134B108068704710B5044C2078012802D1FDF755
S1134B20B2FD606010BD00009418002038B5B14893
S1134B304478641C0025EAB20C23AD485A4310445F
S1134B4001884288114307D0817AE2B2521A782A46
S1134B50A4BF0421FDF744FC6D1CEAB2082AEADB79
S1134B60A4480570447031BD2DE9F04702460B4658
S1134B70B2F800C09E4E00250C27E8B278433418E2
S1134B80208800281CBF6188002904D0844504BF04
S1134B905088884204D06D1CECB2082CEDDB09E08F
S1134BA006221946201DFDF70FFC92484178A17298
S1134BB005703AE000241946E0B278433518288895
S1134BC0002804BF6888002803D0641CE3B2082BC3
S1134BD0F2DBDFF8208298F80190E0B208281AD1BD
S1134BE00020002400235FFA83FA06F10A0507FB7C
S1134BF00AFA5FFA80FC15F80A50A9EB050AD445B5
S1134C00BCBFA9EB05001C465B1CDDB2082DEADB2A
S1134C10E0B24743F519106828600622281DFDF705
S1134C20D3FB85F80A9088F80040BDE8F087F8B512
S1134C30714C20882A2838BF002141D36F4E704D13
S1134C4000202080B28A68882988B2F5807F03D04A
S1134C50B2F5007F36D0F1BDF38C8B4204BF328DA8
S1134C6082423CD106F1160106F11C00FFF77CFFDD
S1134C704FF40071B182062206F1160106F12000FC
S1134C80FDF7A2FB5F4F0622394606F11600FDF739
S1134C909BFB06223946B01DFDF796FB062206F162
S1134CA020013046FDF790FBB08BF18BF084318509
S1134CB02888B0834FF4C1606988F183B0812A21C8
S1134CC02180F1BDF28C8A4204BF318D814206D12C
S1134CD006F1160106F11C00BDE8F44044E7F1BDFD
S1134CE0000000002DE9F047444E434CF18BDFF8FF
S1134CF014814FF6FF70814204BF338C834203D189
S1134D005FF0060246A166E03F48F38B02883C4907
S1134D104F880D88374913402A40934205D1408873
S1134D20328C02403840824205D0384802888A805A
S1134D304088C88003E0F08B8880328CCA80B1F848
S1134D400690B1F804A02A4B00225FFA82FC0C20E2
S1134D5000FB0CFC03EB0C00B0F800C0E24504BF00
S1134D60B0F802E0F14505D0521C5FFA82FCBCF1B8
S1134D70080FEADB0A70097808292AD1FF220621E4
S1134D803046FEF7F1F9062106F12000FDF728FB75
S1134D9000F040F80622414606F11600FDF714FB28
S1134DA04FF480700621A6F826A0A6F82890B583B3
S1134DB0B082F081B174082030824FF4C1610420C4
S1134DC0F074F783B18106F13600114A10602A218C
S1134DD00AE00622011D3046FDF7F6FA00F01AF843
S1134DE00820B08121880E312180BDE8F0870000C1
S1134DF094170020D018002078180020E800002024
S1134E0074180020C8180020DC180020D8180020CE
S1134E108418002006224146B01DFDF7D5BA0000D3
S1134E20FFFFFFFFFFFF0000DFF8780300F18101BF
S1134E3000220A70C0F88820CA70A0F886208A7000
S1134E404A707047DFF85C0390F8810000B10120DC
S1134E507047DFF85013002081F884007047000089
S1134E602DE9FE430446FF272078DFF83863FF2846
S1134E7006F1810522D100F0EFFC20B92078102141
S1134E8000F06AF9DDE00020012110226870297029
S1134E907270B070377000F093FCF07000F09EFCFC
S1134EA0307100F09BFC000A70710120B071F07148
S1134EB00820A6F8860000F0F6FEC2E02A78012A4F
S1134EC040F0D080C92806F1010800F08A80CC287F
S1134ED000F01D81CF2800F01781D02800F0A380B6
S1134EE0D12800F0FD80D22800F0E580F12800F000
S1134EF01481F32836D0F42819D0F5280AD0F628DE
S1134F002DD0FA284AD0FC2855D0FD285BD0FE28A5
S1134F1062D006E100F054FC6178401E884202DA57
S1134F202078222187E00A46D6F888100EE000F0A7
S1134F3047FC6178401E884202DA207822217AE018
S1134F4000F0FAF80146C6F888106278404600F08E
S1134F5099FE377000F0F2F86078401C6FE000F0C2
S1134F60EAF85CE000F0E7F8D6F8886007464FF00E
S1134F70000804E016F8010B8044FEF704F93846F3
S1134F80471E0028F6D1874E01207070311D5FFA4C
S1134F9088F000F015F9002070800AE08CA0C6F8B3
S1134FA088000021717071803770311D072000F076
S1134FB007F9082043E000F0C8F8FE203070002113
S1134FC0717002203BE000207070F070B080377088
S1134FD006206978B17032E000202870687037705C
S1134FE01FE0D6F8888000F0EBFB00218DF8081054
S1134FF0A0F1010900F099F8072000F06DFE621C91
S11350004946404600F051FE10B92078312112E0A3
S1135010377000F0D5FBD6F88810401E4018C6F84B
S1135020880001200BE000F0CBFB6178801E8842F1
S11350301ADA2221207800F08FF8B6F98600A6F853
S11350408600E878012803D12078102100F084F844
S1135050B6F98600002805DD0122EA7081B23046E7
S113506000F097FBBDE8F78301213770A6F886109E
S1135070607848B900F021FE08B93121DAE700214F
S1135080042000F029FED8E70021D6F888708DF8B6
S1135090081080460097CDF804806946072000F088
S11350A01BFEA21C4146384600F0FFFD0028E4D058
S11350B000F044F8C1E700217170B170377000F05E
S11350C07FFBF07007210020B080B071A6F8861035
S11350D08DF8000001906946032000F0FDFDACE767
S11350E0D6F8888000F028F8814600F01EF80620E3
S11350F000F0F2FD4946404600F0D9FD08B1FFF743
S11351006EBF2078312196E700F090FD64E700F04F
S11351101CF8FE203070312152E7FE20307020212F
S11351204EE7202100F018F887E7CDF80080CDF88D
S11351300490694670473770201D35E0D6F8881012
S113514060784118C6F88810704703208DF8000075
S11351506946052000F0C0BD1CB50C46F12808BF07
S1135160202C17D00321312C8DF8001009D1D1281F
S113517008BF002008D0D02818BFC92806D10120B4
S113518002E0252C02D104208DF800006946052098
S113519000F0A2FD0348FE21017044700222A0F831
S11351A0862013BD08170020014608784A788B78BA
S11351B0C97840EA022040EA034040EA01607047AF
S11351C00870020A030C000E4A708B70C870704796
S11351D04F70656E424C540010B504466160FFE7A1
S11351E000F0C0FD206010BD10B5044600F0BAFD0B
S11351F021686268401A904201DB012010BD002042
S113520010BD000038B500F0A4F902D05D2100F013
S113521089F86D08DFF84403B5FBF0F000F0FF00F7
S113522044F8240F31BD70B500F06EF902D0A62108
S113523000F052F9DFF82823154202D0AA2100F029
S11352404BF904F10C0105F0FF000A6822F0160284
S113525002430A6004F10801C5F307200A6822F03A
S11352600E0202430A60C5F3074054F83C1F490884
S113527040EA4101216070BD7CB500F026F803D0FE
S113528040F2131100F028F91CB94FF48A7100F0B0
S113529023F920788DF80000002261788DF8011040
S11352A005F11401A0788DF80200E0788DF8030070
S11352B000980860009221798DF8001062798DF8C9
S11352C00120009845F8180F73BD0546DFF89422B5
S11352D0DFF8946295420C46704710B500F01DF853
S11352E003D040F2691100F01DF800F00FF80268D5
S11352F042F00102026054F80C1F41F001012160E8
S1135300FFE7026842F01002026010BD04F10800D9
S1135310016841F01001016070470446DFF844223F
S113532094427047DFF84002FDF727BF2DE9F043B0
S113533000F110030226186885B2040C0C70000EEC
S11353404870AC1FA81FA242904606DDA04604E0A8
S1135350D3F800C041F806C02646341DA8F104075E
S1135360B742F5DA464524DAD3F800C0771C06F1D3
S11353700309C1454FEA1C2E09D101F806C001F802
S113538007E07E1C4FEA1C448C55B61C11E006F164
S11353900209C14505D101F806C001F807E0FE1C69
S11353A007E0474505D101F806C0264601E0196823
S11353B0361DAC1EA642FADB8242B8BF4042BDE8AD
S11353C0F083F8B500F063F803D040F28F2100F0C9
S11353D05BF81CB94FF4247100F056F8002E03DC7E
S11353E040F2912100F050F800F00AF801D10020B9
S11353F0F2BDFFE7324621462846BDE8F84095E76E
S113540005F13400016811F03F0F7047F0B5034611
S1135410104640F2FF72904201DB4042F0BD0E782C
S11354204F78A0F10E0503F1100445EA064545EA5C
S1135430076502222560071F02E08D582560121DB2
S11354409742FADA82421BD0551CD61C864209D1F7
S11354508A5C4F5D491C42EA07224D5D42EA0542DF
S113546022600DE0961C864206D18D5C491C8A5C44
S113547045EA0225256003E0854204BF895C21607A
S1135480012243F8382FF0BD3846FDF776BE1646A4
S11354900546344A344F95420C467047F8B5FFF739
S11354A0F6FF03D040F29E31FFF7EEFF1CB940F245
S11354B09F31FFF7E9FF012E03DA4FF46871FFF71C
S11354C0E3FF05F138000168CA07FAD432462146E1
S11354D02846BDE8F84099E73046FDF74EBE70B562
S11354E000F012F803D040F24741FFF7F5FFE80956
S11354F0C00103D040F24A41FFF7EEFF54F8040F15
S113550020EA0505256070BD0446164A164E9442ED
S11355100D46704738B500F01CF803D040F26A41DC
S1135520FFF700FF206815B154F8041F084032BD8E
S113553070B5FFF7E9FF03D040F29F41FFF7CCFFBE
S1135540E809C00103D040F2A241FFF7C5FF25607E
S113555070BD0446034A94420D467047A0252600B8
S1135560E9F1FEFF00800440606C000038B5FFF7ED
S1135570F0FF03D040F21251FFF7D4FE00F00CF814
S113558005F0F80545F0010505600168CA07FCD47B
S113559054F8300F80B232BD04F120000168CA070C
S11355A0FAD4ED007047000010B50446A20504D0FB
S11355B09C21DFF82001FDF7E0FDDFF81C01DFF896
S11355C01C2140F6012141610460826082689307D6
S11355D0FCD4C068084202D04FF0FF3010BD002058
S11355E010BDF8B50E4616F0030F05461446DFF855
S11355F0E47003D0DF213846FDF7BFFD14F0030F3C
S113560003D0E0213846FDF7B8FDDFF8CC10DFF811
S1135610D000DFF8D03042F201624A610768F8072F
S113562023D512E055F8040B06F07C0E361D47F81E
S11356300E00241F16F07C0F01D1086B08B9002C52
S1135640F0D10B62086AC707FCD484B1F009C00129
S11356500860254FEEE70E602F684F608B60886806
S1135660C707FCD42D1D361D241F002CF3D1C86898
S1135670104202D04FF0FF30F2BD0020F2BD000016
S113568070B504000D46134E03D14FF4217100F0A0
S11356901DF81DB940F2852100F018F800F011F84A
S11356A01FBF016812480140B1F1805F02D14FF081
S11356B0FF3070BD0F4801682160406828600020F9
S11356C070BD0A48016811F0E04F70473046FDF79D
S11356D054BD0000C06C000000D00F40020042A482
S11356E0A0E10F40010042A400D10F4000E00F40B0
S11356F00000FF70E0E10F4080B5002000F084F866
S1135700FFF792FB00F030FB48490020087001BD10
S11357101CB5464C694604F1080000F04DFB012815
S113572006D100202070012000F06EF800F029F866
S1135730694604F10800FEF762FE012806D105203F
S11357402070012000F060F800F01BF800F054F81D
S1135750012804BF6078012812D1FCF794FF616826
S1135760401A41F2883290420AD3002000F04CF8EB
S113577002208DF801000DF10101052000F0ACFAC2
S113578013BD9DF8001004F10800FFF769BB002069
S11357903AE070B5254E044630780D4618B9C9B2C2
S11357A0204600F0F0FA3078052803D1E9B220460B
S11357B0FEF707FEFFF74DFBFCF765FF706070BD59
S11357C01A4A1078801E03D0401E012802D903E033
S11357D0082070473F20704781207047134A107893
S11357E0801E03D0401E012802D903E00820704720
S11357F03F2070478120704710B5FFF723FB00243A
S113580000B10124204610BD0849487080B5FCF75A
S11358103AFF0649486001BD80B5FEF7C9FD03495A
S113582005200870BDE80140FFF774B9400000206E
S113583080B5DFF87C330020187000227AA1DFF8ED
S11358407403FBF7BFFD30B1BDE804406E21DFF8FF
S11358506803FDF792BC01BDDFF854030178481ECC
S11358608041C00F704710B5FFF7C6FF012809D06B
S1135870DFF83C43207828B9FDF798FC012801D1D2
S1135880207010BD002010BD2DE9F843C84C2078CD
S1135890002888B024D0C94DC649012805F5C07632
S11358A001F50D7822D100F0FEF900208DF80C00EE
S11358B0FDF796FC049003A9032000F00DFAFDF710
S11358C08FFC014601224046FBF7A2FD48B10020AF
S11358D0072120708DF800100520694600F0FCF9BE
S11358E09EE070600021B16002204CE0022801F5C6
S11358F010774AD100F09AF8797900294BD108B38E
S113590000223146284600F0CDF8054615F1010F76
S113591051D0012D16DBB06888B171683268431824
S11359209A4208BF2D180CD00191029001A90620BB
S113593000F0D2F9B168706800F0B9F9E8B13068E4
S11359407060B560B8683968884269D10021404602
S1135950FBF7E9FF18B10020207009214BE0B06883
S113596080B172680290019201A9062000F0B4F996
S1135970B168706800F09BF920B9002020708DF8A0
S113598000003AE0032020704AE0032848D100F0E8
S11359904DF8797919B10020207008212BE000B36B
S11359A005F580794A463146284600F07BF80546DD
S11359B015F1010F03D1002020700A211BE0012DF5
S11359C00FDB31680591069500218DF81C10072026
S11359D005A900F081F930684A46294600F065F9C6
S11359E030B1B868396888421AD100F066F960B9F4
S11359F00020207001218DF800106946052000F078
S1135A006BF94046FBF780FF0AE04046FBF77CFF5A
S1135A10002020700021042000F05EF900F006F957
S1135A2009B0BDE8F0830000303A000042464FF46C
S1135A3080712846FCF789B810B50446207800F038
S1135A4025FA532810D16078A0F130010A290BD22D
S1135A50312801D1002010BD322801D1012010BD10
S1135A60332801D1022010BD032010BD70B5841C61
S1135A70204600F0B7F805462E46A41C204600F048
S1135A80B1F886196D1EA41CA8B20228F6DA2046C5
S1135A90F64300F0A7F8F6B2864201D0002070BDAC
S1135AA0012070BD2DE9F0410E46002705469046C1
S1135AB0002E18BF002D04D14FF42E713E48FDF77F
S1135AC05CFB2846FFF7B8FF0446032C6CD028463D
S1135AD0FFF7CCFF10B94FF0FF3066E01CB1022C89
S1135AE03DD01DD360E000F073F8074600F070F875
S1135AF00002306000F06CF83168AD1C4018FF1EE5
S1135B00B8F1000F30603FB24ED00026B4B2BC42B0
S1135B104ADA00F05EF808F80400AD1C761CF5E7DC
S1135B20AF1C00F04FF800F04FF8000400F048F804
S1135B3000F051F8316840183060BE1C2F1FB8F1D6
S1135B40000F3FB230D00025ACB2BC422CDA304654
S1135B5000F048F808F80400B61C6D1CF4E7AF1C0C
S1135B6000F030F800F030F8000600F029F8316851
S1135B7001EB0041316000F024F800F02CF83168AA
S1135B8040183060BE1C6F1FB8F1000F3FB20BD03D
S1135B90002506E0304600F025F808F80400B61C9D
S1135BA06D1CACB2BC42F5DB3846BDE8F0810000A8
S1135BB0E01800202C070020D06E000044140020C0
S1135BC03060BF1C38460DE00546BF1C384609E06E
S1135BD0AD1C284606E0316801EB00213160BF1C92
S1135BE03846FFE770B5044600250026F0B2205C75
S1135BF000F04CF9C0B2A0F1300117290FD2A0F186
S1135C003A02072A0BD33038C9B20A29A8BFC01FE9
S1135C1000EB0515761CF0B20228E7DB01E000205A
S1135C2070BDE8B270BD000000F036B910B500F0E8
S1135C3040F810B1FDF7AAFA38B9FFF7EDFDBDE859
S1135C4010400021022000F047B8FFF7A0FD00211A
S1135C50012000F041F8FCF7F3FC00F02CF80749B0
S1135C60074A0840106000F026F850F8044F00F08E
S1135C7015F9A047BDE81040FFF7CEBD80FFFF1F18
S1135C8008ED00E070B504460D46164605E015F82B
S1135C90010B04F8010BFDF776FA3046461E80B27C
S1135CA00028F4D170BD00F0FBB800F000B900F09A
S1135CB021B900F089B900F0B3B980B500F065F9F5
S1135CC018B1BDE8014000F096B902BD2348002197
S1135CD0416081600170704770B50C460546E91E4D
S1135CE004291F481D4E32D8DFE801F021262F1861
