S31508000000D81F002029020008310200083302000820
S31508000010350200083702000839020008000000000F
S315080000200000000000000000000000003B0200087D
S315080000303D020008000000003F0200087D1F00087E
S31508000040430200084302000843020008430200086E
S31508000050430200084302000843020008430200085E
S31508000060430200084302000843020008430200084E
S31508000070430200084302000843020008430200083E
S31508000080430200084302000843020008430200082E
S31508000090430200084302000843020008430200081E
S315080000A0430200084302000843020008430200080E
S315080000B043020008430200084302000843020008FE
S315080000C043020008430200084302000843020008EE
S315080000D043020008430200084302000843020008DE
S315080000E043020008430200084302000843020008CE
S315080000F043020008430200084302000843020008BE
S315080001000000000000000000000000004302000894
S31508000110430200084302000843020008430200089D
S31508000120430200084302000843020008430200088D
S315080001304302000843020008000000000000000017
S3150800014043020008430200084302000800000000BA
S315080001500000000000000000000000000000000091
S3150800016000000000000000004302000843020008E7
S315080001704302000800000000000000000000000024
S31508000180000000004302000800F002F800F03CF806
S315080001900AA090E8000C82448344AAF10107DA45D4
S315080001A001D100F031F8AFF2090EBAE80F0013F0EA
S315080001B0010F18BFFB1A43F001031847284F000028
S315080001C0484F0000103A24BF78C878C1FAD85207B9
S315080001D024BF30C830C144BF04680C6070470000B3
S315080001E00023002400250026103A28BF78C1FBD832
S315080001F0520728BF30C148BF0B6070471FB504F0CF
S3150800020082FE1FBD10B510BD00F0F6F81146FFF7C7
S31508000210F5FF03F05BFA00F014F903B4FFF7F2FFF9
S3150800022003BC00F01BF9000009488047094800474D
S31508000230FEE7FEE7FEE7FEE7FEE7FEE7FEE7FEE788
S31508000240FEE7FEE704480549054A064B70470000E5
S315080002507F1F000889010008D80D0020D81F00203C
S31508000260D80F0020D80F002010B5431C02E010F864
S31508000270011B71B18107FAD14FF0013202C88C1AFD
S315080002808C4314EAC211F9D0C01A0A0603D0C01E5C
S3150800029010BDC01A10BD0A0401D0801E10BD090287
S315080002A0FCD0401E10BD032A40F2308010F0030C2B
S315080002B000F0158011F8013BBCF1020F624498BFAB
S315080002C011F801CB00F8013B38BF11F8013BA2F148
S315080002D0040298BF00F801CB38BF00F8013B11F0C3
S315080002E0030300F05780083AC0F0088051F8043B31
S315080002F0083A51F804CBA0E80810F5E7121D5CBFD0
S3150800030051F8043B40F8043BAFF30080D20724BF02
S3150800031011F8013B11F801CB48BF11F8012B24BF96
S3150800032000F8013B00F801CB48BF00F8012B7047E5
S3150800033002F0FF0343EA032242EA024200F002B84F
S315080003404FF0000200B5134694469646203922BF60
S31508000350A0E80C50A0E80C50B1F12001BFF4F7AFAB
S31508000360090728BFA0E80C5048BF0CC05DF804EB8D
S31508000370890028BF40F8042B08BF704748BF20F8FB
S31508000380022B11F0804F18BF00F8012B70477047F9
S315080003907047704710B5203AC0F00B80B1E8185086
S315080003A0A0E81850B1E81850A0E81850203ABFF451
S315080003B0F5AF5FEA027C24BFB1E81850A0E81850F0
S315080003C044BF18C918C0BDE810405FEA827C24BF44
S315080003D051F8043B40F8043B08BF7047D20728BFD2
S315080003E031F8023B48BF11F8012B28BF20F8023B21
S315080003F048BF00F8012B7047754600F02BF8AE464B
S3150800040005006946534620F00700854618B020B512
S31508000410FFF718FFBDE820404FF000064FF0000731
S315080004204FF000084FF0000BAC46ACE8C009ACE84A
S31508000430C009ACE8C009ACE8C00921F007018D463F
S31508000440704710B50446AFF300802046BDE810405B
S31508000450FFF7E3BE0048704748000020014918200E
S31508000460ABBEFEE7260002007047000000F02CFA3B
S31508000470FCE710B500F083F9012818D040F2C8440B
S31508000480C2F200042078012818BF10BD01F0A2FDB1
S3150800049040F2C44140F2CC42C2F20001C2F200026C
S315080004A009681268114401F5FA71884200D210BD34
S315080004B000202070BDE8104000F020BA40F2C44089
S315080004C0C2F200000068704780B540F2C840C2F228
S315080004D000000121017001F07DFD40F2CC41C2F21D
S315080004E000010860BDE88040FFF7C3BF40F2C44181
S315080004F0C2F200010860704780B500F0E9F900F023
S31508000500DEF901F093FD00F033FA01F048FC00F043
S3150800051016F901F0C8F90020002100F03BFABDE801
S315080005208040FFF7D1BF80B500F0CEF901F0ECFDB1
S3150800053000F02CF9BDE88040FFF79BBFF0B58BB003
S3150800054001A801F0A9FA039844F6D351C1F2620151
S31508000550A0FB0101880944F660710027C0F6000176
S315080005604FF4FA7E4FF0FF3C002600BF01EB46052C
S3150800057011F816306C78E51815FB0EE2B0FBF2F5AB
S3150800058005FB12022AB91CFA85F2B2F5806F2F46CE
S315080005900CD30136122EE9D1002622A0AF21CFF6C0
S315080005A0F076FFF763FF06F570200AE000200021C9
S315080005B0CFF6FF70CFF6F07100EB034001EB04565F
S315080005C02F4640F6DC04C2F2000446F2004100253C
S315080005D0C4F200014FF08072C4E903502046A58397
S315080005E0BBB284E82A00C4E9056200F053FD4CF664
S315080005F0E0410120CDE901154FF6E071089003911D
S31508000600042109900E20CDE904150A9001A9204677
S31508000610CDE9065500F03DFC204600F0C5FD0BB0BF
S31508000620F0BD00BF2E2E2F2E2E2F2E2E2F2E2E2F24
S31508000630536F757263652F41524D434D345F535462
S315080006404D333246332F63616E2E6300B0B588B0E2
S31508000650034640F6DC000C46C2F2000001AA00215F
S31508000660002500F08AFC58B9019840F26761884273
S3150800067001D1039808B1002502E0059801252070EC
S31508000680284608B0B0BD0000B0B588B0024640F2B2
S31508000690E17002900020CDE9040040F6DC000691E6
S315080006A0C2F2000002A901AB00F0AAFB98B901F05A
S315080006B091FC40F6DC0400F13205C2F2000400BFEA
S315080006C00199204600F05EFD28B100F0FDF801F022
S315080006D081FCA842F4D908B0B0BD80B540F6081030
S315080006E0C2F200000021017001F074FC40F604110A
S315080006F0C2F200010860BDE8804001F038BD40F252
S315080007001500C2F200000078042818BF032801D19A
S315080007103F207047022814BF81200820704740F206
S315080007201500C2F200000078042818BF032801D17A
S315080007303F207047022814BF812008207047B0B5B3
S3150800074040F60810C2F200000024047001F042FCD2
S3150800075040F60411C2F20001086001F0D6FDFFF769
S31508000760EDFE40F21505C2F200050220287001F0E0
S315080007703DFB2C7001F00BFD03202870B0BD80B541
S3150800078001F0CFFD002818BF012080BD70B582B0EA
S3150800079040F2A800C2F200000DF10701FFF756FF6C
S315080007A040F2150640F6081540F604140128C2F270
S315080007B00006C2F20005C2F200040ED10220307013
S315080007C00120287001F006FC9DF80710206040F211
S315080007D0A800C2F2000001F0AFFD40F2A800C2F284
S315080007E000000DF1070101F020FB01280ED10020C1
S315080007F030700120287001F0EDFB9DF8071020608D
S3150800080040F2A800C2F2000001F096FD40F2A800EE
S31508000810C2F200000DF1070101F0ECFC01280ED12F
S31508000820032030700120287001F0D4FB9DF80710D2
S31508000830206040F2A800C2F2000001F07DFD01F040
S3150800084070FDA8B1287898B101F0C4FB2168401A58
S3150800085041F2883188420BD30020287001F0BAFB98
S31508000860206002208DF8040001A9052000F092F806
S3150800087002B070BD70B540F21506C2F200063278B5
S315080008800D46022A044604D1E9B22046FFF7FCFECB
S31508000890327822B9E9B2204601F03EFB3278032AC3
S315080008A003D1E9B2204601F0FDFC01F005FF01F095
S315080008B091FB40F60411C2F20001086070BDAFF367
S315080008C00080642001F032BAAFF3008001F034BA38
S315080008D0AFF3008072B6704762B6704770B562B102
S315080008E014460D46064600BF15F8010B013C06F8EE
S315080008F0010BFFF7E9FF2004F6D170BD10B501F032
S3150800090050FA08B300F026F8F0B1FFF7E6FE01202A
S31508000910002100F03FF800F073FC01F0D5FB01F070
S315080009203CFA4FF68071C1F6FF7108404EF6085141
S31508000930CEF20001086001F030FA4468FFF7CCFFF8
S315080009402046BDE81040004702200021BDE81040BF
S3150800095000F020B880B51020C4F600000068C00773
S3150800096004BF002080BD01F0DBF9012080BD70477F
S3150800097040F63010C2F200000021016040F6D800AF
S31508000980C2F20000016040F62C10C2F200000170AD
S3150800099070470000B0B50446033804280D4655D8FC
S315080009A0DFE800F003131B22330040F63010C2F2D2
S315080009B000000021016040F6D800C2F20000016084
S315080009C040F62C10C2F200000CE040F62C10C2F2E1
S315080009D00000007800283FD0B0BD40F62C10C2F2C7
S315080009E000000121017031E035B945F2BE00C0F6BC
S315080009F000006721FFF73AFD40F63011C2F2000108
S31508000A0068680A681044086020E035B945F2BE00F7
S31508000A10C0F600005821FFF729FD40F63010C2F253
S31508000A200000026840F6D800C2F2000001684FF0E4
S31508000A3000033AB1914205D864234B4303EB5203B2
S31508000A40B3FBF2F36A682B7211440160204629460B
S31508000A50BDE8B040FFF78BBF40F6D800C2F20000F1
S31508000A6000680028B8D040F63011C2F200010968C3
S31508000A708842EBD0B0E742F20C00C4F202000168EB
S31508000A8040F65012C906C2F2000201D4002104E061
S31508000A90D16941F00201D161102103685B0705D5D0
S31508000AA0D36941F0040143F00103D3610160704743
S31508000AB0F0B581B042F20C060446C4F2020600F014
S31508000AC096FC3168C9070FD13068800644BF2020DC
S31508000AD030603068C0065CBF30685FEA407009D590
S31508000AE0FFF7C9FF012006E00546671C06D054B982
S31508000AF0032000E0002001B0F0BD00BF3068C00749
S31508000B00E2D0002FFAD000F072FC401BA042F5D9C3
S31508000B10EEE700002DE9F04106460068884640F2F7
S31508000B20FF111C461546421C28EA010707D1301D4D
S31508000B3039464FF400723760FFF7D0FE3068B84286
S31508000B4006D03046394600F09CF8F0B107680646EC
S31508000B50A8EB07003044071DFFF7B6FEB81B04389C
S31508000B60B0F5007F08D3306800F50071304600F014
S31508000B7088F850B10646071D15F8010B013C07F821
S31508000B80010BE9D10120BDE8F0810020BDE8F08124
S31508000B9080B540F2D460C2F200000068013006D089
S31508000BA040F2D460C2F2000000F0DEF878B140F2FC
S31508000BB0D040C2F200000068013006D040F2D040B2
S31508000BC0C2F2000000F0D0F808B1012080BD002074
S31508000BD080BD0000F0B585B040F2FF724AF200030E
S31508000BE020EA0202C0F6000300249A42049433D392
S31508000BF04FF6FF77C0F603074B1E3E1AB3422BD8B3
S31508000C000344BB4228D86FF3DF200844C50A4105D0
S31508000C104FF0010418BF04EBD025002001A915C127
S31508000C2000F0CEFBAEB2AEB1002701AC04AD00BFFA
S31508000C30FFF74AFE2046294600F0F4FA48B902981A
S31508000C400137B9B200F500608E420290F0D801244F
S31508000C5000E0002400F04FFB204605B0F0BD4AF244
S31508000C600000C0F60000704740F2D040C2F2000013
S31508000C704FF0FF31016040F2D460C2F2000001601B
S31508000C807047B0B5044640F2D460C2F20000844210
S31508000C900D460AD04AF20000C0F60000854209D186
S31508000CA040F2D464C2F200040CE040F2D044C2F22E
S31508000CB0000403E0204600F057F808B1E80501D023
S31508000CC000240AE02068A84207D0204640F8045BC2
S31508000CD029464FF40072FFF701FE2046B0BDB0B5B5
S31508000CE04AF20000C0F60000D0E900C2D0E902319D
S31508000CF06244D0E904E41A441144856971442144E4
S31508000D00D0F8880129440844B0FA80F04009B0BDFB
S31508000D1010B54AF2000EC0F6000E704521D3034600
S31508000D208C46481E4FF6FF71C0F60301CC1AA04246
S31508000D3017D81844884214D840F2FF1023EA000155
S31508000D4040F2D04040F2D464C2F20000C2F200047D
S31508000D50714508BF204619466346BDE81040FFF7AF
S31508000D60D9BE002010BD00002DE9F04381B08146B0
S31508000D7000F026FB09F1040800240025D9F8000034
S31508000D8058F804602718FFF79FFD022039463246B7
S31508000D90002300F0BBFA48B93868B04205D10434DC
S31508000DA0B4F5007FEAD1012500E0002500F0A3FA9A
S31508000DB0284601B0BDE8F083B0B582B040F2D460F1
S31508000DC0C2F200000168013117D0D0E901C2D0E9AA
S31508000DD003316244D0E905E41A441144C5697144F3
S31508000DE021442944494201914AF28811C0F600017A
S31508000DF001AA0423FFF78EFE00E0012002B0B0BD71
S31508000E0010B590F820E0D0F800C0AEF1010EBEF1A2
S31508000E10010FDCF808E00ED81EF0E05F11D0CEF323
S31508000E20016E012000FA0EF018608B687BB14868E5
S31508000E3043EAC0030DE000F1240101204FF48022AB
S31508000E4023E000F1240101204FF400121DE0086898
S31508000E504305D1E9030403430CEB0E10C0F88031B7
S31508000E60C0F88441097D012905D100F5C2710B68D6
S31508000E7043F480730B605168C0F88C11126800F552
S31508000E80C071C0F88821002001220B681A430A6045
S31508000E9010BDB0B5026890F82030013B012B27D869
S31508000EA0D2F80002012340F00100C2F80002D1F88E
S31508000EB014E0CC690EF01F0003FA00F0D2F81C32D9
S31508000EC06FEA000C8343012CC2F81C3216D064BBAF
S31508000ED0D2F80C3203EA0C03C2F80C32CB688C88C1
S31508000EE044EA034302EBCE04C4F840320B4614E04E
S31508000EF0416A41F4802141620120B0BDD2F80C322A
S31508000F000343C2F80C320B688C8844EA034302EBAD
S31508000F10CE04C4F8403201F10C038C681B8843EAFE
S31508000F20044302EBCE04C4F84432D2F804328D6985
S31508000F3043EA0004D1F810E0096A002D08BF03EA65
S31508000F400C04C2F80442D2F81432BEF1000F43EA88
S31508000F50000408BF03EA0C040129C2F8144204D1AC
S31508000F60D2F81C120843C2F81C02D2F8000220F07C
S31508000F700100C2F800020020B0BD10B590F820406C
S31508000F80013C012C77D8D0F800C000290CBFDCF84A
S31508000F900C40DCF81040A40773D00CEB011CDCF8FD
S31508000FA0B0410CF5D87E14F004049460DCF8B04126
S31508000FB019BFE4085460640D1460DEF800400CF5AF
S31508000FC0DA7E04F00204D460DCF8B44124075ABF80
S31508000FD0DEF8004004F00F0408241461DEF800402F
S31508000FE00029C4F307249461DEF800404FEA14444C
S31508000FF05461DCF8B8211A70026802EB0112D2F8C3
S31508001000B8214FEA12225A70026802EB0112D2F88E
S31508001010B8214FEA12429A70026802EB0112D2F81E
S31508001020B8214FEA1262DA70026802EB0112D2F8AE
S31508001030BC211A71026802EB0112D2F8BC214FEAF0
S3150800104012225A71026802EB0112D2F8BC214FEA49
S3150800105012429A71026802EB0112D2F8BC214FEAD9
S315080010601262DA7100680CBF00F10C0100F1100180
S31508001070002020220AE000F1240101204FF48022FA
S3150800108004E000F1240101204FF400120B681A4312
S315080010900A6010BDB0B5C8B1044690F8200010B972
S315080010A0204600F07FF82068016841F001010160E0
S315080010B000F09DF9054600BF20684168C90707D1B9
S315080010C000F095F9401B0B28F6D312E00120B0BDBD
S315080010D0016821F00201016000F089F9054600BFA8
S315080010E02068416889070BD500F081F9401B0B2859
S315080010F0F6D3606A052140F40030606201203EE0C4
S31508001100217E0268012922F0800208BF803202602F
S31508001110617E0268012922F0400208BF403202605F
S31508001120A17E0268012922F0200208BF203202604F
S31508001130E17E0268012922F0100218BF103202600F
S31508001140217F0268012922F0080208BF08320260DE
S31508001150617F0268012922F0040208BF0432026096
S31508001160D4E901C2D4E9033561691A432A43114314
S31508001170ACF101021143C16100200121606284F8CB
S315080011802010B0BD90F82020013A012A84BF002023
S3150800119070470068806800EA8160B0EB816018BF1C
S315080011A00120704770470000B0B5044690F820004B
S315080011B001281CD1022084F820002068016821F04B
S315080011C00101016000F013F9054600BF2068406878
S315080011D0C00712D000F00BF9401B0B28F6D3606A43
S315080011E040F400306062052084F8200003E0606A5D
S315080011F040F4002060620120B0BD00206062B0BDEE
S3150800120080B541F20C00C4F202004FF0FF31002213
S315080012104160426001600260C161C26100F04EF93E
S31508001220002080BD2DE9F04381B040F65016C2F289
S315080012300006327E012A01D1022056E00546012029
S315080012402C6830764CF250308846FFF731FC012C7A
S3150800125018D1002846D1002042F21004F061C4F2E9
S315080012600204206840F004002060206840F0400036
S3150800127020604CF25030FFF71BFC216821F0040176
S31508001280216030E070BB4FF0FF30C8F80000D5E9A8
S31508001290017007EBC020874224D242F21004C4F240
S315080012A002044FF0000900BFC6F81C90206840F001
S315080012B0020020606760206840F0400020604CF221
S315080012C05030FFF7F5FB216821F00201216078B95B
S315080012D0D5E9010107F5006700EBC1208742E3D392
S315080012E0002000E001200021317601B0BDE8F0833E
S315080012F0C8F80070F7E742F21001C4F20201086864
S3150800130040F0800200200A60704700002DE9F04F87
S3150800131081B040F65018C2F20008924698F8182094
S31508001320012A01D1022048E08146012088F81800E8
S315080013304CF250301C460E46FFF7BAFBD0BB4D4662
S3150800134042F21007B9F1020F18BF0425C4F20207CA
S31508001350B9F1010F08BF4D466FF01F0900204FF085
S31508001360000B00BF202200230101A2EB0012C8F8DF
S315080013701C3004FA02F22AFA01F13B68114309EB20
S315080013800012002A58BF24FA02F143F001023A601B
S3150800139026F810104CF25030FFF78AFB396821F016
S315080013A00101396030B90BF1010B5FFA8BF0854208
S315080013B0D8D80020002188F8181001B0BDE8F08FB1
S315080013C042F20400C4F20200C16809065CBF0020AC
S315080013D0704740F22311C4F26751016048F6AB1119
S315080013E0CCF6EF510160C068C0F3C010704780B5F5
S315080013F0242040F6341EC4F20000C2F2000E006833
S31508001400BEF80020801A80B2632816D948F21F5306
S31508001410C5F2EB1340F64C1CA0FB0303C2F2000C0A
S31508001420DCF80000590900EB5310642301FB032183
S31508001430CCF80000AEF8001080BD40F64C10C2F2A1
S315080014400000006880BD80B542F20000C4F20200C8
S31508001450016841F010010160032000F06DF90F20CA
S3150800146000F004F800F07CF8002080BDB0B540F22A
S315080014704102C2F2000240F200011278C2F20001F3
S315080014804FF47A730968B3FBF2F20446B1FBF2F142
S31508001490084600F063F90F2C4FF001050CD858B92F
S315080014A04FF0FF3021460022002500F01AF940F2DD
S315080014B04400C2F2000004602846B0BDB0B588B04A
S315080014C0002041F214050690C4F20205296840F688
S315080014D0000441F4002129602968C4F6000401F4D7
S315080014E00021079107994FF48051A16101910121CB
S315080014F0CDE90210CDE9040001A9204600F016FA4C
S3150800150000F084FA04F5806000F0DCF9A4F5806048
S3150800151000F0D8F94FF0904000F0D4F9A86820F40C
S315080015208020A860A86820F00070A860A86820F449
S315080015300000A860286820F480102860286820F435
S3150800154080202860286820F400302860A86820F0E9
S315080015508050A860686820F00100686008B0B0BDD7
S315080015602DE9F04188B0002641F21400CDE9056660
S31508001570CDE90366C4F20200416801AC41F00101FD
S3150800158041604168012701F00101079107998168C7
S3150800159041F080518160816801F080510791079977
S315080015A0016841F400310160016801F400310791D6
S315080015B00799016841F480210160016801F48021DE
S315080015C007910799016841F400210160016801F457
S315080015D0002107910799016841F4801101600168AB
S315080015E001F4801107910799016841F480010160AF
S315080015F0016801F4800107910799816841F4802107
S315080016008160816801F4802107910799816841F01A
S3150800161000718160816801F00071079107998168FE
S3150800162041F4000181608068214600F400000790BB
S3150800163007984FF09040CDE90176059700F076F9C6
S315080016404FF6280040F60005CFF6FF70C4F60005F1
S3150800165020212950CDE901174FF090402146CDE9C8
S315080016600366059600F062F94FF48050A861CDE94B
S31508001670010728462146CDE90366059600F056F986
S315080016804FF4406001900720A5F580654FF00208E9
S315080016900327069028462146CDF80880CDE903762B
S315080016A0059600F043F94FF44070CDE9010809208A
S315080016B0069028462146CDE90376059600F036F9C8
S315080016C04FF4C050CDE901080E2006904FF0904027
S315080016D02146CDE90376059600F028F908B0BDE85D
S315080016E0F08110B54EF60C5CCEF2000CDCF800303A
S315080016F0C3F3022E8EF00704042C28BF0424BEF17F
S3150800170003034FF0FF3E0EFA04F438BF0023A1434B
S3150800171099400EFA03F39A4300F00F03043B114372
S31508001720634409010C3300F16042B0F1FF3FC8BFC2
S3150800173002F56443197010BD4EF60C51CEF2000145
S315080017400A684FF6FF031A4060F30A2242F08060E7
S3150800175040F0FD700860704770477047411E0020D2
S31508001760B0EB116F1CBF012070474EF21002CEF28B
S31508001770000251604EF62351CEF20001F0230B70A1
S315080017800721906011607047B0B500284FF000003F
S315080017901BD1D1B11446C2B140F64415C2F20005B8
S315080017A0286840F63812C2F20002821A92B238BF8E
S315080017B00D2222440C2A84BF0020B0BD2246FFF722
S315080017C08DF82868204428600120B0BD80B582B015
S315080017D000F0E7FA98B140F638104AF20021C2F252
S315080017E00000C0F6000100F00DF848B905208DF894
S315080017F0040001A90520FFF7CDF8002000E001202C
S3150800180002B080BD0A6803689A421CBF0020704770
S3150800181049684068081AB0FA80F040097047000025
S3150800182018B109A0AE21FEF721BE40F63810C2F263
S3150800183000000021C0E90011816040F64411C2F29F
S3150800184000010860704700BF2E2E2F2E2E2F2E2E39
S315080018502F2E2E2F536F757263652F696E666F7400
S3150800186061626C652E63000008B10C200CE040F63E
S315080018704410C2F20000006840F63811C2F20001B6
S3150800188088422CBF401A0D2080B270474AF20021C8
S3150800189040F63812C0F60001C2F20002002808BF5E
S315080018A011460846704740F63810C2F2000000217B
S315080018B0C0E90011816040F64411C2F200010860D7
S315080018C07047000000F138404FEAB020052884BF71
S315080018D00120704741F2280308A1C4F2020351F817
S315080018E020101A680FF22C0C114319605CF82000BE
S315080018F01968084018600020704700BF0000020001
S31508001900000004000000080000001000000020008D
S3150800191000004000FFFFFDFFFFFFFBFFFFFFF7FF93
S31508001920FFFFEFFFFFFFDFFFFFFFBFFF2DE9F04FD0
S315080019300C6894FAA4F2B2FA82F234FA02F362D08C
S315080019404FF001084FF0030B08FA02F314EA030CF0
S3150800195055D0D1F80490A9F10103022B1CD29CFAA8
S31508001960ACF5B5FA85F77D00D0F808A00BFA05F3B3
S31508001970D1E902BE2AEA030A0BFA05F646EA0A067E
S31508001980866046684FF0030BA6430EFB04F4DB4360
S315080019902643466008E000BF9CFAACF3B3FA83F727
S315080019A07D000BFA05F3DB430E69C468AE401C40A4
S315080019B02643B9F1020FC6601AD15FFA8CF64FEAD0
S315080019C01C24D1F814E094FAA4F4002E08BFB4FA43
S315080019D084F74FF0200608BF242650F806C0BF003B
S315080019E00F24BC402CEA04040EFA07F72743875154
S315080019F0D1E900470668AF4033403B4303600132F4
S31508001A0034FA02F3A0D10020BDE8F08F81B041F28C
S31508001A100001C4F20201086840F00100086000BF36
S31508001A2008688007FCD50868102262F3C7000860BA
S31508001A304FF0FF30009000984CF20C02CFF6FF02F0
S31508001A401040009000984860486810F00C0FFBD1D1
S31508001A5008684FF6FF7200900098CFF6F6621040BD
S31508001A6000900098086000BF08688001FCD40868E8
S31508001A704FF41F0220F48020086000204860C862E6
S31508001A8008630092009A8A608860486A40F080720B
S31508001A9000204A6201B0704710B5044600F085F987
S31508001AA041F204012060C4F202010A6844F6227376
S31508001AB0C2F30312C0F600039A5C44F63273D040B0
S31508001AC060600A68C0F60003C2F302229A5C20FA34
S31508001AD002F2A2600968C1F3C221595CC840E060FD
S31508001AE010BD10B5B0F5400F0AD0B0F5401F18D19B
S31508001AF041F20004C4F20204206BC0F3015006E070
S31508001B0041F20004C4F20204206BC0F3815003289A
S31508001B1009D0022810D0012814D1BDE8104000F0E1
S31508001B2044B9002010BD206841F200218007C0F2A8
S31508001B307A0101EAE07010BD206A4FF4004101EA1B
S31508001B40803010BD00F031F9616844F6227263688E
S31508001B50C1F30311C0F60002515CC3F3022244F636
S31508001B603273C0F600039A5CC840D04010BD10B569
S31508001B7012281DD0102823D098BB41F20004C4F2C5
S31508001B800204206B00F0030003282CD0022833D06F
S31508001B90012822D000F009F9616844F62272C1F3DF
S31508001BA00311C0F600026368515CC3F3C22236E033
S31508001BB041F20004C4F20204206BC0F3814006E03F
S31508001BC041F20004C4F20204206BC0F3014003286A
S31508001BD009D0022810D0012814D1BDE8104000F021
S31508001BE0E4B8002010BD206841F200218007C0F249
S31508001BF07A0101EAE07010BD206A4FF4004101EA5B
S31508001C00803010BD00F0D1F8616844F62272C1F345
S31508001C100311C0F600026368515CC3F3022244F65E
S31508001C203273C0F600039A5CC840D04010BD40F23B
S31508001C300001C2F200010860704770B504460068EA
S31508001C40C00763D120680E4649F20C618843D6E97D
S31508001C50011CD6E903320843B569184310432843E3
S31508001C602060606820F4405040EA0C0060607069AB
S31508001C70A16821F440710843A06044F6FF30C4F21D
S31508001C80000084424FF0010014DD44F60041C4F21E
S31508001C9000018C421CD045F20001C4F200018C42BE
S31508001CA019D043F60001C4F201018C4218BF70BD79
S31508001CB0002016E044F20041C4F200018C420FD025
S31508001CC044F60001C4F200018C4228D1122008E033
S31508001CD04FF4401001E04FF44000FFF702FF02E026
S31508001CE01020FFF744FF88B1316879B1B269B2F5BF
S31508001CF0004F0DD14A0802EB4000B0FBF1F04FF659
S31508001D00F0710140C0F34200084406E0012070BDAE
S31508001D1000EB5100B0FBF1F080B2E060002070BD2E
S31508001D202820C4F6000020210160704740F64811BB
S31508001D30C2F200010880704710B500F04BF940F276
S31508001D402C14C2F200042168884238BF10BD40F244
S31508001D502910C2F2000001781822C4F600020029F0
S31508001D6081F0010118BF103201702020106000F0C8
S31508001D7031F940F64811C2F200010988084420608A
S31508001D8010BD80B5FFF718F818B1BDE88040FEF71A
S31508001D90FFBE002080BDFEF71DBFFEF760BFFEF741
S31508001DA063BFFEF79CBFFEF7B3BF41F20401C4F25E
S31508001DB00201086800F00C00082841F20020C0F271
S31508001DC07A0018BF70470A68D2035CBF40F6001055
S31508001DD0C0F23D008A6A096802F00F020132B0FBC0
S31508001DE0F2F0C1F3834102314843704710B588B019
S31508001DF044F60004C4F2000420680C2120F0010017
S31508001E0020604FF4614001900020CDE90200049063
S31508001E10CDE90510079001A92046FFF70EFF2068B7
S31508001E2040F00100206008B010BDF0B581B040F266
S31508001E30B416C2F200060D46317844F61C02C4F206
S31508001E400002A1B140F2B517C2F200073B7811684B
S31508001E50890612D400F0BEF840F2B811C2F20001A9
S31508001E6009680024C831884288BF34703BE010688E
S31508001E7010F0200119D1002435E040F23011C2F2E9
S31508001E80000112895C18627001330C78DAB2A2423A
S31508001E904FF000043B7026D101313B70FEF71EFD62
S31508001EA038783470287001241DE0108940F2301209
S31508001EB0C2F200024FF000041070A1B14FF0FF31DA
S31508001EC051FA80F080280ED800F084F840F2B81154
S31508001ED0C2F20001086040F2B510C2F20000002408
S31508001EE0047001203070204601B0F0BDB0B544F64C
S31508001EF01C04C4F20004A08100F06CF800F10A0585
S31508001F002068000648BFB0BDFEF7DEFC00F062F8A8
S31508001F10A842F5D9B0BD0000B0B50C4682290546E1
S31508001F2004D22046FFF7E2FF44B90FE008A0722169
S31508001F30FEF79CFA2046FFF7D9FF00BFFEF7C4FC60
S31508001F4015F8010BFFF7D2FF013CF7D1B0BD00BF72
S31508001F502E2E2F2E2E2F2E2E2F2E2E2F536F75729E
S31508001F6063652F41524D434D345F53544D333246CA
S31508001F70332F72733233322E63000000704780B5F8
S31508001F8088B000214EF688500691CEF2000002680D
S31508001F9042F47002026041F21400C4F202000268C0
S31508001FA042F40022026000684FF4805200F40020D8
S31508001FB00790079840F60000C4F600008261019277
S31508001FC00122CDE90221CDE9041101A9FFF7AEFCF2
S31508001FD008B080BD80B5242040F6341EC4F2000047
S31508001FE0C2F2000E0068BEF80020801A80B263288C
S31508001FF016D948F21F53C5F2EB1340F64C1CA0FB4A
S315080020000303C2F2000CDCF80000590900EB531078
S31508002010642301FB0321CCF80000AEF8001080BD54
S3150800202040F64C10C2F20000006880BD81B041F253
S315080020300400C4F20200816944F6327341F00101DA
S3150800204081618169C0F6000301F0010100910099E0
S3150800205040F20001C2F20001096802680068C2F392
S3150800206002229A5C10F4E06F21FA02F14FF00202A4
S3150800207008BF012202FB01F045F6C5214009C0F65A
S315080020807C21A0FB01014FF0804001220260142050
S31508002090C4F200004FF6FF7282614FF0FF3202EB86
S315080020A0D11141610168002241F00101016040F649
S315080020B04C11C2F200010A60006940F63411C2F2FE
S315080020C00001088001B0704741F21000C4F2020016
S315080020D0016841F001010160016821F00101016018
S315080020E0C16821F00101C1604EF21000CEF2000075
S315080020F000210160416081604EF60450CEF2000076
S315080021004FF000710160704780B5242040F6341EF8
S31508002110C4F20000C2F2000E0268BEF80010521A9D
S3150800212092B2642A38BF80BD48F21F53C5F2EB133A
S3150800213040F64C1CA2FB0323C2F2000CDCF800207C
S31508002140580902EB5312642300FB0310CCF8002055
S31508002150AEF8000080BD40F61801C4F6000101285B
S315080021604FF4805008BF103108607047704780B53B
S3150800217001F081FF40F6741045F60041C2F20000F6
S31508002180C4F200010160BDE88040FFF7E5BA80B5FA
S3150800219082B040F6741045F60041C2F20000C4F25F
S315080021A000010160FFF7D9FA0120ADF806000DF12C
S315080021B00601002001F070FFFEF780F900097C286F
S315080021C003D84FF4FA60FEF791F902B080BD704764
S315080021D010B50446002002F026FC48B1002021462E
S315080021E0012202F02CFC0138B0FA80F0400910BD3B
S315080021F0002010BD2DE9F04381B0054600200C46AD
S3150800220000F084FE4FF0FF30002101F0CFFF40F2CE
S31508002210FD18C2F2000898F8000028B340F2FE192B
S31508002220C2F2000999F8000040F2BD17C2F2000791
S3150800223038440130FFF7CCFF01282ED199F8000069
S3150800224039780130C2B28A424FF0000689F8000098
S3150800225024D1791C2846FEF741FB99F8000088F836
S3150800226000600126207019E040F2BD14C2F2000495
S315080022702046FFF7ADFF01284FF000060ED1207863
S3150800228001383E280AD8012088F8000040F2FE10DE
S31508002290C2F200000026067000E00026304601B0B3
S315080022A0BDE8F08310B582B0044640298DF80710C2
S315080022B006D345F29600C0F600008D21FEF7D6F843
S315080022C00DF107010020012202F0C7FB012806D004
S315080022D045F29600C0F600009121FEF7C7F89DF872
S315080022E007200020214602F0B8FB9DF80710884217
S315080022F006D045F29600C0F600009421FEF7B6F81F
S31508002300002002F0B8FB02B010BD40F64840C2F209
S3150800231000000021C0F88810A0F88610C0F88110C7
S31508002320704740F64840C2F2000090F88100002845
S3150800233018BF0120704700002DE9F04184B005461A
S31508002340007840F64844FF28C2F200041AD101205A
S31508002350A4F8810041F2FF0020800020A070FEF75B
S31508002360CEF9E070FEF7DBF92071FEF7D8F9000A1E
S31508002370607140F20110E0800820A4F88600FFF79B
S315080023800EFD70E194F88110012940F08981A0F1D1
S31508002390F1010D2930D8DFE801F007B85B717C93AD
S315080023A0B8B8B899B8A4ADC66878172840F0B4800C
S315080023B0A878082800F02481062800F03881042827
S315080023C040F0AA800120FFF74FFAADF80C00012073
S315080023D0FFF75CFA00900020FFF722FA40F2FF4070
S315080023E02080A01C03A90222FEF778FA201D694660
S315080023F00422FEF773FAF6E0C938092800F2858048
S31508002400DFE800F00583838D83838F95A0B3D4F826
S315080024108860FEF774F9471E00208DF808006946A3
S315080024200720CDE90067FEF7B5FA6A1C304639463B
S31508002430FFF7B9FC002800F0DE80FF202070FEF7C9
S315080024405EF9D4F8881008440138C4F888008AE090
S315080024506E68FF20002E4FF00008207000F0B8804C
S31508002460D4F88870002000BF17F8011B013E4518F4
S31508002470FEF72AFA002EE8B2F6D1AAE06E78FEF741
S315080024803EF9B04240F2E2806968C4F888106A787A
S3150800249008E06E78FEF733F9B04240F2D7806A78E2
S315080024A0D4F88810601CFEF719FA6878D4F88810F2
S315080024B00844C4F888006878FF2121700130D0E00C
S315080024C06968FF202070C4F888104CE045F2DA01EC
S315080024D0C0F60001FF20C4F888100721C4E90001EE
S315080024E081E003208DF8000069460520FEF752FAC0
S315080024F0FE20B4E0FF2094F8821020800020A1700E
S31508002500A4F8030060710620ABE003208DF80000F4
S3150800251069460520FEF73EFA42F2FE009FE0CC200F
S315080025206AE0FEF7EBF90020A4F8810019E06E785E
S31508002530FEF7E5F80238B0422BDA03208DF80C00D6
S3150800254003A987E0D4F888606F6869460620CDE954
S315080025500067FEF71FFA30463946FFF71CFC0028CD
S3150800256049D0FF20207001207BE0FF200025208035
S31508002570A570FEF7C4F8E0700720A4F8860069463F
S315080025800320A580A5718DF800500195FEF702FA83
S3150800259069E00120A4F886006E78FF20207026B333
S315080025A0D4F8887000208DF8080069460720CDE920
S315080025B00076FEF7EFF9AA1C38463146FFF7F3FB1B
S315080025C0C8B16878D4F888100844C4F888004AE086
S315080025D000250120A4F801002571A4F8058084F8D7
S315080025E0078084F8038008203BE0FFF7CAFB10B198
S315080025F004200021CAE72878312100F065F832E086
S3150800260040F6FF00208003260020A4F88660FFF726
S315080026102BF905460120FFF727F9854243D1FFF735
S31508002620D5F8012814BF00200120A0701BE0EE7821
S31508002630FEF765F80438B04208DBEA78291D002061
S31508002640FFF7A2F810B140F2FF6008E003206946E0
S315080026508DF800000520FEF79DF942F2FE20208045
S315080026600220A4F8860094F8840001280DD10320DE
S315080026708DF8000069460520FEF78CF941F2FE0048
S3150800268020800220A4F8860003E0B4F98600012819
S3150800269006DB012184F8841081B22046FEF7EAF8A9
S315080026A004B0BDE8F081694605208DF80060FEF7A4
S315080026B071F942F6FE10D2E740F64840C2F2000031
S315080026C0002180F88410704710B582B0F1280C46B6
S315080026D008BF202C13D00321252C8DF8041007D011
S315080026E0312C08D1C92818BFD02814D1012000E000
S315080026F004208DF8040001A90520FEF74BF940F6E1
S315080027004840C2F20000FE21017002214470A0F880
S31508002710861002B010BDD128EDD10020E9E70000EF
S3150800272070B58488D61A38BF06EB4406350418D027
S31508002730B5B2A54206D92346944298BF5B421344D4
S31508002740438100BF9DB2A542A3EB0403FAD2C28817
S3150800275000686FF3DF3202FB050308461946FDF7EA
S31508002760A2FDB0B2002818BF012070BD2DE9F041C6
S31508002770069E1446054680889A1B38BF02EB40021F
S3150800278017042ED0884691B2814207D9014698424D
S3150800279098BF4942CE1802466E8100BFB1B2334691
S315080027A08142A6EB0006F9D296B2A64238BF144675
S315080027B0C01AEB882F686FF3DF33A2B286B203FB29
S315080027C00171B2420FD9221A03FB00F703FB02F686
S315080027D0BAB24046FDF767FD296818FA87F0B2B223
S315080027E003E0002403E05A434046FDF75CFDA0B22F
S315080027F0BDE8F0812DE9F04381B040F20425C2F22C
S3150800280000052978FF2920D040F2002844F63C79B3
S3150800281004460026C2F20008C0F60009002700BFD9
S31508002820C8B2874204D2D8F80000E0B1304401E0CB
S31508002830484618D1C1682046884729780137481C78
S31508002840C0B2874206F12406EAD340F29C24C2F2BB
S31508002850000420463421FDF773FD201D2021FF22A8
S31508002860FDF766FD07E04EF6F050CEF20000006870
S31508002870C00700D000BE01B0BDE8F083B0B540F295
S315080028804821C2F200018A89CB890446D51AAAB220
S31508002890402A91F9002028BF4025B2F1FF3F01DD0B
S315080028A000210BE0280408D08968A1B140F208206D
S315080028B0AAB2C2F20000FDF7F6FC802140F2082217
S315080028C0C2F20002ABB2002B08BF1A462046BDE88A
S315080028D0B04002F0B9B90020B0BD7047704708781B
S315080028E0400645F64C40C4F2000007D14A78052A4E
S315080028F004D14988012262F3DF1101804FF4805127
S31508002900A0F8C013704710B540F6D44001F00F0C7C
S31508002910C2F20000CA0900EB4C10531E00EB02106D
S3150800292018BF012390F80EE045F6004CC4F2000CDF
S315080029303CF82E2048F280001043DA00131D0324C9
S3150800294004FA03F30632012404FA02F21A4348F69B
S315080029508F731A43024000F4C0604FF40053B4EB7F
S31508002960D11F08BF2023B0F5806F18BF5A402CF836
S315080029702E20BFF34F8FBFF36F8F10BD80B545F67E
S31508002980044E40F609124FF0000CC4F2000EC2F2D3
S3150800299000024FF6FF73002020F80EC0111804300D
S315080029A01C284B60F8D140F62A10BFF34F8FC2F2AD
S315080029B00000C021BFF36F8F018080BD2DE9F04371
S315080029C081B08E78C8780F468D8800F003013046AE
S315080029D000F0AAF8082816D245F60048C4F20008FE
S315080029E0044638F8200047F270010840F97806F0E6
S315080029F00F0701F00301022938440DD003293CD101
S31508002A0048F280610AE04EF6F050CEF20000006807
S31508002A10C0073AD000BE38E048F280016FF3DF25E0
S31508002A2040EA01092846F60900F080FC86F0010113
S31508002A3008EB041202EBC101A1F8000440F6D440E9
S31508002A40C2F2000000EB471000EB06108581847384
S31508002A504FF40050002E18BF202080EA09004FF6D8
S31508002A608F7118BF48F6FF71084028F82400BFF395
S31508002A704F8F0120BFF36F8F08E04EF6F050CEF26D
S31508002A8000000068C00700D000BE002001B0BDE805
S31508002A90F08380B540F6D44301F00F00C2F200037C
S31508002AA0CA0903EB401000EB0210807B45F6004C88
S31508002AB0C4F2000C3CF8203048F280021A434BF668
S31508002AC08F734FF0010ECFF6FF73BEEBD11F04BF15
S31508002AD048F6BF73CFF6FF7302EA03014FF480523C
S31508002AE008BF102251402CF82010BFF34F8FBFF3B8
S31508002AF06F8F80BD10B54FEAD11C01F00F0040F66C
S31508002B00D441C2F2000101EB401E4FEA0C140EEB51
S31508002B100C114EF8042000224A600B814A81614656
S31508002B2000F01BFD012010BDB0B5012200F00F0E0C
S31508002B304FEAD01C82EAD010841C40F609100CF12A
S31508002B4002030022C2F20000C55C3DB145788D4201
S31508002B5012D1057875450FD11EE000BF012901D1B4
S31508002B60055D4DB90578FF2D18BF754504D1457823
S31508002B70FF2D18BF8D4211D0013A12F1080500F158
S31508002B800400E1D14EF6F050CEF200000068C0070E
S31508002B9000D000BE002208E0524206E080F800E0BD
S31508002BA041706044012152428170D0B2B0BD00002C
S31508002BB02DE9F04784B0054640788946023805284D
S31508002BC000F28F80DFE800F003126E7A86BD40F2CD
S31508002BD09C20C2F20000017801F0FE010170017824
S31508002BE001F0FD010170002141706FE040F20428F8
S31508002BF0C2F2000898F80000FF2821D040F2002A07
S31508002C0044F63C760027C2F2000AC0F60006002405
S31508002C10C1B28C4204D2DAF8001051B1394401E04D
S31508002C20314606D10A6A22B128786968904798F829
S31508002C300000411C0134C9B28C4207F12407E7D3CE
S31508002C4040F29C27C2F20007387840F2D0284007A5
S31508002C50C2F2000840F1D1803878B9F1000F00F0CF
S31508002C60FB0038702878D8F800408DF804004FF03B
S31508002C7005008DF805004FF000000390029000F063
S31508002C80A380201D01A901F05FF8002840F0AE805E
S31508002C904EF6F050CEF200000068C00700F0AD8096
S31508002CA000BEAAE040F29C20C2F200000178C907E3
S31508002CB000F0D980017841F0040111E040F29C202F
S31508002CC0C2F200000178C90700F0CD80017801F052
S31508002CD0FB0105E040F29430C2F2000001780131B0
S31508002CE0017040F2D020C2F200000468B9F1000F6A
S31508002CF00ED0201D294601F027F8D0B94EF6F0501F
S31508002D00CEF200000068C00700F0AD8000BEAAE061
S31508002D1040F20406C2F20006316800208847201DEA
S31508002D20294601F011F83168064601208847002E29
S31508002D30E4D0287869784A4604B0BDE8F04701F03F
S31508002D40A4B9297911F00F00CBD040F29C22C2F227
S31508002D50000202EB400040F2042300EBD112C2F25B
S31508002D600003127D1B7893420BD940F20023C2F26E
S31508002D7000031B68002BB4D002EBC20203EB8202ED
S31508002D8004E0AED144F63C72C0F60002D369002BCB
S31508002D90A7D0CB09C41814F8240F00F0FE00207041
S31508002DA0207800F0FB002070D76928786A79AB682C
S31508002DB0B847002857D1207840F0010020702078C5
S31508002DC040F0040020708CE740F20406C2F20006C8
S31508002DD0316800208847201D01A900F0B5FF316839
S31508002DE0064601208847002E3FF452AF9DF804009E
S31508002DF09DF805104A4601F048F9F878C00732D020
S31508002E002878D8F800408DF8040003208DF80500CE
S31508002E106868B9F1000F02900DD0201D01A900F0D5
S31508002E2093FFC8B94EF6F050CEF200000068C0070E
S31508002E3019D000BE17E040F20405C2F20005296861
S31508002E4000208847201D01A900F07EFF2968054655
S31508002E5001208847002DE5D09DF804009DF805104F
S31508002E604A4601F012F904B0BDE8F08710B584B0FF
S31508002E7000210391039A0446C72A06D800BF03987F
S31508002E80013003900398C828F8D345F64040C4F2A9
S31508002E9000000322028002910299C72907D800BFC1
S31508002EA000BF0299013102910299C829F8D3018815
S31508002EB021F00201018000210191019AC72A06D852
S31508002EC000BF019A01320192019AC82AF8D300225A
S31508002ED001800182818000BF00EB82030132082A4B
S31508002EE023F8401CF8D1018841F45D41018000F0C7
S31508002EF085FB2046FFF7F1FC012004B010BD7047A2
S31508002F00BFF34F8FBFF36F8F704700002DE9F04F67
S31508002F108FB045F60048C4F20008B8F844504BF69E
S31508002F20FF74A80510D504F57850A8F84400B8F839
S31508002F3048004FF440716FF3DF20ADF830100D9064
S31508002F400CA80121FFF734FE680500F1DB81E804CF
S31508002F5017D5B8F84000012120F00400A8F8400071
S31508002F60B8F8400020F00800A8F8400004F54050E2
S31508002F70A8F844004FF4A060ADF830000CA8FFF79D
S31508002F8017FE280517D5B8F84000012140F00800BB
S31508002F90A8F84000B8F8400040F00400A8F840003F
S31508002FA004F56050A8F844004FF48060ADF830008E
S31508002FB00CA8FFF7FDFDE80513D540F67010C2F220
S31508002FC00000017849B1012905D1B8F8402022F05E
S31508002FD01002A8F840200139017004F57C50A8F8C1
S31508002FE044000195B8F9440004F580410DB2A842A1
S31508002FF000F3788140F6D44B40F60F7AC2F2000B04
S31508003000069500BFB8F8440000F00F0638F8269079
S315080030105FEA094040F11E815FEA095050D438F84A
S31508003020260008EB061500EA0A00803028F8260074
S3150800303038F8261001F4C0600790B0F5806F4FF09D
S31508003040010001F00F0208BF20EA913005EBC0002D
S315080030500BEB4217B0F804A4B0F8004478686FF395
S315080030609F2A0028CDE908125DD0BAF1000F00F0BA
S3150800307084800CA90595CDE9030700F0F1FDBDF89C
S3150800308030B0D34588BFD346AAEB0B00BDF83270E3
S3150800309081B2B94238BF07460D9940F2FE300BEAB5
S315080030A000050846029121462A4600F063F95FEAC0
S315080030B0CB7005EB040140D10E983A464DE000BFAF
S315080030C008EB0610B0F80C44B0F808146FF39F2408
S315080030D00AA8224600F04EF938F82600082C00EA1D
S315080030E00A0000F1800028F826000CD14FF4C060D1
S315080030F0ADF83000DDE90A10CDE90D100CA8012164
S31508003100FFF756FDA6E04EF6F050CEF20000006836
S31508003110C00700D000BE46F20C00C4F200004FF40F
S315080031208051018096E050015BF80000798952468B
S315080031300844214600F01EF91FE088B208EB40005B
S31508003140B0F800240298023142550E983B040FBF8E
S315080031500022120A00F8012B7A1E89B292B207EBF6
S315080031600B0400F007F90398A1B200F005FD40F63C
S31508003170D44BDDE90475C2F2000B3C4634F80A1F4D
S31508003180608851448245218033D33A898BB29A426A
S315080031902FD9079BB3F5806F21D0511A8AB2824284
S315080031A038BF084681B200F11F02013040083E29A7
S315080031B088BF5009C2B24FF0FF3388BF53FA80F276
S315080031C090023E294FF4004188BF41EA822001045B
S315080031D004BF48F20000CFF6FF70A5F80C04089962
S315080031E043F60F7008404BF28001484028F8260045
S315080031F02DE0421C00F11F0152083E2888BF4A09EB
S31508003200D1B24FF0FF3388BF53FA82F18A023E28C3
S315080032104FF4004088BF40EA8122100404BF48F2F8
S315080032200002CFF6FF72A5F80C244FF4E06120885F
S31508003230ADF8301009990E908DF8341000250CA8B9
S3150800324001218DF83550FFF7B3FC25803D81069D99
S3150800325040F60F7A5FEA09603FD538F8260000EA9B
S315080032600A0000F5004028F8260038F8262002F063
S315080032700F0002F4C061B1F5806F0BEB401112D15B
S315080032800B4613F81F7F47B300271F70012323EA55
S31508003290921208EB061303EBC202B2F8043403F4E5
S315080032A07C43A2F804340A8B4B8B9A4210D18030A7
S315080032B04FF4E0618DF834000020ADF830108DF839
S315080032C035000CA801210E92FFF772FC05E000BF3D
S315080032D001F11000314600F07BF8B8F94400A84225
S315080032E07FF790AE019840041DD54EF6F050CEF209
S315080032F000000068C00700D000BE4BF6FF70A8F8B3
S31508003300440010E004F57050A8F8440000F076F97F
S315080033104FF48070ADF8300000208DF834000CA80A
S315080033200121FFF745FC0FB0BDE8F08F411C4908A5
S3150800333000F11F0240F62A133E2888BF51094FF0B4
S315080033400202C2F2000388BF20221888C9B211FB04
S3150800335002018AB2B2F5007F198098BF70474EF60F
S31508003360F050CEF200000068C00700D000BE4FF64D
S31508003370FF707047A2B146F2000CC4F2000C00239D
S31508003380B3EB520F0CEB410106D0530831F804CBCE
S31508003390013B20F802CBF9D1D2071CBF098801707E
S315080033A0704740F6D440C2F20000002240F8102FC1
S315080033B0817B4260826000F00BB845F64040C4F25B
S315080033C00000028822F4007261F3492202807047E5
S315080033D02DE9F04F89B046F200040D46018943896C
S315080033E0C4F20004A4F58068C91A868938F82570DD
S315080033F08AB2B24238BF0E4607F4C06A4FF00009D7
S315080034002901BAF5806F08BFC7F3801941EAC901D7
S31508003410834631F804C04068A0B3310460D006A9D9
S31508003420CDF800A00295CDE904780190674600F032
S31508003430DBFBBDF818A0B0B2824588BFB246A6EB42
S315080034400A00BDF81A8081B2414538BF804608EBAC
S315080034500A00079C03904FF6FE700AEA00023846F7
S3150800346021462AF0010500F061F85FEACA7005EB0B
S3150800347007000FD1089946F20004DDF800A0C4F24F
S31508003480000420E0DBF80010B2B21944604600F0F0
S315080034904DF825E0A9B2625C08995FEA084306D0B0
S315080034A011F8013BA8F1010842EA032201E04FF0B6
S315080034B0000846F20004DDF800A0C4F2000483B256
S315080034C0023024F8132080B21FFA88F200F02EF892
S315080034D0039881B2019800F03FFBDDE90478029D6C
S315080034E0BBF80A00BAF5806F3044ABF80A0004EB63
S315080034F0051000EBC90081886FF39F2601F47C4113
S315080035003144818004BF01208BF80F0040F63F70DC
S31508003510384048F2B001484028F82500BFF34F8FDD
S31508003520BFF36F8F09B0BDE8F08F0000A2B146F275
S31508003530000CC4F2000C0023B3EB520F0CEB400056
S3150800354006D0530831F802CB013B20F804CBF9D159
S31508003550D2071CBF09780180704770B50A4640F645
S31508003560D441C2F2000101EB401000EB0210817B4E
S31508003570012A03D1BDE87040FFF72ABF46F2000CC6
S31508003580C4F2000CACF5806E4EEA81031B880289F2
S31508003590848943F60F75A24238BF1446621C04F1AB
S315080035A01F0052083E2C88BF4209D6B24FF0FF30A2
S315080035B088BF50FA82F6B0023E2C4FF4004403F45A
S315080035C0C06288BF44EA8620040404BF48F20000AB
S315080035D0CFF6FF70B2F5806F04BF0CEB0112908036
S315080035E00CEB01122B4090814BF2800058402EF8CC
S315080035F02100BFF34F8FBFF36F8F70BD2DE9F041E8
S3150800360045F6004440F60911C4F200040020C2F24F
S3150800361000014FF6FF72A4F84C0000BF41F82020C5
S3150800362001300828FAD140F62A164EF6F058C2F2AA
S315080036300006402700200021CEF20008378000252A
S31508003640FFF772FA80200021FFF76EFA40F6D441A0
S315080036503088C2F200018F818D738F838D7700F1D8
S3150800366040018AB2B2F5007F318009D9D8F8000046
S31508003670C0074FF6FF7003D000BE31884FF6FF70C3
S3150800368001F1400293B2B3F5007F328006D9D8F82B
S315080036900010C90700D000BE4FF6FF71A4F8080451
S315080036A0A4F80014208847F27001084042F220214D
S315080036B0484046F20C01C4F200014FF480520A80D9
S315080036C020808020A4F84C00BDE8F08142F2000476
S315080036D0C4F20204FDF7B7FE2068022161F3020076
S315080036E0206000BF206800F007000228FAD141F2E6
S315080036F00404C4F2020454F8040C40F4803044F87C
S31508003700040C00BF54F8040C8003FBD5206820F491
S31508003710741000F5E8102060A06A20F00F00A0627F
S3150800372054F8040C40F0807044F8040C54F8040C67
S315080037308001FBD52068042120F0F0002060206875
S3150800374061F30A2020602068022120F4605020607E
S31508003750206861F301002060206800F00C0008284A
S31508003760FAD14AF20020C0F24A40FEF760FAE06A4F
S315080037704FF4805120F44020E062206820F4800055
S31508003780206040F62800C4F600000160FCF7B4FE8D
S31508003790FCF7C9FEFCE7000010B57AB101EB020C94
S315080037A04A78052A06D18A7802F00F0ED40900EB6A
S315080037B04E0213550A7811446145F1D310BD0178BC
S315080037C0C9070ED1017849070BD40178C90708D172
S315080037D00178490705D4017841F0040101700120F8
S315080037E07047002070470178490708D50178C9074E
S315080037F005D1017801F0FB01017001207047002016
S3150800380070470120704770B582B0044600789C4620
S31508003810069B00F0FE00079A0844DDE9086520705B
S3150800382004F1080019460123CDF800C000F0BAF9E2
S3150800383066600120658002B070BD70B515460C46FD
S31508003840064601F108009AB2294600F054FA0546E0
S315080038503046214600F002F8284670BDF0B581B022
S315080038600C4689892778054609B304F108063046C7
S3150800387000F05CFAB9074FF4007758BF4027874233
S315080038804FD82078C0074CD16178284601F093F9C3
S31508003890002846D0304600F049FA874226D92078D3
S315080038A0C0073ED16178284601F0C0F939E0F8072B
S315080038B037D16178284601F07EF990B32078C007A1
S315080038C00BD163886178002B14BF626800222846F2
S315080038D001F0BAF908B1668824E04EF6F050CEF247
S315080038E000000068C0071CD000BE1AE0794266884E
S315080038F008402178B04238BF0646C80709D1617822
S31508003900002E14BF626800222846334601F09CF94F
S3150800391040B94EF6F050CEF200000068C00700D05D
S3150800392000BE0026304601B0F0BD2DE9F04381B057
S31508003930002B49D0804688891D4617460E46D0B1C9
S3150800394006F10804AAB22046394600F035FA357859
S315080039508146204600F03BF9A9074FF4007158BF8D
S315080039604021814202D9B08981422FD94046314649
S3150800397000F030F82AE03078C00725D17178404643
S3150800398001F019F900B3B6F802907068A94588BF26
S31508003990A94639464A46FCF786FC3078C0070BD15B
S315080039A071785FEA094014BF726800221FFA89F32A
S315080039B0404601F049F948B94EF6F050CEF20000FB
S315080039C00068C00700D000BE4FF00009484601B0A5
S315080039D0BDE8F08370B501F10805044628460E4691
S315080039E000F0F5F838B33078C00724D1717820464E
S315080039F001F0E1F8F8B171687288284600F07BF9A1
S31508003A000546307800F0010085B130B971787268E2
S31508003A1020462B4601F018F970B94EF6F050CEF252
S31508003A2000000068C00706D000BE04E018B9717827
S31508003A30204601F0FBF80025284670BD70B50D46F6
S31508003A4009782B8A6C8A06464FF0000032B3A342E7
S31508003A5018BF70BD880740F2FF1058BF3F201040BE
S31508003A6001F00101084318D16978304601F0A3F83E
S31508003A7098B12878C00708D1697830460022002313
S31508003A8001F0E2F808B1012070BD4EF6F050CEF212
S31508003A9000000068C00700D000BE002070BDC378D3
S31508003AA0B0F804C003F00303032B6FF3DF2C14D024
S31508003AB0022B22D0012B4DD140F2FF30022908BF3C
S31508003AC04FF4806060452CD24EF6F050CEF20000DE
S31508003AD00068C0073ED000BE3CE04020022908BF6F
S31508003AE04FF4806060451CD24EF6F050CEF20000CE
S31508003AF00068C0072ED000BE2CE002290BD1BCF509
S31508003B00007F0ED04EF6F050CEF200000068C007D7
S31508003B1020D000BE1EE0BCF5007F04D11AB14021BA
S31508003B20818001207047ACF1080081B2400340EA69
S31508003B30D10081B2082905D2C0B28B2121FA00F042
S31508003B40C007EED14EF6F050CEF200000068C0076E
S31508003B5000D000BE002070478288438919448BB282
S31508003B608B4202D0A1EB420104E0B3EB420F28BF1F
S31508003B70A1EB4201418170478288038919448BB2BF
S31508003B808B4202D0A1EB420104E0B3EB420F28BFFF
S31508003B90A1EB4201018170470022014642810120C2
S31508003BA00A817047B2F5004F0BD8DDF800C06FF3F5
S31508003BB0DF3301606CF3CF3300218280C3804181FB
S31508003BC001810020B2F5004F98BF01207047818817
S31508003BD002894089101A38BF00EB410082B28A4236
S31508003BE028BF084680B27047B0B502894389B0F845
S31508003BF004E0B2EB030C38BF0CEB4E0C1FFA8CF446
S31508003C00744506D97346964598BF5B421344F446F5
S31508003C1043815FEA0C4416D094B27445A2EB0E02B7
S31508003C20FAD200BF9DB21A467545A3EB0E03F9D228
S31508003C300068AC4210FA82F34B6008D90020A1F85C
S31508003C4000C0488009E00020C1E9000005E0AEEBAD
S31508003C5002020A80ACEB02024A808860B0BD00000E
S31508003C6070B505894389B0F804E0EA1A38BF02EB53
S31508003C704E0296B2B645324688BF724619D9A2EBAD
S31508003C80060C00BFACB22A467445A5EB0E05F9D260
S31508003C909EB21D467645A3EB0E03F9D20068A642EE
S31508003CA010FA82F34B6008D9A81A088000204880C9
S31508003CB009E00020C1E9000005E0AEEB02020A8037
S31508003CC0ACEB02024A80886070BD10B50289438950
S31508003CD00446FEF725FDA288618901448BB28B4212
S31508003CE002D0A1EB420104E0B3EB420F28BFA1EBDF
S31508003CF04201618110BD10B582B00389B0F80AC0CF
S31508003D000446CDF800C0FEF731FDA288618901445A
S31508003D108BB28B4202D0A1EB420104E0B3EB420F17
S31508003D2028BFA1EB4201618102B010BD81880289DA
S31508003D304089101A38BF00EB410082B2914288BF11
S31508003D400A46101A80B2704770B5044606898088FC
S31508003D50228963894FF6FE75D21A38BF02EB4002F4
S31508003D6092B2824207D3B4F906206B1C1BB29A4260
S31508003D70C4BF002070BD324693B28342A2EB000254
S31508003D80FAD2E28820686FF3DF3202FB0300FCF701
S31508003D908AFA681CA18880B2864206F1010002D11F
S31508003DA001FB050005E082B2B2EB410F28BF01FB1B
S31508003DB005002081012070BD2DE9F047002A60D05A
S31508003DC014460546B0F808A04289B0F906606FF0B7
S31508003DD00100431CA88889469E424FF6FE780EDDF0
S31508003DE0BAEB020238BF02EB400292B21346904287
S31508003DF088BF03469A1A93B2A34221D923E0A04268
S31508003E0016D9BAEB020138BF01EB400114FA81F169
S31508003E10B1EB400F17D3011B01EB020A1FFA8AF315
S31508003E20934249D34100994298BF00FB08AA0AE089
S31508003E303146231A6FF3DF3103FB01999246024696
S31508003E40110414461DD05746BBB23A468342A7EB27
S31508003E500007F9D2821A28686FF3DF3691B203FB9E
S31508003E600600A3B28B420ED9A11A01FB06F75643E8
S31508003E70B2B24946FCF717FA286819FA86F1BAB2B7
S31508003E8004E0002415E003FB06F24946FCF70BFAAA
S31508003E901FFA8AF010FA84F0A98882B2824202D008
S31508003EA001FB080004E0B2EB410F28BF01FB080044
S31508003EB02881A0B2BDE8F08700FB08AAC3E780B551
S31508003EC0D1F800C04B6840F24822C2F200024FF017
S31508003ED0000EC2E900C3C2E902EE0978802222EA8E
S31508003EE0010100220023BDE8804000F0ADBEB0B558
S31508003EF0D1F800C0D1F804E040F24825C2F2000526
S31508003F00C5E900CE0024EC81CC88AA609C4298BF03
S31508003F102346AB8154B1DAB9D3B14EF6F050CEF29E
S31508003F2000000068C00720D000BE1EE00978802285
S31508003F3022EA01010022002300F086FE58B94EF657
S31508003F40F050CEF200000068C0070ED000BE0CE0AC
S31508003F50FEF794FC08B10120B0BD4EF6F050CEF243
S31508003F6000000068C00700D000BE0020B0BD44F6BF
S31508003F708470C0F60000704744F6B870C0F60000BA
S31508003F80704744F6A670C0F60000704700207047D8
S31508003F900020704710B584B040F2BC11C2F200018F
S31508003FA00A786ABB4FF2AC72C1F6FF72136840F228
S31508003FB0280E019353680DF1040C02939268C2F21D
S31508003FC0000E039201220A70002100BF1CF801406E
S31508003FD03722A02C38BF302202EB141204F00F034C
S31508003FE00EF8112037220EEB41040A2B38BF302277
S31508003FF001311A440C296270E8D100218EF8181094
S3150800400018B3032834D840F21801C2F2000151F857
S3150800401020402046FCF728F910F0E00F18BF1F20B3
S3150800402001060BD040F25C21C2F200010231C2B295
S3150800403014F8013B013A21F8023BF9D1C0B202213A
S3150800404001EB400040F440710CE040F21800C2F267
S315080040500000006840F25C210088C2F20001488036
S315080040604FF4417140F25C20C2F20000018000E08A
S31508004070002004B010BD80B540F21400C2F2000062
S315080040800078FEF72BFC012080BD70470120FEF763
S3150800409062B8FEF79CB800002DE9F04F81B040F2F7
S315080040A01409C2F2000999F80020FF2A01D001205C
S315080040B076E00D4600294FD0834640F29C20C2F296
S315080040C000003421FCF73CF940F2943040F2040435
S315080040D0C2F200000021C2F200040170201DFFF7A1
S315080040E05BFD40F2D02040F20426C2F20000C2F284
S315080040F000060460304600F0CBFC317840F2002818
S31508004100C2F20008FF29C8F8000037D044F63C7A06
S315080041100027C0F6000A0024C8B2844204D2D8F8A0
S31508004120000010B3384401E050461ED14068E0B1A3
S31508004130804731780134481CC0B2844207F124070D
S31508004140EAD35846294689F800B0FEF78FFEF0B143
S315080041505846FEF7D5FEAAE74EF6F050CEF2000016
S315080041600068C0071BD000BE19E04EF6F050CEF22C
S3150800417000000068C00712D000BE10E04EF6F050EE
S31508004180CEF200000068C00709D000BE07E04EF670
S31508004190F050CEF200000068C00700D000BE002034
S315080041A001B0BDE8F08F7047FDF7E0BF2DE9F04F8D
S315080041B08BB040F21400C2F200000078FF2800F02D
S315080041C0128440F2040B40F2D02AC2F2000BC2F26B
S315080041D0000ADBF80010DAF8004000204FF000096A
S315080041E08847201D07AC2146FFF76FFDDBF8001056
S315080041F0054601208847002D00F0F58340F29C28EB
S3150800420040F29435201DC2F20008C2F2000506905D
S315080042109DF81D000138072810D8DFE800F00419BA
S31508004220222B353D7DA99DF81C00FEF7E3FA00F028
S3150800423034FC9DF8200088F80200C3E04EF6F050E2
S31508004240CEF200000068C00700F0BC8000BEB9E0EE
S315080042509DF81C00FEF7CEFA00F01FFC00F0C6FB26
S31508004260B0E098F80300C00700F0AC800898FFF7A4
S315080042709AFFA7E098F80000C10700F0A380C0F3F2
S31508004280C000FFF791FF9DE098F80000C00700F016
S315080042909980FFF7FEFE95E02878002800F09283C3
S315080042A02878013828702878002840F08B8098F8FC
S315080042B0000040F0010088F8000098F8240000F09B
S315080042C0FE0088F8240098F8240000F0FB0088F81F
S315080042D0240098F8250000F0FE0088F8250098F8D4
S315080042E0250000F0FB0088F825009DF81C700020CA
S315080042F000F0DCFB9DF82000C0F34111022952D0E2
S31508004300032972D14EF6F050CEF200000068C007BD
S3150800431000F0B88100BEB5E19DF8201011F00F003D
S3150800432008EB400000EBD11292F8243003F0FE03AC
S3150800433082F8243092F8243003F0FB0382F8243004
S315080043401BD0CA09104440F20422C2F20002007DC2
S315080043501278824219D940F20022C2F2000212688B
S31508004360002A00F0388300EBC00002EB800012E060
S31508004370089939B30998884724E09DF81C009DF8E8
S315080043802120099B00F0A4FB1CE044F63C70C0F613
S31508004390000040F0208387699DF81C009DF82120C5
S315080043A0099BB8470EE044F6F310C0F6000000F08B
S315080043B07DFB069A3846012100F01BFB002800F019
S315080043C0618100BFDBF80010DAF80060002088473A
S315080043D0301D2146FFF779FCDBF80010074601205F
S315080043E08847002F7FF414AFFDE200F01F01022971
S315080043F023D0012954D000296DD100F0600020286F
S3150800440073D19DF824000F2800F23C8140F2042164
S315080044104044C2F2000100790978814240F2DF8007
S3150800442040F20021C2F200010968002900F02A8141
S3150800443000EBC00001EB8006D6E0BDF8241001F0C1
S315080044400F09B9F1080F80F07180C9B208EB49026B
S3150800445040F2042302EBD112C2F20003BE46127DDB
S315080044601B7840F20027C2F20007D7F800C002EB1B
S31508004470C20793424FF0000644F63C72C0F60002AB
S3150800448008BF164688BF0CEB870610F0600F00F0D1
S315080044907E80002E4FF0000900F0F4807746A3E0F6
S315080044A09DF824000F2800F2ED8040F204214044D4
S315080044B0C2F2000100790978814243D940F200210D
S315080044C0C2F200010968002900F0DC8000EBC00098
S315080044D001EB80063CE04EF6F050CEF20000006894
S315080044E0C00700F0CF8000BECCE09DF82100092867
S315080044F000F28C80DFE810F00A0081008A00930041
S315080045008A009E00AD008A00DB00E70098F80000EC
S315080045100222C0F3401102EA900008440699ADF859
S315080045202A0038460DF12A020223C9E04EF6F05059
S31508004530CEF2000000684FF00009C00700F0A28024
S3150800454000BE9FE044F63C76C0F6000640F09A802E
S31508004550706900F0ABFA7369069A384601219847E4
S3150800456000287FF42FAF9DF8200010F0600F40F070
S315080045708980002000F09AFA9DF821000B2800F0A7
S31508004580BA810A2840F07E808DF82A9093E09DF83B
S315080045902120CB09032A774618BF012A40F0588103
S315080045A0BDF82200002840F0858140F21400C2F2CE
S315080045B000000078012A059340F06A81FEF7A3F906
S315080045C0059908EB4900084490F8241001F0FD010C
S315080045D080F8241090F8241001F0FE0168E144F6F2
S315080045E03C76C0F600064DD1706900F05FFA736933
S315080045F0069A384601219847E0E6BDF822000128C8
S3150800460040D198F8000000F0F70010E04EF6F050A0
S31508004610CEF200000068C00734D000BE32E0BDF814
S31508004620220001282ED198F8000040F0080088F8EA
S31508004630000060E1069800F03FFA9DF8221038461F
S31508004640FEF7AFFE98F8000040F0020088F8000078
S31508004650B8E6BDF822004FF0FF3101EB10210E2914
S3150800466010D8DFE811F01A004D015C010F000F00A9
S3150800467062016A010F000F000F000F000F000F0004
S315080046800F0070019DF81C000021FEF702FA9DF844
S315080046901C008021FEF7FDF994E6FFF772FC00285E
S315080046A000F06681069902463846122354E198F8C6
S315080046B001008DF82A00069938460DF12A020123D1
S315080046C0FFF715FC7EE69DF8226098F80100B042D7
S315080046D000F0118198F8010078B138460021FEF7FC
S315080046E06CFE3846FEF74AF998F8020005903846F7
S315080046F0FEF780F8059888F80200002E88F8016011
S3150800470000F0F780701EC0B2FFF736FC002800F0F4
S31508004710E7804178022940F0E380C17998F80020C3
S31508004720102303EA510302F0CF021A44202303EAB6
S3150800473051011144428888F8001000F109018318D4
S315080047400193994280F0278148780B2804D108788C
S31508004750CA780144487800E001220292042840F011
S315080047601D8140F20420C2F200000078FF2833D0F1
S315080047705A1A92B2002300260391C0B286420596C1
S3150800478009D240F20020C2F200000068002800F0BA
S31508004790E680184405E044F63C70C0F6000040F098
S315080047A0DE80049303693846164698473246092838
S315080047B002D38646824212D240F20420C2F2000098
S315080047C00078059E411C0136C9B2049B8E420399A6
S315080047D003F12403D1D32AE00026FF2028E002981B
S315080047E00399DDF814C080B100208A78024458FA8B
S315080047F082F313F8042FFF2A40F0C4800130029E8A
S31508004800C2B2B24283F800C0EFD308F114005FFACF
S315080048108CF372466646CDF810E0FEF7BDFF40F20F
S3150800482004200399C2F20000049A00781144019BFF
S315080048300130C0B2F2B28242FFF483AF4EF6F050B6
S31508004840CEF200000068C00700F0B08000BEADE000
S3150800485092B908EB4900184490F824000699C0F369
S315080048604000ADF82A0038460DF12A020223FFF768
S315080048703EFB4FF00009A5E54EF6F050CEF20000DB
S3150800488000684FF00009C0073FF4FCAE00BEF9E629
S31508004890FEF7FFF8059908EB4900084490F824103C
S315080048A041F0020180F8241090F8241041F001012B
S315080048B080F82410002E4FF000093FF483AD70698C
S315080048C000F0F4F87369069A3846012198470020E3
S315080048D000F0ECF898F82500C0077FF473AD0AE0FD
S315080048E04EF6F050CEF200000068C0075ED000BE5B
S315080048F05CE000F07BF806993846FFF7E0FA61E5D8
S31508004900C0B2FFF739FB024618BB4EF6F050CEF29E
S3150800491000000068C0073FF4B5AE00BEB2E6BDF8B9
S315080049202410C0B2FFF736FB01E0FFF72FFB002883
S315080049303FF4A8AE037802460CE0C0B2FFF728FBA6
S31508004940024630B99EE6FFF712FB00283FF49AAEFE
S315080049500246538806993846FFF7C9FA2EE54EF6F9
S31508004960F050CEF200000068C0071FD000BE1DE060
S315080049704EF6F050CEF200000068C0073FF482AE53
S3150800498000BE7FE64EF6F050CEF200000068C00783
S315080049900CD000BE0AE0FFF779FBACE74EF6F05004
S315080049A0CEF200000068C00700D000BE4EF6F050F8
S315080049B088F80190CEF200000068C0073FF462AEA6
S315080049C000BE5FE64EF6F050CEF200000068C00763
S315080049D009D000BE07E04EF6F050CEF2000000689F
S315080049E0C00700D000BE0BB0BDE8F08F0020FDF771
S315080049F0B2BB01291CBF01207047117801F0600184
S31508004A0040290ED1517801290BD19188072908D15F
S31508004A1044F6D873C0F6000311461A469E23FFF7DC
S31508004A2066BA0020704708B10020704780B540F28A
S31508004A301840C2F200006030FFF7C9F880BD08B11F
S31508004A400020704740F21840C2F2000013460A469A
S31508004A5000F158010020FEF7F0BE08B100207047AB
S31508004A6040F218408C46C2F2000093B2011D0020A5
S31508004A706246FEF75ABF08B10020704740F2184058
S31508004A80C2F20000011D0020FEF7A4BF7047704760
S31508004A900146002200200A70704780B540F248207F
S31508004AA0C2F200001421FBF74BFC80BD40F24821FE
S31508004AB0C2F20001086170470168406840F2482266
S31508004AC0C2F200020023C2E90010C2E902337047AD
S31508004AD070B540F24825C2F2000595F900201E4639
S31508004AE0514049B2B1F1FF3F044625DD002A09D4F9
S31508004AF0A868002845D040F20821C2F200013246D3
S31508004B00FBF7D1FBE889A96830443144402EE88197
S31508004B10A9601BD3E98880B2814217D02046FDF7E9
S31508004B20ADFE002845D14EF6F050CEF200000068E2
S31508004B30C00726D000BE24E02EB34EF6F050CEF2C3
S31508004B4000000068C0071CD000BE1AE02B693BB104
S31508004B5040F24822C2F2000220460221984700B3DA
S31508004B6028788021814320460022002300F06CF833
S31508004B70F8B94EF6F050CEF200000068C00700D033
S31508004B8000BE002070BD20462946FDF7A8FE2B6909
S31508004B907BB140F24822C2F2000220460321984720
S31508004BA007E020460021FDF774FF20468021FDF727
S31508004BB070FF012070BD40F29C2201F00F00C2F286
S31508004BC0000202EB400000EBD11024300021FEF772
S31508004BD0F6BDB0B58878000715D440F21400C2F2C5
S31508004BE00000057840F29C20C2F200000C4681784D
S31508004BF020460022FEF753FF70B128462146BDE83D
S31508004C00B040FDF7DBBE4EF6F050CEF2000000686D
S31508004C10C00709D000BE07E04EF6F050CEF20000FD
S31508004C200068C00700D000BE0020B0BD40F29C223C
S31508004C3001F00F00C2F2000202EB400000EBD110B7
S31508004C4024300021FEF7CFBDB0B540F29C2401F018
S31508004C500F0CC2F2000440F2140004EB4C04C2F23A
S31508004C60000004EBD115007815F824CF5FEACC7460
S31508004C7008D12C7844F001042C70FDF73BFF50B1A5
S31508004C800120B0BD4EF6F050CEF200000068C00715
S31508004C9011D000BE0FE0287800F0FE0028702878B2
S31508004CA000F0FB0028704EF6F050CEF200000068C7
S31508004CB0C00700D000BE0020B0BD014640F2140077
S31508004CC0C2F20000007809B1FEF71AB9FEF717B963
S31508004CD010B540F21844C2F2000404F15800FEF779
S31508004CE090FD201DFEF78DFD012010BD70B584B026
S31508004CF040F21844C2F200042046AC21FBF720FB20
S31508004D0040F2983604F16C004025C2F200068DE8A0
S31508004D10610004F158000021002200230395FEF7E4
S31508004D2072FD06F1400004F11801CDE90015029064
S31508004D30201D0021012200230395FEF764FD04B01F
S31508004D4070BD00002DE9F0410C464979FF290AD1CA
S31508004D5040F21848C2F20008064698F8050098F886
S31508004D605910084303D0002080B2BDE8F0812078AE
S31508004D70A1782518904288F800104BD2A71800BFD2
S31508004D8028782844B84245D86878052804D00428E5
S31508004D9040D00B283AD13DE030462946FFF719FFA7
S31508004DA0D0B395F90200B0F1FF3F18DD98F8591015
S31508004DB061BB4146AB8811F8582F6FF3DF23487063
S31508004DC0A3F50070B0FA80F0400902F0FD0242EA4D
S31508004DD0400008703046FEF741FDB8B925E098F85E
S31508004DE0051099B94146AB8811F8042F6FF3DF23F4
S31508004DF04870A3F50070B0FA80F0400902F0FD0291
S31508004E0042EA400008703046FEF7E4FD287805447B
S31508004E10BD42B5D3281BA7E74EF6F050CEF20000E8
S31508004E200068C0079FD000BE9DE74EF6F050CEF250
S31508004E3000000068C0073FF496AF00BE93E7B0B520
S31508004E4040F21844C2F20004002504F160002570FF
S31508004E50FEF7A2FE04F10C0084F85950FEF79CFEFA
S31508004E606571B0BDF0B581B0044640F218401D46E4
S31508004E7000230127C2F20000AC2200BFFF0722D0A0
S31508004E80DEB216FB020393F859708F421DD05F7984
S31508004E9001238F424FF00007F0D1AC2216FB020027
S31508004EA042798A422CD1071DA9B23046FFF7EFFD99
S31508004EB020463946FEF78EFD10BB204639462A465F
S31508004EC0FEF7BCFD1CE000201BE0AC2116FB010030
S31508004ED0B0F8641000F1580721B1C16D6030AAB26C
S31508004EE0FEF76AFF40F29830C2F2000000EBC611E6
S31508004EF0AAB23046FFF7CAFD20463946FEF7AEFC91
S31508004F00012001B0F0BDF1EE100A4FF6FF71C0F2B4
S31508004F10C03120EA010040F04070E1EE100A704707
S31508004F20090400000000000000000102030406074F
S31508004F300809000000000102030400000000000048
S31508004F40ED4C0008D14C00083F4E0008454D0008BE
S31508004F50F3490008654E0008000000000000000044
S31508004F6005020602060307030803090309040A04DF
S31508004F700B040C040C050D050E050F050F0610068F
S31508004F8010071008050F2100011C100500DF60DD61
S31508004F90D88945C74C9CD2659D9E648A9F000003AC
S31508004FA0069E000100001201010200000040501D8B
S31508004FB0AC60000101020301090220000101008022
S31508004FC04B0904000002FF0000000705010240002B
S31508004FD000070581024000000A00000000000306E1
S31508004FE09E001400030057494E5553420000000026
S31508004FF000000000000080000400010028004400B2
S315080050006500760069006300650049006E0074005B
S315080050106500720066006100630065004700550080
S315080050204900440000004E007B003800300037007D
S31508005030390039003900430033002D00450034009B
S31508005040450030002D0034003000450041002D0099
S3150800505038003100380038002D003400380045008B
S315080050603800350032004200350034004600320070
S3150800507042007D00000057696E5553422042756C08
S315080050806B20446576696365004F70656E424C54C3
S315080050902055736572002E2E2F2E2E2F2E2E2F2E74
S315080050A02E2F536F757263652F41524D434D345FF2
S315080050B053544D333246332F7573622E63002E2EAA
S315080050C02F2E2E2F2E2E2F2E2E2F536F7572636591
S315080050D02F6576656E74732E63004F70656E424C4D
S315080050E05400000008510008000000204800000095
S315080050F0C40100085051000848000020901F000015
S31508005100E00100080000000000127A00BB4C00080D
S31508005110D402002010000C0000000000FF0600006A
S31508005120204F000889500008765000082800002003
S3150800513030313233343536373839414243444546BF
S315080051400000000000000000000100001000000040
S7050800018968
