S01D000062696E2F6F70656E626C745F73746D3332633039322E7372656395
S315080000000078002071020008C1020008C102000839
S3150800001000000000000000000000000000000000D2
S31508000020000000000000000000000000C1020008F7
S315080000300000000000000000C1020008F1120008DC
S31508000040C102000800000000C1020008C102000841
S31508000050C1020008C1020008C1020008C102000866
S3150800006000000000C1020008C1020008C102000821
S31508000070C1020008C1020008C1020008C102000846
S31508000080C10200080000000000000000C1020008CC
S31508000090C1020008C1020008C1020008C102000826
S315080000A0C1020008C1020008C1020008C102000816
S315080000B0C1020008C1020008C1020008C102000806
S315080000C0002243088B4274D303098B425FD3030A89
S315080000D08B4244D3030B8B4228D3030C8B420DD39C
S315080000E0FF22090212BA030C8B4202D3121209022A
S315080000F065D0030B8B4219D300E0090AC30B8B4268
S3150800010001D3CB03C01A5241830B8B4201D38B0315
S31508000110C01A5241430B8B4201D34B03C01A5241BA
S31508000120030B8B4201D30B03C01A5241C30A8B42FD
S3150800013001D3CB02C01A5241830A8B4201D38B02E8
S31508000140C01A5241430A8B4201D34B02C01A52418C
S31508000150030A8B4201D30B02C01A5241CDD2C309FE
S315080001608B4201D3CB01C01A524183098B4201D37A
S315080001708B01C01A524143098B4201D34B01C01A65
S31508000180524103098B4201D30B01C01A5241C308DD
S315080001908B4201D3CB00C01A524183088B4201D34C
S315080001A08B00C01A524143088B4201D34B00C01A38
S315080001B05241411A00D20146524110467047FFE7A4
S315080001C001B5002000F006F802BDC0460029F7D0A8
S315080001D076E770477047C0460448054B10B583421A
S315080001E003D0044B002B00D0984710BD48000020D0
S315080001F0480000200000000006480749091A8B102D
S31508000200C90FC91810B5491003D0044B002B00D0EC
S31508000210984710BD48000020480000200000000054
S3150800022010B5074C2378002B09D1FFF7D5FF054BEE
S31508000230002B02D0044800E000BF0123237010BD44
S31508000240480000200000000040250008054B10B5B6
S31508000250002B03D00449054800E000BFFFF7CCFF98
S3150800026010BDC046000000004C00002040250008D4
S315080002700D48854600F026F8002103E00B4B5B5835
S31508000280435004310A480B4B42189A42F6D30A4A9D
S3150800029002E0002313600432084B9A42F9D302F0B5
S315080002A02BF900F05BFFFEE70078002044280008E1
S315080002B0000000204800002048000020B00600206A
S315080002C0FEE70000024B802212059A607047C0467E
S315080002D000ED00E030B5124B0364056880216A58CA
S315080002E0104C2240446B240422436A500E4A42644E
S315080002F005686A580D4C2240846B240622436A50CE
S315080003000B4A82640B4AC2640B4A02650B4A426571
S3150800031001E0002204C30A4A9342FAD930BDC04616
S3150800032000B40040FFFFE0FF70B40040FFFFFFF09D
S31508000330B0B4004088B5004060B6004078B60040CA
S315080003404FB70040F0B51F004B68002B1AD10D6956
S315080003508B681D430B689B041D430C6A2406CB69F6
S315080003601C438B691C434B691C43CB681B041C4309
S31508000370466DFB00DB19DB00F6183560746008363D
S31508000380002015E00B698C6823430C6823438025FD
S31508000390ED051D43E1E71418E3781B06A5782D043F
S315080003A02B43647824022343145C234308C6043091
S315080003B0CB68024CE35C8342EDD8F0BDC825000843
S315080003C07047000070B5041E00D1DCE05C23C35CF6
S315080003D0002B19D02268936910218B43936101F091
S315080003E089FB0500226893691B0713D501F082FB78
S315080003F0401B0A28F6D9236E0122134323665C2381
S315080004000232E254012070BD5D330022C254FFF768
S31508000410D7FFDFE7936901210B43936101F06AFB7C
S31508000420050022689369DB070DD401F063FB401BC6
S315080004300A28F6D9236E0122134323665C23023267
S31508000440E2540120DFE7936902210B439361626856
S315080004504E4B1A60237C012B40D0226893694021B9
S315080004600B439361637C012B3ED02268936948490C
S315080004700B409361A37C012B3DD0226891698023B0
S315080004805B010B4393612268936942490B40A1685B
S315080004900B43936122689369A4218B439361226875
S315080004A0136994398B431361E368012B29D0002B18
S315080004B02CD0022B50D02268936980210B4393617C
S315080004C02268136970390B431361E368032B1DD146
S315080004D02268936910310B43936117E02268936988
S315080004E03E318B439361BDE7226891698023DB0126
S315080004F00B439361BEE72268936927490B409361D2
S31508000500C1E7226893690C390B439361A369013BE0
S315080005105B06E269013A12021343226A013A13435F
S315080005206269013A120421681343CB61A268C023A9
S315080005309B009A4216D02168C0228B58E06B034371
S315080005408B502000FFF7C6FE0023A36523665C33A5
S315080005500122E254002056E72268936920210B43C2
S315080005609361D3E7A36A013BE26A013A1202134395
S31508000570226B013A12011343626A013A1204216896
S315080005801343CB60D7E701203DE7C046006500402E
S31508000590FFBFFFFFFFFCFFFFFFEFFFFF10B55C2368
S315080005A0C35C013BDBB2012B05D9036E0222134360
S315080005B00366012010BD0B68002B0FD18B689B07C3
S315080005C0CA68D20613430A69120413434A691343D5
S315080005D0006C4A68920083500020EBE7CA6852070D
S315080005E00B691A438B689B074C692343406C49681F
S315080005F0C90041180A604B60EEE770B55C24045DDB
S31508000600012C05D0036E042213430366012070BD36
S3150800061005687F3428593F26B043090192001143E3
S315080006205B001943049B1943014329510020EEE757
S315080006305C23C35C012B05D0036E042213430366B7
S31508000640012070475B330222C25402689369012174
S315080006508B439361002303660020F2E770B504001C
S315080006605C23C35C022B1CD10068C233C3589B02AF
S3150800067006D5226E80239B0013432366012015E0CE
S31508000680C423C3581B0C03251D402B002000FFF76D
S3150800069059FE21680123AB40CC228B50A36500206C
S315080006A004E0036E082213430366012070BD806DC3
S315080006B070470000F0B55C24045D022C00D09FE072
S315080006C040290BD00468982565592D0731D1026E4B
S315080006D080235B0013430366012096E00468902597
S315080006E065592D0706D1026E80235B001343036606
S315080006F001208AE09025665980256D0437002F4031
S315080007002E4208D0802566598135FF3537002F409F
S315080007102E4200D00127902565592D0A03242C4026
S31508000720BC46A444856C6446E4006444E4002D1980
S315080007301CE09825665980256D0437002F402E4207
S3150800074007D080256659803537002F402E4200D0C5
S315080007500127982565592D0A03242C40BC46A44434
S31508000760C56C6446E4006444E4002D192C688026B0
S31508000770F6053440546028D12C68A40C6405640D31
S3150800078014602C688026B605344094602C68E40F03
S31508000790E40714616C682404240CD461EE880F24E1
S315080007A03440D4606C6880267603344054616C68A3
S315080007B08026B60334409461EE797F24344014626F
S315080007C06C68E40F5462002408E02C68E400E4082E
S315080007D01460D6E72E19367A1E550134D6680B4FA3
S315080007E0BE5DA642F6D8402905D002689C2361461C
S315080007F0D150002009E0026894236146D150F8E7F9
S31508000800036E0822134303660120F0BDC8250008BD
S315080008100268C823D35808001840194200D001209E
S315080008207047402905D002689823D3580F201840EE
S31508000830704702689023D3580F201840F8E7000045
S31508000840A023DB0598420DD01F4B984214D01F4BAE
S3150800085098421BD01E4B984222D01E4B984229D054
S31508000860012008E01C4B5A6A01210A435A625A6A57
S315080008708A435A6200207047174B5A6A02210A4374
S315080008805A625A6A8A435A620020F4E7124B5A6A35
S3150800089004210A435A625A6A8A435A620020EAE7DE
S315080008A00D4B5A6A08210A435A625A6A8A435A629F
S315080008B00020E0E7084B5A6A20210A435A625A6A1E
S315080008C08A435A620020D6E7000400500008005008
S315080008D0000C00500014005000100240F0B5002231
S315080008E016E00B699C46C4682B006B435E00F6183D
S315080008F0F743B44366465E433443C4604C68022CEF
S3150800090025D04D6804683C406B432343036001329D
S315080009100C682300D3403AD00123934025001D409C
S315080009201C42F4D04B68013B012BDAD88F688368E8
S315080009302C006C4366003619B3437C43234383601B
S31508000940CC684368AB436C4323434360C9E7FF2D38
S315080009500DD84C69A446066A1C006C436C432501F5
S315080009602D1BAE4365466C4334430462C9E74C69A4
S31508000970A446466A2D0A2C006C436C436C43250139
S315080009802D1BAE4365466C4334434462B9E70020E9
S31508000990F0BD000030B5054C616901252943616148
S315080009A00260BFF36F8F436030BDC046002002402F
S315080009B0084B5B69002B01DB00207047054B064A94
S315080009C09A60064A9A605B69002B01DB0020F4E70F
S315080009D00120F2E70020024023016745AB89EFCDED
S315080009E0064B5969802212060A435A615B69002B35
S315080009F001DB012070470020FCE7C04600200240CA
S31508000A0070B5050001F076F84419114B1B69DB0334
S31508000A1005D501F06FF8A042F7D3032070BD0C4A44
S31508000A2013690C490B40136103D00B4A536001202C
S31508000A30F4E701F05FF84519054B1B695B0305D51B
S31508000A4001F058F8A842F7D30320E7E70020E5E7C6
S31508000A5000200240FAC3000064000020F8B5070031
S31508000A600C0015001E00144B1B78012B22D0124BCC
S31508000A7001221A7000225A60FA208000FFF7C0FF90
S31508000A8000280DD1012F0FD02900200001F064FDA8
S31508000A90FA208000FFF7B4FF084A5369BB43536145
S31508000AA0054B00221A70F8BD2A0033002000FFF714
S31508000AB071FFEDE70220F6E76400002000200240FF
S31508000AC01A4A116880235B000B43136001E0012B6F
S31508000AD009D0164B19688022D2000B001340114228
S31508000AE0F5D00123F3E7114A5068114908408021DF
S31508000AF0C90101435160002191600131FF31116044
S31508000B0001E0002809D0094A1168802292020800EB
S31508000B1010401142F5D01800F3E7044B802252002A
S31508000B201A6000229A61013A1A6270470010024060
S31508000B30FF80FFFF10B5164A13689B080721194066
S31508000B400131926838231340182B1DD005D8002B85
S31508000B5008D0082B10D10F480BE0202B0CD1802091
S31508000B60000206E00A4B1A68D20A0723134009480E
S31508000B70D840FFF7A5FA10BD054B1A68D20A072315
S31508000B8013400448D840F4E7FA20C001F1E7C0460C
S31508000B9000100240006CDC02054B9A68120A0F230B
S31508000BA01340044A9B009A581F231340D8407047A5
S31508000BB00010024088250008054B9A68120B072387
S31508000BC01340044A9B009A581F231340D840704785
S31508000BD0001002406825000810B50400FFF7AAFFB8
S31508000BE02060FFF7D9FF6060FFF7E6FFA06010BD41
S31508000BF010B5032801D0002010BD1A4B5B6D0340C9
S31508000C0000040343184A934208D0184A934217D05F
S31508000C10174A93421ED1FFF78DFFEDE7114B1A686D
S31508000C208023DB00100018401A42E5D00D4B1B68E4
S31508000C305B090721194001310E48FFF741FADBE746
S31508000C40084BDB6D0222100018401A42D4D08020CF
S31508000C500002D1E7FFF76EFFFFF79EFFFFF7ACFF35
S31508000C60CAE7C04600100240020003000300030062
S31508000C7001000300006CDC0210B5C0239B009842FB
S31508000C8001D0002010BD174B5B6D03408022520037
S31508000C9093420AD00132FF32934218D0FFF74AFF37
S31508000CA0FFF77AFFFFF788FFECE70E4B1A688023F9
S31508000CB0DB00100018401A42E4D00A4B1B685B0997
S31508000CC00721194001310848FFF7FAF9DAE7054B19
S31508000CD01A6880239B02100018401A42D2D0024894
S31508000CE0D0E7C04600100240006CDC02014B1860D9
S31508000CF07047C0460000002010B5040008000B2A03
S31508000D0016D80299002913D0802109028B4210D0E7
S31508000D10FF231340124A9B009958FFF7D1F9029B0B
S31508000D205B08C0180299FFF7CBF90004000CE060D5
S31508000D3010BDFF2313400A4A9B009958FFF7C0F9D4
S31508000D404000029B5B08C0180299FFF7B9F9054AEB
S31508000D5002400004400C072303401343E360E7E71F
S31508000D60D8250008F0FF000030B587B004000D0054
S31508000D700368DB0752D40368294A1A408B68096955
S31508000D800B4369690B43E9690B4313430360EB683B
S31508000D90426824490A4013434360AB698268224982
S31508000DA00A4013438360214B984213D0204B984244
S31508000DB01BD0204B98421DD01F4B98421FD00120B4
S31508000DC02B68E26A0F218A431B041B0C1343E36258
S31508000DD007B030BD0320FFF70BFF010000291BD029
S31508000DE06868002810D10120EAE703A8FFF7F4FE97
S31508000DF00599F3E703A8FFF7EFFE0599EEE703A8C1
S31508000E00FFF7EAFE0599E9E72A68EB6900902000F2
S31508000E10FFF772FF0020D3E70120D1E70120D7E7CB
S31508000E20F369FFEFFFCFFFFFFFFCFFFF003801402C
S31508000E300044004000480040004C0040024A516906
S31508000E40024B0B4353617047002002400400010027
S31508000E50044A536904490B40C0001843034B034333
S31508000E60536170470020024007FCFFFF02000100A3
S31508000E7070B505000E001C4B1B78012B32D01A4B9F
S31508000E8001221A7000225A60FA208000FFF7B8FD86
S31508000E90002823D12B68042B13D001235B4233602F
S31508000EA06C686B68AA689B18A34212D92000FFF7E2
S31508000EB0CFFFFA208000FFF7A3FD002808D10134F0
S31508000EC0EFE7FFF7BBFFFA208000FFF799FD05E083
S31508000ED03460064A536902218B435361024B002250
S31508000EE01A7070BD0220FCE7640000200020024052
S31508000EF070B5002811DB8308134DC0339B005C597D
S31508000F0003221040C000FC3216008640B443890113
S31508000F100A40824022435A5170BD0F230340083BC2
S31508000F209B0806339B00094A944663445C6803227F
S31508000F301040C000FC3215008540AC4389010A40C8
S31508000F40824022435A60E7E700E100E000ED00E056
S31508000F50013880235B0498420FD2094A5060094839
S31508000F60036A1B021B0AC02109060B4303620023FE
S31508000F70936007331360002070470120FCE7C046E2
S31508000F8010E000E000ED00E010B5FFF7B1FF10BD7E
S31508000F9010B5FFF7DDFF10BD10B5084B012149421A
S31508000FA0D9620022DA6219631A6399629A625962EF
S31508000FB05A6200F05BF9002010BDC04600100240DE
S31508000FC010B50400114B1978002901D1012010BD74
S31508000FD0FA208000FFF774F801000D4B1868FFF738
S31508000FE06FF8FFF7D5FF00280DD1032C01D9012092
S31508000FF0EDE70130002221004042FFF7C5FF054B0F
S315080010001C600020E3E70120E1E7C0460400002059
S31508001010000000200800002010B50320FFF7D0FFCD
S31508001020041E02D00124200010BD00F09FF8FAE744
S31508001030014B18807047C0468400002010B500F0A8
S3150800104051FD0F4B1B68984211D30E4B1B78002B92
S315080010500ED10C4B01221A70A023DB051F329A61B0
S3150800106000F040FD084B1B881B18054A136010BD8D
S31508001070044B00221A70A023DB0520329A62EFE7A0
S31508001080800000207C00002084000020A023DB05CF
S3150800109020229A627047000010B5054B1B699B0415
S315080010A001D4002010BDFFF7F1FF0120FAE7C04682
S315080010B00008005010B56420FFF7BAFF10BD10B540
S315080010C0FFF7BCFF10BD000010B51C4A13680721C6
S315080010D08B4306390B431360194A116880235B0258
S315080010E00B43136001E0012909D0154B1A688023C8
S315080010F09B02110019401A42F5D00121F3E7104B63
S315080011009A6810490A409A601A681C218A431A602C
S315080011109A6815398A4306390A439A60084B9A68C9
S3150800112038231340082BF9D1054A936806490B4022
S3150800113093600648FFF7DAFD10BDC046002002405E
S3150800114000100240FFF0FFFFFF8FFFFF006CDC027C
S3150800115010B5FFF761FFFFF7B7FF10BD10B5FFF732
S31508001160F7FF00F0D2F800F0DEF8FCE7F0B5C64667
S3150800117000B58EB03A4B1A6C01252A431A641A6CCC
S315080011802A400792079ADA6B802149050A43DA63EF
S31508001190DA6B0A400692069A5A6B202632435A633D
S315080011A05A6B32400592059A596B082211435963C6
S315080011B0596B0A400492049A5A6B04273A435A63B5
S315080011C05A6B3A400392039A5A6B2A435A635A6BEC
S315080011D02A400292029ADA6B802189020A43DA636C
S315080011E0DA6B0A400192019ADA6B802149010A43B7
S315080011F0DA63DB6B0B400093009B08960995002485
S315080012000A940B940C94A023DB05984608A91800A9
S31508001210FFF764FB43469E6280239B01089309946B
S315080012200C9508A90F48FFF759FB0C2308931E3E97
S3150800123009960A940B940C940D9508A94046FFF755
S315080012404DFB0323089309960A960B940C940D9765
S3150800125008A90548FFF742FB0EB080BCB846F0BDAA
S315080012600010024000080050000C005070B5FFF74F
S3150800127027FCA025ED052024AC621648FFF7E0FA06
S315080012801548FFF7DDFA1548FFF7DAFA2800FFF7E1
S31508001290D7FA134BDA6B13490A40DA63DA6B124949
S315080012A00A40DA635A6BA2435A635A6B08218A4387
S315080012B05A635A6B04398A435A635A6B03398A4309
S315080012C05A63DA6B09480240DA631A6C8A431A646D
S315080012D070BDC04600140050000C005000080050B5
S315080012E000100240FFEFFFFFFFFFFDFFFFFFFFEFCC
S315080012F0704710B500F005F8FCE710B5FFF7DAFE01
S3150800130010BD10B5FFF7DBFE10BD10B501F094F85F
S31508001310FFF7F3FF00F060FB01F0C4F800F05CF89B
S3150800132000F03EF810BD10B5FFF7EBFF00F0BAFB72
S3150800133000F0D4F800F002F810BD000010B500F077
S31508001340A3F8012803D00B4B1B78012B00D010BD46
S3150800135000F0C8FB084B094A1B6812689B18F5334E
S31508001360FF339842F3D3034B00221A7001F068F852
S31508001370EDE7C04690000020880000208C00002081
S3150800138010B5054B1B78012B00D010BD00F0AAFB49
S31508001390024B1860F9E7C046900000208C00002038
S315080013A010B5044B01221A70FFF7EAFFFFF7C6FFD4
S315080013B010BDC0469000002010B500F093FB014B0D
S315080013C0186010BD1801002010B5024B1870FFF701
S315080013D0F3FF10BD1C01002010B50020FFF7F4FF35
S315080013E000F064FA00F0D6FC034C0223237000F0E8
S315080013F0A7FB0023237010BD0C00002010B50020A9
S31508001400FFF7E2FF10BD000070B505000C000B4B9E
S315080014101B78022B08D0094B1B78002B08D000F04C
S3150800142061FAFFF7C9FF70BDC9B200F01BFDF2E70C
S31508001430E1B2280000F0A2FBF1E7C0460C0000204C
S31508001440074B1B78032B05D0042B05D0022B05D19F
S31508001450082002E03F2000E03F2070478120FCE79B
S315080014600C000020074B1B78032B05D0042B05D056
S31508001470022B05D1082002E03F2000E03F207047FC
S315080014808120FCE70C00002010B500F021FA0028A6
S3150800149000D0012010BD000010B5FFF7F5FF0128A8
S315080014A002D00024200010BD094B1C78012C01D065
S315080014B00024F7E700F016FB064B1B68C01A064B1C
S315080014C0984201D80024EDE70020FFF77DFFE9E701
S315080014D01C010020180100208713000000B583B006
S315080014E013486B46D91D00F0FDFC01280AD01048A8
S315080014F06B46D91D00F05EFB01280ED0FFF7CCFF26
S3150800150003B000BD0B4B02221A70FFF75DFF6B4656
S31508001510D979074800F0EEF9E9E7064B00221A7078
S31508001520FFF752FF6B46D979014800F0E3F9E5E782
S31508001530940000200C000020024B822200219954BE
S315080015407047C04620010020034BFE221A705970CE
S31508001550783A022199527047200100200278437890
S315080015601B021A4383781B041343C07800061843EA
S3150800157070470870030A4B70030C8B70000EC87016
S315080015807047000010B5064C81230022E254FFF78D
S31508001590D3FFFF232370793B0122E25210BDC046D8
S315080015A020010020074BFF221A7000225A70822160
S315080015B0595C9970DA701A715A71863206219952F5
S315080015C07047C0462001002010B500780021FFF7BB
S315080015D0BBFF10BD10B5094CFF232370084B8822AA
S315080015E0A35000236370A370E370211D0720FFF743
S315080015F0C0FF86230822E25210BDC0462001002003
S31508001600F026000810B5064CFF2323700430FFF7B8
S31508001610A5FF8823E050023B0122E25210BDC046D6
S315080016202001002010B500783121FFF78DFF10BD8D
S3150800163010B500782021FFF787FF10BD70B5084C5C
S31508001640FF23237000256570A570FFF7F9FEE0708B
S3150800165025716571A57186230722E25270BDC046C1
S315080016602001002070B5FFF767FF0E4C0125812386
S31508001670E5547E3323700023637010226270A370D2
S31508001680FFF7DEFEE070FFF7EDFE2071FFF7EAFEDA
S31508001690000A6071A571E57186230822E25200F0FE
S315080016A001FF70BD2001002070B50400FFF7C8FED9
S315080016B06278904210D90B4E88257159701C00F03B
S315080016C0E1FEFF233370735962789B187351637870
S315080016D001338622B35270BD20782221FFF734FFEA
S315080016E0F9E7C0462001002070B50400FFF7A8FE00
S315080016F06378984215D9201DFFF730FF01000B4D7E
S315080017008826A8516278681C00F0BCFEFF232B705F
S31508001710AB5962789B18AB51637801338622AB527A
S3150800172070BD20782221FFF70FFFF9E7200100207E
S31508001730F8B505001700002406E02B781C19E4B25A
S315080017400135FFF7DEFD31004E1E0029F5D13C605C
S315080017500120F8BD30B583B0002501950B4CFF2359
S3150800176023700430FFF7FAFE01008823E05801AA27
S31508001770FFF7DEFF6070211D0198FFF7FAFEA570DE
S31508001780E57086230822E25203B030BD200100200E
S3150800179070B504000F4B88229D58FFF751FE411E75
S315080017A0621C280000F082FE00280DD0094CFF2399
S315080017B02370FFF745FE8822A35801381B18A3504B
S315080017C08623873AE25270BD20783121FFF7BCFEA6
S315080017D0F9E7C0462001002010B50400FFF730FEE7
S315080017E001386378984217DD154BFF221A70793A4B
S315080017F0012199526178002913D0114B88229858F3
S31508001800A21C00F053FE002814D00D4988228B58DC
S3150800181060781B188B5010BD20782221FFF794FEA4
S31508001820F9E700F053FE0028F5D120783121FFF7BB
S315080018308BFEF0E720783121FFF786FEEBE7C046FE
S315080018402001002070B504000B4B88229D580430F7
S31508001850FFF784FE0100280000F02CFE002806D0C1
S31508001860054BFF221A70793A0121995270BD2078EA
S315080018703121FFF769FEF9E72001002010B500F0D5
S31508001880DFFD064C81230022E254FFF755FEFF23B5
S315080018902370793B0122E25210BDC0462001002088
S315080018A010B589B2FFF7B0FD10BD0000074B002246
S315080018B081215A5407315A5004395A5402315A521E
S315080018C0002183329954013A995470472001002027
S315080018D0034B8122985C002800D001207047C0463F
S315080018E020010020024B8422002199547047C046EB
S315080018F02001002010B504000078FF280DD0344BD5
S3150800190081229B5C012B15D103003733DAB2352AC5
S315080019104DD893002F4AD3589F462000FFF7A2FEC2
S315080019202B4B84229B5C012B45D0294B8622995E42
S31508001930002945DC10BD2000FFF7B6FEF0E72000C1
S31508001940FFF7D2FEECE72000FFF75CFEE8E7200091
S31508001950FFF700FFE4E72000FFF73CFEE0E7200082
S31508001960FFF732FEDCE72000FFF71CFED8E7200071
S31508001970FFF708FED4E72000FFF70AFFD0E72000AC
S31508001980FFF72AFFCCE72000FFF758FEC8E720003C
S31508001990FFF758FFC4E72000FFF770FFC0E72000F5
S315080019A0FFF740FEBCE72000FFF742FEB8E720211C
S315080019B0FFF7CAFDB4E720781021FFF7C5FDB4E7A5
S315080019C003488423853AC254FFF76AFFB2E7C04644
S315080019D0200100201826000830B583B0194B1A6C70
S315080019E0802109010A431A641A6C0A400192019A75
S315080019F0154A10689968090B07220A40134992008C
S31508001A0051581F220A40D0409A68E023DB011A4247
S31508001A1016D1012358430E4C012525600D4BE36270
S31508001A200D49FEF74DFB0138A06263692B436361DC
S31508001A300A4B00221A60626A094B1A8003B030BD4D
S31508001A400223E7E70010024000000020682500088E
S31508001A50002C0140FFFF0000A0860100B001002015
S31508001A60AC0100200B4B196B802212010A431A6342
S31508001A701A6B09490A401A631A6C0A401A64074B1A
S31508001A8000221A605A609A60054B802292045A60B6
S31508001A907047C04600100240FFF7FFFF10E000E065
S31508001AA000ED00E010B50C4B586A80B20B4B1C8851
S31508001AB0001B80B263280DD96421FEF701FB83B2AF
S31508001AC007490A68D2180A606420584380B2034B53
S31508001AD024181C8010BDC046002C0140AC01002013
S31508001AE0B001002010B5FFF7DDFF014B186810BDE7
S31508001AF0B001002010B5FFF7F5FF10BD054BDB69F7
S31508001B009B0604D5034B5B6A0370012070470020CF
S31508001B10FCE7C0460044004010B5084B9862FFF742
S31508001B20E1FF0A300400054BDB691B0605D4FFF705
S31508001B30E8FBFFF7D7FFA042F5D910BD00440040E7
S31508001B4030B589B00C4C23680125AB432360E123EB
S31508001B501B02019300230293039304930C2205921C
S31508001B6006930793009369462000FFF7FDF823685C
S31508001B702B43236009B030BD0044004070B5060011
S31508001B800D00812904D82800FFF7C6FF00240BE0C2
S31508001B9007487921FFF7ADFBF5E7FFF7B2FB305DA4
S31508001BA0FFF7BAFF0134A4B2A542F6D870BDC04605
S31508001BB0F826000870B506000D00254B1C78002C89
S31508001BC017D12448FFF79AFF012801D0200070BDDD
S31508001BD0204B1B78013BDBB2802BF7D8FFF782FF3F
S31508001BE01D4B18601D4B00221A70194B01321A70D2
S31508001BF0ECE71A4B18780130164BC018FFF77EFF32
S31508001C000400012815D1154B1A780132D2B21A7080
S31508001C10104B1B789A4201D00024D7E710493000B0
S31508001C2000F030FC0A4B00221A700C4B1B782B7004
S31508001C30CCE7FFF757FF084B1B68C833984204D90F
S31508001C40034B00221A700024C0E70024BEE7C046F2
S31508001C5040020020BC010020B8010020B401002089
S31508001C60BD010020F0B5DE4657464E464546E0B56E
S31508001C7087B080460F00454840444549884276D893
S31508001C80002F00D17BE0002A00D17AE03B899946F3
S31508001C90BB8901931D004D44ADB20135ADB27B89B8
S31508001CA09A46FB89029353449BB201339BB29B46E7
S31508001CB0BC884646039204E00120D08058E00134EF
S31508001CC0A4B2FB88A34250D33B68984633006B43C3
S31508001CD0984558D321004046FEF778FA0029EED1F8
S31508001CE021004046FEF7ECF980463100FEF76EFA11
S31508001CF00029E4D131004046FEF7E2F983B298465E
S31508001D009D42DCD89B45DAD30004030C0493C00B30
S31508001D1009300A21FEF7D4F982B2059243469B1A86
S31508001D209BB2013B9BB298469945C8D89A45C6D3FB
S31508001D3001989042C3D802989042C0D301336420D8
S31508001D4058430499FEF7BCF9C3B2413BDBB20F2BEB
S31508001D50B5D84646039A14805680059991804B0853
S31508001D60D3800129A8D9012002E0002000E0002044
S31508001D7007B0F0BCBB46B246A946A046F0BD002057
S31508001D80F6E70020F4E70020F2E7C046F0D8FFFFA8
S31508001D90F0EA790070B58EB00822002102A800F09A
S31508001DA0A2FB2B482B4B0360FEF70AFBC0208000E2
S31508001DB0FEF762FF04A9049001238B80802292001B
S31508001DC0CA800B81013AFF3A4A818B817F33CB81E6
S31508001DD002AA2148FFF746FF002832D01C4C0026ED
S31508001DE06660A660E660012525746574A67402AB74
S31508001DF01A8862615A88E2619A882262DB88A3613E
S31508001E006562A562E56225636563A663E6632000ED
S31508001E10FEF7D8FA089609960A950B950F4B0C9378
S31508001E200D9308A92000FEF7B9FB009501230222AD
S31508001E3002212000FEF7E1FB2000FEF7F9FB0EB0B9
S31508001E4070BD9B2106484900FFF753FAC6E7C0460E
S31508001E50440200200064004020A107006706000035
S31508001E602027000830B58BB005000C0008291CD8BF
S31508001E70194B019300230293039307930593089341
S31508001E805222099206930494144C2A0001A92000B0
S31508001E90FEF7E4FB05002000FEF709FC0400002D10
S31508001EA001D1002807D10BB030BDD8210C48490014
S31508001EB0FFF71FFADCE7FFF715FE32300500074883
S31508001EC02100FEF7A5FC0028EDD0FFF71AFAFFF768
S31508001ED009FEA842F3D9E6E7E1070000440200201C
S31508001EE02027000830B58BB004000D0013484021A8
S31508001EF0FEF797FC002802D100200BB030BD0F4832
S31508001F0023006A464021FEF7D5FB002813D1009A24
S31508001F100B4B9A42F1D1019B002BEED16B461B7BF2
S31508001F202B70082B01D80120E7E706480649FFF77A
S31508001F30E0F90120E1E70020DFE7C046440200207F
S31508001F4067060000202700082F02000070B505006C
S31508001F50002401E00134E4B2102C14D8FFF7D1F9BB
S31508001F600A4A63001B199B009B58AB42F2D86000D3
S31508001F7000198000121852689B18AB42EAD9034B25
S31508001F801B18187A00E0FF2070BDC04670270008AD
S31508001F9070B50500002401E00134E4B2102C0FD816
S31508001FA0FFF7AFF9084B6200121992009B181B7ACB
S31508001FB0AB42F1D1044A63001B199B00985801E013
S31508001FC00120404270BDC0467027000870B5050064
S31508001FD0002401E00134E4B2102C10D8FFF791F97F
S31508001FE0084B6200121992009B181B7AAB42F1D17A
S31508001FF0044B6200121992009B18586800E00020F2
S3150800200070BDC0467027000810B5CB050BD1036814
S315080020108B4201D1012007E002C08022920000F025
S3150800202031FA012000E0002010BD0000F8B5CE46C8
S31508002030474680B581460068FFF788FFFF2806D126
S31508002040002398464046C0BCB946B046F8BDFEF7E0
S31508002050AFFC154B802212021A61002500E00135FB
S315080020603F2D18D84B461C68EB00E4184B445E68B5
S315080020709F68FFF746F932003B0021000120FEF772
S31508002080EDFC8046002809D122686368B24207D170
S31508002090BB42E4D004E00123984601E000239846B9
S315080020A0FEF79EFCCEE7C0460020024070B504004D
S315080020B00D000F4B984214D00E4B99420BD10C4E83
S315080020C03400002E05D029002000FFF79DFF0028C8
S315080020D00CD0300070BDFFF7A9FF012804D00026F8
S315080020E0EFE7054E3400ECE72600EAE70026F0E7BE
S315080020F0A802002000300008AC040020F0B5C6464F
S3150800210000B505000C0016001F004B0A5B02984636
S315080021100368013307D02B6843450AD12B68E41AB4
S315080021202C19043414E04146FFF76EFF002822D02C
S31508002130F1E741462800FFF7B9FF051EEED100205A
S3150800214019E03378237001340136013F002F11D08E
S31508002150FFF7D7F8291D611A80239B009942F0D30F
S3150800216029689C4661442800FFF7A0FF051E05D094
S31508002170041DE6E7012080BCB846F0BD0020FAE75A
S3150800218010B5040080231B0598420CD3F8231B06C0
S315080021909C4664440D4B1B880D4A934208D0002B7D
S315080021A00CD09B0206E00B480B49FFF7A2F8EDE7B7
S315080021B08023DB029C4204D2E00A10BD8023DB02A6
S315080021C0F8E704480549FFF794F8F5E7A075FF1FF7
S315080021D0FFFF0000482700089D0300009E0300003B
S315080021E070B584B00C000023039388423BD80528B9
S315080021F03DD9162901D9002436E0FFF7C9FE0500A6
S315080022002000FFF7C5FE06002000FFF7DFFE3618A0
S31508002210013E761B0136F60AB6B202230093013B4D
S315080022200293FEF7C5FB134B802212021A610024A3
S31508002230B44212D22800FFF7A3FF0190FFF761F816
S3150800224003A96846FEF714FE00280AD180231B015D
S315080022509C4665440134A4B2EAE70124FEF7C0FBB4
S3150800226002E00024FAE70024200004B070BD002430
S31508002270FAE7C04600200240034B012252421A6088
S31508002280024B1A607047C046AC040020A802002022
S3150800229070B504000D0016004A1E124B1B1A9A420E
S315080022A001D9002070BDFFF751FEFF2811D028196B
S315080022B00138FFF74BFEFF280BD0630A5B020A4A78
S315080022C0934208D009482B0032002100FFF716FF79
S315080022D0E8E70020E6E706482B0032002100FFF772
S315080022E00DFFDFE7FFFF030800300008AC040020FD
S315080022F0A802002070B505000C004A1E0F4B1B1AD9
S315080023009A4205D9FF21FF260020012812D070BD68
S31508002310FFF71CFE060060190138FFF717FE0100DB
S31508002320FF2E03D0FF2803D00120EEE70020ECE7BC
S315080023300020EAE73000FFF753FFE8E7FFFF03084E
S3150800234000B583B000230193124B1B68013302D1F9
S31508002350012003B000BD0F4A5368019391685B18CA
S315080023600193D1685B18019311695B180193516950
S315080023705B18019391695B180193D2699B180193C5
S31508002380DA4301925B42019301AA04210248FFF74E
S315080023907FFFDEE7A8020020C03000080E4B1B684E
S315080023A00E4A12689B180E4A1268D2180D4B1B6803
S315080023B09B180D4A1268D2180C4B1B689B180C4ABE
S315080023C01268D2180B4B1B689B18002B01D10120F1
S315080023D070470020FCE7C0460030000804300008BB
S315080023E0083000080C3000081030000814300008C7
S315080023F018300008C030000810B50B4B1B680133B5
S3150800240005D10A4B1B68013307D1012010BD0648C8
S31508002410FFF70CFE0028F9D0F3E70448FFF706FE9D
S315080024200028F3D00120F1E7A8020020AC04002020
S31508002430004870470030000810B500F050F810BD8D
S3150800244010B500F03BF8002800D110BDFEF724FEB9
S315080024500028FAD0FEF7D2FFFEF79EFDFFF702FB33
S3150800246000F030F8054B1840054B986000F02AF844
S31508002470446800F036F8A047E7E7C04680FFFF1F2C
S3150800248000ED00E070B508E04D1C461C0B780370A3
S31508002490FEF737FF300029002200541EA4B2002A96
S315080024A0F2D170BD10B5FFF7E7FE10BD10B5FFF706
S315080024B0EFFE10BD10B5FFF71DFF10BD10B5FFF7F5
S315080024C06DFF10BD10B5FFF7B3FF10BD10B5FFF7D0
S315080024D037FF002800D110BDFFF78EFFFBE772B665
S315080024E0704762B6704703008218934200D170475E
S315080024F019700133F9E7000070B500260C4C0D4D34
S31508002500641BA410A64209D1002600F019F80A4C4B
S315080025100A4D641BA410A64205D170BDB300EB5842
S3150800252098470136EEE7B300EB5898470136F2E7CD
S315080025303C2800083C280008402800083C280008D9
S31508002540F8B5C046F8BC08BC9E467047F8B5C04604
S31508002550F8BC08BC9E46704701B40248844601BCD4
S30D08002560604700BF11000020CE
S315080025680000000000000000000000000000000055
S31508002578010000000200000003000000040000003B
S315080025880000000000000000000000000000000035
S315080025980000000000000000000000000000000025
S315080025A8010000000200000003000000040000000B
S315080025B806000000070000000800000009000000E7
S315080025C80001020304050607080C101418203040F9
S315080025D801000000020000000400000006000000D8
S315080025E8080000000A0000000C00000010000000A7
S315080025F820000000400000008000000000010000E4
S3150800260800010000000100000001000000010000B0
S3150800261876190008AE190008AE1900089E190008B0
S31508002628AE190008AE190008961900087E190008A0
S315080026388E19000886190008AE190008AE19000890
S31508002648AE190008AE190008AE190008AE19000838
S31508002658AE190008AE190008AE190008AE19000828
S31508002668AE190008AE190008AE190008AE19000818
S31508002678AE190008AE190008AE190008AE19000808
S31508002688AE190008AE190008AE190008AE190008F8
S31508002698AE190008AE190008AE190008AE190008E8
S315080026A8AE190008AE190008AE190008AE190008D8
S315080026B8A6190008AE1900084E1900083E190008A0
S315080026C83619000846190008AE190008AE19000898
S315080026D8AE19000856190008AE1900085E19000850
S315080026E8661900086E1900084F70656E424C54004A
S315080026F82E2E2F2E2E2F2E2E2F536F757263652F83
S3150800270841524D434D305F53544D333243302F7247
S31508002718733233322E6300002E2E2F2E2E2F2E2E96
S315080027282F536F757263652F41524D434D305F5372
S31508002738544D333243302F63616E2E630000000018
S315080027482E2E2F2E2E2F2E2E2F536F757263652F32
S3150800275841524D434D305F53544D333243302F6603
S315080027686C6173682E6300000030000800080000DA
S3150800277806000000003800080008000007000000EE
S31508002788004000080008000008000000004800088B
S3150800279800080000090000000050000800080000B2
S315080027A80A00000000580008000800000B00000096
S315080027B800600008000800000C0000000068000817
S315080027C8000800000D00000000700008000800005E
S315080027D80E00000000780008000800000F0000003E
S315080027E800800008008000001000000000000108B2
S315080027F80080000011000000008001080080000029
S315080028081200000000000208008000001300000003
S315080028180080020800800000140000000000030879
S3150800282800800000150000000080030800800000F2
S309080028381600000078
S3090800283C4D02000833
S30908002840210200085B
S31508002844001BB70001000000040000000600000099
S3150800285410B50C4A54698023DB0223435361EFF312
S31508002864108C72B6002303E004C904C00133DBB23A
S315080028743F2BF9D9034B1B69DB03FBD48CF3108874
S30D0800288410BDC0460020024009
S705080002717F
