S31508000000E80D0020650100086D0100086F01000871
S3150800001000000000000000000000000000000000D2
S315080000200000000000000000000000007101000848
S3150800003000000000000000007301000879140008A1
S3150800004077010008770100087701000877010008A2
S315080000507701000877010008770100087701000892
S315080000607701000877010008770100087701000882
S315080000707701000877010008770100087701000872
S3150800008077010008770100087701000800000000E2
S315080000907701000877010008770100087701000852
S315080000A07701000877010008770100087701000842
S315080000B07701000877010008770100087701000832
S315080000C000F002F800F03EF80CA030C808382418F2
S315080000D02D18671EA246AB4654465D46AC4201D172
S315080000E000F030F87E460F3EB6460FCC0126334266
S315080000F000D0FB1A3343A246AB461847C41A000081
S31508000100F41A0000103A02D378C878C1FAD8520710
S3150800011001D330C830C101D504680C6070470000AF
S315080001200023002400250026103A01D378C1FBD805
S31508000130520700D330C100D50B6070471FB51FBDED
S3150800014010B510BD00F02DF81146FFF7F7FF01F0C6
S31508000150CBFB00F045F803B4FFF7F2FF03BC00F051
S315080001604BF800000748804707480047FEE7FEE7C8
S31508000170FEE7FEE7FEE7FEE704480549054A064BA3
S31508000180704700007B140008C1000008E80700203B
S31508000190E80D0020E8090020E809002070477047AC
S315080001A07047754600F024F8AE4605006946534682
S315080001B0C008C000854618B020B5FFF7DDFF60BC53
S315080001C0B64600260027C0C5C0C5C0C5C0C5C0C53F
S315080001D0C0C5C0C5C0C5403D490849008D467047E1
S315080001E010B50446C046C0462046FFF7B4FF10BD0A
S315080001F000487047A801002001491820ABBEFEE759
S3150800020026000200704700F0CEF8FCE710B500F0B3
S3150800021073F8012813D01A4C207801280FD101F061
S315080002202DF918490968184A126851187D22920052
S315080002308918884203D30020207000F0D5F810BD35
S31508000240B0B50F4C0120207001F018F90D4D28604B
S3150800025000F052F8012811D0207801280ED101F0BB
S315080002600DF92968084A126851187D2292008918E2
S31508000270884203D30020207000F0B6F8B0BDC0460F
S3150800028020030020240300201C03002080B500F072
S3150800029092F800F07FF801F00BF901F01BF800F076
S315080002A01BF8FFF7CDFF80BD80B500F07CF801F0A4
S315080002B059F900F027F8FFF7A9FF80BD80B529484E
S315080002C00021017001F0DAF83149086080BDC046A6
S315080002D0812070478120704780B52248002101702F
S315080002E001F0CCF82A49086001F058F900F0FEFF41
S315080002F026480121017080BD80B501F05DF9411ED7
S31508000300884180BDB0B582B0154801A901F014F83E
S3150800031001280DD11348012101701C48017001F014
S31508000320ADF81B49086001A801780D4801F04AF9A3
S3150800033001F042F9002810D00A4C207800280CD089
S3150800034001F09CF8124D2968401A0749884204D3DF
S315080003500020207001F092F8286002B0B0BDC046B7
S3150800036008020020380700208813000080B5074AD5
S315080003701278012A02D1C9B201F030F801F0ACFABC
S3150800038001F07CF80249086080BDC04630070020AD
S315080003903407002080B500F001F880BD80B56420E0
S315080003A000F060FF80BD80B500F001F880BD80B523
S315080003B000F05CFF80BD80B500F001F880BD72B624
S315080003C0704762B6704770B5002A0BD014460D46C2
S315080003D0064628783070761C6D1C641EFFF7E3FF0E
S315080003E02004F6D170BD000010B500F077FF002894
S315080003F015D000F019F8002811D0FFF75FFF00F0BC
S315080004009DFA01F093F800F061FF0549014005489F
S31508000410016000F05BFF4468FFF7D3FFA04710BDFB
S3150800042080FFFF1F08ED00E080B5054800688004DE
S3150800043001D4002080BD00F00FFF012080BDC0461A
S315080004401008005070B5012244480168C90501D456
S31508000450002105E01102204B5C69022525435D61F8
S3150800046003689B0505D553021B4C656915436561F1
S31508000470194303685B0506D59302174C6569082678
S315080004802E436661194303681B0506D5D302124C31
S31508000490656904262E436661194303689B0406D5DD
S315080004A053030D4C656910262E436661194303688C
S315080004B09B0305D5084B5C6920252C435C612943C1
S315080004C00368DB0306D51204034B5C694025254304
S315080004D05D611143016070BD44070020F0B581B02D
S315080004E0054600F0CBFA01461C4F3868C00721D1F3
S315080004F03868800701D5022038603868C00513D4EB
S315080005003868800510D4386840050DD43868000569
S315080005100AD43868800407D43868800304D4386855
S31508000520C00301D4002402E0FFF78CFF0124204613
S3150800053001B0F0BD03246E1C02D0002DF7D004E0F4
S315080005403868C007D4D0002EFAD0009100F096FA89
S315080005500099401AA842F3D9E9E7C0461820024094
S31508000560F0B585B01D4616460A460346874F0F4026
S315080005700124600203901868411C0AD11F60181DE7
S3150800058039460492039A0293FFF71DFF029B049AC9
S315080005901868B842019401D119461EE0E5498B4214
S315080005A00CD0794887420AD018460492029300F084
S315080005B0F1F8049A0028029901D14BE074490868B9
S315080005C0B8420AD00F60081D0C4639461746039AEA
S315080005D0FFF7F9FE3A4621462768D01B0818071D7B
S315080005E009E029463546049E307838706D1E761C1B
S315080005F07F1C002D31D004962E46781A041F0D460E
S31508000600FFF7D1FE164A9442EBD92F68D019411C40
S31508000610C84885425E4C2B463546049E0CD1174287
S3150800062018D12068884204D0204602C0039AFFF7F2
S31508000630CAFE271D2146D7E753488142BD4CF0D054
S31508000640184602930C4600F0A5F82146044A0028ED
S31508000650029CE4D1002005B0F0BD019805B0F0BDBC
S31508000660FF01000080B5B3480068401C04D0B148BB
S3150800067000F090F800280AD045480068401C04D0CD
S31508000680434800F087F8002801D0012080BD0020EB
S3150800069080BDC046F0B585B0002404941B4A0240CC
S315080006A0394B9A422FD3374B1E1A4D1EB5422AD8BC
S315080006B02D189D4227D810230393029200250195F1
S315080006C0134E304040184105C00A002900D0401C8E
S315080006D087B200F0A1F90124002F12D00095FFF788
S315080006E062FE01A804A900F039F9002808D1029889
S315080006F03018401C02906D1CA8B28742EFD800E063
S31508000700009C00F07DF9204605B0F0BD00F8FFFF1B
S31508000710FF0700001C4870470020C0438549086051
S315080007201B4908607047C04670B517487EC8006800
S315080007305118C91809194919891908187E490968E3
S315080007400818411C4842484170BDC046F0B581B002
S315080007500B46014600200C4CA14210D3094D6F1AD6
S315080007605E1EBE420BD87618AE4208D80748084027
S31508000770A04201D0064800E06E48FFF7F1FE01B03E
S31508000780F0BDC046FFFF02080020000800FEFFFF7C
S3150800079028030020F0B585B0044600F03DF9256829
S315080007A0A80604D04AA05549FFF72DFD2568FFF78E
S315080007B0FAFD261D2846314601F0E6F900250028EF
S315080007C000D080E02768FFF7EEFD21464431403728
S315080007D0384601F0D9F9002875D12768FFF7E3FDF7
S315080007E0214684318037384601F0CEF900286AD18F
S315080007F02768FFF7D8FD2146C431C037384601F0CF
S31508000800C3F900285FD101200290010220680391F4
S3150800081040180490412080002718FFF7C4FD04986B
S31508000820394601F0B1F900284DD151208000201831
S315080008300490206803990F184037FFF7B4FD38462F
S31508000840049901F0A1F900283DD161208000201803
S315080008500490206803990F188037FFF7A4FD3846DF
S31508000860049901F091F900282DD1712080002018F3
S315080008700490206803990F18C037FFF794FD38468F
S31508000880049901F081F900281DD1802000252F4602
S315080008900190F05DF1194A78120210188A78C97821
S315080008A00902891809040818049020680390FFF7BC
S315080008B07AFD039838580499884204D13F1D019857
S315080008C0401EE5D1029D00F09BF8284605B0F0BD14
S315080008D02E2E2F2E2E2F2E2E2F2E2E2F536F757235
S315080008E063652F41524D434D305F53544D33324C5F
S315080008F0302F666C6173682E63000000CA02000020
S31508000900F0B581B00B480168491C10D0071DFECF11
S31508000910511859186118691871187918C94300913E
S3150800092005496A460423FFF71BFE01B0F0BD012006
S3150800093001B0F0BD2C050020C020000810B5002429
S31508000940E043F249C860CC6088608C6048604C60BF
S3150800095008600C6000F0ECF8204610BDF0B585B0D4
S315080009600390254D287C012801D1022641E00191FA
S315080009700120029028742148FFF7B0FD064600289A
S3150800098035D10026F04301990860039844688068C9
S31508000990C001001984422AD200266E6102984102DB
S315080009A00491314D28680843286028680827384389
S315080009B028607F20214681430E601048FFF78EFD90
S315080009C02968B94329602968049A9143296000284F
S315080009D009D1039948688968C9010818803484428E
S315080009E0054DD9D303E001990C600646024D002057
S315080009F02874304605B0F0BD4407002050C30000F7
S31508000A001948016802220A430260016801220A4362
S31508000A10026000207047C04613480168C9070DD018
S31508000A20EFF31081EFF3108272B6104A8260104A13
S31508000A30826081F310880168C90712D101688907A5
S31508000A400DD5EFF31081EFF3108272B6094AC26032
S31508000A50094AC26081F310880068800701D4002023
S31508000A60704701207047C04604200240EFCDAB898D
S31508000A7005040302BFAE9D8C1615141370B50C4DF4
S31508000A802E880C480068801B80B263280CD9642421
S31508000A90214600F07DFF0146074A1068401810609D
S31508000AA04C43A119298070BD0348006870BDC04633
S31508000AB03A070020240000404007002010B50948E6
S31508000AC0016840220A4302600024204600F00CF820
S31508000AD0002802D00124204610BD00F053F8204615
S31508000AE010BDC04600200240B0B504467D20C000B7
S31508000AF00C49097800F04CFF01460B48006800F0E5
S31508000B0047FF00F0BDF80125032C09D8002807D1B6
S31508000B100025E84321462A4600F092F80348046077
S31508000B202846B0BDA00100209C010020A401002099
S31508000B3080B500F055F9124800F0BCF83F4800F0BF
S31508000B40B9F80520000700F0B5F801214A043A482B
S31508000B50C3689343C360026880239A4302600268AD
S31508000B6004239A430260CA430368134003600907D3
S31508000B70C3688B43C36081681140816080BDC046ED
S31508000B80001C0050F0B589B02B4881680126314316
S31508000B90816081683140039103993107C2680A432D
S31508000BA0C260C2680A400392039901683143016032
S31508000BB001683140039103990168042202921143A6
S31508000BC0016001681140039103990168802211436D
S31508000BD0016001681140039103997104C2680A43D0
S31508000BE0C260C068084003900398002706970597D7
S31508000BF00496202503950520040703A9019120469C
S31508000C0000F096F8A56207970497700303900B48BF
S31508000C10019D294600F08CF80298089007970697D8
S31508000C2003200590022004900C20039020462946B4
S31508000C3000F07EF809B0F0BD2C1002400008005004
S31508000C40002805D40322034693430C4A9A1806E063
S31508000C500F220240083A03239A43074BD21880070B
S31508000C60C00E8901C9B28140FF23834010689843AA
S31508000C70084310607047C0461CED00E000E400E041
S31508000C80401E010E01D0012070470749074A5060EF
S31508000C90074803680B40032189075918016000209B
S31508000CA09060072111607047FFFFFF0010E000E029
S31508000CB020ED00E00B21090741180A20C141012057
S31508000CC0072911D8CAB29F23D340DA070CD0880067
S31508000CD006A109580D4A13680B4313600CA108585E
S31508000CE011680140116000207047C04601000000ED
S31508000CF002000000040000000800000010000000C8
S31508000D000100000001000000800000001C100240E5
S31508000D10FEFFFFFFFDFFFFFFFBFFFFFFF7FFFFFFE4
S31508000D20EFFFFFFFFEFFFFFFFEFFFFFF7FFFFFFF57
S31508000D30F0B582B00C68002C4ED00022009114E069
S31508000D40764376430F2171438D4377432F430199A9
S31508000D50475000994D686B43056825401D4305605B
S31508000D600C68521C2346D34036D0012595402540B1
S31508000D70F7D04E68731E022B01962B4612D26B4390
S31508000D808E685E4303275F438168B94331438160B8
S31508000D900099C96861434668A6430E434660FC430A
S31508000DA0009903E06B4303245C43E4430F695F4304
S31508000DB0C66826403E43C660019E022ECAD12E0A48
S31508000DC001D0242500E020254F6901954559002EBC
S31508000DD0B6D11E465E43B5E7002002B0F0BD00005E
S31508000DE070B581B00122100226490B6803430B60D7
S31508000DF00868800504D4500200BF0B680342FBD084
S31508000E00072040034C68844305235803201848608C
S31508000E10FF2000064C6884434C601F2000024C6883
S31508000E2084431003201848600020C4430094164DDC
S31508000E30009E2E400096009DCD600D680095134DCE
S31508000E40009E2E400096009D0D600D680095950445
S31508000E500E68AE430E6003252D05009EAE43009630
S31508000E60009D0D600D68AD01FCD4C8608D689D437A
S31508000E708D6008618C61D2050B6D13430B6501B05B
S31508000E8070BDC046001002400CC0FF80D4FFFEFEB5
S31508000E90B0B50446AF4D28680007810FB048C04674
S31508000EA07944097949008F44010A2B11012000046D
S31508000EB02946083909680904490F884020E0284668
S31508000EC00C380068C0060BD5A44819E02968C90380
S31508000ED009D428460C380068C00603D59F4802E0A6
S31508000EE09D480DE09C4829688902090F9D4A525C75
S31508000EF0424328680002800F411C104600F048FD56
S31508000F00206029680906090F984A515CC840606044
S31508000F1029684905490F944A515C0346CB40A360AA
S31508000F2029688904490F515CC840E060B0BDC046D5
S31508000F3010B5014600200C2925D0032900D008E168
S31508000F40844C216C0322114012048918884A914264
S31508000F5036D0884A914239D08748814240D12068A4
S31508000F600007810F7E4849007944898849008F44E3
S31508000F701F000300F00068000C3C2068C00600D47F
S31508000F806FE0764810BD734C216C0907890F032959
S31508000F9016D0022937D001293FD120680007810FD2
S31508000FA06F48C0467944097949008F440154D27480
S31508000FB001200004083C21680904490F884010BD37
S31508000FC00120C103606C8001084010BD0C3C2168FB
S31508000FD0490700D4BDE02068C00642D55F4810BD69
S31508000FE020680007810F5E487944097949008F44D3
S31508000FF0013A7A41012000042146083909680904A2
S31508001000490F88406FE00C3C2168490700D4A0E0EE
S315080010102068C00625D5514810BD20680007810FF5
S315080010204F48C0467944097949008F44012D863EC8
S31508001030012000042146083909680904490F884037
S315080010407BE02168C9035CD420460C380068C006DA
S3150800105039D5424855E00C3C2068C00601D53F48C2
S3150800106010BD3D4810BD20460C380068C00626D580
S315080010703A4838E02168C90328D420460C38006865
S31508001080C00622D5354821E020460C380068C0063F
S3150800109017D5324851E02168C90332D420460C38A6
S315080010A00068C0062CD52D482BE02168C90337D423
S315080010B020460C380068C00631D5284830E0264856
S315080010C011E0254839E024481BE0234821688902B5
S315080010D0090F244A525C424320680002800F411CD3
S315080010E0104600F055FC216822689204520F1E4BE8
S315080010F09A5C0906090F1D4B595CC840D04010BDC3
S31508001100154821688902090F164A525C424320682D
S315080011100002800F411C104600F03AFC10BD0E4834
S3150800112021688902090F0F4A525C4243206800026F
S31508001130800F411C104600F02BFC216822685205DE
S31508001140520FF84B9A5C0906090F084B595CC840C0
S31508001150D04010BD0C1002400024F40000093D00E8
S3150800116000127A00AC1B0008A41B0008941B000898
S31508001170030003000200030001000300E6490860BB
S315080011807047C04670B584B0044600680125C0079C
S3150800119053D10E4620682A49014070680843F16811
S315080011A0014330690843B169014321600320010303
S315080011B062688A43B168114361600002A16881438D
S315080011C070690843A0601F48844206DC5948844277
S315080011D012D01F48844208D02FE01B48844204D00E
S315080011E01A48844229D1032007E06846FFF750FED3
S315080011F00298002805D120E00C20FFF799FE002868
S315080012001BD03168002918D00122D203B369934252
S315080012100CD140004A08101800F0BAFB0D490140ED
S315080012200007400F4018E060002506E04A0810183D
S3150800123000F0AEFB80B2E0600025284604B070BD21
S31508001240F369FFEFFF4F00400050004000380140AF
S31508001250004C0040F0FF0000014820210160704763
S3150800126028000050114908807047C04610B500F0A4
S3150800127005F90B4C2168884210D30A4801780A4AB6
S31508001280002900D01032202313600122514001703A
S3150800129000F0F4F8054909884018206010BDC046DA
S315080012A08C02002089020020180000503C0700200C
S315080012B080B5FFF725FB002802D0FFF7D3F980BDDC
S315080012C0002080BD80B5FFF7E5F980BD80B5FFF742
S315080012D021FA80BD80B5FFF71FFA80BD80B5FFF7FC
S315080012E023FA80BD80B5FFF731FA80BDB0B588B066
S315080012F0104C20680125A84320600020079006901E
S315080013000C210591049003900290E12000020190BF
S3150800131001A92046FFF736FF0920C002616881430C
S315080013206160A0682A218843A0602068284320605D
S3150800133008B0B0BD00440040F0B581B00C46234D5E
S315080013402A784C49002A0FD0234E32780B689B0620
S3150800135023D400F093F81F490968C831884231D967
S315080013600020287001B0F0BD0B68202200201A402A
S31508001370F8D08968164B1970002AF3D0C9B2491EED
S315080013808029EFD800F07AF812490860124900203F
S3150800139008700121297001B0F0BD531C33700C4F41
S315080013A0D219896851703978DAB28A420AD133700B
S315080013B0791CFFF708F80020287030782070012083
S315080013C001B0F0BD002001B0F0BDC04614030020F6
S315080013D0900200201803002015030020F0B581B004
S315080013E00C4600904808412803D317A09421FEF71D
S315080013F00AFF204FFC6000F041F806460A363868B6
S31508001400000605D4FEF7CFFF00F038F8B042F6D94B
S31508001410002C17D0002502E06D1CA54212D0FEF75D
S31508001420C2FF0098405DF86000F028F806460A36C4
S3150800143038680006F0D4FEF7B6FF00F01FF8B04291
S31508001440F6D9E9E701B0F0BD2E2E2F2E2E2F2E2E1F
S315080014502F2E2E2F536F757263652F41524D434DB4
S31508001460305F53544D33324C302F72733233322E31
S31508001470630000001C4400407047704770B5444D37
S315080014802E8844480068801B80B263280CD96424DF
S31508001490214600F07DFA01463F4A10684018106060
S315080014A04C43A119298070BD3B48006870BDC046F1
S315080014B0B0B582B0174A106801242043106010683E
S315080014C0204001900198144800682C3A1168126867
S315080014D0124D2B46143B1C60114BAB615205520F43
S315080014E0224600D002224905490F0E4B595CC840D6
S315080014F050430D4900F04CFA401E686128682043A5
S31508001500286025480021016028692149088002B021
S31508001510B0BDC046381002409C01002014000040AF
S31508001520FFFF0000A41B0008A08601000A490A68FC
S31508001530012002430A60C2430B6813400B600B6923
S3150800154013400B61054900220A604A608A6040061A
S31508001550034908607047C0462810024010E000E0C2
S3150800156004ED00E070B50A4D2E880A480068801B15
S3150800157080B264280AD36424214600F009FA064991
S315080015800A6812180A604443A019288070BDC0462C
S315080015903A07002024000040400700208120D14956
S315080015A000220A5486200A5288200A508131CA70BD
S315080015B08A704A707047C0468120CA49085C411E35
S315080015C088417047F0B581B004460078FF2827D1D6
S315080015D08120C44C01212154822000212154A1706C
S315080015E0BB482080FEF774FEE070FEF773FE20719C
S315080015F0FEF770FE862108226252FF210231E18041
S31508001600000A6071FFF766FE8421B648425C012A2B
S3150800161000D04EE086230222C252AE4B03804CE035
S315080016208125B04E715D012900D04BE0C9383528B7
S315080016303AD8400078448088400087444500350001
S3150800164035005B003500350060006A0076008B00C7
S3150800165035003500350035003500350035003500D4
S3150800166035003500350035003500350035003500C4
S3150800167035003500350035003500350035003500B4
S3150800168035003500350035003500350035003500A4
S315080016909800C100D300E700350035003500F90091
S315080016A0350003010901620086200221315284486F
S315080016B0CCE08622825E012A04DB0123435491B2E0
S315080016C0FEF754FE01B0F0BD8827F559FEF700FE77
S315080016D0621C411E2846FFF705FE002800D1C5E01A
S315080016E0FF203070FEF7F4FDF1594018401EF05106
S315080016F00120BEE08620022131527248A6E0FEF79C
S3150800170073FE822000213154715586200121315201
S315080017108BE06578FEF7DCFD801EA84200DBABE0B7
S31508001720862002213152684890E088203058217975
S31508001730627912025118A27912048918E2791206FE
S315080017408918FFF7BFFD002800D18FE0FF20307011
S3150800175001208EE00024B470FF203080FEF7B8FD2B
S31508001760862107227252B471B480F0704CE7FF20CC
S3150800177030702079617909020818A179090440189E
S31508001780E179090645180022002D17460ED0009269
S3150800179088203458002620783718FEB2641C6D1E3F
S315080017A0FEF701FE002DF6D14E4E009A862008213E
S315080017B03152F2807271377101207070728023E79E
S315080017C06578FEF785FDA8424ED920796179090228
S315080017D00818A17909044018E179090641188825ED
S315080017E0715106E06578FEF773FDA8423CD9882555
S315080017F071596278701CFEF7E6FD705961784018D9
S315080018007051FF2030706078401C32E0E079A17991
S31508001810227963798624012535531B029A1809040F
S3150800182051180006081888217050FF203070EBE622
S31508001830882026493150862008213152FF20072169
S3150800184003C6E1E6862002213152FE203080DBE61F
S31508001850862006213152FF2030800020B080F070AB
S315080018608220305CB070CFE6174800E0154830801B
S31508001870022086217052C7E6862501207053FF2074
S315080018803070617800290CD037468826B859A21CD2
S31508001890FFF728FD00280DD0B85961784018B851CF
S315080018A0B2E6FFF705FD002800D0ADE6022070532A
S315080018B00448CBE70220785302483880A4E6C0469D
S315080018C0FE200000FE310000FE220000B51B0008C5
S315080018D0FF100000FE1000008420024900220A546E
S315080018E07047C0465C070020FFF7E8F824480168FF
S315080018F00122114301600168C907FCD00320C10217
S31508001900204B1C688C43D1026118196094041E4947
S315080019100B460C3B1D6825431D6014041D682543B2
S315080019201D601C68A403FCD5FD2424040D68A5438A
S315080019304D2424042C190C6012061C6814431C60E0
S315080019401A689201FCD50A68F0239A430A600722AE
S3150800195013020C689C430C60D2020B6893430B601D
S315080019600A6802430A6008680C2202400C2AFAD167
S315080019700648FFF703FCFEF789FCFEF795FCFCE733
S3150800198000200240007000400C1002400048E801A8
S3150800199043088B421AD3002203098B4279D3030AE0
S315080019A08B425ED3030B8B4242D3030C8B4227D365
S315080019B00902FF2212BA030C8B4202D31212090241
S315080019C003D0030B8B4233D31AE0D3E0411A80418C
S315080019D0401C704703460B4371D443088B42F5D32A
S315080019E0002203098B4254D3030A8B4239D3030BD3
S315080019F08B421DD3030C8B4202D394466EE0090A30
S31508001A00C30B8B4201D3CB03C01A5241830B8B42C3
S31508001A1001D38B03C01A5241430B8B4201D34B03AC
S31508001A20C01A5241030B8B4201D30B03C01A524111
S31508001A30C30A8B4201D3CB02C01A5241830A8B4296
S31508001A4001D38B02C01A5241430A8B4201D34B027F
S31508001A50C01A5241030A8B4201D30B02C01A5241E3
S31508001A60CDD2C3098B4201D3CB01C01A5241830997
S31508001A708B4201D38B01C01A524143098B4201D3D1
S31508001A804B01C01A524103098B4201D30B01C01AFC
S31508001A905241C3088B4201D3CB00C01A5241830876
S31508001AA08B4201D38B00C01A524143088B4201D3A3
S31508001AB04B00C01A5241411A524110007047CA0FD2
S31508001AC000D04942031000D34042534000229C46AE
S31508001AD003098B422DD3030A8B4212D38901FC22B8
S31508001AE012BA030A8B420CD3890192118B4208D38E
S31508001AF0890192118B4204D3890137D0921100E0F3
S31508001B008909C3098B4201D3CB01C01A5241830903
S31508001B108B4201D38B01C01A524143098B4201D330
S31508001B204B01C01A524103098B4201D30B01C01A5B
S31508001B305241C3088B4201D3CB00C01A52418308D5
S31508001B408B4201D38B00C01A5241D9D243088B422B
S31508001B5001D34B00C01A5241411A00D201465241E4
S31508001B60104663465B1000D34042704763465B10DD
S31508001B7000D3404201B50021004201D0C9430846BE
S31508001B80C046C04602BD000003B40148019001BD2D
S31508001B9011010020000000000000000001020304FB
S31508001BA006070809000000000102030403040608EA
S31508001BB00C101820304F70656E424C54000000001F
S31508001BC0F01B0008000000209C010000040100082A
S31508001BD08C1D00089C0100200C0000000401000870
S31508001BE0981D0008A8010020400C000020010008EC
S31508001BF0F0B584B03F4A40490B680120521C01D019
S31508001C000340F9D1002A2FD00A68920701D502228B
S31508001C100A6043028702C202029242030192020448
S31508001C20039245040C68E40517D40C681C4214D1C9
S31508001C300C683C4211D10C68029A14420DD10C680A
S31508001C40019A144209D10C682C4206D10C68039AF1
S31508001C50144202D1002004B0F0BD04020A682242F0
S31508001C60009504D1002407E0032004B0F0BD234A00
S31508001C70556902262E4356610A681A4204D01F4A3D
S31508001C805569054355611C430A683A4205D01B4A03
S31508001C90536908251D4355613C43019F029E0A6806
S31508001CA0324205D0154A536904251D43556134430C
S31508001CB00A683A4205D0114A536910251D435561F1
S31508001CC03C43009B0A681A4205D00C4A53692025F2
S31508001CD02B4353612C430A68039B1A4206D0074AD2
S31508001CE0536940251D435561039A14430C6004B09B
S31508001CF0F0BDC046AF3CFFFF182002404407002055
S31508001D00F0B581B00D460446FFF772FF002801D0F2
S31508001D1001B0F0BD0120810200911B4F38680843CD
S31508001D2038603868082630433860EFF3108072B69A
S31508001D302868206068682060A8682060E8682060D5
S31508001D402869206068692060A8692060E8692060C1
S31508001D50286A2060686A2060A86A2060E86A2060AD
S31508001D60286B2060686B2060A86B2060E86B206099
S31508001D7062B6FFF73DFF3968B14339603968009AA2
S31508001D809143396001B0F0BD0420024000002000F4
S30D08001D90010000000400000038
S705080000C131
