S31508000000B80C002061010008690100086B010008AE
S3150800001000000000000000000000000000000000D2
S315080000200000000000000000000000006D0100084C
S3150800003000000000000000006F010008A120000871
S3150800004073010008730100087301000873010008B2
S3150800005073010008730100087301000873010008A2
S315080000607301000873010008730100087301000892
S315080000707301000873010008730100087301000882
S315080000807301000873010008730100087301000872
S315080000907301000873010008730100087301000862
S315080000A07301000873010008730100087301000852
S315080000B073010008730100087301000800F002F8D4
S315080000C000F03EF80CA030C8083824182D18671E12
S315080000D0A246AB4654465D46AC4201D100F030F824
S315080000E07E460F3EB6460FCC0126334200D0FB1A99
S315080000F03343A246AB4618476C2900008C290000FA
S31508000100103A02D378C878C1FAD8520701D330C852
S3150800011030C101D504680C60704700000023002434
S3150800012000250026103A01D378C1FBD8520700D320
S3150800013030C100D50B6070471FB51FBD10B510BD87
S3150800014000F02DF81146FFF7F7FF02F08DFA00F0E0
S3150800015045F803B4FFF7F2FF03BC00F04BF80000C4
S315080001600748804707480047FEE7FEE7FEE7FEE741
S31508000170FEE7FEE704480549054A064B70470000B6
S3150800018011210008BD000008B8060020B80C0020A0
S31508000190B8080020B80800207047704770477546B1
S315080001A000F024F8AE46050069465346C008C0006C
S315080001B0854618B020B5FFF7DDFF60BCB6460026B9
S315080001C00027C0C5C0C5C0C5C0C5C0C5C0C5C0C557
S315080001D0C0C5403D490849008D46704710B50446DC
S315080001E0C046C0462046FFF7B4FF10BD004870471A
S315080001F01000002001491820ABBEFEE726000200C9
S31508000200704700F048FAFCE710B500F0C7F9012876
S3150800021013D0154C207801280FD101F07BFF134924
S315080002200968064A126851187D2292008918884280
S3150800023003D30020207000F04FFA10BD840100207F
S3150800024080B509480121017000F004F8FFF7DCFFCA
S3150800025080BDC04680B504480078012803D101F066
S3150800026059FF0249086080BD880100208C010020E2
S3150800027080B500F018FA00F005FA01F051FF01F018
S31508000280B5FD00F07BF9FFF7DBFF80BD80B500F018
S3150800029002FA01F097FF00F087F9FFF7B5FF80BD76
S315080002A0F0B58BB00022002873D0002971D086885B
S315080002B0C3889E426DD88389048905930494E318FC
S315080002C05B1C9CB2344B0794634304680A949C42B3
S315080002D05FD300910192C189428906910392511810
S315080002E0491C89B20891099005E00998C288761CCC
S315080002F0B1B291424CD8B4B20A9F3846214602F0B0
S31508000300BAF905464443381BEFD12846224902F07C
S31508000310B2F9044608988442E7D81F486043281A69
S31508000320E3D107988442E0D3670009370A213846A3
S3150800033002F0A1F9024606988242D6D8059882426A
S31508000340D3D3D0432018029081B204988142CCD3EB
S3150800035003988142C9D8642048436430214614462C
S3150800036002F089F9C0B241380F28BED82146009C50
S31508000370A1800298608026801421384602F07BF915
S31508000380064901228D42114600D30146E18000E06C
S31508000390019A10460BB0F0BD20A10700C0C62D007B
S315080003A070B58EB0634C28482060002603960296E6
S315080003B0204600F0A4FF0320000201F07FFA23493B
S315080003C007912349069123490591049004A802A997
S315080003D0FFF766FF002804D19D2041005348FFF728
S315080003E010FFA6746660A660E66001256563A663CD
S315080003F0E6632563E562A5626562FF200230208216
S3150800040002A8018861614188E16181882162C0880A
S31508000410A061204600F0A0FE25480D900C900B9593
S315080004200A950996089608A9204600F0B0FD009599
S31508000430022120460A462B4600F0D4FD204600F04D
S315080004405FFF0EB070BDC04600640040010080002A
S31508000450010000010100000270B58AB00D4606468B
S315080004603448402100F0DDFD0024002807D031483B
S3150800047040216A46334600F0DFFD002802D02046B8
S315080004800AB070BD0A49009A13464B4001980343C7
S315080004905C425C418A42F2D10028F0D10398287068
S315080004A0C0B20928EBD321480249FFF7AAFEE6E7BE
S315080004B0670600003302000070B58AB00D46044690
S315080004C0092904D36D2081001848FFF79AFE0020F9
S315080004D007900390029016490191522109910890BC
S315080004E0059006900495134D01A92846224600F06A
S315080004F027FD0646284600F092FD002E13D1044635
S31508000500002810D001F006FE05463235094E304661
S31508000510214600F0EDFE002805D000F0BCF801F0F9
S31508000520F9FDA842F3D90AB070BDC046082A0008EA
S31508000530E10700009805002080B5002000F078F853
S3150800054080BD00004E480078042805D0032803D053
S31508000550022803D1082070473F2070478120704742
S3150800056047480078042805D0032803D0022803D179
S31508000570082070473F20704781207047B0B5002497
S31508000580204600F055F801F0A5FFFFF709FF3C4D9E
S315080005900220287001F0ACFC2C70B0BD80B501F0CB
S315080005A0A7FF411E884180BD80B582B0124801A9C7
S315080005B0FFF752FF01280AD13148022101700120B4
S315080005C000F036F801A801780B4801F099FF0A48AF
S315080005D001A901F0BDFC01280AD1294800210170B2
S315080005E0012000F025F801A80178034801F088FFEA
S315080005F000F004F802B080BD7000002010B5FFF7C7
S31508000600CDFF002401280FD10C48007801280BD112
S3150800061001F080FD0D490968401A0449884203D350
S31508000620002000F005F80124204610BD88130000BC
S3150800063080B50249087000F003F880BD0006002066
S3150800064080B501F067FD0149086080BDFC05002002
S3150800065070B50D4604460A4E3078022803D1E9B231
S315080006602046FFF729FF3078002803D1E9B2204653
S3150800067001F0D4FC01F0B6FFFFF7E2FF70BDC046FB
S315080006800400002080B500F001F880BD80B5642024
S3150800069001F074FB80BD80B500F001F880BD80B51F
S315080006A001F070FB80BD80B500F001F880BD72B620
S315080006B0704762B6704770B5002A0BD014460D46CF
S315080006C0064628783070761C6D1C641EFFF7E3FF1B
S315080006D02004F6D170BD000010B501F08BFB002890
S315080006E015D000F019F8002811D0FFF725FF00F003
S315080006F015FC01F051FD01F075FB0549014005485F
S31508000700016001F06FFB4468FFF7D3FFA04710BDF7
S3150800071080FFFF1F08ED00E080B501F029F80028EA
S3150800072003D001F027FB012080BD002080BD00001A
S31508000730B0B5016880228B581F242404A343446B58
S3150800074024041C438C508B580F242406A343846B23
S3150800075024061C438C500F4A914201D00F4900E0F1
S315080007600D490A4670323123DB00CB180C46B034EB
S315080007701D46F0350746403716C7C364D8330365A8
S315080007804565352000010818002204C18142FBD3C3
S31508000790B0BDC0460068004050B7004000B40040F5
S315080007A0F0B582B04E688D680C69002E05D02C43D2
S315080007B00D6825430124A40702E025430C68A40418
S315080007C02C4348255D43CB6801934B6900938F6999
S315080007D0CE690B6A406D445140191B0633433B43AF
S315080007E0009C2343019C24041C434460CB68002BD3
S315080007F013D0083000230A4CD518EE783606AF78A1
S315080008003F04BE196D782D027519D65CAD19C55011
S31508000810CD68655D1B1DAB42EED302B0F0BDC04688
S31508000820CC28000821490A68024301200004104325
S315080008300860704710B51D4A1468064B2340042803
S3150800084002D0012040031B18C8001843024901437F
S31508000850116010BD07C0FFFF02000100B0B51349C3
S315080008600C68012525430D600260BFF36F8F436056
S31508000870B0BDC046B0B5012293040C4A14681C43A7
S315080008801460EFF31083EFF3108472B6002420C9C6
S3150800089020C0651C3F2C2C46F9D3101F0068800326
S315080008A0800FFAD183F31088B0BDC04614200240E9
S315080008B0F0B583B005460320029000F0D7FD064642
S315080008C01C4F38688003800F0FD00298040402E09A
S315080008D03868204209D0681CFAD000F0C7FD801B92
S315080008E0A842F5D3029803B0F0BD396812483860BB
S315080008F01248084004D012494860012003B0F0BDF0
S3150800090038680021400302D4084603B0F0BD0191BF
S315080009100120840402E03868204207D0681CFAD017
S3150800092000F0A4FD801BA842F5D3DBE7019803B0CD
S31508000930F0BDC04610200240FBC30800FAC3000001
S315080009400C060020F0B583B01C4615460B46024639
S315080009502D4E0E400068401C01210028084605D08F
S31508000960002811D1002824D103B0F0BD1046314625
S31508000970029414461F4600F0E5F93B462246029CBF
S31508000980411E88410028EDD007461068B04203D1C1
S3150800099038460028E8D00CE002931046314600F0AD
S315080009A0E3F902460028384600D11046029B002883
S315080009B0DAD000901068181A1018061DE94F09E0D9
S315080009C02246029C019D28783070641E6D1C761C98
S315080009D0002C13D001950294B01A051F1446FFF790
S315080009E05AFEBD42ECD920683818411C204600F052
S315080009F0BBF9002805D00246061DE2E7009803B0B9
S31508000A00F0BD002003B0F0BD00FEFFFF10B5E948B9
S31508000A100068401C09D0E74800F012FA0446401E58
S31508000A208441002C04D1204610BD0124002CFAD0A4
S31508000A30DF480068401CF6D0DD4800F001FA0028BF
S31508000A40F1D10446204610BD70B5164A121A4B1E3F
S31508000A50934213D90025934213D80E1800F01EF9B5
S31508000A600446701E00F01AF901460020FF290246C6
S31508000A700DD1FF2C0ED100280FD170BD0125934250
S31508000A80EBD9FF24284621460028F6D005E02A4659
S31508000A90FF2CF0D010460028EFD0204600F004F8CE
S31508000AA070BDC046FFFF0708F0B587B00E460021A7
S31508000AB00691B04201D90C4600E001241E2E0A46D2
S31508000AC006D9062807D2B04208D9012C3DD108E03C
S31508000AD022460628F7D31146B042F6D80C46012C12
S31508000AE033D100F0F1F80546304600F0EDF8074638
S31508000AF0304600F003F90126059602210291791B7A
S31508000B000818C00A87B200F09DFC002F1BD001947C
S31508000B1000240094284600F051F80490284600F076
S31508000B2017F80390FFF7B7FD02A806A900F000FC26
S31508000B30002807D1F0022D18641CA0B28742E9D814
S31508000B40019C00E0009C00F037FC204607B0F0BD91
S31508000B50B0B50446C00E04D1E92081004948FFF724
S31508000B6050FB1F20C0062418474D28688005000B37
S31508000B70844205D3E9208000411C4248FFF741FB27
S31508000B80424803210B0642490A680A211A4009D03D
S31508000B9001231B069A4203D1074A1278920601D509
S31508000BA03D4809212A688A400240944202D301201E
S31508000BB0C003B0BD0420B0BD22200240F0B581B00C
S31508000BC00546C00E2D4C03D12E482146FFF719FBCA
S31508000BD01F20C0062E182C4800688005000B864288
S31508000BE003D3611C2748FFF70CFB2846FFF7B0FF25
S31508000BF0042802D1F00A01B0F0BD2148234B032195
S31508000C000F0623490A680A213A400BD001231B061E
S31508000C109A4204D11F4A927892061C4A03D50921A2
S31508000C201D4A00E01A46184B1B688B401340401CAF
S31508000C301843A84204D9113412482146FFF7E1FAAD
S31508000C40134801680A2039400CD001221206914245
S31508000C500D4A0E4B03D10F498978890604D5092018
S31508000C600D4B01E0084A094B116881401940701A7A
S31508000C70C00A01210902401801B0F0BDC3030000F3
S31508000C80FFFFFF07302A0008E075FF1F00FC0F0072
S31508000C900075FF1F2020024000FE070070B50446BD
S31508000CA0224D192603E0761E0C35002E0AD0FFF7D2
S31508000CB0F2FC2868A042F6D869680818A042F2D95A
S31508000CC0287A70BDFF2070BDF0B581B004460026B5
S31508000CD00C2777431548C019057AFFF7DCFCA542AF
S31508000CE007D0701C172E0646F2D90020C04301B063
S31508000CF0F0BD0E48C05901B0F0BDC046F0B581B090
S31508000D00044600260C20704308490F183D7AFFF761
S31508000D10C2FCA54206D0701C172E0646F2D9002042
S31508000D2001B0F0BD786801B0F0BDC046DC28000807
S31508000D30294870470020C043764908603F49086043
S31508000D407047C04610B5074C0C4007D102688A4266
S31508000D5004D002C001225202FFF7ADFC6042604196
S31508000D6010BDC046FF01000070B50D46064669482D
S31508000D70864215D018498D42044608D0304600F000
S31508000D805FF80128344600D0002430462946002C56
S31508000D900BD0FFF7D7FF002800D10446204670BDC8
S31508000DA0264829460446002CF3D1002070BDC046CB
S31508000DB0900100209403002070B507487EC800689B
S31508000DC05118C91809194919891908185249096879
S31508000DD041184842484170BD00300008F0B581B05E
S31508000DE00C4606461348801B491E002781421ED81A
S31508000DF015463046FFF752FFFF2818D0A019401EA7
S31508000E00FFF74CFFFF2812D0700A0B49884207D11A
S31508000E10404831462A462346FFF794FD074606E032
S31508000E20064831462A462346FFF78CFD07463846CC
S31508000E3001B0F0BDFFFF070818000400900100206C
S31508000E40F0B585B005460068FFF728FF0446FF3C65
S31508000E50611E8C41FF283BD0009400F0F3FA281D50
S31508000E600390402000240194029504900399085D9C
S31508000E7009194A78120210188A78CB781B029A1830
S31508000E801204161808794A79120210188A79C9794B
S31508000E900902891809040F1828682518FFF7FBFBAB
S31508000EA00120294632463B4600F096FA00280CD126
S31508000EB06868784029687140014306D10834049867
S31508000EC0401E029DD1D1009C00E0019C00F074FAFE
S31508000ED0204605B0F0BD000070B582B00020019034
S31508000EE00C480168491C11D0061D7ECEC0695118F0
S31508000EF0591861186918711808184042019006486F
S31508000F00042101AAFFF76AFF02B070BD012002B0F2
S31508000F1070BDC04694030020BC30000810B50024FC
S31508000F20E043064988608C60C860CC6048604C60C5
S31508000F3008600C6000F0D8FA204610BD2410024064
S31508000F40B0B504465C20205C022814D12068C4236E
S31508000F50C3589B0215D4C43000688003850F204609
S31508000F602B46FFF71DFC0120A8402168CC2288509B
S31508000F70A0650020B0BD206E08210143216601202E
S31508000F80B0BD01204102226E0A432266B0BDB0B54B
S31508000F905C22825C521E012A10D80A68002A13D0E5
S31508000FA00D1D3CCD496964072C43406CD200145092
S31508000FB010189A070A4342600020B0BD016E02224B
S31508000FC00A4302660120B0BD0D1D3CCD49699B0749
S31508000FD0E4061C432B0423430B43006C91000B507F
S31508000FE00020B0BD70B55C24045D012C0FD1049CB3
S31508000FF00068802545593F26B543090196000E43EA
S315080010005A00324322432A438030002104E0016E0D
S3150800101004220A43603001210260084670BD806DD3
S3150800102070470068402901D0983000E09030016888
S315080010300F20084070470000F0B582B05C24045DBC
S31508001040022C0BD10468803440290DD125692D075F
S3150800105012D02569ED011BD400251CE0016E08227B
S315080010600A430266012170E0A5692D070AD0A56921
S31508001070ED0118D4002519E001210A02036E134375
S31508001080036662E001210A02036E134303665CE00D
S315080010902568AD05ED0F01912469A405A40F611912
S315080010A00446483409E02568ED05ED0F0191A46969
S315080010B0A405A40F611904464C34482500914D43F4
S315080010C02768E9590126B4070C405460EC592049B1
S315080010D001D00C4001E0E1004C0D1460E9591C4CAC
S315080010E0641C0C409460E959F4070C401461ED192E
S315080010F0A988D161E9880F270F40D7606968340548
S315080011000C405461696874050C409461E9797F2440
S315080011100C4014626968C90F5162002F09D008355E
S3150800112000240C4E295D1955D168715C641C8C42EB
S31508001130F8D3006894300199402903D100990160D9
S31508001140002102E0009981600021084602B0F0BD46
S31508001150FFFFFF1FCC280008F0B583B000281CD07D
S31508001160044606465C363078002804D100207070A4
S31508001170204600F0C4F8206881691027B9438161C8
S3150800118000F074F9054620688169090708D500F05A
S315080011906DF9401B0B28F6D313E0012003B0F0BD10
S315080011A08169012202921143816100F05FF90546C7
S315080011B020688169C9070AD100F058F9401B0B2835
S315080011C0F6D3216E012001432166032186E0816959
S315080011D002220A4382614349884202D16168424A2F
S315080011E01160217C491E4A1E91418901826940236A
S315080011F09A4351188161617C491E4A424A419103CA
S31508001200029DAA038369934359188161A17C491EEB
S315080012104A1E914109032A03836993435918816138
S3150800122003210902836901918B43A16800910B434D
S3150800123083618369A425AB4383610369BB43036167
S31508001240E368002B13D0022B0DD0012B02D1836942
S3150800125004250AE0816980250D43856105693D43BA
S315080012600561032B03D1836920251D4385617F23EF
S315080012705B066569A769E169226A7F06FF18FF238D
S31508001280DB430902C9183943521E0A432904174D7C
S3150800129049191143C1610199009A8A4212D1616ABA
S315080012A0A26A0092E76A226B0192090449193D0273
S315080012B0EB18009A521E1A43019B1B01103B13435D
S315080012C00B43C360C0214258E36B13434350204687
S315080012D0FFF72EFA00202066A0650299317003B048
S315080012E0F0BDC04600640040006500400000FFFFF6
S315080012F00068C82280580840411E884170477047D8
S315080013005C21415C01290CD101465C3102220A703C
S3150800131001688A6901239A438A61002101660846A1
S315080013207047016E04220A430266012070470000D6
S31508001330F0B583B00546414C2078012802D1022039
S3150800134003B0F0BD029100276760012020707D2060
S31508001350C6003046FFF7ACFA00282AD129680429C6
S3150800136006D16868FFF75EFA3046FFF7A1FA20E073
S315080013700197F943029A1160AF68E968C9198F4263
S3150800138011D268683946FFF755FA3046FFF790FAE2
S31508001390002806D1A968EA6851187F1C8F42F0D345
S315080013A001E002990F6026490A6802239A430A60F7
S315080013B0019F277003B0F0BD80B57D20C000FFF700
S315080013C077FA0120C0071E490A6802430A600868BE
S315080013D0C043C00F80BDC046F0B585B00F46174E56
S315080013E03178012902D1022005B0F0BD029303929B
S315080013F0049000257560012030707D20C4002046C9
S31508001400FFF756FA002816D101950498012805D148
S315080014103846039A029BFFF721FA03E038460399F8
S31508001420FFF728FA2046FFF743FA05490A68049B9E
S315080014309A430A60019D357005B0F0BD0C06002080
S31508001440142002400648C168002901D400207047CC
S315080014500449016004490160C068C00F7047C0466E
S315080014600820024023016745AB89EFCD80B500F01F
S3150800147051FE80BDB0B5012420028C490A6802439A
S315080014800A600025284600F009F8002801D0204601
S31508001490B0BD00F04FF82C462046B0BDB0B50546A5
S315080014A00E4801780124002916D07D20C00001F0DD
S315080014B0E2F801460A48006801F0DDF800F08EF807
S315080014C0032D09D8002807D10024E04329462246DF
S315080014D000F080F8034805602046B0BD05000020EE
S315080014E0000000200800002010B500F0B3F900F055
S315080014F04BF9364800F0DCF8354800F0D9F80520F5
S31508001500000700F0D5F80124200300F071F8600404
S3150800151000F06EF8042000F07BF9022000F078F95C
S31508001520204600F075F9200700F062F800F074F81C
S3150800153010BDC046F0B587B000F07CF80125280735
S3150800154000F05CF800F022FB284600F067F902205C
S31508001550009000F063F9042000F060F9680400F0D8
S315080015604DF8280300F04AF80024059404940394DF
S315080015700295202001900520070701AE384631461E
S3150800158000F0B8F800F000F9059402946803019099
S315080015900E48314600F0AEF8069505940494039477
S315080015A0009D02950C2001903846314600F0A2F8BD
S315080015B00320069005940494039002950002019076
S315080015C00348314600F096F807B0F0BD0008005011
S315080015D00004005080B501F027F880BD80B500F002
S315080015E04DFD80BD80B5FFF745FF00F05BFD80BD72
S315080015F008490A6882430A607047C04681B00549AF
S315080016000A6802430A60096801400091009801B01F
S315080016107047C0463C1002401348016801229143B6
S31508001620016070470120C0020F490A6882430A60B8
S315080016307047C04681B00C48016801221143016019
S31508001640006810400090009801B0704781B00120F2
S31508001650C00205490A6802430A6009680140009108
S31508001660009801B07047C046401002400120C002F1
S3150800167006490A6802430A607047C0460120C0024C
S3150800168002490A6882430A607047C0463010024021
S3150800169006480168072008407047C04603480168A5
S315080016A002220A4305218A4302607047002002404D
S315080016B010B50B21090740180A21C84105280AD880
S315080016C0800006A10C58204600F0B6F8204600F027
S315080016D0B9F8002010BD012010BDC0460100000069
S315080016E002000000040000000800000010000000CE
S315080016F020000000F0B581B005460868002833D000
S315080017000C4600270EE062692846314600F04CF880
S3150800171062682846314600F059F87F1C2068014661
S31508001720F94021D00126BE400640F6D06068401E2A
S31508001730012809D8A2682846314600F05FF8E26811
S315080017402846314600F04BF822692846314600F013
S315080017504CF860680228DBD1FF2ED4D86269284687
S31508001760314600F017F8D3E7002001B0F0BD0000BD
S31508001770024800688004C00F7047C0461008005031
S315080017800348202101607047014820210160704705
S3150800179028000050494349434A430F234B43016AF3
S315080017A09943114301627047090A494349434A4329
S315080017B00F234B43416A9943114341627047000026
S315080017C001482021016070471800005049434A43E8
S315080017D003234B43016899431143016070474A4309
S315080017E043688B4313434360704749434A43032383
S315080017F04B43C16899431143C160704749434A4303
S3150800180003234B4381689943114381607047000065
S3150800181008490A6882430A607047C04681B005498C
S315080018200A6802430A60096801400091009801B0FD
S315080018307047C0463410024005490A6802430A60E8
S315080018407047C04602490A6882430A607047C04624
S3150800185024100240F0B581B000F0E4F800F0F2F888
S315080018600128FBD100F0FAF8AD4D0024AC60012642
S3150800187037022F6000F0D0F80028FBD12F6000F067
S3150800188043F90028FBD13003E860AC61E0432862E5
S31508001890204601B0F0BDC0460F200102B2480068DC
S315080018A00840704707200103AF48006808407047A2
S315080018B007200103AC4800680840704710B500F0DF
S315080018C027F801214A0290420ED00902884211D116
S315080018D000F01AF90024012813D100F00DF90128A7
S315080018E00FD100F0C3FA10BD00F096F801280AD00F
S315080018F0002010BD00F0A4FA00F084FA00F092FA75
S315080019000446204610BD014810BDC04600127A00A4
S31508001910904909680840704793480168382008408C
S315080019207047C04690480168382008407047C0464E
S3150800193010B5044600F084FA206000F063FA60608F
S3150800194000F070FAA06010BD80B5302822D00C28AF
S3150800195010D0032840D1032000F058F828498842BF
S3150800196028D0284988423FD02749884229D100F003
S3150800197067FA80BD0C2000F049F82049401802217A
S31508001980C841032816D0022822D0012819D100F010
S3150800199057FA80BD302000F039F81649401804215E
S315080019A0C841032806D0022818D0012809D100F01A
S315080019B047FA80BD00F05EF8401E41424141C80327
S315080019C080BD00F03DFA00F01DFA00F02BFA80BD4C
S315080019D000F038F8012805D0002080BD00F032F864
S315080019E00128F9D1044880BD00F02CF80128F3D16C
S315080019F0F8E7C0460000D0FF0024F4000000F4FF1A
S31508001A000300030002000300010003005E490968A1
S31508001A100140000408437047414800688003C00F2E
S31508001A207047C046012000023D490A6802430A6021
S31508001A307047C0460120000239490A6802430A6015
S31508001A407047C046364800684005C00F7047C04614
S31508001A50334800684005C00F7047C0467F20000223
S31508001A6003490A68824301208003101808607047FA
S31508001A7004100240024800688007C00F7047C0463D
S31508001A805C1002401F480168024A0A400249511880
S31508001A90016070478C80FF1F020F0060012000065E
S31508001AA01F490A6802430A607047C04601200007BA
S31508001AB014490A6802430A607047C046114801681B
S31508001AC0702008407047C0460E4801680320084049
S31508001AD07047C0460B4800684004400E7047C04631
S31508001AE00720410607480068084070470720410755
S31508001AF0044800680840704702480068C001C00FE3
S31508001B007047C0460C100240D74800688001C00FD5
S31508001B107047C046D44800688001C00F7047C04669
S31508001B20001002400F2000020F490A6882430A602B
S31508001B307047C046072000030B490A6882430A60BB
S31508001B407047C0460320000202490A6882430A60B9
S31508001B507047C046581002400348016802220A43EB
S31508001B6005218A430260704708100240012080055B
S31508001B7005490A6882430A607047C04602480168F8
S31508001B800C22914301607047541002400320400222
S31508001B9002490A6802430A607047C04600000140CD
S31508001BA0014908607047C04600000020E048016807
S31508001BB00122914301607047DD48016801220A430A
S31508001BC00260704770B584B00D46044600F06CF8A4
S31508001BD0002801D0012648E0206825490140A86868
S31508001BE008432969014368690843E9690143216093
S31508001BF0E968204600F0B0F8A969204600F09EF88A
S31508001C0000211C48844209DCC948844216D01D4874
S31508001C10844215D01C4884420BD015E016488442ED
S31508001C2007D01648844204D0154884420CD10320B4
S31508001C3007E001A8FFF77CFE039905E00C2000E009
S31508001C403020FFF781FE01460126002909D0686881
S31508001C50002806D0EB692A680090204600F02EF886
S31508001C6000262968204600F070F8304604B070BD9A
S31508001C70F369FFEFFF4F004000500040003C014071
S31508001C800038014000480040004C00400548006804
S31508001C908006C00F7047C046024800680006C00F9D
S31508001CA07047C0461C440040016801200840704740
S31508001CB001480068C0B270472444004070B50B2A3A
S31508001CC021D81E460446049DD0B280000EA21258A2
S31508001CD00846114600F0CFFC0121C9038E420BD1FC
S31508001CE0690840004018294600F0C5FC1249014021
S31508001CF00007400F401805E069084018294600F01B
S31508001D00BAFC80B2E06070BD01000000020000006D
S31508001D100400000006000000080000000A00000099
S31508001D200C00000010000000200000004000000029
S31508001D308000000000010000F0FF000003221202EC
S31508001D40836893430B4383607047C26A0F239A43A1
S31508001D5089B21143C1627047032212034368934351
S31508001D600B43436070470000014908607047C0464E
S31508001D702844004080B5FFF703FD80BD114908805F
S31508001D807047C04610B500F0C5F90C4C216888426A
S31508001D9012D30B480178002904D000210170FFF7FF
S31508001DA0EFFC03E001210170FFF70AFD00F0B2F92C
S31508001DB0044909884018206010BDC046F400002078
S31508001DC0F10000200406002080B5FFF785F80028FA
S31508001DD002D0FEF71BFE80BD002080BD80B5FEF751
S31508001DE033FE80BD80B5FEF7A3FF80BD80B5FEF744
S31508001DF0A1FF80BD80B5FEF7DFFF80BD80B5FEF789
S31508001E00EDFF80BD10B50446FFF746FD80093C216D
S31508001E100140034840581F210140CC40204610BDD0
S31508001E206C28000810B50446FFF73CFD000B80003F
S31508001E30D74908581F210140CC40204610BDC0464E
S31508001E4080B5FFF769FD082804D0102804D100F0F2
S31508001E5029F880BD244880BD034800688004410FE6
S31508001E602248C84080BDC04600100240B0B5FFF702
S31508001E702BFE032801D01D4D00E01B4DFFF72AFE5F
S31508001E8004466C43FFF71AFE0009411C204600F081
S31508001E90F2FB0446FFF724FE400E411C204600F0E4
S31508001EA0EAFBB0BDB0B5FFF70FFE104D032803D00F
S31508001EB02946022804D002E00B49022800D00D4624
S31508001EC0FFF708FE04466C43FFF7F8FD0009411CBE
S31508001ED0204600F0D0FB0446FFF708FE400F411CE1
S31508001EE0204600F0C8FBB0BD00127A000024F400BA
S31508001EF010B588B0002407940694059404940394B6
S31508001F00029401940094FFF751FE079406940C205E
S31508001F100590049403940294E12000020190009431
S31508001F2003486946FFF74EFEFFF746FE08B010BDA8
S31508001F300044004010B50446FFF7A8FE002804D068
S31508001F40FFF7B6FE2070012010BD002010BD00006E
S31508001F50F0B581B00546244E307800281DD00C46D1
S31508001F6024480778214EB819401CFFF7E3FF0128DB
S31508001F702AD1781C1F4F38703178C2B28A422FD1C5
S31508001F803870711C2846FEF796FB00201649087023
S31508001F9038782070012001B0F0BD144C2046FFF7B8
S31508001FA0C9FF01460020012918D12178491E802938
S31508001FB014D800F0AFF80E4908600E4900200870E2
S31508001FC00121317001B0F0BD00F0A4F80849096894
S31508001FD0C831884204D900200349087001B0F0BD11
S31508001FE0002001B0F0BDC0467C010020F8000020AA
S31508001FF0800100207D01002010B5FFF7B5FE00F036
S3150800200089F804460A34FFF747FE002805D1FEF78B
S3150800201042FB00F07FF8A042F5D910BDB0B50C46DA
S3150800202005464808412803D309A08121FEF7E9F8A7
S315080020302046FFF7E1FF002C08D0FEF72CFB287896
S31508002040FFF7DAFF641E6D1C002CF6D1B0BDC04642
S315080020502E2E2F2E2E2F2E2E2F2E2E2F536F75729D
S3150800206063652F41524D434D305F53544D333247CC
S31508002070302F72733233322E63000000B0B5401E23
S31508002080010E01D00120B0BD4C4D68600024E0432C
S31508002090032100F0C9FAAC60072028602046B0BDCD
S315080020A07047000080B5FFF7F9FAFFF7F1FA022842
S315080020B003D013A06921FEF7A4F8FFF7BBFCFFF7CE
S315080020C0C7FC0128FBD1FFF7DDFCFFF7E7FCFFF7AC
S315080020D0EDFCFFF71FFD0128FBD1FFF723FDFFF7F6
S315080020E03BFDFFF71FFC1028FBD1FFF723FD074830
S315080020F0FFF756FDFFF742FDFFF724FD80BDC046FA
S315080021002E2E2F6D61696E2E6300000000879303E3
S315080021107047000080B500F055F83748006880BD64
S31508002120F0B581B0FFF722FDFFF790FA154804686D
S31508002130FFF7BEFB0090144D2E46143EFFF7B8FB82
S31508002140012737601149A9610028384600D00220C6
S315080021500099090B89000E4A51581F220A40D4409B
S3150800216044430C49204600F086FA401E68612868F8
S315080021703843286020480021016028691C490880E6
S3150800218001B0F0BD00000020142C0140FFFF000044
S31508002190AC280008A086010080B5FFF767FAFFF7AC
S315080021A06DFAFFF73FFA054800210160416081603A
S315080021B0012040060249086080BDC04610E000E0E4
S315080021C004ED00E070B50A4D2E880A480068801BA9
S315080021D080B264280AD36424214600F04CFA0649E2
S315080021E00A6812180A604443A019288070BDC046C0
S315080021F002060020242C014008060020B0B582B053
S31508002200BE4CFF21217000250195001D00F057F9ED
S3150800221001468820205801AA00F03BF90120607089
S31508002220019800F0F5F9862008212152658002B050
S31508002230B0BDC04610B500F0DBF98120EF4C012196
S3150800224021540020A0700A482080FEF77BF9E07030
S31508002250FEF786F92071FEF783F986210822625275
S31508002260FF210231E180000A6071FFF7BFFD10BD52
S31508002270FF10000010B58120EA4C0021215400F01F
S31508002280B7F9862001212152FF20207010BDC046D3
S3150800229010B58820E34C05492150FF20206007200F
S315080022A000F0B6F986200821215210BD5A2A0008E6
S315080022B08620DC4906220A52FF20088000208880F2
S315080022C0C8708220085C88707047C04670B504469E
S315080022D04578FEF737F9801EA84203DA222000F077
S315080022E08FF970BD8620CF4D01212952FF20287015
S315080022F0617800290BD08826A859A21CFFF77EFD15
S31508002300002809D0A85961784018A85103E0FFF7BA
S315080023105BFD002800D070BD312000F071F970BD5A
S31508002320B0B58821BF4D6C58001D00F0C8F80146AD
S315080023302046FFF753FD002805D0862001212952A3
S31508002340FF202870B0BD312000F05AF9B0BDC04654
S31508002350F0B581B004468826B24FBD59FEF7F2F8AB
S31508002360621C411E2846FFF749FD00280CD0FF20B5
S315080023703870FEF7E7F8862101227A52B9594018D3
S31508002380401EB85101B0F0BD312000F039F901B056
S31508002390F0BDC04680B5312000F032F980BD00009E
S315080023A010B5FEF799F981209E4C0021215400F0C2
S315080023B01FF9862001212152FF20207010BDC0463A
S315080023C0B0B5984C0025A570FF202080FEF7BAF816
S315080023D0862107226252A571A580E070B0BDC0466D
S315080023E010B5904CFF212170001D00F068F8882177
S315080023F0605086200121215210BDC04670B50446A2
S315080024004578FEF79FF8A84215D9201D00F057F821
S3150800241001468826834DA8516278681CFEF74BF959
S31508002420A85961784018A8516078401C86216852DE
S31508002430FF20287070BD222000F0E2F870BDC0466B
S3150800244080B5002000F0DCF880BD000070B50446B9
S315080024504578FEF777F8A84211D98826714DA9590B
S315080024606278681CFEF727F9A85961784018A851C0
S315080024706078401C86216852FF20287070BD222093
S3150800248000F0BEF870BDC04680B5202000F0B8F850
S3150800249080BDF0B581B0144600290CD00D4606461D
S315080024A0002730783818C7B2761C6D1EFEF7F3F889
S315080024B0002DF6D100E00027276001B0F0BD0178B5
S315080024C0427812025118827812048918C0780006D8
S315080024D0081870478120534900220A5486200A5258
S315080024E088200A508131CA708A704A707047C0467F
S315080024F081204C49085C411E884170472806002007
S31508002500B0B50178FF2913D1FFF794FE8424454D11
S31508002510285D012802D1102000F072F88620285E76
S31508002520012800DA2EE00121295500F075F829E086
S3150800253081223C4B9A5C012A24D1C939352922D8F3
S315080025407944097949008F441A1E1E221E1E252821
S315080025502B2E1E1E1E1E1E1E1E1E1E1E1E1E1E1E70
S315080025601E1E1E1E1E1E1E1E1E1E1E1E1E1E1E1E7D
S31508002570311E3449373A1E1E1E3D1E404346FFF79C
S31508002580E7FEC3E7B0BD202000F03AF8BEE7FFF744
S3150800259001FFBBE7FFF704FFB8E7FFF797FEB5E7CC
S315080025A0FFF7BEFEB2E7FFF70BFFAFE7FFF76CFFDB
S315080025B0ACE7FFF723FEA9E7FFF748FFA6E7FFF713
S315080025C00FFFA3E7FFF764FEA0E7FFF739FF9DE7D4
S315080025D0FFF76EFE9AE7FFF74DFE97E7FFF70EFF48
S315080025E094E7C04684200F4900220A547047C04623
S315080025F082200C4900220A547047C046280600204B
S315080026008621084A022353525070FE2010707047E4
S31508002610044948607047C04680B581B20148FEF754
S3150800262017F880BD28060020002805D40322034693
S3150800263093430C4A9A1806E00F220240083A0323ED
S315080026409A43074BD2188007C00E8901C9B2814048
S31508002650FF23834010689843084310607047C046BC
S315080026601CED00E000E400E0FEF7BCFFFDF700FE0D
S31508002670FDF70CFEFCE743088B421AD30022030938
S315080026808B4279D3030A8B425ED3030B8B4242D328
S31508002690030C8B4227D30902FF2212BA030C8B4282
S315080026A002D31212090203D0030B8B4233D31AE06A
S315080026B0D3E0411A8041401C704703460B4371D44E
S315080026C043088B42F5D3002203098B4254D3030AED
S315080026D08B4239D3030B8B421DD3030C8B4202D397
S315080026E094466EE0090AC30B8B4201D3CB03C01A8A
S315080026F05241830B8B4201D38B03C01A5241430BC1
S315080027008B4201D34B03C01A5241030B8B4201D3B0
S315080027100B03C01A5241C30A8B4201D3CB02C01A1B
S315080027205241830A8B4201D38B02C01A5241430A93
S315080027308B4201D34B02C01A5241030A8B4201D382
S315080027400B02C01A5241CDD2C3098B4201D3CB0129
S31508002750C01A524183098B4201D38B01C01A5241D8
S3150800276043098B4201D34B01C01A524103098B42DC
S3150800277001D30B01C01A5241C3088B4201D3CB00C7
S31508002780C01A524183088B4201D38B00C01A5241AA
S3150800279043088B4201D34B00C01A5241411A524199
S315080027A010007047CA0F00D04942031000D34042B8
S315080027B0534000229C4603098B422DD3030A8B42C1
S315080027C012D38901FC2212BA030A8B420CD389015F
S315080027D092118B4208D3890192118B4204D3890145
S315080027E037D0921100E08909C3098B4201D3CB0186
S315080027F0C01A524183098B4201D38B01C01A524138
S3150800280043098B4201D34B01C01A524103098B423B
S3150800281001D30B01C01A5241C3088B4201D3CB0026
S31508002820C01A524183088B4201D38B00C01A524109
S31508002830D9D243088B4201D34B00C01A5241411AE0
S3150800284000D201465241104663465B1000D340420F
S31508002850704763465B1000D3404201B50021004231
S3150800286001D0C9430846C046C04602BD0000000064
S31508002870000000000000000000000000000000004A
S315080028800000000000000000000000000100000039
S31508002890020000000300000004000000060000001B
S315080028A00700000008000000090000000000000002
S315080028B00000000000000000000000000100000009
S315080028C002000000030000000400000000010203EB
S315080028D004050607080C10141820304000300008BC
S315080028E00008000006000000003800080008000084
S315080028F0070000000040000800080000080000006B
S315080029000048000800080000090000000050000800
S31508002910000800000A00000000580008000800002F
S315080029200B00000000600008000800000C00000012
S3150800293000680008000800000D000000007000088C
S31508002940000800000E0000000078000800080000DB
S315080029500F00000000800008008000001000000042
S315080029600000010800800000110000000080010836
S31508002970008000001200000000000208008000002D
S315080029801300000000800208008000001400000008
S3150800299000000308008000001500000000800308FE
S315080029A000800000160000000000040800800000F7
S315080029B017000000008004080080000018000000CE
S315080029C000000508008000001900000000800508C6
S315080029D0008000001A0000000000060800800000C1
S315080029E01B00000000800608008000001C00000094
S315080029F000000708008000001D000000008007088E
S31508002A00008000001E0000002E2E2F2E2E2F2E2EA8
S31508002A102F2E2E2F536F757263652F41524D434DDE
S31508002A20305F53544D333247302F63616E2E630047
S31508002A302E2E2F2E2E2F2E2E2F2E2E2F536F7572B3
S31508002A4063652F41524D434D305F53544D333247E2
S31508002A50302F666C6173682E63004F70656E424C4A
S31508002A6054000000882A000800000020100000001A
S31508002A7000010008982A000810000020A80C000091
S31508002A801C010008000000000024F40006010000F4
S30D08002A9004000000000000002C
S705080000BD35
