S315080000009812002089010008910100089301000850
S3150800001095010008970100089901000800000000F2
S315080000200000000000000000000000009B0100081E
S315080000309D010008000000009F0100088D0F0008C0
S31508000040A3010008A3010008A3010008A3010008F2
S31508000050A3010008A3010008A3010008A3010008E2
S31508000060A3010008A3010008A3010008A3010008D2
S31508000070A3010008A3010008A3010008A3010008C2
S31508000080A3010008A3010008A3010008A3010008B2
S31508000090A3010008A3010008A3010008A3010008A2
S315080000A0A3010008A3010008A3010008A301000892
S315080000B0A3010008A3010008A3010008A301000882
S315080000C0A3010008A3010008A3010008A301000872
S315080000D0A3010008A3010008A3010008A301000862
S315080000E0A3010008A3010008A301000800F002F814
S315080000F000F03AF80AA090E8000C82448344AAF17A
S315080001000107DA4501D100F02FF8AFF2090EBAE877
S315080001100F0013F0010F18BFFB1A43F0010318472D
S315080001202037000040370000103A24BF78C878C14D
S31508000130FAD8520724BF30C830C144BF04680C60DF
S31508000140704700000023002400250026103A28BF27
S3150800015078C1FBD8520728BF30C148BF0B6070472B
S315080001601FB51FBD10B510BD00F009F91146FFF700
S31508000170F7FF02F04DF800F027F903B4FFF7F2FF96
S3150800018003BC00F02FF900000948804709480047DA
S31508000190FEE7FEE7FEE7FEE7FEE7FEE7FEE7FEE729
S315080001A0FEE7FEE704480549054A064B7047000086
S315080001B08F0F0008ED000008980C00209812002008
S315080001C0980E0020980E0020B2F120030AD5C2F13D
S315080001D0200320FA02F001FA03F340EA030021FAA9
S315080001E002F1704721FA03F04FF00001704710B58D
S315080001F0431C02E010F8011B71B18107FAD14FF0D8
S31508000200013202C88C1A8C4314EAC211F9D0C01AFA
S315080002100A0603D0C01E10BDC01A10BD0A0401D0BC
S31508000220801E10BD0902FCD0401E10BD032A40F2F4
S31508000230308010F0030C00F0158011F8013BBCF17A
S31508000240020F624498BF11F801CB00F8013B38BF92
S3150800025011F8013BA2F1040298BF00F801CB38BFA0
S3150800026000F8013B11F0030300F05780083AC0F08C
S31508000270088051F8043B083A51F804CBA0E8081066
S31508000280F5E7121D5CBF51F8043B40F8043BAFF399
S315080002900080D20724BF11F8013B11F801CB48BFF3
S315080002A011F8012B24BF00F8013B00F801CB48BF29
S315080002B000F8012B704702F0FF0343EA032242EAE3
S315080002C0024200F002B84FF0000200B51346944609
S315080002D09646203922BFA0E80C50A0E80C50B1F190
S315080002E02001BFF4F7AF090728BFA0E80C5048BFA4
S315080002F00CC05DF804EB890028BF40F8042B08BF42
S31508000300704748BF20F8022B11F0804F18BF00F83D
S31508000310012B704770477047704710B5203AC0F0F8
S315080003200B80B1E81850A0E81850B1E81850A0E8BA
S315080003301850203ABFF4F5AF5FEA027C24BFB1E853
S315080003401850A0E8185044BF18C918C0BDE8104096
S315080003505FEA827C24BF51F8043B40F8043B08BF9F
S315080003607047D20728BF31F8023B48BF11F8012B66
S3150800037028BF20F8023B48BF00F8012B7047754696
S3150800038000F02CF8AE4605006946534620F00700F3
S31508000390854618B020B5FFF705FFBDE820404FF0A9
S315080003A000064FF000074FF000084FF0000BAC4670
S315080003B0ACE8C009ACE8C009ACE8C009ACE8C009BB
S315080003C021F007018D46704710B50446AFF300804B
S315080003D02046BDE81040FFF7D0BE00000048704731
S315080003E05000002001491820ABBEFEE72600020097
S315080003F0704700F0BCF8FCE710B500F06BF8012870
S315080004000CD0184C2078012808D100F0C1FDD4E999
S315080004100112114401F5FA71884200D210BD00207C
S315080004202070BDE8104000F0BBB800BF0D4840681A
S31508000430704700BF80B50B480121017000F004F831
S31508000440BDE88040FFF7D8BF10B5064C20780128D4
S3150800045002D100F09DFDA06010BD00BF01494860B3
S31508000460704700BFB800002080B500F084F800F09F
S3150800047079F800F093FD00F01BFD00F01DF8BDE8CB
S315080004808040FFF7D7BF80B500F071F800F0DEFDB9
S3150800049000F028F8BDE88040FFF7AEBF80B53048C9
S315080004A00021417000F048F8BDE8804000F0F0BD3A
S315080004B03F2070473F20704710B5294C00206070D8
S315080004C000F03AF800F082FE00F0ECFD0120207002
S315080004D010BD00BF80B500F081FE002818BF0120BE
S315080004E080BD0000BCB51E4D0DF1070105F10800E1
S315080004F000F008FE01280BD140F201102C4624F822
S31508000500080B00F019F89DF80710204600F06EFE5B
S31508000510FFF7E0FF01280DD1687858B100F038FDE3
S315080005206968401A41F28831884203D3002068700E
S3150800053000F002F8BCBD00BF80B500F029FD0849EF
S31508000540486080BD80B5064A1278012A02D1C9B230
S3150800055000F010FE00F06AFFBDE88040FFF7ECBF30
S31508000560C4000020AFF30080642000F071BCAFF334
S31508000570008000F071BCAFF3008072B6704762B6B7
S31508000580704770B514460D460646200408BF70BD70
S3150800059015F8010B013C06F8010BFFF7E8FFF4E735
S315080005A010B500F087FCB8B100F01CF8A0B1FFF751
S315080005B075FF00F0D3F900F02BFD00F077FC074932
S315080005C008400749086000F071FC4468FFF7D7FF48
S315080005D02046BDE81040004710BD00BF80FFFF1F42
S315080005E008ED00E080B505480068C00704BF002094
S315080005F080BD00F027FC012080BD00BF080801402F
S3150800060020480021C1610C48016841F004010160DD
S31508000610016841F040010160704700BF1949002296
S31508000620CA6105490A6842F002020A604860086819
S3150800063040F04000086070471020024026480168D4
S31508000640C90601D4002105E0ED49CA6942F0020253
S31508000650CA6110210268520706D5E94A41F0040129
S31508000660D36943F00103D3610269D20708D0E44A8B
S31508000670D36943F00403D361026922F001020261DF
S315080006800160704748080020F8B5134E044600F08C
S315080006901FFA0546671C3068C00709D0002FFAD034
S315080006A024B100F015FA401BA042F4D90320F8BD86
S315080006B03068800644BF202030603068C00607D402
S315080006C03069C00704D1306840075CBF0020F8BD18
S315080006D0FFF7B4FF0120F8BD0C2002402DE9F843CE
S315080006E0814640F2FF101C461546884621EA000757
S315080006F0D9F80000411C06D14846394600F08EF864
S3150800070048B3D9F80000B84206D04846394600F042
S3150800071095F800B307688146A8EB07004844071D0B
S31508000720A7EB0900061FFFF722FFB6F5007F09D3DE
S31508000730D9F8000000F50071484600F07FF850B17E
S315080007408146071D15F8010B013C07F8010BE7D197
S315080007500120BDE8F8830020BDE8F88380B57D4810
S315080007600068013003D07B4800F0B6F848B1594814
S315080007700068013003D0574800F0AEF808B10120F0
S3150800078080BD002080BD00BFF0B585B04F4A00246B
S315080007904D1E0494131A9D4233D840F2FF334C4C35
S315080007A020EA0303A34201D200242AE005440024D8
S315080007B0954226D86FF39F2002930094084401219E
S315080007C0820503914FEA902218BF01EB902297B257
S315080007D000F06AF96D4604AEA0B287420CD9FFF75D
S315080007E0C6FE2846314600F0C7F838B902980134E3
S315080007F000F580600290EFE7012400E0002400F095
S3150800080001F9204605B0F0BD3148704751484FF010
S31508000810FF3101602F480160704700BF80B5CA05E7
S315080008201CBF002080BD02688A4204D002C04FF473
S315080008300072FFF7A6FE012080BD000070B5454D89
S315080008400C46A8420AD006462148844207D03046BC
S3150800085000F042F8354610B9002070BD1D4D2846F7
S315080008602146FFF7DBFF002818BF284670BD00BFEA
S31508000870F0B5174890E8FE00D0F8EC00114419448A
S3150800088021442944314439440844B0FA80F04009E7
S31508000890F0BD00BFB0B50B4601460C485D1E441AB4
S315080008A0A54205D80A4CA14202D30D44854201D976
S315080008B00020B0BD40F2FF1021EA0000A0420CBFA4
S315080008C024480448BDE8B040FFF708BFFFFF010809
S315080008D000400008400400202DE9F843814600F056
S315080008E0E3F809F1040800240025B4F5007F13D0C5
S315080008F058F80460D9F800002718FFF738FE0220D8
S3150800090039463246002300F085F830B93868043491
S31508000910B042EAD0002500E0012500F073F8284629
S31508000920BDE8F8837CB50B480168013104BF012096
S315080009307CBD061DC0697ECE114419442144294454
S3150800094031440844042140420190034801AAFFF7B4
S31508000950A1FF7CBD44060020EC40000880B5EF48A6
S315080009604FF0FF310022416042600160026000F0F2
S31508000970E1F8002080BD00BF2DE9F041DFF82081B5
S315080009800546D8F81800012804BF0220BDE8F08102
S3150800099001202E680C46C8F8180000F08FFA022EBF
S315080009A00AD150B9FFF72CFE00F088FA3D490A68CB
S315080009B022F004020A6001E028B101200021C8F8EB
S315080009C01810BDE8F0814FF0FF30364F2060012047
S315080009D0A9680E46EA6801EB82218E42EED23046BD
S315080009E0FFF71CFE00F06AFA396821F00201396047
S315080009F020B9A96806F580660020EBE72660DDE7E2
S31508000A00480800202748016841F08001016000205D
S31508000A10704700BF2DE9F84FDFF884808146D8F883
S31508000A201800012804BF0220BDE8F88F01209A4665
S31508000A3093460E46C8F818004CF25030FFF724FECD
S31508000A4040BBB9F1020F4F46164C18BF0427B9F13F
S31508000A50010F08BF4F4600255FFA85F900204F456C
S31508000A6018D9C8F81C004FEA09125146206840F008
S31508000A70010020605846FFF7A7FB26F819004CF23C
S31508000A805030FFF701FE21680135002821F00101E9
S31508000A902160E1D00021C8F81810BDE8F88F00BF22
S31508000AA048080020102002400648C16809065CBFB5
S31508000AB0002070470449016004490160C068C0F31A
S31508000AC0C01070470420024023016745AB89EFCD6B
S31508000AD000F05EBA80B50748016841F01001016070
S31508000AE0032000F0B7F8002000F006F800F046F8FA
S31508000AF0002080BD0020024070B50D4E04464FF41C
S31508000B007A717068B1FBF0F0CD490968B1FBF0F075
S31508000B1000F0B2F801250F2C08D838B94FF0FF308D
S31508000B2021460022002500F06FF83460284670BD83
S31508000B300000002010B500F053F90F4C04F50060D2
S31508000B4000F0C8F8204600F0C5F86148416821F46D
S31508000B5000014160016821F010010160016821F07F
S31508000B6004010160416821F080514160016821F06B
S31508000B700101016010BD00BF000801402DE9F04FDA
S31508000B8085B01D4C01204FF00109A0474FF0805059
S31508000B9000F084F804204FF00408A0471020A0476E
S31508000BA04FF4000000F07AF8144F154C6D46154EB8
S31508000BB04FF0000A4FF0020B2946CDF80CA0CDE9FC
S31508000BC0019B07F1081000902046B0474FF480506B
S31508000BD0294620612046CDF80CA08DE8800AB0474A
S31508000BE040F201102946CDF804800090A4F5006073
S31508000BF0B04705B0BDE8F08FB90C00080800080436
S31508000C0000100140350D0008F0B5184B4FF0FF36BF
S31508000C101C68C4F30224E51E84F0070438BF0025C7
S31508000C2006FA05F7BA43042C28BF042406FA04F486
S31508000C30A14300F00F04A940043C11432344044A8D
S31508000C4009010C33B0F1FF3FC8BF83181970F0BD16
S31508000C5000E400E005494FF6FF030A681A4060F30E
S31508000C600A22034810430860704700BF0CED00E0F5
S31508000C700000FA0570477047411E0020B0EB116F5F
S31508000C801CBF01207047EF4AF023516002490B70E0
S31508000C90072190601160704723ED00E081B0054997
S31508000CA00A6802430A60096808400090009801B083
S31508000CB0704700BF1C10024081B005490A6802430C
S31508000CC00A60096808400090009801B0704700BFA4
S31508000CD0181002400B4908444FEAB020042884BF84
S31508000CE0012070470D4A08A151F8201013681943CE
S31508000CF011600BA151F8200011680840106000200F
S31508000D00704700BF00F8FEBF04000000080000009E
S31508000D101000000020000000400000000C100240F7
S31508000D20FBFFFFFFF7FFFFFFEFFFFFFFDFFFFFFF01
S31508000D30BFFFFFFF2DE9F04FB1F801B040F20118EF
S31508000D404FF001194FF00F0A4FF0030C4FF0040E45
S31508000D509BFAABF3B3FA83F33BFA03F43DD0E4070B
S31508000D6039D0B3F1080409FA04F444F0806538BFB1
S31508000D7008FA03F54C68082C0CD12A0AC7680E69CC
S31508000D8092FAA2F2B2FA82F227EA152706FA02F2D4
S31508000D903A43C2602F0E95FAA5F5B5FA85F53A5885
S31508000DA0AD000AFA05F6AC40B24314433C504A6813
S31508000DB042F00802092A0ED10CFA05F224EA0202C8
S31508000DC08C68AC4022430EFA05F4C251A243CC68A3
S31508000DD0AC402243C2510133BEE70020BDE8F08F84
S31508000DE01448016841F00101016001688907FCD5D2
S31508000DF0416821F003014160416811F00C0FFBD1F5
S31508000E00016821F08071016001688901FCD4002124
S31508000E1010234160026822F450220260026863F3DC
S31508000E20C70202608160416A41F080714162002018
S31508000E30704700BF0010024071490860704700BF44
S31508000E404800002090484FF480510160704700BF69
S31508000E500F494880704700BF10B500F099F80C4C50
S31508000E606168884212D32178874829B10021217008
S31508000E704FF48051016004E0012121704FF4805144
S31508000E80416000F085F861880844606010BD00BFC5
S31508000E90B000002080B5FFF745FD18B1BDE88040D9
S31508000EA0FFF75CBC002080BDFFF76EBCFFF7ACBC4B
S31508000EB0FFF7ACBCFFF7DCBCFFF7ECBC4CF25030DC
S31508000EC0FFF7E2BBFF203070201D00F07DB94870A7
S31508000ED002F0FD00B2886FF3DF22A2F50072B2FAC3
S31508000EE082F2520940EA42000870284670470020FC
S31508000EF0C1E900008860F0BD5846DBF80000C0076D
S31508000F007047BFF34F8FBFF36F8F704790F830105D
S31508000F1001F0FD0180F8301090F8301001F0FE0164
S31508000F2080F830107047BFF34F8FBFF36F8FB0BD97
S31508000F30DBF800005946C007704701F00F0004EBC4
S31508000F40400000EBD11414F8300FC0077047207822
S31508000F5000F0FE002070207800F0FB00207070473B
S31508000F609DF800009DF80110424601F099BD7C6885
S31508000F708DF801002878B8F1000F8DF80000704749
S31508000F8041680120084741680020084770477047B4
S31508000F9080B500F05BF83648406880BD18B517483C
S31508000FA00124416941F400614161416901F400612C
S31508000FB0009100991249096802680368114804609B
S31508000FC04FF6FF74C2F3C222C462022413F4605FB0
S31508000FD00D4B08BF01249A5CD1400C4A6143B1FB12
S31508000FE0F2F1002201398162416941F00101416152
S31508000FF01F494A60406A088018BD00BF04100240B5
S3150800100048000020002C0140CE360008A0860100CA
S315080010100B48016841F400610160016821F4006130
S315080010200160C16821F40061C160064800210160C1
S315080010304160816004484FF000710160704700BF4D
S315080010400C10024010E000E004ED00E00848094AF0
S3150800105001881268521A92B2642A08D36423B2FB32
S31508001060F3F202FB031101804168114441607047A5
S315080010700C010020242C0140012803494FF400608C
S3150800108014BF0860486070471010014070470000A0
S3150800109080B501F0FDFC0F480F490160BDE88040AE
S315080010A0FFF7E8BDE0B50B480B490160FFF7E3FD24
S315080010B000206946019001200090002001F0F6FC0E
S315080010C0FFF7B4F900097C2803D84FF4FA60FFF754
S315080010D0C5F98CBD6C080020005C0040704710B54F
S315080010E00446002002F0A4F848B100202146012257
S315080010F002F0A8F80138B0FA80F0400910BD0020C7
S3150800110010BD0000F8B5054600200C4600F0E0FCCE
S315080011104FF0FF30002101F035FD154F7878B8B152
S31508001120387838440330FFF7DAFF01281CD13878BD
S31508001130B97800260130C2B238708A4215D1F91C36
S315080011402846FFF71EFA38787E70012620700CE0D4
S31508001150B81CFFF7C4FF012806D1B87801383E2825
S315080011609CBF4FF48070388000263046F8BD00BF1B
S31508001170140100201CB5044640298DF8071003D336
S3150800118010488D21FFF735F90DF1070100200122DE
S3150800119002F064F8012803D00A489121FFF729F9DB
S315080011A09DF807200020214602F058F89DF8071000
S315080011B0884203D003489421FFF71BF9002002F068
S315080011C05BF81CBD0E380008006870479A48002175
S315080011D0A0F844108164C0F83F107047964890F80C
S315080011E03F00002818BF0120704700BFF8B5044625
S315080011F00078FF2826D1904C0120A4F83F00002053
S31508001200A07041F2FF002080FFF752F9E070FFF767
S3150800121051F92071FFF74EF90821000AA4F8441085
S3150800122040F201116071E180FFF742FE824890F8B2
S315080012304210012928D1022141F2FE02A0F84410E9
S31508001240028025E07C4E96F83F10012928D1A0F1AE
S31508001250F1010D2925D8DFE801F04141074752651C
S315080012604141416941737894FFF72CFEB76C0446F7
S315080012700025002C00F0768017F8010B013C284465
S31508001280C5B2FFF774F9F4E7B0F94410012907DB92
S31508001290012289B280F84220BDE8F840FFF752B92A
S315080012A0F8BDC938092819D8DFE800F0051818B7B5
S315080012B018186974808DB56CFFF7FAF8411E621C20
S315080012C02846FFF7F9FD002800F08A80FF203070D5
S315080012D0FFF7EEF8B16C0844013825E00220A6F8BD
S315080012E0440042F2FE009DE06578FFF7E1F8A84267
S315080012F042D9201DFFF768FF0146B06405E065780E
S31508001300FFF7D6F8A84237D9B16C6278701CFFF798
S3150800131038F96078B16C0844B064FF2030706078A2
S31508001320013061E0FFF7CEFDB0644AE03E4808218F
S31508001330A6F844100721B064FF20C6E9000175E746
S315080013400220A6F84400FE206CE0FF20308006202C
S31508001350A6F8440000207071A6F8030096F840002D
S31508001360B07063E7012100203571A6F80110082145
S31508001370F071A6F805002FE042F2FE2032E0FFF7F2
S315080013800FF90020A6F83F000120A6F84400FF2028
S3150800139030704BE76578FFF78BF80238A84226DAF3
S315080013A00220A6F8440042F2FE203BE0B56C201D60
S315080013B0FFF70AFF01462846FFF776FD80B1FF20B2
S315080013C03070012010E00024FF20B4703080FFF751
S315080013D06FF80721B471B480F070A6F8441025E7B9
S315080013E043F2FE1030800220A6F844001EE70120D2
S315080013F0A6F84400FF206178307049B1B06CA21C91
S31508001400FFF75AFD48B16078B16C0844B0640DE73F
S31508001410FFF740FD00287FF409AF0220A6F8440034
S3150800142043F2FE10308001E73638000802480021F2
S3150800143080F84210704700BF480B002070B5D41AD8
S31508001440858838BF04EB4504260417D0A6B2AE42F9
S3150800145005D92B46954298BF5B42134443815A1BD4
S315080014609EB2AE421346FAD2C288036808466FF3A4
S31508001470DF3202FB06331946FEF7D8FEA0B2002873
S3150800148018BF012070BD2DE9F8438846089914460F
S31508001490064680885A1A38BF02EB400215042CD03B
S315080014A095B2854206D901469842024698BF4942F6
S315080014B0194471810B46091A9FB28742FAD2F588F8
S315080014C031686FF3DF3505FB071197B2A74238BFBE
S315080014D01446A2B2C71AB8B2824210D905FB07F061
S315080014E01FFA80F940464A46FEF7A0FEE11B08EBC4
S315080014F0090069438AB2316803E0002403E06A43BD
S315080015004046FEF793FEA0B2BDE8F88311448AB2BE
S315080015108A4202D1B2EB400F01D3A1EB400188B257
S31508001520704700002DE9F041164DDFF80C8504469A
S31508001530002600276878411CC9B28F420DD287421F
S3150800154003D2A868A8B1304401E0404611D1C16869
S315080015502046884724360137ECE705F10C0034218C
S31508001560FEF7B1FE05F110002021FF22FEF7A3FECB
S3150800157003E0BA480068C00701D1BDE8F08100BEA3
S31508001580BDE8F081D001002070B5134D0446E88906
S31508001590A9890E1AB0B2402828BF402695F900003E
S315080015A0B0F1FF3F01DD002109E0300406D0A9684B
S315080015B081B105F11400B2B2FEF738FE8021B3B24C
S315080015C020461A46002B18BF05F11402BDE87040E4
S315080015D001F034BF002070BD5801002070477047E5
S315080015E008784006074807D14A78052A04D1498869
S315080015F0012262F3DF1101804FF48051A0F8C01375
S31508001600704700BF4C5C004070B501224FF4005093
S31508001610B2EBD11F08BF2020CB0901F00F015C1ED9
S3150800162018BF01240326E400251D0634A24006FA45
S3150800163005F548F68F742A4348F280052243644C20
S3150800164004EB411101EB0311564B897B33F821401A
S315080016502C43224004F4C064B4F5806F18BF42409E
S3150800166023F82120FFF74DFC70BD00BFB0B50A4A2C
S31508001670794800214FF6FF7300241C2C05D0051964
S31508001680A1520434C5F80630F7E7BFF34F8FC021DF
S31508001690BFF36F8F0180B0BD045C00402DE9F047B1
S315080016A08E78C8780F468C8800F00301304600F023
S315080016B091F8082813D23B4A054647F2700106F00E
S315080016C00F0832F820000840F978404401F0030179
S315080016D002290AD0032936D148F2806107E0D848A2
S315080016E00068C00734D000BE32E048F28001F6092F
S315080016F040EA01096FF3DF2402EB0510924686F0F3
S31508001700010100EBC107204600F0F0FBA7F8000432
S315080017104FF68F704FF40051002E18BF48F6FF7031
S3150800172018BF202181EA090108402AF8250028481F
S3150800173000EB481000EB0610857384810120FFF743
S31508001740E0FBBDE8F087BE480068C00700D000BED1
S315080017500020BDE8F08700BFB0B51D4C012001F0A0
S315080017600F034FF4805248F28005B0EBD11F4FEAC1
S31508001770D1110B4808BF102204EB431304BF48F6E7
S31508001780BF70CFF6FF7003EB0111064B897B33F868
S3150800179021402C432040504023F82100FFF7C3BBCB
S315080017A08FBFFFFF005C0040B0B5094C01F00F0089
S315080017B0C9090D0104EB4014625104EB011200241F
S315080017C054811381546000F089FC0120B0BD00BF2C
S315080017D0940B0020F0B501241F4A4FEAD01C00F0F4
S315080017E00F0584EAD01402EBD01314440020043306
S315080017F0261D08281ED013F8204044B102EB8007A6
S31508001800FC788C4214D1BC78AC4211D121E0012974
S3150800181002D116F820405CB902EB8007BC78FF2C91
S3150800182018BFAC4204D1FC78FF2C18BF8C4208D0F4
S315080018300130DEE782480068C00700D000BE0020FD
S3150800184007E0F9700CEB02010122BD7001EB800183
S315080018500A71C0B2F0BD00BFAC010020F0ED00E097
S315080018602DE9FE430546407888460238052800F2E9
S315080018709680DFE800F0030F29323C416D48017B72
S3150800188001F0FE010173017B01F0FD0101730021E6
S31508001890417327E0674FDFF8A09100260024787887
S315080018A0411CC9B28C423DD2844203D2B86840B1C9
S315080018B0304401E0484604D1026A12B169682878C2
S315080018C0904724360134EAE75A48017BC90700F0F5
S315080018D0AF80017B41F0040107E05648017BC90748
S315080018E000F0A680017B01F0FB01017357E0514827
S315080018F001780131017052E0297911F00F004ED0BC
S315080019004C4ACB0902EB4000C618537896F82000DB
S31508001910834228D99268002A41D000EBC00002EB26
S31508001920800422E0387B400761D5387B00F0FB0055
S3150800193038730020CDE901000520FFF718FB02D116
S315080019403E48FFF720FB201D694600F055FF064676
S31508001950B8F1000F02D13948FFF712FB002E41D02B
S31508001960FFF7FEFA43E01AD1334CE069B8B116F82E
S31508001970300F00F0FE003070307800F0FB00307059
S31508001980AB6828786A79E469A047002850D130788E
S3150800199040F001003070307840F00400307025487F
S315080019A0B8F1000F446802D12448FFF7ECFA201D6D
S315080019B0294600F021FF0646B8F1000F02D11F485C
S315080019C0FFF7DEFA3EB128786978424603B0BDE8EB
S315080019D0F04301F065B81A480068C00728D000BE71
S315080019E0BDE8FE8316480068C00700D000BEF87B35
S315080019F0C0071DD00320FFF7BAFA6868019002D124
S31508001A000E48FFF7C0FA201D694600F0F5FE0546A8
S31508001A10B8F1000F02D10948FFF7B2FA1DB1FFF776
S31508001A209FFABDE8FE8306480068C00700D000BEDE
S31508001A30BDE8FE83D0010020D83600083400002017
S31508001A40F0ED00E01FB50446002003900398C8286F
S31508001A5003D200BF03980130F7E719480321018034
S31508001A60002102910299C82903D200BF02990131C7
S31508001A70F7E7018821F0020101800021019101990F
S31508001A80C82903D200BF01990131F7E700210022D6
S31508001A90018001828180082A05D000EB8203013289
S31508001AA023F8401CF7E7018841F45D41018000F006
S31508001AB05DFB2046FFF792FD012004B010BD00BF74
S31508001AC0405C004070477046FFF71BFA8646704731
S31508001AD02DE9F04F8FB0EE4D4BF6FF74B5F8446024
S31508001AE0B00510D504F578500121A5F84400B5F8DD
S31508001AF048006FF3DF200D904FF44070ADF83000CA
S31508001B000CA8FFF7ADFE700500F1CA81F00417D5E1
S31508001B10B5F84000012120F00400A5F84000B5F80A
S31508001B20400020F00800A5F8400004F54050A5F84C
S31508001B3044004FF4A060ADF830000CA8FFF790FE03
S31508001B40300517D5B5F84000012140F00800A5F882
S31508001B504000B5F8400040F00400A5F8400004F540
S31508001B606050A5F844004FF48060ADF830000CA82A
S31508001B70FFF776FEF00510D5DA48017849B1012954
S31508001B8005D1B5F8402022F01002A5F84020013909
S31508001B90017004F57C50A5F8440004F58040DFF890
S31508001BA04CB640F60F7A002701960FFA80F8CDF862
S31508001BB00C80B5F94400404500F38381B5F844002C
S31508001BC000F00F0635F826905FEA094040F12181BA
S31508001BD05FEA095050D435F8260000EA0A0080303A
S31508001BE025F8260035F8261005EB061501F4C06021
S31508001BF001F00F020790B0F5806F4FF0010008BFA3
S31508001C0020EA913005EBC000B0F80474B0F800443F
S31508001C10089159460BEB421B0992DBF804006FF357
S31508001C209F27002854D0002F00F08680CDE90505AF
S31508001C300CA900F084FDBDF830A040F2FE30214624
S31508001C40BA4588BFBA460AEA00080D98BDF8325068
S31508001C504246049000F06AF9A7EB0A0081B2A9424D
S31508001C6038BF054608EB04015FEACA703AD10E98F8
S31508001C70DDF80C802A4652E005EB0610B0F80C4455
S31508001C80B0F808140AA86FF39F24224600F04EF90C
S31508001C9035F8260000EA0A008030082C25F82600C8
S31508001CA00CD1DDE90A01CDE90D014FF4C06001212F
S31508001CB0ADF830000CA8FFF7D3FDAAE09A480068F3
S31508001CC0C00700D000BE88484FF480510180A0E0CC
S31508001CD050013A460858BBF80A100844214600F055
S31508001CE025F929E0029189B20AA8022200F01EF914
S31508001CF0BDF8280004992A4601F80800030ADDF809
S31508001D000C8001210E98140407D0012905D800F883
S31508001D10013B013A01310023F5E70299023189B204
S31508001D2092B205EB0A0400F001F90598A1B200F099
S31508001D3098FC069D40F60F7A5C4634F80A0FC119DE
S31508001D4060882180874235D3BBF808208BB29A4237
S31508001D5030D9079BB3F5806F1ED0511A8AB28242DA
S31508001D6038BF084681B200F11F02013040083E29FB
S31508001D7088BF5009C0B288BF013882023E294FF495
S31508001D80004188BF41EA8022100404BF48F20002DD
S31508001D90CFF6FF72A5F80C24089943F60F70504D3C
S31508001DA0DFF848B4002708404BF28001484025F880
S31508001DB026002EE0421C00F11F01002752083E288B
S31508001DC088BF4A09D1B288BF01398A023E284FF432
S31508001DD0004088BF40EA81220121100404BF48F26E
S31508001DE00002CFF6FF72A5F80C248DF8357020880E
S31508001DF00E9009988DF834004FF4E060ADF8300085
S31508001E000CA8FFF72DFDABF80870DFF8E0B3F54D29
S31508001E1027805FEA09607FF5CCAE35F8260000EA30
S31508001E200A0000F5004025F8260035F8262002F0BD
S31508001E300F0002F4C0630BEB4011B3F5806F13D1AA
S31508001E400B4613F81F4F002C3FF4B3AE1F70012347
S31508001E5023EA921205EB061303EBC202B2F8043426
S31508001E6003F47C43A2F804340A8B4B8B9A4211D1B3
S31508001E704FF4E06180300E928DF83570ADF8301071
S31508001E808DF834000CA80121FFF7EAFC91E600BFA3
S31508001E90005C004001F11000314600F069F888E660
S31508001EA004F57050A5F8440000F060F900200121FF
S31508001EB00D904FF48070ADF830000CA8FFF7D0FCF9
S31508001EC00BE00198400408D517480068C00700D001
S31508001ED000BE4BF6FF70A5F844000FB0BDE8F08FC2
S31508001EE0005C0040680800200C600040421C00F1BD
S31508001EF01F01BD4B52083E2888BF4A09D1B24FF090
S31508001F00020288BF2022188801FB0201198089B2C3
S31508001F10B1F5007F06D904480068C00700D000BEA6
S31508001F204FF6FF70704700BFF0ED00E010B572B1D4
S31508001F308D4B03EB410153082BB131F8044B013BA0
S31508001F4020F8024BF8E7D2071CBF0988017010BDBC
S31508001F500020802100220023FFF726BC03480288C0
S31508001F6022F4007261F3492202807047405C004007
S31508001F702DE9F04F8BB00C464389018986894FF0CD
S31508001F8000098246C91A8AB2B242774A38BF0E4653
S31508001F90A2F5806838F8247007F4C065B5F5806F37
S31508001FA008BFC7F38019210141EAC90131F802B017
S31508001FB0406848B331045BD003A981E8B00108A999
S31508001FC0019000F08DFBBDF82040B0B2844288BF76
S31508001FD03446099F4FF6FE70BDF8228004EA0002D7
S31508001FE05846394600F068F8301B81B2414538BF7B
S31508001FF0804608EB0400029024F00100E10700EB9C
S315080020000B0509D10A9924E0DAF80010B2B258464D
S31508002010194400F051F82AE080B208210024385CFF
S315080020200A9F621C012A0AD85FEA084307D03B5D6B
S31508002030A8F1010814468B4008311843F1E7ADF8BA
S315080020401E00A8B20DF11E01022200F035F839195A
S315080020500235A8B21FFA88F200F02EF8029881B26B
S31508002060019800F0F5FA0DF10C0898E8B0013E4A1F
S31508002070BAF80A00B5F5806F30446FF39F26AAF8C0
S315080020800A0002EB041000EBC900818801F47C41C8
S315080020903144818004BF01208AF80F0048F2B0015C
S315080020A040F63F703840484028F82400FEF729FFDC
S315080020B00BB0BDE8F08F00BF10B572B12A4B03EB29
S315080020C0400053082BB131F8024B013B20F8044B72
S315080020D0F8E7D2071CBF0978018010BDB0B50A46DB
S315080020E04249012A01EB4010D1B200EB0110817B75
S315080020F003D1BDE8B040FFF73BBF028983894FF49F
S3150800210000449A4238BF134603F11F005A1C52086E
S315080021103E2B88BF4209D2B288BF013A90023E2BB5
S31508002120114B88BF44EA8220020404BF48F200002B
S31508002130CFF6FF70A3F5806242EA8104258843F64C
S315080021400F742C4005F4C065B5F5806F04BF03EB2A
S315080021500115A88003EB011398814BF280006040BB
S3150800216022F82100FEF7DFBE00600040F8B51D4DDD
S315080021701D4900204FF6FF72A5F84C00082805D027
S3150800218001EB80030130C3F80220F7E74024002062
S3150800219000270C800021FFF71DFB802000218026E8
S315080021A0FFF718FB1148877784838773848140205B
S315080021B0FFF79CFE04464020FFF798FEA5F8084462
S315080021C0A5F800040A494FF4805228880A8047F285
S315080021D07001084042F2202148402880A5F84C604A
S315080021E0F8BD00BF005C0040AC010020940B002045
S315080021F00C60004070B50646486914460D4601F065
S315080022004FF86B69304601212246BDE870401847F1
S31508002210FEF760FC25480222016862F302010160AC
S31508002220006800F00700022803D021A06821FEF705
S31508002230E0F8224C54F8040C40F4803044F8040CBE
S3150800224054F8040C8003FBD520681D2161F3154062
S31508002250206054F8040C40F0807044F8040C54F8DC
S31508002260040C8001FBD52068042120F0F0002060D2
S31508002270206861F30A2002212060206820F460505B
S315080022802060206861F301002060206800F00C00DF
S315080022900828FAD10A48FEF7CFFD206820F4800006
S315080022A02060FEF7E1F8FEF7EEF8FCE700200240B2
S315080022B02E2E2F6D61696E2E6300000004100240F9
S315080022C000A24A0409788022002322EA010100229A
S315080022D001F0B4B8B0B50A44914228BFB0BD4C78F5
S315080022E0052C06D18C7804F00F05E40900EB4505AA
S315080022F02B550C782144EFE70178C9070ED10178F0
S3150800230049070BD40178C90708D10178490705D4CC
S31508002310017841F0040101700120704700207047E0
S315080023200178490708D50178C90705D1017801F070
S31508002330FB0101700120704700207047012070479B
S315080023401CB50446007800F0FE000844DDE90412D6
S315080023502070009304F10800012300F090F9069814
S3150800236060600798608001201CBD70B5164605465A
S315080023700C4601F108009AB2314600F01EFA0646EC
S315080023802846214600F002F8304670BDF8B50546E5
S315080023900C460878898909B304F1080680074FF4C2
S315080023A00077304658BF402700F018FA874249D8C8
S315080023B02078C00746D16178284600F0DBFF002860
S315080023C040D0304600F00AFA874216D92078C0076E
S315080023D038D16178284601F00BF833E0C00731D1CF
S315080023E06178284600F0C6FF60B32078C00718D188
S315080023F06388617873B162680DE07942668808403F
S31508002400B04238BF06462078C00716D1617876B143
S3150800241062680DE00022284601F010F808B16688C7
S3150800242011E08A480068C0070CD000BE0AE0002206
S315080024302846334601F002F828B984480068C007E0
S3150800244000D000BE00263046F8BD00BF2DE9F8438F
S31508002450002B46D0804688891D4617460E46D0B1C1
S3150800246006F10804AAB23946204600F0ECF981467E
S3150800247030784FF40075800758BF4025204600F095
S3150800248015F9854202D9B08985422CD9404631468C
S3150800249000F02CF827E03078C00722D17178404642
S315080024A000F068FFE8B1B6F802903946A94588BF3A
S315080024B0A94670684A46FDF7B9FE3078C0070BD1C1
S315080024C05FEA0940717814BF726800221FFA89F31F
S315080024D0404600F0B3FF30B95C480068C00700D03A
S315080024E000BE4FF000094846BDE8F88370B501F113
S315080024F0080504460E46284600F0D8F820B330787A
S31508002500C00721D17178204600F034FFE0B1728807
S315080025107168284600F051F90546307800F0010048
S315080025206DB130B97268717820462B4600F086FF87
S3150800253058B946480068C00706D000BE04E018B976
S315080025407178204600F054FF0025284670BD00BF6C
S3150800255070B50D460B8A0446097800206E8A12B3B8
S31508002560B34220D1880701F0010140F2FF1058BF9D
S315080025703F201040084315D16978204600F0FAFE3E
S3150800258080B12878C00708D1697820460022002340
S3150800259000F054FF08B1012070BD2C480068C00740
S315080025A000D000BE002070BD10B5C37803F0030448
S315080025B08388032C6FF3DF2311D0022C1CD0012C47
S315080025C041D140F2FF30022908BF4FF4806098429B
S315080025D023D2F0480068C00735D000BE33E040205B
S315080025E0022908BF4FF48060984216D2E94800686D
S315080025F0C00728D000BE26E0022908D1B3F5007F1F
S315080026000BD0E4480068C0071DD000BE1BE0B3F538
S31508002610007F04D11AB140218180012010BDA3F1A9
S31508002620080081B2400340EAD10081B2082905D2E8
S31508002630C0B28B2121FA00F0C007EED1D548006858
S31508002640C00700D000BE002010BD00BFF0ED00E0BE
S3150800265010B50A46044641898088FEF757FF60810F
S3150800266010BD10B50A46044601898088FEF74EFF5C
S31508002670208110BD00214181018101207047B2F5FA
S31508002680004F0DD8B0B5049C6FF3DF3300254581A4
S3150800269082800160058164F3CF33C380BDE8B04012
S315080026A00020B2F5004F98BF012070470189428982
S315080026B08088891A38BF01EB40018AB2824228BF56
S315080026C0014688B2704701894289891A828838BFCB
S315080026D001EB4201002089B2914228BF01207047D0
S315080026E0F0B50589448982882B1B38BF03EB420362
S315080026F09EB2964206D91346AA4298BF5B425C1917
S31508002700134644811E0412D0AF1AAEB296423D4615
S31508002710FAD22546A41AAFB29742FAD20068C4196B
S31508002720BE424C6005D900200B80886005E0FEF7A4
S31508002730DEBB8860501B0880181A4880F0BDF0B5CB
S31508002740068944898288331B38BF03EB42039BB250
S315080027509A421D4688BF15469A4216D9A5EB030C20
S315080027603546B61AAFB29742FAD22646A41AB3B27B
S315080027709342FAD20068C419BB424C6007D90020BC
S3150800278088604880701B0880F0BDFEF7B0BB886083
S31508002790501B0880ACEB00004880F0BDB0B502893C
S315080027A043890446FEF74AFE0546A08861892A46FB
S315080027B0FEF7ACFE60812846B0BDBCB50446038969
S315080027C0408900902046FEF75EFE0546A08861898E
S315080027D02A46FEF79BFE60812846BCBD01894289D0
S315080027E08088891A38BF01EB40018AB2904288BFB7
S315080027F00246501A80B2704770B505890E460446DF
S31508002800FFF761FF30B1B4F90600B0F1FF3F01DD13
S31508002810002616E0A1882A46531A90B288421A461C
S31508002820FAD2E28821686FF3DF3202FB00103146E4
S31508002830FDF7FCFCA088294601220126FEF766FE64
S315080028402081304670BD2DE9F84F002A58D0B0F8DF
S315080028500890B0F906B08846868841891546044628
S31508002860BBF1000F0ED4B9EB010038BF00EB4600F0
S3150800287080B28642014688BF3146081A81B2A9420B
S315080028801BD91DE0AE4210D9B9EB010038BF00EBE9
S31508002890460080B22844B0EB460F11D3701B82B2B3
S315080028A03046FEF733FE81460AE05A46A81B89469B
S315080028B06FF3DF3200FB02883046010405461FD05D
S315080028C04A461146921B88B2B042FAD22268771A53
S315080028D06FF3DF3BAEB2B9B200FB0B208E4211D9C3
S315080028E007FB0BF11FFA81FA41465246FDF79EFC9B
S315080028F0E81B08EB0A0100FB0BF082B2206804E033
S3150800290000250AE006FB0BF24146FDF78FFCA0887E
S3150800291049463246FEF7FAFD2081A8B2BDE8F88F8F
S31508002920B0B50A681A4C00254B6884E82C00E560A7
S31508002930BDE8B040FFF7C6BCF8B50C684D68144E44
S315080029400027C6E90045F781B260CC889C4298BF4B
S315080029502346B3813CB17AB973B187480068C0078A
S3150800296014D000BE12E0FFF7ADFC40B982480068FB
S31508002970C0070BD000BE09E0FEF706FE08B101202D
S31508002980F8BD7D480068C00700D000BE0020F8BD2D
S3150800299058010020F0ED00E000487047FC360008BA
S315080029A00048704730370008004870471E3700084F
S315080029B000207047002070472DE9FF41DFF8C480EA
S315080029C098F8001081BB3049304B0DF1040C0DF11D
S315080029D0020500260A6801924A680292012289685D
S315080029E088F80020039100210C2919D01CF80170E1
S315080029F007F00F048DF803403C0900278DF80240C4
S31508002A00022F0BD0EC5D37220A2C38BF3022224425
S31508002A10F4B2013701361C442274F1E70131E3E7C9
S31508002A20F1B2002219440A74B0B103281CD8174918
S31508002A3051F820502846FDF7DAFB10F0E00F18BFD2
S31508002A401F2008F10401C0B2024682B115F8013B05
S31508002A50013A21F8023BF8E70C4800680088A8F814
S31508002A6004004FF4417007E04FF0000806E0022129
S31508002A7001EB400040F4407028F8020F404604B0CD
S31508002A80BDE8F08110020020E8F7FF1F08000020CB
S31508002A9080B537480078FEF7A2FD012080BD00BF4B
S31508002AA070470120FEF7E8BAFEF718BB2DE9F04794
S31508002AB0DFF8DCA980469AF80000FF2802D001203A
S31508002AC0BDE8F0870D4669B32A4F342107F10C009B
S31508002AD0FDF7F9FB002038700AF10800FFF7CAFD78
S31508002AE00AF104007860781C00F0D0FBB8607878AA
S31508002AF0FF2823D0DFF8F49600240026411CC9B22B
S31508002B008E4221D2C0B2864203D2B86880B1204430
S31508002B1001E048460CD1406850B1804778782434A3
S31508002B200136EBE7EE480068C0071DD000BE1BE083
S31508002B30EB480068C00717D000BE15E0E8480068F3
S31508002B40C00711D000BE0FE0404629468AF800802B
S31508002B50FEF778FF18B14046FEF7B5FFAFE7E04845
S31508002B600068C00700D000BE0020BDE8F08700BF9F
S31508002B7034000020D0010020F0ED00E07047FEF799
S31508002B8085BA00002DE9F04F89B0DFF8049999F865
S31508002B900000FF2800F0278305ACD14FDFF8DC885A
S31508002BA004F1040AD9F80410D8F80460002088470C
S31508002BB0301D2146FFF7F2FDD9F80410064601201C
S31508002BC08847002E00F00F839DF815000138072866
S31508002BD00DD8DFE800F004111820293070979DF809
S31508002BE0140000F057FC069888F80E00DAE73868F3
S31508002BF0C007D7D000BED5E79DF8140000F04AFC00
S31508002C0000F0F8FACEE798F80F00C007CAD0069881
S31508002C10FFF7B4FFC6E798F80C00C107C2D0C0F3A7
S31508002C20C000FFF7ACFFBDE798F80C00C007B9D0A5
S31508002C30FFF73AFFB6E798F80000002800F0CA82C6
S31508002C4098F80000013888F8000098F80000002875
S31508002C50A8D198F80C00BB4640F0010088F80C0093
S31508002C6098F8300000F0FE0088F8300098F8300038
S31508002C7000F0FB0088F8300098F8310000F0FE00FC
S31508002C8088F8310098F8310000F0FB0088F8310028
S31508002C9000209DF8147000F003FB9DF81800C0F39F
S31508002CA04111022949D0032955D1FEF725F900F02B
S31508002CB04C8100BE49E19DF8181011F00F0008EB91
S31508002CC0400000EBD11292F8303003F0FE0382F890
S31508002CD0303092F8303003F0FB0382F8303018D0E9
S31508002CE0CA09104498F8012090F82000824218D9A1
S31508002CF0D8F80820002A00F0728200EBC00002EB28
S31508002D00800012E0069900293FF44CAF07988847DF
S31508002D1048E7079B9DF814009DF8192000F0CEFAA5
S31508002D2040E7DFF8C80440F05A828569079B9DF89A
S31508002D3014009DF81920A84734E7DFF8B40400F01A
S31508002D40AFFA38460121524600F058FA002800F03A
S31508002D50FC805F4626E700F01F0102291DD00129E5
S31508002D6042D0002955D100F06000202857D19DF89F
S31508002D701C000F2800F2E980404498F80110007CF6
S31508002D80814240F29680D8F80810002900F0DD80CC
S31508002D9000EBC00001EB80018EE0BDF81C1001F0CD
S31508002DA00F02082A4FD2C9B208EB4206DFF83C5494
S31508002DB04FEAD11C664496F8203098F801609E4286
S31508002DC04FF0000603EBC30308BF2E46D8F8085099
S31508002DD088BF05EB830610F0600F57D0002E00F071
S31508002DE0B4803846314668E09DF81C000F2800F28A
S31508002DF0AC80404498F80110007C814229D9D8F863
S31508002E000810002900F0A18000EBC00001EB80014A
S31508002E1023E0FEF771F800F0988000BE95E09DF873
S31508002E201900092856D8DFE800F0054C555D5568A5
S31508002E307755A5AF98F80C00022101EA9001C0F376
S31508002E40401008444BE1FEF757F800F07E8000BEBC
S31508002E507BE0DFF8981340F0788038465246FFF753
S31508002E60C9F900287FF475AF9DF8180010F0600FB7
S31508002E7040F06B80002000F013FA9DF819000B282B
S31508002E8000F058810A2860D1002075E09DF81900E5
S31508002E90032818BF012840F01A81BDF81A20002A15
S31508002EA040F03081012840F02A81002000F06EFAB7
S31508002EB028E1DFF8381348D138465246FFF79AF921
S31508002EC044E7BDF81A0001283FD198F80C0000F035
S31508002ED0F7000FE0FEF710F837D000BE35E000BF68
S31508002EE0F0ED00E0BDF81A0001282ED198F80C0084
S31508002EF040F0080088F80C001CE1504600F0D4F9B0
S31508002F009DF81A103846FFF723F898F80C0040F099
S31508002F10020088F80C001CE7BDF81A004FF0FF31D4
S31508002F2001EB10210E2910D8DFE811F01A0009016B
S31508002F3014010F000F001A0122010F000F000F00E5
S31508002F400F000F000F000F0028019DF81400002144
S31508002F50FEF702FC9DF814008021FEF7FDFBF8E65B
S31508002F60FFF722FD002800F0228102463846514626
S31508002F7012230CE198F80D008DF8220038465146C8
S31508002F800DF122020123B1E098F80D009DF81A60B0
S31508002F90B04200F0CF8098F80D0068B1384600219D
S31508002FA0FEF7DCFF3846FEF761FB98F80E50384608
S31508002FB0FEF7B8FA88F80E50002E88F80D6000F073
S31508002FC0B780701EC0B2FFF7EBFC002800F0AB809C
S31508002FD04178022940F0A780C1792022102302EA0D
S31508002FE0510203EA510198F80C3003F0CF03194453
S31508002FF0114488F80C104188421800F10901019221
S31508003000914280F0DF8048780B2805D10878CB7884
S3150800301001440293487801E001230293042840F012
S31508003020D480501A4FF0000C0025039182B298F80C
S315080030300130581CC6B2B5423FD29D4206D2D8F8D6
S315080030400800002800F0A680604402E0674840F0C7
S31508003050A18003693846CDF810C01646984732460F
S31508003060092802D30646824206D2DDF810C0039923
S3150800307001350CF1240CDAE703990020AC46029BD3
S31508003080C2B29A420DD28A780244D2B208EB02033F
S3150800309013F8102FFF2A40F0908083F800C0013003
S315080030A0EDE708F120005FFA8CF33246FFF712F9D4
S315080030B0039998F8010031440130C0B2EAB282425D
S315080030C0019A9DD3FDF734FF68D000BE66E080B94B
S315080030D008EB4200604490F83000C0F34000ADF8B9
S315080030E02200384651460DF122020223FFF724FC3E
S315080030F02FE6FDF701FF3FF428AF00BE25E70020C5
S3150800310000F082F9002E3FF424AE38463146524686
S31508003110FFF770F8002000F0C3F898F83100C007F0
S315080031207FF417AE06E0FDF703FF37D000BE35E0A3
S3150800313000F060F838465146FFF7F2FB09E6C0B2E0
S31508003140FFF72EFC0246F8B9FDF7D6FE3FF4FDAEB2
S3150800315000BEFAE6BDF81C10C0B2FFF72DFC01E070
S31508003160FFF726FC00283FF4F0AE037802460CE091
S31508003170C0B2FFF71FFC024630B9E6E6FFF70CFCC3
S3150800318000283FF4E2AE0246538838465146FFF718
S31508003190D3FBDBE5FDF7CCFE00D000BE002088F8A7
S315080031A00D000868C0073FF4D0AE00BECDE6FDF7B7
S315080031B0A3FE3FF4CAAE00BEC7E6FDF7B9FEEDD0E2
S315080031C000BEEBE7FFF76DFCB4E7FDF7B1FEE5D00F
S315080031D000BEE3E73868C00705D000BE03E03868DC
S315080031E0C00700D000BE09B0BDE8F08FD836000889
S315080031F0FD3100080020FDF73FBF000001291CBF74
S3150800320001207047117801F0600140290BD15178EF
S31508003210012908D19188072905D1044B11461A4678
S315080032209E23FFF789BB0020704700BF5037000870
S3150800323008B10020704780B5BF486030FFF736FAFE
S3150800324080BD00BF08B100207047E84813460A460B
S3150800325000F158010020FFF788B800BF08B1002028
S31508003260704710B5E1480C4693B22246011D00206E
S31508003270BDE81040FFF7EAB808B100207047EB48F0
S31508003280011D0020FFF732B9704770470021017011
S315080032900020704780B536481421FDF714F880BD24
S315080032A033490861704700BF01684068304A002307
S315080032B0C2E90010C2E90233704700BF70B52C4D51
S315080032C004461E4695F90000414049B2B1F1FF3F58
S315080032D027DD002807D4A86800283DD005F1140189
S315080032E03246FCF7A3FFA968E88931443044A9604F
S315080032F0E988E88180B2814218BF3F2E23D82B691E
S3150800330023B11B4A20460221984738B3184920465C
S31508003310FEF7D8FF50BBB6480068C0071CD000BEF1
S315080033201AE02EB1B2480068C00715D000BE13E0F7
S3150800333020462946FEF754F92B69BBB10C4A2046AC
S315080033400321984712E02046FEF71EF970B9A848EF
S315080033500068C00700D000BE002070BD20460021CE
S31508003360FEF7FAF920468021FEF7F6F9012070BD2E
S3150800337058010020414A01F00F0002EB400000EB23
S31508003380D11000213030FEF7B7BF00BF10B5404856
S315080033900C460078FEF738F9384904F00F0001EBBF
S315080033A0400000EBD410FDF7B1FD10BDB0B588782C
S315080033B000070FD436480C46002205782F48817B33
S315080033C02046FFF7F1F858B128462146BDE8B04037
S315080033D0FEF764B986480068C00706D000BE04E058
S315080033E083480068C00700D000BE0020B0BD00BFFB
S315080033F0224A01F00F0002EB400000EBD110002139
S315080034003030FEF78DBF00BF10B521480C46007856
S31508003410FEF7A2F9194904F00F0001EB400000EB92
S31508003420D41090F8301041F0020180F8301090F86E
S31508003430301041F0010180F8301010BDB0B50F4CC6
S31508003440FDF77BFD0AD112480078257845F001057D
S315080034502570FEF7A9F938B10120B0BD64480068A7
S31508003460C00708D000BE06E0FDF771FD6048006899
S31508003470C00700D000BE0020B0BD00BFD0010020AC
S3150800348001460348007809B1FEF71DBBFEF71ABBD3
S315080034903400002080B5FEF745F8BDE88040FFF708
S315080034A0F9BE000070B5874C00200121AC25C9077C
S315080034B004BF012070BD00FB054606F15800FEF763
S315080034C03DFF301DFEF73AFF01200021EFE700BF60
S315080034D02DE9FF47DFF8EC91AC214FF0AC084846E0
S315080034E0FCF7F1FEDFF8E0A1002401254026E807F5
S315080034F008BFBDE8FF870AEBC41704FB0894002140
S31508003500002200230396002504F16C008DE8C10013
S3150800351004F15800FEF714FF07F1400004F1180102
S3150800352001220023CDE90016CDE90206201D00215F
S315080035300124FEF705FFDAE7940300202DE9F041A0
S3150800354005464879FF2808D1DFF878810C4698F8AF
S31508003550050098F85910084303D0002080B2BDE84A
S31508003560F0812078A178A718261888F80010BE429E
S315080035702ED230783044B8422AD87078052804D03C
S31508003580042825D00B2820D122E028463146FFF70B
S315080035900DFFF8B196F90200B0F1FF3F0BDD98F880
S315080035A0591091B9414611F8582FFDF790FCFEF7CE
S315080035B0EDFE50B914E098F8051031B9414611F8F6
S315080035C0042FFDF784FCFEF791FF30780644CEE71A
S315080035D0301BC3E706480068C007BED000BEBCE77C
S315080035E003480068C007B8D000BEB6E794030020B9
S315080035F0F0ED00E0F8B5334D00200126AC24F107C4
S3150800360008BFF8BD00FB045700FB04F100266E5402
S3150800361007F16000FFF72EF807F10C0087F85960EC
S31508003620FFF728F87E710120E9E700BF9403002020
S315080036302DE9F041804623481D4600230127AC2288
S31508003640FE0721D0DEB206FB020393F859708F42BB
S315080036501DD05C79012300278C42F1D1AC2206FBF0
S31508003660020042798A422AD1071DA9B23046FFF7DD
S315080036700CFE40463946FEF739FF00BB4046394640
S315080036802A46FEF765FF1AE00020BDE8F081AC2166
S3150800369006FB0100B0F8641000F1580721B1C16DAE
S315080036A06030AAB2FFF7CFF80748AAB200EBC611F6
S315080036B03046FFF7E9FD40463946FEF767FE01202A
S315080036C0BDE8F081940300201403002009040000DB
S315080036D0000001020304000000000000D1340008C5
S315080036E0A5340008F53500083D350008FD31000809
S315080036F0313600080000000000000000050F210018
S31508003700011C100500DF60DDD88945C74C9CD265D1
S315080037109D9E648A9F000003069E00010000120118
S31508003720010200000040501DAC60000101020301C7
S3150800373009022000010100804B0904000002FF0075
S31508003740000007050102400000070581024000004D
S315080037500A000000000003069E00140003005749F3
S315080037604E55534200000000000000000000800093
S315080037700400010028004400650076006900630023
S31508003780650049006E0074006500720066006100FD
S3150800379063006500470055004900440000004E00DC
S315080037A07B00380030003700390039003900430003
S315080037B033002D0045003400450030002D0034004C
S315080037C03000450041002D0038003100380038002F
S315080037D02D0034003800450038003500320042001C
S315080037E0350034004600320042007D00000057696B
S315080037F06E5553422042756C6B2044657669636545
S31508003800004F70656E424C542055736572002E2E1B
S315080038102F2E2E2F2E2E2F2E2E2F536F7572636559
S315080038202F41524D434D335F53544D333246312F5A
S315080038307573622E63004F70656E424C540000002B
S315080038406038000800000020500000002801000829
S31508003850B038000850000020481200004401000853
S315080038601000000001000000CC36000801380008EE
S31508003870EE37000818000020303132333435363739
S315080038803839414243444546000000000000000024
S3150800389000000000FF0000008134000852020020EA
S315080038A010000C00000000000024F40000000000D6
S705080000ED05
